:100000000C9463000C948B000C948B000C948B006C
:100010000C948B000C948B000C948B000C94241D7E
:100020000C948B000C948B000C948B000C94221E6F
:100030000C948B000C948B000C948B000C948B0014
:100040000C94D81D0C948B000C94A61D0C94801D50
:100050000C948B000C948B000C948B000C948B00F4
:100060000C94DE1E0C948B0000000000240027007E
:100070002A0000000008000201000003040700003D
:1000800000000000000000000000230026002900FE
:10009000010204081020408001020408102001021F
:1000A0000408102000000000250028002B00040494
:1000B0000404040404040202020202020303030310
:1000C00003030200422011241FBECFEFD8E0DEBFA1
:1000D000CDBF13E0A0E0B1E0EEEDF6E402C0059084
:1000E0000D92AA38B107D9F725E0AAE8B3E001C01C
:1000F0001D92A838B207E1F710E0C3E6D0E004C0D3
:100100002197FE010E943D22C236D107C9F70E9405
:1001100087200C946D230C940000982F2091A90443
:1001200081E0213208F043C0809185048111FCCF29
:100130008091A80432E030938504909384049FEF6B
:10014000909383041092820420938104A8E8B4E081
:10015000E1E6F4E090E0291331C010926004909140
:100160006004880F892B8093600480915F04813044
:1001700049F510925F04809160048093BB008091E8
:10018000BC0083FDF8CF85EC8093BC008091850492
:100190008230E1F3809183048F3FB1F0809183043A
:1001A0008032A1F080918304803391F084E010923A
:1001B00087041092A9041092860408953D9131930A
:1001C0009F5FC9CF85EEE0CF80E0F1CF82E0EFCF37
:1001D00083E0EDCF909185049111FCCF91E0909355
:1001E0008504409384042FEF2093830410928204AB
:1001F000260F209381049093600490916004880FEF
:10020000892B8093600480915F048130F9F410920F
:100210005F04809160048093BB008091BC0083FDEB
:10022000F8CF85EC8093BC00809185048130E1F3A8
:1002300080918204861710F460918204A1E6B4E0F4
:10024000EFE3F4E080E0861303C0089585EEEACF83
:100250009D9191938F5FF7CFAF92BF92CF92DF9234
:10026000EF92FF920F931F93CF93DF936C017B016B
:100270008B01040F151FEB015E01AE18BF08C017FC
:10028000D10759F06991D601ED91FC910190F0816F
:10029000E02DC6010995892B79F7C501DF91CF9132
:1002A0001F910F91FF90EF90DF90CF90BF90AF9094
:1002B0000895FC01538D448D252F30E0842F90E06C
:1002C000821B930B541710F0CF9608950197089551
:1002D000FC01918D828D981761F0A28DAE0FBF2F1A
:1002E000B11D5D968C91928D9F5F9F73928F90E070
:1002F00008958FEF9FEF0895FC01918D828D9817DF
:1003000031F0828DE80FF11D858D90E008958FEF1B
:100310009FEF0895FC01918D228D892F90E0805CE4
:100320009F4F821B91098F73992708958AEA94E061
:100330000E948A0121E0892B09F420E0822F089590
:1003400080E090E0892B29F00E94960181110C94A5
:1003500000000895FC01A48DA80FB92FB11DA35A68
:10036000BF4F2C91848D90E001968F739927848FD5
:10037000A689B7892C93A089B1898C9183708064F8
:100380008C93938D848D981306C00288F389E02D99
:1003900080818F7D80830895EF92FF920F931F934A
:1003A000CF93DF93EC0181E0888F9B8D8C8D981328
:1003B0001AC0E889F989808185FF15C09FB7F89434
:1003C000EE89FF896083E889F98980818370806480
:1003D00080839FBF81E090E0DF91CF911F910F91CB
:1003E000FF90EF900895F62E0B8D10E00F5F1F4FDA
:1003F0000F731127E02E8C8D8E110CC00FB607FCE9
:10040000FACFE889F989808185FFF5CFCE010E9476
:10041000AA01F1CFEB8DEC0FFD2FF11DE35AFF4F39
:10042000F0829FB7F8940B8FEA89FB898081806204
:10043000CFCFCF93DF93EC01888D8823B9F0AA89C1
:10044000BB89E889F9898C9185FD03C0808186FD8F
:100450000DC00FB607FCF7CF8C9185FFF2CF8081DE
:1004600085FFEDCFCE010E94AA01E9CFDF91CF91A8
:100470000895833081F028F4813099F08230A9F01A
:1004800008958730A9F08830C9F08430B1F48091A4
:1004900080008F7D03C0809180008F7780938000E3
:1004A000089584B58F7784BD089584B58F7DFBCF83
:1004B0008091B0008F778093B00008958091B00054
:1004C0008F7DF9CF1F93CF93DF93282F30E0F90171
:1004D000EE58FF4F8491F901E057FF4FD491F90195
:1004E000E255FF4FC491CC23A9F0162F81110E9431
:1004F0003902EC2FF0E0EE0FFF1FEC55FF4FA591F6
:10050000B4918FB7F894EC91111108C0D095DE2307
:10051000DC938FBFDF91CF911F910895DE2BF8CF31
:100520009091010189130BC0E2ECF0E0E4919FEFA0
:1005300090930101E13049F028F0E23061F060E091
:100540000C94620210926E00FACF90916F009D7F22
:1005500090936F00F4CF909170009D7F9093700006
:1005600091E09093B0009091B100987F9460909347
:10057000B1001092B300E3CFCF93DF9390E0FC0182
:10058000E057FF4F249182559F4FFC0184918823AF
:10059000D1F090E0880F991FFC01E859FF4FA59119
:1005A000B491FC01EC55FF4FC591D49161110EC07F
:1005B0009FB7F8948C91E22FE0958E238C9328813D
:1005C000E223E8839FBFDF91CF9108958FB7F8941E
:1005D000EC91E22BEC938FBFF6CF4F925F926F922C
:1005E0007F928F929F92AF92BF92CF92DF92EF92C3
:1005F000FF920F931F93CF93DF9300D000D01F92F1
:10060000CDB7DEB78B0129013A019091010189171D
:10061000C9F09F3F09F47EC00F900F900F900F908C
:100620000F90DF91CF911F910F91FF90EF90DF908E
:10063000CF90BF90AF909F908F907F906F905F9082
:100640004F900895E2ECF0E094919D8397FDE4CF04
:1006500061E00E94BC028D81882321F09D8192304F
:1006600009F04AC14801B12CA12C60E072E18AE78F
:1006700090E0A50198010E94A72129833A834B832A
:100680005C8369017A0181E0C81AD108E108F108A8
:100690009FEFC916D104E104F10409F00CF401C183
:1006A00060E472E48FE090E0A50198010E94A72128
:1006B00069017A0181E0C81AD108E108F1089D8139
:1006C000923009F0A2C08FEFC816D104E104F10402
:1006D00009F00CF4E6C160E970ED83E090E0A5015B
:1006E00098010E94A72169017A0191E0C91AD108F5
:1006F000E108F1088FEFC816D104E104F10411F00C
:100700000CF07FC183E09091B100987F892B80939A
:10071000B100CFC080930101E2ECF0E094919D83A1
:100720009F3F09F479CF913041F150F0923009F4B4
:1007300046C09D8197FD70CF61E00E94BC028ECFC4
:1007400014BC15BC94B5926094BD95B5916095BDEF
:10075000282F30E0F901E255FF4FE491F0E0EE0F71
:10076000FF1FEC55FF4F45915491F901E057FF4FA2
:10077000E491E09304041D826BCF109280001092EC
:100780008100909181009860909381009091810008
:10079000916090938100282F30E0F901E255FF4FDE
:1007A000E491F0E0EE0FFF1FEC55FF4F459154919F
:1007B000F901E057FF4FE491E093030449CF109211
:1007C000B0001092B1009091B00092609093B00090
:1007D0009091B10091609093B100282F30E0F90121
:1007E000E255FF4FE491F0E0EE0FFF1FEC55FF4F95
:1007F0004591549150930E0440930D04F901E05734
:10080000FF4FE491E0930F0423CF9FEFC916D1046B
:10081000E104F10409F00CF46DC068E478EE81E0C5
:1008200090E0A50198010E94A72169017A0181E069
:10083000C81AD108E108F1089D81992309F4FAC08A
:100840008FEFC816D104E104F10411F00CF0FBC0E5
:10085000EFC064E274EF80E090E0A50194010E9493
:10086000A72169017A0181E0C81AD108E108F108DD
:1008700085E09FEFC916D104E104F10409F008F402
:1008800042CF62E17AE780E090E0A50194010E9406
:10089000A72169017A0181E0C81AD108E108F108AD
:1008A000E5C081E09D8191112ECF95B5987F892B70
:1008B00085BD2FEF3FEFA90141145104610471047C
:1008C00009F043C09D81913009F45EC0923009F473
:1008D0006DC09111A1CEC7BC2093090430930A04C6
:1008E00040930B0450930C0480916E0082608093BF
:1008F0006E0092CE82E0D6CFB12CA12C60E072E1E6
:100900008AE790E0A50198010E94A72169017A0178
:1009100081E0C81AD108E108F108C114D10491E0BE
:10092000E906F10404F591E08D81813011F68091A2
:100930008100887F892B809381002FEF3FEFA901F1
:100940004114510461047104F9F0D801AA0FBB1FCE
:10095000A30192010E94C62128EE33E040E050E05E
:100960000E94D121AFCF68E478EE81E090E0A5014C
:1009700098010E94A72169017A0181E0C81AD10873
:10098000E108F10893E0D0CFD0928900C0928800AE
:100990002093050430930604409307045093080401
:1009A00080916F00826080936F0036CEC092B3005A
:1009B00020931004309311044093120450931304B5
:1009C0008091700082608093700026CE84E09FEF5B
:1009D000C916D104E104F10409F008F466CFC98016
:1009E000DA80EB80FC808AE0F594E794D794C79492
:1009F0008A95D1F781E0C81AD108E108F10885E0AD
:100A000054CF68E478EE81E090E0A50198010E945F
:100A1000A72169017A0181E0C81AD108E108F1082B
:100A20009FEFC916D104E104F10411F00CF011CFCD
:100A300084E069CE83E09FEFC916D104E104F1049C
:100A400009F00CF432CF62E17AE780E090E0A50192
:100A500094010E94A72169017A0181E0C81AD10896
:100A6000E108F1089D81992309F4B0CF86E09FEF5A
:100A7000C916D104E104F10409F008F444CEC98098
:100A8000DA80EB80FC809AE0F594E794D794C794E1
:100A90009A95D1F781E0C81AD108E108F10887E0FA
:100AA00032CE82E030CE3FB7F8948091FF03909130
:100AB0000004A0910104B091020426B5A89B05C0D2
:100AC0002F3F19F00196A11DB11D3FBFBA2FA92FCD
:100AD000982F8827BC01CD01620F711D811D911DCA
:100AE00042E0660F771F881F991F4A95D1F7089536
:100AF0008F929F92AF92BF92CF92DF92EF92FF922E
:100B00006B017C010E9453054B015C01C114D104AF
:100B1000E104F104B9F00E945305681979098A09C2
:100B20009B09683E73408105910580F321E0C21A5C
:100B3000D108E108F10888EE880E83E0981EA11C18
:100B4000B11CE4CFFF90EF90DF90CF90BF90AF90BB
:100B50009F908F9008952FB7F8946091FB03709148
:100B6000FC038091FD039091FE032FBF08950F9326
:100B70001F93CF93DF93FA018FEF808386E0820F7C
:100B80008183DB0112969C911297928313969C911C
:100B900093830F3F110509F098F404832B5F3F4FB7
:100BA000DF01A20FB31FEF0120E08150990BAE01CE
:100BB0004E1B5F0B4817590734F43991230FF7CFB9
:100BC00093E09483EBCF2C93DF91CF911F910F9102
:100BD00008950F931F93CF93DF93E901DA011596E0
:100BE000F901202F30E08F010C1B1D0B021713079A
:100BF0001CF401910D93F7CF10E000E00E94B705BF
:100C0000DF91CF911F910F9108950F931F93890149
:100C100030E020E00E94B7051F910F910895DC019C
:100C200014962D913C91159724303105D9F028F474
:100C3000232B79F080E890E0089525303105C1F04C
:100C400026303105B9F7ED91FC910484F585E02D4E
:100C500005C0ED91FC910190F081E02D099590E0A7
:100C600080E00895ED91FC910084F185E02DF6CFB0
:100C7000ED91FC910284F385E02DF0CF8FEF9FEF93
:100C80000895CF93DF93DC019F962D913C91D097EF
:100C90002430310571F128F4232BE9F0DF91CF9155
:100CA0000895EC012530310561F126303105B1F7A9
:100CB0008A819B81DC01ED91FC91E657FF4F019009
:100CC000F081E02D6DE173E00995E881F9810484FC
:100CD000F585E02D28C0FC01628173810190F081CF
:100CE000E02D0088F189E02D18964C91DF91CF918D
:100CF0000994ED91FC910084F185E02DDF91CF9175
:100D000009948A819B81DC01ED91FC91E657FF4FAC
:100D10000190F081E02D6FE073E00995E881F981A1
:100D20000284F385E02DCE01E9CFCF93DF93EC0170
:100D30008A819B81DC01ED91FC91E85AFF4F019083
:100D4000F081E02D6885099518AA1FA690E080E043
:100D5000DF91CF910895CF93DF93DA0170E085534F
:100D60009F4F9D01241B350B26173707DCF42D916F
:100D700030E0220F331FFC01C081D181C20FD31F8D
:100D8000E881F981E0812E2F30E0F901EE0FFF1F9D
:100D9000E20FF31FEA52FC4F20812F7B2083198240
:100DA0001882DFCF90E080E0DF91CF9108954F92DD
:100DB0005F926F927F928F929F92AF92BF92CF92EB
:100DC000DF92EF92FF920F931F93CF93DF93EC018B
:100DD0006A0179018A01462E512C5C014BECA40E6C
:100DE000B11C38E8632E712C48E5842E42E0942E25
:100DF000C8018C199D09841595050CF08BC0E881FC
:100E0000F981E858FF4F0190F081E02D6AE273E02C
:100E1000CE010995D8018D918D0190E0880F991F21
:100E2000F50120813181820F931FDC014D915C918E
:100E3000052E000C660B770BE881F981EC57FF4F0C
:100E40000190F081E02D2AE030E0CE010995E881A3
:100E5000F981E858FF4F0190F081E02D61E373E0E4
:100E6000CE010995F701419151917F0170E060E059
:100E7000E881F981EC56FF4F0190F081E02D2AE0E6
:100E800030E0CE010995F8013197808190E0880F1C
:100E9000991FD5012D913C91820F931FDC01ED919B
:100EA000FC9160816C3008F0A3CFD70112972D918F
:100EB0003C918181A301481B510987FD5395CA01CB
:100EC000880F991F880F991F281739077CF0828196
:100ED000D401A81BB10987FDB395CD01880F991FD7
:100EE000880F991F281739070CF4C9010297AC0124
:100EF000440F551F7FB7F894862F90E09C01220F76
:100F0000331F820F931FFC01EA52FC4F528341832F
:100F10007FBF6ECF90E080E0DF91CF911F910F9166
:100F2000FF90EF90DF90CF90BF90AF909F908F9009
:100F30007F906F905F904F900895611124C08AEA6E
:100F400094E00E941902E091BC04F091BD048081FC
:100F50008F7E8083E091BC04F091BD048081877F07
:100F60008083E091BC04F091BD0480818F77808301
:100F7000E091BC04F091BD0480818F7D80838091DD
:100F8000C4048093C30490E080E00895611106C01A
:100F9000B90150E08AEA94E00E942C0190E080E0E0
:100FA00008954F925F926F927F92BF92CF92DF929D
:100FB000EF92FF920F931F93CF93DF93B42E6111A3
:100FC00035C0C42ED12C7901D0E0C0E0CC15DD05B0
:100FD00058F50E94AB056093B2047093B3048093FC
:100FE000B4049093B5048AEA94E00E94680197FFE4
:100FF00034C00E94AB054090B2045090B30460909E
:10100000B4047090B5046419750986099709409075
:10101000AE045090AF046090B0047090B1046415B9
:10102000750586059705F8F2F801C083F8018081FF
:101030008B1110C090E080E0DF91CF911F910F9154
:10104000FF90EF90DF90CF90BF907F906F905F9078
:101050004F90089583E890E0EFCFF70181937F01EF
:101060002196B4CFCF93DF93611106C0EA018AEADB
:1010700094E00E948A01888390E080E0DF91CF9124
:1010800008958F929F92AF92BF92FF920F931F93FA
:10109000CF93DF93EC01F62E49015A01E881F981E3
:1010A000E85AFF4F0190F081E02D0995E881F98120
:1010B00006A4F7A5E02DA50194016F2DCE01099599
:1010C000DF91CF911F910F91FF90BF90AF909F90B4
:1010D0008F9008954F925F926F927F928F929F921E
:1010E000AF92BF92EF92FF920F931F93CF93DF9334
:1010F000FC01EF53FF4F7081A72EB12CD0E0C0E070
:101100007C0172ECE70EF11CCA15DB05ACF4D701CB
:10111000ED91FC91DE01AA0FBB1FAA0FBB1FEA0FC6
:10112000FB1F408051806280738024153505460581
:10113000570510F02196E8CF209709F0219761110B
:1011400082C0CC0FDD1FCC0FDD1F7C01B2ECEB0E9B
:10115000F11CD701ED91FC91EC0FFD1F8080918077
:10116000A280B380E091BA04F091BB0482E0808356
:101170008114B1EE9B06A104B104A1F060E079E016
:101180008DE390E0A50194010E94D1212150310905
:101190004109510956954795379527952115E0E165
:1011A0003E07A8F0E091BA04F091BB04108260E819
:1011B00074E88EE190E0A50194010E94D1212150B4
:1011C0003109410951095695479537952795E09181
:1011D000B604F091B7043083E091B804F091B904FB
:1011E00020831092C204E091BE04F091BF0486E017
:1011F0008083E091BC04F091BD0480818061808394
:10120000E091BC04F091BD04808188608083E0910E
:10121000BC04F091BD04808180688083E091BC04AF
:10122000F091BD0480818F7D8083D7018D919C9149
:10123000C80FD91F88819981AA81BB81F801808359
:101240009183A283B38390E080E0DF91CF911F91DF
:101250000F91FF90EF90BF90AF909F908F907F90F5
:101260006F905F904F90089581E090E00895809195
:10127000D4039091D303891B990B089590E080E0EB
:1012800008950895089587539F4FDC01ED91FC91D7
:10129000E60FF11D8081882329F08F5F808390E025
:1012A00080E008951092D3031092D4031092870423
:1012B0001092A9041092850481E080938404109216
:1012C0005F0461E082E10E94620261E083E10E94CA
:1012D00062028091B9008E7F8093B9008091B9003D
:1012E0008D7F8093B90088E48093B80085E4809373
:1012F000BC0081E499E09093D2038093D10382E40F
:1013000099E09093D0038093CF03C9CF5F926F92FF
:101310007F928F929F92AF92BF92CF92DF92EF9285
:10132000FF920F931F93CF93DF93D42F822E61E010
:10133000802F0E94BC028E2D8170582ECE2DC0951C
:10134000C1706C2F802F0E94620210E0F12CE12C02
:10135000912C6D2E712CE814F90434F5652D802F35
:101360000E94620230E020E026153705A4F4812FA8
:10137000820F90E0F601E80FF91F40818A0D9B1D56
:101380004EBD00000DB407FEFDCF4EB5FC014083FD
:101390002F5F3F4FE9CF6C2F802F0E946202FFEF3B
:1013A000EF1AFF0A1D0FD7CF90E080E0DF91CF91B9
:1013B0001F910F91FF90EF90DF90CF90BF90AF9073
:1013C0009F908F907F906F905F9008958CB54111A2
:1013D00005C080628CBD90E080E008958F7DFACFDB
:1013E000CF93CFB7F8948091CE03811127C0E8EB5B
:1013F000F0E08491EAE9F0E09491E82FF0E0EE0F5C
:10140000FF1FE859FF4FA591B491EC91E92321F416
:1014100061E08AE00E94620261E08AE00E94BC0210
:101420008CB580618CBD8CB580648CBD61E08DE035
:101430000E94BC0261E08BE00E94BC028091CE035E
:101440008F5F8093CE03CFBF90E080E0CF9108956F
:101450008F929F92AF92BF92CF92DF92EF92FF92C4
:101460000F931F93CF93DF935A0169018A01E62EF0
:10147000F12CC8018A199B098E159F050CF062C0DA
:1014800061E0F80181918F010E94BC02F601819018
:101490006F01C82DD0E0F8013197908061E0892D6F
:1014A0000E94BC02209729F460E0892D0E9462020C
:1014B000E0CFCF3FD10511F461E0F7CFE92DF0E0A7
:1014C000EE58FF4FE491E33019F140F4E130B1F010
:1014D000E230C9F0C038D1057CF7E6CFE73011F132
:1014E000E83041F1E430B1F7809180008062809370
:1014F0008000D0938B00C0938A00BBCF84B58068F6
:1015000084BD87BCB6CF84B5806284BD88BCB1CFB2
:1015100080918000806880938000D0938900C09380
:101520008800A7CF8091B00080688093B00080923F
:10153000B3009FCF8091B00080628093B000809212
:10154000B40097CF90E080E0DF91CF911F910F9191
:10155000FF90EF90DF90CF90BF90AF909F908F90D3
:1015600008958F929F92AF92BF92CF92DF92EF92A7
:10157000FF920F931F93CF93C62F49015A01670122
:10158000780181149104A104B104F9F061E08C2F79
:101590000E94BC02A8019601CD28CE28CF2819F4BC
:1015A00020E030E0A901B4018C2F0E94ED0290E010
:1015B00080E0CF911F910F91FF90EF90DF90CF903F
:1015C000BF90AF909F908F900895862F0E949002B9
:1015D000EECF7F928F929F92AF92BF92CF92DF9287
:1015E000EF92FF920F931F93CF93DF937A016901DC
:1015F000EA0180E0812C28E0B22E062F10E0F601EF
:10160000E80DF11D9E012E193F09201731070CF03E
:101610003BC0B11032C08083839497E0992EA9908B
:1016200060E08A2D0E94BC022A2D30E0F901EE58BC
:10163000FF4F8491F901E057FF4FA490F901E25563
:10164000FF4F74907720F1F081110E943902E72D4D
:10165000F0E0EE0FFF1FEA57FF4FA591B491EC9118
:10166000AE2231E009F430E0832F092C01C0880F4D
:101670000A94EAF78B29B92CC2CF99249A949B0C2F
:10168000B82ECDCF80E0F1CF808390E080E0DF9175
:10169000CF911F910F91FF90EF90DF90CF90BF906F
:1016A000AF909F908F907F900895CF92DF92EF92AE
:1016B000FF920F931F93CF93DF937901EA01D12C0F
:1016C000C12C062F10E0C016D10604F561E0899107
:1016D0000E94BC02F60183E0F595E7958A95E1F753
:1016E000EE0DFF1D608170E0C6018770992702C072
:1016F000759567958A95E2F76170FE013197808153
:101700000E9462028FEFC81AD80ADDCF90E080E015
:10171000DF91CF911F910F91FF90EF90DF90CF90CD
:101720000895CF92DF92EF92FF920F931F93CF9382
:10173000DF93FC016130E9F030F0623009F450C011
:1017400081E890E00DC081E0809300018289938957
:10175000A489B589868B978BA08FB18F90E080E0AC
:10176000DF91CF911F910F91FF90EF90DF90CF907D
:101770000895DC01AC54BF4F6C91662309F390E0EF
:1017800080E070E08F010B541F4F861797070CF015
:1017900044C0E801A881B981EC01CC0FDD1FCC0F5A
:1017A000DD1FAC0FBD1FCD90DD90ED90FC902C1592
:1017B0003D054E055F0591F4880F991FDF01A9547F
:1017C000BF4F0D90BC91A02DA80FB91F8C91809395
:1017D0000001268B378B408F518FC0CF0196D5CF1C
:1017E000DC01A754BF4F8D919D910D90BC91A02D10
:1017F000281739074A075B0780F0DF01A354BF4F62
:101800008D919D910D90BC91A02D82179307A407F7
:10181000B50718F010920001DCCF82E890E0A0CF6D
:101820006F927F928F929F92AF92BF92CF92DF92F0
:10183000EF92FF920F931F93CF93DF938C01E901F7
:101840001882DA0198E0B92E912C70E0E8E0EE2ED3
:10185000F12CCD01841B950B861797070CF048C01F
:101860009D919E3008F09E50E0910001D0E4ED9FE4
:10187000F001112497709E2B90937C0080917A0048
:10188000806480937A0080917A0086FDFCCF8091FD
:101890007800E09179007E2E682EF801A188AA20B8
:1018A000C1F2C901890D911DE801E989CE2ECA183E
:1018B000DD08F30102C0F695E795CA94E2F7EF015F
:1018C0006701CB18D10801C0CC0FCA94EAF7FC011C
:1018D000D081CD2BC083AB1410F4BA18BACFAB189B
:1018E0009394E901C90DD11D188288E0B82ED7CF95
:1018F00090E080E0DF91CF911F910F91FF90EF90EA
:10190000DF90CF90BF90AF909F908F907F906F901F
:1019100008950E94AB0528EE33E040E050E00E94BD
:10192000D121CA01B90108950C94AB05CB01BA01CC
:101930000C9478059CB59C7F282F2370922B9CBD1E
:101940009DB582FB222720F9892F8E7F822B8DBDAA
:1019500008954F925F926F927F928F929F92AF9273
:10196000BF92CF92DF92EF92FF920F931F93CF938C
:10197000DF937C0129013A01D0E0C0E04C0184EC06
:10198000880E911C6701A5ECCA0ED11C5701B7EC5B
:10199000AB0EB11CF401808190E0C817D90724F583
:1019A000D601ED91FC919E01220F331F220F331FB0
:1019B000E20FF31F40815181628173814416550605
:1019C0006606770620F1F8014083518362837383B2
:1019D000CC0FDD1FF701E953FF4F80819181C80FC4
:1019E000D91F88810E949A0C90E080E0DF91CF910E
:1019F0001F910F91FF90EF90DF90CF90BF90AF902D
:101A00009F908F907F906F905F904F900895019777
:101A10008C179D0789F4D8014D935D936D937C934A
:101A20001397D501ED91FC91CE01880F991FE80F16
:101A3000F91F80810E949A0C2196ACCF9CB5937FB0
:101A4000892B8CBD0895413061F038F0423059F057
:101A5000433059F090E080E0089580E00E941E0D30
:101A6000F9CF84E0FBCF88E0F9CF8CE0F7CF2F925D
:101A70003F924F925F926F927F928F929F92AF921E
:101A8000BF92CF92DF92EF92FF920F931F93CF936B
:101A9000DF93CDB7DEB7A1970FB6F894DEBF0FBEC8
:101AA000CDBF6C01362ECA01B901611571058105E2
:101AB000910511F5D601ED91FC9100ACF1ADE02D51
:101AC00040E3632DC601A1960FB6F894DEBF0FBEAA
:101AD000CDBFDF91CF911F910F91FF90EF90DF90DD
:101AE000CF90BF90AF909F908F907F906F905F90BE
:101AF0004F903F902F900994FE0131964F01412C59
:101B0000512C32015F01E02EF12C10E000E0A80121
:101B100097010E94D121222E39A3DA01A30192015B
:101B20002F5F3F4F4F4F5F4FF40161934F01622D85
:101B300079A1CD01611571058105910599F57901AD
:101B400010E000E0D601ED91FC9100ACF1ADE02D8C
:101B5000D201A01BB10BAA0DBB1D4C914A3028F538
:101B6000405D632DC60109950F5F1F4FE016F1061A
:101B700049F7A1960FB6F894DEBF0FBECDBFDF9137
:101B8000CF911F910F91FF90EF90DF90CF90BF907A
:101B9000AF909F908F907F906F905F904F903F900D
:101BA0002F90089529013A01B2CF495CDACF089508
:101BB000089508950895089508950895089508953D
:101BC00081E090E0089581E090E0089581E090E068
:101BD000089581E090E00895FF920F931F93CF93B3
:101BE000DF93EC01F62EE881F981EA5BFF4F01906B
:101BF000F081E02D0995E881F981E85BFF4F0190C4
:101C0000F081E02D6F2DCE01DF91CF911F910F91CB
:101C1000FF9009941F93CF93DF93EC01162FE88177
:101C2000F981EC5BFF4F0190F081E02D0995E8818F
:101C3000F981E85BFF4F0190F081E02D612FCE012B
:101C4000DF91CF911F9109941F93CF93DF93EC0104
:101C5000162FE881F981EE5BFF4F0190F081E02DB6
:101C60000995E881F981E85BFF4F0190F081E02D53
:101C7000612FCE01DF91CF911F9109941F93CF93D4
:101C8000DF93EC01162FE881F98106ACF7ADE02D6A
:101C90000995E881F981E85BFF4F0190F081E02D23
:101CA000612FCE01DF91CF911F9109941F93CF93A4
:101CB000DF93EC01162FE881F98104ACF5ADE02D3E
:101CC0000995E881F981E85BFF4F0190F081E02DF3
:101CD000612FCE01DF91CF911F9109941F93CF9374
:101CE000DF93EC01162FE881F98102ACF3ADE02D12
:101CF0000995E881F981E85BFF4F0190F081E02DC3
:101D0000612FCE01DF91CF911F9109941F93CF9343
:101D1000DF93EC01162FE881F98100ACF1ADE02DE5
:101D20000995E881F981E85BFF4F0190F081E02D92
:101D3000612FCE01DF91CF911F9109941F93CF9313
:101D4000DF93EC01162FE881F98100ACF1ADE02DB5
:101D50004DE00995E881F98100ACF1ADE02D4AE054
:101D6000612FCE01DF91CF911F9109940F931F93A3
:101D7000DC01ED91FC910115110539F400ACF1ADD8
:101D8000E02D422F1F910F9109940A30110541F463
:101D9000EE5BFF4F0190F081E02D1F910F910994B0
:101DA000E856FF4F0190F081E02D09951F910F91AA
:101DB00008950F93DC01ED91FC91E856FF4F0190DF
:101DC000F081E02D0AE009950F910895CF92DF92FE
:101DD000EF92FF920F931F93CF93DF93EC01162F97
:101DE00069017A01F7FE0FC0E881F98100ACF1AD1D
:101DF000E02D4DE20995F094E094D094C094C11C7C
:101E0000D11CE11CF11CE881F981E856FF4F0190DB
:101E1000F081E02D0AE0A7019601612FCE0109951E
:101E2000DF91CF911F910F91FF90EF90DF90CF90B6
:101E300008959A0150E040E0DC01ED91FC91EC5BEB
:101E4000FF4F0190F081E02D09949A01550F440B4A
:101E5000550BDC01ED91FC91EE5BFF4F0190F081A1
:101E6000E02D0994DC01ED91FC9104ACF5ADE02D81
:101E70000994FF920F931F93CF93DF93EC01F62EFB
:101E80008A01F80141918F01442349F0E881F981E9
:101E900000ACF1ADE02D6F2DCE010995F2CFDF91B1
:101EA000CF911F910F91FF900895CF93DF931F92D1
:101EB000CDB7DEB74983DC01ED91FC9106A8F7A907
:101EC000E02D9E012F5F3F4F41E009950F90DF917C
:101ED000CF91089581E090E008950895EF92FF92E8
:101EE0000F931F93CF93DF9300D000D0CDB7DEB711
:101EF0007C0119821A821B821C82DC01ED91FC910B
:101F000006A4F7A5E02D8E010F5F1F4F20E032ECF5
:101F100041E050E00995D701ED91FC91E657FF4F64
:101F20000190F081E02D65E373E0C70109950F9002
:101F30000F900F900F90DF91CF911F910F91FF9015
:101F4000EF90089508950895089585ED8093BC005D
:101F50008091BC0084FDFCCF1092850408952091EF
:101F6000AA03260F3327331F21323105ECF42091C9
:101F70008504FC0190E080E0243069F082E008955F
:101F8000A091AA032191AC0146575C4FA40FB52F35
:101F9000B11D2C930196861798F38091AA03680FC0
:101FA0006093AA0380E0089581E00895E091D3034F
:101FB0008091D403E81730F4F0E0E15CFB4F8081BE
:101FC00090E008958FEF9FEF08959091D303809153
:101FD000D4032FEF3FEF981748F4E92FF0E0E15CCE
:101FE000FB4F208130E09F5F9093D303C901089598
:101FF000CF92DF92EF92FF920F931F93CF93DF93D5
:102000007C01CB018A0120918604222389F0EB0117
:102010006B01C40ED51ECC15DD0569F06991D701A1
:10202000ED91FC910190F081E02DC7010995F3CF6E
:10203000642F0E94AF0FC801DF91CF911F910F91C4
:10204000FF90EF90DF90CF900895EF92FF920F9363
:10205000CF93C22FB70181E0809386044093A804F8
:10206000109287041092A904402F50E088E795E071
:102070000E94F80F81E0CC2319F0C13051F480E0C8
:102080000E948D0090E080E0CF910F91FF90EF9043
:10209000089581E00E948D0081E890E0F5CFCF9314
:1020A000DF931F92CDB7DEB7698320918604222388
:1020B000F9F02091A904203258F021E030E0FC0131
:1020C0003383228390E080E00F90DF91CF910895D9
:1020D00080918704E82FF0E0E857FB4F99819083C7
:1020E0008F5F809387048093A90481E090E0ECCF18
:1020F00061E0CE0101960E94AF0FF7CF90E080E043
:102100000895CB010C9491212F923F924F925F92B0
:102110006F927F928F929F92AF92BF92CF92DF92F7
:10212000EF92FF920F931F93CF93DF938C015A018D
:102130006A01462E512C3C018BEC680E711C4CE060
:10214000242E58EB852E5BE0952EC6018A199B093B
:10215000841595050CF09FC0D6013D906D01E32CD0
:10216000F12CEE0CFF1CF30180819181E80EF91E29
:10217000D7018D919C91892B41F783E090E00E94DB
:102180004322EC018091D5038C3008F081C091E0AE
:10219000980F9093D503888390E0FC01EE0FFF1F0A
:1021A000E80FF91FEA52FC4F92828182F701D18336
:1021B000C08388818C3008F04EC061E0832D0E947E
:1021C000BC028881282F30E0F901EE0FFF1FE20FDB
:1021D000F31FEA52FC4F9081907C232D2F73922B9A
:1021E000908319821A82622D0E940222829DA00190
:1021F000112430E020E0BA01620F731FFB01EE0FE3
:10220000FF1FE60FF71FEA52FC4F908196FD16C0A4
:102210002F5F3F4F2C30310571F781110FC01092A5
:102220008000F2E0F093810010928500109284000B
:10223000B19A80916F00826080936F00E8818E2F49
:1022400090E0FC01EE0FFF1FE80FF91FEA52FC4F70
:10225000808180648083D801ED91FC91E858FF4F24
:102260000190F081E02D67E473E0C8010995432DEA
:1022700050E070E060E0D801ED91FC91EC56FF4F2A
:102280000190F081E02D2AE030E0C80109955DCF92
:10229000BFEFB8838BCF90E080E0DF91CF911F91AB
:1022A0000F91FF90EF90DF90CF90BF90AF909F90F5
:1022B0008F907F906F905F904F903F902F900895F8
:1022C000DF92EF92FF920F931F93CF93DF9300D093
:1022D00000D0CDB7DEB77C018B01D42EDC01139684
:1022E0007C936E931297FB01878190E00E944322BA
:1022F000D7011A969C938E931997F801878190E0E5
:102300000E944322D7011C969C938E931B97D80161
:10231000ED91FC91E657FF4F0190F081E02D65E6CD
:1023200073E0C8010995F701D08619821A821B82D1
:102330001C8282819381DC01ED91FC9106A4F7A5BA
:10234000E02D8E010F5F1F4F20E835E240E050E0A6
:102350006D2D099584E090E0F70190AB87A70F9071
:102360000F900F900F90DF91CF911F910F91FF90E1
:10237000EF90DF9008950E9468230F931F9390E0E1
:10238000FC01E057FF4F7491FC01E255FF4FE491CF
:102390006111672FF0E0EE0FFF1FEA57FF4F8591A5
:1023A000949189019A013F70462F672F0E94FD1F6B
:1023B000611571058105910529F06F5F7F4F8F4F82
:1023C0009F4F9F701F910F910895AF92BF92CF9230
:1023D000DF92EF92FF920F93CF93DF93C62FD22F0E
:1023E0004130E1F561E08C2F0E94BC0261E08C2F4E
:1023F0000E94620261E070E080E090E00E94780557
:1024000060E08C2F0E94620261E070E080E090E06A
:102410000E94780561E08C2F0E94620260E08D2F9F
:102420000E94BC02A701960160E0002319F0013070
:1024300049F461E08D2F0E94BD11F5016083718325
:102440008283938390E080E0DF91CF910F91FF90A2
:10245000EF90DF90CF90BF90AF9008954230F1F6AB
:1024600061E08C2F0E94BC0260E08C2F0E9462020F
:1024700061E070E080E090E00E94780561E08C2FE0
:102480000E94620261E070E080E090E00E947805C6
:1024900060E0C1CF2F923F924F925F926F927F92F6
:1024A0008F929F92AF92BF92CF92DF92EF92FF9264
:1024B0000F931F93CF93DF93CDB7DEB728970FB657
:1024C000F894DEBF0FBECDBF4C012DB63EB61E82C6
:1024D000DC0112968D919C91DC01ED91FC9102A89A
:1024E000F3A9E02DAE014A5F5F4FD40118966C91BD
:1024F00009958E81823010F40C94AA1C1D82F4017F
:102500008281938121853285DC01ED91FC9104A8C3
:10251000F5A9E02D8E010B5F1F4F42E0D401189604
:102520006C910995D4011996ED91FC911A9720812F
:1025300012968D919C91DC01ED91FC9102A8F3A97A
:10254000E02DAE014A5F5F4FD40118966C912F3F8A
:1025500011F00C94951C09952E81D4011996ED91DA
:10256000FC9181818250990B281719060CF06FC0DD
:1025700005E610E0F40182819381DC01ED90FC908E
:1025800060854E81A185B28511962C912250330B26
:10259000421713060CF05BC0D701D296ED91FC9167
:1025A000AE014A5F5F4F099501501109F401828124
:1025B0009381DC01ED91FC9101151105E9F502A86B
:1025C000F3A9E02DAE014A5F5F4FD40118966C91DC
:1025D0000995F4018281938121853285DC01ED9199
:1025E000FC9104A8F5A9E02D8E010B5F1F4F4E81D1
:1025F000D40118966C9109958FEF9FEF0FB6F89460
:102600003EBE0FBE2DBE28960FB6F894DEBF0FBE9D
:10261000CDBFDF91CF911F910F91FF90EF90DF9091
:10262000CF90BF90AF909F908F907F906F905F9072
:102630004F903F902F900895E259FF4F0190F08105
:10264000E02D41E050E060E070E0099593CFF401A7
:10265000828193810184F285E02D9F012E5F3F4F9F
:1026600041814250DC01ED91FC9104A8F5A9E02DD7
:102670008E010B5F1F4FD40118966C910995F401E0
:1026800041855285DA0111962C9130E0D9011197DC
:10269000FA0160E0CF01841B950B8A179B071CF49D
:1026A0008191680FF7CFF40182819381FC01A081B1
:1026B000B181240F351FF9013197208126130C9425
:1026C0008C1CAA56BF4FED91FC9161E00995D40195
:1026D0001B964D905C901C9719966D907C901A9764
:1026E000F301448155815427452754274115FCEFB8
:1026F0005F07D8F0198292012B5F3F4FB3016A5FE9
:102700007F4FD30111968C91FA01FC5FEE0FFF1FF2
:10271000E80DF91D0584F685E02DAE014F5F5F4F92
:10272000875009957C01298105C64432510509F479
:10273000C4C508F04FC14231510509F418C308F06F
:1027400086C04A30510509F4E8C208F04CC0453053
:10275000510509F48AC260F44330510509F453C2AB
:1027600008F064C2452B09F431C321E030E030C3E6
:102770004830510509F497C208F0C8C246305105E7
:10278000A1F7F301208530E0322F2227032E000C21
:10279000440B550B8185282B19821A821B821C82BF
:1027A00012968D919C91DC01ED91FC9100A8F1A90C
:1027B000E02D8E010F5F1F4FD40118966C91099583
:1027C0007C01F40182819381DC01ED91FC91E2595D
:1027D000FF4F0190F081E02D48EE53E060E070E0A3
:1027E000099597014EC7F401A281B3814E3051057E
:1027F00009F4A8C268F44C30510509F49CC208F4ED
:1028000093C29D962D913C919E979C960C9151C29E
:102810004031510509F4A4C208F49BC2ED91FC912A
:102820001197E657FF4F0190F081E02D6BE773E0C1
:10283000CD01099530E020E0A201B301C4010E945E
:10284000050685E090E0F40190AB87A737C24A31D6
:10285000510509F4BDC308F05DC012968D919C919D
:102860004631510509F41FC370F54431510509F48F
:10287000C3C208F4B3C28F5B9F4FFC018381D201B6
:1028800015968C93D4011296ED91FC911397EF5B02
:10289000FF4F8281F20186831296ED91FC91EF5BEE
:1028A000FF4F8181D20117968C93D4011296ED913E
:1028B000FC91EF5BFF4F8081F201808710E000E028
:1028C00024E030E0CCC14831510509F42AC308F4B2
:1028D00019C3895B9F4FFC018381D20115968C93AC
:1028E000D4011296ED91FC911397E95BFF4F828121
:1028F000F20186831296ED91FC91E95BFF4F818195
:10290000D20117968C93D4011296ED91FC91E95B5C
:10291000FF4FD1CF4E31510509F4F5C350F5F40105
:10292000828193814C31510509F490C308F480C32E
:10293000835B9F4FFC018081D20115968C93159784
:10294000169650E040E0F40182819381FC01E35B44
:10295000FF4F208130E0421753070CF0D1C3840FA2
:10296000951FFC01E25BFF4F80818D934F5F5F4FAE
:10297000EACF4032510509F4EDC308F4DEC3423218
:10298000510509F445C44332510509F0EECE1296C3
:10299000ED91FC911397E055FF4F8381F201858300
:1029A0001296ED91FC91E055FF4F8281D20116966F
:1029B0008C93D4011296ED91FC911397E055FF4F43
:1029C0008181F20187831296ED91FC91E055FF4FD2
:1029D000808165C1413E510509F4EAC508F094C003
:1029E0004436510509F40DC508F051C04334510572
:1029F00009F4A2C488F44134510509F465C408F00F
:102A00007AC44532510509F0B0CE1296ED91FC9191
:102A100025AD36AD04AD4DC14036510509F4BDC4F8
:102A20004136510509F4D2C44434510509F09DCE14
:102A3000F30162857385848595850E9422226B014E
:102A40007C0112968D919C91DC01ED91FC910488A2
:102A5000F589E02D9E012F5F3F4F5901D301199653
:102A60000C91199716962C91169718964C911897C9
:102A700017966C9109957C0189819A812B813C8103
:102A8000F201358326839783808787013AC6423CCB
:102A9000510509F42EC500F5403C510509F4EDC47B
:102AA00008F00BC54338510509F05FCEF40182816F
:102AB0009381D30116966C91262F30E0295F3F4F0A
:102AC000260D371DA301495F5F4FDC01ED91FC919D
:102AD0000688F789E02D0DC4443C510509F443C52F
:102AE00008F429C5453C510509F452C5403E51053D
:102AF00009F03BCEF40182819381DC01ED91FC91E0
:102B000004A0F5A1E02D4FC54730F1E05F0709F4BF
:102B1000FBC5C0F5411531E0530709F4A2C5A0F487
:102B2000433E510509F478C508F45BC5443E5105A0
:102B300009F01BCE12968D919C91DC01ED91FC91D8
:102B400004A4F5A5E02D2FC5423091E0590709F402
:102B5000AFC508F49CC54330514009F006CED401FE
:102B600012968D919C91DC01ED91FC91068CF78D74
:102B7000E02DD30117964C91179716966C910995F5
:102B80007C0183CF4036E1E05E0709F460C610F5B2
:102B9000413421E0520709F4EAC5423431E05307D9
:102BA00009F445C64034514009F0DFCDF40182817B
:102BB0009381A3014A5F5F4FD30111966C916750D7
:102BC000DC01ED91FC91E65AFF4F0190F081E02D80
:102BD0000995E1C3423691E0590709F46FC608F43C
:102BE0004DC64336B1E05B0709F489C6443651400F
:102BF00009F0BBCDF40182819381DC01ED91FC9160
:102C0000E859FF4F84C61296ED91FC91139782818B
:102C1000F20185831296ED91FC918381D201169683
:102C20008C9310E000E022E030E019C01296ED91A4
:102C3000FC9113978085F20185831296ED91FC91AA
:102C40008185D20116968C93D4011296ED91FC9158
:102C50008285F201878310E000E023E030E0A201EA
:102C6000B301C4010E94B70529C01296ED91FC91F1
:102C7000139782A9F20185831296ED91FC9181A9A7
:102C8000D20116968C93D4011296ED91FC91139774
:102C900080A9F20187831296ED91FC9187A5D2015C
:102CA00018968C930BCE1296ED91FC912485358568
:102CB0000385A201B301C4010E94E905D401129663
:102CC0008D919C9113971B964D915C91DC01ED9138
:102CD000FC91EA56FF4F0190F081E02D60E00995EC
:102CE000F40182819381A385B485FC012081318127
:102CF000F90106A917A99D0111964C91D4011896C6
:102D00006C91F801099590E080E078CC1296ED91F5
:102D1000FC91278530890685CCCF1296ED91FC91E8
:102D2000238D348D028DC5CF97962D913C91989728
:102D300096960C91BECF9A962D913C919B97999621
:102D40000C91B7CFD4962D913C91D597D3960C91F9
:102D5000B0CFD7962D913C91D897D6960C91A9CF0C
:102D6000DA962D913C91DB97D9960C91A2CF1296D1
:102D7000ED91FC91FF96D30116968D919C91982729
:102D80008927982791838083F40182819381DC01D4
:102D9000ED91FC91E059FF4F0190F081E02DD301BE
:102DA00016964C9170E060E00995F4018281938160
:102DB000DC01ED91FC91E059FF4F0190F081E02D95
:102DC000D30117964C9161E070E0099530E020E066
:102DD000A201B301C4010E94050670CFCF96FC0189
:102DE0008181D20115968C93D4011296ED91FC91BC
:102DF00087ADF201868315CF8F5B9F4FD301189665
:102E00004D915C91542745275427052E000C660BE5
:102E1000770BFC014083518362837383D401129644
:102E20008D919C91DC01ED91FC91E059FF4F019057
:102E3000F081E02DD30116964C9162E070E0099587
:102E4000F40182819381DC01ED91FC91E059FF4F07
:102E50000190F081E02DD30117964C9163E070E072
:102E60000995F40182819381DC01ED91FC91E05997
:102E7000FF4F0190F081E02DD30118964C9164E052
:102E800070E00995F40182819381DC01ED91FC9160
:102E9000E059FF4F0190F081E02DD30119964C913C
:102EA00065E070E092CF8B5B9F4FD30116962D911A
:102EB0003C91322723273227FC0131832083D40120
:102EC00012968D919C91DC01ED91FC91E059FF4FA0
:102ED0000190F081E02DD30116964C9166E070E0F0
:102EE0000995F40182819381DC01ED91FC91E05917
:102EF000FF4F0190F081E02DD30117964C9167E0D0
:102F000070E063CF8B5B9F4FFC018181D2011596EE
:102F10008C93D4011296ED91FC91EB5BFF4F808175
:102F200068CF895B9F4FD30118964D915C915427D0
:102F300045275427052E000C660B770BFC014083B8
:102F4000518362837383D40112968D919C91DC012D
:102F5000ED91FC91E059FF4F0190F081E02DD301FC
:102F600016964C9168E070E00995F4018281938196
:102F7000DC01ED91FC91E059FF4F0190F081E02DD3
:102F8000D30117964C9169E070E00995F4018281B4
:102F90009381DC01ED91FC91E059FF4F0190F081AC
:102FA000E02DD30118964C916AE070E00995F40188
:102FB00082819381DC01ED91FC91E059FF4F0190FA
:102FC000F081E02DD30119964C916BE070E0FDCEBD
:102FD0001296ED91FC91E55BFF4FD30116968D9112
:102FE0009C9198278927982791838083F401828177
:102FF0009381DC01ED91FC91E059FF4F0190F0814C
:10300000E02DD30116964C916CE070E00995F40127
:1030100082819381DC01ED91FC91E059FF4F019099
:10302000F081E02DD30117964C916DE070E0CDCE8C
:10303000855B9F4FFC018181D20115968C93D40151
:103040001296ED91FC91E55BFF4F69CFD301169687
:103050002C91FC01E35BFF4F213208F441C080E278
:103060008083F40182819381DC01ED91FC91E05930
:10307000FF4F0190F081E02D40E26EE070E0099595
:10308000730110E000E0F40182819381FFEFEF1AF9
:10309000FF0AFC01E35BFF4F20812017110609F0B6
:1030A0000CF494CE800F911FFC01E25BFF4FD7011F
:1030B00016968C918083F40182819381B801615FBF
:1030C0007F4FDC01ED91FC91E059FF4F0190F081C1
:1030D000E02DD70116964C9109950F5F1F4FD3CF66
:1030E0002083F40182819381DC01ED91FC91E05910
:1030F000FF4F0190F081E02DD30116964C91BDCF8A
:1031000010E000E0ACCD1296ED91FC91D301169643
:103110008C91E259FF4F8083F40182819381DC011D
:10312000ED91FC91E059FF4F0190F081E02DD3012A
:1031300016964C9160E370E048CE1296ED91FC91AA
:10314000E259FF4F8081F201858310E000E021E029
:1031500030E085CDD30116968C91D4011296ED9175
:10316000FC911397E159FF4F813408F441C080E48A
:10317000808312968D919C91DC01ED91FC91E05938
:10318000FF4F0190F081E02D40E461E370E009958C
:10319000730110E000E0F40182819381FFEFEF1AE8
:1031A000FF0AFC01E159FF4F20812017110609F0A9
:1031B0000CF40CCE800F911FFC01E059FF4FD7019A
:1031C00016968C918083F40182819381B8016E5CA4
:1031D0007F4FDC01ED91FC91E059FF4F0190F081B0
:1031E000E02DD70116964C9109950F5F1F4FD3CF55
:1031F0008083F40182819381DC01ED91FC91E0599F
:10320000FF4F0190F081E02DD30116964C91BDCF78
:10321000F30166817781808591850E942222129632
:10322000ED91FC911397E055FF4F6083718382838A
:10323000938312968D919C91DC01ED91FC91E05964
:10324000FF4F0190F081E02DD30116964C9162E77B
:1032500070E00995F40182819381DC01ED91FC918C
:10326000E059FF4F0190F081E02DD30117964C916A
:1032700063E770E00995F40182819381DC01ED91AF
:10328000FC91E059FF4F0190F081E02DD301189699
:103290004C9164E770E00995F40182819381DC012F
:1032A000ED91FC91E059FF4F0190F081E02DD301A9
:1032B00019964C9165E770E088CD1296ED91FC91DE
:1032C000258136810481F5CCF40182819381D3017B
:1032D00016966C91262F30E0295F3F4F260D371D43
:1032E000A301495F5F4FDC01ED91FC910284F385FE
:1032F000E02D099550C0F301118112968D919C919A
:1033000092012B5F3F4FA3014A5F5F4F69EF610F4F
:10331000DC01ED91FC910684F785E02D09957C0197
:10332000E12FE850FF0B9F0153E0359527955A9503
:10333000E1F72F5F30E09FC012968D919C91F301D1
:10334000E3844E2D50E070E060E0742F662755272F
:1033500044272685422B258530E0322F222779010C
:10336000330F000B110BE42AF52A062B172B2185AE
:1033700030E0322F2227032E000C440B550B6285C0
:10338000262BDC01ED91FC910288F389E02DD3011D
:1033900016966C9109957C0124CAD30117966D91FC
:1033A0007D918D919C911A970E9422229B01AC01E4
:1033B000F40182819381DC01ED91FC910084F1851F
:1033C000E02DD30116966C910995E5CF1296ED91FB
:1033D000FC911397818DF20185831296ED91FC91FA
:1033E000808DD20116968C93D4011296ED91FC91AA
:1033F00013978789F20187831296ED91FC91868954
:103400004ECC1296ED91FC9113978189F201858340
:1034100012968D919C91D30111966C916750DC01AD
:10342000ED91FC910480F581E02D92012A5F3F4FE0
:10343000A3014A5F5F4F09957C01F3012181275069
:10344000330BD4011296ED91FC914189429FC0014A
:10345000439F900D1124AC01E3E056954795EA9502
:10346000E1F7242F87709927892B11F021E0240F91
:1034700030E02F5F3F4F870153C0F301218530E0DB
:10348000322F2227032E000C440B550B8285282B4C
:1034900019821A821B821C8212968D919C91DC01EA
:1034A000ED91FC9106A4F7A5E02D8E010F5F1F4F53
:1034B000D30116966C910995DECAD30119962C9109
:1034C000199730E0322F2227032E000C440B550BA6
:1034D0001A968C91282B19821A821B821C82F40165
:1034E00082819381DC01ED91FC9100A8F1A9E02D8E
:1034F000DCCF12968D919C91DC01ED91FC9102A89C
:10350000F3A9E02DAE014F5F5F4FD30116966C918A
:1035100009957C018981F2018583870121E030E0F2
:10352000A201B301C4010E94B705B4E0EB16F10497
:1035300009F0C4CB86C9198212968D919C91920193
:103540002B5F3F4FDC01ED91FC9104A8F5A9E02D24
:103550008E010F5F1F4FD30117964C911797169648
:103560006C910995DFC8F401828193819301295FF1
:103570003F4FD30111964C914850DC01ED91FC91E5
:1035800006A8F7A9E02DD30116966C91099503CFF3
:10359000F40182819381DC01ED91FC91E85AFF4FA7
:1035A0000190F081E02DD30116966C910995F3CE30
:1035B000F301218530E0322F2227032E000C440B2B
:1035C000550B8285282B19821A821B821C82129627
:1035D0008D919C91DC01ED91FC9106A0F7A1E02D6D
:1035E00064CF12968D919C917301B9E0EB0EF11CA2
:1035F000F30101810A50DC01ED91FC9100A4F1A5D9
:10360000E02DD30118962C91189717964C91179787
:1036100016966C910995BFCEF40182819381620167
:10362000F5E0CF0ED11CD3011996ED90FC90FE244D
:10363000EF24FE24DC01ED91FC9102A4F3A5E02D22
:10364000D30118960C9118971B962C911B971796DF
:103650004C91179716966C9109957C01F301208582
:1036600069CEF40182819381DC01ED91FC91028CA1
:10367000F38DE02DD30116966C9109957C0130E015
:1036800020E0A201B301C4010E9405064ECFF4015F
:1036900082819381DC01ED91FC91048CF58DE02D0C
:1036A000D30117964C91179716966C9109958ECB6E
:1036B000F30167817085818592850E9422229B019A
:1036C000AC0119821A821B821C8212968D919C91E8
:1036D000DC01ED91FC9100A0F1A1E02D8E010F5FC6
:1036E0001F4FD30116966C9109957C0189819A81AF
:1036F0002B813C81F201358326839783808710E0FC
:1037000000E024E030E00CCF1296ED91FC91D30163
:1037100017964C915201B5E0AB0EB11C63012AE043
:10372000C20ED11CD30111968C918B50990B642F32
:1037300070E00E940E22262FA081B18192968D9179
:103740009C9198878F83D3011996EC9019971896BE
:103750000C91189716966C91CF01EF81F885099519
:103760007C01D30111962C912B50330B84CEADB636
:10377000BEB6F301868190E09C01220F331F4DB746
:103780005EB7421B530B0FB6F8945EBF0FBE4DBF22
:103790000DB71EB70F5F1F4FFC013796E60DF71DE3
:1037A0007801D80130E020E02817390744F450812F
:1037B00041814D935D932F5F3F4F3296F5CFD12CD2
:1037C000C12CD30116966C91F40182819381DC01A6
:1037D0002D913C916C151D0499F094F0F7014191E5
:1037E00051917F0170E060E02C563F4FD901ED917F
:1037F000FC912AE030E00995BFEFCB1ADB0AE1CF5C
:10380000A301495F5F4F245A3F4FD901ED91FC91CD
:10381000980109957C019C01A201B301C4010E9499
:1038200005060FB6F894BEBE0FBEADBE7ECEF40147
:1038300082819381A3014A5F5F4FD30111966C91FE
:103840006750DC01ED91FC91E25AFF4FBEC9F401D3
:1038500082819381D30116966D917C91762767279B
:103860007627DC01ED91FC91E05AFF4F0190F08149
:10387000E02DD30118964C9109958DCDF4018281EC
:103880009381D30116966D917C91762767277627D1
:10389000DC01ED91FC91EE59FF4F0190F081E02D9C
:1038A000D3011B96EC901B971A960C911A971996B8
:1038B0002C91199718964C9109956DCDF401828140
:1038C00093819301255F3F4FD30118964D915C91F1
:1038D000199754274527542716966D917C91762782
:1038E00067277627DC01ED91FC91EC59FF4F0190A1
:1038F000F081E02DD3011A960C9109954CCDF4017D
:1039000082819381DC01ED91FC91EA59FF4F019096
:10391000F081E02D09953FCDD296ED91FC91AE015D
:103920004A5F5F4FD40118966C910995F40182812A
:10393000938121853285DC01ED91FC9104A8F5A9E4
:10394000E02D8E010B5F1F4F4E81D40118966C91B4
:103950000995D9C9D4019D96ED91FC91309709F450
:10396000D2C970E060E090E080E00995CCC9CB015D
:10397000642F0C9499214F925F926F927F928F9255
:103980009F92AF92BF92CF92DF92EF92FF920F93EE
:103990001F93CF93DF93842F211124C0602F013216
:1039A00008F060E241E00E94EA001092D3038093A5
:1039B000D4030E94AB052B013C0110E04701B12C60
:1039C000A12C8091D40380171106A4F0E6010C0D00
:1039D0001D1D0C171D0779F188E795E00E94E50F82
:1039E0008993F7CF2130A1F4602F013208F060E213
:1039F00040E0D9CF0E94AB05641975098609970983
:103A000086169706A806B906E0F683E890E002C09D
:103A100081E890E0DF91CF911F910F91FF90EF909F
:103A2000DF90CF90BF90AF909F908F907F906F90DE
:103A30005F904F90089590E080E0ECCF0C94DF22EF
:103A40000C94DF220C94DF221F920F920FB60F927C
:103A500011242F933F934F935F936F937F938F9393
:103A60009F93AF93BF93EF93FF9380911004909136
:103A70001104A0911204B0911304892B8A2B8B2B73
:103A8000D1F190910F04E0910D04F0910E0480812A
:103A9000892780838091100490911104A0911204D1
:103AA000B0911304181619061A061B069CF480918F
:103AB000100490911104A0911204B0911304019785
:103AC000A109B1098093100490931104A0931204EA
:103AD000B0931304FF91EF91BF91AF919F918F919C
:103AE0007F916F915F914F913F912F910F900FBEFA
:103AF0000F901F901895809101010E949002EACFCB
:103B00001F920F920FB60F9211242F933F934F9352
:103B10005F936F937F938F939F93AF93BF93EF9335
:103B2000FF938AEA94E00E94AA01FF91EF91BF916E
:103B3000AF919F918F917F916F915F914F913F9145
:103B40002F910F900FBE0F901F9018951F920F92FC
:103B50000FB60F9211242F938F939F93EF93FF93A0
:103B6000E091BA04F091BB048081E091C004F0912F
:103B7000C10482FD1BC090818091C3048F5F8F734D
:103B80002091C404821741F0E091C304F0E0E655AF
:103B9000FB4F958F8093C304FF91EF919F918F917D
:103BA0002F910F900FBE0F901F9018958081F4CF2A
:103BB0001F920F920FB60F9211242F933F938F9362
:103BC0009F93AF93BF938091FB039091FC03A091CF
:103BD000FD03B091FE033091FA0323E0230F2D374C
:103BE00058F50196A11DB11D2093FA038093FB03A4
:103BF0009093FC03A093FD03B093FE038091FF0319
:103C000090910004A0910104B09102040196A11DBD
:103C1000B11D8093FF0390930004A0930104B0931F
:103C20000204BF91AF919F918F913F912F910F907F
:103C30000FBE0F901F90189526E8230F0296A11D26
:103C4000B11DD2CF1F920F920FB60F9211242F9356
:103C50003F934F935F936F937F938F939F93AF9314
:103C6000BF93CF93DF93EF93FF938091CD03C091E8
:103C7000D503D0E087FF24C0109285001092840005
:103C80008091CD038F5F8093CD038091CD03082E6B
:103C9000000C990B8C179D0724F48091CD038C3078
:103CA000C4F18091840090918500049680349C49F1
:103CB00008F47AC08091840090918500049676C0C3
:103CC0008091CD03082E000C990B8C179D07C4F62C
:103CD000E091CD038E2FEE0F990BFC01EE0FFF1F2D
:103CE000E80FF91FEA52FC4F808186FFC9CFE091AF
:103CF000CD038E2FEE0F990BFC01EE0FFF1FE80F87
:103D0000F91FEA52FC4F808160E08F730E946202CB
:103D1000B7CF2091840030918500E091CD038E2FA4
:103D2000EE0F990BFC01EE0FFF1FE80FF91FEA528F
:103D3000FC4F81819281820F931F90938900809321
:103D40008800E091CD038E2FEE0F990BFC01EE0F52
:103D5000FF1FE80FF91FEA52FC4F808186FF11C058
:103D6000E091CD038E2FEE0F990BFC01EE0FFF1F9C
:103D7000E80FF91FEA52FC4F808161E08F730E94C7
:103D80006202FF91EF91DF91CF91BF91AF919F912F
:103D90008F917F916F915F914F913F912F910F90F4
:103DA0000FBE0F901F90189580E49CE990938900B6
:103DB000809388008FEF8093CD03E3CF1F920F9203
:103DC0000FB60F9211242F933F934F935F936F93EE
:103DD0007F938F939F93AF93BF93EF93FF938091C4
:103DE000B900887F803609F44AC0F0F5883209F4BA
:103DF000A7C018F5803109F49BC0B8F4882309F4F2
:103E0000F9C0883009F494C0FF91EF91BF91AF9150
:103E10009F918F917F916F915F914F913F912F91E2
:103E20000F900FBE0F901F901895883109F488C02D
:103E3000803251F78093830414C0803409F49DC00C
:103E400040F48033B9F38833F9F68093830485EC2A
:103E5000B0C0803509F485C0883509F496C088342F
:103E600099F60E94A50FD0CF883909F48CC038F597
:103E7000883729F050F4883611F0803729F683E02E
:103E8000809385041092CC0357C0883809F47BC016
:103E9000803919F0803809F0B7CF8091CC03803297
:103EA00008F071C0E091CC0381E08E0F8093CC03C9
:103EB0008091BB00F0E0E455FC4F80833DC0803B27
:103EC00039F0E0F4803A09F479C0883A09F09CCFDF
:103ED00084E0809385041092AB031092AA03E091D2
:103EE000D103F091D20309958091AA0381110FC0EB
:103EF00081E08093AA0310928A0309C0803C09F4F0
:103F0000A6CF883C09F4A3CF883B09F07DCFE09190
:103F1000AB0381E08E0F8093AB03F0E0E657FC4FDC
:103F200080818093BB009091AB038091AA0329C04C
:103F3000809160048093BB0085EC8093BC0064CFCB
:103F40009091820480918104981758F5E091820441
:103F500081E08E0F80938204F0E0EF59FB4F808167
:103F6000E9CFE091820481E08E0F809382048091FA
:103F7000BB00F0E0EF59FB4F808390918204809169
:103F800081049817C8F285E8D8CFE091820481E0D7
:103F90008E0F809382048091BB00F0E0EF59FB4FBD
:103FA00080838091840481115CCF81E080935F04E1
:103FB00084EA8093BC001092850426CF85EC809320
:103FC000BC00109285048091CC03803230F4E091E3
:103FD000CC03F0E0E455FC4F10826091CC0370E01C
:103FE000E091CF03F091D0038CEA93E00995109211
:103FF000CC030ACF1092830434CFCF92DF92EF929A
:10400000FF920F931F93E82FF92F05C0015011095C
:104010002109310961F1908196239417B9F305C004
:10402000015011092109310911F19081962394134E
:10403000F7CFC12CD12CE12CF12C0AC08FEFC81A7C
:10404000D80AE80AF80A0C151D052E053F0579F077
:1040500080818623841791F36C2D7D2D8E2D9F2DCD
:104060001F910F91FF90EF90DF90CF90089560E047
:1040700070E080E090E01F910F91FF90EF90DF9053
:10408000CF900895EAEAF4E01382128288EE93E07A
:10409000A0E0B0E084839583A683B78329ED32E066
:1040A0003183208325EC30E03587248724EC30E011
:1040B0003787268720EC30E0318B208B21EC30E0F5
:1040C000338B228B22EC30E0358B248B26EC30E0D6
:1040D000378B268B118E128E138E148EE7E4F5E04B
:1040E000158214822BEE32E03183208310AA17A6AA
:1040F00017821682E8E7F5E01382128284839583A3
:10410000A683B78381E093E09183808308957894B8
:1041100084B5826084BD84B5816084BD85B58260CC
:1041200085BD85B5816085BD80916E00816080937D
:104130006E001092810080918100826080938100E6
:1041400080918100816080938100809180008160F6
:10415000809380008091B10084608093B100809151
:10416000B00081608093B00080917A008460809379
:104170007A0080917A00826080937A0080917A0040
:10418000816080937A0080917A00806880937A00C1
:104190001092C1008DEC90E00E944322EC018EEF62
:1041A0008A831B8280E88F838AE691E099838883E3
:1041B00083E0888719861A8690E080E00E9491212A
:1041C000182F81E090E00E949121FE01FF96912F2F
:1041D0009183808382E08A838BE392E09983888352
:1041E0008CE08C838BE292E09E838D8380E48F83CE
:1041F00094E19B8727E132E03D872C87E6E0EE875C
:1042000041E152E0588B4F878AE0898B40E45BE4C0
:104210006CE470E04E8B5F8B688F798F4A8B5B8B81
:104220006C8B7D8BDE01A954BF4F0FE012E011961D
:104230001C930E93139781E08C9311960BE012E080
:1042400011961C930E9314961D921D921D921C9212
:10425000139714964D935D936D937C9313971A8ED9
:104260001C8E1B8EEEA345E052E058A74FA319A663
:104270001BA61AA68CA74EE354E05EA74DA740915B
:104280005C0150915D0160915E0170915F014FA7EB
:1042900058AB69AB7AABFE01EF53FF4F4DE0408363
:1042A00031964CE251E0518340838BAB4DE354E0B7
:1042B0005DAB4CAB37964CE354E0518340838EABFF
:1042C00044E052E058AF4FAB359787E0808331969A
:1042D00040E151E051834083329642E051E0518306
:1042E000408319AE1BAE1AAE9CAF3EAF2DAF3496D5
:1042F00084E194E09183808340E0BE0187E495E00F
:104300000E946011C0E0D0E087E495E00E94410681
:104310002097D1F30E9496018823B1F30E940000F8
:10432000F3CFF999FECF92BD81BDF89A992780B558
:104330000895262FF999FECF1FBA92BD81BD20BDE9
:104340000FB6F894FA9AF99A0FBE01960895052EC1
:1043500097FB1EF400940E94BE2157FD07D00E94D7
:10436000D12107FC03D04EF40C94BE21509540950A
:10437000309521953F4F4F4F5F4F08959095809511
:10438000709561957F4F8F4F9F4F08950E94F32145
:10439000A59F900DB49F900DA49F800D911D112499
:1043A0000895A1E21A2EAA1BBB1BFD010DC0AA1F76
:1043B000BB1FEE1FFF1FA217B307E407F50720F08E
:1043C000A21BB30BE40BF50B661F771F881F991F09
:1043D0001A9469F760957095809590959B01AC0152
:1043E000BD01CF010895A29FB001B39FC001A39F5B
:1043F000700D811D1124911DB29F700D811D11241E
:10440000911D0895991B79E004C0991F961708F033
:10441000961B881F7A95C9F78095089597FB072EFC
:1044200016F4009407D077FD09D00E94292207FCDA
:1044300005D03EF4909581959F4F089570956195B4
:104440007F4F089569279627692778278727782738
:104450000895AA1BBB1B51E107C0AA1FBB1FA617CB
:10446000B70710F0A61BB70B881F991F5A95A9F71D
:1044700080959095BC01CD010895EE0FFF1F05902A
:10448000F491E02D09940F931F93CF93DF93823023
:10449000910510F482E090E0E0918605F0918705A7
:1044A00030E020E0B0E0A0E0309799F4211531052C
:1044B00009F44AC0281B390B24303105D8F58A810C
:1044C0009B816115710589F1FB0193838283FE0154
:1044D00011C0408151810281138148175907E0F0D2
:1044E0004817590799F4109761F012960C93129798
:1044F00013961C933296CF01DF91CF911F910F91AC
:1045000008950093860510938705F4CF2115310592
:1045100051F04217530738F0A901DB019A01BD01A0
:10452000DF01F801C1CFEF01F9CF909387058093A8
:104530008605CDCFFE01E20FF31F819391932250A8
:10454000310939832883D7CF20918405309185059F
:10455000232B41F420916201309163013093850552
:10456000209384052091600130916101211531056E
:1045700041F42DB73EB74091640150916501241B71
:10458000350BE0918405F0918505E217F307A0F45F
:104590002E1B3F0B2817390778F0AC014E5F5F4F99
:1045A0002417350748F04E0F5F1F50938505409341
:1045B0008405819391939FCFF0E0E0E09CCFCF936F
:1045C000DF930097E9F0FC01329713821282A091E9
:1045D0008605B0918705ED0130E020E01097A1F449
:1045E00020813181820F931F2091840530918505B0
:1045F0002817390709F061C0F0938505E093840519
:10460000DF91CF910895EA01CE17DF07E8F54A81DF
:104610005B819E0141155105B1F7E901FB83EA83F6
:1046200049915991C40FD51FEC17FD0761F48081A2
:1046300091810296840F951FE90199838883828175
:1046400093819B838A83F0E0E0E012968D919C91A8
:1046500013970097B9F52D913C911197CD010296D2
:10466000820F931F20918405309185052817390703
:1046700039F6309751F51092870510928605B09360
:104680008505A0938405BCCFD383C283408151812B
:10469000840F951FC817D90761F44E5F5F4F88815B
:1046A0009981480F591F518340838A819B8193834D
:1046B00082832115310509F0B0CFF0938705E0938F
:1046C00086059ECFFD01DC01C0CF13821282D7CFB9
:0E46D00081E090E0F8940C946D23F894FFCFF5
:1046DE0001FF0400000005000100060002000300B7
:1046EE0000127A0000093D0080841E0040420F0037
:1046FE0020A1070090D0030048E801002C01000023
:10470E0058020000B004000060090000C012000052
:10471E008025000040380000004B00008070000033
:10472E00127A00000096000000E1000000C20100B5
:10473E0000008805800000000000A20F221D100C52
:10474E006A0F910B550B6A0FE90A6A0FB10AE51150
:10475E00280A6A0FF009E609230DA90C86094309F8
:10476E003E092510BB1C34096A0841083208D107DE
:10477E00C607320F390F550F250F190FE60ED90E3A
:10478E00B60E9E0E860E6E0E560E3E0E240E0A0EA1
:10479E00EC0D9D078410D706AB06E90DE60DE30D73
:1047AE00E00DE00D940C890C960CB71C81106E0F69
:1047BE00DD0DDC0DDB0DDA0DDF0DD90DD80DD70DAE
:1047CE00DE0DDD0DDC0DDB0DDA0DD90DD80DD70D9F
:1047DE006D0F370D00030506090A0BE0C810000324
:1047EE000000010203040500010203040506070888
:1047FE00090A0B0C0D0E0F1011121341726475691C
:10480E006E6F20556E6F0000000000A40F1E1D106D
:10481E000C6A0F910B550B6A0FE90A6A0FB10AE584
:10482E0011280A6A0FF009E609230DA90C8609431F
:10483E00093E092510BB1C34096A0841083208D10B
:10484E0007C607320F390F550F250F190FE60ED970
:10485E000EB60E9E0E860E6E0E560E3E0E240E0AD0
:10486E000EEC0D9D078410D706AB06E90DE60DE3A1
:10487E000DE00DE00D940C890C960CB71C81106E9A
:10488E000FDD0DDC0DDB0DDA0DDF0DD90DD80DD7DB
:10489E000DDE0DDD0DDC0DDB0DDA0DD90DD80DD7CE
:1048AE000D6D0F370D00000000CC012C01590119C0
:1048BE00028A0168017C01000000003E063E063EB1
:1048CE00063E064A1295063E06410660110000009D
:1048DE00004F10F80F7E10DE0D3709E50FD60F537F
:1048EE0074617465202D20436C6F73650053746181
:1048FE007465202D204578697400536572766F209B
:10490E0000203A2000446562756767696E6720452E
:10491E006E61626C65640043726561746564204EFD
:10492E00657720536572766F204F6E204368616EF7
:10493E006E656C20005374617274696E67204C69E9
:10494E007374656E65722E2E2E0A00436C6F73653E
:0A495E0020436F6D6D616E64000070
:00000001FF
