:100000000C9465000C948D000C948D000C948D0064
:100010000C948D000C948D000C948D000C9459233D
:100020000C948D000C948D000C948D000C942A057A
:100030000C948D000C948D000C948D000C948D000C
:100040000C942C1D0C948D000C941E200C946C2090
:100050000C948D000C948D000C948D000C948D00EC
:100060000C9459020C948D0000000000240027001D
:100070002A0000000000250028002B0000000000DE
:1000800023002600290004040404040404040202DA
:100090000202020203030303030301020408102007
:1000A0004080010204081020010204081020000012
:1000B0000007000201000003040600000000000029
:1000C00000000200FD008E113E2211241FBECFEF62
:1000D000D8E0DEBFCDBF14E0A0E0B1E0EEE2FFE487
:1000E00002C005900D92AE33B107D9F717E0AEE329
:1000F000B4E001C01D92AA34B107E1F710E0CAECE8
:10010000D0E004C02297FE010E949127C43CD10791
:10011000C9F70E9494220C9495270C94000082E564
:1001200095E00E94DB0F08950F931F9383EC90E0FE
:100130000E94A422182F092F0E94E80510933E0464
:1001400000933F0482E595E0612F702F40E00E940C
:100150009E0F1F910F9108958AE061E00E94DA1EC0
:100160008AE061E00E949B1E8CB580618CBD8CB5DD
:1001700080648CBD8DE061E00E949B1E8BE061E09D
:100180000E949B1E089581E0809385046093620421
:10019000109283041092840408952091610430E049
:1001A00080916004281B3109C901089540916004C1
:1001B00080916104481718F02FEF3FEF0AC0E42F39
:1001C000F0E0E05CFB4F8081282F30E04F5F4093F0
:1001D0006004C9010895E091600480916104E8170A
:1001E00018F0EFEFFFEF06C0F0E0E05CFB4F80811E
:1001F000E82FF0E0CF01089508951092890410923D
:10020000880488EE93E0A0E0B0E080938A049093A5
:100210008B04A0938C04B0938D0485EA91E09093B5
:100220008704809386040895CF92DF92EF92FF9225
:100230000F931F93CF93DF937C016B018A01809111
:1002400085048823A1F0C0E0D0E00DC0D701ED9176
:10025000FC91D601AC0FBD1F0190F081E02DC701CC
:100260006C9109952196C017D10780F304C0CB018A
:10027000642F0E943E02C801DF91CF911F910F9120
:10028000FF90EF90DF90CF900895DF93CF930F9280
:10029000CDB7DEB7FC016983809185048823C9F05E
:1002A00080918404803238F081E090E093838283EF
:1002B00020E030E015C080918304E82FF0E0ED5994
:1002C000FB4F998190838F5F809383048093840494
:1002D00005C0CE01019661E00E943E0221E030E0BF
:1002E000C9010F90CF91DF9108950F93062F809150
:1002F000620463E674E04091840421E00E94E90115
:100300001092830410928404109285040F91089532
:10031000413208F040E2862F60E474E00E94A001C0
:10032000109260048093610408951092600410920A
:10033000610410928304109284040E94EA030895D9
:10034000382F413210F040E042C08091920488235F
:10035000E1F791E090939204209394048FEF8093BF
:10036000FF041092BA0441504093BB044F5F909336
:10037000930480919304330F832B80939304809193
:100380009504813041F410929504809193048093F8
:10039000BB0085EC01C085EE8093BC008091920487
:1003A0008130E1F38091BA04841710F44091BA04CB
:1003B00020E030E00AC0FB01E20FF31FD901A6568E
:1003C000BB4F8C9180832F5F3F4F2417A0F3842F66
:1003D00008950F931F93582F122F413210F081E090
:1003E0004AC0809192048823E1F782E080939204CE
:1003F000009394048FEF8093FF041092BA0440930B
:10040000BB04AAE9B4E0FB0102C081918D938E2F59
:10041000861B8417D0F31092930480919304550F98
:10042000852B8093930480919504813041F4109240
:100430009504809193048093BB0085EC01C085EE08
:100440008093BC00112321F0809192048230E1F36B
:100450008091FF048F3F11F480E00DC08091FF0474
:10046000803211F482E007C08091FF04803311F0E4
:1004700084E001C083E01F910F910895482F6132FD
:1004800010F081E0089580919204843011F082E0B0
:1004900008956093DD04ACEBB4E0842F9C01F90176
:1004A00002C081918D938E2F841B8617D0F380E03C
:1004B00008951F920F920FB60F9211242F933F931E
:1004C0004F935F936F937F938F939F93AF93BF935C
:1004D000EF93FF938091B90090E0887F9070803611
:1004E000910509F4F2C081369105CCF58832910569
:1004F00009F47BC089329105B4F48031910509F487
:100500006FC0813191053CF4009709F447C1089709
:1005100009F04FC165C08831910509F466C0809724
:1005200009F047C182C08034910509F4A4C0813428
:10053000910544F48033910509F482C0C89709F00D
:1005400038C189C08035910509F489C08835910585
:1005500009F496C08834910509F02BC1AEC08839E2
:10056000910509F413C189399105ECF48837910597
:1005700009F4ABC0893791054CF48836910509F42C
:10058000A4C08037910509F014C19FC08838910537
:1005900009F4FCC08039910509F49DC080389105AB
:1005A00009F007C198C0803B910509F4C6C0813BA2
:1005B00091054CF4803A910509F49FC0883A910561
:1005C00009F0F7C0BAC0803C910509F4E3C0883C4B
:1005D000910509F4DFC0883B910509F0EAC0C2C06B
:1005E000809193048093BB00CFC09091BA04809116
:1005F000BB04981768F49091BA04E92FF0E0E6562E
:10060000FB4F80818093BB009F5F9093BA04BCC076
:1006100080919404882309F44BC085ED8093BC003D
:100620008091BC0084FDFCCFC2C080E28093FF04B7
:1006300085ED8093BC008091BC0084FDFCCFB7C0E9
:1006400080E38093FF0485ED8093BC008091BC0023
:1006500084FDFCCFACC088E38093FF049BC08091F5
:10066000BA049091BB00E82FF0E0E656FB4F908370
:100670008F5F8093BA049091BA048091BB0482C0CA
:100680008091BA049091BB00E82FF0E0E656FB4F52
:1006900090838F5F8093BA0480919404882341F003
:1006A00085ED8093BC008091BC0084FDFCCF7FC0B1
:1006B00081E08093950484EA6EC085ED8093BC0050
:1006C0008091BC0084FDFCCF72C083E080939204D3
:1006D0001092FE0459C08091FE04803208F056C08A
:1006E0008091FE049091BB00E82FF0E0E252FB4FB6
:1006F00090838F5F8093FE0447C08091FE04803218
:1007000030F4E091FE04F0E0E252FB4F108285ED00
:100710008093BC008091BC0084FDFCCF10929204B9
:100720006091FE04E0919804F09199048EED94E0BC
:1007300070E009951092FE042DC084E0809392042D
:100740001092DC041092DD04E0919604F09197047D
:1007500009958091DD04882329F481E08093DD04EC
:100760001092BC049091DC04E92FF0E0E454FB4FBC
:1007700080818093BB009F5F9093DC049091DC04A8
:100780008091DD04981710F485EC01C085E8809312
:10079000BC000FC085EC8093BC0009C01092FF0420
:1007A00085ED8093BC008091BC0084FDFCCF10924D
:1007B0009204FF91EF91BF91AF919F918F917F91A3
:1007C0006F915F914F913F912F910F900FBE0F90BE
:1007D0001F9018951092920481E0809394041092D7
:1007E000950482E161E00E94DA1E83E161E00E94EB
:1007F000DA1EE9EBF0E080818E7F808380818D7F3F
:10080000808388E48093B80085E48093BC000895D9
:10081000F999FECF72BD61BDF89A80B50895F99936
:10082000FECF1FBA72BD61BD40BD0FB6F894FA9AF3
:10083000F99A0FBE0895FC01809101058C3090F467
:1008400082838F5F80930105815090E0FC01EE0F61
:10085000FF1FE80FF91FEE5FFA4F88EB9BE09283D2
:10086000818308958FEF82830895DC0112968C9125
:10087000129790E0FC01EE0FFF1FE80FF91FEE5FEB
:10088000FA4F80818F7B808312968C916CE00E945E
:100890001F2790E0AC01440F551F480F591F440F0C
:1008A000551F440F551F20E030E0C901840F951FEC
:1008B000FC01EE0FFF1FE80FF91FEE5FFA4F80817A
:1008C00086FD05C02F5F3F4F2C30310571F708952D
:1008D000FC0122812C30B8F58081992787FD909505
:1008E00048E850E0481B590B440F551F440F551F53
:1008F0006417750784F08181992787FD909548E5F5
:1009000052E0481B590B440F551F440F551F6417E5
:1009100075070CF4AB0142505040CA01AA2797FD5D
:10092000A095BA2F880F991FAA1FBB1F4FB7F89425
:1009300030E0F901EE0FFF1FE20FF31FEE5FFA4FF9
:10094000928381834FBF0895CF92DF92EF92FF92FF
:100950001F93CF93DF93EC01162F7A0169018A81EF
:100960008C3008F064C0862F61E00E949B1E8A8153
:1009700090E0FC01EE0FFF1FE80FF91FEE5FFA4F4A
:100980001F738081807C812B808380E292E08E19AE
:100990009F0964E070E00E942B27688380E699E05D
:1009A0008C199D0964E070E00E942B276983AA815D
:1009B0008A2F6CE00E941F27682F70E0AB01440F64
:1009C000551F460F571F440F551F440F551F20E05A
:1009D00030E0C901840F951FFC01EE0FFF1FE80FE7
:1009E000F91FEE5FFA4F808186FD15C02F5F3F4FE4
:1009F0002C30310571F724C01092800082E0809382
:100A000081001092850010928400B19A80916F004D
:100A1000826080936F008A2F90E0FC01EE0FFF1F31
:100A2000E80FF91FEE5FFA4F8081806480838A812E
:100A3000DF91CF911F91FF90EF90DF90CF900895BD
:100A4000672BD1F2E8CF40E252E020E639E00E9485
:100A5000A40408951F920F920FB60F9211242F93A2
:100A60003F934F935F936F937F938F939F93AF9336
:100A7000BF93EF93FF938091260587FF05C01092E7
:100A80008500109284002BC020912605332727FD76
:100A900030958091010590E02817390704F5809181
:100AA0002605992787FD9095FC01EE0FFF1FE80FA3
:100AB000F91FEE5FFA4F808186FF11C080912605F5
:100AC000992787FD9095FC01EE0FFF1FE80FF91F96
:100AD000EE5FFA4F80818F7360E00E94DA1E809192
:100AE00026058F5F8093260520912605332727FD55
:100AF00030958091010590E0281739070CF04EC021
:100B0000809126058C300CF049C0209184003091F2
:100B1000850080912605992787FD9095FC01EE0FB1
:100B2000FF1FE80FF91FEE5FFA4F81819281280FB6
:100B3000391F3093890020938800809126059927DA
:100B400087FD9095FC01EE0FFF1FE80FF91FEE5F88
:100B5000FA4F808186FF2BC080912605992787FD5B
:100B60009095FC01EE0FFF1FE80FF91FEE5FFA4FA3
:100B700080818F7361E00E94DA1E19C080E49CE9D5
:100B800005C080918400909185000496909389001F
:100B9000809388008FEF8093260509C080918400A0
:100BA00090918500049680549C4940F3EACFFF91D0
:100BB000EF91BF91AF919F918F917F916F915F91D5
:100BC0004F913F912F910F900FBE0F901F9018954E
:100BD000FF920F931F93CF93DF938C010E94BF0668
:100BE00088EE91E0D80111969C938E9313961C92F7
:100BF00013978CE014968C93149781EB91E01696E2
:100C00009C938E93159761E017966C93179782E0EB
:100C100018968C93189719961C92199784E1F82EC0
:100C20001A96FC921A97E9ECF1E01C96FC93EE936D
:100C30001B9776E01D967C931D978DEB91E01F9698
:100C40009C938E931E978AE050968C93509720E445
:100C50003BE44CE450E0E801298B3A8B4B8B5C8BF6
:100C600055962D933D934D935C93589703551F4F85
:100C700087EC91E0E8019983888303501040D80104
:100C80006D938D0183EC91E08D939C930C5F1F4FCE
:100C9000E80119921992199219928E0128833983C9
:100CA0004A835B83035B1040E801198E1B8E1A8E0A
:100CB0007C8F8DED91E09E8F8D8F1F8E19A218A2D3
:100CC0006AA389E295E09CA38BA380919501909102
:100CD0009601A0919701B09198018DA39EA3AFA317
:100CE000B8A709541F4F8DE0D8018D938D0185E67B
:100CF00091E08D939C93085B1040E80169A787E21F
:100D000095E09BA78AA701541F4F88E295E0D80180
:100D10008D939C930F5B1040E8016CA783EE91E0EC
:100D20009EA78DA706541F4F87E0D8018D938BE3B4
:100D300091E0ED01899399938E0187E591E0998384
:100D400088830D5B1040D8019F961C929F97D19687
:100D50001C921E92D097D296FC92D297D496FC9376
:100D6000EE93D3970F531F4F8AE295E0E8019983E2
:100D70008883DF91CF911F910F91FF9008950F937A
:100D80001F938C010E946F0F80E792E0F80191831E
:100D9000808382E082831F910F910895FC0188EF88
:100DA00092E0918380838EEF828313820895EF9285
:100DB000FF920F931F93DF93CF9300D000D0CDB756
:100DC000DEB77C0119821A821B821C82DC01ED9144
:100DD000FC9102A0F3A1E02D20E032EC41E050E0D4
:100DE0008E010F5F1F4F0995D701ED91FC91EC58D3
:100DF000FF4F0190F081E02DC70160E071E009959F
:100E00000F900F900F900F90CF91DF911F910F9146
:100E1000FF90EF90089508950895DF93CF930F9278
:100E2000CDB7DEB7DC014983ED91FC9102A4F3A5B7
:100E3000E02D41E09E012F5F3F4F09950F90CF912C
:100E4000DF910895FF920F931F93CF93DF938C014F
:100E5000F62EEA010AC02196D801ED91FC9104A476
:100E6000F5A5E02DC8016F2D09954881442399F718
:100E7000DF91CF911F910F91FF900895DC01ED91CB
:100E8000FC9100A8F1A9E02D09950895DC019A01D3
:100E9000ED91FC91442737FD4095542F06A8F7A902
:100EA000E02D09950895DC01ED91FC919A0140E057
:100EB00050E000ACF1ADE02D09950895DF92EF927E
:100EC000FF920F931F93CF93DF93EC01D62E7901FE
:100ED0008A0157FF0FC0E881F98104A4F5A5E02D30
:100EE0004DE2099510950095F094E094E11CF11CF9
:100EF000011D111DE881F981EE57FF4F0190F0812E
:100F0000E02DCE016D2DA80197010AE00995DF9132
:100F1000CF911F910F91FF90EF90DF9008950F9365
:100F2000DC01ED91FC91EE57FF4F0190F081E02D37
:100F30000AE009950F9108950F931F93DC010115A5
:100F4000110541F4ED91FC9104A4F5A5E02D422F8B
:100F5000099511C0ED91FC9111970A30110529F402
:100F600006A8F7A9E02D099506C0EE57FF4F01909E
:100F7000F081E02D09951F910F910895FF920F9335
:100F80001F938C01F62EDC01ED91FC9104A4F5A5D4
:100F9000E02D4DE00995D801ED91FC9104A4F5A553
:100FA000E02DC8016F2D4AE009951F910F91FF9028
:100FB0000895FF920F931F938C01F62EDC01ED91A3
:100FC000FC9104A4F5A5E02D0995D801ED91FC91C3
:100FD00004ACF5ADE02DC8016F2D09951F910F915F
:100FE000FF900895FF920F931F938C01F62EDC0162
:100FF000ED91FC9106A4F7A5E02D0995D801ED919E
:10100000FC9104ACF5ADE02DC8016F2D09951F9141
:101010000F91FF900895FF920F931F938C01F62E6E
:10102000DC01ED91FC9100A8F1A9E02D0995D80112
:10103000ED91FC9104ACF5ADE02DC8016F2D099543
:101040001F910F91FF900895FF920F931F938C01B2
:10105000F62EDC01ED91FC9102A8F3A9E02D099593
:10106000D801ED91FC9104ACF5ADE02DC8016F2DD8
:1010700009951F910F91FF900895FF920F931F9371
:101080008C01F62EDC01ED91FC9106A8F7A9E02D6C
:101090000995D801ED91FC9104ACF5ADE02DC801A6
:1010A0006F2D09951F910F91FF900895FF920F9357
:1010B0001F938C01F62EDC01ED91FC9100ACF1AD9B
:1010C000E02D0995D801ED91FC9104ACF5ADE02D32
:1010D000C8016F2D09951F910F91FF900895DF9220
:1010E000EF92FF920F931F937C01D62EDC01ED91BE
:1010F000FC9102ACF3ADE02D0995D701ED91FC9187
:1011000004ACF5ADE02DC7016D2D09951F910F9130
:10111000FF90EF90DF900895089508950895089541
:1011200008950895089508950895089508950895D7
:1011300008950895089508952F923F924F925F92D7
:101140006F927F928F929F92AF92BF92CF92DF92D7
:10115000EF92FF920F931F93DF93CF93CDB7DEB73C
:10116000A1970FB6F894DEBF0FBECDBF1C0169A3D7
:1011700069017A01211531054105510549F4DC0168
:10118000ED91FC9104A4F5A5E02D40E3099555C02F
:10119000882499245401402E55246624772401E0A4
:1011A00010E00C0F1D1F080D191DC701B601A3018A
:1011B00092010E943E27F80160830894811C911CD3
:1011C000A11CB11CC701B601A30192010E943E27D8
:1011D000C901DA016C017D01C114D104E104F104FB
:1011E000F1F671E0E72EF12CEC0EFD1EE80CF91C77
:1011F0003E010894611C711CD501C4010197A1092D
:10120000B1096C01C818D90815C0D101ED91FC9144
:1012100024A535A5F601EE0DFF1D40814A3010F4DE
:10122000405D01C0495CC10169A1F90109950894BB
:10123000E108F1086E147F0441F7A1960FB6F89407
:10124000DEBF0FBECDBFCF91DF911F910F91FF90F9
:10125000EF90DF90CF90BF90AF909F908F907F9056
:101260006F905F904F903F902F900895442319F412
:101270008CB5806202C08CB58F7D8CBD80E090E023
:1012800008958CB5837F842B8CBD80E090E0089519
:101290006F927F928F929F92AF92BF92CF92DF9286
:1012A000EF92FF920F931F93CF93DF93EC016901AD
:1012B0007A01A80160E070E000E010E0BAEB6B2E6C
:1012C000712C680E791EABEB8A2E912C880E991E1C
:1012D000FDEBAF2EB12CA80EB91E54C0C801880F6B
:1012E000991FD401ED91FC91E80FF91F8081918144
:1012F000A281B381C816D906EA06FB06F8F0FA0106
:1013000080839183A283B383660F771FC354DF4F1B
:10131000E881F981E60FF71F80812CB5382F3370F3
:101320002C7F322B3CBD2DB590E0959587959595FA
:10133000879581702E7F822B8DBD2CC0215030402F
:1013400062177307D9F4FA0180839183A283B38370
:10135000D501ED91FC91E00FF11F80812CB5382F64
:1013600033702C7F322B3CBD2DB590E09595879541
:101370009595879581702E7F822B8DBD6F5F7F4FF6
:101380000E5F1F4FF3018081282F30E06217730733
:101390000CF4A4CF80E090E0DF91CF911F910F91EA
:1013A000FF90EF90DF90CF90BF90AF909F908F9085
:1013B0007F906F90089580E090E0089581E090E044
:1013C00008959F92AF92BF92CF92DF92EF92FF92D9
:1013D0000F931F937C01962E59016A01DC01ED9158
:1013E000FC91E45BFF4F0190F081E02D0995D7015E
:1013F000ED91FC9102A0F3A1E02DC701692DA6019A
:10140000950109951F910F91FF90EF90DF90CF907C
:10141000BF90AF909F90089580E095E00E940804EF
:10142000089580E095E00E940F040895CF92DF9226
:10143000EF92FF920F931F93CF93DF93242F352FBB
:101440008901C0E0D0E0C62EDD2441ECE42EF12C71
:10145000E80EF91E1CC0D8018C9190E0880F991FEE
:10146000D701ED91FC91E80FF91F808191810E94D5
:101470003504F80181918F0190E0880F991FD70101
:10148000ED91FC91E80FF91F118210822196CC1585
:10149000DD050CF380E090E0DF91CF911F910F917B
:1014A000FF90EF90DF90CF9008956F927F928F9290
:1014B0009F92AF92BF92CF92DF92EF92FF920F93E3
:1014C0001F93CF93DF93EC015C01842F952F6C0168
:1014D000790100E010E0662E772471EC872E912CC4
:1014E0008C0E9D1E56C0E881F981EE59FF4F019088
:1014F000F081E02DC50162E171E00995A881B98113
:10150000A259BF4FF601808190E0880F991FF40126
:1015100020813181280F391FF901408151816627CF
:1015200057FD6095762FED91FC91C5012AE030E0E2
:101530000995E881F981EE59FF4F0190F081E02D86
:10154000C50169E171E00995E881F981E258FF4F31
:10155000D7014D915C9160E070E00190F081E02D49
:10156000C5012AE030E00995F60181916F0190E014
:10157000880F991FD401ED91FC91E80FF91FD70155
:101580006D917D917D01808191810E9468040F5F42
:101590001F4F061517050CF4A6CF80E090E0DF91F1
:1015A000CF911F910F91FF90EF90DF90CF90BF9060
:1015B000AF909F908F907F906F9008952F923F9261
:1015C0004F925F926F927F928F929F92AF92BF9253
:1015D000CF92DF92EF92FF920F931F93DF93CF93FF
:1015E00000D00F92CDB7DEB76C011A0189838D2C24
:1015F000AA24BB24462E5524F1EC6F2E712C680EC4
:10160000791E4CC0F101EA0DFB1D9080E92CFF24EE
:10161000EE0CFF1CD3010D90BC91A02DAE0DBF1D93
:10162000BB83AA838D919C91892BA9F583E090E0DF
:101630000E94A422182F092F0E941B04EA81FB811B
:1016400010830183D301ED91FC91EE0DFF1D80818C
:101650009181692D70E00E942305D601ED91FC91E6
:10166000EE59FF4F0190F081E02D8981982D6DE1B9
:1016700071E00995D601ED91FC91E258FF4F492D9B
:1016800050E060E070E00190F081E02D8981982DBC
:101690002AE030E009950894A11CB11CA414B504FB
:1016A0000CF4B0CF80E090E00F900F900F90CF91AE
:1016B000DF911F910F91FF90EF90DF90CF90BF903F
:1016C000AF909F908F907F906F905F904F903F90E2
:1016D0002F900895662321F48FE097E00E942E2139
:1016E00080E090E00895662331F48FE097E0B9013F
:1016F00050E00E94A72280E090E00895FF920F93AF
:101700001F93CF93DF93F42EE801662339F48FE023
:1017100097E0B90150E00E94FD22888388818F15EF
:1017200019F420E030E002C023E830E0C901DF9185
:10173000CF911F910F91FF900895CF93DF93EA010E
:10174000662329F48FE097E00E949421888380E04B
:1017500090E0DF91CF9108959F92AF92BF92CF9288
:10176000DF92EF92FF920F931F93CF93DF93EC01E1
:10177000962EBA01A9015801C954DF4F8881C75B71
:10178000D040C82EDD2400E010E020E030E0B8EBCF
:10179000EB2EF12CEC0EFD1E12C0D701ED91FC9149
:1017A000E20FF31F80819181A281B3812C5F3F4FB3
:1017B000481759076A077B0728F00F5F1F4F0C1562
:1017C0001D055CF30115110511F001501040992021
:1017D00019F57801EE0CFF1CEE0CFF1C8E0108546D
:1017E0001F4FD801ED91FC91EE0DFF1D40815181FD
:1017F000628173818FE097E00E94A720D801ED916C
:10180000FC91EE0DFF1D80819181A281B381F501D4
:1018100080839183A283B38380E090E0DF91CF91B6
:101820001F910F91FF90EF90DF90CF90BF90AF90FE
:101830009F9008950E94741D28EE33E040E050E030
:101840000E943E27CA01B90108950E94741D08959F
:101850006F927F928F929F92AF92BF92CF92DF92C0
:10186000EF92FF920F931F93CF93DF9336012223C2
:1018700031F486E894E0642F402F21E00AC0213043
:1018800019F021E830E036C086E894E0642F402F5C
:1018900020E00E9488010E94741D5B016C01802E73
:1018A000992400E010E00EC00E94741D6A197B09A3
:1018B0008C099D09E616F7060807190718F423E8AE
:1018C00030E018C086E894E00E94CD0088159905A4
:1018D0005CF3C0E0D0E009C086E894E00E94D60046
:1018E000F301EC0FFD1F80832196C815D905A4F3E1
:1018F00020E030E0C901DF91CF911F910F91FF905F
:10190000EF90DF90CF90BF90AF909F908F907F909F
:101910006F900895EF92FF920F931F93122F86E816
:1019200094E0642F0E94C30086E894E0B701402F42
:1019300050E00E941401112321F486E894E061E054
:1019400005C0113041F486E894E060E00E94750122
:1019500020E030E007C086E894E061E00E94750175
:1019600021E830E0C9011F910F91FF90EF90089599
:10197000FC01E154FF4F0190F081E02DE60FF11DD5
:101980008081882319F08F5F808304C086E894E00B
:101990000E94950180E090E008956F927F928F926F
:1019A0009F92AF92BF92CF92DF92EF92FF920F93EE
:1019B0001F93CF93DF93842EF22E902E1E2D36018F
:1019C000802F61E00E949B1E6E2D60956170802FBC
:1019D0000E94DA1EC0E0D0E000E0CF2CDD24E82C2D
:1019E000FF2411701CC0802F820FA82FB0E0F301DC
:1019F000EA0FFB1F80818EBD00000DB407FEFDCFF6
:101A00008EB5AA0DBB1D8C932F5F3F4F2E153F0542
:101A100054F3892D612F0E94DA1E2196080DCC15F2
:101A2000DD051CF420E030E0F1CF80E090E0DF91B4
:101A3000CF911F910F91FF90EF90DF90CF90BF90CB
:101A4000AF909F908F907F906F900895CF92DF928C
:101A5000EF92FF920F931F93CF93DF9369018A0157
:101A6000C0E0D0E0E62EFF241EC0F801808161E0D6
:101A70000E949B1EFE0183E0F595E7958A95E1F7AC
:101A8000EC0DFD1D608170E0CE018770907002C08A
:101A9000759567958A95E2F76170F80181918F01DC
:101AA0000E94DA1E2196CE15DF05FCF280E090E060
:101AB000DF91CF911F910F91FF90EF90DF90CF902A
:101AC00008950E94AC0080E090E00895CF92DF92EC
:101AD000EF92FF920F931F93CF93DF9369018A01D7
:101AE000C0E0D0E0E62EFF2410C0F801808161E064
:101AF0000E949B1EF601EC0FFD1F6081F801819191
:101B00008F0170E00E943B1E2196CE15DF056CF31D
:101B100080E090E0DF91CF911F910F91FF90EF90C7
:101B2000DF90CF900895CB01BA010E94821D0895E5
:101B30009F92AF92BF92CF92DF92EF92FF920F935C
:101B40001F93CF93DF93162F922EE5014130D9F4E6
:101B5000862F61E00E949B1E812F61E00E94DA1EA9
:101B600061E070E080E090E00E94821D812F60E0E3
:101B70000E94DA1E61E070E080E090E00E94821D29
:101B8000812F61E01CC04230E1F4862F61E00E94A9
:101B90009B1E812F60E00E94DA1E61E070E080E011
:101BA00090E00E94821D812F61E00E94DA1E61E0B8
:101BB00070E080E090E00E94821D812F60E00E9432
:101BC000DA1E892D60E00E949B1E002319F4892DE6
:101BD00060E004C0013051F4892D61E0A701960155
:101BE0000E94811F688379838A839B8380E090E0D1
:101BF000DF91CF911F910F91FF90EF90DF90CF90E9
:101C0000BF90AF909F9008959F92AF92BF92CF9256
:101C1000DF92EF92FF920F931F93962E59016A0164
:101C20002115310541055105B9F0862F61E00E946B
:101C30009B1EE114F1040105110529F0892DB50160
:101C4000A801970106C0892DB50120E030E040E0F1
:101C500050E00E94B52303C0862F0E94422380E0FB
:101C600090E01F910F91FF90EF90DF90CF90BF9089
:101C7000AF909F9008958F929F92AF92BF92CF9214
:101C8000DF92EF92FF920F931F93CF93DF934A015E
:101C9000790108E0CC24DD24C0E0D0E0A62EBB24EE
:101CA0001EC0002341F4F701EC0DF11DD082C39456
:101CB00007E0DD2401C00150F401EC0FFD1F10818D
:101CC000812F60E00E949B1E812F0E942E1F002EFC
:101CD00002C0880F991F0A94E2F7D82A2196CA15E4
:101CE000DB05FCF2EC0CF11CF701D08280E090E007
:101CF000DF91CF911F910F91FF90EF90DF90CF90E8
:101D0000BF90AF909F908F900895CF92DF92EF9207
:101D1000FF920F931F93CF93DF93EC0179018A0118
:101D2000613091F0613020F0623009F068C040C04D
:101D300081E00E94161E89899A89AB89BC898D8BA6
:101D40009E8BAF8BB88F55C0C655DF4F8881CA5A5E
:101D5000D040882309F453C020E030E040E050E058
:101D6000C82EDD24BE0165557F4F1EC0DB01ED91FD
:101D7000FC91E40FF51F80819181A281B3814C5FBA
:101D80005F4F8E159F05A007B10761F4220F331F27
:101D9000C355DF4FE881F981CD5AD040E20FF31FE0
:101DA000808121C02F5F3F4F2C153D05FCF224C0E0
:101DB000C155DF4F88819981AA81BB81CF5AD0401C
:101DC000281739074A075B07B8F0CD54DF4F8881E1
:101DD0009981AA81BB81C35BD04082179307A40776
:101DE000B50750F080E00E94161EED8AFE8A0F8B28
:101DF000188F20E030E005C022E830E002C021E882
:101E000030E0C901DF91CF911F910F91FF90EF90CA
:101E1000DF90CF9008956F927F928F929F92AF92B2
:101E2000BF92CF92DF92EF92FF920F931F93CF93C7
:101E3000DF936C014A017901D9011C9200E018E09E
:101E4000C0E0D0E0A62EBB2428E0622E712C33C067
:101E5000F401EC0FFD1F80810E94191EAC01F601F8
:101E6000608926C0F701E00FF11DD60150968C91D4
:101E700090E0861B91099A0102C0369527958A95B4
:101E8000E2F7C9019301211B310902C0880F991F94
:101E90002A95E2F72081282B2083611710F4161B66
:101EA00009C0611B0F5FF701E00FF11D108218E000
:101EB0006623C1F62196CA15DB0554F280E090E056
:101EC000DF91CF911F910F91FF90EF90DF90CF9016
:101ED000BF90AF909F908F907F906F900895DF920A
:101EE000EF92FF920F931F938C010E94CE0680E821
:101EF00093E0F8019183808381E0878382E080878B
:101F0000118640E0E42E45E0F42EC70160E070E069
:101F10000E940804D82EC70161E070E00E94080406
:101F20003D2D20E090E0282B392BF80136AB25AB76
:101F30001F910F91FF90EF90DF900895EF92FF9225
:101F40000F931F93DF93CF9300D000D0CDB7DEB7B0
:101F50007C01DB01FC017383628319821A821B827C
:101F60001C824087ED91FC9102A0F3A1E02DCB01F2
:101F7000642F20E835E240E050E08E010F5F1F4FF4
:101F800009958AE291E0E80EF91E84E090E0F701FD
:101F9000918380830F900F900F900F90CF91DF91DE
:101FA0001F910F91FF90EF9008958FEF9FEF08958D
:101FB0008FEF9FEF0895CF93DF93DC01EC01C65DB7
:101FC000DE4F888199818530910571F086309105C9
:101FD000B1F0049701F5ED91FC9111970084F18522
:101FE000E02DCD01099517C0ED91FC911197028468
:101FF000F385E02DCD010995198218820CC0ED9171
:10200000FC9111970484F585E02DCD0109958FEFA2
:102010009FEF0E949527DF91CF9108958F929F9215
:10202000AF92BF92CF92DF92EF92FF920F931F93E6
:10203000DF93CF9300D0CDB7DEB77C011982FC01CE
:10204000A281B381ED91FC91119706A0F7A1E02D3B
:10205000CD01D70118966C915E010894A11CB11CAA
:10206000A50109958981823008F42FC11A82F701F0
:10207000A281B3817AE0C72ED12CCE0CDF1CED916A
:10208000FC91119762E0862E912C8C0E9D1E00A46F
:10209000F1A5E02DCD01D70118966C9142E0960193
:1020A00084010995F7018285A281B3818F3F09F0F0
:1020B000EFC0ED91FC91119706A0F7A1E02DCD01A5
:1020C000D70118966C91A5010995298130E0F70197
:1020D000838590E00297281739070CF05BC004E66F
:1020E00010E0C501BA2CA92E4BC0D7011296ED9174
:1020F000FC911397A081B18196962D913C91979771
:10210000CF01F70160854B2D5A2DF9010995F70193
:10211000A281B3810115110519F5ED91FC9111977B
:1021200006A0F7A1E02DCD01D70118966C914B2D9B
:102130005A2D0995F701A281B381ED91FC91119778
:1021400000A4F1A5E02DCD01D70118966C9149812D
:1021500096018E010E5F1F4F09952FEF3FEFB7C01D
:10216000ED91FC911197E85AFF4F0190F081E02D1D
:10217000CD0141E050E060E070E009950150104071
:10218000298130E0F701838590E00297281739070D
:102190000CF4ABCFD7011296ED91FC91139780818F
:1021A00091811B964C9142509701245F3F4F52E022
:1021B000A52EB12CAC0EBD1EDC0198968D909C9086
:1021C0009997CF01F70160858501F4010995C70151
:1021D000B6010E94EA11F701A281B3818823C9F1F7
:1021E000ED91FC911197E058FF4F0190F081E02DA7
:1021F000CD0161E0A6010995870106571F4FC70170
:10220000B601A8010E948612F701A281B381ED9167
:10221000FC911197E058FF4F0190F081E02DCD0126
:1022200060E0A8010995F701A281B381ED91FC91CD
:10223000119702A4F3A5E02DCD01D70118966C915A
:102240002BE830E0E20EF31ED7014C91980109957E
:102250003CC0ED91FC91119706A0F7A1E02DCD01B6
:10226000D70118966C91AE014F5F5F4F0995F7014A
:10227000A281B381ED91FC91119700A4F1A5E02D0D
:10228000CD01D70118966C914981960185011CC03A
:10229000ED91FC91119706A0F7A1E02DCD01D7019A
:1022A00018966C91A5010995F701A281B381ED9172
:1022B000FC91119700A4F1A5E02DCD01D70118964E
:1022C0006C91498196018401099520E030E0C901B3
:1022D0000F900F90CF91DF911F910F91FF90EF9092
:1022E000DF90CF90BF90AF909F908F9008950F9305
:1022F0001F938C010E94931188E094E0F801918370
:102300008083065D1E4FF801118210820A5211402F
:10231000F801178216821F910F91089582E595E0CA
:102320000E9477110895FC018EE194E091838083EF
:102330001582148280E8818708958FEF9FEF0895BA
:102340008FEF9FEF08958FEF9FEF08958FEF9FEF2F
:1023500008958FEF9FEF08958FEF9FEF08958FEF10
:102360009FEF0895CF93DF93EC018C819D818430A2
:10237000910591F0853091051CF4892B39F024C02A
:102380008530910579F00697F9F416C0E881F98156
:102390000190F081E02D15C0E881F9810084F1857C
:1023A000E02D0FC0E881F9810284F385E02DCE0194
:1023B00009951D821C820BC0E881F9810484F58592
:1023C000E02DCE01099503C080E890E000C0DF91C8
:1023D000CF910895DB0111966C911197462F50E033
:1023E0004150504020E030E090E007C0FD01E20F96
:1023F000F31F8081980F2F5F3F4F24173507B4F3E9
:1024000020E0A60FB11D11978C91981709F421E0D7
:10241000822F08950F931F93FB01DA018FEF8C93A6
:10242000822F8A5F11968C931197828112968C93DA
:102430001297838113968C9313970F3F110509F020
:1024400020F414960C93149704C083E014968C9394
:10245000149711968C911197682F70E0615070401D
:1024600040E050E090E007C0FD01E40FF51F8081DF
:10247000980F4F5F5F4F46175707B4F3A20FB31F74
:1024800015969C931F910F9108950F931F938901A7
:1024900020E030E00E940A121F910F910895BF9230
:1024A000CF92DF92EF92FF920F931F93CF93DF9320
:1024B000EC016B01142FB52EB901842F952F9C01CF
:1024C000D90120E030E0402F50E009C0FB01E20FCD
:1024D000F31F808114968C9314972F5F3F4F1196B2
:1024E000241735079CF3CE01B601412F5B2D202F19
:1024F00030E087010E940A12DF91CF911F910F9166
:10250000FF90EF90DF90CF90BF9008952F923F9271
:102510004F925F926F927F928F929F92AF92BF92F3
:10252000CF92DF92EF92FF920F931F93DF93CF939F
:10253000CDB7DEB728970FB6F894DEBF0FBECDBF7C
:102540002C013B011A012DB73EB73E832D83DB01E1
:1025500014969C91149780E015962C91E22FF0E050
:10256000E82BF92BBCEFE030FB07C0F01982EB57EA
:10257000FB4FEE0FFF1FE40DF51DDB0111968C9153
:102580006A5F7F4F9A012B5F3F4F0190F081E02DF2
:102590008750AE014F5F5F4F0995EEC7E232F105FC
:1025A00009F42EC5E332F10508F090C0E131F105E0
:1025B00009F436C1E231F10508F044C0E930F10513
:1025C00009F4DAC1EA30F105E0F4E430F10509F488
:1025D0003AC1E530F10540F4309709F43BC2339736
:1025E00011F00C94021D21C1E630F10509F47FC100
:1025F000E630F10508F448C1389711F00C94021D3B
:10260000B1C1ED30F10509F4D7C1EE30F10568F440
:10261000EB30F10509F4C0C1D20112960D911C9165
:1026200013973C9708F0C2C1B1C1EF30F10509F42E
:10263000D3C1D20112960D911C911397709708F097
:10264000D5C1C4C1E931F10509F43BC3EA31F10553
:1026500008F5E531F10509F46BC2E631F10568F4DE
:10266000E331F10509F4FCC1D20112960D911C91E0
:102670001397749708F00AC2BFC1E731F10509F456
:10268000BCC2D20112960D911C911397789708F055
:10269000C2C288C2ED31F10509F4F3C3EE31F10590
:1026A00040F4EB31F10509F471C37C9708F080C365
:1026B0003EC3EF31F10509F42FC4EF31F10508F401
:1026C0000EC4B09711F00C94021D34C4E33CF10524
:1026D00009F43AC7E43CF10508F048C0E434F105D8
:1026E00009F4DDC5E534F105F0F4E532F10509F44E
:1026F0004AC5E632F10548F4E332F10509F4FEC4B7
:10270000B49711F00C94021D34C5E234F10509F4BC
:102710005DC5E334F10508F081C5E134F10511F040
:102720000C94021D3EC5E338F10509F49BC6E4385C
:10273000F10570F4E136F10509F41FC6E436F10540
:1027400009F44EC6E036F10511F00C94021DF2C5F5
:10275000E13CF10509F4BDC6E23CF10508F0D9C63B
:10276000E03CF10511F00C94021D93C6B1E0E0309D
:10277000FB0709F4D5C721E0E130F20718F5E13E87
:10278000F10509F42DC7E23EF10570F4E53CF105D1
:1027900009F40EC7E53CF10508F4F1C6E03EF10589
:1027A00011F00C94021D10C7E33EF10509F473C744
:1027B000E33EF10508F452C7E43EF10511F00C9434
:1027C000021D9DC731E0E730F30711F40C942A1C79
:1027D00041E0E830F40788F451E0E230F50709F40D
:1027E000C2C781E0E230F80708F4ABC7E350F1401C
:1027F00011F00C94021D0C94121CA1E0E134FA07B4
:1028000011F40C946B1CB1E0E234FB0711F40C944E
:10281000E71CE054F14011F00C94021D0C94621C72
:10282000A4E0EA2EF12C0C940B1DD2011296ED912E
:10283000FC9113978281FA0185831296ED91FC91A8
:10284000139783811AC1D2011296ED91FC911397CF
:102850008781FA0185831296ED91FC91139780850B
:10286000DA0116968C93D2011296ED91FC91139792
:102870008185FA018783C20123E030E000E010E0A7
:102880000E940A120C94091DD2011296ED91FC913E
:10289000139785A196A1A7A1B0A58B2F9927AA2749
:1028A000BB27FA018583D2011296ED91FC91139713
:1028B00085A196A1A7A1B0A5CD01AA27BB27FA01A2
:1028C0008683D2011296ED91FC91139785A196A172
:1028D000A7A1B0A5892F9A2FAB2FBB27FA01878319
:1028E000D2011296ED91FC91139785A153C1DB01A2
:1028F00018963C91189720E0442737FD4095542FB7
:1029000019968C9190E0A0E0B0E0282B392B4A2B4F
:102910005B2B19821A821B821C82F201A281B38175
:10292000ED91FC91119704A0F5A1E02DCD01D2010C
:1029300018966C918E010F5F1F4F09957C01F20173
:10294000A281B381ED91FC911197E85AFF4F01905C
:10295000F081E02DCD0148EE53E060E070E0099594
:102960000C94FB1CD2011296ED91FC9113972385D8
:102970003485C201028510C4D2011296ED91FC91FA
:10298000139726853785C201058506C4F801228D77
:10299000338DC201018D00C4D2011296ED91FC91DC
:1029A0001397258D368DC201048DF6C3F80120A141
:1029B00031A1C201078DF0C3D2011296ED91FC91B5
:1029C000139723A134A1C20102A1E6C3F80122A5F5
:1029D00033A5C20101A5E0C3D2011296ED91FC918D
:1029E000139725A536A5C20104A5D6C3F80120A9D1
:1029F00031A9C20107A5D0C3DB0116969C91169799
:102A000080E017962C91179730E0822B932BF801DA
:102A100096AB85AB0190F081E02DE65AFF4F019017
:102A2000F081E02DC80160E070E016964C910995A8
:102A3000F201A281B381ED91FC911197E65AFF4F0B
:102A40000190F081E02DCD0161E070E0D301179697
:102A50004C910995C201B301A10120E030E0D7C734
:102A6000D2011296ED91FC91139786A9FA01858304
:102A70001296ED91FC91139785A9D10116968C932E
:102A8000C201B301A10122E030E0F8CEFB01818553
:102A900090E0308520E0822B932BAA2797FDA0950C
:102AA000BA2FF80187AB90AFA1AFB2AF0190F08120
:102AB000E02DE65AFF4F0190F081E02DC80162E061
:102AC00070E0D30116964C910995F201A281B38171
:102AD000ED91FC911197E65AFF4F0190F081E02DA6
:102AE000CD0163E070E0D30117964C910995F20196
:102AF000A281B381ED91FC911197E65AFF4F0190AD
:102B0000F081E02DCD0164E070E0D30118964C9186
:102B10000995F201A281B381ED91FC911197E65ADA
:102B2000FF4F0190F081E02DCD0165E070E0E2C241
:102B3000D2011296ED91FC91139787A990ADA1ADAA
:102B4000B2AD8B2F9927AA27BB27FA018583D20123
:102B50001296ED91FC91139787A990ADA1ADB2ADFE
:102B6000CD01AA27BB27F1018683D2011296ED91F0
:102B7000FC91139787A990ADA1ADB2AD892F9A2F83
:102B8000AB2FBB27F1018783D2011296ED91FC9107
:102B9000139787A9F1018087C201B301A10124E045
:102BA00030E06CCEDB0116969C91169780E017966C
:102BB0002C91179730E0822B932BF80194AF83AFC1
:102BC0000190F081E02DE65AFF4F0190F081E02D59
:102BD000C80166E070E016964C910995F201A28159
:102BE000B381ED91FC911197E65AFF4F0190F0816E
:102BF000E02DCD0167E070E029CFD2011296ED9172
:102C0000FC91139784ADFA0185831296ED91FC91A6
:102C1000139783AD32CF035C1F4FFB01818590E09A
:102C2000308520E0822B932BAA2797FDA095BA2F01
:102C3000F80180839183A283B3830D531040D801A0
:102C4000ED91FC91E65AFF4F0190F081E02DC80113
:102C500068E070E0D30116964C910995F201A281CB
:102C6000B381ED91FC911197E65AFF4F0190F081ED
:102C7000E02DCD0169E070E0D30117964C910995E4
:102C8000F201A281B381ED91FC911197E65AFF4FB9
:102C90000190F081E02DCD016AE070E0D30118963B
:102CA0004C910995F201A281B381ED91FC911197AC
:102CB000E65AFF4F0190F081E02DCD016BE070E00E
:102CC00019C2D2011296ED91FC911397FD96808165
:102CD0009181A281B3818B2F9927AA27BB27FA0163
:102CE0008583D2011296ED91FC911397FD96808118
:102CF0009181A281B381CD01AA27BB27FA018683E6
:102D0000D2011296ED91FC911397FD9680819181ED
:102D1000A281B381892F9A2FAB2FBB27FA0187831A
:102D2000D2011296ED91FC91139785AD33CFF2014C
:102D3000A281B381AF5BBF4FFB01968180E0278109
:102D400030E0822B932B11969C938E93A154B0402C
:102D5000ED91FC911197E65AFF4F0190F081E02D23
:102D6000CD016CE070E0D30116964C910995F2010B
:102D7000A281B381ED91FC911197E65AFF4F01902A
:102D8000F081E02DCD016DE070E060CED2011296B1
:102D9000ED91FC911397EF5BFF4F8181FA018583E1
:102DA0001296ED91FC911397EF5BFF4F808165CEFA
:102DB000FB018681D20112960D911C9113978132ED
:102DC000B8F00D5B1F4F80E2F801808312960D90E2
:102DD000BC91A02DED91FC911197E65AFF4F019007
:102DE000F081E02DCD016EE070E040E2099516C063
:102DF0000D5B1F4FD8018C93D2011296ED91FC917F
:102E00001397A081B181A65ABF4F2D913C91CF015C
:102E10006EE070E0F3014681F9010995730100E06D
:102E200010E01DC0E00FF11FEC5BFF4FD7011696BD
:102E30008C918083F201A281B381ED91FC91119775
:102E4000E65AFF4F015F1F4F0190F081E02DCD0149
:102E5000B801D70116964C9109950E501040D20139
:102E60001296ED91FC9113970894E11CF11CED5B17
:102E7000FF4F8081E354F04090E00817190794F267
:102E8000E9CDD2011296ED91FC911397ED5BFF4FC6
:102E90008081FA018583BA0140E050E00AC0E40F66
:102EA000F51FEC5BFF4F8081DB0115968C934F5F24
:102EB0005F4FD2011296ED91FC911397ED5BFF4F9E
:102EC0002081E354F0406F5F7F4F822F90E04817DE
:102ED00059072CF3C201B301A10130E0CFCCD201DC
:102EE0001296ED91FC911397EC59FF4FDB0116966A
:102EF0008C918083F201A281B381ED91FC911197B5
:102F0000E65AFF4F0190F081E02DCD0160E370E0C3
:102F1000D30116964C919DCDD2011296ED91FC9164
:102F20001397EC59FF4F8081FA018583C20121E09C
:102F300030E0A4CCDB0116968C91F2010281138162
:102F40008134A8F00B591F4F80E4D8018C93A281E3
:102F5000B381ED91FC911197E65AFF4F0190F081FA
:102F6000E02DCD0161E370E040E4099516C00B59F6
:102F70001F4FF8018083D2011296ED91FC911397B7
:102F8000A081B181A65ABF4F2D913C91CF0161E341
:102F900070E0F3014681F9010995730100E010E04A
:102FA0001DC0E00FF11FEA59FF4FD70116968C9113
:102FB0008083F201A281B381ED91FC911197E65AD1
:102FC000FF4F0E5C1F4F0190F081E02DCD01B80145
:102FD000D70116964C91099501531040D2011296D3
:102FE000ED91FC9113970894E11CF11CEB59FF4FF4
:102FF0008081E556F04090E00817190794F22ACD39
:10300000F201628173816A557F4FD30116962C912C
:10301000169730E040E050E0522F44273327222714
:1030200017968C9190E0A0E0B0E0DC01992788270A
:10303000282B392B4A2B5B2BF301818590E0A0E0F4
:10304000B0E0282B392B4A2B5B2B808590E0A0E049
:10305000B0E0BA2FA92F982F8827282B392B4A2B7D
:103060005B2BDB012D933D934D935C931397665A35
:103070007040DB01ED91FC91E65AFF4F0190F08129
:10308000E02DCB0162E770E0D30116964C910995D3
:10309000F201A281B381ED91FC911197E65AFF4FA5
:1030A0000190F081E02DCD0163E770E0D301179628
:1030B0004C910995F201A281B381ED91FC91119798
:1030C000E65AFF4F0190F081E02DCD0164E770E0FA
:1030D000D30118964C910995F201A281B381ED912B
:1030E000FC911197E65AFF4F0190F081E02DCD0140
:1030F00065E770E0D30119964C91ABCCD2011296E2
:10310000ED91FC911397EA55FF4F80819181A28147
:10311000B3818B2F9927AA27BB27F1018583D20181
:103120001296ED91FC911397EA55FF4F80819181A2
:10313000A281B381CD01AA27BB27F1018683D201E9
:103140001296ED91FC911397EA55FF4F8081918182
:10315000A281B381892F9A2FAB2FBB27F1018783DF
:10316000D2011296ED91FC911397EA55FF4F8081A1
:1031700011CDD2011296ED91FC91139725813681E4
:10318000C201048109C0D2011296ED91FC911397FE
:1031900023A934A9C20102A9EE24FF240E944F12E0
:1031A0003AC4F201A281B381FB016681ED91FC91E9
:1031B0001197A301495F5F4F262F30E0295F3F4FF2
:1031C000260D371D0480F581E02D60C1DB011196CD
:1031D0000C91D2011296ED91FC911397A081B181CF
:1031E000602F6750A3014A5F5F4F91012B5F3F4FF4
:1031F00016960D90BC91A02DCF01FD0109957C0183
:1032000010E00850104023E0159507952A95E1F746
:103210000F5FC201B301A101202F6FC2F2016281D1
:103220007381DB01ED91FC91D30119963C911997C3
:1032300020E0442737FD4095542F1A968C9190E05A
:10324000A0E0B0E0282B392B4A2B5B2BD3011B9637
:10325000EC901B97FF2400E010E01E2D0027FF24B8
:10326000EE241E968C9190E0A0E0B0E0E82AF92AC6
:103270000A2B1B2BD3011D969C9180E0AA2797FD5A
:10328000A095BA2FE82AF92A0A2B1B2B0084F18576
:10329000E02DCB01D30116966C910995ABC3F201D9
:1032A00022813381D901ED91FC91DB011A96CC90FA
:1032B0001A97DD24EE24FF24FC2CEE24DD24CC24FC
:1032C0001B968C9190E0A0E0B0E0DC019927882764
:1032D000C82AD92AEA2AFB2ADB011D968C9190E0A4
:1032E000A0E0B0E0C82AD92AEA2AFB2ADB011C9612
:1032F0008C9190E0A0E0B0E0BA2FA92F982F8827FA
:10330000C82AD92AEA2AFB2A0284F385E02DC901BA
:10331000DB0117966C91179718964C911897169693
:103320002C91169719960C915E010894A11CB11C62
:1033300009957DC1D20112966D917C911397DB01A5
:10334000ED91FC91D30119963C91199720E0442707
:1033500037FD4095542F1A968C9190E0A0E0B0E094
:10336000282B392B4A2B5B2B0280F381E02DCB01DC
:10337000D30116966C9109953DC3D2011296ED9139
:10338000FC91139785899689A789B08D8B2F9927F2
:10339000AA27BB27FA018583D2011296ED91FC91F1
:1033A000139785899689A789B08DCD01AA27BB2758
:1033B000FA018683D2011296ED91FC9113978589CB
:1033C0009689A789B08D892F9A2FAB2FBB27F10142
:1033D0008783D2011296ED91FC9113978589DACB00
:1033E000D2011296ED91FC9113978089FA018583A1
:1033F0001296ED91FC91139780819181DB011196DA
:103400006C916750A3014A5F5F4F91012A5F3F4F64
:10341000DC010D911C91CF01F80109957C01F301AC
:10342000218130E027503040D2011296ED91FC917D
:103430001397808990E0FC012E9FC0012F9F900D73
:103440003E9F900D11249C0143E0369527954A95A7
:10345000E1F787709070892B09F02F5F30E02F5FC4
:103460003F4F29C2F201A281B381FB016681ED9138
:10347000FC911197A301495F5F4F262F30E0295F30
:103480003F4F260D371D0484F585E02DCD010995AC
:10349000B1C2DB0119963C91199720E0442737FD12
:1034A0004095542F1A968C9190E0A0E0B0E0282B24
:1034B000392B4A2B5B2B19821A821B821C82F20148
:1034C000A281B381ED91FC91119702A0F3A1E02DAF
:1034D000A6C0DB0119963C91199720E0442737FDDF
:1034E0004095542F1A968C9190E0A0E0B0E0282BE4
:1034F000392B4A2B5B2B19821A821B821C82F20108
:10350000A281B381ED91FC91119704A0F5A1E02D6A
:1035100086C0F201A281B381ED91FC91119706A0C2
:10352000F7A1E02DCD01DB0116966C91AE014F5F46
:103530005F4F09957C018981F1018583C201B30147
:10354000A10121E030E0BAC11982F201A281B38168
:10355000ED91FC9111979A012B5F3F4F00A4F1A5CB
:10356000E02DCD01DB0116966C91169717964C91C4
:103570008E010F5F1F4F09957C012981BBC0D201CD
:103580001296ED91FC91139780819181DB01119648
:103590004C9148509B01295F3F4FDC019A960D9159
:1035A0001C919B97CF01FB016681F801099522C20E
:1035B000D2011296ED91FC911397A081B181A45B89
:1035C000BF4F2D913C91A6C0D2011296ED91FC9176
:1035D0001397A081B18158962D913C9159979AC02B
:1035E000DB0119963C91199720E0442737FD40955F
:1035F000542F1A968C9190E0A0E0B0E0282B392B44
:103600004A2B5B2B19821A821B821C82F201A28137
:10361000B381ED91FC911197028CF38DE02DCD01DA
:10362000D30116966C918E010F5F1F4F09957C0197
:1036300089819A81AB81BC812B2F33274427552761
:10364000F10125839D01442755272683892F9A2F31
:10365000AB2FBB27878389818087F6C0D201129662
:10366000ED91FC91139780819181DB0111960C9172
:103670000A50B9E0EB2EF12CE60EF71EDC015C9649
:10368000CD90DC905D97CF01FB016681478120855D
:10369000F6010995AFC1D20112964D915C91139735
:1036A000FA0120813181DB011996FC911997E0E044
:1036B0001A968C9190E0E82BF92BA5E0CA2ED12C1C
:1036C000C20CD31CD9015E96AD90BC905F97CA0125
:1036D000DB0116966C91169717964C9117971B96CF
:1036E0002C911B9718960C917F01F50109957C018F
:1036F000F3012085C201B301A10130E0DFC0D20196
:103700001296ED91FC911397A081B18190962D9125
:103710003C919197CF01F3016681F90109956AC146
:10372000D2011296ED91FC911397A081B1811E9662
:103730002D913C911F97CF01FB016681F9010995FD
:1037400089C9D2011296ED91FC911397A081B181A4
:1037500050962D913C915197CF01FB016681478195
:10376000F901099577C9DB0117962C91179730E07D
:1037700040E050E0522F44273327222718968C919F
:1037800090E0A0E0B0E0DC0199278827282B392BB6
:103790004A2B5B2BF301828590E0A0E0B0E0282B60
:1037A000392B4A2B5B2B818590E0A0E0B0E0BA2F4B
:1037B000A92F982F8827282B392B4A2B5B2B19826E
:1037C0001A821B821C82F201A281B381ED91FC91CD
:1037D00011970488F589E02DCD01D30116966C91DF
:1037E0008E010F5F1F4F09957C0189819A81AB8102
:1037F000BC812B2F332744275527F10125839D01B9
:10380000442755272683892F9A2FAB2FBB278783E1
:1038100089818087C201B301A10124E030E000E08A
:1038200010E04DC0D2011296ED91FC911397A0814A
:10383000B18152962D913C915397CF01FB01668146
:103840004781F90109957C01C201B301A10124E07E
:1038500030E034C0D2011296ED91FC911397DB0158
:1038600017964C9117970081118111968C9190E0D9
:103870000B97642F70E00E942B27262F7AE0C72E2B
:10388000D12CC60CD71C65E0A62EB12CA20CB31C03
:10389000D80156968D909C905797CF01F301668181
:1038A0000085E184F40109957C01D30111962C91E6
:1038B00030E02B503040C201B301A10187010E94CA
:1038C0000A12A9C0F20182819381DC01ED91FC9181
:1038D000E25BFF4F84C0BDB7BF83EEB7E88756E019
:1038E000A52EB12CA60EB71EDB0116968C9190E08A
:1038F0009C01220F331FEDB7FEB7E21BF30B0FB68F
:10390000F894FEBF0FBEEDBF2DB73EB72F5F3F4F00
:10391000FC013796E60FF71F49016901B90140E044
:1039200050E00DC0308120E0818190E0822B932B0C
:10393000DB018D939D93BD014F5F5F4F3296D501A3
:103940008C9190E0481759076CF3EE24FF2415C0C2
:10395000D801ED91FC91E258FF4FD6014D915D9158
:103960006D0160E070E00190F081E02DC8012AE077
:1039700030E009950894E11CF11CF5016081862F67
:1039800090E0D20112960D911C911397E816F9065A
:10399000FCF2D801ED91FC91E05BFF4FA301495F80
:1039A0005F4F0190F081E02DC801940109957C01E1
:1039B000C201B301A10197010E9445122F813885F0
:1039C000C9010FB6F8949EBF0FBE8DBF24C0F2018F
:1039D00082819381DC01ED91FC91EE5AFF4FD3017E
:1039E00011966C916750A3014A5F5F4F0190F0817F
:1039F000E02D09957C01C201B301A10197010E944C
:103A0000451209C0C201B301A10121E030E00E94CA
:103A10004512EE24FF24C701ED81FE810FB6F89414
:103A2000FEBF0FBEEDBF28960FB6F894DEBF0FBEE7
:103A3000CDBFCF91DF911F910F91FF90EF90DF905D
:103A4000CF90BF90AF909F908F907F906F905F903E
:103A50004F903F902F9008951F920F920FB60F92A4
:103A600011242F933F938F939F93AF93BF93809194
:103A7000820690918306A0918406B09185063091CC
:103A800086060196A11DB11D232F2D5F2D3720F035
:103A90002D570196A11DB11D2093860680938206A5
:103AA00090938306A0938406B093850680917E064A
:103AB00090917F06A0918006B09181060196A11D8C
:103AC000B11D80937E0690937F06A0938006B093ED
:103AD0008106BF91AF919F918F913F912F910F9050
:103AE0000FBE0F901F9018958FB7F8942091820603
:103AF0003091830640918406509185068FBFB901AD
:103B0000CA0108959B01AC017FB7F89480917E06AD
:103B100090917F06A0918006B091810666B5A89B22
:103B200005C06F3F19F00196A11DB11D7FBFBA2FCF
:103B3000A92F982F8827860F911DA11DB11D62E026
:103B4000880F991FAA1FBB1F6A95D1F7BC012DC012
:103B5000FFB7F89480917E0690917F06A091800631
:103B6000B0918106E6B5A89B05C0EF3F19F001961C
:103B7000A11DB11DFFBFBA2FA92F982F88278E0F27
:103B8000911DA11DB11DE2E0880F991FAA1FBB1F47
:103B9000EA95D1F7861B970B885E9340C8F22150B7
:103BA00030404040504068517C4F2115310541055F
:103BB000510571F60895789484B5826084BD84B50A
:103BC000816084BD85B5826085BD85B5816085BD18
:103BD000EEE6F0E0808181608083E1E8F0E0108231
:103BE000808182608083808181608083E0E8F0E072
:103BF000808181608083E1EBF0E08081846080835C
:103C0000E0EBF0E0808181608083EAE7F0E0808192
:103C100084608083808182608083808181608083F2
:103C20008081806880831092C100089580939901FB
:103C30000895982F8E3008F09E50977080919901CA
:103C40008295880F880F807C892B80937C008091DF
:103C50007A00806480937A0080917A0086FDFCCFA0
:103C60002091780040917900942F80E030E0282B5B
:103C7000392BC90108951F93CF93DF93182FEB01C0
:103C800061E00E949B1E209709F44AC0CF3FD105F6
:103C900009F449C0E12FF0E0E255FF4F84918330F1
:103CA000C1F0843028F4813051F08230B1F50CC07D
:103CB000863019F1873049F1843079F514C084B524
:103CC000806884BDC7BD33C084B5806284BDC8BD73
:103CD0002EC080918000806880938000D0938900FE
:103CE000C093880024C0809180008062809380000F
:103CF000D0938B00C0938A001AC08091B000806876
:103D00008093B000C093B30012C08091B000806275
:103D10008093B000C093B4000AC0C038D1051CF431
:103D2000812F60E002C0812F61E00E94DA1EDF91E6
:103D3000CF911F910895CF93DF93482F50E0CA0190
:103D400086569F4FFC0134914A575F4FFA01849188
:103D5000882369F190E0880F991FFC01E859FF4F13
:103D6000A591B491FC01EE58FF4FC591D491662303
:103D700051F42FB7F8948C91932F909589238C93BD
:103D8000888189230BC0623061F42FB7F8948C913D
:103D9000932F909589238C938881832B88832FBFC1
:103DA00006C09FB7F8948C91832B8C939FBFDF91B3
:103DB000CF910895482F50E0CA0182559F4FFC01D2
:103DC0002491CA0186569F4FFC0194914A575F4F38
:103DD000FA013491332309F440C0222351F12330F6
:103DE00071F0243028F42130A1F0223011F514C0F4
:103DF0002630B1F02730C1F02430D9F404C08091CE
:103E000080008F7703C0809180008F7D8093800039
:103E100010C084B58F7702C084B58F7D84BD09C082
:103E20008091B0008F7703C08091B0008F7D809328
:103E3000B000E32FF0E0EE0FFF1FEE58FF4FA5910B
:103E4000B4912FB7F894662321F48C91909589232F
:103E500002C08C91892B8C932FBF0895682F70E03E
:103E6000CB0182559F4FFC012491CB0186569F4F79
:103E7000FC0144916A577F4FFB019491992319F4F7
:103E800020E030E03CC0222351F1233071F0243097
:103E900028F42130A1F0223011F514C02630B1F001
:103EA0002730C1F02430D9F404C0809180008F778E
:103EB00003C0809180008F7D8093800010C084B506
:103EC0008F7702C084B58F7D84BD09C08091B0001A
:103ED0008F7703C08091B0008F7D8093B000892FD1
:103EE00090E0880F991F84589F4FFC01A591B491D1
:103EF0008C9120E030E0842311F021E030E0C90112
:103F000008958F929F92AF92BF92CF92DF92EF92DD
:103F1000FF920F931F93CF93DF93A82FB0E0CD01B3
:103F200086569F4FFC018490AA57BF4FFD01849194
:103F3000662311F4992401C0982C6FEFA62E6FEF21
:103F4000B62E6FEFC62E6FE0D62EA222B322C42269
:103F5000D522682F70E0660F771F64587F4FEE24DC
:103F6000FF248701FB01A591B4910BC0EA14FB0467
:103F70000C051D0509F44EC00894E11CF11C011D3F
:103F8000111D8C918821891589F30CC0EA14FB045A
:103F90000C051D0509F43EC00894E11CF11C011D2F
:103FA000111D03C0FB01A591B4918C918821891545
:103FB00069F720E030E040E050E0FB01C591D4918A
:103FC0000FC0DA01C9018E0D9F1DA01FB11F8A15F8
:103FD0009B05AC05BD05F1F02F5F3F4F4F4F5F4F85
:103FE00088818821891569F3CA01B90125E130E08A
:103FF00040E050E00E9400279B01AC01205F3F4F52
:104000004F4F5F4F84E056954795379527958A9592
:10401000D1F704C020E030E040E050E0B901CA012F
:10402000DF91CF911F910F91FF90EF90DF90CF9094
:10403000BF90AF909F908F90089508951F920F9218
:104040000FB60F9211242F933F934F938F939F930B
:10405000EF93FF938091C00082FD1DC04091C60088
:104060002091C7063091C8062F5F3F4F2F733070E5
:104070008091C9069091CA062817390771F0E0911E
:10408000C706F091C806E957F94F40833093C80638
:104090002093C70602C08091C600FF91EF919F91C7
:1040A0008F914F913F912F910F900FBE0F901F90C6
:1040B0001895E0911B07F0911C07E05CFF4F819180
:1040C000919120813181821B930B8F739070892B8A
:1040D00011F00E941D2008951F920F920FB60F92AB
:1040E00011242F933F938F939F93EF93FF932091EE
:1040F0000B0730910C0780910D0790910E07281740
:10410000390731F48091C1008F7D8093C10014C0C4
:10411000E0910D07F0910E07E553F94F2081809152
:104120000D0790910E0701968F73907090930E0774
:1041300080930D072093C600FF91EF919F918F917F
:104140003F912F910F900FBE0F901F901895AF9237
:10415000BF92DF92EF92FF920F931F93CF93DF9363
:10416000EC017A018B01DD24403081EE580780E0BC
:10417000680780E0780711F0DD24D39491E0A92E40
:10418000B12CEC89FD89DD2069F0C50108A002C0D1
:10419000880F991F0A94E2F7808360E079E08DE34D
:1041A00090E005C0108260E874E88EE190E0A8011C
:1041B00097010E943E272150304040405040569584
:1041C00047953795279580E12030380720F0DD208E
:1041D00011F0DD24D6CFE889F9893083EA89FB899B
:1041E000208319A2EE89FF89408121E030E0C901D6
:1041F0000C8C02C0880F991F0A94E2F7482B408369
:10420000EE89FF894081C9010D8C02C0880F991F7A
:104210000A94E2F7482B4083EE89FF894081C90167
:104220000E8C02C0880F991F0A94E2F7482B408336
:10423000EE89FF8980810F8C02C0220F331F0A9400
:10424000E2F7209528232083DF91CF911F910F91D2
:10425000FF90EF90DF90BF90AF900895CF93DF93E2
:10426000DC011E968D919C911F97EC01C05CDF4F85
:10427000FC01EE5BFF4F28813981808191812817F5
:104280003907C9F75696ED91FC915797408121E087
:1042900030E0C9015C960C905C9702C0880F991FB2
:1042A0000A94E2F78095842380835696ED91FC91E1
:1042B00057974081C9015D960C905D9702C0880FA9
:1042C000991F0A94E2F78095842380835696ED9196
:1042D000FC9157974081C9015E960C905E9702C091
:1042E000880F991F0A94E2F780958423808356965D
:1042F000ED91FC91579780815F960C905F9702C07B
:10430000220F331F0A94E2F72095282320831C965E
:10431000ED91FC911D97EE5BFF4F8081918192930F
:104320008293DF91CF910895DC011C96ED91FC9171
:104330001D97E05CFF4F2191319180819181281B75
:10434000390B2F733070C9010895DC011C96ED9173
:10435000FC911D97E05CFF4F20813181E054F040DB
:10436000DF01AE5BBF4F8D919C91119728173907E4
:1043700019F42FEF3FEF07C08D919C91E80FF91FC3
:104380008081282F30E0C9010895DC011C96ED9151
:10439000FC911D97E05CFF4F20813181E054F0409B
:1043A000DF01AE5BBF4F8D919C91119728173907A4
:1043B00019F42FEF3FEF10C08D919C911197E80FEA
:1043C000F91F20818D919C91119701968F739070A8
:1043D00011969C938E9330E0C9010895DC0191966B
:1043E0008C919197882339F05496ED91FC915597D3
:1043F000808186FFF9CF91961C920895CF93DF9329
:10440000EC01EE85FF85E05CFF4F20813181E054B7
:10441000F0402F5F3F4F2F733070DF01AE5BBF4F17
:104420008D919C91119728173907D1F3E05CFF4FCC
:1044300080819181E054F040E80FF91F6083EE85A0
:10444000FF85E05CFF4F31832083EE89FF89208167
:1044500081E090E00F8C02C0880F991F0A94E2F768
:10446000282B208381E089A3EC89FD8980818064E9
:10447000808381E090E0DF91CF9108951092120740
:104480001092110788EE93E0A0E0B0E0809313074C
:1044900090931407A0931507B093160782E394E056
:1044A0009093100780930F0787E896E090931C077E
:1044B00080931B078BEC96E090931E0780931D075B
:1044C00085EC90E09093200780931F0784EC90E0A8
:1044D000909322078093210780EC90E0909324072B
:1044E0008093230781EC90E0909326078093250723
:1044F00082EC90E0909328078093270786EC90E069
:1045000090932A078093290784E080932B0783E008
:1045100080932C0787E080932D0785E080932E07FA
:1045200081E080932F070895CF93DF930E94DB1DD6
:104530000E949400C9E5D0E20E948F002097E1F329
:104540000E945920F9CF08950E94CB250895CF925B
:10455000DF92EF92FF920F931F93CF93DF937C0133
:104560006B018A01C0E0D0E00FC0D6016D916D01F2
:10457000D701ED91FC910190F081E02DC7010995E3
:10458000C80FD91F015010400115110571F7CE0158
:10459000DF91CF911F910F91FF90EF90DF90CF901F
:1045A0000895CF93DF93EC010E94741D688779878B
:1045B0008A879B87E881F9810680F781E02DCE010B
:1045C00009959C0197FF15C00E94741D28853985A7
:1045D0004A855B85621B730B840B950B2C813D8197
:1045E0004E815F81621773078407950718F32FEFD9
:1045F0003FEFC901DF91CF910895CF92DF92EF9203
:10460000FF920F931F93CF93DF936C018B017A017D
:10461000C0E0D0E009C0C6010E94D12297FD07C0CA
:10462000F80181938F012196CE15DF05A0F3CE010D
:10463000DF91CF911F910F91FF90EF90DF90CF907E
:104640000895813041F0813018F08230D1F409C0F2
:1046500010926E00089580916F008D7F80936F009F
:104660000895809170008D7F8093700081E0809329
:10467000B0008091B100887F84608093B100109277
:10468000B30008951F93182F80919A01811711F09C
:104690009FEF06C0E2ECF0E094918FEF80939A01D7
:1046A000892F0E942123812F60E00E94DA1E1F9132
:1046B00008951F920F920FB60F9211242F933F93DC
:1046C0004F935F936F937F938F939F93AF93BF931A
:1046D000EF93FF9380913F0790914007A09141078E
:1046E000B09142070097A105B10551F1E091430750
:1046F000F0914407808190914507892780838091BC
:104700003F0790914007A0914107B09142071816CA
:1047100019061A061B06C4F480913F0790914007C2
:10472000A0914107B09142070197A109B109809377
:104730003F0790934007A0934107B093420704C0FE
:1047400080919A010E944223FF91EF91BF91AF9116
:104750009F918F917F916F915F914F913F912F9199
:104760000F900FBE0F901F9018952F923F925F925F
:104770006F927F928F929F92AF92BF92CF92DF9271
:10478000EF92FF920F931F93DF93CF9300D000D04F
:10479000CDB7DEB7A82F1B0129833A834B835C83F7
:1047A00080919A018A1721F4E2ECF0E0549082C0E3
:1047B0008F3F09F0DAC1A0939A01E2ECF0E0549047
:1047C0002FEF521609F4D1C181E0581639F192E069
:1047D000591609F449C0552009F06CC014BC15BC29
:1047E00084B5826084BD85B5816085BD2A2F30E0A7
:1047F000F901EA57FF4FE491F0E0EE0FFF1FEE588A
:10480000FF4F8591949190933607809335072656F4
:104810003F4FF9018491809337074EC0109280007A
:104820001092810080918100886080938100809146
:1048300081008160809381002A2F30E0F901EA57DE
:10484000FF4FE491F0E0EE0FFF1FEE58FF4F859110
:10485000949190933D0780933C0726563F4FF90172
:10486000849180933E0728C01092B0001092B1004E
:104870008091B00082608093B0008091B10081602F
:104880008093B1002A2F30E0F901EA57FF4FE491FD
:10489000F0E0EE0FFF1FEE58FF4F8591949190933B
:1048A00044078093430726563F4FF9018491809334
:1048B000450702C057FC59C18A2F61E00E949B1E28
:1048C000552021F0F2E05F1609F0BEC031018824C6
:1048D000992460E072E18AE790E0A40193010E94CC
:1048E000602759016A01860175010894E108F10801
:1048F000010911092FEFE216F1040105110509F074
:1049000008F499C060E472E48FE090E0A4019301A0
:104910000E94602779018A010894E108F1080109E1
:10492000110982E05816C1F49FEFE916F104010560
:10493000110509F008F484C060E970ED83E090E0AF
:10494000A40193010E94602779018A010894E1087B
:10495000F1080109110983E0AFEFEA16F10401053E
:10496000110509F008F468C068E478EE81E090E091
:10497000A40193010E94602779018A010894E1084B
:10498000F10801091109552011F483E01DC0B2E0BE
:104990005B1611F084E018C0EFEFEE16F10401058C
:1049A000110509F008F4DFC064E274EF80E090E0E4
:1049B000A40193010E94602779018A010894E1080B
:1049C000F1080109110985E0FFEFEF16F104010577
:1049D000110591F188F162E17AE780E090E0A401AD
:1049E00093010E94602779018A010894E108F10887
:1049F00001091109552011F086E001C084E02FEF74
:104A0000E216F10401051105B9F0B0F0C601B501D7
:104A100020E034E040E050E00E94602779018A0104
:104A20000894E108F10801091109552011F087E007
:104A300008C085E003C081E0552019F485BD3AC067
:104A400082E08093B10036C05101CC24DD2460E0C7
:104A500072E18AE790E0A60195010E946027790142
:104A60008A010894E108F1080109110980E0E816BB
:104A700080E0F80681E0080780E0180710F491E074
:104A800010C068E478EE81E090E0A60195010E94F4
:104A9000602779018A010894E108F10801091109E8
:104AA00093E0A1E05A1631F480918100887F982B21
:104AB0009093810089819A81AB81BC810097A10587
:104AC000B10529F48FEF9FEFAFEFBFEF13C0220CBA
:104AD000331CB10180E090E029813A814B815C81F7
:104AE0000E94002728EE33E040E050E00E943E277D
:104AF000C901DA01E1E05E16A1F0F2E05F1619F1FA
:104B0000552099F5E7BC8093310790933207A09325
:104B10003307B093340780916E00826080936E00FB
:104B200024C0F0928900E092880080933807909327
:104B30003907A0933A07B0933B0780916F008260DA
:104B400080936F0012C0E092B30080933F07909370
:104B50004007A0934107B0934207809170008260A4
:104B60008093700002C084E06CCF0F900F900F9084
:104B70000F90CF91DF911F910F91FF90EF90DF90F9
:104B8000CF90BF90AF909F908F907F906F905F90ED
:104B90003F902F9008950F931F93CF93DF93BC0105
:104BA0008230910510F462E070E0E0914807F091E6
:104BB000490740E050E0A0E0B0E024C0808191814E
:104BC00086179707D0F08617970771F48281938133
:104BD000109729F013969C938E9312972CC0909364
:104BE00049078093480727C04115510519F08417DC
:104BF000950718F48D01AC01EF01DF0182819381EB
:104C00009C01F9013097D1F641155105F9F0CA011F
:104C1000861B970B8430910580F48A819B81011556
:104C2000110521F0F8019383828304C09093490712
:104C300080934807FE01329645C0FE01E80FF91F38
:104C4000619371930297998388833CC08091460752
:104C500090914707892B41F480919D0190919E018D
:104C6000909347078093460740919F015091A00180
:104C70004115510541F44DB75EB780919B0190916C
:104C80009C01481B590B2091460730914707241778
:104C90003507B0F4CA01821B930B8617970780F083
:104CA000AB014E5F5F4F8417950750F0420F531FC3
:104CB0005093470740934607F9016193719302C0EF
:104CC000E0E0F0E0CF01DF91CF911F910F910895C7
:104CD000CF93DF939C01009709F48FC0EC012297DA
:104CE0001B821A826091480770914907611571050E
:104CF00081F488819981820F931F2091460730911A
:104D000047072817390739F5D0934707C093460757
:104D100074C0DB0140E050E0AC17BD0708F1BB8375
:104D2000AA83FE0121913191E20FF31FAE17BF0755
:104D300079F48D919C911197280F391F2E5F3F4F69
:104D40003983288312968D919C9113979B838A8334
:104D50004115510571F4D0934907C09348074DC0E0
:104D600012968D919C911397AD01009711F0DC0183
:104D7000D3CFDA011396DC93CE931297FA012191E7
:104D80003191E20FF31FCE17DF0769F48881998113
:104D9000280F391F2E5F3F4FFA01318320838A810C
:104DA0009B8193838283E0E0F0E0DB0112968D919A
:104DB0009C911397009719F0BC01FD01F6CFAB0150
:104DC0004E5F5F4FDB018D919C91840F951F209169
:104DD0004607309147072817390779F4309729F4A7
:104DE000109249071092480702C013821282425063
:104DF00050405093470740934607DF91CF91089565
:104E0000629FD001739FF001829FE00DF11D649FAE
:104E1000E00DF11D929FF00D839FF00D749FF00D3A
:104E2000659FF00D9927729FB00DE11DF91F639FDB
:104E3000B00DE11DF91FBD01CF0111240895991B8B
:104E400079E004C0991F961708F0961B881F7A9581
:104E5000C9F78095089597FB092E07260AD077FD9C
:104E600004D049D006D000201AF4709561957F4F88
:104E70000895F6F7909581959F4F0895A1E21A2E17
:104E8000AA1BBB1BFD010DC0AA1FBB1FEE1FFF1FEE
:104E9000A217B307E407F50720F0A21BB30BE40B3E
:104EA000F50B661F771F881F991F1A9469F7609585
:104EB0007095809590959B01AC01BD01CF0108953F
:104EC00097FB092E05260ED057FD04D0D7DF0AD058
:104ED000001C38F450954095309521953F4F4F4F29
:104EE0005F4F0895F6F790958095709561957F4F87
:104EF0008F4F9F4F0895AA1BBB1B51E107C0AA1FEC
:104F0000BB1FA617B70710F0A61BB70B881F991F6A
:104F10005A95A9F780959095BC01CD010895EE0FA3
:0E4F2000FF1F0590F491E02D0994F894FFCF47
:104F2E00446562756767696E6720456E61626C6580
:104F3E006400536572766F2000203A20004372653C
:104F4E0061746564204E657720536572766F204FCD
:104F5E006E204368616E6E656C200000127A000050
:104F6E00093D0080841E0040420F0020A1070090E2
:104F7E00D0030048E801000400000005000100060F
:104F8E0000020003002C01000058020000B00400D3
:104F9E000060090000C012000080250000403800AB
:104FAE0000004B000080700000127A000000960096
:104FBE000000E1000000C2010001FF80004A07006E
:104FCE00000000000045011401CD00D600EB00FCEE
:104FDE000041726475696E6F20556E6F000001029C
:104FEE00030405E0C81000030000010203040506D7
:104FFE000708090A0B0C0D0E0F10111213030506EC
:10500E00090A0B00000000000B0F850E260D3B0E4B
:10501E00040E980D660D610D360941094809CD0C37
:10502E00B80CDB098A0C280CDE09AC0BE1099D0BD0
:10503E007E0B730B3E0722070D07460753075E07CD
:10504E008F079C07BE07D907F2070B0824083D08F7
:10505E0056086F086A0BDE0A550A160A250C1A0C3A
:10506E00930D110A0C0AD7068C088D088E088F082E
:10507E009008910892089308940895089608970846
:10508E00980899089A089B080C079C0800000000D5
:10509E000B0F850E260D3B0E040E980D660D610D41
:1050AE00360941094809CD0CB80CDB098A0C280CCD
:1050BE00DE09AC0BE1099D0B7E0B730B3E0722073D
:1050CE000D07460753075E078F079C07BE07D907D4
:1050DE00F2070B0824083D0856086F086A0BDE0A13
:1050EE00550A160A250C1A0C930D110A0C0AD7062E
:1050FE008C088D088E088F089008910892089308E6
:10510E009408950896089708980899089A089B0895
:10511E000C079C0800000000A322A322A322A322B6
:10512E00A322A322A322A322A322A322A322A32249
:10513E00A322A322A322A322A322A322A322A32239
:10514E00A322A3223E0722070D07460753075E0739
:10515E008F079C07BE07D907F2070B0824083D08E6
:10516E0056086F08A322A322A322A322A322A322BE
:10517E000B07A322A322D7068C088D088E088F0852
:10518E009008910892089308940895089608970835
:10519E00980899089A089B080C079C0800000000C4
:1051AE000B0F850E260D3B0E040E980D660D610D30
:1051BE00360941094809CD0CB80CDB098A0C280CBC
:1051CE00DE09AC0BE1099D0B7E0B730B3E0722072C
:1051DE000D07460753075E078F079C07BE07D907C3
:1051EE00F2070B0824083D0856086F086A0BDE0A02
:1051FE00550A160A250C1A0C930D110A0C0AD7061D
:10520E008C088D088E088F089008910892089308D4
:10521E009408950896089708980899089A089B0884
:10522E000C079C08000000009D11A011A311A611EF
:10523E000E10D50FD80FDB0F9E0F000000009D1132
:10524E00A011A311A611A911AC11AF11B21100003A
:0E525E000000FE21A7229421C521A521EE21EA
:00000001FF
