:100000000C9465000C948D000C948D000C948D0064
:100010000C948D000C948D000C948D000C94022394
:100020000C948D000C948D000C948D000C9446055E
:100030000C948D000C948D000C948D000C948D000C
:100040000C94D51C0C948D000C94C71F0C94152097
:100050000C948D000C948D000C948D000C948D00EC
:100060000C9478020C948D000000000024002700FE
:100070002A0000000000250028002B0000000000DE
:1000800023002600290004040404040404040202DA
:100090000202020203030303030301020408102007
:1000A0004080010204081020010204081020000012
:1000B0000007000201000003040600000000000029
:1000C000000002001C015511E72111241FBECFEFD3
:1000D000D8E0DEBFCDBF14E0A0E0B1E0E0E8FEE490
:1000E00002C005900D92A833B107D9F716E0A8E336
:1000F000B4E001C01D92A83BB107E1F710E0CAECE3
:10010000D0E004C02297FE010E943A27C43CD107E8
:10011000C9F70E943D220C943E270C94000080E415
:1001200095E00E94A20F08950F931F9383EC90E037
:100130000E944D22182F092F0E94040610933804A4
:100140000093390480E495E0612F702F40E00E9415
:10015000650F1F910F910895882319F48CB5806263
:1001600002C08CB58F7D8CBD08959CB5937F982B74
:100170009CBD08952CB5382F33702C7F322B3CBD9D
:100180002DB590E0959587959595879581702E7FF3
:10019000822B8DBD08958AE061E00E94831E8AE073
:1001A00061E00E94441E8CB580618CBD8CB580647A
:1001B0008CBD8DE061E00E94441E8BE061E00E94F6
:1001C000441E089581E080937F0460935C04109244
:1001D0007D0410927E04089520915B0430E08091AC
:1001E0005A04281B3109C901089540915A0480918D
:1001F0005B04481718F02FEF3FEF0AC0E42FF0E040
:10020000E65CFB4F8081282F30E04F5F40935A041B
:10021000C9010895E0915A0480915B04E81718F031
:10022000EFEFFFEF06C0F0E0E65CFB4F8081E82FC8
:10023000F0E0CF0108950895109283041092820493
:1002400088EE93E0A0E0B0E080938404909385046E
:10025000A0938604B093870485EA91E0909381048B
:10026000809380040895CF92DF92EF92FF920F93D4
:100270001F93CF93DF937C016B018A0180917F04F0
:100280008823A1F0C0E0D0E00DC0D701ED91FC9132
:10029000D601AC0FBD1F0190F081E02DC7016C911C
:1002A00009952196C017D10780F304C0CB01642FB4
:1002B0000E945D02C801DF91CF911F910F91FF90C5
:1002C000EF90DF90CF900895DF93CF930F92CDB74B
:1002D000DEB7FC01698380917F048823C9F0809197
:1002E0007E04803238F081E090E09383828320E0C6
:1002F00030E015C080917D04E82FF0E0E35AFB4F19
:10030000998190838F5F80937D0480937E0405C0E4
:10031000CE01019661E00E945D0221E030E0C9015A
:100320000F90CF91DF9108950F93062F80915C0479
:100330006DE574E040917E0421E00E940802109275
:100340007D0410927E0410927F040F910895413233
:1003500008F040E2862F6AE374E00E94BF01109229
:100360005A0480935B04089510925A0410925B041F
:1003700010927D0410927E040E9409040895382F83
:10038000413210F040E042C080918C048823E1F7B4
:1003900091E090938C0420938E048FEF8093F90466
:1003A0001092B40441504093B5044F5F90938D0474
:1003B00080918D04330F832B80938D0480918F0463
:1003C000813041F410928F0480918D048093BB00A2
:1003D00085EC01C085EE8093BC0080918C04813057
:1003E000E1F38091B404841710F44091B40420E048
:1003F00030E00AC0FB01E20FF31FD901AC56BB4F3E
:100400008C9180832F5F3F4F2417A0F3842F089592
:100410000F931F93582F122F413210F081E04AC0E2
:1004200080918C048823E1F782E080938C04009310
:100430008E048FEF8093F9041092B4044093B504B6
:10044000A4E9B4E0FB0102C081918D938E2F861B3D
:100450008417D0F310928D0480918D04550F852B55
:1004600080938D0480918F04813041F410928F0429
:1004700080918D048093BB0085EC01C085EE809354
:10048000BC00112321F080918C048230E1F3809133
:10049000F9048F3F11F480E00DC08091F90480329F
:1004A00011F482E007C08091F904803311F084E0F8
:1004B00001C083E01F910F910895482F613210F021
:1004C00081E0089580918C04843011F082E00895D9
:1004D0006093D704A6EBB4E0842F9C01F90102C01D
:1004E00081918D938E2F841B8617D0F380E0089521
:1004F0001F920F920FB60F9211242F933F934F9399
:100500005F936F937F938F939F93AF93BF93EF937B
:10051000FF938091B90090E0887F907080369105BC
:1005200009F4F2C081369105CCF58832910509F4C1
:100530007BC089329105B4F48031910509F46FC014
:10054000813191053CF4009709F447C1089709F0FF
:100550004FC165C08831910509F466C0809709F0E4
:1005600047C182C08034910509F4A4C0813491054B
:1005700044F48033910509F482C0C89709F038C16A
:1005800089C08035910509F489C08835910509F441
:1005900096C08834910509F02BC1AEC08839910509
:1005A00009F413C189399105ECF48837910509F4F0
:1005B000ABC0893791054CF48836910509F4A4C085
:1005C0008037910509F014C19FC08838910509F45E
:1005D000FCC08039910509F49DC08038910509F06F
:1005E00007C198C0803B910509F4C6C0813B9105C5
:1005F0004CF4803A910509F49FC0883A910509F0BE
:10060000F7C0BAC0803C910509F4E3C0883C91056D
:1006100009F4DFC0883B910509F0EAC0C2C08091AF
:100620008D048093BB00CFC09091B4048091B50439
:10063000981768F49091B404E92FF0E0EC56FB4F62
:1006400080818093BB009F5F9093B404BCC0809175
:100650008E04882309F44BC085ED8093BC00809103
:10066000BC0084FDFCCFC2C080E28093F90485ED1C
:100670008093BC008091BC0084FDFCCFB7C080E3B8
:100680008093F90485ED8093BC008091BC0084FDCB
:10069000FCCFACC088E38093F9049BC08091B40484
:1006A0009091BB00E82FF0E0EC56FB4F90838F5FFA
:1006B0008093B4049091B4048091B50482C0809179
:1006C000B4049091BB00E82FF0E0EC56FB4F908310
:1006D0008F5F8093B40480918E04882341F085ED70
:1006E0008093BC008091BC0084FDFCCF7FC081E082
:1006F00080938F0484EA6EC085ED8093BC00809166
:10070000BC0084FDFCCF72C083E080938C04109207
:10071000F80459C08091F804803208F056C08091E6
:10072000F8049091BB00E82FF0E0E852FB4F908373
:100730008F5F8093F80447C08091F804803230F4D2
:10074000E091F804F0E0E852FB4F108285ED8093D1
:10075000BC008091BC0084FDFCCF10928C046091A1
:10076000F804E0919204F091930488ED94E070E035
:1007700009951092F8042DC084E080938C041092A7
:10078000D6041092D704E0919004F0919104099559
:100790008091D704882329F481E08093D7041092B4
:1007A000B6049091D604E92FF0E0EA54FB4F808123
:1007B0008093BB009F5F9093D6049091D604809164
:1007C000D704981710F485EC01C085E88093BC002D
:1007D0000FC085EC8093BC0009C01092F90485ED30
:1007E0008093BC008091BC0084FDFCCF10928C04EF
:1007F000FF91EF91BF91AF919F918F917F916F91F9
:100800005F914F913F912F910F900FBE0F901F90CE
:10081000189510928C0481E080938E0410928F04BE
:1008200082E161E00E94831E83E161E00E94831EF9
:10083000E9EBF0E080818E7F808380818D7F8083F3
:1008400088E48093B80085E48093BC000895F9990A
:10085000FECF72BD61BDF89A80B50895F999FECFBB
:100860001FBA72BD61BD40BD0FB6F894FA9AF99AED
:100870000FBE0895FC018091FB048C3090F48083BE
:100880008F5F8093FB04815090E0FC01EE0FFF1F0F
:10089000E80FF91FE450FB4F88EB9BE092838183C4
:1008A00008958FEF80830895DC018C9190E0FC0126
:1008B000EE0FFF1FE80FF91FE450FB4F80818F7B85
:1008C00080838C916CE00E94C82690E0AC01440FBC
:1008D000551F480F591F440F551F440F551F20E047
:1008E00030E0C901840F951FFC01EE0FFF1FE80FD8
:1008F000F91FE450FB4F808186FD05C02F5F3F4FFD
:100900002C30310571F70895FC0120812C30B8F5A9
:100910008181992787FD909548E850E0481B590B45
:10092000440F551F440F551F6417750784F08281CB
:10093000992787FD909548E552E0481B590B440FD5
:10094000551F440F551F641775070CF4AB01425037
:100950005040CA01AA2797FDA095BA2F880F991F6A
:10096000AA1FBB1F4FB7F89430E0F901EE0FFF1F2D
:10097000E20FF31FE450FB4F928381834FBF089532
:10098000CF92DF92EF92FF921F93CF93DF93EC0110
:10099000162F7A01690188818C3008F064C0862F97
:1009A00061E00E94441E888190E0FC01EE0FFF1F71
:1009B000E80FF91FE450FB4F1F738081807C812B6F
:1009C000808380E292E08E199F0964E070E00E94CB
:1009D000D426698380E699E08C199D0964E070E073
:1009E0000E94D4266A83A8818A2F6CE00E94C826C0
:1009F000682F70E0AB01440F551F460F571F440F7F
:100A0000551F440F551F20E030E0C901840F951F8A
:100A1000FC01EE0FFF1FE80FF91FE450FB4F808130
:100A200086FD15C02F5F3F4F2C30310571F724C074
:100A30001092800082E080938100109285001092D5
:100A40008400B19A80916F00826080936F008A2F3A
:100A500090E0FC01EE0FFF1FE80FF91FE450FB4F81
:100A60008081806480838881DF91CF911F91FF9086
:100A7000EF90DF90CF900895672BD1F2E8CF40E25E
:100A800052E020E639E00E94C00408951F920F92C0
:100A90000FB60F9211242F933F934F935F936F9351
:100AA0007F938F939F93AF93BF93EF93FF93809127
:100AB000200587FF05C010928500109284002BC08E
:100AC00020912005332727FD30958091FB0490E08D
:100AD0002817390704F580912005992787FD9095FF
:100AE000FC01EE0FFF1FE80FF91FE450FB4F808160
:100AF00086FF11C080912005992787FD9095FC0104
:100B0000EE0FFF1FE80FF91FE450FB4F80818F733A
:100B100060E00E94831E809120058F5F80932005F6
:100B200020912005332727FD30958091FB0490E02C
:100B3000281739070CF04EC0809120058C300CF03E
:100B400049C020918400309185008091200599272B
:100B500087FD9095FC01EE0FFF1FE80FF91FE45091
:100B6000FB4F81819281280F391F30938900209398
:100B7000880080912005992787FD9095FC01EE0F54
:100B8000FF1FE80FF91FE450FB4F808186FF2BC049
:100B900080912005992787FD9095FC01EE0FFF1F9E
:100BA000E80FF91FE450FB4F80818F7361E00E94D2
:100BB000831E19C080E49CE905C080918400909157
:100BC0008500049690938900809388008FEF80932E
:100BD000200509C08091840090918500049680547E
:100BE0009C4940F3EACFFF91EF91BF91AF919F9164
:100BF0008F917F916F915F914F913F912F910F90C6
:100C00000FBE0F901F901895FF920F931F93CF93D5
:100C1000DF938C010E94DB0682EE91E0D8011196F1
:100C20009C938E9313961C9213978CE014968C933E
:100C3000149781EB91E016969C938E93159761E043
:100C400017966C93179782E018968C9318971996BD
:100C50001C9219978EE0F82E1A96FC921A97E9ECDE
:100C6000F1E01C96FC93EE931B9776E01D967C9327
:100C70001D978DEB91E01F969C938E931E978AE0B3
:100C800050968C93509720E43BE44CE450E0E8010C
:100C9000298B3A8B4B8B5C8B55962D933D934D93C3
:100CA0005C93589703551F4F87EC91E0E8019983B7
:100CB000888303501040D8016D938D0183EC91E03F
:100CC0008D939C930C5F1F4FE80119921992199212
:100CD00019928E01288339834A835B83035B10401A
:100CE000E801198E1B8E1A8E7C8F87ED91E09E8F06
:100CF0008D8F1F8E19A218A26AA383E295E09CA390
:100D00008BA38091950190919601A0919701B0914C
:100D100098018DA39EA3AFA3B8A709541F4F8DE0E0
:100D2000D8018D938D0185E691E08D939C93085BAE
:100D30001040E80169A781E295E09BA78AA70154CA
:100D40001F4F82E295E0D8018D939C930F5B10407A
:100D5000E8016CA78DED91E09EA78DA706541F4F6B
:100D600087E0D8018D938BE391E0ED01899399930E
:100D70008E0187E591E0998388830D5B1040D8014F
:100D80009F961C929F97D1961C921E92D097D296B6
:100D9000FC92D297D496FC93EE93D3970F531F4FA8
:100DA00084E295E0E80199838883DF91CF911F91D8
:100DB0000F91FF9008950F931F938C010E94360F9F
:100DC0008AE692E0F8019183808382E082831F911A
:100DD0000F910895FC0182EF92E0918380838EEF62
:100DE000828313820895EF92FF920F931F93DF93F4
:100DF000CF9300D000D0CDB7DEB77C0119821A8224
:100E00001B821C82DC01ED91FC9102A0F3A1E02D7C
:100E100020E032EC41E050E08E010F5F1F4F09955A
:100E2000D701ED91FC91EC58FF4F0190F081E02D3E
:100E3000C70160E071E009950F900F900F900F903F
:100E4000CF91DF911F910F91FF90EF90089508953A
:100E50000895DF93CF930F92CDB7DEB7DC014983BE
:100E6000ED91FC9102A4F3A5E02D41E09E012F5FDE
:100E70003F4F09950F90CF91DF910895FF920F9307
:100E80001F93CF93DF938C01F62EEA010AC02196BF
:100E9000D801ED91FC9104A4F5A5E02DC8016F2DBA
:100EA00009954881442399F7DF91CF911F910F91C4
:100EB000FF900895DC01ED91FC9100A8F1A9E02DCF
:100EC00009950895DC019A01ED91FC91442737FDC5
:100ED0004095542F06A8F7A9E02D09950895DC0147
:100EE000ED91FC919A0140E050E000ACF1ADE02DB5
:100EF00009950895DF92EF92FF920F931F93CF937E
:100F0000DF93EC01D62E79018A0157FF0FC0E881EB
:100F1000F98104A4F5A5E02D4DE209951095009501
:100F2000F094E094E11CF11C011D111DE881F98190
:100F3000EE57FF4F0190F081E02DCE016D2DA801FD
:100F400097010AE00995DF91CF911F910F91FF90D2
:100F5000EF90DF9008950F93DC01ED91FC91EE5737
:100F6000FF4F0190F081E02D0AE009950F9108955F
:100F70000F931F93DC010115110541F4ED91FC91D4
:100F800004A4F5A5E02D422F099511C0ED91FC9127
:100F900011970A30110529F406A8F7A9E02D099543
:100FA00006C0EE57FF4F0190F081E02D09951F918B
:100FB0000F910895FF920F931F938C01F62EDC0181
:100FC000ED91FC9104A4F5A5E02D4DE00995D80123
:100FD000ED91FC9104A4F5A5E02DC8016F2D4AE028
:100FE00009951F910F91FF900895FF920F931F9302
:100FF0008C01F62EDC01ED91FC9104A4F5A5E02D09
:101000000995D801ED91FC9104ACF5ADE02DC80136
:101010006F2D09951F910F91FF900895FF920F93E7
:101020001F938C01F62EDC01ED91FC9106A4F7A52F
:10103000E02D0995D801ED91FC9104ACF5ADE02DC2
:10104000C8016F2D09951F910F91FF900895FF9290
:101050000F931F938C01F62EDC01ED91FC9100A8FB
:10106000F1A9E02D0995D801ED91FC9104ACF5AD05
:10107000E02DC8016F2D09951F910F91FF900895E4
:10108000FF920F931F938C01F62EDC01ED91FC91E2
:1010900002A8F3A9E02D0995D801ED91FC9104ACCB
:1010A000F5ADE02DC8016F2D09951F910F91FF90AF
:1010B0000895FF920F931F938C01F62EDC01ED91A2
:1010C000FC9106A8F7A9E02D0995D801ED91FC91B6
:1010D00004ACF5ADE02DC8016F2D09951F910F915E
:1010E000FF900895FF920F931F938C01F62EDC0161
:1010F000ED91FC9100ACF1ADE02D0995D801ED9199
:10110000FC9104ACF5ADE02DC8016F2D09951F9140
:101110000F91FF900895DF92EF92FF920F931F932C
:101120007C01D62EDC01ED91FC9102ACF3ADE02DFB
:101130000995D701ED91FC9104ACF5ADE02DC70107
:101140006D2D09951F910F91FF90EF90DF900895FD
:1011500008950895089508950895089508950895A7
:101160000895089508950895089508950895089597
:101170002F923F924F925F926F927F928F929F92A7
:10118000AF92BF92CF92DF92EF92FF920F931F9395
:10119000DF93CF93CDB7DEB7A1970FB6F894DEBF3C
:1011A0000FBECDBF1C0169A369017A01211531056C
:1011B0004105510549F4DC01ED91FC9104A4F5A52C
:1011C000E02D40E3099555C0882499245401402E10
:1011D00055246624772401E010E00C0F1D1F080D34
:1011E000191DC701B601A30192010E94E726F8016B
:1011F00060830894811C911CA11CB11CC701B6011D
:10120000A30192010E94E726C901DA016C017D0168
:10121000C114D104E104F104F1F671E0E72EF12CE0
:10122000EC0EFD1EE80CF91C3E010894611C711CBB
:10123000D501C4010197A109B1096C01C818D908E9
:1012400015C0D101ED91FC9124A535A5F601EE0D57
:10125000FF1D40814A3010F4405D01C0495CC1016E
:1012600069A1F90109950894E108F1086E147F0459
:1012700041F7A1960FB6F894DEBF0FBECDBFCF9158
:10128000DF911F910F91FF90EF90DF90CF90BF9073
:10129000AF909F908F907F906F905F904F903F9016
:1012A0002F90089580E090E0089581E090E0089507
:1012B0009F92AF92BF92CF92DF92EF92FF920F93E5
:1012C0001F937C01962E59016A01DC01ED91FC917E
:1012D000E45BFF4F0190F081E02D0995D701ED917E
:1012E000FC9102A0F3A1E02DC701692DA601950193
:1012F00009951F910F91FF90EF90DF90CF90BF90D5
:10130000AF909F9008958AEF94E00E94270408957B
:101310008AEF94E00E942E040895CF92DF92EF921C
:10132000FF920F931F93CF93DF93242F352F8901C3
:10133000C0E0D0E0C62EDD2441ECE42EF12CE80E16
:10134000F91E1CC0D8018C9190E0880F991FD7011D
:10135000ED91FC91E80FF91F808191810E94540466
:10136000F80181918F0190E0880F991FD701ED91CD
:10137000FC91E80FF91F118210822196CC15DD0532
:101380000CF380E090E0DF91CF911F910F91FF90DF
:10139000EF90DF90CF9008956F927F928F929F92FF
:1013A000AF92BF92CF92DF92EF92FF920F931F9373
:1013B000CF93DF93EC015C01842F952F6C017901B1
:1013C00000E010E0662E772471EC872E912C8C0EB5
:1013D0009D1E56C0E881F981EE59FF4F0190F081C2
:1013E000E02DC50162E171E00995A881B981A2599A
:1013F000BF4FF601808190E0880F991FF401208192
:101400003181280F391FF90140815181662757FD2D
:101410006095762FED91FC91C5012AE030E00995A9
:10142000E881F981EE59FF4F0190F081E02DC5016F
:1014300069E171E00995E881F981E258FF4FD70130
:101440004D915C9160E070E00190F081E02DC5016C
:101450002AE030E00995F60181916F0190E0880F54
:10146000991FD401ED91FC91E80FF91FD7016D91FF
:101470007D917D01808191810E9484040F5F1F4FC7
:10148000061517050CF4A6CF80E090E0DF91CF9110
:101490001F910F91FF90EF90DF90CF90BF90AF9092
:1014A0009F908F907F906F9008952F923F924F92D0
:1014B0005F926F927F928F929F92AF92BF92CF92E4
:1014C000DF92EF92FF920F931F93DF93CF9300D0A1
:1014D0000F92CDB7DEB76C011A0189838D2CAA2437
:1014E000BB24462E5524F1EC6F2E712C680E791E0C
:1014F0004CC0F101EA0DFB1D9080E92CFF24EE0C9D
:10150000FF1CD3010D90BC91A02DAE0DBF1DBB8360
:10151000AA838D919C91892BA9F583E090E00E948C
:101520004D22182F092F0E943A04EA81FB81108373
:101530000183D301ED91FC91EE0DFF1D808191811E
:10154000692D70E00E943F05D601ED91FC91EE59A6
:10155000FF4F0190F081E02D8981982D6DE171E0C0
:101560000995D601ED91FC91E258FF4F492D50E0CD
:1015700060E070E00190F081E02D8981982D2AE0F3
:1015800030E009950894A11CB11CA414B5040CF416
:10159000B0CF80E090E00F900F900F90CF91DF914F
:1015A0001F910F91FF90EF90DF90CF90BF90AF9081
:1015B0009F908F907F906F905F904F903F902F9073
:1015C0000895662321F48DE796E00E94D72080E0FD
:1015D00090E00895662331F48DE796E0B90150E07C
:1015E0000E94502280E090E00895FF920F931F9395
:1015F000CF93DF93F42EE801662339F48DE796E06C
:10160000B90150E00E94A622888388818F1519F4C1
:1016100020E030E002C023E830E0C901DF91CF9143
:101620001F910F91FF900895CF93DF93EA016623F6
:1016300029F48DE796E00E943D21888380E090E0C8
:10164000DF91CF9108959F92AF92BF92CF92DF9298
:10165000EF92FF920F931F93CF93DF93EC01962E9F
:10166000BA01A9015801C954DF4F8881C75BD04036
:10167000C82EDD2400E010E020E030E0B8EBEB2ED7
:10168000F12CEC0EFD1E12C0D701ED91FC91E20F82
:10169000F31F80819181A281B3812C5F3F4F481756
:1016A00059076A077B0728F00F5F1F4F0C151D05B0
:1016B0005CF30115110511F001501040992019F546
:1016C0007801EE0CFF1CEE0CFF1C8E0108541F4F1E
:1016D000D801ED91FC91EE0DFF1D40815181628199
:1016E00073818DE796E00E945020D801ED91FC9126
:1016F000EE0DFF1D80819181A281B381F501808370
:101700009183A283B38380E090E0DF91CF911F911A
:101710000F91FF90EF90DF90CF90BF90AF909F9090
:1017200008950E941D1D28EE33E040E050E00E9425
:10173000E726CA01B90108950E941D1D08956F9200
:101740007F928F929F92AF92BF92CF92DF92EF9251
:10175000FF920F931F93CF93DF933601222331F42F
:1017600080E894E0642F402F21E00AC0213019F076
:1017700021E830E036C080E894E0642F402F20E07C
:101780000E94A7010E941D1D5B016C01802E9924FF
:1017900000E010E00EC00E941D1D6A197B098C0933
:1017A0009D09E616F7060807190718F423E830E044
:1017B00018C080E894E00E94EC00881599055CF35D
:1017C000C0E0D0E009C080E894E00E94F500F30199
:1017D000EC0FFD1F80832196C815D905A4F320E0E6
:1017E00030E0C901DF91CF911F910F91FF90EF90F1
:1017F000DF90CF90BF90AF909F908F907F906F9031
:101800000895EF92FF920F931F93122F80E894E0B8
:10181000642F0E94E20080E894E0B701402F50E07E
:101820000E943301112321F480E894E061E005C0B7
:10183000113041F480E894E060E00E94940120E0DF
:1018400030E007C080E894E061E00E94940121E864
:1018500030E0C9011F910F91FF90EF900895FC01B6
:10186000E154FF4F0190F081E02DE60FF11D8081E2
:10187000882319F08F5F808304C080E894E00E9481
:10188000B40180E090E008956F927F928F929F92D2
:10189000AF92BF92CF92DF92EF92FF920F931F937E
:1018A000CF93DF93842EF22E902E1E2D3601802FA3
:1018B00061E00E94441E6E2D60956170802F0E9431
:1018C000831EC0E0D0E000E0CF2CDD24E82CFF2414
:1018D00011701BC0802F820FA82FB0E0F301EA0F18
:1018E000FB1F80818EBD0DB407FEFDCF8EB5AA0D06
:1018F000BB1D8C932F5F3F4F2E153F055CF3892D49
:10190000612F0E94831E2196080DCC15DD051CF465
:1019100020E030E0F1CF80E090E0DF91CF911F91A7
:101920000F91FF90EF90DF90CF90BF90AF909F907E
:101930008F907F906F900895CF92DF92EF92FF92F9
:101940000F931F93CF93DF9369018A01C0E0D0E02A
:10195000E62EFF241EC0F801808161E00E94441E33
:10196000FE0183E0F595E7958A95E1F7EC0DFD1D05
:10197000608170E0CE018770907002C075956795A8
:101980008A95E2F76170F80181918F010E94831EB0
:101990002196CE15DF05FCF280E090E0DF91CF913B
:1019A0001F910F91FF90EF90DF90CF9008958F924D
:1019B0009F92AF92BF92CF92DF92EF92FF920F93DE
:1019C0001F93CF93DF9369017A0100E010E0C0E03C
:1019D000D0E03AEB832E912C880E991E2BEBA22E91
:1019E000B12CA80EB91E13C0D501ED91FC91EC0FDE
:1019F000FD1F80819181A281B3812496C816D906EA
:101A0000EA06FB0650F00E94BA000F5F1F4FF40178
:101A1000808190E0081719073CF380E090E0DF91A7
:101A2000CF911F910F91FF90EF90DF90CF90BF90DB
:101A3000AF909F908F900895842F0E94B50080E012
:101A400090E00895842F0E94AC0080E090E008951B
:101A50000E94CB0080E090E00895CF92DF92EF9259
:101A6000FF920F931F93CF93DF9369018A01C0E028
:101A7000D0E0E62EFF2410C0F801808161E00E94D2
:101A8000441EF601EC0FFD1F6081F80181918F016A
:101A900070E00E94E41D2196CE15DF056CF380E016
:101AA00090E0DF91CF911F910F91FF90EF90DF9029
:101AB000CF900895CB01BA010E942B1D08959F92EB
:101AC000AF92BF92CF92DF92EF92FF920F931F934C
:101AD000CF93DF93162F922EE5014130D9F4862F54
:101AE00061E00E94441E812F61E00E94831E61E03C
:101AF00070E080E090E00E942B1D812F60E00E944A
:101B0000831E61E070E080E090E00E942B1D812F39
:101B100061E01CC04230E1F4862F61E00E94441E67
:101B2000812F60E00E94831E61E070E080E090E021
:101B30000E942B1D812F61E00E94831E61E070E0F6
:101B400080E090E00E942B1D812F60E00E94831EA8
:101B5000892D60E00E94441E002319F4892D60E065
:101B600004C0013051F4892D61E0A70196010E9463
:101B70002A1F688379838A839B8380E090E0DF91CA
:101B8000CF911F910F91FF90EF90DF90CF90BF907A
:101B9000AF909F9008959F92AF92BF92CF92DF92A5
:101BA000EF92FF920F931F93962E59016A01211510
:101BB000310541055105B9F0862F61E00E94441EB0
:101BC000E114F1040105110529F0892DB501A801E1
:101BD000970106C0892DB50120E030E040E050E0DB
:101BE0000E945E2303C0862F0E94EB2280E090E0DB
:101BF0001F910F91FF90EF90DF90CF90BF90AF902B
:101C00009F9008958F929F92AF92BF92CF92DF9252
:101C1000EF92FF920F931F93CF93DF934A017901C5
:101C200008E0CC24DD24C0E0D0E0A62EBB241EC0FA
:101C3000002341F4F701EC0DF11DD082C39407E0BD
:101C4000DD2401C00150F401EC0FFD1F1081812F34
:101C500060E00E94441E812F0E94D71E002E02C009
:101C6000880F991F0A94E2F7D82A2196CA15DB0536
:101C7000FCF2EC0CF11CF701D08280E090E0DF91E7
:101C8000CF911F910F91FF90EF90DF90CF90BF9079
:101C9000AF909F908F900895CF92DF92EF92FF9236
:101CA0000F931F93CF93DF93EC0179018A01613089
:101CB00091F0613020F0623009F068C040C081E0EE
:101CC0000E94BF1D89899A89AB89BC898D8B9E8BA7
:101CD000AF8BB88F55C0C655DF4F8881CA5AD040E8
:101CE000882309F453C020E030E040E050E0C82EE3
:101CF000DD24BE0165557F4F1EC0DB01ED91FC91D7
:101D0000E40FF51F80819181A281B3814C5F5F4F09
:101D10008E159F05A007B10761F4220F331FC3552D
:101D2000DF4FE881F981CD5AD040E20FF31F808167
:101D300021C02F5F3F4F2C153D05FCF224C0C1553B
:101D4000DF4F88819981AA81BB81CF5AD040281763
:101D500039074A075B07B8F0CD54DF4F8881998176
:101D6000AA81BB81C35BD04082179307A407B50744
:101D700050F080E00E94BF1DED8AFE8A0F8B188F05
:101D800020E030E005C022E830E002C021E830E089
:101D9000C901DF91CF911F910F91FF90EF90DF90DC
:101DA000CF9008956F927F928F929F92AF92BF9241
:101DB000CF92DF92EF92FF920F931F93CF93DF9317
:101DC0006C014A017901D9011C9200E018E0C0E0E1
:101DD000D0E0A62EBB2458E0652E712C33C0F40150
:101DE000EC0FFD1F80810E94C21DAC01F6016089CD
:101DF00026C0F701E00FF11DD60150968C9190E0BE
:101E0000861B91099A0102C0369527958A95E2F7BB
:101E1000C9019301211B310902C0880F991F2A951E
:101E2000E2F72081282B2083611710F4161B09C0CC
:101E3000611B0F5FF701E00FF11D108218E06623B0
:101E4000C1F62196CA15DB0554F280E090E0DF91DF
:101E5000CF911F910F91FF90EF90DF90CF90BF90A7
:101E6000AF909F908F907F906F900895DF92EF9248
:101E7000FF920F931F938C010E94EA068AE793E07A
:101E8000F8019183808381E0878382E080871186D7
:101E90007AEFE72E74E0F72EC70160E070E00E9451
:101EA0002704D82EC70161E070E00E9427043D2D71
:101EB00020E090E0282B392BF80136AB25AB1F91A1
:101EC0000F91FF90EF90DF900895EF92FF920F93A4
:101ED0001F93DF93CF9300D000D0CDB7DEB77C0146
:101EE000DB01FC017383628319821A821B821C82CC
:101EF0004087ED91FC9102A0F3A1E02DCB01642F6E
:101F000020E835E240E050E08E010F5F1F4F099559
:101F10008AEA90E0E80EF91E84E090E0F7019183F0
:101F200080830F900F900F900F90CF91DF911F91B2
:101F30000F91FF90EF9008958FEF9FEF08958FEF2F
:101F40009FEF0895CF93DF93DC01EC01C655DF4F7F
:101F5000888199818530910571F086309105B1F0C5
:101F6000049701F5ED91FC9111970084F185E02D26
:101F7000CD01099517C0ED91FC9111970284F3856D
:101F8000E02DCD010995198218820CC0ED91FC91CC
:101F900011970484F585E02DCD0109958FEF9FEF12
:101FA0000E943E27DF91CF9108958F929F92AF922A
:101FB000BF92CF92DF92EF92FF920F931F93DF9326
:101FC000CF9300D0CDB7DEB77C011982FC01A2818E
:101FD000B381ED91FC91119706A0F7A1E02DCD0101
:101FE000D70118966C915E010894A11CB11CA50143
:101FF00009958981823008F42FC11A82F701A281E4
:10200000B3817AE0C72ED12CCE0CDF1CED91FC9170
:10201000119762E0862E912C8C0E9D1E00A4F1A5D6
:10202000E02DCD01D70118966C9142E09601840114
:102030000995F7018285A281B3818F3F09F0EFC036
:10204000ED91FC91119706A0F7A1E02DCD01D701EC
:1020500018966C91A5010995298130E0F7018385D7
:1020600090E00297281739070CF05BC004E610E0F7
:10207000C501BA2CA92E4BC0D7011296ED91FC9147
:102080001397A081B18196962D913C919797CF019E
:10209000F70160854B2D5A2DF9010995F701A281B1
:1020A000B3810115110519F5ED91FC91119706A069
:1020B000F7A1E02DCD01D70118966C914B2D5A2D2B
:1020C0000995F701A281B381ED91FC91119700A4CC
:1020D000F1A5E02DCD01D70118966C9149819601AB
:1020E0008E010E5F1F4F09952FEF3FEFB7C0ED91A7
:1020F000FC911197E85AFF4F0190F081E02DCD013E
:1021000041E050E060E070E0099501501040298105
:1021100030E0F701838590E00297281739070CF427
:10212000ABCFD7011296ED91FC91139780819181ED
:102130001B964C9142509701245F3F4F52E0A52ED1
:10214000B12CAC0EBD1EDC0198968D909C90999799
:10215000CF01F70160858501F4010995C701B6013A
:102160000E94B111F701A281B3818823C9F1ED91D9
:10217000FC911197E058FF4F0190F081E02DCD01C7
:1021800061E0A60109958701065B1F4FC701B601F3
:10219000A8010E944D12F701A281B381ED91FC913B
:1021A0001197E058FF4F0190F081E02DCD0160E0E4
:1021B000A8010995F701A281B381ED91FC911197D6
:1021C00002A4F3A5E02DCD01D70118966C912BE464
:1021D00030E0E20EF31ED7014C91980109953CC006
:1021E000ED91FC91119706A0F7A1E02DCD01D7014B
:1021F00018966C91AE014F5F5F4F0995F701A28170
:10220000B381ED91FC91119700A4F1A5E02DCD01D2
:10221000D70118966C914981960185011CC0ED91FA
:10222000FC91119706A0F7A1E02DCD01D7011896DA
:102230006C91A5010995F701A281B381ED91FC9103
:10224000119700A4F1A5E02DCD01D70118966C914E
:10225000498196018401099520E030E0C9010F9081
:102260000F90CF91DF911F910F91FF90EF90DF9032
:10227000CF90BF90AF909F908F9008950F931F9332
:102280008C010E945A1182E094E0F80191838083CE
:1022900006551F4FF801118210820A5A1040F801AA
:1022A000178216821F910F91089580E495E00E9495
:1022B0003E110895FC0188E194E0918380831582AA
:1022C000148280E4818708958FEF9FEF08958FEF48
:1022D0009FEF08958FEF9FEF08958FEF9FEF089581
:1022E0008FEF9FEF08958FEF9FEF08958FEF9FEF90
:1022F0000895CF93DF93EC018C819D81843091050B
:1023000091F0853091051CF4892B39F024C085307B
:10231000910579F00697F9F416C0E881F9810190EA
:10232000F081E02D15C0E881F9810084F185E02D70
:102330000FC0E881F9810284F385E02DCE01099573
:102340001D821C820BC0E881F9810484F585E02D93
:10235000CE01099503C080E890E000C0DF91CF91E5
:102360000895DB0111966C911197462F50E0415072
:10237000504020E030E090E007C0FD01E20FF31F85
:102380008081980F2F5F3F4F24173507B4F320E06B
:10239000A60FB11D11978C91981709F421E0822F97
:1023A00008950F931F93FB01DA018FEF8C93822F17
:1023B0008A5F11968C931197828112968C93129753
:1023C000838113968C9313970F3F110509F020F426
:1023D00014960C93149704C083E014968C9314976E
:1023E00011968C911197682F70E06150704040E019
:1023F00050E090E007C0FD01E40FF51F8081980FC9
:102400004F5F5F4F46175707B4F3A20FB31F1596E0
:102410009C931F910F9108950F931F93890120E0C2
:1024200030E00E94D1111F910F910895BF92CF9279
:10243000DF92EF92FF920F931F93CF93DF93EC0104
:102440006B01142FB52EB901842F952F9C01D90152
:1024500020E030E0402F50E009C0FB01E20FF31F05
:10246000808114968C9314972F5F3F4F11962417F9
:1024700035079CF3CE01B601412F5B2D202F30E0B4
:1024800087010E94D111DF91CF911F910F91FF9091
:10249000EF90DF90CF90BF9008952F923F924F9290
:1024A0005F926F927F928F929F92AF92BF92CF92E4
:1024B000DF92EF92FF920F931F93DF93CF93CDB7ED
:1024C000DEB728970FB6F894DEBF0FBECDBF2C0144
:1024D0003B011A012DB73EB73E832D83DB011496D5
:1024E0009C91149780E015962C91E22FF0E0E82B58
:1024F000F92BBCEFE030FB07C0F01982EB5BFB4F20
:10250000EE0FFF1FE40DF51DDB0111968C916A5F44
:102510007F4F9A012B5F3F4F0190F081E02D875054
:10252000AE014F5F5F4F0995E7C7E232F10509F44D
:102530002DC5E332F10508F090C0E131F10509F451
:1025400035C1E231F10508F044C0E930F10509F484
:10255000D9C1EA30F105E0F4E430F10509F439C1FC
:10256000E530F10540F4309709F43AC2339711F0A1
:102570000C94AB1C20C1E630F10509F47EC1E630B5
:10258000F10508F447C1389711F00C94AB1CB0C1A9
:10259000ED30F10509F4D6C1EE30F10568F4EB3009
:1025A000F10509F4BFC1D20112960D911C91139748
:1025B0003C9708F0C1C1B0C1EF30F10509F4D2C1B8
:1025C000D20112960D911C911397709708F0D4C107
:1025D000C3C1E931F10509F43AC3EA31F10508F55F
:1025E000E531F10509F46AC2E631F10568F4E33139
:1025F000F10509F4FBC1D20112960D911C911397BC
:10260000749708F009C2BEC1E731F10509F4BBC2F5
:10261000D20112960D911C911397789708F0C1C2C0
:1026200087C2ED31F10509F4F2C3EE31F10540F452
:10263000EB31F10509F470C37C9708F07FC33DC30B
:10264000EF31F10509F42EC4EF31F10508F40DC4A2
:10265000B09711F00C94AB1C33C4E33CF10509F4C2
:1026600033C7E43CF10508F048C0E434F10509F44F
:10267000D6C5E534F105F0F4E532F10509F449C5B4
:10268000E632F10548F4E332F10509F4FDC4B497EC
:1026900011F00C94AB1C33C5E234F10509F45CC5B0
:1026A000E334F10508F078C5E134F10511F00C943C
:1026B000AB1C3DC5E338F10509F494C6E438F105D7
:1026C00070F4E136F10509F418C6E436F10509F4B1
:1026D00047C6E036F10511F00C94AB1CEBC5E13CAC
:1026E000F10509F4B6C6E23CF10508F0D2C6E03CBB
:1026F000F10511F00C94AB1C8CC6B1E0E030FB0787
:1027000009F4CEC721E0E130F20718F5E13EF1050A
:1027100009F426C7E23EF10570F4E53CF10509F441
:1027200007C7E53CF10508F4EAC6E03EF10511F003
:102730000C94AB1C09C7E33EF10509F46CC7E33EFA
:10274000F10508F44BC7E43EF10511F00C94AB1C05
:1027500096C731E0E730F30711F40C94D01B41E049
:10276000E830F40780F451E0E230F50709F4BBC724
:1027700081E0E230F80708F4A4C7E350F14011F01B
:102780000C94AB1CF5C7A1E0E134FA0711F40C94EA
:10279000141CB1E0E234FB0711F40C94901CE054DB
:1027A000F14011F00C94AB1C0C940B1CA4E0EA2E2D
:1027B000F12C0C94B41CD2011296ED91FC9113975C
:1027C0008281FA0185831296ED91FC9113978381A2
:1027D0001AC1D2011296ED91FC9113978781FA01EB
:1027E00085831296ED91FC9113978085DA011696F8
:1027F0008C93D2011296ED91FC9113978185FA0189
:102800008783C20123E030E000E010E00E94D11194
:102810000C94B21CD2011296ED91FC91139785A1F4
:1028200096A1A7A1B0A58B2F9927AA27BB27FA01AC
:102830008583D2011296ED91FC91139785A196A103
:10284000A7A1B0A5CD01AA27BB27FA018683D20193
:102850001296ED91FC91139785A196A1A7A1B0A521
:10286000892F9A2FAB2FBB27FA018783D2011296AB
:10287000ED91FC91139785A153C1DB0118963C9112
:10288000189720E0442737FD4095542F19968C91D6
:1028900090E0A0E0B0E0282B392B4A2B5B2B19826B
:1028A0001A821B821C82F201A281B381ED91FC91FC
:1028B000119704A0F5A1E02DCD01D20118966C91DD
:1028C0008E010F5F1F4F09957C01F201A281B38138
:1028D000ED91FC911197E85AFF4F0190F081E02DA6
:1028E000CD0148EE53E060E070E009950C94A41C23
:1028F000D2011296ED91FC91139723853485C20184
:10290000028510C4D2011296ED91FC911397268591
:102910003785C201058506C4F801228D338DC201B9
:10292000018D00C4D2011296ED91FC911397258D73
:10293000368DC201048DF6C3F80120A131A1C20178
:10294000078DF0C3D2011296ED91FC91139723A14C
:1029500034A1C20102A1E6C3F80122A533A5C20138
:1029600001A5E0C3D2011296ED91FC91139725A524
:1029700036A5C20104A5D6C3F80120A931A9C20118
:1029800007A5D0C3DB0116969C91169780E0179699
:102990002C91179730E0822B932BF80196AB85ABE7
:1029A0000190F081E02DE65AFF4F0190F081E02D7B
:1029B000C80160E070E016964C910995F201A28181
:1029C000B381ED91FC911197E65AFF4F0190F08190
:1029D000E02DCD0161E070E0D30117964C9109958F
:1029E000C201B301A10120E030E0BAC7D2011296C2
:1029F000ED91FC91139786A9FA0185831296ED91CA
:102A0000FC91139785A9D10116968C93C201B3014D
:102A1000A10122E030E0F8CEFB01818590E0308515
:102A200020E0822B932BAA2797FDA095BA2FF801BF
:102A300087AB90AFA1AFB2AF0190F081E02DE65A25
:102A4000FF4F0190F081E02DC80162E070E0D301FA
:102A500016964C910995F201A281B381ED91FC91FA
:102A60001197E65AFF4F0190F081E02DCD0163E010
:102A700070E0D30117964C910995F201A281B381C0
:102A8000ED91FC911197E65AFF4F0190F081E02DF6
:102A9000CD0164E070E0D30118964C910995F201E4
:102AA000A281B381ED91FC911197E65AFF4F0190FD
:102AB000F081E02DCD0165E070E0E2C2D201129616
:102AC000ED91FC91139787A990ADA1ADB2AD8B2F7D
:102AD0009927AA27BB27FA018583D2011296ED9187
:102AE000FC91139787A990ADA1ADB2ADCD01AA27F6
:102AF000BB27F1018683D2011296ED91FC911397C9
:102B000087A990ADA1ADB2AD892F9A2FAB2FBB276E
:102B1000F1018783D2011296ED91FC91139787A959
:102B2000F1018087C201B301A10124E030E06CCE45
:102B3000DB0116969C91169780E017962C911797BB
:102B400030E0822B932BF80194AF83AF0190F0819A
:102B5000E02DE65AFF4F0190F081E02DC80166E0BC
:102B600070E016964C910995F201A281B381ED9126
:102B7000FC911197E65AFF4F0190F081E02DCD01B5
:102B800067E070E029CFD2011296ED91FC91139786
:102B900084ADFA0185831296ED91FC91139783AD74
:102BA00032CF035C1F4FFB01818590E0308520E030
:102BB000822B932BAA2797FDA095BA2FF80180832B
:102BC0009183A283B3830D531040D801ED91FC9102
:102BD000E65AFF4F0190F081E02DC80168E070E0F7
:102BE000D30116964C910995F201A281B381ED9122
:102BF000FC911197E65AFF4F0190F081E02DCD0135
:102C000069E070E0D30117964C910995F201A28119
:102C1000B381ED91FC911197E65AFF4F0190F0813D
:102C2000E02DCD016AE070E0D30118964C91099532
:102C3000F201A281B381ED91FC911197E65AFF4F09
:102C40000190F081E02DCD016BE070E019C2D2015E
:102C50001296ED91FC911397FD9680819181A2814E
:102C6000B3818B2F9927AA27BB27FA018583D2012D
:102C70001296ED91FC911397FD9680819181A2812E
:102C8000B381CD01AA27BB27FA018683D201129610
:102C9000ED91FC911397FD9680819181A281B38182
:102CA000892F9A2FAB2FBB27FA018783D201129667
:102CB000ED91FC91139785AD33CFF201A281B381E1
:102CC000AF5BBF4FFB01968180E0278130E0822B14
:102CD000932B11969C938E93A154B040ED91FC914F
:102CE0001197E65AFF4F0190F081E02DCD016CE085
:102CF00070E0D30116964C910995F201A281B3813F
:102D0000ED91FC911197E65AFF4F0190F081E02D73
:102D1000CD016DE070E060CED2011296ED91FC9194
:102D20001397EF5BFF4F8181FA0185831296ED9136
:102D3000FC911397EF5BFF4F808165CEFB0186818D
:102D4000D20112960D911C9113978132B8F00D5B50
:102D50001F4F80E2F801808312960D90BC91A02D48
:102D6000ED91FC911197E65AFF4F0190F081E02D13
:102D7000CD016EE070E040E2099516C00D5B1F4F7B
:102D8000D8018C93D2011296ED91FC911397A081FA
:102D9000B181A65ABF4F2D913C91CF016EE070E0FA
:102DA000F3014681F9010995730100E010E01DC0AF
:102DB000E00FF11FEC5BFF4FD70116968C918083DB
:102DC000F201A281B381ED91FC911197E65AFF4F78
:102DD000015F1F4F0190F081E02DCD01B801D701B7
:102DE00016964C9109950E501040D2011296ED9115
:102DF000FC9113970894E11CF11CED5BFF4F80815F
:102E0000E354F04090E00817190794F2E9CDD2019D
:102E10001296ED91FC911397ED5BFF4F8081FA01C3
:102E20008583BA0140E050E00AC0E40FF51FEC5B77
:102E3000FF4F8081DB0115968C934F5F5F4FD2016E
:102E40001296ED91FC911397ED5BFF4F2081E354B7
:102E5000F0406F5F7F4F822F90E0481759072CF3A7
:102E6000C201B301A10130E0CFCCD2011296ED91A5
:102E7000FC911397EC59FF4FDB0116968C918083E0
:102E8000F201A281B381ED91FC911197E65AFF4FB7
:102E90000190F081E02DCD0160E370E0D301169642
:102EA0004C919DCDD2011296ED91FC911397EC5966
:102EB000FF4F8081FA018583C20121E030E0A4CC7C
:102EC000DB0116968C91F201028113818134A8F006
:102ED0000B591F4F80E4D8018C93A281B381ED91EF
:102EE000FC911197E65AFF4F0190F081E02DCD0142
:102EF00061E370E040E4099516C00B591F4FF801DB
:102F00008083D2011296ED91FC911397A081B1813B
:102F1000A65ABF4F2D913C91CF0161E370E0F301C0
:102F20004681F9010995730100E010E01DC0E00F32
:102F3000F11FEA59FF4FD70116968C918083F20159
:102F4000A281B381ED91FC911197E65AFF4F0E5C7F
:102F50001F4F0190F081E02DCD01B801D7011696E9
:102F60004C91099501531040D2011296ED91FC91BC
:102F700013970894E11CF11CEB59FF4F8081E55633
:102F8000F04090E00817190794F22ACDF20162810F
:102F900073816A557F4FD30116962C91169730E0B6
:102FA00040E050E0522F44273327222717968C9178
:102FB00090E0A0E0B0E0DC0199278827282B392B8E
:102FC0004A2B5B2BF301818590E0A0E0B0E0282B39
:102FD000392B4A2B5B2B808590E0A0E0B0E0BA2F24
:102FE000A92F982F8827282B392B4A2B5B2BDB0105
:102FF0002D933D934D935C931397665A7040DB017C
:10300000ED91FC91E65AFF4F0190F081E02DCB014C
:1030100062E770E0D30116964C910995F201A28106
:10302000B381ED91FC911197E65AFF4F0190F08129
:10303000E02DCD0163E770E0D30117964C9109951F
:10304000F201A281B381ED91FC911197E65AFF4FF5
:103050000190F081E02DCD0164E770E0D301189676
:103060004C910995F201A281B381ED91FC911197E8
:10307000E65AFF4F0190F081E02DCD0165E770E049
:10308000D30119964C91ABCCD2011296ED91FC91E3
:103090001397EA55FF4F80819181A281B3818B2FD5
:1030A0009927AA27BB27F1018583D2011296ED91BA
:1030B000FC911397EA55FF4F80819181A281B381E2
:1030C000CD01AA27BB27F1018683D2011296ED918B
:1030D000FC911397EA55FF4F80819181A281B381C2
:1030E000892F9A2FAB2FBB27F1018783D20112962C
:1030F000ED91FC911397EA55FF4F808111CDD201DC
:103100001296ED91FC91139725813681C2010481BD
:1031100009C0D2011296ED91FC91139723A934A90D
:10312000C20102A9EE24FF240E9416121DC4F2015E
:10313000A281B381FB016681ED91FC911197A301FE
:10314000495F5F4F262F30E0295F3F4F260D371D27
:103150000480F581E02D5AC1D2011296ED91FC91C7
:10316000139780819181DB0111966C916750A301C7
:103170004A5F5F4F91012B5F3F4FDC0116960D9127
:103180001C911797CF01F80109957C01F30121816A
:1031900030E02750304038C3D20112966D917C91B7
:1031A0001397DB01ED91FC91D30119963C9119978E
:1031B00020E0442737FD4095542F1A968C9190E0DB
:1031C000A0E0B0E0282B392B4A2B5B2BD3011B96B8
:1031D000EC901B97FF2400E010E01E2D0027FF2439
:1031E000EE241E968C9190E0A0E0B0E0E82AF92A47
:1031F0000A2B1B2BD3011D969C9180E0AA2797FDDB
:10320000A095BA2FE82AF92A0A2B1B2B0084F185F6
:10321000E02DCB01D30116966C91099594C3F20170
:1032200022813381D901ED91FC91DB011A96CC907A
:103230001A97DD24EE24FF24FC2CEE24DD24CC247C
:103240001B968C9190E0A0E0B0E0DC0199278827E4
:10325000C82AD92AEA2AFB2ADB011D968C9190E024
:10326000A0E0B0E0C82AD92AEA2AFB2ADB011C9692
:103270008C9190E0A0E0B0E0BA2FA92F982F88277A
:10328000C82AD92AEA2AFB2A0284F385E02DC9013B
:10329000DB0117966C91179718964C911897169614
:1032A0002C91169719960C915E010894A11CB11CE3
:1032B00009957DC1D20112966D917C911397DB0126
:1032C000ED91FC91D30119963C91199720E0442788
:1032D00037FD4095542F1A968C9190E0A0E0B0E015
:1032E000282B392B4A2B5B2B0280F381E02DCB015D
:1032F000D30116966C91099526C3D2011296ED91D1
:10330000FC91139785899689A789B08D8B2F992772
:10331000AA27BB27FA018583D2011296ED91FC9171
:10332000139785899689A789B08DCD01AA27BB27D8
:10333000FA018683D2011296ED91FC91139785894B
:103340009689A789B08D892F9A2FAB2FBB27F101C2
:103350008783D2011296ED91FC9113978589E0CB7A
:10336000D2011296ED91FC9113978089FA01858321
:103370001296ED91FC91139780819181DB0111965A
:103380006C916750A3014A5F5F4F91012A5F3F4FE5
:10339000DC010D911C91CF01F80109957C01F3012D
:1033A000218130E027503040D2011296ED91FC91FE
:1033B0001397808990E0FC012E9FC0012F9F900DF4
:1033C0003E9F900D11249C0143E0369527954A9528
:1033D000E1F787709070892B09F02F5F30E02F5F45
:1033E0003F4F12C2F201A281B381FB016681ED91D0
:1033F000FC911197A301495F5F4F262F30E0295FB1
:103400003F4F260D371D0484F585E02DCD0109952C
:103410009AC2DB0119963C91199720E0442737FDA9
:103420004095542F1A968C9190E0A0E0B0E0282BA4
:10343000392B4A2B5B2B19821A821B821C82F201C8
:10344000A281B381ED91FC91119702A0F3A1E02D2F
:10345000A6C0DB0119963C91199720E0442737FD5F
:103460004095542F1A968C9190E0A0E0B0E0282B64
:10347000392B4A2B5B2B19821A821B821C82F20188
:10348000A281B381ED91FC91119704A0F5A1E02DEB
:1034900086C0F201A281B381ED91FC91119706A043
:1034A000F7A1E02DCD01DB0116966C91AE014F5FC7
:1034B0005F4F09957C018981F1018583C201B301C8
:1034C000A10121E030E0A3C11982F201A281B38100
:1034D000ED91FC9111979A012B5F3F4F00A4F1A54C
:1034E000E02DCD01DB0116966C91169717964C9145
:1034F0008E010F5F1F4F09957C012981BBC0D2014E
:103500001296ED91FC91139780819181DB011196C8
:103510004C9148509B01295F3F4FDC019A960D91D9
:103520001C919B97CF01FB016681F80109950BC2A5
:10353000D2011296ED91FC911397A081B181A45B09
:10354000BF4F2D913C91A6C0D2011296ED91FC91F6
:103550001397A081B18158962D913C9159979AC0AB
:10356000DB0119963C91199720E0442737FD4095DF
:10357000542F1A968C9190E0A0E0B0E0282B392BC4
:103580004A2B5B2B19821A821B821C82F201A281B8
:10359000B381ED91FC911197028CF38DE02DCD015B
:1035A000D30116966C918E010F5F1F4F09957C0118
:1035B00089819A81AB81BC812B2F332744275527E2
:1035C000F10125839D01442755272683892F9A2FB2
:1035D000AB2FBB27878389818087DCC0D2011296FD
:1035E000ED91FC91139780819181DB0111960C91F3
:1035F0000A5079E0E72EF12CE60CF71CDC015C9612
:10360000CD90DC905D97CF01F301668147812085E5
:10361000F601099598C1D20112964D915C911397CC
:10362000FA0120813181DB011996FC911997E0E0C4
:103630001A968C9190E0E82BF92B65E0C62ED12CE0
:10364000C20CD31CD9015E96AD90BC905F97CA01A5
:10365000D30116966C91169717964C9117971B9657
:103660002C911B9718960C917F01F50109957C010F
:10367000F3012085C201B301A10130E0C8C0D2012D
:103680001296ED91FC911397A081B18190962D91A6
:103690003C919197CF01F3016681F901099553C1DE
:1036A000D2011296ED91FC911397A081B1811E96E3
:1036B0002D913C911F97CF01FB016681F90109957E
:1036C0008FC9D2011296ED91FC911397A081B1811F
:1036D00050962D913C915197CF01FB016681478116
:1036E000F90109957DC9DB0119963C91199720E0F4
:1036F000442737FD4095542F1A968C9190E0A0E016
:10370000B0E0282B392B4A2B5B2B19821A821B82A3
:103710001C82F201A281B381ED91FC911197048882
:10372000F589E02DCD01DB0116966C918E010F5FBE
:103730001F4F09957C0189819A81AB81BC812B2F18
:10374000332744275527F10125839D014427552719
:103750002683892F9A2FAB2FBB2787838981808768
:10376000C201B301A10124E030E000E010E050C04C
:10377000D2011296ED91FC911397A081B1815296DE
:103780002D913C915397CF01FB0166814781F9014F
:1037900009957C01C201B301A10124E030E037C0EA
:1037A000D2011296ED91FC911397DB0117964C9183
:1037B00017970081118111968C9190E00B97642FDF
:1037C00070E00E94D426262F7AE0C72ED12CC60C9A
:1037D000D71C65E0A62EB12CA20CB31CD8015696BE
:1037E0008D909C905797CF01F30166810085E1840D
:1037F000F40109957C01D30118962C91189717961E
:103800008C91289F90011124C201B301A10187016D
:103810000E94D111A9C0F20182819381DC01ED9156
:10382000FC91E25BFF4F84C0BDB7BF83EEB7E88772
:1038300056E0A52EB12CA60EB71EDB0116968C9174
:1038400090E09C01220F331FEDB7FEB7E21BF30B94
:103850000FB6F894FEBF0FBEEDBF2DB73EB72F5F7A
:103860003F4FFC013796E60FF71F49016901B90187
:1038700040E050E00DC0308120E0818190E0822B5B
:10388000932BDB018D939D93BD014F5F5F4F32966C
:10389000D5018C9190E0481759076CF3EE24FF2472
:1038A00015C0D801ED91FC91E258FF4FD6014D9122
:1038B0005D916D0160E070E00190F081E02DC80144
:1038C0002AE030E009950894E11CF11CF5016081C3
:1038D000862F90E0D20112960D911C911397E81655
:1038E000F906FCF2D801ED91FC91E05BFF4FA301DA
:1038F000495F5F4F0190F081E02DC8019401099567
:103900007C01C201B301A10197010E940C122F8119
:103910003885C9010FB6F8949EBF0FBE8DBF24C075
:10392000F20182819381DC01ED91FC91EE5AFF4F0F
:10393000D30111966C916750A3014A5F5F4F0190CC
:10394000F081E02D09957C01C201B301A10197012D
:103950000E940C1209C0C201B301A10121E030E0B4
:103960000E940C12EE24FF24C701ED81FE810FB6E8
:10397000F894FEBF0FBEEDBF28960FB6F894DEBFD9
:103980000FBECDBFCF91DF911F910F91FF90EF90B0
:10399000DF90CF90BF90AF909F908F907F906F906F
:1039A0005F904F903F902F9008951F920F920FB607
:1039B0000F9211242F933F938F939F93AF93BF93B5
:1039C0008091F0059091F105A091F205B091F30579
:1039D0003091F4050196A11DB11D232F2D5F2D37C8
:1039E00020F02D570196A11DB11D2093F405809361
:1039F000F0059093F105A093F205B093F305809143
:103A0000EC059091ED05A091EE05B091EF050196C2
:103A1000A11DB11D8093EC059093ED05A093EE05DB
:103A2000B093EF05BF91AF919F918F913F912F91EF
:103A30000F900FBE0F901F9018958FB7F89420919C
:103A4000F0053091F1054091F2055091F3058FBFDB
:103A5000B901CA0108959B01AC017FB7F894809128
:103A6000EC059091ED05A091EE05B091EF0566B5DE
:103A7000A89B05C06F3F19F00196A11DB11D7FBF26
:103A8000BA2FA92F982F8827860F911DA11DB11D30
:103A900062E0880F991FAA1FBB1F6A95D1F7BC016E
:103AA0002DC0FFB7F8948091EC059091ED05A091A1
:103AB000EE05B091EF05E6B5A89B05C0EF3F19F004
:103AC0000196A11DB11DFFBFBA2FA92F982F8827DE
:103AD0008E0F911DA11DB11DE2E0880F991FAA1F35
:103AE000BB1FEA95D1F7861B970B885E9340C8F2FF
:103AF000215030404040504068517C4F21153105E5
:103B00004105510571F60895789484B5826084BDAD
:103B100084B5816084BD85B5826085BD85B58160D1
:103B200085BDEEE6F0E0808181608083E1E8F0E031
:103B30001082808182608083808181608083E0E860
:103B4000F0E0808181608083E1EBF0E0808184603F
:103B50008083E0EBF0E0808181608083EAE7F0E041
:103B600080818460808380818260808380818160A5
:103B700080838081806880831092C1000895809343
:103B800099010895982F8E3008F09E50977080917B
:103B900099018295880F880F807C892B80937C0007
:103BA00080917A00806480937A0080917A0086FD0B
:103BB000FCCF2091780040917900942F80E030E094
:103BC000282B392BC90108951F93CF93DF93182F0A
:103BD000EB0161E00E94441E209709F44AC0CF3FE8
:103BE000D10509F449C0E12FF0E0E255FF4F84917F
:103BF0008330C1F0843028F4813051F08230B1F547
:103C00000CC0863019F1873049F1843079F514C041
:103C100084B5806884BDC7BD33C084B5806284BD6F
:103C2000C8BD2EC080918000806880938000D093B2
:103C30008900C093880024C08091800080628093B6
:103C40008000D0938B00C0938A001AC08091B0008E
:103C500080688093B000C093B30012C08091B00020
:103C600080628093B000C093B4000AC0C038D10510
:103C70001CF4812F60E002C0812F61E00E94831E4E
:103C8000DF91CF911F910895CF93DF93482F50E09C
:103C9000CA0186569F4FFC0134914A575F4FFA0183
:103CA0008491882369F190E0880F991FFC01E859FD
:103CB000FF4FA591B491FC01EE58FF4FC591D491EF
:103CC000662351F42FB7F8948C91932F9095892304
:103CD0008C93888189230BC0623061F42FB7F894EC
:103CE0008C91932F909589238C938881832B888343
:103CF0002FBF06C09FB7F8948C91832B8C939FBFE6
:103D0000DF91CF910895482F50E0CA0182559F4F0F
:103D1000FC012491CA0186569F4FFC0194914A5799
:103D20005F4FFA013491332309F440C0222351F14B
:103D3000233071F0243028F42130A1F0223011F525
:103D400014C02630B1F02730C1F02430D9F404C0BB
:103D5000809180008F7703C0809180008F7D809359
:103D6000800010C084B58F7702C084B58F7D84BD7C
:103D700009C08091B0008F7703C08091B0008F7D23
:103D80008093B000E32FF0E0EE0FFF1FEE58FF4FDF
:103D9000A591B4912FB7F894662321F48C91909556
:103DA000892302C08C91892B8C932FBF0895682F93
:103DB00070E0CB0182559F4FFC012491CB018656C8
:103DC0009F4FFC0144916A577F4FFB0194919923C7
:103DD00019F420E030E03CC0222351F1233071F08F
:103DE000243028F42130A1F0223011F514C02630FF
:103DF000B1F02730C1F02430D9F404C080918000A4
:103E00008F7703C0809180008F7D8093800010C0E9
:103E100084B58F7702C084B58F7D84BD09C0809141
:103E2000B0008F7703C08091B0008F7D8093B00089
:103E3000892F90E0880F991F84589F4FFC01A5910E
:103E4000B4918C9120E030E0842311F021E030E047
:103E5000C90108958F929F92AF92BF92CF92DF9245
:103E6000EF92FF920F931F93CF93DF93A82FB0E0B1
:103E7000CD0186569F4FFC018490AA57BF4FFD018C
:103E80008491662311F4992401C0982C6FEFA62E1B
:103E90006FEFB62E6FEFC62E6FE0D62EA222B322A2
:103EA000C422D522682F70E0660F771F64587F4FB9
:103EB000EE24FF248701FB01A591B4910BC0EA1405
:103EC000FB040C051D0509F44EC00894E11CF11C0F
:103ED000011D111D8C918821891589F30CC0EA14EC
:103EE000FB040C051D0509F43EC00894E11CF11CFF
:103EF000011D111D03C0FB01A591B4918C91882176
:103F0000891569F720E030E040E050E0FB01C59101
:103F1000D4910FC0DA01C9018E0D9F1DA01FB11FE2
:103F20008A159B05AC05BD05F1F02F5F3F4F4F4F44
:103F30005F4F88818821891569F3CA01B90125E19C
:103F400030E040E050E00E94A9269B01AC01205FD8
:103F50003F4F4F4F5F4F84E05695479537952795D4
:103F60008A95D1F704C020E030E040E050E0B9018C
:103F7000CA01DF91CF911F910F91FF90EF90DF90D9
:103F8000CF90BF90AF909F908F90089508951F920B
:103F90000F920FB60F9211242F933F934F938F934D
:103FA0009F93EF93FF938091C00082FD1DC04091CD
:103FB000C60020913506309136062F5F3F4F2F7394
:103FC000307080913706909138062817390771F0C4
:103FD000E0913506F0913606EB50FA4F408330936E
:103FE00036062093350602C08091C600FF91EF91FE
:103FF0009F918F914F913F912F910F900FBE0F90F6
:104000001F901895E0918906F0918A06E05CFF4FB9
:104010008191919120813181821B930B8F739070DC
:10402000892B11F00E94C61F08951F920F920FB6A0
:104030000F9211242F933F938F939F93EF93FF93AE
:104040002091790630917A0680917B0690917C06CA
:104050002817390731F48091C1008F7D8093C1000A
:1040600014C0E0917B06F0917C06E75CF94F20815B
:1040700080917B0690917C0601968F73907090934F
:104080007C0680937B062093C600FF91EF919F9161
:104090008F913F912F910F900FBE0F901F90189509
:1040A000AF92BF92DF92EF92FF920F931F93CF9345
:1040B000DF93EC017A018B01DD24403081EE58075B
:1040C00080E0680780E0780711F0DD24D39491E068
:1040D000A92EB12CEC89FD89DD2069F0C50108A06D
:1040E00002C0880F991F0A94E2F7808360E079E0AC
:1040F0008DE390E005C0108260E874E88EE190E006
:10410000A80197010E94E7262150304040405040CE
:10411000569547953795279580E12030380720F050
:10412000DD2011F0DD24D6CFE889F9893083EA89D2
:10413000FB89208319A2EE89FF89408121E030E0CC
:10414000C9010C8C02C0880F991F0A94E2F7482B12
:104150004083EE89FF894081C9010D8C02C0880F20
:10416000991F0A94E2F7482B4083EE89FF8940812A
:10417000C9010E8C02C0880F991F0A94E2F7482BE0
:104180004083EE89FF8980810F8C02C0220F331F8C
:104190000A94E2F7209528232083DF91CF911F9185
:1041A0000F91FF90EF90DF90BF90AF900895CF9365
:1041B000DF93DC011E968D919C911F97EC01C05CF2
:1041C000DF4FFC01EE5BFF4F2881398180819181B7
:1041D00028173907C9F75696ED91FC9157974081FA
:1041E00021E030E0C9015C960C905C9702C0880F1A
:1041F000991F0A94E2F78095842380835696ED9167
:10420000FC9157974081C9015D960C905D9702C063
:10421000880F991F0A94E2F780958423808356962D
:10422000ED91FC9157974081C9015E960C905E9785
:1042300002C0880F991F0A94E2F780958423808337
:104240005696ED91FC91579780815F960C905F9701
:1042500002C0220F331F0A94E2F7209528232083FF
:104260001C96ED91FC911D97EE5BFF4F8081918133
:1042700092938293DF91CF910895DC011C96ED918A
:10428000FC911D97E05CFF4F2191319180819181DC
:10429000281B390B2F733070C9010895DC011C965F
:1042A000ED91FC911D97E05CFF4F20813181E0543E
:1042B000F040DF01AE5BBF4F8D919C9111972817A5
:1042C000390719F42FEF3FEF07C08D919C91E80F4C
:1042D000F91F8081282F30E0C9010895DC011C9668
:1042E000ED91FC911D97E05CFF4F20813181E054FE
:1042F000F040DF01AE5BBF4F8D919C911197281765
:10430000390719F42FEF3FEF10C08D919C91119751
:10431000E80FF91F20818D919C91119701968F7361
:10432000907011969C938E9330E0C9010895DC0142
:1043300091968C919197882339F05496ED91FC9148
:104340005597808186FFF9CF91961C920895CF935F
:10435000DF93EC01EE85FF85E05CFF4F208131812A
:10436000E054F0402F5F3F4F2F733070DF01AE5BA2
:10437000BF4F8D919C91119728173907D1F3E05CBD
:10438000FF4F80819181E054F040E80FF91F608376
:10439000EE85FF85E05CFF4F31832083EE89FF8946
:1043A000208181E090E00F8C02C0880F991F0A9451
:1043B000E2F7282B208381E089A3EC89FD898081A5
:1043C0008064808381E090E0DF91CF910895109226
:1043D000800610927F0688EE93E0A0E0B0E0809324
:1043E000810690938206A0938306B09384068CE2A4
:1043F00094E090937E0680937D0685EF95E0909300
:104400008A068093890689E396E090938C068093D0
:104410008B0685EC90E090938E0680938D0684EC5D
:1044200090E09093900680938F0680EC90E09093BC
:1044300092068093910681EC90E09093940680938D
:10444000930682EC90E0909396068093950686EC16
:1044500090E0909398068093970684E08093990665
:1044600083E080939A0687E080939B0685E08093A3
:104470009C0681E080939D060895CF93DF930E9470
:10448000841D0E949400C2E0D0E20E948F00209719
:10449000E1F30E940220F9CF08950E947425089547
:1044A000CF92DF92EF92FF920F931F93CF93DF9300
:1044B0007C016B018A01C0E0D0E00FC0D6016D9194
:1044C0006D01D701ED91FC910190F081E02DC701C4
:1044D0000995C80FD91F015010400115110571F73A
:1044E000CE01DF91CF911F910F91FF90EF90DF9060
:1044F000CF900895CF93DF93EC010E941D1D688734
:1045000079878A879B87E881F9810680F781E02D8A
:10451000CE0109959C0197FF15C00E941D1D28859D
:1045200039854A855B85621B730B840B950B2C8147
:104530003D814E815F81621773078407950718F3E9
:104540002FEF3FEFC901DF91CF910895CF92DF9216
:10455000EF92FF920F931F93CF93DF936C018B0128
:104560007A01C0E0D0E009C0C6010E947A2297FD1E
:1045700007C0F80181938F012196CE15DF05A0F3C6
:10458000CE01DF91CF911F910F91FF90EF90DF90BF
:10459000CF900895813041F0813018F08230D1F40D
:1045A00009C010926E00089580916F008D7F8093F6
:1045B0006F000895809170008D7F8093700081E07E
:1045C0008093B0008091B100887F84608093B100B7
:1045D0001092B30008951F93182F80919A018117AC
:1045E00011F09FEF06C0E2ECF0E094918FEF809322
:1045F0009A01892F0E94CA22812F60E00E94831EA7
:104600001F9108951F920F920FB60F9211242F93AE
:104610003F934F935F936F937F938F939F93AF934A
:10462000BF93EF93FF938091AD069091AE06A0915A
:10463000AF06B091B0060097A105B10551F1E09128
:10464000B106F091B20680819091B30689278083EC
:104650008091AD069091AE06A091AF06B091B006E4
:10466000181619061A061B06C4F48091AD0690911F
:10467000AE06A091AF06B091B0060197A109B109AD
:104680008093AD069093AE06A093AF06B093B006AC
:1046900004C080919A010E94EB22FF91EF91BF919B
:1046A000AF919F918F917F916F915F914F913F91CA
:1046B0002F910F900FBE0F901F9018952F923F9241
:1046C0005F926F927F928F929F92AF92BF92CF92A2
:1046D000DF92EF92FF920F931F93DF93CF9300D05F
:1046E00000D0CDB7DEB7A82F1B0129833A834B83B7
:1046F0005C8380919A018A1721F4E2ECF0E05490F7
:1047000082C08F3F09F0DAC1A0939A01E2ECF0E099
:1047100054902FEF521609F4D1C181E0581639F1A7
:1047200092E0591609F449C0552009F06CC014BC38
:1047300015BC84B5826084BD85B5816085BD2A2F96
:1047400030E0F901EA57FF4FE491F0E0EE0FFF1F70
:10475000EE58FF4F859194919093A4068093A30601
:1047600026563F4FF90184918093A5064EC01092C2
:104770008000109281008091810088608093810088
:10478000809181008160809381002A2F30E0F901BF
:10479000EA57FF4FE491F0E0EE0FFF1FEE58FF4F96
:1047A000859194919093AB068093AA0626563F4F2D
:1047B000F90184918093AC0628C01092B000109249
:1047C000B1008091B00082608093B0008091B10010
:1047D00081608093B1002A2F30E0F901EA57FF4F42
:1047E000E491F0E0EE0FFF1FEE58FF4F859194919A
:1047F0009093B2068093B10626563F4FF9018491FB
:104800008093B30602C057FC59C18A2F61E00E9411
:10481000441E552021F0F2E05F1609F0BEC03101C0
:104820008824992460E072E18AE790E0A401930172
:104830000E94092759016A01860175010894E1085F
:10484000F108010911092FEFE216F1040105110524
:1048500009F008F499C060E472E48FE090E0A401EC
:1048600093010E94092779018A010894E108F1085F
:104870000109110982E05816C1F49FEFE916F1040D
:104880000105110509F008F484C060E970ED83E0CA
:1048900090E0A40193010E94092779018A010894FC
:1048A000E108F1080109110983E0AFEFEA16F1040C
:1048B0000105110509F008F468C068E478EE81E0AC
:1048C00090E0A40193010E94092779018A010894CC
:1048D000E108F10801091109552011F483E01DC018
:1048E000B2E05B1611F084E018C0EFEFEE16F104B1
:1048F0000105110509F008F4DFC064E274EF80E0FF
:1049000090E0A40193010E94092779018A0108948B
:10491000E108F1080109110985E0FFEFEF16F10444
:104920000105110591F188F162E17AE780E090E0FC
:10493000A40193010E94092779018A010894E108E2
:10494000F10801091109552011F086E001C084E049
:104950002FEFE216F10401051105B9F0B0F0C60120
:10496000B50120E034E040E050E00E9409277901E1
:104970008A010894E108F10801091109552011F094
:1049800087E008C085E003C081E0552019F485BDAB
:104990003AC082E08093B10036C05101CC24DD24BE
:1049A00060E072E18AE790E0A60195010E94092784
:1049B00079018A010894E108F1080109110980E0F0
:1049C000E81680E0F80681E0080780E0180710F498
:1049D00091E010C068E478EE81E090E0A6019501D6
:1049E0000E94092779018A010894E108F108010968
:1049F000110993E0A1E05A1631F480918100887F7B
:104A0000982B9093810089819A81AB81BC8100971A
:104A1000A105B10529F48FEF9FEFAFEFBFEF13C0F2
:104A2000220C331CB10180E090E029813A814B8156
:104A30005C810E94A92628EE33E040E050E00E940D
:104A4000E726C901DA01E1E05E16A1F0F2E05F16A7
:104A500019F1552099F5E7BC80939F069093A00625
:104A6000A093A106B093A20680916E00826080930D
:104A70006E0024C0F0928900E09288008093A60620
:104A80009093A706A093A806B093A90680916F0003
:104A9000826080936F0012C0E092B3008093AD06F5
:104AA0009093AE06A093AF06B093B00680917000CD
:104AB00082608093700002C084E06CCF0F900F90F2
:104AC0000F900F90CF91DF911F910F91FF90EF907A
:104AD000DF90CF90BF90AF909F908F907F906F901E
:104AE0005F903F902F9008950F931F93CF93DF9384
:104AF000BC018230910510F462E070E0E091B606EE
:104B0000F091B70640E050E0A0E0B0E024C0808122
:104B1000918186179707D0F08617970771F48281E5
:104B20009381109729F013969C938E9312972CC023
:104B30009093B7068093B60627C04115510519F02A
:104B40008417950718F48D01AC01EF01DF01828114
:104B500093819C01F9013097D1F641155105F9F087
:104B6000CA01861B970B8430910580F48A819B8152
:104B70000115110521F0F8019383828304C09093FD
:104B8000B7068093B606FE01329645C0FE01E80FD7
:104B9000F91F619371930297998388833CC0809138
:104BA000B4069091B506892B41F480919D019091B6
:104BB0009E019093B5068093B40640919F01509159
:104BC000A0014115510541F44DB75EB780919B019D
:104BD00090919C01481B590B2091B4063091B50669
:104BE00024173507B0F4CA01821B930B8617970769
:104BF00080F0AB014E5F5F4F8417950750F0420F76
:104C0000531F5093B5064093B406F9016193719315
:104C100002C0E0E0F0E0CF01DF91CF911F910F9152
:104C20000895CF93DF939C01009709F48FC0EC01A6
:104C300022971B821A826091B6067091B7066115A1
:104C4000710581F488819981820F931F2091B406A8
:104C50003091B5062817390739F5D093B506C093BA
:104C6000B40674C0DB0140E050E0AC17BD0708F1AA
:104C7000BB83AA83FE0121913191E20FF31FAE178E
:104C8000BF0779F48D919C911197280F391F2E5FE2
:104C90003F4F3983288312968D919C9113979B8364
:104CA0008A834115510571F4D093B706C093B606B7
:104CB0004DC012968D919C911397AD01009711F004
:104CC000DC01D3CFDA011396DC93CE931297FA016D
:104CD00021913191E20FF31FCE17DF0769F488812C
:104CE0009981280F391F2E5F3F4FFA0131832083AE
:104CF0008A819B8193838283E0E0F0E0DB0112965E
:104D00008D919C911397009719F0BC01FD01F6CF8E
:104D1000AB014E5F5F4FDB018D919C91840F951F1E
:104D20002091B4063091B5062817390779F43097E9
:104D300029F41092B7061092B60602C013821282AE
:104D4000425050405093B5064093B406DF91CF9146
:104D50000895629FD001739FF001829FE00DF11DC5
:104D6000649FE00DF11D929FF00D839FF00D749FE5
:104D7000F00D659FF00D9927729FB00DE11DF91F91
:104D8000639FB00DE11DF91FBD01CF0111240895EE
:104D9000991B79E004C0991F961708F0961B881F8D
:104DA0007A95C9F78095089597FB092E07260AD0B2
:104DB00077FD04D049D006D000201AF47095619593
:104DC0007F4F0895F6F7909581959F4F0895A1E242
:104DD0001A2EAA1BBB1BFD010DC0AA1FBB1FEE1F75
:104DE000FF1FA217B307E407F50720F0A21BB30BC0
:104DF000E40BF50B661F771F881F991F1A9469F73C
:104E000060957095809590959B01AC01BD01CF0197
:104E1000089597FB092E05260ED057FD04D0D7DF45
:104E20000AD0001C38F450954095309521953F4F9D
:104E30004F4F5F4F0895F6F7909580957095619567
:104E40007F4F8F4F9F4F0895AA1BBB1B51E107C097
:104E5000AA1FBB1FA617B70710F0A61BB70B881F0A
:104E6000991F5A95A9F780959095BC01CD01089599
:104E7000EE0FFF1F0590F491E02D0994F894FFCFF9
:104E8000446562756767696E6720456E61626C652F
:104E90006400536572766F2000203A2000437265EB
:104EA00061746564204E657720536572766F204F7C
:104EB0006E204368616E6E656C200000127A0000FF
:104EC000093D0080841E0040420F0020A107009091
:104ED000D0030048E80100040000000500010006BE
:104EE00000020003002C01000058020000B0040082
:104EF0000060090000C0120000802500004038005A
:104F000000004B000080700000127A000000960044
:104F10000000E1000000C2010001FF8000B80600AF
:104F2000000000000064013301EC00F5000A011BE1
:104F30000141726475696E6F20556E6F0000010249
:104F4000030405E0C8100003000001020304050685
:104F50000708090A0B0C0D030506090A0B000000DF
:104F60000000D20E4C0E9C0C020ECB0D5F0D2D0DD1
:104F7000280D220D1C0DD70C440C2F0C5209010CCE
:104F80009F0B5509230B5809140BF50AEA0A5A0717
:104F90003E07290762076F077A07AB07B807DA07EA
:104FA000F5070E0827084008590872088B08E10A1F
:104FB000550ACC098D099C0B910B5A0D8809830960
:104FC000F306A808A908AA08AB08AC08AD08AE0803
:104FD000AF08B008B108B208B308B408B508B608FD
:104FE000B7082807B80800000000D20E4C0E9C0C31
:104FF000020ECB0D5F0D2D0D280D220D1C0DD70CB3
:10500000440C2F0C5209010C9F0B5509230B580916
:10501000140BF50AEA0A5A073E07290762076F07C9
:105020007A07AB07B807DA07F5070E082708400824
:10503000590872088B08E10A550ACC098D099C0BA6
:10504000910B5A0D88098309F306A808A908AA0834
:10505000AB08AC08AD08AE08AF08B008B108B2089C
:10506000B308B408B508B608B7082807B8080000A0
:1050700000004C224C224C224C224C224C224C222E
:105080004C224C224C224C224C224C224C224C22B0
:105090004C224C224C224C224C224C224C225A07AD
:1050A0003E07290762076F077A07AB07B807DA07D9
:1050B000F5070E0827084008590872088B084C228B
:1050C0004C224C224C224C224C2227074C224C22B0
:1050D000F306A808A908AA08AB08AC08AD08AE08F2
:1050E000AF08B008B108B208B308B408B508B608EC
:1050F000B7082807B80800000000D20E4C0E9C0C20
:10510000020ECB0D5F0D2D0D280D220D1C0DD70CA1
:10511000440C2F0C5209010C9F0B5509230B580905
:10512000140BF50AEA0A5A073E07290762076F07B8
:105130007A07AB07B807DA07F5070E082708400813
:10514000590872088B08E10A550ACC098D099C0B95
:10515000910B5A0D88098309F306A808A908AA0823
:10516000AB08AC08AD08AE08AF08B008B108B2088B
:10517000B308B408B508B608B7082807B80800008F
:105180000000641167116A116D11D50F9C0F9F0FFC
:10519000A20F650F00000000641167116A116D1104
:1051A000701173117611791100000000A7215022AF
:0851B0003D216E214E219721E3
:00000001FF
