:100000000C9477010C949F010C949F010C949F0118
:100010000C949F010C949F010C949F010C949F01E0
:100020000C949F010C949F010C94D9270C94602888
:100030000C949F010C949F010C949F010C949F01C0
:100040000C949F010C943C060C949F010C949F010E
:100050000C949F010C949F010C949F010C943B1EE7
:100060000C949F010C949F010C949F010C949F0190
:100070000C949F010C949F010C949F010C949F0180
:100080000C947C230C949F010C949F010C949F0171
:100090000C946B030C949F010C949F010C949F0192
:1000A0000C949F010C949F010C949F010000000090
:1000B000240027002A002D00300000000000250049
:1000C00028002B002E003100000000002300260035
:1000D00029002C002F000404040404030405020278
:1000E00002020403020202020606060606060404D1
:1000F00002020204040802011040804010204080E7
:10010000408008020401804020100201108010206D
:1001100040400000000200080E0000030401000B34
:1001200000000000000000000000000000000000CF
:10013000070605040100080A0B0C0D09080B000254
:10014000020201000904000001020200000524006F
:100150001001052401010104240206052406000102
:100160000705810310004009040100020A00000095
:100170000705020240000007058302400000030457
:100180000309042203410072006400750069006ED7
:10019000006F0020004C0065006F006E006100726F
:1001A0000064006F0018034100720064007500696C
:1001B000006E006F0020004C004C00430012010054
:1001C00002000000404123368000010102000112BC
:1001D00001000202000040412336800001010200BC
:1001E0000100C18081C105010902A1010901A1002D
:1001F00085010509190129031500250195037501DC
:10020000810295017505810305010930093109381D
:100210001581257F750895038106C0C00501090673
:10022000A1018502050719E029E7150025017501DF
:1002300095088102950175088103950675081500DA
:1002400025650507190029658100C0090402000120
:100250000300000009210101000122650007058457
:100260000340000100000000000000002A2B2800CD
:10027000000000000000000000000000000000007E
:10028000000000002C9EB4A0A1A2A434A6A7A5AE95
:10029000362D3738271E1F20212223242526B3334D
:1002A000B62EB7B89F8485868788898A8B8C8D8E79
:1002B0008F909192939495969798999A9B9C9D2F45
:1002C0003130A3AD350405060708090A0B0C0D0EE5
:1002D0000F101112131415161718191A1B1C1DAF25
:1002E000B1B0B5000F029B12F8211527182B11246D
:1002F0001FBECFEFDAE0DEBFCDBF14E0A0E0B1E07B
:10030000E0E7F9E502C005900D92AE35B107D9F7E7
:1003100017E0AEE5B4E001C01D92AB32B107E1F7E2
:1003200012E0CEEED2E004C02297FE010E94B22C71
:10033000C43ED107C9F70E94C3220C94B62C0C947A
:1003400000008EE695E00E94E81008950F931F9339
:1003500083EC90E00E94D722182F092F0E94FA0602
:1003600010935E0400935F048EE695E0612F702F7A
:1003700040E00E94AB101F910F91089581E161E070
:100380000E94AD2081E161E00E9420208CB5806157
:100390008CBD8CB580648CBD8FE061E00E94202014
:1003A00080E161E00E942020089581E08093A5040F
:1003B000609382041092A3041092A40408952091E3
:1003C000810430E080918004281B3109C90108951F
:1003D0004091800480918104481718F02FEF3FEF7F
:1003E0000AC0E42FF0E0E05AFB4F8081282F30E074
:1003F0004F5F40938004C9010895E091800480918B
:100400008104E81718F0EFEFFFEF06C0F0E0E05AC4
:10041000FB4F8081E82FF0E0CF01089508951092FE
:10042000A9041092A80488EE93E0A0E0B0E08093C5
:10043000AA049093AB04A093AC04B093AD048FEAEC
:1004400091E09093A7048093A6040895CF92DF9241
:10045000EF92FF920F931F93CF93DF937C016B0179
:100460008A018091A5048823A1F0C0E0D0E00DC0EE
:10047000D701ED91FC91D601AC0FBD1F0190F08129
:10048000E02DC7016C9109952196C017D10780F323
:1004900004C0CB01642F0E945003C801DF91CF91AB
:1004A0001F910F91FF90EF90DF90CF900895DF9311
:1004B000CF930F92CDB7DEB7FC0169838091A5047D
:1004C0008823C9F08091A404803238F081E090E064
:1004D0009383828320E030E015C08091A304E82F4D
:1004E000F0E0ED57FB4F998190838F5F8093A304D9
:1004F0008093A40405C0CE01019661E00E945003E0
:1005000021E030E0C9010F90CF91DF9108950F9362
:10051000062F8091820463E874E04091A40421E0F6
:100520000E94FB021092A3041092A4041092A5044E
:100530000F910895413208F040E2862F60E674E0A2
:100540000E94B20210928004809381040895109258
:100550008004109281041092A3041092A4040E94BB
:10056000FC040895382F413210F040E042C08091E1
:10057000B2048823E1F791E09093B2042093B4048D
:100580008FEF80931F051092DA0441504093DB04F3
:100590004F5F9093B3048091B304330F832B809308
:1005A000B3048091B504813041F41092B504809178
:1005B000B3048093BB0085EC01C085EE8093BC0042
:1005C0008091B2048130E1F38091DA04841710F451
:1005D0004091DA0420E030E00AC0FB01E20FF31F93
:1005E000D901A654BB4F8C9180832F5F3F4F2417B6
:1005F000A0F3842F08950F931F93582F122F413289
:1006000010F081E04AC08091B2048823E1F782E0D3
:100610008093B2040093B4048FEF80931F0510926F
:10062000DA044093DB04AAEBB4E0FB0102C0819141
:100630008D938E2F861B8417D0F31092B304809174
:10064000B304550F852B8093B3048091B50481309A
:1006500041F41092B5048091B3048093BB0085EC03
:1006600001C085EE8093BC00112321F08091B2047B
:100670008230E1F380911F058F3F11F480E00DC0BF
:1006800080911F05803211F482E007C080911F0520
:10069000803311F084E001C083E01F910F91089531
:1006A000482F613210F081E008958091B2048430C7
:1006B00011F082E008956093FD04ACEDB4E0842F66
:1006C0009C01F90102C081918D938E2F841B8617A6
:1006D000D0F380E008951F920F920FB60F9211246D
:1006E0002F933F934F935F936F937F938F939F933A
:1006F000AF93BF93EF93FF938091B90090E0887F11
:1007000090708036910509F4F2C081369105CCF5E0
:100710008832910509F47BC089329105B4F48031A7
:10072000910509F46FC0813191053CF4009709F4FB
:1007300047C1089709F04FC165C08831910509F498
:1007400066C0809709F047C182C08034910509F4E2
:10075000A4C08134910544F48033910509F482C02A
:10076000C89709F038C189C08035910509F489C05E
:100770008835910509F496C08834910509F02BC19C
:10078000AEC08839910509F413C189399105ECF49B
:100790008837910509F4ABC0893791054CF4883648
:1007A000910509F4A4C08037910509F014C19FC0D8
:1007B0008838910509F4FCC08039910509F49DC081
:1007C0008038910509F007C198C0803B910509F474
:1007D000C6C0813B91054CF4803A910509F49FC055
:1007E000883A910509F0F7C0BAC0803C910509F438
:1007F000E3C0883C910509F4DFC0883B910509F00E
:10080000EAC0C2C08091B3048093BB00CFC0909176
:10081000DA048091DB04981768F49091DA04E92FE8
:10082000F0E0E654FB4F80818093BB009F5F909384
:10083000DA04BCC08091B404882309F44BC085ED70
:100840008093BC008091BC0084FDFCCFC2C080E2DC
:1008500080931F0585ED8093BC008091BC0084FDD2
:10086000FCCFB7C080E380931F0585ED8093BC006B
:100870008091BC0084FDFCCFACC088E380931F0551
:100880009BC08091DA049091BB00E82FF0E0E65421
:10089000FB4F90838F5F8093DA049091DA0480910C
:1008A000DB0482C08091DA049091BB00E82FF0E075
:1008B000E654FB4F90838F5F8093DA048091B404F9
:1008C000882341F085ED8093BC008091BC0084FDBD
:1008D000FCCF7FC081E08093B50484EA6EC085EDD3
:1008E0008093BC008091BC0084FDFCCF72C083E08B
:1008F0008093B20410921E0559C080911E0580326B
:1009000008F056C080911E059091BB00E82FF0E0E2
:10091000E250FB4F90838F5F80931E0547C080910C
:100920001E05803230F4E0911E05F0E0E250FB4FEE
:10093000108285ED8093BC008091BC0084FDFCCFCB
:100940001092B20460911E05E091B804F091B904D0
:100950008EEF94E070E0099510921E052DC084E0A2
:100960008093B2041092FC041092FD04E091B6044E
:10097000F091B70409958091FD04882329F481E062
:100980008093FD041092DC049091FC04E92FF0E0C8
:10099000E452FB4F80818093BB009F5F9093FC04E7
:1009A0009091FC048091FD04981710F485EC01C02F
:1009B00085E88093BC000FC085EC8093BC0009C023
:1009C00010921F0585ED8093BC008091BC0084FDD2
:1009D000FCCF1092B204FF91EF91BF91AF919F9124
:1009E0008F917F916F915F914F913F912F910F90D8
:1009F0000FBE0F901F9018951092B20481E0809363
:100A0000B4041092B50482E061E00E94AD2083E05E
:100A100061E00E94AD20E9EBF0E080818E7F808371
:100A200080818D7F808388E48093B80085E4809303
:100A3000BC000895F999FECF72BD61BDF89A80B5EA
:100A40000895F999FECF1FBA72BD61BD40BD0FB6C2
:100A5000F894FA9AF99A0FBE0895FC018091210545
:100A60008C3090F482838F5F80932105815090E0D9
:100A7000FC01EE0FFF1FE80FF91FEE5DFA4F88EB48
:100A80009BE09283818308958FEF82830895DC0138
:100A900012968C91129790E0FC01EE0FFF1FE80F69
:100AA000F91FEE5DFA4F80818F7B808312968C91C7
:100AB0006CE00E94402C90E0AC01440F551F480FA1
:100AC000591F440F551F440F551F20E030E0C90146
:100AD000840F951FFC01EE0FFF1FE80FF91FEE5D5D
:100AE000FA4F808186FD05C02F5F3F4F2C303105C6
:100AF00071F70895FC0122812C30B8F58081992787
:100B000087FD909548E850E0481B590B440F551F4E
:100B1000440F551F6417750784F08181992787FD5D
:100B2000909548E552E0481B590B440F551F440F60
:100B3000551F641775070CF4AB0142505040CA01B1
:100B4000AA2797FDA095BA2F880F991FAA1FBB1F30
:100B50004FB7F89430E0F901EE0FFF1FE20FF31FDB
:100B6000EE5DFA4F928381834FBF0895CF92DF925B
:100B7000EF92FF921F93CF93DF93EC01162F7A0130
:100B800069018A818C3008F064C0862F61E00E9480
:100B900020208A8190E0FC01EE0FFF1FE80FF91F73
:100BA000EE5DFA4F1F738081807C812B808380E211
:100BB00092E08E199F0964E070E00E944C2C6883DB
:100BC00080E699E08C199D0964E070E00E944C2C4D
:100BD0006983AA818A2F6CE00E94402C682F70E004
:100BE000AB01440F551F460F571F440F551F440FAD
:100BF000551F20E030E0C901840F951FFC01EE0F66
:100C0000FF1FE80FF91FEE5DFA4F808186FD15C0CA
:100C10002F5F3F4F2C30310571F724C010928000B8
:100C200082E0809381001092850010928400B19A36
:100C300080916F00826080936F008A2F90E0FC01AA
:100C4000EE0FFF1FE80FF91FEE5DFA4F8081806401
:100C500080838A81DF91CF911F91FF90EF90DF9089
:100C6000CF900895672BD1F2E8CF40E252E020E622
:100C700039E00E94B60508951F920F920FB60F92A9
:100C800011242F933F934F935F936F937F938F9391
:100C90009F93AF93BF93EF93FF938091460587FF98
:100CA00005C010928500109284002BC0209146054B
:100CB000332727FD30958091210590E028173907CB
:100CC00004F580914605992787FD9095FC01EE0F6C
:100CD000FF1FE80FF91FEE5DFA4F808186FF11C0FC
:100CE00080914605992787FD9095FC01EE0FFF1F27
:100CF000E80FF91FEE5DFA4F80818F7360E00E946C
:100D0000AD20809146058F5F809346052091460572
:100D1000332727FD30958091210590E0281739076A
:100D20000CF04EC0809146058C300CF049C02091EB
:100D300084003091850080914605992787FD909524
:100D4000FC01EE0FFF1FE80FF91FEE5DFA4F8181E6
:100D50009281280F391F3093890020938800809159
:100D60004605992787FD9095FC01EE0FFF1FE80FC0
:100D7000F91FEE5DFA4F808186FF2BC080914605FA
:100D8000992787FD9095FC01EE0FFF1FE80FF91FD3
:100D9000EE5DFA4F80818F7361E00E94AD2019C033
:100DA00080E49CE905C080918400909185000496C0
:100DB00090938900809388008FEF8093460509C047
:100DC0008091840090918500049680549C4940F362
:100DD000EACFFF91EF91BF91AF919F918F917F915A
:100DE0006F915F914F913F912F910F900FBE0F9098
:100DF0001F9018950F931F93CF93DF938C010E9440
:100E0000CE0788EF91E0D80111969C938E9329E04C
:100E100013962C93139772E114967C9314978BEB93
:100E200091E016969C938E93159761E017966C93BC
:100E3000179782E018968C93189719961C92199719
:100E40001A967C931A97ECEDF1E01C96FC93EE93C6
:100E50001B971D962C931D978DEC91E01F969C93EC
:100E60008E931E978AE050968C93509720E43BE433
:100E70004CE450E0E801298B3A8B4B8B5C8B559608
:100E80002D933D934D935C93589703551F4F8AEDD7
:100E900091E0E8019983888303501040D8016D9355
:100EA0008D0186ED91E08D939C930C5F1F4FE801BF
:100EB00019921992199219928E01288339834A83C3
:100EC0005B83035B1040E801198E1B8E1A8E85E050
:100ED0008C8F8EEE91E09E8F8D8F1F8E19A218A29F
:100EE0006AA389E495E09CA38BA3809195019091DE
:100EF0009601A0919701B09198018DA39EA3AFA3F5
:100F0000B8A709541F4F8DE0D8018D938D0185E658
:100F100091E08D939C93085B1040E80169A787E4FA
:100F200095E09BA78AA701541F4F88E495E0D8015C
:100F30008D939C930F5B1040E8016CA783EF91E0C9
:100F40009EA78DA706541F4F87E0D8018D938BE392
:100F500091E0ED01899399938E0187E591E0998362
:100F600088830D5B1040D8019F961C929F97D19665
:100F70001C921E92D097D2967C93D297D496FC93D3
:100F8000EE93D3970F531F4F8AE495E0E8019983BE
:100F90008883DF91CF911F910F9108950F931F9335
:100FA0008C010E947C1080E892E0F801918380839C
:100FB00082E082831F910F910895FC0188E093E005
:100FC000918380838EEF828313820895EF92FF9244
:100FD0000F931F93DF93CF9300D000D0CDB7DEB730
:100FE0007C0119821A821B821C82DC01ED91FC912A
:100FF00002A0F3A1E02D20E032EC41E050E08E01B0
:101000000F5F1F4F0995D701ED91FC91EC58FF4FF1
:101010000190F081E02DC70160E071E009950F902B
:101020000F900F900F90CF91DF911F910F91FF9034
:10103000EF90089508950895DF93CF930F92CDB761
:10104000DEB7DC014983ED91FC9102A4F3A5E02D0C
:1010500041E09E012F5F3F4F09950F90CF91DF91A7
:101060000895FF920F931F93CF93DF938C01F62E79
:10107000EA010AC02196D801ED91FC9104A4F5A5DE
:10108000E02DC8016F2D09954881442399F7DF9120
:10109000CF911F910F91FF900895DC01ED91FC918C
:1010A00000A8F1A9E02D09950895DC019A01ED91C0
:1010B000FC91442737FD4095542F06A8F7A9E02D51
:1010C00009950895DC01ED91FC919A0140E050E012
:1010D00000ACF1ADE02D09950895DF92EF92FF92FB
:1010E0000F931F93CF93DF93EC01D62E79018A01E2
:1010F00057FF0FC0E881F98104A4F5A5E02D4DE26A
:10110000099510950095F094E094E11CF11C011DE7
:10111000111DE881F981EE57FF4F0190F081E02D1C
:10112000CE016D2DA80197010AE00995DF91CF91BD
:101130001F910F91FF90EF90DF9008950F93DC01C6
:10114000ED91FC91EE57FF4F0190F081E02D0AE008
:1011500009950F9108950F931F93DC010115110557
:1011600041F4ED91FC9104A4F5A5E02D422F0995E1
:1011700011C0ED91FC9111970A30110529F406A8D0
:10118000F7A9E02D099506C0EE57FF4F0190F081B9
:10119000E02D09951F910F910895FF920F931F93D2
:1011A0008C01F62EDC01ED91FC9104A4F5A5E02D57
:1011B0004DE00995D801ED91FC9104A4F5A5E02D31
:1011C000C8016F2D4AE009951F910F91FF90089576
:1011D000FF920F931F938C01F62EDC01ED91FC9191
:1011E00004A4F5A5E02D0995D801ED91FC9104AC7E
:1011F000F5ADE02DC8016F2D09951F910F91FF905E
:101200000895FF920F931F938C01F62EDC01ED9150
:10121000FC9106A4F7A5E02D0995D801ED91FC916C
:1012200004ACF5ADE02DC8016F2D09951F910F910C
:10123000FF900895FF920F931F938C01F62EDC010F
:10124000ED91FC9100A8F1A9E02D0995D801ED914F
:10125000FC9104ACF5ADE02DC8016F2D09951F91EF
:101260000F91FF900895FF920F931F938C01F62E1C
:10127000DC01ED91FC9102A8F3A9E02D0995D801BC
:10128000ED91FC9104ACF5ADE02DC8016F2D0995F1
:101290001F910F91FF900895FF920F931F938C0160
:1012A000F62EDC01ED91FC9106A8F7A9E02D099539
:1012B000D801ED91FC9104ACF5ADE02DC8016F2D86
:1012C00009951F910F91FF900895FF920F931F931F
:1012D0008C01F62EDC01ED91FC9100ACF1ADE02D1E
:1012E0000995D801ED91FC9104ACF5ADE02DC80154
:1012F0006F2D09951F910F91FF900895DF92EF9246
:10130000FF920F931F937C01D62EDC01ED91FC918F
:1013100002ACF3ADE02D0995D701ED91FC9104AC41
:10132000F5ADE02DC7016D2D09951F910F91FF902F
:10133000EF90DF9008950895089508950895089511
:1013400008950895089508950895089508950895B5
:101350000895089508952F923F924F925F926F9251
:101360007F928F929F92AF92BF92CF92DF92EF9235
:10137000FF920F931F93DF93CF93CDB7DEB7A19763
:101380000FB6F894DEBF0FBECDBF1C0169A3690183
:101390007A01211531054105510549F4DC01ED9132
:1013A000FC9104A4F5A5E02D40E3099555C08824DF
:1013B00099245401402E55246624772401E010E03E
:1013C0000C0F1D1F080D191DC701B601A3019201C5
:1013D0000E945F2CF80160830894811C911CA11C61
:1013E000B11CC701B601A30192010E945F2CC90183
:1013F000DA016C017D01C114D104E104F104F1F6BC
:1014000071E0E72EF12CEC0EFD1EE80CF91C3E01FC
:101410000894611C711CD501C4010197A109B1098F
:101420006C01C818D90815C0D101ED91FC9124A513
:1014300035A5F601EE0DFF1D40814A3010F4405DE8
:1014400001C0495CC10169A1F90109950894E1084D
:10145000F1086E147F0441F7A1960FB6F894DEBF31
:101460000FBECDBFCF91DF911F910F91FF90EF90F5
:10147000DF90CF90BF90AF909F908F907F906F90B4
:101480005F904F903F902F900895442319F48CB5AE
:10149000806202C08CB58F7D8CBD80E090E00895A5
:1014A0008CB5837F842B8CBD80E090E008956F9293
:1014B0007F928F929F92AF92BF92CF92DF92EF92E4
:1014C000FF920F931F93CF93DF93EC0169017A0191
:1014D000A80160E070E000E010E0BAEB6B2E712C28
:1014E000680E791EABEB8A2E912C880E991EFDEBAF
:1014F000AF2EB12CA80EB91E54C0C801880F991F79
:10150000D401ED91FC91E80FF91F80819181A281B6
:10151000B381C816D906EA06FB06F8F0FA01808303
:101520009183A283B383660F771FC354DF4FE88193
:10153000F981E60FF71F80812CB5382F33702C7F8F
:10154000322B3CBD2DB590E0959587959595879567
:1015500081702E7F822B8DBD2CC0215030406217B0
:101560007307D9F4FA0180839183A283B383D501F1
:10157000ED91FC91E00FF11F80812CB5382F337075
:101580002C7F322B3CBD2DB590E095958795959598
:10159000879581702E7F822B8DBD6F5F7F4F0E5F91
:1015A0001F4FF3018081282F30E0621773070CF47E
:1015B000A4CF80E090E0DF91CF911F910F91FF9039
:1015C000EF90DF90CF90BF90AF909F908F907F90E3
:1015D0006F90089580E090E0089581E090E0089594
:1015E0009F92AF92BF92CF92DF92EF92FF920F93B2
:1015F0001F937C01962E59016A01DC01ED91FC914B
:10160000E45BFF4F0190F081E02D0995D701ED914A
:10161000FC9102A0F3A1E02DC701692DA60195015F
:1016200009951F910F91FF90EF90DF90CF90BF90A1
:10163000AF909F90089580E295E00E941A0508956A
:1016400080E295E00E9421050895CF92DF92EF920B
:10165000FF920F931F93CF93DF93242F352F890190
:10166000C0E0D0E0C62EDD2441ECE42EF12CE80EE3
:10167000F91E1CC0D8018C9190E0880F991FD701EA
:10168000ED91FC91E80FF91F808191810E9447053F
:10169000F80181918F0190E0880F991FD701ED919A
:1016A000FC91E80FF91F118210822196CC15DD05FF
:1016B0000CF380E090E0DF91CF911F910F91FF90AC
:1016C000EF90DF90CF9008956F927F928F929F92CC
:1016D000AF92BF92CF92DF92EF92FF920F931F9340
:1016E000CF93DF93EC015C01842F952F6C0179017E
:1016F00000E010E0662E772471EC872E912C8C0E82
:101700009D1E56C0E881F981EE59FF4F0190F0818E
:10171000E02DC50162E171E00995A881B981A25966
:10172000BF4FF601808190E0880F991FF40120815E
:101730003181280F391FF90140815181662757FDFA
:101740006095762FED91FC91C5012AE030E0099576
:10175000E881F981EE59FF4F0190F081E02DC5013C
:1017600069E171E00995E881F981E258FF4FD701FD
:101770004D915C9160E070E00190F081E02DC50139
:101780002AE030E00995F60181916F0190E0880F21
:10179000991FD401ED91FC91E80FF91FD7016D91CC
:1017A0007D917D01808191810E947A050F5F1F4F9D
:1017B000061517050CF4A6CF80E090E0DF91CF91DD
:1017C0001F910F91FF90EF90DF90CF90BF90AF905F
:1017D0009F908F907F906F9008952F923F924F929D
:1017E0005F926F927F928F929F92AF92BF92CF92B1
:1017F000DF92EF92FF920F931F93DF93CF9300D06E
:101800000F92CDB7DEB76C011A0189838D2CAA2403
:10181000BB24462E5524F1EC6F2E712C680E791ED8
:101820004CC0F101EA0DFB1D9080E92CFF24EE0C69
:10183000FF1CD3010D90BC91A02DAE0DBF1DBB832D
:10184000AA838D919C91892BA9F583E090E00E9459
:10185000D722182F092F0E942D05EA81FB811083C2
:101860000183D301ED91FC91EE0DFF1D80819181EB
:10187000692D70E00E943506D601ED91FC91EE597C
:10188000FF4F0190F081E02D8981982D6DE171E08D
:101890000995D601ED91FC91E258FF4F492D50E09A
:1018A00060E070E00190F081E02D8981982D2AE0C0
:1018B00030E009950894A11CB11CA414B5040CF4E3
:1018C000B0CF80E090E00F900F900F90CF91DF911C
:1018D0001F910F91FF90EF90DF90CF90BF90AF904E
:1018E0009F908F907F906F905F904F903F902F9040
:1018F0000895662321F487EE96E00E94AD2180E0F2
:1019000090E00895662331F487EE96E0B90150E047
:101910000E94DA2280E090E00895FF920F931F93D7
:10192000CF93DF93F42EE801662339F487EE96E037
:10193000B90150E00E943023888388818F1519F403
:1019400020E030E002C023E830E0C901DF91CF9110
:101950001F910F91FF900895CF93DF93EA016623C3
:1019600029F487EE96E00E94AE21888380E090E023
:10197000DF91CF9108959F92AF92BF92CF92DF9265
:10198000EF92FF920F931F93CF93DF93EC01962E6C
:10199000BA01A9015801C954DF4F8881C75BD04003
:1019A000C82EDD2400E010E020E030E0B8EBEB2EA4
:1019B000F12CEC0EFD1E12C0D701ED91FC91E20F4F
:1019C000F31F80819181A281B3812C5F3F4F481723
:1019D00059076A077B0728F00F5F1F4F0C151D057D
:1019E0005CF30115110511F001501040992009F523
:1019F0007801EE0CFF1CEE0CFF1C8E0108541F4FEB
:101A0000D801ED91FC91EE0DFF1D6081718187EE93
:101A100096E00E94AC21D801ED91FC91EE0DFF1DE6
:101A200080819181A281B381F50180839183A2831A
:101A3000B38380E090E0DF91CF911F910F91FF90F1
:101A4000EF90DF90CF90BF90AF909F9008950E944D
:101A5000831E28EE33E040E050E00E945F2CCA0174
:101A6000B90108950E94831E08956F927F928F920C
:101A70009F92AF92BF92CF92DF92EF92FF920F931D
:101A80001F93CF93DF933601222331F486EA94E04B
:101A9000642F402F21E00AC0213019F021E830E006
:101AA00036C086EA94E0642F402F20E00E949A021C
:101AB0000E94831E5B016C01802E992400E010E0DF
:101AC0000EC00E94831E6A197B098C099D09E616C7
:101AD000F7060807190718F423E830E018C086EA6B
:101AE00094E00E94DF01881599055CF3C0E0D0E026
:101AF00009C086EA94E00E94E801F301EC0FFD1FA3
:101B000080832196C815D905A4F320E030E0C901EF
:101B1000DF91CF911F910F91FF90EF90DF90CF90C9
:101B2000BF90AF909F908F907F906F900895EF92AD
:101B3000FF920F931F93122F86EA94E0642F0E9466
:101B4000D50186EA94E0B701402F50E00E942602BA
:101B5000112321F486EA94E061E005C0113041F4DC
:101B600086EA94E060E00E94870220E030E007C04F
:101B700086EA94E061E00E94870221E830E0C90132
:101B80001F910F91FF90EF900895FC01E154FF4FDA
:101B90000190F081E02DE60FF11D8081882319F07E
:101BA0008F5F808304C086EA94E00E94A70280E0F1
:101BB00090E008956F927F928F929F92AF92BF9222
:101BC000CF92DF92EF92FF920F931F93CF93DF9309
:101BD000842EF22E902E1E2D3601802F61E00E9461
:101BE00020206E2D60956170802F0E94AD20C0E096
:101BF000D0E000E0CF2CDD24E82CFF2411701CC0C5
:101C0000802F820FA82FB0E0F301EA0FFB1F808125
:101C10008EBD00000DB407FEFDCF8EB5AA0DBB1D15
:101C20008C932F5F3F4F2E153F0554F3892D612F65
:101C30000E94AD202196080DCC15DD051CF420E096
:101C400030E0F1CF80E090E0DF91CF911F910F91D4
:101C5000FF90EF90DF90CF90BF90AF909F908F90CC
:101C60007F906F900895CF92DF92EF92FF920F9343
:101C70001F93CF93DF9369018A01C0E0D0E0E62E85
:101C8000FF241EC0F801808161E00E942020FE0137
:101C900083E0F595E7958A95E1F7EC0DFD1D6081F0
:101CA00070E0CE018770907002C0759567958A9537
:101CB000E2F76170F80181918F010E94AD202196B9
:101CC000CE15DF05FCF280E090E0DF91CF911F910F
:101CD0000F91FF90EF90DF90CF9008950E94BE018A
:101CE00080E090E00895CF92DF92EF92FF920F9301
:101CF0001F93CF93DF9369018A01C0E0D0E0E62E05
:101D0000FF2410C0F801808161E00E942020F601CC
:101D1000EC0FFD1F6081F80181918F0170E00E943E
:101D20007B1F2196CE15DF056CF380E090E0DF91FC
:101D3000CF911F910F91FF90EF90DF90CF9008957A
:101D4000CB01BA010E94911E08959F92AF92BF925B
:101D5000CF92DF92EF92FF920F931F93CF93DF9377
:101D6000162F922EE5014130D9F4862F61E00E94B2
:101D70002020812F61E00E94AD2061E070E080E0D2
:101D800090E00E94911E812F60E00E94AD2061E0F2
:101D900070E080E090E00E94911E812F61E01CC005
:101DA0004230E1F4862F61E00E942020812F60E024
:101DB0000E94AD2061E070E080E090E00E94911E02
:101DC000812F61E00E94AD2061E070E080E090E052
:101DD0000E94911E812F60E00E94AD20892D60E05D
:101DE0000E942020002319F4892D60E004C00130F6
:101DF00051F4892D61E0A70196010E9410216883AA
:101E000079838A839B8380E090E0DF91CF911F915B
:101E10000F91FF90EF90DF90CF90BF90AF909F9089
:101E200008959F92AF92BF92CF92DF92EF92FF926E
:101E30000F931F93962E59016A0121153105410513
:101E40005105B9F0862F61E00E942020E114F104D1
:101E50000105110529F0892DB501A801970106C0DA
:101E6000892DB50120E030E040E050E00E94F823E9
:101E700003C0862F0E94E12380E090E01F910F9124
:101E8000FF90EF90DF90CF90BF90AF909F9008951C
:101E90008F929F92AF92BF92CF92DF92EF92FF927A
:101EA0000F931F93CF93DF934A01790108E0CC246D
:101EB000DD24C0E0D0E0A62EBB241EC0002341F4E8
:101EC000F701EC0DF11DD082C39407E0DD2401C0C1
:101ED0000150F401EC0FFD1F1081812F60E00E9482
:101EE0002020812F0E94E020002E02C0880F991F21
:101EF0000A94E2F7D82A2196CA15DB05FCF2EC0C0D
:101F0000F11CF701D08280E090E0DF91CF911F912A
:101F10000F91FF90EF90DF90CF90BF90AF909F9088
:101F20008F900895CF92DF92EF92FF920F931F93BD
:101F3000CF93DF93EC0179018A01613091F0613038
:101F400020F0623009F068C040C081E00E94401F6C
:101F500089899A89AB89BC898D8B9E8BAF8BB88F11
:101F600055C0C655DF4F8881CA5AD040882309F42E
:101F700053C020E030E040E050E0C82EDD24BE0138
:101F800065557F4F1EC0DB01ED91FC91E40FF51FFD
:101F900080819181A281B3814C5F5F4F8E159F0537
:101FA000A007B10761F4220F331FC355DF4FE8814B
:101FB000F981CD5AD040E20FF31F808121C02F5FFD
:101FC0003F4F2C153D05FCF224C0C155DF4F8881E1
:101FD0009981AA81BB81CF5AD040281739074A0777
:101FE0005B07B8F0CD54DF4F88819981AA81BB810E
:101FF000C35BD04082179307A407B50750F080E079
:102000000E94401FED8AFE8A0F8B188F20E030E07F
:1020100005C022E830E002C021E830E0C901DF91CC
:10202000CF911F910F91FF90EF90DF90CF90089587
:102030006F927F928F929F92AF92BF92CF92DF92D8
:10204000EF92FF920F931F93CF93DF936C014A019E
:102050007901D9011C9200E018E0C0E0D0E0A62E82
:10206000BB2428E0622E712C33C0F401EC0FFD1F5D
:1020700080810E94431FAC01F601608926C0F701F0
:10208000E00FF11DD60150968C9190E0861B9109CE
:102090009A0102C0369527958A95E2F7C901930106
:1020A000211B310902C0880F991F2A95E2F7208170
:1020B000282B2083611710F4161B09C0611B0F5FCA
:1020C000F701E00FF11D108218E06623C1F621969A
:1020D000CA15DB0554F280E090E0DF91CF911F91AB
:1020E0000F91FF90EF90DF90CF90BF90AF909F90B7
:1020F0008F907F906F900895DF92EF92FF920F93F1
:102100001F938C010E94DD0780E993E0F801918321
:10211000808381E0878382E08087118640E2E42E1D
:1021200045E0F42EC70160E070E00E941A05D82E49
:10213000C70161E070E00E941A053D2D20E090E0AB
:10214000282B392BF80136AB25AB1F910F91FF904F
:10215000EF90DF900895EF92FF920F931F93DF931C
:10216000CF9300D000D0CDB7DEB77C01DB01FC01FE
:102170007383628319821A821B821C824087ED91CD
:10218000FC9102A0F3A1E02DCB01642F20E835E201
:1021900040E050E08E010F5F1F4F09958AE291E009
:1021A000E80EF91E84E090E0F701918380830F90A0
:1021B0000F900F900F90CF91DF911F910F91FF9093
:1021C000EF9008958FEF9FEF08958FEF9FEF0895A1
:1021D000CF93DF93DC01EC01C65DDE4F88819981EE
:1021E0008530910571F086309105B1F0049701F5C5
:1021F000ED91FC9111970084F185E02DCD010995B9
:1022000017C0ED91FC9111970284F385E02DCD016B
:102210000995198218820CC0ED91FC9111970484E4
:10222000F585E02DCD0109958FEF9FEF0E94B62C2B
:10223000DF91CF9108958F929F92AF92BF92CF92EC
:10224000DF92EF92FF920F931F93DF93CF9300D013
:10225000CDB7DEB77C011982FC01A281B381ED917B
:10226000FC91119706A0F7A1E02DCD01D70118969A
:102270006C915E010894A11CB11CA501099589818E
:10228000823008F42FC11A82F701A281B3817AE06B
:10229000C72ED12CCE0CDF1CED91FC91119762E082
:1022A000862E912C8C0E9D1E00A4F1A5E02DCD0153
:1022B000D70118966C9142E0960184010995F701C7
:1022C0008285A281B3818F3F09F0EFC0ED91FC912F
:1022D000119706A0F7A1E02DCD01D70118966C91BA
:1022E000A5010995298130E0F701838590E00297E7
:1022F000281739070CF05BC004E610E0C501BA2CC2
:10230000A92E4BC0D7011296ED91FC911397A08195
:10231000B18196962D913C919797CF01F7016085F9
:102320004B2D5A2DF9010995F701A281B3810115B1
:10233000110519F5ED91FC91119706A0F7A1E02D7B
:10234000CD01D70118966C914B2D5A2D0995F701A7
:10235000A281B381ED91FC91119700A4F1A5E02D2C
:10236000CD01D70118966C91498196018E010E5FBF
:102370001F4F09952FEF3FEFB7C0ED91FC911197DB
:10238000E85AFF4F0190F081E02DCD0141E050E08F
:1023900060E070E0099501501040298130E0F701BC
:1023A000838590E00297281739070CF4ABCFD7014B
:1023B0001296ED91FC911397808191811B964C911F
:1023C00042509701245F3F4F52E0A52EB12CAC0E36
:1023D000BD1EDC0198968D909C909997CF01F701D6
:1023E00060858501F4010995C701B6010E94F412C8
:1023F000F701A281B3818823C9F1ED91FC91119776
:10240000E058FF4F0190F081E02DCD0161E0A60181
:102410000995870106571F4FC701B601A8010E9401
:102420009013F701A281B381ED91FC911197E058CF
:10243000FF4F0190F081E02DCD0160E0A8010995EA
:10244000F701A281B381ED91FC91119702A4F3A54C
:10245000E02DCD01D70118966C912BE830E0E20E0B
:10246000F31ED7014C91980109953CC0ED91FC9168
:10247000119706A0F7A1E02DCD01D70118966C9118
:10248000AE014F5F5F4F0995F701A281B381ED91D6
:10249000FC91119700A4F1A5E02DCD01D70118966C
:1024A0006C914981960185011CC0ED91FC911197B9
:1024B00006A0F7A1E02DCD01D70118966C91A501DA
:1024C0000995F701A281B381ED91FC91119700A4C8
:1024D000F1A5E02DCD01D70118966C9149819601A7
:1024E0008401099520E030E0C9010F900F90CF9151
:1024F000DF911F910F91FF90EF90DF90CF90BF90F1
:10250000AF909F908F9008950F931F938C010E941E
:10251000A01288E194E0F80191838083065D1E4F4C
:10252000F801118210820A521140F80117821682B6
:102530001F910F9108958EE695E00E9484120895F0
:10254000FC018EE294E0918380831582148280E8FE
:10255000818708958FEF9FEF08958FEF9FEF089584
:102560008FEF9FEF08958FEF9FEF08958FEF9FEF0D
:1025700008958FEF9FEF08958FEF9FEF0895DC018F
:1025800014968D919C9115978430910599F0853022
:1025900091051CF4892B39F024C08530910589F010
:1025A0000697F9F415C0ED91FC9111970190F08117
:1025B000E02D14C0ED91FC9111970084F185E02D80
:1025C0000DC0ED91FC9111970284F385E02D06C0BA
:1025D000ED91FC9111970484F585E02DCD010995CD
:1025E000089580E890E00895DB0111966C911197B1
:1025F000462F50E04150504020E030E090E007C0CE
:10260000FD01E20FF31F8081980F2F5F3F4F2417CA
:102610003507B4F320E0A60FB11D11978C919817E0
:1026200009F421E0822F08950F931F93FB01DA0133
:102630008FEF8C93822F8A5F11968C9311978281F2
:1026400012968C931297838113968C9313970F3F56
:10265000110509F020F414960C93149704C083E03C
:1026600014968C93149711968C911197682F70E0A3
:102670006150704040E050E090E007C0FD01E40F81
:10268000F51F8081980F4F5F5F4F46175707B4F3D0
:10269000A20FB31F15969C931F910F9108950F934E
:1026A0001F93890120E030E00E9414131F910F91C5
:1026B0000895BF92CF92DF92EF92FF920F931F93F4
:1026C000CF93DF93EC016B01142FB52EB901842F4A
:1026D000952F9C01D90120E030E0402F50E009C047
:1026E000FB01E20FF31F808114968C9314972F5FE8
:1026F0003F4F1196241735079CF3CE01B601412FA9
:102700005B2D202F30E087010E941413DF91CF91C1
:102710001F910F91FF90EF90DF90CF90BF900895A1
:102720002F923F924F925F926F927F928F929F92E1
:10273000AF92BF92CF92DF92EF92FF920F931F93CF
:10274000DF93CF93CDB7DEB728970FB6F894DEBFEF
:102750000FBECDBF2C013B011A012DB73EB73E8302
:102760002D83DB0114969C91149780E015962C9193
:10277000E22FF0E0E82BF92BBCEFE030FB07C8F0CC
:102780001982EB57FB4FEE0FFF1FE40DF51DDB0128
:1027900011968C916A5F7F4F9A012B5F3F4F01909A
:1027A000F081E02D8750AE014F5F5F4F09950C948B
:1027B000CF1BE232F10509F427C5E332F10508F039
:1027C00090C0E131F10509F418C2E231F10508F0D9
:1027D00044C0E930F10509F4D0C1EA30F105E0F474
:1027E000E430F10509F435C1E530F10540F43097E6
:1027F00009F43BC2339711F00C94111E1CC1E63052
:10280000F10509F475C1E630F10508F43EC13897C9
:1028100011F00C94111EA7C1ED30F10509F4CDC1E2
:10282000EE30F10568F4EB30F10509F4B6C1D201E0
:1028300012960D911C9113973C9708F0B8C1A7C14F
:10284000EF30F10509F4C9C1D20112960D911C9126
:102850001397709708F0CBC1BAC1E931F10509F4BB
:1028600034C3EA31F10508F5E531F10509F46BC22D
:10287000E631F10568F4E331F10509F4FCC1D20158
:1028800012960D911C911397749708F00AC2C1C15A
:10289000E731F10509F4B5C2D20112960D911C91F0
:1028A0001397789708F0BBC281C2ED31F10509F4A6
:1028B000ECC3EE31F10540F4EB31F10509F46AC3E4
:1028C0007C9708F079C337C3EF31F10509F428C4C8
:1028D000EF31F10508F407C4B09711F00C94111E04
:1028E0002DC4E33CF10509F442C7E43CF10508F0CE
:1028F00048C0E434F10509F4DAC5E534F105F0F433
:10290000E532F10509F443C5E632F10548F4E33256
:10291000F10509F4F7C4B49711F00C94111E2DC5FC
:10292000E234F10509F456C5E334F10508F07EC53B
:10293000E134F10511F00C94111E37C5E338F105AF
:1029400009F4A3C6E438F10570F4E136F10509F4A1
:102950001CC6E436F10509F456C6E036F10511F05F
:102960000C94111EEFC5E13CF10509F4C5C6E23C2B
:10297000F10508F0E1C6E03CF10511F00C94111EE0
:102980009BC6B1E0E030FB0709F4DCC721E0E13091
:10299000F20718F5E13EF10509F435C7E23EF1050D
:1029A00070F4E53CF10509F416C7E53CF10508F4BF
:1029B000F9C6E03EF10511F00C94111E18C7E33E74
:1029C000F10509F47BC7E33EF10508F45AC7E43E7C
:1029D000F10511F00C94111EA4C731E0E730F307A4
:1029E00011F40C943C1D41E0E830F40788F451E008
:1029F000E230F50709F4C9C781E0E230F80708F4CE
:102A0000B2C7E350F14011F00C94111E0C94241D38
:102A1000A1E0E134FA0711F40C947A1DB1E0E2343C
:102A2000FB0711F40C94F61DE054F14011F00C94E6
:102A3000111E0C94711DD2011296ED91FC91139709
:102A40008281FA0185831296ED91FC91139783811F
:102A50001FC1D2011296ED91FC9113978781FA0163
:102A600085831296ED91FC9113978085DA01169675
:102A70008C93D2011296ED91FC9113978185FA0106
:102A80008783C20123E030E0B9C5D2011296ED91EF
:102A9000FC91139785A196A1A7A1B0A58B2F99278B
:102AA000AA27BB27FA018583D2011296ED91FC91EA
:102AB000139785A196A1A7A1B0A5CD01AA27BB27F1
:102AC000FA018683D2011296ED91FC91139785A1AC
:102AD00096A1A7A1B0A5892F9A2FAB2FBB27FA01EA
:102AE0008783D2011296ED91FC91139785A17FC542
:102AF000DB0118963C91189720E0442737FD40955C
:102B0000542F19968C9190E0A0E0B0E0282B392B3F
:102B10004A2B5B2B19821A821B821C82F201A28132
:102B2000B381ED91FC91119704A0F5A1E02DCD01A9
:102B3000D20118966C918E010F5F1F4F09957C0191
:102B4000F201A281B381ED91FC911197E85AFF4FF8
:102B50000190F081E02DCD0148EE53E060E070E09F
:102B600009950C940A1ED2011296ED91FC911397CF
:102B700023853485C201028513C4D2011296ED91DA
:102B8000FC91139726853785C201058509C4F80194
:102B9000228D338DC201018D03C4D2011296ED91B5
:102BA000FC911397258D368DC201048DF9C3F80170
:102BB00020A131A1C201078DF3C3D2011296ED917C
:102BC000FC91139723A134A1C20102A1E9C3F8012A
:102BD00022A533A5C20101A5E3C3D2011296ED914E
:102BE000FC91139725A536A5C20104A5D9C3F80108
:102BF00020A931A9C20107A5D3C385E090E0D20185
:102C000015969C938E93149774E0E72EF12C0C94F8
:102C10001A1EFB01968180E0278130E0822B932BE6
:102C2000D801D6969C938E93D597ED91FC91E65A58
:102C3000FF4F0190F081E02DC80160E070E0D3010A
:102C400016964C910995F201A281B381ED91FC9108
:102C50001197E65AFF4F0190F081E02DCD0161E020
:102C600070E0D30117964C910995C201B301A101FF
:102C700020E030E0DBC7D2011296ED91FC91139772
:102C800086A9FA0185831296ED91FC91139785A987
:102C9000D10116968C93C201B301A10122E030E06C
:102CA000ADC4FB01818590E0308520E0822B932B21
:102CB000AA2797FDA095BA2FF80187AB90AFA1AFD7
:102CC000B2AF0190F081E02DE65AFF4F0190F08104
:102CD000E02DC80162E070E0D30116964C91099591
:102CE000F201A281B381ED91FC911197E65AFF4F59
:102CF0000190F081E02DCD0163E070E0D3011796E3
:102D00004C910995F201A281B381ED91FC9111974B
:102D1000E65AFF4F0190F081E02DCD0164E070E0B4
:102D2000D30118964C910995F201A281B381ED91DE
:102D3000FC911197E65AFF4F0190F081E02DCD01F3
:102D400065E070E0DBC2D2011296ED91FC91139721
:102D500087A990ADA1ADB2AD8B2F9927AA27BB272C
:102D6000FA018583D2011296ED91FC91139787A900
:102D700090ADA1ADB2ADCD01AA27BB27F1018683ED
:102D8000D2011296ED91FC91139787A990ADA1AD58
:102D9000B2AD892F9A2FAB2FBB27F1018783D201C8
:102DA0001296ED91FC91139787A921C4DB01169629
:102DB0009C91169780E017962C91179730E0822B04
:102DC000932BF80194AF83AF0190F081E02DE65A88
:102DD000FF4F0190F081E02DC80166E070E016968B
:102DE0004C910995F201A281B381ED91FC9111976B
:102DF000E65AFF4F0190F081E02DCD0167E070E0D1
:102E000030CFD2011296ED91FC91139784ADFA0167
:102E100085831296ED91FC91139783AD39CF035CB6
:102E20001F4FFB01818590E0308520E0822B932BA2
:102E3000AA2797FDA095BA2FF80180839183A283DA
:102E4000B3830D531040D801ED91FC91E65AFF4F2A
:102E50000190F081E02DC80168E070E0D301169682
:102E60004C910995F201A281B381ED91FC911197EA
:102E7000E65AFF4F0190F081E02DCD0169E070E04E
:102E8000D30117964C910995F201A281B381ED917E
:102E9000FC911197E65AFF4F0190F081E02DCD0192
:102EA0006AE070E0D30118964C910995F201A28175
:102EB000B381ED91FC911197E65AFF4F0190F0819B
:102EC000E02DCD016BE070E019C2D2011296ED91B8
:102ED000FC911397FD9680819181A281B3818B2F04
:102EE0009927AA27BB27FA018583D2011296ED9173
:102EF000FC911397FD9680819181A281B381CD01D0
:102F0000AA27BB27FA018683D2011296ED91FC9184
:102F10001397FD9680819181A281B381892F9A2F89
:102F2000AB2FBB27FA018783D2011296ED91FC915A
:102F3000139785AD5CC3F201A281B381AF5BBF4F34
:102F4000FB01968180E0278130E0822B932B119644
:102F50009C938E93A154B040ED91FC911197E65A49
:102F6000FF4F0190F081E02DCD016CE070E0D301C6
:102F700016964C910995F201A281B381ED91FC91D5
:102F80001197E65AFF4F0190F081E02DCD016DE0E1
:102F900070E067CED2011296ED91FC911397EF5B32
:102FA000FF4F8181FA0185831296ED91FC91139771
:102FB000EF5BFF4F80816CCEFB018681D2011296C0
:102FC0000D911C9113978132B8F00D5B1F4F80E279
:102FD000F801808312960D90BC91A02DED91FC918B
:102FE0001197E65AFF4F0190F081E02DCD016EE080
:102FF00070E040E2099516C00D5B1F4FD8018C931D
:10300000D2011296ED91FC911397A081B181A65A3D
:10301000BF4F2D913C91CF016EE070E0F3014681EE
:10302000F9010995730100E010E01DC0E00FF11FE8
:10303000EC5BFF4FD70116968C918083F201A28141
:10304000B381ED91FC911197E65AFF4F015F1F4F3D
:103050000190F081E02DCD01B801D70116964C9179
:1030600009950E501040D2011296ED91FC911397E4
:103070000894E11CF11CED5BFF4F8081E354F040AC
:1030800090E00817190794F2F0CDD2011296ED9155
:10309000FC911397ED5BFF4F8081FA018583BA01A4
:1030A00040E050E00AC0E40FF51FEC5BFF4F808169
:1030B000DB0115968C934F5F5F4FD2011296ED9115
:1030C000FC911397ED5BFF4F2081E354F0406F5F5D
:1030D0007F4F822F90E0481759072CF3C201B301AC
:1030E000A10130E08BC2D2011296ED91FC911397B1
:1030F000EC59FF4FDB0116968C918083F201A2817F
:10310000B381ED91FC911197E65AFF4F0190F08148
:10311000E02DCD0160E370E0D30116964C91A4CD73
:10312000D2011296ED91FC911397EC59FF4F8081DB
:10313000FA018583C20121E030E060C2DB0116960E
:103140008C91F201028113818134A8F00B591F4F39
:1031500080E4D8018C93A281B381ED91FC91119709
:10316000E65AFF4F0190F081E02DCD0161E370E060
:1031700040E4099516C00B591F4FF8018083D20116
:103180001296ED91FC911397A081B181A65ABF4F81
:103190002D913C91CF0161E370E0F3014681F9018B
:1031A0000995730100E010E01DC0E00FF11FEA591E
:1031B000FF4FD70116968C918083F201A281B381D3
:1031C000ED91FC911197E65AFF4F0E5C1F4F019055
:1031D000F081E02DCD01B801D70116964C910995EB
:1031E00001531040D2011296ED91FC91139708946F
:1031F000E11CF11CEB59FF4F8081E556F04090E057
:103200000817190794F231CDF201628173816A5572
:103210007F4FD30116962C91169730E040E050E096
:10322000522F44273327222717968C9190E0A0E055
:10323000B0E0DC0199278827282B392B4A2B5B2B00
:10324000F301818590E0A0E0B0E0282B392B4A2BD8
:103250005B2B808590E0A0E0B0E0BA2FA92F982FDB
:103260008827282B392B4A2B5B2BDB012D933D9391
:103270004D935C931397665A7040DB01ED91FC917E
:10328000E65AFF4F0190F081E02DCB0162E770E03C
:10329000D30116964C910995F201A281B381ED916B
:1032A000FC911197E65AFF4F0190F081E02DCD017E
:1032B00063E770E0D30117964C910995F201A28162
:1032C000B381ED91FC911197E65AFF4F0190F08187
:1032D000E02DCD0164E770E0D30118964C9109957B
:1032E000F201A281B381ED91FC911197E65AFF4F53
:1032F0000190F081E02DCD0165E770E0D3011996D2
:103300004C91B2CCD2011296ED91FC911397EA55F3
:10331000FF4F80819181A281B3818B2F9927AA27AA
:10332000BB27F1018583D2011296ED91FC91139791
:10333000EA55FF4F80819181A281B381CD01AA27F7
:10334000BB27F1018683D2011296ED91FC91139770
:10335000EA55FF4F80819181A281B381892F9A2FF5
:10336000AB2FBB27F1018783D2011296ED91FC911F
:103370001397EA55FF4F80813AC1D2011296ED9121
:10338000FC91139725813681C201048109C0D201C5
:103390001296ED91FC91139723A934A9C20102A9B9
:1033A000EE24FF240E94591345C4F201A281B38187
:1033B000FB016681ED91FC911197A301495F5F4F7D
:1033C000262F30E0295F3F4F260D371D0480F58101
:1033D000E02D6FC1DB0111960C91D2011296ED9197
:1033E000FC911397A081B181602F6750A3014A5FC0
:1033F0005F4F91012B5F3F4F16960D90BC91A02D12
:10340000CF01FD0109957C0110E00850104023E038
:10341000159507952A95E1F70F5FC201B301A10148
:10342000202F30E087010E94141304C4F20162814E
:103430007381DB01ED91FC91D30119963C911997B1
:1034400020E0442737FD4095542F1A968C9190E048
:10345000A0E0B0E0282B392B4A2B5B2BD3011B9625
:10346000EC901B97FF2400E010E01E2D0027FF24A6
:10347000EE241E968C9190E0A0E0B0E0E82AF92AB4
:103480000A2B1B2BD3011D969C9180E0AA2797FD48
:10349000A095BA2FE82AF92A0A2B1B2B0084F18564
:1034A000E02DCB01D30116966C910995B2C3F201C0
:1034B00022813381D901ED91FC91DB011A96CC90E8
:1034C0001A97DD24EE24FF24FC2CEE24DD24CC24EA
:1034D0001B968C9190E0A0E0B0E0DC019927882752
:1034E000C82AD92AEA2AFB2ADB011D968C9190E092
:1034F000A0E0B0E0C82AD92AEA2AFB2ADB011C9600
:103500008C9190E0A0E0B0E0BA2FA92F982F8827E7
:10351000C82AD92AEA2AFB2A0284F385E02DC901A8
:10352000DB0117966C91179718964C911897169681
:103530002C91169719960C915E010894A11CB11C50
:10354000099588C1D20112966D917C911397DB0188
:10355000ED91FC91D30119963C91199720E04427F5
:1035600037FD4095542F1A968C9190E0A0E0B0E082
:10357000282B392B4A2B5B2B0280F381E02DCB01CA
:10358000D30116966C91099544C3D2011296ED9120
:10359000FC91139785899689A789B08D8B2F9927E0
:1035A000AA27BB27FA018583D2011296ED91FC91DF
:1035B000139785899689A789B08DCD01AA27BB2746
:1035C000FA018683D2011296ED91FC9113978589B9
:1035D0009689A789B08D892F9A2FAB2FBB27F10130
:1035E0008783D2011296ED91FC9113978589F101A1
:1035F0008087C201B301A10124E030E000E010E0C7
:103600000E94141315C3D2011296ED91FC911397E9
:103610008089FA0185831296ED91FC911397808140
:103620009181DB0111966C916750A3014A5F5F4F56
:1036300091012A5F3F4FDC010D911C91CF01F801F0
:1036400009957C01F301218130E027503040D201FF
:103650001296ED91FC911397808990E0FC012E9FCA
:10366000C0012F9F900D3E9F900D11249C0143E0BF
:10367000369527954A95E1F787709070892B09F068
:103680002F5F30E02F5F3F4F28C2F201A281B3814C
:10369000FB016681ED91FC911197A301495F5F4F9A
:1036A000262F30E0295F3F4F260D371D0484F58516
:1036B000E02DCD010995ADC2DB0119963C9119971A
:1036C00020E0442737FD4095542F1A968C9190E0C6
:1036D000A0E0B0E0282B392B4A2B5B2B19821A82F1
:1036E0001B821C82F201A281B381ED91FC911197A2
:1036F00002A0F3A1E02DA6C0DB0119963C91199719
:1037000020E0442737FD4095542F1A968C9190E085
:10371000A0E0B0E0282B392B4A2B5B2B19821A82B0
:103720001B821C82F201A281B381ED91FC91119761
:1037300004A0F5A1E02D86C0F201A281B381ED9134
:10374000FC91119706A0F7A1E02DCD01DB011696A3
:103750006C91AE014F5F5F4F09957C018981F1014A
:103760008583C201B301A10121E030E05BCE198263
:10377000F201A281B381ED91FC9111979A012B5F27
:103780003F4F00A4F1A5E02DCD01DB0116966C9111
:10379000169717964C918E010F5F1F4F09957C016C
:1037A0002981BBC0D2011296ED91FC9113978081C3
:1037B0009181DB0111964C9148509B01295F3F4F4D
:1037C000DC019A960D911C919B97CF01FB016681BC
:1037D000F80109951EC2D2011296ED91FC91139742
:1037E000A081B181A45BBF4F2D913C91A5C0D201B6
:1037F0001296ED91FC911397A081B18158962D916D
:103800003C91599799C0DB0119963C91199720E09A
:10381000442737FD4095542F1A968C9190E0A0E0F4
:10382000B0E0282B392B4A2B5B2B19821A821B8282
:103830001C82F201A281B381ED91FC911197028C5F
:10384000F38DE02DCD01D30116966C918E010F5FA3
:103850001F4F09957C0189819A81AB81BC812B2FF7
:10386000332744275527F10125839D0144275527F8
:103870002683892F9A2FAB2FBB2787838981808747
:10388000F5C0D2011296ED91FC9113978081918140
:10389000DB0111960C910A50B9E0EB2EF12CE60EEB
:1038A000F71EDC015C96CD90DC905D97CF01FB01AB
:1038B000668147812085F6010995ABC1D201129638
:1038C0004D915C911397FA0120813181DB011996AA
:1038D000FC911997E0E01A968C9190E0E82BF92B77
:1038E000A5E0CA2ED12CC20CD31CD9015E96AD9096
:1038F000BC905F97CA01DB0116966C9116971796DC
:103900004C9117971B962C911B9718960C917F0141
:10391000F50109957C01F3012085C201B301A101E4
:1039200080CDD2011296ED91FC911397A081B181C7
:1039300090962D913C919197CF01F3016681F90109
:10394000099567C1D2011296ED91FC911397A08160
:10395000B1811E962D913C911F97CF01FB0166818D
:10396000F901099582C9D2011296ED91FC91139744
:10397000A081B18150962D913C915197CF01FB01CF
:1039800066814781F901099570C9DB0117962C9171
:10399000179730E040E050E0522F4427332722278A
:1039A00018968C9190E0A0E0B0E0DC019927882780
:1039B000282B392B4A2B5B2BF301828590E0A0E06A
:1039C000B0E0282B392B4A2B5B2B818590E0A0E0BF
:1039D000B0E0BA2FA92F982F8827282B392B4A2BF4
:1039E0005B2B19821A821B821C82F201A281B38195
:1039F000ED91FC9111970488F589E02DCD01D3015B
:103A000016966C918E010F5F1F4F09957C0189817D
:103A10009A81AB81BC812B2F332744275527F10195
:103A200025839D01442755272683892F9A2FAB2F65
:103A3000BB27878389818087C201B301A10124E06C
:103A400030E000E010E0EFCCD2011296ED91FC9155
:103A50001397A081B18152962D913C915397CF013C
:103A6000FB0166814781F90109957C01C201B3011F
:103A7000A10124E030E0D6CCD2011296ED91FC9168
:103A80001397DB0117964C911797008111811196BE
:103A90008C9190E00B97642F70E00E944C2C262FA5
:103AA0007AE0C72ED12CC60CD71C65E0A62EB12C0F
:103AB000A20CB31CD80156968D909C905797CF01BD
:103AC000F30166810085E184F40109957C01D3014D
:103AD00011962C9130E02B503040C201B301A1016E
:103AE000A1CCF20182819381DC01ED91FC91E25B3A
:103AF000FF4F84C0BDB7BF83EEB7E88756E0A52E61
:103B0000B12CA60EB71EDB0116968C9190E09C019D
:103B1000220F331FEDB7FEB7E21BF30B0FB6F8947D
:103B2000FEBF0FBEEDBF2DB73EB72F5F3F4FFC016D
:103B30003796E60FF71F49016901B90140E050E0EF
:103B40000DC0308120E0818190E0822B932BDB013E
:103B50008D939D93BD014F5F5F4F3296D5018C9140
:103B600090E0481759076CF3EE24FF2415C0D801E4
:103B7000ED91FC91E258FF4FD6014D915D916D01A1
:103B800060E070E00190F081E02DC8012AE030E0B3
:103B900009950894E11CF11CF5016081862F90E0E5
:103BA000D20112960D911C911397E816F906FCF2BA
:103BB000D801ED91FC91E05BFF4FA301495F5F4F9E
:103BC0000190F081E02DC801940109957C01C201AA
:103BD000B301A10197010E944F132F813885C901BC
:103BE0000FB6F8949EBF0FBE8DBF24C0F201828134
:103BF0009381DC01ED91FC91EE5AFF4FD3011196B8
:103C00006C916750A3014A5F5F4F0190F081E02DF6
:103C100009957C01C201B301A10197010E944F13D4
:103C200009C0C201B301A10121E030E00E944F139D
:103C3000EE24FF24C701ED81FE810FB6F894FEBF8C
:103C40000FBEEDBF28960FB6F894DEBF0FBECDBFF6
:103C5000CF91DF911F910F91FF90EF90DF90CF9068
:103C6000BF90AF909F908F907F906F905F904F909C
:103C70003F902F9008951F920F920FB60F9211242C
:103C80002F933F938F939F93AF93BF9380919E0603
:103C900090919F06A091A006B091A1063091A20636
:103CA0000196A11DB11D232F2D5F2D3720F02D571B
:103CB0000196A11DB11D2093A20680939E069093AC
:103CC0009F06A093A006B093A10680919A069091BA
:103CD0009B06A0919C06B0919D060196A11DB11D69
:103CE00080939A0690939B06A0939C06B0939D06A2
:103CF000BF91AF919F918F913F912F910F900FBEE8
:103D00000F901F9018958FB7F89420919E063091D0
:103D10009F064091A0065091A1068FBFB901CA012C
:103D200008959B01AC017FB7F89480919A06909119
:103D30009B06A0919C06B0919D0666B5A89B05C008
:103D40006F3F19F00196A11DB11D7FBFBA2FA92F9A
:103D5000982F8827860F911DA11DB11D62E0880F45
:103D6000991FAA1FBB1F6A95D1F7BC012DC0FFB7D1
:103D7000F89480919A0690919B06A0919C06B09130
:103D80009D06E6B5A89B05C0EF3F19F00196A11D61
:103D9000B11DFFBFBA2FA92F982F88278E0F911D15
:103DA000A11DB11DE2E0880F991FAA1FBB1FEA9554
:103DB000D1F7861B970B885E9340C8F221503040A4
:103DC0004040504068517C4F211531054105510557
:103DD00071F60895789484B5826084BD84B581605D
:103DE00084BD85B5826085BD85B5816085BDEEE603
:103DF000F0E0808181608083E1E8F0E010828081E2
:103E000082608083808181608083E0E8F0E080814F
:103E100081608083E1E9F0E080818260808380813D
:103E200081608083E0E9F0E0808181608083E1EC63
:103E3000F0E08081846080838081826080838081E3
:103E400081608083E3ECF0E0808181608083E0EC3E
:103E5000F0E0808182608083E2ECF0E0808181602C
:103E60008083EAE7F0E080818460808380818260E3
:103E700080838081816080838081806880830895D1
:103E8000809399010895823108F08251E82FF0E083
:103E9000E05DFE4FE49120917B008E2F8695869504
:103EA000869590E08170907035E0880F991F3A9563
:103EB000E1F72F7D282B20937B00E77080919901FB
:103EC0008295880F880F807C8E2B80937C00809158
:103ED0007A00806480937A0080917A0086FDFCCF1E
:103EE0002091780040917900942F80E030E0282BD9
:103EF000392BC90108951F93CF93DF93182FEB013E
:103F000061E00E942020209709F48FC0CF3FD105A7
:103F100009F48EC0E12FF0E0EE5EFE4F8491883010
:103F200009F440C0893070F4823019F1833020F4F4
:103F3000813009F077C018C0833001F1843009F076
:103F400071C026C08B3009F44BC08C3030F48930FE
:103F500099F18A3009F066C039C08C3009F44DC03F
:103F60008E3009F05FC051C084B5806884BDC7BD84
:103F700063C084B5806284BDC8BD5EC0809180008E
:103F8000806880938000D0938900C093880054C0DB
:103F900080918000806280938000D0938B00C093DA
:103FA0008A004AC080919000806880939000D093EE
:103FB0009900C093980040C08091900080628093E7
:103FC0009000D0939B00C0939A0036C080919000DF
:103FD000886080939000D0939D00C0939C002CC07B
:103FE0008091C00080688093C0008091C0008F7B6A
:103FF0008093C000C093CF001FC08091C00080623A
:104000008093C000C093D00017C08091C200886028
:104010008093C2008091C2008B7F8093C200C093C6
:10402000D2000AC0C038D1051CF4812F60E002C064
:10403000812F61E00E94AD20DF91CF911F91089503
:10404000CF93DF93482F50E0CA018C509F4FFC0163
:1040500034914A525F4FFA018491882369F190E0CC
:10406000880F991FFC01E455FF4FA591B491FC0105
:10407000E654FF4FC591D491662351F42FB7F894BD
:104080008C91932F909589238C93888189230BC0E1
:10409000623061F42FB7F8948C91932F9095892317
:1040A0008C938881832B88832FBF06C09FB7F89499
:1040B0008C91832B8C939FBFDF91CF910895883093
:1040C00071F1893068F4823031F1833020F481302D
:1040D00009F042C01DC0833089F08430E9F512C078
:1040E0008B3059F18C3028F48930E9F08A30A1F511
:1040F0001EC08C3031F18E3079F529C0809180005E
:104100008F7703C0809180008F7D80938000089519
:1041100084B58F7702C084B58F7D84BD089580916A
:1041200090008F7707C0809190008F7D03C08091B1
:104130009000877F8093900008958091C0008F77D2
:1041400003C08091C0008F7D8093C000089580914E
:10415000C200877F8093C2000895FF920F931F9340
:10416000F62E482F50E0CA018E5E9E4FFC0124912E
:10417000CA018C509F4FFC0114914A525F4FFA01C3
:1041800004910023C9F0222319F0822F0E945F209E
:10419000E02FF0E0EE0FFF1FE654FF4FA591B49122
:1041A0009FB7F894FF2021F48C911095812302C0D1
:1041B0008C91812B8C939FBF1F910F91FF9008953D
:1041C0000F931F93482F50E0CA018E5E9E4FFC0153
:1041D0002491CA018C509F4FFC0104914A525F4FB9
:1041E000FA011491112319F420E030E015C02223C4
:1041F00019F0822F0E945F20812F90E0880F991F75
:1042000088539F4FFC01A591B4918C9120E030E040
:10421000802311F021E030E0C9011F910F91089532
:104220008F929F92AF92BF92CF92DF92EF92FF92C6
:104230000F931F93CF93DF93A82FB0E0CD018C5045
:104240009F4FFC018490AA52BF4FFD0184916623C9
:1042500011F4992401C0982C6FEFA62E6FEFB62EA3
:104260006FEFC62E6FE0D62EA222B322C422D52233
:10427000682F70E0660F771F68537F4FEE24FF248E
:104280008701FB01A591B4910BC0EA14FB040C0556
:104290001D0509F44EC00894E11CF11C011D111DFF
:1042A0008C918821891589F30CC0EA14FB040C0554
:1042B0001D0509F43EC00894E11CF11C011D111DEF
:1042C00003C0FB01A591B4918C918821891569F7F0
:1042D00020E030E040E050E0FB01C591D4910FC0F8
:1042E000DA01C9018E0D9F1DA01FB11F8A159B0504
:1042F000AC05BD05F1F02F5F3F4F4F4F5F4F8881F9
:104300008821891569F3CA01B90125E130E040E04F
:1043100050E00E94212C9B01AC01205F3F4F4F4F8A
:104320005F4F84E056954795379527958A95D1F745
:1043300004C020E030E040E050E0B901CA01DF9164
:10434000CF911F910F91FF90EF90DF90CF90BF9092
:10435000AF909F908F900895089508952091E3065F
:104360003091E4068091E5069091E606281B390B12
:104370002F733070C90108952091E3063091E4064F
:104380008091E5069091E6062817390719F42FEF7A
:104390003FEF09C0E091E506F091E606ED55F94FD3
:1043A0008081282F30E0C90108952091E3063091E3
:1043B000E4068091E5069091E6062817390719F47E
:1043C0002FEF3FEF13C0E091E506F091E606ED55C3
:1043D000F94F20818091E5069091E60601968F7352
:1043E00090709093E6068093E50630E0C901089549
:1043F0001092EA061092E90688EE93E0A0E0B0E0A1
:104400008093EB069093EC06A093ED06B093EE0636
:1044100082E494E09093E8068093E70608950F9372
:104420001F93DF93CF930F92CDB7DEB78C016983D3
:104430008091A101882369F083E0BE016F5F7F4F07
:1044400041E050E00E9434271816190614F49C012C
:1044500007C081E090E0F8019383828320E030E0A0
:10446000C9010F90CF91DF911F910F91089583E0C3
:104470000E940B270895CF93DF9312C082E00E9421
:1044800096262FEF8F3F9207C9F0E091E306F09157
:10449000E406ED55F94F8083D093E406C093E3061C
:1044A000C091E306D091E4062196CF73D07080913D
:1044B000E5069091E606C817D90701F7DF91CF917D
:1044C0000895FC0180818E5F808380E86CE371E059
:1044D00042E450E00E94AF260895FC018181908162
:1044E000913A59F4813209F04CC080E06AE971E0F8
:1044F00047E050E00E94AF2642C0913209F041C02F
:10450000803239F48AE991E067E070E00E94F32696
:1045100036C0823209F035C082818093A10180913A
:104520009A0190919B01A0919C01B0919D01805BAB
:104530009440A040B04019F58091A10180FD12C0C7
:1045400087E797E790930108809300082BE088E1C4
:1045500090E00FB6F894A895809360000FBE20936A
:1045600060000DC088E10FB6F8948093600010924F
:1045700060000FBEA895109201081092000881E01B
:10458000089580E00895CF93DF930E94EA1E89E1A9
:1045900097E00E9416270E94A601C0E0D0E00E948A
:1045A000A1012097E1F30E940000F9CF08950E9435
:1045B000A9290895CF92DF92EF92FF920F931F9354
:1045C000CF93DF937C016B018A01C0E0D0E00FC084
:1045D000D6016D916D01D701ED91FC910190F081B3
:1045E000E02DC7010995C80FD91F015010400115D2
:1045F000110571F7CE01DF91CF911F910F91FF90BF
:10460000EF90DF90CF900895CF93DF93EC010E945D
:10461000831E688779878A879B87E881F98106806E
:10462000F781E02DCE0109959C0197FF15C00E94EE
:10463000831E288539854A855B85621B730B840B35
:10464000950B2C813D814E815F8162177307840732
:10465000950718F32FEF3FEFC901DF91CF91089530
:10466000CF92DF92EF92FF920F931F93CF93DF933E
:104670006C018B017A01C0E0D0E009C0C6010E9444
:10468000042397FD07C0F80181938F012196CE1571
:10469000DF05A0F3CE01DF91CF911F910F91FF9025
:1046A000EF90DF90CF9008958230B9F0833028F4F6
:1046B000882351F08130F9F40AC08430B9F0843095
:1046C00090F08530C1F415C010926E00089580916D
:1046D0006F008D7F80936F000895809170008D7FB3
:1046E00080937000089510927100089510927200E6
:1046F00008951092730008951F920F920FB60F92B3
:1047000011242F933F934F935F936F937F938F93D6
:104710009F93AF93BF93EF93FF9380910307909183
:104720000407A0910507B09106070097A105B10500
:1047300051F1E0910707F0910807808190910907F6
:10474000892780838091030790910407A091050732
:10475000B0910607181619061A061B060CF580916B
:10476000030790910407A0910507B09106070197F0
:10477000A109B1098093030790930407A09305074B
:10478000B09306070DC083E00E945423E091070711
:10479000F091080790818091090780958923808393
:1047A000FF91EF91BF91AF919F918F917F916F9109
:1047B0005F914F913F912F910F900FBE0F901F90DF
:1047C00018951F93182F8091A201811711F09FEF68
:1047D00006C0EEE7F1E094918FEF8093A201892F5C
:1047E0000E945423812F60E00E94AD201F91089504
:1047F0002F923F925F926F927F928F929F92AF9291
:10480000BF92CF92DF92EF92FF920F931F93DF93AD
:10481000CF9300D000D0CDB7DEB7A82F1B012983DE
:104820003A834B835C838091A2018A1721F4EEE7DF
:10483000F1E05490AFC08F3F09F02EC2A093A201C7
:10484000EEE7F1E054902FEF521609F425C281E013
:10485000581671F185151CF0552051F09BC093E05E
:10486000591609F44BC0B4E05B1609F093C06CC054
:1048700014BC15BC84B5826084BD85B5816085BDDE
:104880002A2F30E0F901EA52FF4FE491F0E0EE0FF9
:10489000FF1FE654FF4F859194919093FA06809301
:1048A000F9062C503F4FF90184918093FB0674C0A8
:1048B0001092800010928100809181008860809326
:1048C0008100809181008160809381002A2F30E0F7
:1048D000F901EA52FF4FE491F0E0EE0FFF1FE654BA
:1048E000FF4F8591949190930107809300072C507E
:1048F0003F4FF9018491809302074EC010929000BF
:104900001092910080919100886080939100809135
:1049100091008160809391002A2F30E0F901EA52E2
:10492000FF4FE491F0E0EE0FFF1FE654FF4F85913B
:10493000949190930807809307072C503F4FF901FB
:1049400084918093090728C01092C0001092C10082
:104950008091C10088608093C1008091C100816016
:104960008093C1002A2F30E0F901EA52FF4FE49111
:10497000F0E0EE0FFF1FE654FF4F85919491909366
:104980000F0780930E072C503F4FF90184918093BD
:10499000100702C057FC80C18A2F61E00E942020CE
:1049A000552021F0F2E05F1609F0BAC031018824E9
:1049B000992460E072E18AE790E0A40193010E94EB
:1049C000812C59016A01860175010894E108F108FA
:1049D000010911092FEFE216F1040105110509F093
:1049E00008F498C060E472E48FE090E0A4019301C1
:1049F0000E94812C79018A010894E108F1080109DB
:104A0000110982E05816C1F49FEFE916F10401057F
:104A1000110509F008F4CEC060E970ED83E090E084
:104A2000A40193010E94812C79018A010894E10874
:104A3000F1080109110983E0AFEFEA16F10401055D
:104A4000110509F008F467C068E478EE81E090E0B1
:104A5000A40193010E94812C79018A010894E10844
:104A6000F10801091109552011F483E01DC0B2E0DD
:104A70005B1611F084E018C0EFEFEE16F1040105AB
:104A8000110509F008F496C064E274EF80E090E04C
:104A9000A40193010E94812C79018A010894E10804
:104AA000F1080109110985E0FFEFEF16F104010596
:104AB000110589F180F162E17AE780E090E0A401DC
:104AC00093010E94812C79018A010894E108F10880
:104AD00001091109552011F086E001C084E02FEF93
:104AE000E216F10401051105B1F0A8F0C601B50107
:104AF00020E034E040E050E00E94812C79018A01FE
:104B00000894E108F10801091109552009F052C083
:104B100085E004C081E0552009F04CC085BD4AC045
:104B20005101CC24DD2460E072E18AE790E0A60127
:104B300095010E94812C79018A010894E108F1080D
:104B40000109110980E0E81680E0F80681E0080715
:104B500080E0180710F491E010C068E478EE81E07E
:104B600090E0A60195010E94812C79018A010894A8
:104B7000E108F1080109110993E0A1E05A1639F49E
:104B800080918100887F982B9093810013C0B3E0BF
:104B90005B1639F480919100887F982B9093910057
:104BA00009C0E4E05E1631F48091C100887F982B43
:104BB0009093C10089819A81AB81BC810097A10546
:104BC000B10529F48FEF9FEFAFEFBFEF13C0220CB9
:104BD000331CB10180E090E029813A814B815C81F6
:104BE0000E94212C28EE33E040E050E00E945F2C30
:104BF000C901DA01E1E05E16E1F0E5151CF055208F
:104C000049F04AC0F3E05F1631F124E0521609F092
:104C100043C033C0E7BC8093F5069093F606A0939B
:104C2000F706B093F80680916E00826080936E0064
:104C300033C0F0928900E09288008093FC06909344
:104C4000FD06A093FE06B093FF0680916F00826080
:104C500080936F0021C0F0929900E09298008093B9
:104C6000030790930407A0930507B093060780916C
:104C700071008260809371000FC0E092CF0080933A
:104C80000A0790930B07A0930C07B0930D07809130
:104C900072008064809372000F900F900F900F90BD
:104CA000CF91DF911F910F91FF90EF90DF90CF9008
:104CB000BF90AF909F908F907F906F905F903F904C
:104CC0002F900895282F809113078823C1F057FF54
:104CD0001AC015C02898909312078091F100819313
:104CE000E217F307B9F74115510539F08091F20049
:104CF000882319F48BE68093E800AFBF02C04FEF22
:104D00005FEFCA010895AFB7F89427702093E900C8
:104D10008091F200282F30E0241735070CF4A90108
:104D2000FB019B01240F311D94E6DACFDF93CF9373
:104D30000F92CDB7DEB7BE016F5F7F4F41E050E00D
:104D40000E946226019719F02FEF3FEF03C089817F
:104D5000282F30E0C9010F90CF91DF910895FF9285
:104D60000F931F93F82E142F052F40911607509183
:104D70001707212F302FC901DC01FB016EEF29C07D
:104D8000F7FE02C0949101C09081209114073091E8
:104D9000150724173507ACF48091E8008570E1F31E
:104DA0008091E80082FF03C02FEF3FEF17C0909380
:104DB000F100C90101968F739070892B11F46093F3
:104DC000E8002F5F3F4F309315072093140711978A
:104DD00031961097A9F6812F902F9C01C9011F9140
:104DE0000F91FF9008959C018091E80082FFFCCF15
:104DF000F901260F311D03C08091F1008193E21764
:104E0000F307D1F7289884E6809312078BEF8093FD
:104E1000E800CB0108958093E9008091F200882397
:104E200019F08AE38093E80008950895109213071B
:104E300081E08093D70080EA8093D80082E189BD29
:104E400009B400FEFDCF61E070E080E090E00E94D8
:104E5000911E80E98093D8008CE08093E20010924C
:104E6000E000559A209A08955F926F927F928F92F8
:104E70009F92AF92BF92CF92DF92EF92FF920F93E9
:104E80001F93CF93DF93E82E842E752E8091130706
:104E9000882371F18B01242F352FC901EC017AEFA2
:104EA000F72E67E0962E9E2050E4552E8E2D90E032
:104EB00040E2A42EB12CA822B9223AE3632E20E4CA
:104EC000C22ED12CC822D92258C09FB7F8949092F4
:104ED000E9008091E80085FD02C020E004C08091D7
:104EE000F200252D281B9FBF222361F4FA9419F4A8
:104EF0002FEF3FEF4DC061E070E080E090E00E9456
:104F0000911E3BC0822F90E0C817D9070CF42C2FBC
:104F1000C21BD1094FB7F8949092E900A114B104D3
:104F200021F406C01092F10021502223D9F719C0B4
:104F3000E7FC03C0F801922F10C0C801322F06C051
:104F4000FC010196E491E093F10031503323C1F765
:104F500006C081918093F10091509923D1F7020FFF
:104F6000111D8091E80085FF05C0209729F4C11428
:104F7000D10411F06092E8004FBF209709F0A5CF4F
:104F80005D9884E680931107282D372DC9019C0177
:104F9000C901DF91CF911F910F91FF90EF90DF90AA
:104FA000CF90BF90AF909F908F907F906F905F90C9
:104FB00008951F920F920FB60F9211242F933F93D3
:104FC0004F935F936F937F938F939F93AF93BF9311
:104FD000EF93FF938091E1001092E100982F83FFFF
:104FE0000FC01092E90081E08093EB001092EC007A
:104FF00082E38093ED001092130788E08093F00025
:1050000092FF34C083E08093E9008091F20088230E
:1050100019F08AE38093E8008FB7F89492E09093B8
:10502000E9009091F2008FBF992321F087EE96E07E
:105030000E943B2280911107882351F08091110733
:1050400081508093110780911107882309F45D9A9C
:1050500080911207882351F080911207815080932C
:10506000120780911207882309F4289AFF91EF9183
:10507000BF91AF919F918F917F916F915F914F9170
:105080003F912F910F900FBE0F901F9018950F9387
:105090001F93DF93CF930F92CDB7DEB719828E01A6
:1050A0000F5F1F4FC8010E946122C8010E94152C8A
:1050B000898190E00F90CF91DF911F910F9108951A
:1050C0001F920F920FB60F921124EF92FF921F932F
:1050D0002F933F934F935F936F937F938F939F9300
:1050E000AF93BF93EF93FF93DF93CF93CDB7DEB72B
:1050F0006197DEBFCDBF1092E9008091E80083FF89
:105100000FC1FE0131969E01275F3F4F03C0809182
:10511000F1008193E217F307D1F7289884E6809392
:10512000120782EF8093E800998197FF05C0809174
:10513000E80080FFFCCF03C08EEF8093E800292FAA
:1051400030E0C90180769070892B09F0C2C08A8155
:10515000882329F41092F1001092F100D6C081301A
:1051600009F4D3C0833009F4D0C0853049F480916C
:10517000E80080FFFCCF8B8180688093E300C5C08E
:10518000863009F07CC01C81EF80F8841230C1F5B4
:105190001092E90010921507109214071092170749
:1051A000109216070E94472899E0FE013996DF0108
:1051B000292F1D922A95E9F799871A8791E09E87F2
:1051C00090E8988B9AEF998B2091140730911507EE
:1051D000275F3F4F3C872B878D871092E900109205
:1051E000150710921407F0921707E092160780E057
:1051F000BF0149E050E00E94AF260E94472885C0C9
:105200001092E9001092150710921407F0921707F8
:10521000E0921607123241F482E290E00E940D2CD7
:10522000892B09F476C071C0113079F488E0E81652
:10523000F10419F481E080931807809118078823FE
:1052400009F06BC0EDEBF1E013C0133009F061C061
:105250008B81882319F4EFE7F1E00AC0823019F45A
:10526000E3E8F1E005C0813009F053C0E5EAF1E080
:10527000449180E8BF0150E00E94AF2646C08730CD
:1052800009F447C0883021F481E08093F1003DC0EB
:105290008930D9F523703070232BD9F5E2EEF1E097
:1052A00091E031E026E39093E9003093EB008491A4
:1052B0008093EC002093ED009F5F3196953099F735
:1052C0008EE78093EA001092EA008B8180931307A7
:1052D0001CC08F8198851092E900109215071092DA
:1052E000140790931707809316078D81882329F45C
:1052F000CE0101960E946D2206C0823051F4CE018B
:1053000001960E94DE2A882321F08EEF8093E80028
:1053100007C081E28093EB0003C0EFECF1E0A8CF7F
:105320006196DEBFCDBFCF91DF91FF91EF91BF912D
:10533000AF919F918F917F916F915F914F913F912D
:105340002F911F91FF90EF900F900FBE0F901F9025
:1053500018950F931F93CF93DF93BC018230910573
:1053600010F462E070E0E0912907F0912A0740E034
:1053700050E0A0E0B0E024C08081918186179707BB
:10538000D0F08617970771F482819381109729F0E6
:1053900013969C938E9312972CC090932A07809318
:1053A000290727C04115510519F08417950718F4EE
:1053B0008D01AC01EF01DF01828193819C01F90134
:1053C0003097D1F641155105F9F0CA01861B970BAC
:1053D0008430910580F48A819B810115110521F0AB
:1053E000F8019383828304C090932A07809329074E
:1053F000FE01329645C0FE01E80FF91F61937193DB
:105400000297998388833CC0809127079091280751
:10541000892B41F48091A5019091A60190932807D2
:10542000809327074091A7015091A801411551058C
:1054300041F44DB75EB78091A3019091A401481B40
:10544000590B209127073091280724173507B0F40E
:10545000CA01821B930B8617970780F0AB014E5F42
:105460005F4F8417950750F0420F531F5093280742
:1054700040932707F9016193719302C0E0E0F0E0E7
:10548000CF01DF91CF911F910F910895CF93DF93BB
:105490009C01009709F48FC0EC0122971B821A82AD
:1054A0006091290770912A076115710581F488813F
:1054B0009981820F931F2091270730912807281781
:1054C000390739F5D0932807C093270774C0DB014B
:1054D00040E050E0AC17BD0708F1BB83AA83FE0192
:1054E00021913191E20FF31FAE17BF0779F48D912F
:1054F0009C911197280F391F2E5F3F4F39832883C6
:1055000012968D919C9113979B838A834115510527
:1055100071F4D0932A07C09329074DC012968D913C
:105520009C911397AD01009711F0DC01D3CFDA0104
:105530001396DC93CE931297FA0121913191E20FE9
:10554000F31FCE17DF0769F488819981280F391F6F
:105550002E5F3F4FFA01318320838A819B819383A1
:105560008283E0E0F0E0DB0112968D919C9113972D
:10557000009719F0BC01FD01F6CFAB014E5F5F4F04
:10558000DB018D919C91840F951F2091270730910D
:1055900028072817390779F4309729F410922A0739
:1055A0001092290702C01382128242505040509339
:1055B000280740932707DF91CF910895FC0191813F
:1055C0008081813A31F4913089F080E0933089F420
:1055D0000DC0813269F49B3021F482818093A9014E
:1055E00005C09A3029F482818093AA0181E0089550
:1055F00080E00895EF92FF920F931F938C01E62EA7
:10560000DC01ED91FC910480F581E02D0995F82EE7
:10561000D801ED91FC910680F781E02DC8016E2D37
:1056200009958F2D90E01F910F91FF90EF900895B5
:1056300010921A0710921E0710921D0784E594E03D
:1056400090931C0780931B070895EF92FF920F938E
:105650001F93DF93CF930F92CDB7DEB789838B0172
:105660007A0184E0BE016F5F7F4F41E050E00E940D
:10567000342784E4B801A7010E9434270F90CF910A
:10568000DF911F910F91FF90EF90089582E048E025
:1056900050E00E94252B0895FC0116821782108687
:1056A00011861286138614823496BF010E94462BFF
:1056B0000895DC01683810F0685829C0E62FF0E042
:1056C00067FF13C0E058F04081E090E002C0880F0F
:1056D000991FEA95E2F7809514962C911497282348
:1056E00014962C93149760E012C0EC59FD4F64910E
:1056F000662319F420E030E01DC067FF08C014964F
:105700008C9114978D7F14968C9314976F77FD016D
:1057100090E0662321F08681861709F416829F5F48
:1057200031969630B1F7CD011496BD010E94462BFB
:1057300021E030E0C9010895CF93DF93DC016838A0
:1057400010F0685825C0E62FF0E067FF12C0E0585F
:10575000F04081E090E002C0880F991FEA95E2F7DF
:1057600014962C911497282B14962C93149760E080
:105770000FC0EC59FD4F64916623D9F167FF08C053
:1057800014968C911497826014968C9314976F776B
:1057900016968C9116978617A9F117968C911797E4
:1057A000861781F118968C911897861759F11996DA
:1057B0008C911997861731F11A968C911A97861742
:1057C00009F11B968C911B978617E1F0ED01E0E043
:1057D000F0E09E2F8E81882321F4EA0FFB1F668361
:1057E00006C09F5F31962196E630F10591F796301D
:1057F00049F481E090E013969C938E93129720E0F9
:1058000030E007C0CD011496BD010E94462B21E077
:1058100030E0C901DF91CF91089580E866EE71E034
:1058200045E650E00E94AF260895FC0180818F5F1D
:10583000808380E86BE472E049E150E00E94AF268B
:105840000895629FD001739FF001829FE00DF11DCA
:10585000649FE00DF11D929FF00D839FF00D749FEA
:10586000F00D659FF00D9927729FB00DE11DF91F96
:10587000639FB00DE11DF91FBD01CF0111240895F3
:10588000991B79E004C0991F961708F0961B881F92
:105890007A95C9F78095089597FB092E07260AD0B7
:1058A00077FD04D049D006D000201AF47095619598
:1058B0007F4F0895F6F7909581959F4F0895A1E247
:1058C0001A2EAA1BBB1BFD010DC0AA1FBB1FEE1F7A
:1058D000FF1FA217B307E407F50720F0A21BB30BC5
:1058E000E40BF50B661F771F881F991F1A9469F741
:1058F00060957095809590959B01AC01BD01CF019D
:10590000089597FB092E05260ED057FD04D0D7DF4A
:105910000AD0001C38F450954095309521953F4FA2
:105920004F4F5F4F0895F6F790958095709561956C
:105930007F4F8F4F9F4F0895AA1BBB1B51E107C09C
:10594000AA1FBB1FA617B70710F0A61BB70B881F0F
:10595000991F5A95A9F780959095BC01CD0108959E
:10596000EE0FFF1F0590F491E02D0994F894FFCFFE
:10597000446562756767696E6720456E61626C6534
:105980006400536572766F2000203A2000437265F0
:1059900061746564204E657720536572766F204F81
:1059A0006E204368616E6E656C200000127A000004
:1059B000093D0080841E0040420F0020A107009096
:1059C000D0030048E80100040000000500010006C3
:1059D00000020003002C01000058020000B0040087
:1059E0000060090000C0120000802500004038005F
:1059F00000004B000080700000127A00000096004A
:105A00000000E1000000C201000100E10000000010
:105A10000000FF80002B070000010100000000577C
:105A2000022602DF01E801FD010E02417264756980
:105A30006E6F2050726F204D6963726F000001021B
:105A400003060708090AE0C810000300000102036A
:105A50000405060708090A0E0F1012131415030592
:105A600006090A00000000001810920F330E480FBC
:105A7000110FA50E730E6E0E450A500A570ADA0D65
:105A8000C50DEA0A970D350DED0ABB0CF00AAC0CFA
:105A90008D0C820C4D0831081C08550862086D08F1
:105AA0009E08AB08CD08E80801091A0933094C091A
:105AB00065097E09790CED0B640B250B320D270D62
:105AC000A00E200B1B0BE6079B099C099D099E0954
:105AD0009F09A009A109A209A309A409A509A6096A
