:100000000C9484010C94AC010C94AC010C94AC01E4
:100010000C94AC010C94AC010C94AC010C94AC01AC
:100020000C94AC010C94AC010C9443270C940F2657
:100030000C94AC010C94AC010C94AC010C94AC018C
:100040000C94AC010C94D7040C94AC010C94AC014E
:100050000C94AC010C94AC010C94AC010C94931C6A
:100060000C94AC010C94AC010C94AC010C94AC015C
:100070000C94AC010C94AC010C94AC010C94AC014C
:100080000C94B3230C94AC010C94AC010C94AC0113
:100090000C94AA030C94AC010C94AC010C94AC012C
:1000A0000C94AC010C94AC010C94AC01E41DE91D62
:1000B000EE1DF81D021E4C1E4C1E4C1E0C1E161E64
:1000C000201E2A1E371E4C1E3F1E6D1E701E5F1EF8
:1000D000631E691E911E911E911E741E781E7C1E49
:1000E000821E861E911E8C1E070605040100080A4A
:1000F0000B0C0D090000000200090F0000030401B1
:10010000000C0000000000000000000000000000E3
:100110000000040802011040804010204080408010
:10012000080204018040201002011080102040408D
:10013000040404040403040502020202040302028C
:100140000202060606060606040402020204000075
:1001500000002300260029002C002F0000000000D2
:10016000250028002B002E00310000000000240094
:1001700027002A002D003000080B000202020100B7
:1001800009040000010202000005240010010524FA
:10019000010101042402060524060001070581036C
:1001A00010004009040100020A00000007050202D5
:1001B000400000070583024000000300C18081C1A8
:1001C00012010002020000404123378000010102B9
:1001D00000011201000200000040412337800001AD
:1001E0000102000141726475696E6F204C4C43003E
:1001F00041726475696E6F204D6963726F0004030C
:10020000090400000000000000002A2B2800000064
:1002100000000000000000000000000000000000DE
:1002200000002C9EB4A0A1A2A434A6A7A5AE362D92
:100230003738271E1F20212223242526B333B62E2C
:10024000B7B89F8485868788898A8B8C8D8E8F909E
:100250009192939495969798999A9B9C9D2F313063
:10026000A3AD350405060708090A0B0C0D0E0F1087
:100270001112131415161718191A1B1C1DAFB1B043
:10028000B50009040200010300000009210101007A
:10029000012265000705840340000105010902A150
:1002A000010901A10085010509190129031500258E
:1002B0000195037501810295017505810305010909
:1002C00030093109381581257F750895038106C0ED
:1002D000C005010906A1018502050719E029E715F6
:1002E0000025017501950881029501750881039526
:1002F000067508150025650507190029658100C0E8
:10030000C802EA117520F02811241FBECFEFDAE0F1
:10031000DEBFCDBF14E0A0E0B1E0ECEAF5E502C03D
:1003200005900D92A639B107D9F727E0A6E9B4E008
:1003300001C01D92A136B207E1F713E0C8E0D3E097
:1003400004C02297FE010E946029C030D107C9F77E
:100350000E9493200C94D42A0C940000CF93DF9336
:1003600083EC90E00E94A620EC010E947406D093DA
:100370009704C093960440E0BE0186EA95E0DF91C1
:10038000CF910C94301086EA95E00C94A611CF938F
:10039000CFB7F89480919804811127C0E1E4F1E08F
:1003A0008491E3E2F1E09491E82FF0E0EE0FFF1F7B
:1003B000E659FE4FA591B4918C91892321F461E017
:1003C00081E10E94CB1E61E081E10E94921E8CB50A
:1003D00080618CBD8CB580648CBD61E08FE00E9433
:1003E000921E61E080E10E94921E809198048F5FCE
:1003F00080939804CFBFCF9108958091C90490E075
:100400002091CA04821B910908952091CA04809109
:10041000C904281750F4E22FF0E0E553FB4F808128
:1004200090E02F5F2093CA0408958FEF9FEF089507
:10043000E091CA048091C904E81730F4F0E0E55374
:10044000FB4F808190E008958FEF9FEF089508950E
:10045000CF92DF92EF92FF920F931F93CF93DF9390
:100460007C01CB018A012091A504222389F0EB01B4
:100470006B01C40ED51ECC15DD0569F06991D7015D
:10048000ED91FC910190F081E02DC7010995F3CF2A
:10049000642F0E948103C801DF91CF911F910F91BA
:1004A000FF90EF90DF90CF900895CF93DF931F924E
:1004B000CDB7DEB769832091A5042223D1F0209126
:1004C000A604203240F021E030E0FC013383228397
:1004D00080E090E015C08091A704E82FF0E0E85597
:1004E000FB4F998190838F5F8093A7048093A6042C
:1004F00005C061E0CE0101960E94810381E090E099
:100500000F90DF91CF910895FC011382128248EE83
:1005100053E060E070E0448355836683778388E727
:1005200091E09183808308951092CA041092C904C7
:100530001092A7041092A6040C94CC02862F41328C
:1005400008F040E26BEC74E00E94EA021092CA04E8
:100550008093C904089581E08093A5046093C80442
:100560001092A7041092A60408950F93062F21E07D
:100570004091A60468EA74E08091C8040E942E03AA
:100580001092A7041092A6041092A5040F9108954A
:1005900089E994E00C9484021092580581E08093DC
:1005A00056051092550561E082E00E94CB1E61E085
:1005B00083E00E94CB1EE9EBF0E080818E7F808398
:1005C00080818D7F808388E48093B80085E4809368
:1005D000BC000895413208F03FC090915805911138
:1005E000FCCF91E090935805209356052FEF209370
:1005F000EB0410923005240F20932F05909357059C
:1006000090915705880F892B809357058091550548
:10061000813041F410925505809157058093BB00BD
:1006200085EC01C085EE8093BC0080915805813037
:10063000E1F380913005841710F44091300521E3F7
:1006400035E0FB01D9018A2F821B841718F48D91A4
:100650008193F9CF842F089580E008950F9341325C
:1006600008F046C0909158059111FCCF92E090930C
:100670005805009356059FEF9093EB0410923005B8
:1006800040932F05FB0161E375E0DB019A2F961B78
:10069000941718F491919D93F9CF1092570590916A
:1006A0005705880F892B8093570580915505813018
:1006B00041F410925505809157058093BB0085EC5D
:1006C00001C085EE8093BC00222321F08091580563
:1006D0008230E1F38091EB048F3F61F08091EB0475
:1006E000803251F08091EB04803341F483E007C005
:1006F00081E005C080E003C082E001C084E00F918A
:100700000895613298F420915805243089F460935B
:100710000D05FC018FE095E0DC012A2F281B261730
:1007200018F421912D93F9CF80E0089581E0089588
:1007300082E0089585ED8093BC008091BC0084FD2B
:10074000FCCF10925805089585EC8093BC00109260
:10075000580508951F920F920FB60F9211242F93F0
:100760003F934F935F936F937F938F939F93AF9339
:10077000BF93EF93FF938091B900887F803609F48F
:100780009CC068F5883209F45BC090F4803109F4AC
:1007900054C038F4882309F4F5C0883009F44DC0FA
:1007A000F5C0883109F44CC0803209F45DC0EEC058
:1007B000803409F468C048F4803309F455C08833A4
:1007C00009F0E4C08093EB04A8C0803509F44FC061
:1007D000883509F45DC0883409F0D8C0D5C088399F
:1007E00009F4C6C0A8F4883709F467C038F488361D
:1007F00009F463C0803709F460C0C8C0883809F4C0
:10080000B7C0803909F45FC0803809F0BFC05BC051
:10081000803B09F485C038F4803A09F466C0883A10
:1008200009F47EC0B3C0803C09F4A6C0883C09F43A
:10083000A3C0883B09F489C0A9C08091570510C0A6
:100840009091300580912F05981770F5E091300553
:1008500081E08E0F80933005F0E0EF5CFA4F8081ED
:100860008093BB0085EC85C08093EB048DC0E09144
:10087000300581E08E0F809330058091BB00F0E061
:10088000EF5CFA4F80839091300580912F056DC009
:10089000E091300581E08E0F809330058091BB00A0
:1008A000F0E0EF5CFA4F80838091560581116CC0B7
:1008B00081E08093550584EA60C083E08093580509
:1008C0001092EC04CFCF8091EC04803208F050C03D
:1008D000E091EC0481E08E0F8093EC048091BB00EA
:1008E000F0E0E351FB4F8083BDCF8091EC04803278
:1008F00030F4E091EC04F0E0E351FB4F10820E94F1
:100900009A036091EC0470E0E0915105F09152057A
:100910008DEE94E009951092EC040E94A40336C079
:1009200084E08093580510920E0510920D05E09119
:100930005305F0915405099580910D05811105C06D
:1009400081E080930D0510920F05E0910E0581E086
:100950008E0F80930E05F0E0E15FFA4F8081809367
:10096000BB0090910E0580910D05981708F47ACF81
:1009700085E88093BC000AC085EC8093BC0010928F
:10098000580504C01092EB040E949A03FF91EF9166
:10099000BF91AF919F918F917F916F915F914F9197
:1009A0003F912F910F900FBE0F901F9018951F929F
:1009B0000F920FB60F9211242F933F934F935F9393
:1009C0006F937F938F939F93AF93BF93EF93FF9317
:1009D00080915A0587FF05C010928500109284000F
:1009E0001AC020915A05332727FD3095809159056B
:1009F00090E0281739077CF480915A05992787FDE4
:100A00009095FC01EE0FFF1FE80FF91FE55AFA4F12
:100A1000808186FD15C080915A058F5F80935A05AD
:100A200020915A05332727FD30958091590590E094
:100A300028173907BCF480915A058C305CF112C03C
:100A400080915A05992787FD9095FC01EE0FFF1FB5
:100A5000E80FF91FE55AFA4F808160E08F730E941A
:100A6000CB1ED9CF8091840090918500049680346C
:100A70009C4918F480E49CE905C080918400909121
:100A80008500049690938900809388008FEF80936F
:100A90005A0538C0209184003091850080915A0514
:100AA000992787FD9095FC01EE0FFF1FE80FF91FB6
:100AB000E55AFA4F81819281820F931F90938900AA
:100AC0008093880080915A05992787FD9095FC01B5
:100AD000EE0FFF1FE80FF91FE55AFA4F808186FFDE
:100AE00011C080915A05992787FD9095FC01EE0F62
:100AF000FF1FE80FF91FE55AFA4F808161E08F73FD
:100B00000E94CB1EFF91EF91BF91AF919F918F916A
:100B10007F916F915F914F913F912F910F900FBEF9
:100B20000F901F901895209159052C30A0F431E0BA
:100B3000320F30935905FC012083822F90E0FC0195
:100B4000EE0FFF1FE80FF91FE55AFA4F88EB9BE005
:100B50009283818308952FEFFC0120830895DF9213
:100B6000EF92FF920F931F93CF93DF93EC01D62E5A
:100B70007A01890188818C3008F066C061E08D2D92
:100B80000E94921E8881A82FB0E0FD01EE0FFF1F8A
:100B9000EA0FFB1FE55AFA4F2D2D2F739081907CA1
:100BA000922B908360E272E06E197F0977FF02C09A
:100BB0006D5F7F4F7595679575956795698340E67D
:100BC00059E0401B510B57FF02C04D5F5F4F5595D9
:100BD0004795559547954A836CE00E94FD289CE017
:100BE000899FB001112420E030E0A901460F571F72
:100BF000FA01EE0FFF1FE40FF51FE55AFA4F90813F
:100C000096FD16C02F5F3F4F2C30310571F78111D3
:100C10000FC01092800082E08093810010928500C6
:100C200010928400B19A80916F00826080936F006F
:100C3000888190E0FC01EE0FFF1FE80FF91FE55AD5
:100C4000FA4F8081806480838881DF91CF911F91EA
:100C50000F91FF90EF90DF90089520E639E040E299
:100C600052E00C94AF05FC01808190E0FC01EE0F96
:100C7000FF1FE80FF91FE55AFA4F80818F7B8083B1
:100C80000895FC0180818C3070F5918128E830E076
:100C9000291B310997FD3395220F331F220F331F74
:100CA000621773077CF0928128E532E0291B310935
:100CB00097FD3395220F331F220F331F62177307DF
:100CC0000CF49B0122503109220F331F4FB7F894C7
:100CD00090E0FC01EE0FFF1FE80FF91FE55AFA4FF5
:100CE000328321834FBF0895CF93DF93EC010E949D
:100CF0000A0788E891E09983888329E02B83A2E1A1
:100D0000AC838DE392E09E838D8382E08F8318868F
:100D10001986AA878CE192E09C878B872D8724E334
:100D200032E03F872E872AE0288B40E45BE46CE4C6
:100D300070E04D8B5E8B6F8B788F498B5A8B6B8BF2
:100D40007C8BFE01E355FF4F2EE232E0318320839E
:100D50003397B1E0B083319620E332E031832083D2
:100D6000349610821182128213823496408351830A
:100D700062837383198E1B8E1A8E25E02C8F27E1D8
:100D800032E03E8F2D8F1F8E19A218A2BAA323EA3C
:100D900035E03CA32BA340913A0150913B01609177
:100DA0003C0170913D014DA35EA36FA378A73496DB
:100DB0002DE0208331962AE031E031832083B9A7EA
:100DC00025EA35E03BA72AA7379624EA35E03183A8
:100DD0002083BCA726E132E03EA72DA7359727E068
:100DE000208331962CE431E03183208332962EE348
:100DF00031E0318320831FA619AA18AAAAAB9CABA5
:100E00008BABCF53DF4F8FE795E099838883DF91DA
:100E1000CF910895CF93DF93EC010E94650F83E596
:100E200092E09983888382E08A83DF91CF9108954D
:100E3000EF92FF920F931F93CF93DF9300D000D0D8
:100E4000CDB7DEB77C0119821A821B821C82DC01BD
:100E5000ED91FC9102A0F3A1E02D8E010F5F1F4FD9
:100E600020E032EC41E050E00995D701ED91FC9192
:100E7000E258FF4F0190F081E02D61EE72E0C70172
:100E800009950F900F900F900F90DF91CF911F91C8
:100E90000F91FF90EF90089508950895CF93DF93F9
:100EA0001F92CDB7DEB74983DC01ED91FC9102A41E
:100EB000F3A5E02D9E012F5F3F4F41E009950F9074
:100EC000DF91CF910895FF920F931F93CF93DF93FC
:100ED000EC01F62E8A01F80141918F01442349F07B
:100EE000E881F98104A4F5A5E02D6F2DCE010995C7
:100EF000F2CFDF91CF911F910F91FF900895DC0108
:100F0000ED91FC9100A8F1A9E02D0994DC01ED918F
:100F1000FC919A01442737FD4095542F06A8F7A964
:100F2000E02D0994DC01ED91FC919A0140E050E044
:100F300000ACF1ADE02D0994CF92DF92EF92FF92D9
:100F40000F931F93CF93DF93EC01162F69017A0162
:100F500057FF0FC0E881F98104A4F5A5E02D4DE20B
:100F60000995F094E094D094C094C11CD11CE11C6C
:100F7000F11CE881F981E457FF4F0190F081E02DE9
:100F80000AE0A7019601612FCE010995DF91CF916B
:100F90001F910F91FF90EF90DF90CF9008950F93E6
:100FA000DC01ED91FC91E457FF4F0190F081E02DC1
:100FB0000AE009950F9108951F93CF93DF93EC01F9
:100FC000162FE881F98104A4F5A5E02D4DE00995DF
:100FD000E881F98104A4F5A5E02D4AE0612FCE0156
:100FE000DF91CF911F9109941F93CF93DF93EC0171
:100FF000162FE881F98104A4F5A5E02D0995E88173
:10100000F98104ACF5ADE02D612FCE01DF91CF91D8
:101010001F9109941F93CF93DF93EC01162FE88162
:10102000F98106A4F7A5E02D0995E881F98104ACC2
:10103000F5ADE02D612FCE01DF91CF911F91099485
:101040001F93CF93DF93EC01162FE881F98100A85D
:10105000F1A9E02D0995E881F98104ACF5ADE02D09
:10106000612FCE01DF91CF911F9109941F93CF93F0
:10107000DF93EC01162FE881F98102A8F3A9E02D96
:101080000995E881F98104ACF5ADE02D612FCE0121
:10109000DF91CF911F9109941F93CF93DF93EC01C0
:1010A000162FE881F98106A8F7A9E02D0995E881B6
:1010B000F98104ACF5ADE02D612FCE01DF91CF9128
:1010C0001F9109941F93CF93DF93EC01162FE881B2
:1010D000F98100ACF1ADE02D0995E881F98104AC0E
:1010E000F5ADE02D612FCE01DF91CF911F910994D5
:1010F000FF920F931F93CF93DF93EC01F62EE881BD
:10110000F98102ACF3ADE02D0995E881F98104ACD9
:10111000F5ADE02D6F2DCE01DF91CF911F910F9195
:10112000FF90099481E090E0089581E090E00895B7
:1011300081E090E0089581E090E0089581E090E002
:1011400008950895089508950895089508950895B7
:1011500008950895089508950895089508950895A7
:1011600008950F931F93DC01ED91FC91011511057A
:1011700039F404A4F5A5E02D422F1F910F91099495
:101180000A30110531F406A8F7A9E02D1F910F913F
:101190000994E457FF4F0190F081E02D09951F91CC
:1011A0000F9108952F923F924F925F926F927F928C
:1011B0008F929F92AF92BF92CF92DF92EF92FF9267
:1011C0000F931F93CF93DF93CDB7DEB7A0970FB6E2
:1011D000F894DEBF0FBECDBF5C01162FCA01B90166
:1011E000211531054105510511F5D501ED91FC9110
:1011F00004A4F5A5E02D40E3612FC501A0960FB62C
:10120000F894DEBF0FBECDBFDF91CF911F910F913C
:10121000FF90EF90DF90CF90BF90AF909F908F9016
:101220007F906F905F904F903F902F900994FE01B8
:1012300031964F01C12CD12C76013F01202E312C4B
:10124000412C512CFFEFCF1ADF0AEF0AFF0AA2014F
:1012500091010E941D29D4016D934D01B901CA016C
:10126000611571058105910569F7B1E0CB1AD108C7
:10127000E108F108D501ED91FC9104A4F5A5E02D5C
:10128000D301AC0DBD1D4C914A3010F4405D01C03E
:10129000495C612FC5010995B1E0CB1AD108E1087D
:1012A000F108EFEFCE16DE06EE06FE0619F7A09661
:1012B0000FB6F894DEBF0FBECDBFDF91CF911F9167
:1012C0000F91FF90EF90DF90CF90BF90AF909F90E5
:1012D0008F907F906F905F904F903F902F900895E8
:1012E000FC0187EF92E0918380838EEF82831382EB
:1012F00008958CB5411102C0806201C08F7D8CBD04
:1013000080E090E0089580E090E0089581E090E032
:101310000895CF92DF92FF920F931F93CF93DF93A5
:1013200000D000D0CDB7DEB76C01F62EDC01ED9118
:10133000FC91E45BFF4F0190F081E02D29833A831B
:101340004B835C830995D601ED91FC9102A0F3A13A
:10135000E02D29813A814B815C816F2DC601099571
:101360000F900F900F900F90DF91CF911F910F91E1
:10137000FF90DF90CF900895CB01BA010C940C1D23
:101380000C94DD1C0E94DD1C28EE33E040E050E0B0
:101390000E941D29CA01B90108954F925F927F9260
:1013A0008F929F92AF92BF92CF92DF92EF92FF9275
:1013B0000F931F93CF93DF931F92CDB7DEB77C01BE
:1013C0006A018901F90110822A0178E0712CA62EA8
:1013D000B12C88E0882E912CC2018C199D098A15A8
:1013E0009B057CF5F20181912F0179830E948D1D6F
:1013F000F70160897981662379F3F7012089261B3B
:10140000AC0102C0569547952A95E2F79A01A401CE
:10141000471B5109042E01C0220F0A94EAF7F80174
:10142000E70DF11D3081322B3083671710F4761BE6
:10143000D3CF671B7394F801E70DF11D108278E09C
:10144000DACF80E090E00F90DF91CF911F910F9164
:10145000FF90EF90DF90CF90BF90AF909F908F90D4
:101460007F905F904F900895AF92BF92CF92DF929E
:10147000EF92FF920F931F93CF93DF937901EA01CD
:1014800000E010E0A62EB12C0A151B05FCF46E013D
:1014900061E089910E94921EF80193E0F595E7952D
:1014A0009A95E1F7EE0DFF1D608170E0C80187702D
:1014B000992702C0759567958A95E2F76170F601E4
:1014C00080810E94CB1E0F5F1F4FDECF80E090E037
:1014D000DF91CF911F910F91FF90EF90DF90CF9010
:1014E000BF90AF9008955F926F927F928F929F927C
:1014F000AF92BF92CF92DF92EF92FF920F931F9322
:10150000CF93DF93542E822E1E2D61E0802F0E94F8
:10151000921E1170FF24F394F1266F2D802F0E94EC
:10152000CB1EE12CC0E0D0E0912C652C712CC815AD
:10153000D90524F5612F802F0E94CB1E40E050E09A
:1015400046155705A4F48E2D840F90E0F501E80FA1
:10155000F91FD601A80FB91F8C918EBD00000DB4E4
:1015600007FEFDCF8EB580834F5F5F4FE9CF6F2DB4
:10157000802F0E94CB1E2196E50CD9CF80E090E011
:10158000DF91CF911F910F91FF90EF90DF90CF905F
:10159000BF90AF909F908F907F906F905F900895D5
:1015A0006F927F929F92AF92BF92CF92DF92EF9213
:1015B000FF920F931F93CF93DF931F92CDB7DEB7A8
:1015C0008A0179013A01B12CA12C28E0C62ED12C38
:1015D000C301801B910B8C159D05F4F4211108C0EB
:1015E000F701EA0DF11DB082A394B12C27E001C0F0
:1015F0002150F30191903F0160E0892D29830E94E1
:10160000921E892D0E94011F2981022E01C0880F80
:101610000A94EAF7B82ADCCFF701EA0DF11DB0828F
:1016200080E090E00F90DF91CF911F910F91FF909C
:10163000EF90DF90CF90BF90AF909F907F906F9092
:1016400008959F92AF92BF92CF92DF92EF92FF9256
:101650000F931F93CF93DF9300D000D0CDB7DEB7A9
:10166000162F842F922EA7019601813029F561E073
:10167000812FC9823A834B835C830E94921E61E072
:10168000812F0E94CB1E61E070E080E090E00E941C
:101690000C1D60E0812F0E94CB1E61E070E080E0B5
:1016A00090E00E940C1D61E0812F0E94CB1E2981D9
:1016B0003A814B815C8126C0823021F561E0812F27
:1016C000C9823A834B835C830E94921E60E0812F23
:1016D0000E94CB1E61E070E080E090E00E940C1D53
:1016E00061E0812F0E94CB1E61E070E080E090E01D
:1016F0000E940C1D60E0812F0E94CB1E5C814B81FB
:101700003A81298160E0892D29833A834B835C8368
:101710000E94921E29813A814B815C81011102C095
:1017200060E003C0013049F461E0892D0E942A1F66
:10173000F501608371838283938380E090E00F9052
:101740000F900F900F90DF91CF911F910F91FF900D
:10175000EF90DF90CF90BF90AF909F900895AF92A1
:10176000BF92CF92DF92EF92FF920F931F93CF938E
:10177000DF937901EA018901A62EB12CC8018E19E7
:101780009F098A159B0574F46E0161E089910E949E
:10179000921EF80161918F0170E0F60180810E9434
:1017A000BE1DECCF80E090E0DF91CF911F910F91B3
:1017B000FF90EF90DF90CF90BF90AF9008950E9480
:1017C000C70180E090E0089581549F4FDC01ED91C6
:1017D000FC91E60FF11D8081882319F08F5F8083D3
:1017E00004C089E994E00E94940280E090E00895AA
:1017F0008F929F92AF92BF92CF92DF92EF92FF9221
:101800000F931F93CF93DF93FC01E954FF4FC081E7
:10181000CC2ED12CA0E0B0E0E0E0F0E07C0178EB51
:10182000E70EF11CEC15FD0584F4E701A880B980F2
:10183000AA0EBB1EE50188809980AA80BB80149601
:10184000281539054A055B0520F4309721F03197BA
:1018500002C03196E7CF611125C0EF01CC0FDD1F2B
:10186000CC0FDD1F7C01E8EBEE0EF11CD701ED91F2
:10187000FC91EC0FFD1F40815181628173818BEDE2
:1018800096E00E946E20F701A081B181AC0FBD1FD0
:101890008D919D910D90BC91A02DE8018883998335
:1018A000AA83BB8380E090E0DF91CF911F910F91DD
:1018B000FF90EF90DF90CF90BF90AF909F908F9070
:1018C0000895FF920F931F93CF93DF93F42EE801B7
:1018D000611107C050E0B9018BED96E00E94FE2037
:1018E000888388818F1519F083E890E002C080E03A
:1018F00090E0DF91CF911F910F91FF9008956111BA
:1019000004C08BED96E00E94742080E090E0089582
:101910003F924F925F926F927F928F929F92AF927F
:10192000BF92CF92DF92EF92FF920F931F93CF93CC
:10193000DF93EC016A018A01A62EB12C7C0181ECB7
:10194000E80EF11CC8018C199D098A159B050CF045
:1019500044C0D8013D908D01632C712C4301880C4B
:10196000991CD701ED91FC91E80DF91D80819181C1
:10197000892B41F783E090E00E94A6202C010E9471
:101980009305D701ED91FC911197E80DF91D518256
:101990004082ED91FC91E80DF91DB30180819181A8
:1019A0000E942D06E881F981E459FF4F0190F081F2
:1019B000E02D65E873E0CE010995E881F981E857EB
:1019C000FF4F432D50E060E070E00190F081E02D8A
:1019D0002AE030E0CE010995B5CF80E090E0DF91BC
:1019E000CF911F910F91FF90EF90DF90CF90BF901C
:1019F000AF909F908F907F906F905F904F903F90AF
:101A000008956F927F928F929F92AF92BF92CF92E2
:101A1000DF92EF92FF920F931F93CF93DF93EC012E
:101A20005A0169018A01662E712C7C0181ECE80E55
:101A3000F11CC8018A199B09861597050CF059C03D
:101A4000E881F981E459FF4F0190F081E02D63EACC
:101A500073E0CE010995D8018C91E881F981E858AD
:101A6000FF4FD7012C9111969C91A22FB92FA80F4F
:101A7000B11DA80FB11D4D915C91662757FD609572
:101A8000762F0190F081E02D2AE030E0CE0109951B
:101A9000E881F981E459FF4F0190F081E02D6AEA75
:101AA00073E0CE0109954601E881F981E857FF4FBF
:101AB000D6014D915D916D0160E070E00190F08183
:101AC000E02D2AE030E0CE010995F80181918F01E7
:101AD000D4016D917C91F70120819181E22FF92F42
:101AE000E80FF11DE80FF11D808191810E944106F0
:101AF000A0CF80E090E0DF91CF911F910F91FF90F8
:101B0000EF90DF90CF90BF90AF909F908F907F909D
:101B10006F900895CF92DF92EF92FF920F931F93F1
:101B2000CF93DF937A018A01C62ED12CEC01CF53DB
:101B3000DF4FC8018E199F098C159D05E4F4F8014B
:101B4000808128819981E22FF92FE80FF11DE80F9C
:101B5000F11D808191810E943306F80181918F01EE
:101B600028819981E22FF92FE80FF11DE80FF11D6F
:101B700011821082DECF80E090E0DF91CF911F9143
:101B80000F91FF90EF90DF90CF900895AF92BF92AA
:101B9000CF92DF92EF92FF920F931F93CF93DF9339
:101BA00000D000D0CDB7DEB78C01613091F020F0CD
:101BB000623009F452C069C081E00E948A1DF801B8
:101BC0004189528963897489458B568B678B708FE5
:101BD00041C0FC01E655FF4FE081EE2309F455C0FA
:101BE00060E070E080E090E0AE2EB12CD801A55509
:101BF000BF4F01C001968A159B050CF049C0ED90BE
:101C0000FC901197E60EF71EF701C080D180E280AC
:101C1000F3806C5F7F4FC216D306E406F50651F7DA
:101C2000880F991FF801E355FF4F0190F081E02DD7
:101C3000E80FF91F808129833A834B835C830E94DC
:101C40008A1D29813A814B815C81F801258B368B75
:101C5000478B508F80E090E01DC0FC01E155FF4FA5
:101C6000C080D180E280F3802C153D054E055F05D4
:101C700078F03496C080D180E280F380C216D3061B
:101C8000E406F50628F080E0D6CF81E890E002C0B7
:101C900082E890E00F900F900F900F90DF91CF911E
:101CA0001F910F91FF90EF90DF90CF90BF90AF907A
:101CB00008958F929F92AF92BF92DF92EF92FF9220
:101CC0000F931F93CF93DF9300D000D0CDB7DEB733
:101CD000D62E49015A01A801970181149104A1044B
:101CE000B104C9F061E08D2DE9823A834B835C83B6
:101CF0000E94921E29813A814B815C812115310518
:101D00004105510519F420E030E0A901B4018D2D01
:101D10000E94212103C0862F0E949E2380E090E034
:101D20000F900F900F900F90DF91CF911F910F9117
:101D3000FF90EF90DF90BF90AF909F908F900895AD
:101D4000CB01642F0C94C62ACB010C94BE2A9CB5FF
:101D5000937F982B9CBD0895413049F030F042307C
:101D600041F0433049F48CE005C080E003C084E0DA
:101D700001C088E00E94A70E80E090E008952CB595
:101D8000982F93702C7F922B9CBD9DB582FB88274A
:101D900080F99E7F982B9DBD08952F923F924F9280
:101DA0005F926F927F928F929F92AF92BF92CF92EB
:101DB000DF92EF92FF920F931F93CF93DF9300D0A8
:101DC00000D000D0CDB7DEB77C01C12CD12C1E8253
:101DD0001D823C016AEB660E711C4C017BEB870E89
:101DE000911C5C018DEBA80EB11CD3018C9190E08D
:101DF0006D817E81681779070CF04CC0D401ED919C
:101E0000FC91B601660F771FE60FF71F2080318027
:101E1000428053802215330544055505A8F0F8018A
:101E200020823182428253828D819E81880F991F48
:101E3000F701E354FF4F0190F081E02DE80FF91F07
:101E400080810E94BF0E26C001976D817E81681738
:101E50007907B1F4D8012D923D924D925C9213977F
:101E6000D501ED91FC91EC0DFD1D808129833A8314
:101E70004B835C830E94BF0E5C814B813A81298138
:101E80006D817E816F5F7F4F7E836D8372E0C70EB1
:101E9000D11CABCF80E090E026960FB6F894DEBF61
:101EA0000FBECDBFDF91CF911F910F91FF90EF90AB
:101EB000DF90CF90BF90AF909F908F907F906F906A
:101EC0005F904F903F902F9008951F93CF93DF9393
:101ED000EC010E94700982EB93E09983888382E091
:101EE0008F831886198680E090E00E94BE2A182F02
:101EF00081E090E00E94BE2A212F30E0322F22277D
:101F0000282B3EAB2DABDF91CF911F910895EF921F
:101F1000FF920F93CF93DF931F92CDB7DEB7642F5D
:101F200089E994E029830E94AB02402F50E0B70179
:101F300089E994E00E9428022981211102C061E010
:101F400003C0213041F460E089E994E00E94B502C9
:101F500080E090E007C061E089E994E00E94B5026A
:101F600081E890E00F90DF91CF910F91FF90EF907B
:101F700008954F925F926F927F928F929F92AF924D
:101F8000BF92CF92DF92EF92FF920F931F93CF9366
:101F9000DF93642F211102C021E003C0213099F5A5
:101FA00020E0402F89E994E00E949E020E94DD1CFF
:101FB0004B015C0110E02701612C712C89E994E050
:101FC0000E94FD018017910774F40E94DD1C6819BE
:101FD00079098A099B09461657066806790670F73B
:101FE00083E890E012C0E601CE018C199D098017AC
:101FF000910734F489E994E00E9405028993F4CFB3
:1020000080E090E002C081E890E0DF91CF911F91E5
:102010000F91FF90EF90DF90CF90BF90AF909F9087
:102020008F907F906F905F904F900895CF93DF9344
:10203000EA01611105C08BED96E00E94DB1F8883E9
:1020400080E090E0DF91CF910895611106C050E0EB
:10205000B9018BED96E00E94F81F80E090E00895B2
:10206000EF92FF920F931F93CF93DF9300D000D096
:10207000CDB7DEB77C01CB01642FD70113969C93BB
:102080008E93129718964C9319821A821B821C8287
:10209000DC01ED91FC9102A0F3A1E02D8E010F5F18
:1020A0001F4F20E835E240E050E00995F701E65D7A
:1020B000FE4F84E090E0918380830F900F900F900B
:1020C0000F90DF91CF911F910F91FF90EF900895A6
:1020D0008FEF9FEF08958FEF9FEF0895CF92DF92DC
:1020E000EF92FF920F931F93CF93DF9300D0CDB762
:1020F000DEB77C011A82DC0112968D919C911397B8
:10210000DC01ED91FC9106A0F7A1E02DAE014E5F40
:102110005F4FD70118966C9109958A81823008F437
:1021200008C11982F701828193816701FAE0CF0E1D
:10213000D11CDC01ED91FC9100A4F1A5E02D8E01F4
:102140000F5F1F4F960142E0D70118966C910995D9
:10215000F701228582819381DC01ED91FC9106A03B
:10216000F7A1E02DAE014E5F5F4FD70118966C913D
:102170002F3F09F0CBC009952A8130E0F701838514
:1021800090E00297281739070CF45AC0D70112962D
:102190008D919C911397DC01ED91FC91D7011B96D9
:1021A0004C911B97425000A4F1A5E02D8E010F5FCA
:1021B0001F4F9701245F3F4F18966C910995B60108
:1021C000C7010E944D12F701A281B381882309F44F
:1021D0008AC0ED91FC911197E657FF4F0190F08175
:1021E000E02DA60161E0CD010995870106571F4F3B
:1021F000A801B601C7010E94AE12D70112968D91B7
:102200009C911397DC01ED91FC91E657FF4F0190F3
:10221000F081E02DA80160E00995F70182819381AA
:10222000DC01ED91FC91D701A557BF4F02A4F3A5A6
:10223000E02D98014C91D70118966C91099579C0C1
:1022400005E610E02A8130E0F701838590E00297EF
:10225000281739070CF09ACFD70112968D919C91CF
:102260001397DC01ED91FC9106A0F7A1E02DAE01E2
:102270004E5F5F4FD70118966C9109950150110977
:10228000F70182819381DC01ED91FC91011511052B
:10229000F9F406A0F7A1E02DAE014E5F5F4FD70124
:1022A00018966C910995F70182819381DC01ED917B
:1022B000FC9100A4F1A5E02D8E010F5F1F4F960148
:1022C0004A81D70118966C9109958FEF9FEF33C023
:1022D000EE59FF4F0190F081E02D41E050E060E0C9
:1022E00070E00995AFCFED91FC91119726A137A130
:1022F000AE014E5F5F4FF7016085CD01F901099591
:10230000D70112968D919C91139704C00995F701FE
:1023100082819381DC01ED91FC9100A4F1A5E02D77
:102320008E010F5F1F4F96014A81D70118966C915D
:10233000099580E090E00F900F90DF91CF911F9171
:102340000F91FF90EF90DF90CF900895CF93DF93A0
:10235000EC01C65DDE4F288139812530310579F0E9
:1023600026303105B1F024303105F1F4DC01ED9176
:10237000FC910084F185E02DDF91CF910994DC017F
:10238000ED91FC910284F385E02D09951982188264
:102390000BC0DC01ED91FC910484F585E02D0995DD
:1023A0008FEF9FEF0E94D42ADF91CF910895CF93B2
:1023B000DF93EC010E94331284E494E099838883D4
:1023C000FE01E65DFE4F118210821F821E82DF91A8
:1023D000CF91089586EA95E00C94D7118FEF9FEF87
:1023E00008958FEF9FEF08958FEF9FEF08958FEF80
:1023F0009FEF08958FEF9FEF08958FEF9FEF089560
:102400008FEF9FEF0895DC0114962D913C91159765
:1024100024303105B9F04CF4232B11F5DC01ED919A
:10242000FC910190F081E02D1AC02530310589F032
:1024300026303105A9F4DC01ED91FC910484F58589
:10244000E02D0DC0DC01ED91FC910084F185E02DC3
:1024500006C0DC01ED91FC910284F385E02D099426
:1024600080E890E00895FC0188E694E09183808301
:102470001582148280E881870895FB01218130E074
:102480002150310980E0AF01461B570B421753071B
:102490001CF49191890FF7CF0895CF93DF93EB014F
:1024A0000E943D129981C90FD11D219791E0288189
:1024B000821390E0892FDF91CF9108950F931F939E
:1024C000CF93DF93FA014FEF408346E0420F418301
:1024D000DB0112964C911297428313964C914383E1
:1024E0000F3F110509F010F4048302C043E0448358
:1024F000E9012596CE0FDF1FBF010E943D128883A0
:10250000DF91CF911F910F9108950F931F93890130
:1025100020E030E00E945E121F910F910895EF922B
:10252000FF920F931F93CF93DF93D901EA01259672
:10253000F901202F30E08F010A1B1B0B0217130734
:102540001CF411911993F7CF87010E945E12DF915D
:10255000CF911F910F91FF90EF9008952F923F928E
:102560004F925F926F927F928F929F92AF92BF92A3
:10257000CF92DF92EF92FF920F931F93CF93DF934F
:1025800000D000D000D0CDB7DEB73C014B012A010E
:102590002DB63EB6DB0114962C91149730E0322F05
:1025A000222715968C91282B2115BCEF3B07C8F0EC
:1025B0001982F901EB57FB4FEE0FFF1FE60DF71DD8
:1025C0009A012B5F3F4F6A5F7F4FD40111968C9128
:1025D0000190F081E02DAE014F5F5F4F875009956C
:1025E00064C72432310509F4CFC508F004C1223193
:1025F000310509F4E4C208F07BC02A30310509F442
:1026000085C208F04FC02530310509F44BC258F49B
:102610002330310509F418C208F027C2232B09F42E
:10262000ECC70C946B1C2830310509F459C208F032
:1026300062C22630310511F00C946B1CFB01208521
:1026400030E0322F2227442737FD4095542F8185D3
:10265000282B19821A821B821C82D30112968D911B
:102660009C911397DC01ED91FC9104A0F5A1E02D64
:102670008E010F5F1F4FD30118966C9109957C0155
:10268000F30182819381DC01ED91FC91EE59FF4FC2
:102690000190F081E02D48EE53E060E070E0099594
:1026A0000C94641CF301A281B3812E30310509F42E
:1026B0004AC278F42C30310509F433C208F03AC22A
:1026C0005D962D913C915E97E12CF12C5C960C91DE
:1026D00065C52031310509F43FC208F046C29D9618
:1026E0002D913C919E97E12CF12C9C960C9156C516
:1026F0002A31310509F4ABC350F5F301A281B3814E
:102700002631310509F401C388F42431310509F477
:102710008CC208F0DFC2D6968C91FA018583D30172
:102720001296ED91FC91139785A978C22831310555
:1027300009F417C308F06BC3DC968C91FA0185830A
:10274000D3011296ED91FC91139783AD67C22E31A0
:10275000310509F42DC4D0F4D30112968D919C91CA
:1027600013972C31310509F4A5C308F0FFC3FC0110
:10277000EF5BFF4F8181FA018583D3011296ED91C2
:10278000FC911397EF5BFF4F808148C220323105E7
:1027900009F439C408F428C42232310509F494C478
:1027A0002332310511F00C946B1CD3011296ED917C
:1027B000FC911397EA55FF4F8381FA0185831296A6
:1027C000ED91FC911397EA55FF4F8281DA0116963D
:1027D0008C93D3011296ED91FC911397EA55FF4F1C
:1027E0008181FA0187831296ED91FC911397EA5546
:1027F000FF4F808192C5213E310509F47AC608F069
:10280000ACC02436310509F495C508F069C02334FD
:10281000310509F408C5B0F42134310509F4C4C404
:1028200008F0D8C42532310511F00C946B1CD3018B
:102830001296ED91FC91139723A934A9E12CF12C68
:1028400002A9ACC42036310509F426C5213631056C
:1028500009F446C52434310511F00C946B1CF301C6
:1028600082819381DC01ED91FC91DB011A962C9120
:102870001A971B96CC901B97D12CE12CF12C76014A
:10288000DD24CC24F22A1D962C911D97C22A1C9679
:102890002C911C97D22A0284F385E02D9E012F5F94
:1028A0003F4F590119960C91199716962C9116972E
:1028B00018964C91189717966C9109957C0189810F
:1028C0009A812B813C81D20115963C9315971696DF
:1028D0002C93169717969C93179718968C93C1C6AE
:1028E000223C310509F4AEC500F5203C310509F460
:1028F00061C508F07AC52338310509F0ECC7F3014A
:1029000082819381DB0116966C91DC01ED91FC9143
:10291000262F30E0295F3F4F280D391DA401495F64
:102920005F4F0484F585E02D43C5243C310509F44F
:10293000BFC508F4A1C5253C310509F4CEC5203E2C
:10294000310509F0C8C7F30182819381DC01ED9163
:10295000FC91008CF18DE02D2DC62730B1E03B07B6
:1029600009F483C6D8F52115F1E03F0709F427C61D
:10297000B0F4233E310509F4F5C508F4D5C5243E6D
:10298000310509F0A8C7D30112968D919C91139738
:10299000DC01ED91FC9100A0F1A1E02D0BC62230ED
:1029A00091E0390709F42CC608F417C623303140EA
:1029B00009F091C7D30112968D919C911397DC0178
:1029C000ED91FC910288F389E02DDB0117964C9183
:1029D000179716966C9109957C0143C62036E1E065
:1029E0003E0709F400C7B8F4213481E0380709F440
:1029F00074C6223491E0390709F4E1C6203431402D
:102A000009F069C7F30182819381DC01ED91FC91AA
:102A1000E25BFF4FDCC62236B1E03B0709F420C77A
:102A200008F4FBC62336F1E03F0709F440C724361B
:102A3000314009F050C7F30182819381DC01ED91AF
:102A4000FC91E45AFF4F3BC7D3011296ED91FC91E4
:102A500013978281FA0185831296ED91FC91139769
:102A60008381DA0116968C93DBC0D3011296ED9127
:102A7000FC9113978781FA0185831296ED91FC9161
:102A800013978085DA0116968C93D3011296ED91F7
:102A9000FC9113978185FA01878300E010E023E021
:102AA00030E042C4D3011296ED91FC91139780A5BA
:102AB000FA0185831296ED91FC91139787A1DA01B3
:102AC00016968C93D3011296ED91FC91139786A1E3
:102AD000FA0187831296ED91FC91139785A11DC48D
:102AE000D3011296ED91FC91139723853485E12C47
:102AF000F12C028553C3D3011296ED91FC911397EB
:102B000026853785E12CF12C058548C3D301129623
:102B1000ED91FC911397228D338DE12CF12C018DD9
:102B20003DC390962D913C919197E12CF12C5F96AD
:102B30000C9134C393962D913C919497E12CF12CF8
:102B400092960C912BC39A962D913C919B97E12CD8
:102B5000F12C99960C9122C3D0962D913C91D1974E
:102B6000E12CF12C9F960C9119C3ED91FC911197DA
:102B7000E258FF4F0190F081E02D66E574E0CD0151
:102B80000995F30182819381DC01ED91FC91E2587A
:102B9000FF4F0190F081E02D6DEA73E0099585E02B
:102BA00090E0F3019583848320E030E0A201B4013A
:102BB000C3010E94851254E0E52EF12C95C6D30185
:102BC00012968D919C911397FB01268130E0322F54
:102BD00022274781242BDC01D6963C932E93D59750
:102BE000ED91FC91EC59FF4F0190F081E02DDB015C
:102BF00016964C9160E070E00995F3018281938113
:102C0000DC01ED91FC91EC59FF4F0190F081E02D3A
:102C1000D40117964C9161E070E05AC0F2018683AE
:102C200000E010E022E030E07FC3FB01408550E08F
:102C3000542F44278185482B662757FD6095762FB2
:102C4000D7964D935D936D937C93DA97ED91FC91BC
:102C50001197EC59FF4F20813181F401468162E0E8
:102C600070E0CD01F9010995D30112968D919C91E7
:102C70001397DC01ED91FC91EC59FF4F0190F0812D
:102C8000E02DD40117964C9163E070E00995F301B3
:102C900082819381DC01ED91FC91EC59FF4F019011
:102CA000F081E02DD40118964C9164E070E0099514
:102CB000F30182819381DC01ED91FC91EC59FF4F8E
:102CC0000190F081E02DD40119964C9165E070E0FF
:102CD000099593C4DA968C91FA018583D3011296F3
:102CE000ED91FC91139781ADFA0186831296ED91D7
:102CF000FC91139780ADDA0117968C93D30112964D
:102D0000ED91FC91139787A99FC0FB01868190E00C
:102D1000982F88272781822BDC969C938E93DB97B4
:102D2000ED91FC911197EC59FF4F20813181FB010E
:102D3000468166E070E0CD01F9010995D301129654
:102D40008D919C911397DC01ED91FC91EC59FF4F13
:102D50000190F081E02DD40117964C9167E070E06E
:102D6000B7CF9D01235C3F4FFB01408550E0542FBE
:102D700044278185482B662757FD6095762FF901FA
:102D80004083518362837383ED91FC911197EC59D9
:102D9000FF4F20813181F401468168E070E0CD0170
:102DA000F9010995D30112968D919C911397DC013D
:102DB000ED91FC91EC59FF4F0190F081E02DD40191
:102DC00017964C9169E070E00995F3018281938137
:102DD000DC01ED91FC91EC59FF4F0190F081E02D69
:102DE000D40118964C916AE070E00995F301828154
:102DF0009381DC01ED91FC91EC59FF4F0190F08142
:102E0000E02DD40119964C916BE070E061CFDD9616
:102E100013968C91FA018583D3011296ED91FC9162
:102E20001397FD968281FA0186831296ED91FC91AB
:102E30001397FD968181DA0117968C93D301129630
:102E4000ED91FC91139785ADF201808769C2D301A2
:102E500012968D919C911397FC01EF5BFF4FDB0164
:102E600016962C91169730E0322F222717964C9108
:102E7000242B31832083DC01ED91FC91EC59FF4F31
:102E80000190F081E02DDB0116964C916CE070E032
:102E90000995F30182819381DC01ED91FC91EC595C
:102EA000FF4F0190F081E02DD40117964C916DE019
:102EB00070E00ECFDB0116962C91FC01ED5BFF4F0D
:102EC000213278F020E22083F30182819381DC01BA
:102ED000ED91FC91EC59FF4F0190F081E02D40E223
:102EE0000FC02083F30182819381DC01ED91FC917D
:102EF000EC59FF4F0190F081E02DDB0116964C91CB
:102F00006EE070E009957401B7E0EB0EF11C00E093
:102F100010E0D30112968D919C911397FC01ED5B0B
:102F2000FF4F208130E0021713070CF066C3D70172
:102F3000800F911F9C012C5B3F4FF70181917F0116
:102F4000F9018083F30182819381FC012081318129
:102F5000F901EC59FF4FB801615F7F4F0190F0819B
:102F6000E02D4C9109950F5F1F4FD3CFFC01ED5B16
:102F7000FF4F8081FA018583369680E090E0D3018F
:102F800012964D915C911397DA01AD5BBF4F2C9176
:102F900030E0821793074CF4480F591FDA01AC5BFD
:102FA000BF4F2C9121930196EACF00E010E0BCC105
:102FB000D3011296ED91FC911397DB0116968C913B
:102FC000EC59FF4F8083F30182819381DC01ED9105
:102FD000FC91EC59FF4F0190F081E02DDB0116963A
:102FE0004C9160E370E074CED3011296ED91FC91A8
:102FF0001397EC59FF4F8081FA01858300E010E0C0
:1030000021E030E091C1DB0116962C91F301828121
:103010009381FC01EB59FF4F213488F020E4208399
:10302000D30112968D919C911397DC01ED91FC9147
:10303000EC59FF4F0190F081E02D40E40FC0208358
:10304000F30182819381DC01ED91FC91EC59FF4FFA
:103050000190F081E02DDB0116964C9161E370E068
:1030600009957401B7E0EB0EF11C00E010E0D3010C
:1030700012968D919C911397FC01EB59FF4F208183
:1030800030E0021713070CF0B8C2D701800F911F70
:103090009C012A593F4FF70181917F01F9018083FB
:1030A000F30182819381FC0120813181F901EC5986
:1030B000FF4FB8016E5C7F4F0190F081E02D4C9185
:1030C00009950F5F1F4FD3CFF30182819381FC01DC
:1030D000EA55FF4FDB0116962C91169717964C91E7
:1030E000179750E060E070E0BA0155274427722B33
:1030F00019962C911997422B18962C91522B40839C
:10310000518362837383DC01ED91FC91EC59FF4F95
:103110000190F081E02DD40116964C9162E770E0A9
:103120000995F30182819381DC01ED91FC91EC59C9
:10313000FF4F0190F081E02DD40117964C9163E789
:1031400070E00995F30182819381DC01ED91FC919E
:10315000EC59FF4F0190F081E02DD40118964C916D
:1031600064E770E00995F30182819381DC01ED91C0
:10317000FC91EC59FF4F0190F081E02DD40119969C
:103180004C9165E770E0A4CDD3011296ED91FC91CE
:10319000139725813681E12CF12C0481A201B40121
:1031A000C3010E948F12A0C3F30182819381DB01CE
:1031B00016966C91DC01ED91FC91262F30E0295F91
:1031C0003F4F280D391DA401495F5F4F0480F581F1
:1031D000E02DEEC0FB011181D30112968D919C91DF
:1031E0001397DC01ED91FC919A012B5F3F4FAB01EE
:1031F0004A5F5F4F69EF610F0680F781E02D099507
:103200007C01212F30E02850310953E03595279576
:103210005A95E1F72F5F30E08701A201B401C301A5
:103220000E945E1261C3F30182819381DC01ED9102
:10323000FC91DB011B96EC901B974E2D50E060E05B
:1032400070E0142F0027FF24EE241E962C911E9769
:10325000E22A1D964C911D9750E0542F4427662773
:1032600057FD6095762FE42AF52A062B172B199621
:103270002C91199730E0322F2227442737FD4095B3
:10328000542F1A966C911A97262B0084F185E02D05
:1032900016966C91099517C3F30182819381DC0125
:1032A000ED91FC91DB0117966C91179718962C9174
:1032B0001897022F10E020E030E0A80133272227E2
:1032C000562B1A966C911A97262B19966C91199772
:1032D000362B0280F381E02D16966C910995F3C28E
:1032E000D3011296ED91FC911397808DFA0185839D
:1032F0001296ED91FC9113978789DA0116968C93BB
:10330000D3011296ED91FC9113978689FA01878378
:103310001296ED91FC9113978589D20118968C93A2
:1033200000E010E024E030E0A201B401C3010E94FB
:103330005E12D8C2D3011296ED91FC911397808949
:10334000FA01858312968D919C911397DC01ED9182
:10335000FC91DB0111966C9167500190F081E02D9A
:103360009A012A5F3F4FA4014A5F5F4F09957C0194
:10337000F401818190E00797D3011296ED91FC91C1
:1033800013972089289FA001299F500D1124CA015D
:1033900023E0969587952A95E1F7282F47705527C2
:1033A000452B11F021E0280F30E02F5F3F4F34CF45
:1033B000099589C2FB01218530E0322F222744275D
:1033C00037FD4095542F8285282B19821A821B8243
:1033D0001C82D30112968D919C911397DC01ED9183
:1033E000FC9102A0F3A1E02D1BC0DB0119962C91EA
:1033F000199730E0322F2227442737FD4095542F6C
:103400001A968C91282B19821A821B821C82F30136
:1034100082819381DC01ED91FC9104A0F5A1E02D66
:103420008E010F5F1F4FD40116966C9109957C0198
:1034300089819A812B813C81F20135832683978390
:1034400080870FC1D30112968D919C911397DC0157
:10345000ED91FC9106A0F7A1E02DAE014F5F5F4F0B
:10346000DB0116966C9109957C018981F2018583B7
:10347000870121E030E0D1CE1982D30112968D91DF
:103480009C911397DC01ED91FC919A012B5F3F4FCA
:1034900000A4F1A5E02D8E010F5F1F4FDB011796F1
:1034A0004C91179716966C9109957C012981B3CEA2
:1034B000F30182819381DC01ED91FC919B01295FF5
:1034C0003F4FDB0111964C911197485002A4F3A590
:1034D000E02D16966C910995F6C1F30182819381D6
:1034E000DC01ED91FC91E45BFF4F0190F081E02D58
:1034F00061C0FB01218530E0322F2227442737FDB0
:103500004095542F8285282B19821A821B821C8297
:10351000D30112968D919C911397DC01ED91FC9152
:10352000028CF38DE02D7CCFD30112968D919C916E
:103530001397DC01ED91FC917B01B9E0EB0EF11CDE
:10354000DB0111960C9111970A50048CF58DE02D3A
:1035500018962C91189717964C91179716966C9170
:103560000995B1C1F30182819381DC01ED91FC9158
:103570006A01B5E0CB0ED11CDB011996EC901997CE
:10358000F12CFE2CEE241A962C911A97E22A068C26
:10359000F78DE02D18960C9118971B962C911B9780
:1035A00017964C91179716966C9109957C01F4012A
:1035B000208531CED40116966C91099584C1F30112
:1035C00082819381DC01ED91FC910684F785E02DE9
:1035D000DB0116966C91099510C0F30182819381ED
:1035E000DC01ED91FC910088F189E02DDB0117965B
:1035F0004C91179716966C91099520E030E06DC1BB
:10360000FB0187812085422F50E060E070E0332786
:103610002227582B8285282B8185382B19821A82E4
:103620001B821C82D30112968D919C911397DC0111
:10363000ED91FC910488F589E02D8E010F5F1F4FFD
:10364000D40116966C9109957C0189819A812B8110
:103650003C81F201358326839783808700E010E068
:1036600001C0870124E030E0D8CDD3011296ED915E
:10367000FC911397DB0117964C9100811181520147
:10368000B5E0AB0EB11C6B012AE0C20ED11CDB0110
:1036900011968C9190E00B97642F70E00E9409299D
:1036A000262FD80156960D90BC91A02DBE83AD83D8
:1036B000D4011996EC90199718960C9118971696B4
:1036C0006C91CF01ED81FE8109957C01D4011196A9
:1036D0002C9130E02B5031099FCDADB6BEB6DB0149
:1036E0001696EC91F0E0CF01880F991F2DB73EB7E9
:1036F000281B390B0FB6F8943EBF0FBE2DBF0DB778
:103700001EB70F5F1F4FE60FF71F3896B80180E016
:1037100090E0D40116962C9130E0821793078CF438
:103720009F0121503109D9012C9130E0322F2227FD
:103730004081242BDB012D933D93BD0101963296F0
:10374000E8CF6801E12CF12CF4016681262F30E0EE
:10375000D30112968D919C911397E216F306ACF467
:10376000F601419151916F01DC01ED91FC91E85717
:10377000FF4F60E070E00190F081E02D2AE030E042
:103780000995BFEFEB1AFB0ADFCFDC01ED91FC914D
:10379000E05BFF4FA401495F5F4F0190F081E02D96
:1037A000980109957C019C01A201B401C3010E940A
:1037B00085120FB6F894BEBE0FBEADBE95C0F30124
:1037C00082819381DC01ED91FC91EE5AFF4FA401BF
:1037D0004A5F5F4FD40111966C9167500190F08160
:1037E000E02D099570C0F30182819381DC01ED9198
:1037F000FC91EC5AFF4FDB0116966C91169770E026
:10380000762F662717962C911797622B0190F081DF
:10381000E02D18964C91099556C0F3018281938151
:10382000DC01ED91FC91EA5AFF4FDB0116966C9199
:10383000169770E0762F662717962C911797622BB4
:103840000190F081E02D1B96EC901B971A960C913D
:103850001A9719962C91199718964C91099533C07F
:10386000F30182819381DC01ED91FC91E85AFF4FD5
:103870009B01255F3F4FDB0118964C91189750E054
:10388000542F442719966C911997462B16966C91D4
:10389000169770E0762F662717961C911797612B65
:1038A0000190F081E02D1A960C9109950CC0F3015E
:1038B00082819381DC01ED91FC91E65AFF4F0190EA
:1038C000F081E02D09957C019701A201B401C301AB
:1038D0000E94851209C021E030E0A201B401C301B9
:1038E0000E948512E12CF12CC7010FB6F8943EBE60
:1038F0000FBE2DBE26960FB6F894DEBF0FBECDBF0D
:10390000DF91CF911F910F91FF90EF90DF90CF90BB
:10391000BF90AF909F908F907F906F905F904F90EF
:103920003F902F9008951F920F920FB60F9211247F
:103930002F933F938F939F93AF93BF938091D30621
:103940009091D406A091D506B091D6063091D206BA
:1039500023E0230F2D3720F40196A11DB11D05C0D2
:1039600026E8230F0296A11DB11D2093D206809355
:10397000D3069093D406A093D506B093D606809133
:10398000D7069091D806A091D906B091DA06019693
:10399000A11DB11D8093D7069093D806A093D90698
:1039A000B093DA06BF91AF919F918F913F912F9184
:1039B0000F900FBE0F901F9018952FB7F89460913D
:1039C000D3067091D4068091D5069091D6062FBF6C
:1039D00008953FB7F8948091D7069091D806A091AA
:1039E000D906B091DA0626B5A89B05C02F3F19F07D
:1039F0000196A11DB11D3FBF6627782F892F9A2FF1
:103A0000620F711D811D911D42E0660F771F881F97
:103A1000991F4A95D1F70895CF92DF92EF92FF92C6
:103A2000CF93DF936B017C010E94E91CEB01C11471
:103A3000D104E104F10489F00E94B9270E94E91C35
:103A40006C1B7D0B683E734090F381E0C81AD1086F
:103A5000E108F108C851DC4FEACFDF91CF91FF9028
:103A6000EF90DF90CF900895789484B5826084BD04
:103A700084B5816084BD85B5826085BD85B5816072
:103A800085BDEEE6F0E0808181608083E1E8F0E0D2
:103A90001082808182608083808181608083E0E801
:103AA000F0E0808181608083E1E9F0E080818260E4
:103AB0008083808181608083E0E9F0E080818160A3
:103AC0008083E1ECF0E0808184608083808182608B
:103AD0008083808181608083E3ECF0E0808181607D
:103AE0008083E0ECF0E0808182608083E2ECF0E0B3
:103AF000808181608083EAE7F0E080818460808358
:103B00008081826080838081816080838081806801
:103B100080830895809368010895823108F082516E
:103B2000E82FF0E0E851FF4FE49180917B00E3FB48
:103B3000222720F930E095E0220F331F9A95E1F714
:103B40008F7D822B80937B00E7708091680120E459
:103B5000829FC0011124E82BE0937C0080917A00C1
:103B6000806480937A0080917A0086FDFCCF8091FA
:103B700078002091790090E0922B08951F93CF93C5
:103B8000DF93182FEB0161E00E94921E209711F441
:103B900060E004C0CF3FD10539F461E0812FDF91AF
:103BA000CF911F910C94CB1EE12FF0E0EC50FF4F12
:103BB000449150E0FA013197EF30F10508F06CC004
:103BC000EA5AFF4F0C945E2984B5806884BDC7BD56
:103BD00068C084B5806284BDC8BD63C08091800028
:103BE000806880938000D0938900C093880059C07A
:103BF00080918000806280938000D0938B00C0937E
:103C00008A004FC080918000886080938000D093AC
:103C10008D00C0938C0045C0809190008068809397
:103C20009000D0939900C09398003BC08091900081
:103C3000806280939000D0939B00C0939A0031C023
:103C400080919000886080939000D0939D00C093F5
:103C50009C0027C08091C00080688093C000809144
:103C6000C0008F7B8093C000C093CF001AC08091AA
:103C7000C00080628093C000C093D00012C08091C9
:103C8000C20088608093C2008091C2008B7F8093C5
:103C9000C200C093D20005C0C038D1050CF07DCF62
:103CA00077CFDF91CF911F91089590E0FC0131977C
:103CB000EF30F105B0F5EB59FF4F0C945E29809180
:103CC00080008F7703C0809180008F7D809380007B
:103CD000089580918000877FF9CF84B58F7702C0E7
:103CE00084B58F7D84BD0895809190008F7707C043
:103CF000809190008F7D03C080919000877F80939A
:103D0000900008958091C0008F7703C08091C0001B
:103D10008F7D8093C00008958091C200877F80933B
:103D2000C2000895CF93DF9390E0FC01EE5EFE4F5A
:103D30002491FC01E05DFE4F8491882349F190E0DD
:103D4000880F991FFC01E659FE4FA591B491845A42
:103D50009E4FFC01C591D4919FB7611108C0F894A2
:103D60008C91209582238C93888182230AC06230B3
:103D700051F4F8948C91322F309583238C93888161
:103D8000822B888304C0F8948C91822B8C939FBFE4
:103D9000DF91CF9108950F931F93CF93DF931F92DD
:103DA000CDB7DEB7282F30E0F901EC50FF4F8491FA
:103DB000F901EE5EFE4F1491F901E05DFE4F0491B2
:103DC0000023C9F0882321F069830E94551E698170
:103DD000E02FF0E0EE0FFF1FE45AFE4FA591B491E3
:103DE0009FB7F8948C91611103C01095812301C095
:103DF000812B8C939FBF0F90DF91CF911F910F91DB
:103E00000895CF93DF93282F30E0F901EC50FF4F56
:103E10008491F901EE5EFE4FD491F901E05DFE4F11
:103E2000C491CC2391F081110E94551EEC2FF0E03B
:103E3000EE0FFF1FE25BFE4FA591B4912C912D2355
:103E400081E090E021F480E002C080E090E0DF912A
:103E5000CF910895CF92DF92EF92FF920F931F932D
:103E6000CF93DF9390E0FC01EE5EFE4FD491FC0116
:103E7000E05DFE4F7491611102C0C0E001C0CD2F22
:103E8000DA01C901BF70672F70E0660F771F625BB0
:103E90007E4F00E010E09801FB01E590F490F701FF
:103EA00040814D234C131EC0680179014FEFC41AA5
:103EB000D40AE40AF40A081719072A073B0709F489
:103EC00042C097018601E8CF68017901FFEFCF1A60
:103ED000DF0AEF0AFF0A081719072A073B0799F1BB
:103EE00097018601FB01E590F490F70140814D2395
:103EF0004C13EACF801B910BA20BB30B20E030E0F8
:103F0000A901FB01E590F490F701F080FD22FC127D
:103F10000AC0281739074A075B07A9F02F5F3F4FF0
:103F20004F4F5F4FEECFA8E1B0E00E946429605F81
:103F30007F4F8F4F9F4F24E0969587957795679594
:103F40002A95D1F703C060E070E0CB01DF91CF91FB
:103F50001F910F91FF90EF90DF90CF9008950E94F6
:103F6000B92ACF93DF931F92CDB7DEB76983DC0107
:103F7000ED91FC910280F381E02D41E050E0BE0123
:103F80006F5F7F4F09950F90DF91CF910895CF9389
:103F9000DF93EC018C859D8597FF05C082E00E9430
:103FA000E4249D878C878C859D85DF91CF91089532
:103FB00083E00C943927FC018485958597FD06C024
:103FC00082E00E948C2490E00196089582E00E9495
:103FD0008C2490E00895FC018485958597FD05C0AB
:103FE0002FEF3FEF35872487089582E00C94E42477
:103FF000CF93DF93EC0180917001882331F083E04F
:104000000E9415251816190634F081E090E09B8374
:104010008A8380E090E0DF91CF910895FC012081B8
:104020002E5F208342E450E068E771E080E80C9462
:10403000B025FC0181819081913A59F4813209F0D7
:104040003CC047E050E069E671E080E00E94B025A6
:1040500043C0913291F5803239F467E070E089E62F
:1040600091E00E94E12506C0823209F035C08281CC
:10407000809370018091690190916A01A0916B0118
:10408000B0916C01803B9440A105B105C1F48091D1
:10409000700180FD14C087E797E790930108809333
:1040A00000082BE088E190E00FB6F894A895809383
:1040B00060000FBE209360000FC080E0089588E18B
:1040C0000FB6F89480936000109260000FBEA89520
:1040D000109201081092000881E008952FEF3FEF41
:1040E000FC0135872487089508951092DE0610920A
:1040F000DD0688EE93E0A0E0B0E08093DF069093C9
:10410000E006A093E106B093E2068CE794E090937A
:10411000DC068093DB068FEF9FEF9093E806809399
:10412000E706089508950E94341D0E94922087E4B6
:1041300097E00E9499270E94AE01C0E0D0E00E9463
:10414000C3012097E1F30E940000F9CF0C9492295B
:10415000CF92DF92EF92FF920F931F93CF93DF9353
:104160006C017A01EB01E60EF71E00E010E0CE15BF
:10417000DF0561F06991D601ED91FC910190F0812C
:10418000E02DC6010995080F191FF1CFC801DF9175
:10419000CF911F910F91FF90EF90DF90CF900895F6
:1041A0000F931F93CF93DF93EC010E94DD1C688770
:1041B00079878A879B87E881F9810680F781E02DDE
:1041C000CE01099597FF15C00E94DD1C0885198551
:1041D0002A853B85601B710B820B930B0C811D8123
:1041E0002E813F81601771078207930720F38FEFBD
:1041F0009FEFDF91CF911F910F910895CF92DF92A2
:10420000EF92FF920F931F93CF93DF937C016A018C
:10421000EB0100E010E00C151D0549F0C7010E94FC
:10422000D02097FD04C089930F5F1F4FF4CFC801C2
:10423000DF91CF911F910F91FF90EF90DF90CF9082
:1042400008953F924F925F926F927F928F929F92CA
:10425000AF92BF92CF92DF92EF92FF920F931F9394
:10426000CF93DF9300D000D0CDB7DEB78B0129010B
:104270003A0190917101981721F09F3F09F022C2F5
:1042800004C0EAEBF1E03490AEC080937101EAEB38
:10429000F1E0E491EF3F09F415C2E13009F452C0B6
:1042A0001CF5E1119FC014BC15BC94B5926094BD7F
:1042B00095B5916095BD282F30E0F901E05DFE4F86
:1042C000E491F0E0EE0FFF1FE45AFE4F4591549148
:1042D0005093420740934107F901EE5EFE4F24914F
:1042E00020934007312C81C0E33009F453C0E430FF
:1042F00009F078C01092C0001092C1009091C100E6
:1043000098609093C1009091C10091609093C1001A
:10431000282F30E0F901E05DFE4FE491F0E0EE0F70
:10432000FF1FE45AFE4F4591549150932D0740933F
:104330002C07F901EE5EFE4F249120932B0754E0E9
:10434000352E53C010928000109281009091810010
:10435000986090938100909181009160909381008A
:10436000282F30E0F901E05DFE4FE491F0E0EE0F20
:10437000FF1FE45AFE4F4591549150933B074093E1
:104380003A07F901EE5EFE4F24912093390733245A
:1043900033942BC010929000109291009091910054
:1043A000986090939100909191009160909391000A
:1043B000282F30E0F901E05DFE4FE491F0E0EE0FD0
:1043C000FF1FE45AFE4F4591549150933407409398
:1043D0003307F901EE5EFE4F24912093320773E01C
:1043E000372E03C03E2E37FC6DC161E00E94921E45
:1043F0004801A12CB12C832D8D7F09F0BAC060E05B
:1044000072E18AE790E0A50194010E943F29298387
:104410003A834B835C8369017A0181E0C81AD10831
:10442000E108F1089FEFC916D104E104F10409F095
:1044300008F49AC060E472E48FE090E0A501940172
:104440000E943F2969017A01E1E0CE1AD108E10812
:10445000F108F2E03F1219C08FEFC816D104E10451
:10446000F10409F008F4C9C060E970ED83E090E060
:10447000A50194010E943F2969017A0191E0C91ABE
:10448000D108E108F10883E001C082E0EFEFCE1629
:10449000D104E104F10409F008F467C068E478EE9F
:1044A00081E090E0A50194010E943F2969017A0111
:1044B000F1E0CF1AD108E108F1083320E1F082E001
:1044C00038121BC09FEFC916D104E104F10409F0B2
:1044D00008F493C064E274EF80E090E0A5019401D9
:1044E0000E943F2969017A01E1E0CE1AD108E10872
:1044F000F10885E003C083E001C084E0FFEFCF1640
:10450000D104E104F10489F180F162E17AE780E00D
:1045100090E0A50194010E943F2969017A0181E0A0
:10452000C81AD108E108F108311002C084E001C0C6
:1045300086E09FEFC916D104E104F104B1F0A8F0C0
:10454000C980DA80EB80FC809AE0F594E794D794F8
:10455000C7949A95D1F7E1E0CE1AD108E108F108A5
:1045600031104BC085E003C081E0311046C085BDED
:1045700044C060E072E18AE790E0A50194010E94E6
:104580003F2969017A01F1E0CF1AD108E108F10869
:10459000C114D10481E0E806F10488F068E478EE03
:1045A00081E090E0A50194010E943F2969017A0110
:1045B00091E0C91AD108E108F10893E001C091E047
:1045C000E1E03E1207C080918100887F892B8093B3
:1045D000810013C0F3E03F1207C080919100887FF3
:1045E000892B8093910009C084E0381206C0809125
:1045F000C100887F892B8093C1004114510461045C
:10460000710471F0D801AA0FBB1FA30192010E948F
:10461000642928EE33E040E050E00E941D2903C0E9
:104620002FEF3FEFA90191E0391649F193158CF076
:10463000311048C0C7BC20934307309344074093D0
:1046400045075093460780916E00826080936E000C
:1046500039C0E3E03E1629F1F4E03F1233C0C092C6
:10466000CF0020932E0730932F07409330075093AD
:1046700031078091720080648093720023C0D092D1
:104680008900C092880020933C0730933D074093F7
:104690003E0750933F0780916F00826080936F00C8
:1046A00011C0D0929900C0929800209335073093A2
:1046B0003607409337075093380780917100826026
:1046C000809371000F900F900F900F90DF91CF911A
:1046D0001F910F91FF90EF90DF90CF90BF90AF9020
:1046E0009F908F907F906F905F904F903F90089534
:1046F0008230A9F028F4882349F0813051F00895E0
:104700008430B1F090F08530B1F0089510926E00D1
:10471000089580916F008D7F80936F000895809140
:1047200070008D7F8093700008951092710008953D
:10473000109272000895109273000895CF93C82FBD
:10474000809171018C1307C0EAEBF1E084919FEF37
:104750009093710101C08FEF0E94782360E08C2F4D
:10476000CF910C94CB1E1F920F920FB60F92112473
:104770002F933F938F939F93AF93BF93EF93FF93A9
:104780008091350790913607A0913707B09138078F
:10479000892B8A2B8B2B51F190913207E0913307B3
:1047A000F09134078081892780838091350790912B
:1047B0003607A0913707B0913807181619061A0660
:1047C0001B0624F58091350790913607A091370795
:1047D000B09138070197A109B109809335079093EB
:1047E0003607A0933707B093380710C010927100B6
:1047F00020913207E0913307F0913407808190E0F7
:1048000030E020953095822393238083FF91EF91B0
:10481000BF91AF919F918F913F912F910F900FBEBC
:104820000F901F90189540914B0750914C07209185
:10483000490730914A0742175307B4F49091E800B2
:104840009570E1F39091E80092FD19C08093F1001A
:1048500080914B0790914C0701968F739927892B74
:1048600019F48EEF8093E80080914B0790914C07EC
:10487000019690934C0780934B0781E0089580E068
:104880000895CF92DF92FF920F931F93CF93DF9300
:104890001F92CDB7DEB7082F162F862F880F8E5F99
:1048A00099830E94132483E00E941324F02EC02ECB
:1048B0009981D92E8C2D8F19811778F4F601849166
:1048C0000E941324082F80E00E9413248023FFEF0E
:1048D000CF1ADF0A8111EECF01C081E00F90DF9186
:1048E000CF911F910F91FF90DF90CF90089561506D
:1048F00030F02091F100FC0120830196F8CF289A36
:1049000084E680934E0708952FB7FC012083F89426
:1049100067706093E9000895CF93DF931F92CDB73E
:10492000DEB7682FCE0101960E9484248091F200A8
:1049300099819FBF0F90DF91CF910895FF920F93C0
:104940001F93CF93DF9300D0CDB7DEB7F62E8A0149
:1049500090914D07992311F057FF03C08FEF9FEF00
:104960002BC0682FCE0101967A830E948424809107
:10497000F20090E0A8017A81801791070CF4AC0155
:10498000EF2DF72FF40E84E6FE1639F0289A809367
:104990004E079091F1009193F7CF4115510521F009
:1049A0008091F200882321F089818FBFCA0104C061
:1049B0008BE68093E800F8CF0F900F90DF91CF91B6
:1049C0001F910F91FF900895CF93DF931F92CDB762
:1049D000DEB741E050E0BE016F5F7F4F0E949E2432
:1049E000019719F4898190E002C08FEF9FEF0F903B
:1049F000DF91CF910895CF93DF931F92CDB7DEB7AC
:104A0000682FCE0101960E9484249091E800892F9E
:104A1000807295FF04C09091F20080E4891B998117
:104A20009FBF0F90DF91CF9108956F927F928F92E9
:104A30009F92AF92BF92CF92DF92EF92FF920F932D
:104A40001F93CF93DF931F92CDB7DEB7782E7B01F4
:104A5000C42EB52E80914D07882369F0042F152FA1
:104A60008AEFD82E872D8072982E9AE3A92E872D53
:104A70008074882E11C08FEF9FEF57C0872D0E9442
:104A8000FB24682E81110CC0DA94A9F361E070E078
:104A900080E090E00E940C1D0115110579F73BC0E4
:104AA000282F30E0021713070CF4602E672DCE017B
:104AB00001960E9484248091E80085FF29C0262D5C
:104AC00030E0021B130B992039F06A948FEF6816BF
:104AD000B1F01092F100F9CFF701862D77FE07C0F3
:104AE000815058F094919093F1003196F9CF815014
:104AF00020F091919093F100FACFE20EF31E809195
:104B0000E80085FF0FC00115110511F481100AC0DE
:104B100089818FBFC1CF5D9A84E680934F078C2D2A
:104B20009B2D03C0A092E800F3CF0F90DF91CF91AF
:104B30001F910F91FF90EF90DF90CF90BF90AF90BB
:104B40009F908F907F906F9008951092E90010923F
:104B50004C0710924B0790934A078093490708959A
:104B6000CF92DF92FF920F931F93CF93DF9300D0EA
:104B7000CDB7DEB7F82E8A016B0101151105B1F032
:104B8000F601F7FE02C0849101C0808149835A83F7
:104B90000E94132401501109FFEFCF1ADF0A498147
:104BA0005A818111EACF8FEF9FEF01C0CA010F90A8
:104BB0000F90DF91CF911F910F91FF90DF90CF90D9
:104BC00008951F93CF93DF931F92CDB7DEB7162FB3
:104BD0002091E80022FFFCCF612F79830E94772487
:104BE0008BEF8093E800812F7981972F0F90DF91D1
:104BF000CF911F910895CF93DF931F92CDB7DEB76A
:104C00001982CE0101960E940E20CE0101960E94CB
:104C1000D827898190E00F90DF91CF9108951F925E
:104C20000F920FB60F921124EF92FF920F931F93E2
:104C30002F933F934F935F936F937F938F939F93A4
:104C4000AF93BF93EF93FF93CF93DF93CDB7DEB7CF
:104C50006297DEBFCDBF1092E9008091E80083FF2C
:104C6000EBC068E0CE010A960E94772482EF809321
:104C7000E8009A8597FF05C08091E80080FFFCCF8F
:104C800003C08EEF8093E800892F807609F0B9C0C9
:104C90008B85811105C01092F1001092F100C5C002
:104CA000282F2D7F213009F4C0C0853049F4809130
:104CB000E80080FFFCCF8C8580688093E300B5C05E
:104CC000863009F076C02D85E888F988223071F5A4
:104CD00080E090E02A8B0E94A5250E94FB2599E0A8
:104CE0008E010F5F1F4FF801392F11923A95E9F7A6
:104CF00099832A892A8391E09E8390E898879AEF86
:104D0000998720914B0730914C07275F3F4F3C8399
:104D10002B838D83C7010E94A52549E050E0B8018F
:104D200080E00E94B0250E94FB257FC0C7012A8B2E
:104D30000E94A5252A89223241F482E290E00E9455
:104D4000E327892B09F071C074C0213069F4888988
:104D50009989089711F42093480780914807811199
:104D600018C062ED71E01AC0233009F062C08C8572
:104D7000882391F0823021F46DE080EF91E006C04D
:104D8000813009F056C06BE084EE91E00E9441242E
:104D90004AC060EC71E002C06EEF71E06115710510
:104DA00009F447C0FB01449150E080E80E94B0251F
:104DB0003CC0873009F43DC0883021F481E0809305
:104DC000F10033C0893089F5937099F5ECEBF1E08F
:104DD00081E021E096E38093E9002093EB00349199
:104DE0003093EC009093ED008F5F3196853099F70A
:104DF0008EE78093EA001092EA008C8580934D073D
:104E000014C0888999890E94A5258E85811105C0C5
:104E1000CE010A960E94192006C0823051F4CE01BC
:104E20000A960E940B28882321F08EEF8093E800D9
:104E300003C081E28093EB0062960FB6F894DEBF68
:104E40000FBECDBFDF91CF91FF91EF91BF91AF9199
:104E50009F918F917F916F915F914F913F912F9192
:104E60001F910F91FF90EF900F900FBE0F901F902A
:104E700018958093E9008091F200882319F08AE365
:104E80008093E80008951F920F920FB60F9211249D
:104E90002F933F934F935F936F937F938F939F9342
:104EA000AF93BF93EF93FF938091E1001092E100E5
:104EB00083FF0FC01092E90091E09093EB001092F5
:104EC000EC0092E39093ED0010924D0798E09093E0
:104ED000F00082FF1DC083E00E94392780914F07B8
:104EE000882339F080914F07815080934F078823A2
:104EF00069F080914E07882359F080914E078150C8
:104F000080934E07811104C0289802C05D98F1CFAC
:104F1000FF91EF91BF91AF919F918F917F916F9191
:104F20005F914F913F912F910F900FBE0F901F9067
:104F3000189510924D0781E08093D70080EA809306
:104F4000D80082E189BD09B400FEFDCF61E070E0C8
:104F500080E090E00E940C1D80E98093D8008CE0F6
:104F60008093E2001092E000559A209A5D9828986C
:104F700008950895FF920F931F93CF93DF93EC0151
:104F8000F62EE881F9810480F581E02D09958C01E8
:104F9000E881F9810680F781E02D6F2DCE0109951A
:104FA000C8019927DF91CF911F910F91FF9008952C
:104FB000FC0120812F5F208349E150E062E872E02C
:104FC00080E80C94B02545E650E06BE972E080E89B
:104FD0000C94B025EF92FF920F931F93CF93DF9322
:104FE0001F92CDB7DEB789838B017A0141E050E093
:104FF000BE016F5F7F4F84E00E941525A701B801B5
:1050000084E40E9415250F90DF91CF911F910F919D
:10501000FF90EF900895FC0191818081813A31F4F5
:1050200081E0913091F0933089F411C0813271F4B4
:105030009B3021F482818093730105C09A3031F452
:1050400082818093720181E00895089580E008953F
:1050500048E050E082E00C94EA27CF93DF93DC0134
:10506000683818F0E8E7E60F25C0E62FF0E067FFA4
:1050700011C0E058F10981E090E001C0880FEA9585
:10508000EAF714969C911497982B14969C93149776
:10509000E0E010C0EE5FFD4FE491EE2309F440C064
:1050A000E7FF08C014968C911497826014968C9335
:1050B0001497EF7716968C9116978E1741F11796E5
:1050C0008C9117978E1719F118968C9118978E1747
:1050D000F1F019968C9119978E17C9F01A968C9148
:1050E0001A978E17A1F01B968C911B978E1779F04B
:1050F00080E090E0ED01C80FD91F2E81211102C080
:10510000EE8305C0019686309105A1F709C0BD0167
:105110006C5F7F4FCD010E94282881E090E008C09D
:1051200081E090E013969C938E93129780E090E03C
:10513000DF91CF910895683818F0E8E7E60F25C0B1
:10514000E62FF0E067FF12C0E058F10921E030E0FF
:1051500001C0220FEA95EAF72095DC0114963C91F4
:105160001497322314963C93E0E00FC0EE5FFD4F9E
:10517000E491EE2329F1E7FF08C0DC0114962C919D
:1051800014972D7F14962C93EF7720E030E0EE23D8
:1051900051F0DC01A20FB31F16964C9116974E13D7
:1051A00002C016961C922F5F3F4F2630310579F7CB
:1051B000BC016C5F7F4F0E94282881E090E0089539
:1051C00080E090E00895FC01168217821086118617
:1051D000128613861482BC016C5F7F4F0C942828C2
:1051E00010925C0710925307109252078CE894E0DB
:1051F00090935107809350070895991B79E004C05C
:10520000991F961708F0961B881F7A95C9F7809505
:10521000089597FB072E16F4009407D077FD09D068
:105220000E946F2907FC05D03EF4909581959F4F11
:105230000895709561957F4F0895A1E21A2EAA1BDB
:10524000BB1BFD010DC0AA1FBB1FEE1FFF1FA21736
:10525000B307E407F50720F0A21BB30BE40BF50B33
:10526000661F771F881F991F1A9469F760957095BC
:10527000809590959B01AC01BD01CF010895052E4D
:1052800097FB1EF400940E94562957FD07D00E94F8
:105290001D2907FC03D04EF40C94562950954095D7
:1052A000309521953F4F4F4F5F4F089590958095D2
:1052B000709561957F4F8F4F9F4F0895EE0FFF1FA1
:1052C0000590F491E02D09940E948329A59F900DEB
:1052D000B49F900DA49F800D911D11240895AA1BC9
:1052E000BB1B51E107C0AA1FBB1FA617B70710F0D1
:1052F000A61BB70B881F991F5A95A9F78095909503
:10530000BC01CD010895A29FB001B39FC001A39F2E
:10531000700D811D1124911DB29F700D811D1124EE
:10532000911D0895CF93DF938230910510F482E0B0
:1053300090E0E0915F07F091600720E030E0A0E0AE
:10534000B0E0309739F14081518148175907B8F0E2
:105350004817590771F482819381109729F01396A9
:105360009C938E9312972CC09093600780935F0755
:1053700027C02115310531F04217530718F0A90154
:10538000DB0101C0EF019A01BD01DF010280F38161
:10539000E02DD7CF21153105F9F0281B390B24302A
:1053A000310580F48A819B816115710521F0FB0133
:1053B0009383828304C09093600780935F07FE010C
:1053C000329644C0FE01E20FF31F81939193225065
:1053D0003109398328833AC020915D0730915E07F7
:1053E000232B41F4209102013091030130935E0799
:1053F00020935D07209100013091010121153105B5
:1054000041F42DB73EB74091040150910501241B92
:10541000350BE0915D07F0915E07E217F307A0F40A
:105420002E1B3F0B2817390778F0AC014E5F5F4FFA
:105430002417350748F04E0F5F1F50935E074093C7
:105440005D078193919302C0E0E0F0E0CF01DF912E
:10545000CF910895CF93DF93009709F487C0FC01A3
:10546000329713821282C0915F07D0916007209714
:1054700081F420813181280F391F80915D0790913F
:105480005E078217930779F5F0935E07E0935D0757
:105490006DC0DE0120E030E0AE17BF0750F4129679
:1054A0004D915C9113979D014115510509F1DA0168
:1054B000F3CFB383A28340815181840F951F8A1754
:1054C0009B0771F48D919C911197840F951F029603
:1054D0009183808312968D919C91139793838283FD
:1054E0002115310529F4F0936007E0935F073EC072
:1054F000D9011396FC93EE9312974D915D91A40FF1
:10550000B51FEA17FB0779F480819181840F951FFD
:105510000296D90111969C938E9382819381139662
:105520009C938E931297E0E0F0E08A819B81009734
:1055300019F0FE01EC01F9CFCE01029628813981E4
:10554000820F931F20915D0730915E07281739075E
:1055500069F4309729F41092600710925F0702C037
:1055600013821282D0935E07C0935D07DF91CF91C3
:10557000089581E090E0F8940C94D42AF999FECF34
:1055800092BD81BDF89A992780B50895262FF99983
:10559000FECF1FBA92BD81BD20BD0FB6F894FA9A16
:0C55A000F99A0FBE01960895F894FFCF11
:1055AC00000061078000010000002C01000058027F
:1055BC000000B004000060090000C012000080254B
:1055CC00000040380000004B000080700000127A90
:1055DC0000000096000000E1000000C20100040081
:1055EC0000000500010006000200030000127A0012
:1055FC0000093D0080841E0040420F0020A10700DE
:10560C0090D0030048E801000100E1000000000018
:10561C0000FF01010000000055022802FD010502F7
:10562C001802270200000000CD09C60D340AD00A6A
:10563C00590E210BAF0BDF0B7909AC0ECD0E730A93
:10564C00E40B8309870FB90F8609F80B890916102B
:10565C00610C25107F0763074E07860792079C078E
:10566C00CF07B108DC07F4070A08200836084C08F5
:10567C00620878087F0C880C010D8A0D9208950839
:10568C0098089B089E08C009C209BC09A00EA40E6C
:10569C001807A108A208A308A408A508A608A7082B
:1056AC00A808A908AA08AB08AC08AD08AE08AF0852
:1056BC00B0084D07D20800030506090A00010203D1
:1056CC000405060708090A0E0F101213141503001F
:1056DC00E0C8100000010203060708090A417264C1
:1056EC0075696E6F2050726F204D6963726F000088
:1056FC00000000CD09C60D340AD00A590E210BAF9B
:10570C000BDF0B7909AC0ECD0E730AE40B83098702
:10571C000FB90F8609F80B89091610610C25107F3B
:10572C000763074E07860792079C07CF07B108DC73
:10573C0007F4070A08200836084C08620878087F26
:10574C000C880C010D8A0D9208950898089B089EF0
:10575C0008C009C209BC09A00EA40E1807A108A212
:10576C0008A308A408A508A608A708A808A908AAB9
:10577C0008AB08AC08AD08AE08AF08B0084D07D2AE
:10578C0008446562756767696E6720456E61626C77
:10579C0065640000000000AF1FAF1FAF1FAF1FAF4D
:1057AC001FAF1FAF1FAF1FAF1FAF1FAF1FAF1FAF7D
:1057BC001FAF1FAF1FAF1FAF1FAF1FAF1FAF1FAF6D
:1057CC001FAF1F7F0763074E07860792079C07CF03
:1057DC0007B108DC07F4070A08200836084C0862F1
:1057EC00087808AF1FAF1FAF1FAF1F92089508981E
:1057FC00089B089E08AF1FAF1F4C07AF1FAF1F18A9
:10580C0007A108A208A308A408A508A608A708A829
:10581C0008A908AA08AB08AC08AD08AE08AF08B0D8
:10582C00084D07D20843726561746564204E657734
:10583C0020536572766F204F6E204368616E6E65E3
:10584C006C2000536572766F2000203A2000000017
:10585C000000CD09C60D340AD00A590E210BAF0B2E
:10586C00DF0B7909AC0ECD0E730AE40B8309870F9D
:10587C00B90F8609F80B89091610610C25107F07E2
:10588C0063074E07860792079C07CF07B108DC0712
:10589C00F4070A08200836084C08620878087F0CC0
:1058AC00880C010D8A0D9208950898089B089E0893
:1058BC00C009C209BC09A00EA40E1807A108A208B1
:1058CC00A308A408A508A608A708A808A908AA0858
:1058DC00AB08AC08AD08AE08AF08B0084D07D2084D
:1058EC0000000000EE11F111F411F7116E106810A8
:1058FC006B10A6113010436C6F736520436F6D6D88
:10590C00616E640000000000EE11F111F411F7114A
:10591C00FA11FD110012031200000000B11FF81F54
:10592C00DB1FEB1FC71FD81F00000000BA27A820E1
:06593C002D289B28E32842
:00000001FF
