:100000000C9465000C948D000C948D000C948D0064
:100010000C948D000C948D000C948D000C94E622B1
:100020000C948D000C948D000C948D000C94B803EE
:100030000C948D000C948D000C948D000C948D000C
:100040000C94751B0C948D000C94791F0C94AB1FB1
:100050000C948D000C948D000C948D000C948D00EC
:100060000C948B020C948D0000000008000201002B
:100070000003040700000000000000000102040863
:100080001020408001020408102001020408102002
:10009000040404040404040402020202020203032E
:1000A00003030303000000002300260029000000D2
:1000B0000000250028002B0000000000240027007D
:1000C0002A000200A901D410DB1F11241FBECFEFAC
:1000D000D8E0DEBFCDBF14E0A0E0B1E0E8E3FAE491
:1000E00002C005900D92AA37B107D9F727E0AAE719
:1000F000B4E001C01D92AD36B207E1F710E0CAECE2
:10010000D0E004C02297FE010E94C523C43CD10761
:10011000C9F70E941F200C941A250C940000CF935D
:10012000DF9383EC90E00E942E20EC010E945505A5
:10013000D0937B04C0937A0440E0BE0182E895E04E
:10014000DF91CF910C941A0F82E895E00C949010F7
:10015000CF93CFB7F89480917C04811127C0EAE94E
:10016000F0E08491E6E8F0E09491E82FF0E0EE0F03
:10017000FF1FE854FF4FA591B4918C91892321F47E
:1001800061E08AE00E94321D61E08AE00E94F91C71
:100190008CB580618CBD8CB580648CBD61E08DE0D8
:1001A0000E94F91C61E08BE00E94F91C80917C04A4
:1001B0008F5F80937C04CFBFCF9108958091AD0471
:1001C00090E02091AE04821B910908952091AE0425
:1001D0008091AD04281750F4E22FF0E0E155FB4F79
:1001E000808190E02F5F2093AE0408958FEF9FEF02
:1001F0000895E091AE048091AD04E81730F4F0E08A
:10020000E155FB4F808190E008958FEF9FEF0895B7
:100210000895CF92DF92EF92FF920F931F93CF93A7
:10022000DF937C01CB018A0120918904222389F08C
:10023000EB016B01C40ED51ECC15DD0569F069918B
:10024000D701ED91FC910190F081E02DC701099556
:10025000F3CF642F0E946202C801DF91CF911F91FA
:100260000F91FF90EF90DF90CF900895CF93DF93A1
:100270001F92CDB7DEB76983209189042223D1F084
:1002800020918A04203240F021E030E0FC013383E9
:10029000228380E090E015C080918B04E82FF0E08D
:1002A000E457FB4F998190838F5F80938B048093F9
:1002B0008A0405C061E0CE0101960E94620281E0DD
:1002C00090E00F90DF91CF910895FC01138212828C
:1002D00048EE53E060E070E04483558366837783A3
:1002E0008EE691E09183808308951092AE0410927F
:1002F000AD0410928B0410928A040C94AD01862FE9
:10030000413208F040E26FEA74E00E94CB011092A3
:10031000AE048093AD04089581E0809389046093D6
:10032000AC0410928B0410928A0408950F93062F48
:1003300021E040918A046CE874E08091AC040E9452
:100340000F0210928B0410928A04109289040F916C
:1003500008958DE794E00C94650110923C0581E0CE
:1003600080933A051092390561E082E10E94321DC6
:1003700061E083E10E94321DE9EBF0E080818E7F35
:10038000808380818D7F808388E48093B80085E4BA
:100390008093BC000895413208F03FC090913C0525
:1003A0009111FCCF91E090933C0520933A052FEFFB
:1003B0002093CF0410921405240F209313059093DB
:1003C0003B0590913B05880F892B80933B058091DD
:1003D0003905813041F41092390580913B058093B5
:1003E000BB0085EC01C085EE8093BC0080913C058C
:1003F0008130E1F380911405841710F440911405C5
:1004000025E135E0FB01D9018A2F821B841718F4FE
:100410008D918193F9CF842F089580E008950F93F3
:10042000413208F046C090913C059111FCCF92E01A
:1004300090933C0500933A059FEF9093CF04109260
:10044000140540931305FB0165E175E0DB019A2F6C
:10045000961B941718F491919D93F9CF10923B0538
:1004600090913B05880F892B80933B05809139053E
:10047000813041F41092390580913B058093BB0097
:1004800085EC01C085EE8093BC00222321F0809191
:100490003C058230E1F38091CF048F3F61F0809181
:1004A000CF04803251F08091CF04803341F483E057
:1004B00007C081E005C080E003C082E001C084E0A5
:1004C0000F910895613298F420913C05243089F40D
:1004D0006093F104FC0183EF94E0DC012A2F281BD8
:1004E000261718F421912D93F9CF80E0089581E02B
:1004F000089582E0089585ED8093BC008091BC0052
:1005000084FDFCCF10923C05089585EC8093BC00DF
:1005100010923C0508951F920F920FB60F9211246E
:100520002F933F934F935F936F937F938F939F93FB
:10053000AF93BF93EF93FF938091B900887F80368C
:1005400009F49CC068F5883209F45BC090F48031EE
:1005500009F454C038F4882309F4F5C0883009F44C
:100560004DC0F5C0883109F44CC0803209F45DC03B
:10057000EEC0803409F468C048F4803309F455C0F3
:10058000883309F0E4C08093CF04A8C0803509F413
:100590004FC0883509F45DC0883409F0D8C0D5C093
:1005A000883909F4C6C0A8F4883709F467C038F45C
:1005B000883609F463C0803709F460C0C8C0883841
:1005C00009F4B7C0803909F45FC0803809F0BFC0B2
:1005D0005BC0803B09F485C038F4803A09F466C0FA
:1005E000883A09F47EC0B3C0803C09F4A6C0883CB8
:1005F00009F4A3C0883B09F489C0A9C080913B05D8
:1006000010C09091140580911305981770F5E09132
:10061000140581E08E0F80931405F0E0EB5EFA4F35
:1006200080818093BB0085EC85C08093CF048DC012
:10063000E091140581E08E0F809314058091BB003A
:10064000F0E0EB5EFA4F80839091140580911305E2
:100650006DC0E091140581E08E0F809314058091A8
:10066000BB00F0E0EB5EFA4F808380913A05811188
:100670006CC081E08093390584EA60C083E0809398
:100680003C051092D004CFCF8091D004803208F086
:1006900050C0E091D00481E08E0F8093D00480910F
:1006A000BB00F0E0EF52FB4F8083BDCF8091D004C0
:1006B000803230F4E091D004F0E0EF52FB4F108232
:1006C0000E947B026091D00470E0E0913505F091CA
:1006D000360581ED94E009951092D0040E948502C0
:1006E00036C084E080933C051092F2041092F1042D
:1006F000E0913705F091380509958091F104811159
:1007000005C081E08093F1041092F304E091F204BB
:1007100081E08E0F8093F204F0E0ED50FB4F80817A
:100720008093BB009091F2048091F104981708F433
:100730007ACF85E88093BC000AC085EC8093BC002A
:1007400010923C0504C01092CF040E947B02FF91DE
:10075000EF91BF91AF919F918F917F916F915F9139
:100760004F913F912F910F900FBE0F901F901895B2
:100770001F920F920FB60F9211242F933F934F9316
:100780005F936F937F938F939F93AF93BF93EF93F9
:10079000FF9380913E0587FF05C01092850010925F
:1007A00084001AC020913E05332727FD30958091A3
:1007B0003D0590E0281739077CF480913E05992784
:1007C00087FD9095FC01EE0FFF1FE80FF91FE15C1C
:1007D000FA4F808186FD15C080913E058F5F809322
:1007E0003E0520913E05332727FD309580913D053C
:1007F00090E028173907BCF480913E058C305CF1FD
:1008000012C080913E05992787FD9095FC01EE0F5F
:10081000FF1FE80FF91FE15CFA4F808160E08F73E2
:100820000E94321DD9CF809184009091850004965A
:1008300080349C4918F480E49CE905C080918400D0
:1008400090918500049690938900809388008FEFA3
:1008500080933E0538C020918400309185008091BE
:100860003E05992787FD9095FC01EE0FFF1FE80FCD
:10087000F91FE15CFA4F81819281820F931F90935F
:1008800089008093880080913E05992787FD909587
:10089000FC01EE0FFF1FE80FF91FE15CFA4F8081AA
:1008A00086FF11C080913E05992787FD9095FC0138
:1008B000EE0FFF1FE80FF91FE15CFA4F808161E046
:1008C0008F730E94321DFF91EF91BF91AF919F9165
:1008D0008F917F916F915F914F913F912F910F90E9
:1008E0000FBE0F901F90189520913D052C30A0F45D
:1008F00031E0320F30933D05FC012083822F90E0E0
:10090000FC01EE0FFF1FE80FF91FE15CFA4F88EBC7
:100910009BE09283818308952FEFFC01208308954B
:10092000DF92EF92FF920F931F93CF93DF93EC012F
:10093000D62E7A01890188818C3008F066C061E08A
:100940008D2D0E94F91C8881A82FB0E0FD01EE0FCB
:10095000FF1FEA0FFB1FE15CFA4F2D2D2F739081D3
:10096000907C922B908360E272E06E197F0977FF92
:1009700002C06D5F7F4F7595679575956795698323
:1009800040E659E0401B510B57FF02C04D5F5F4FDF
:1009900055954795559547954A836CE00E944323AA
:1009A0009CE0899FB001112420E030E0A901460FAE
:1009B000571FFA01EE0FFF1FE40FF51FE15CFA4F1E
:1009C000908196FD16C02F5F3F4F2C30310571F797
:1009D00081110FC01092800082E0809381001092FC
:1009E000850010928400B19A80916F00826080939C
:1009F0006F00888190E0FC01EE0FFF1FE80FF91FE8
:100A0000E15CFA4F8081806480838881DF91CF919F
:100A10001F910F91FF90EF90DF90089520E639E04D
:100A200040E252E00C949004FC01808190E0FC01D3
:100A3000EE0FFF1FE80FF91FE15CFA4F80818F7BFB
:100A400080830895FC0180818C3070F5918128E8C5
:100A500030E0291B310997FD3395220F331F220FF8
:100A6000331F621773077CF0928128E532E0291B5F
:100A7000310997FD3395220F331F220F331F621761
:100A800073070CF49B0122503109220F331F4FB71B
:100A9000F89490E0FC01EE0FFF1FE80FF91FE15CF6
:100AA000FA4F328321834FBF0895CF93DF93EC0138
:100AB0000E94ED058EE791E09983888385E08B8322
:100AC00081E18C838FE292E09E838D8382E08F832D
:100AD00018861986AEE0AA8783E192E09C878B870F
:100AE00028E02D8727E232E03F872E872AE0288BF7
:100AF00040E45BE46CE470E04D8B5E8B6F8B788F31
:100B0000498B5A8B6B8B7C8BFE01E355FF4F21E2A7
:100B100032E0318320833397B1E0B083319623E212
:100B200032E0318320833496108211821282138244
:100B300034964083518362837383198E1B8E1A8E81
:100B400026E02C8F2DE032E03E8F2D8F1F8E19A2D4
:100B500018A2BAA32FE735E03CA32BA340913A019A
:100B600050913B0160913C0170913D014DA35EA30A
:100B70006FA378A734962DE0208331962AE031E0E8
:100B800031832083B9A721E835E03BA72AA7379610
:100B900020E835E031832083BCA72CE032E03EA77B
:100BA0002DA7359727E0208331962CE431E031835F
:100BB000208332962EE331E0318320831FA619AAC9
:100BC00018AAAAAB9CAB8BABCF53DF4F83E695E063
:100BD00099838883DF91CF910895CF93DF93EC01C0
:100BE0000E945A0E84E492E09983888382E08A838B
:100BF000DF91CF910895EF92FF920F931F93CF93C0
:100C0000DF9300D000D0CDB7DEB77C0119821A8205
:100C10001B821C82DC01ED91FC9102A0F3A1E02D6E
:100C20008E010F5F1F4F20E032EC41E050E009954C
:100C3000D701ED91FC91E258FF4F0190F081E02D3A
:100C400062ED72E0C70109950F900F900F900F9021
:100C5000DF91CF911F910F91FF90EF90089508952C
:100C60000895CF93DF931F92CDB7DEB74983DC01A0
:100C7000ED91FC9102A4F3A5E02D9E012F5F3F4F63
:100C800041E009950F90DF91CF910895FF920F9366
:100C90001F93CF93DF93EC01F62E8A01F801419167
:100CA0008F01442349F0E881F98104A4F5A5E02DE2
:100CB0006F2DCE010995F2CFDF91CF911F910F914A
:100CC000FF900895DC01ED91FC9100A8F1A9E02DC1
:100CD0000994DC01ED91FC919A01442737FD409580
:100CE000542F06A8F7A9E02D0994DC01ED91FC91A1
:100CF0009A0140E050E000ACF1ADE02D0994CF92B4
:100D0000DF92EF92FF920F931F93CF93DF93EC014B
:100D1000162F69017A0157FF0FC0E881F98104A4F9
:100D2000F5A5E02D4DE20995F094E094D094C0949F
:100D3000C11CD11CE11CF11CE881F981E457FF4F73
:100D40000190F081E02D0AE0A7019601612FCE010C
:100D50000995DF91CF911F910F91FF90EF90DF9058
:100D6000CF9008950F93DC01ED91FC91E457FF4F74
:100D70000190F081E02D0AE009950F9108951F93ED
:100D8000CF93DF93EC01162FE881F98104A4F5A538
:100D9000E02D4DE00995E881F98104A4F5A5E02D49
:100DA0004AE0612FCE01DF91CF911F9109941F93EB
:100DB000CF93DF93EC01162FE881F98104A4F5A508
:100DC000E02D0995E881F98104ACF5ADE02D612FA6
:100DD000CE01DF91CF911F9109941F93CF93DF93A1
:100DE000EC01162FE881F98106A4F7A5E02D0995FD
:100DF000E881F98104ACF5ADE02D612FCE01DF91E2
:100E0000CF911F9109941F93CF93DF93EC01162F7D
:100E1000E881F98100A8F1A9E02D0995E881F9811F
:100E200004ACF5ADE02D612FCE01DF91CF911F9184
:100E300009941F93CF93DF93EC01162FE881F9817A
:100E400002A8F3A9E02D0995E881F98104ACF5AD7C
:100E5000E02D612FCE01DF91CF911F9109941F9357
:100E6000CF93DF93EC01162FE881F98106A8F7A94B
:100E7000E02D0995E881F98104ACF5ADE02D612FF5
:100E8000CE01DF91CF911F9109941F93CF93DF93F0
:100E9000EC01162FE881F98100ACF1ADE02D099548
:100EA000E881F98104ACF5ADE02D612FCE01DF9131
:100EB000CF911F910994FF920F931F93CF93DF93CC
:100EC000EC01F62EE881F98102ACF3ADE02D099535
:100ED000E881F98104ACF5ADE02D6F2DCE01DF91F5
:100EE000CF911F910F91FF90099481E090E00895B8
:100EF00081E090E0089581E090E0089581E090E045
:100F0000089581E090E00895089508950895089562
:100F100008950895089508950895089508950895E9
:100F200008950895089508950F931F93DC01ED919E
:100F3000FC910115110539F404A4F5A5E02D422F0B
:100F40001F910F9109940A30110531F406A8F7A9F1
:100F5000E02D1F910F910994E457FF4F0190F0810C
:100F6000E02D09951F910F9108952F923F924F9276
:100F70005F926F927F928F929F92AF92BF92CF9229
:100F8000DF92EF92FF920F931F93CF93DF93CDB732
:100F9000DEB7A0970FB6F894DEBF0FBECDBF5C01E1
:100FA000162FCA01B901211531054105510511F569
:100FB000D501ED91FC9104A4F5A5E02D40E3612F4E
:100FC000C501A0960FB6F894DEBF0FBECDBFDF916E
:100FD000CF911F910F91FF90EF90DF90CF90BF9036
:100FE000AF909F908F907F906F905F904F903F90C9
:100FF0002F900994FE0131964F01C12CD12C76011E
:101000003F01202E312C412C512CFFEFCF1ADF0A4B
:10101000EF0AFF0AA20191010E946323D4016D939C
:101020004D01B901CA01611571058105910569F785
:10103000B1E0CB1AD108E108F108D501ED91FC919E
:1010400004A4F5A5E02DD301AC0DBD1D4C914A3093
:1010500010F4405D01C0495C612FC5010995B1E004
:10106000CB1AD108E108F108EFEFCE16DE06EE0646
:10107000FE0619F7A0960FB6F894DEBF0FBECDBFDF
:10108000DF91CF911F910F91FF90EF90DF90CF9064
:10109000BF90AF909F908F907F906F905F904F9098
:1010A0003F902F900895FC0188EE92E09183808319
:1010B0008EEF8283138208958CB5411102C0806245
:1010C00001C08F7D8CBD80E090E0089580E090E0CD
:1010D000089581E090E00895CF92DF92FF920F9300
:1010E0001F93CF93DF9300D000D0CDB7DEB76C0154
:1010F000F62EDC01ED91FC91E45BFF4F0190F08155
:10110000E02D29833A834B835C830995D601ED91C9
:10111000FC9102A0F3A1E02D29813A814B815C81F1
:101120006F2DC60109950F900F900F900F90DF91D2
:10113000CF911F910F91FF90DF90CF900895CB0139
:10114000BA010C94EE1B0C94BF1B0E94BF1B28EE2F
:1011500033E040E050E00E946323CA01B9010895E2
:101160004F925F927F928F929F92AF92BF92CF9257
:10117000DF92EF92FF920F931F93CF93DF931F9213
:10118000CDB7DEB77C016A018901F90110822A011D
:1011900078E0712CA62EB12C88E0882E912CC2010B
:1011A0008C199D098A159B057CF5F20181912F010F
:1011B00079830E94541CF70160897981662379F351
:1011C000F7012089261BAC0102C0569547952A9548
:1011D000E2F79A01A401471B5109042E01C0220F16
:1011E0000A94EAF7F801E70DF11D3081322B3083C4
:1011F000671710F4761BD3CF671B7394F801E70DC4
:10120000F11D108278E0DACF80E090E00F90DF915E
:10121000CF911F910F91FF90EF90DF90CF90BF90F3
:10122000AF909F908F907F905F904F900895AF9276
:10123000BF92CF92DF92EF92FF920F931F93CF93C3
:10124000DF937901EA0100E010E0A62EB12C0A1527
:101250001B05FCF46E0161E089910E94F91CF80104
:1012600093E0F595E7959A95E1F7EE0DFF1D608106
:1012700070E0C8018770992702C0759567958A95B7
:10128000E2F76170F60180810E94321D0F5F1F4FEF
:10129000DECF80E090E0DF91CF911F910F91FF9022
:1012A000EF90DF90CF90BF90AF9008955F926F92D4
:1012B0007F928F929F92AF92BF92CF92DF92EF92E6
:1012C000FF920F931F93CF93DF93542E822E1E2DE8
:1012D00061E0802F0E94F91C1170FF24F394F12625
:1012E0006F2D802F0E94321DE12CC0E0D0E0912CA8
:1012F000652C712CC815D90524F5612F802F0E940B
:10130000321D40E050E046155705A4F48E2D840FA1
:1013100090E0F501E80FF91FD601A80FB91F8C91D5
:101320008EBD00000DB407FEFDCF8EB580834F5FEC
:101330005F4FE9CF6F2D802F0E94321D2196E50C63
:10134000D9CF80E090E0DF91CF911F910F91FF9076
:10135000EF90DF90CF90BF90AF909F908F907F9055
:101360006F905F9008956F927F929F92AF92BF921D
:10137000CF92DF92EF92FF920F931F93CF93DF9361
:101380001F92CDB7DEB78A0179013A01B12CA12CA9
:1013900028E0C62ED12CC301801B910B8C159D0516
:1013A000F4F4211108C0F701EA0DF11DB082A394F5
:1013B000B12C27E001C02150F30191903F0160E082
:1013C000892D29830E94F91C892D0E94681D29817D
:1013D000022E01C0880F0A94EAF7B82ADCCFF70181
:1013E000EA0DF11DB08280E090E00F90DF91CF9187
:1013F0001F910F91FF90EF90DF90CF90BF90AF9033
:101400009F907F906F9008959F92AF92BF92CF92DE
:10141000DF92EF92FF920F931F93CF93DF9300D051
:1014200000D0CDB7DEB7162F842F922EA7019601DC
:10143000813029F561E0812FC9823A834B835C8337
:101440000E94F91C61E0812F0E94321D61E070E072
:1014500080E090E00E94EE1B60E0812F0E94321D30
:1014600061E070E080E090E00E94EE1B61E0812F7F
:101470000E94321D29813A814B815C8126C08230D5
:1014800021F561E0812FC9823A834B835C830E94FE
:10149000F91C60E0812F0E94321D61E070E080E065
:1014A00090E00E94EE1B61E0812F0E94321D61E0FE
:1014B00070E080E090E00E94EE1B60E0812F0E94CF
:1014C000321D5C814B813A81298160E0892D29831D
:1014D0003A834B835C830E94F91C29813A814B81BA
:1014E0005C81011102C060E003C0013049F461E099
:1014F000892D0E94911DF5016083718382839383FE
:1015000080E090E00F900F900F900F90DF91CF91BF
:101510001F910F91FF90EF90DF90CF90BF90AF9011
:101520009F900895AF92BF92CF92DF92EF92FF9279
:101530000F931F93CF93DF937901EA018901A62EC0
:10154000B12CC8018E199F098A159B0574F46E0190
:1015500061E089910E94F91CF80161918F0170E0AE
:10156000F60180810E94711CECCF80E090E0DF9159
:10157000CF911F910F91FF90EF90DF90CF90BF9090
:10158000AF9008950E94A80080E090E008958154F3
:101590009F4FDC01ED91FC91E60FF11D80818823C6
:1015A00019F08F5F808304C08DE794E00E9475017D
:1015B00080E090E008958F929F92AF92BF92CF9279
:1015C000DF92EF92FF920F931F93CF93DF93FC0173
:1015D000E954FF4FC081CC2ED12CA0E0B0E0E0E078
:1015E000F0E07C0178EBE70EF11CEC15FD0584F4CE
:1015F000E701A880B980AA0EBB1EE501888099800A
:10160000AA80BB801496281539054A055B0520F48D
:10161000309721F0319702C03196E7CF611126C093
:10162000EF01CC0FDD1FCC0FDD1F7C01E8EBEE0ED0
:10163000F11CD701ED91FC91EC0FFD1F4081518110
:101640006281738126E087EB96E00E94FB1EF70122
:10165000A081B181AC0FBD1F8D919D910D90BC916A
:10166000A02DE80188839983AA83BB8380E090E062
:10167000DF91CF911F910F91FF90EF90DF90CF906E
:10168000BF90AF909F908F900895FF920F931F93FC
:10169000CF93DF93F42EE801611107C050E0B90148
:1016A00087EB96E00E948620888388818F1519F049
:1016B00083E890E002C080E090E0DF91CF911F913D
:1016C0000F91FF900895611104C087EB96E00E948E
:1016D0005D1F80E090E008953F924F925F926F927D
:1016E0007F928F929F92AF92BF92CF92DF92EF92B2
:1016F000FF920F931F93CF93DF93EC016A018A014E
:10170000A62EB12C7C0181ECE80EF11CC8018C19CD
:101710009D098A159B050CF044C0D8013D908D01B0
:10172000632C712C4301880C991CD701ED91FC911D
:10173000E80DF91D80819181892B41F783E090E0CC
:101740000E942E202C010E947404D701ED91FC917F
:101750001197E80DF91D51824082ED91FC91E80D41
:10176000F91DB301808191810E940E05E881F98104
:10177000E459FF4F0190F081E02D66E773E0CE0160
:101780000995E881F981E857FF4F432D50E060E06B
:1017900070E00190F081E02D2AE030E0CE01099563
:1017A000B5CF80E090E0DF91CF911F910F91FF9036
:1017B000EF90DF90CF90BF90AF909F908F907F90F1
:1017C0006F905F904F903F9008956F927F928F92AD
:1017D0009F92AF92BF92CF92DF92EF92FF920F93C0
:1017E0001F93CF93DF93EC015A0169018A01662EA2
:1017F000712C7C0181ECE80EF11CC8018A199B094F
:10180000861597050CF059C0E881F981E459FF4F1E
:101810000190F081E02D64E973E0CE010995D801D3
:101820008C91E881F981E858FF4FD7012C911196EE
:101830009C91A22FB92FA80FB11DA80FB11D4D91DA
:101840005C91662757FD6095762F0190F081E02D21
:101850002AE030E0CE010995E881F981E459FF4F93
:101860000190F081E02D6BE973E0CE01099546010E
:10187000E881F981E857FF4FD6014D915D916D01E7
:1018800060E070E00190F081E02D2AE030E0CE01D0
:101890000995F80181918F01D4016D917C91F70137
:1018A00020819181E22FF92FE80FF11DE80FF11D42
:1018B000808191810E942205A0CF80E090E0DF919D
:1018C000CF911F910F91FF90EF90DF90CF90BF903D
:1018D000AF909F908F907F906F900895CF92DF92FE
:1018E000EF92FF920F931F93CF93DF937A018A01B8
:1018F000C62ED12CEC01CF53DF4FC8018E199F09A2
:101900008C159D05E4F4F801808128819981E22FEE
:10191000F92FE80FF11DE80FF11D808191810E94E0
:101920001405F80181918F0128819981E22FF92F07
:10193000E80FF11DE80FF11D11821082DECF80E06B
:1019400090E0DF91CF911F910F91FF90EF90DF908A
:10195000CF90089561110CC0E091B706F091B806E0
:1019600050E00280F381E02DB90187EB96E0099504
:1019700080E090E00895AF92BF92CF92DF92EF9215
:10198000FF920F931F93CF93DF9300D000D0CDB77A
:10199000DEB78C01613091F020F0623009F452C062
:1019A00069C081E00E94511CF80141895289638914
:1019B0007489458B568B678B708F41C0FC01E6554F
:1019C000FF4FE081EE2309F455C060E070E080E055
:1019D00090E0AE2EB12CD801A555BF4F01C00196A5
:1019E0008A159B050CF049C0ED90FC901197E60E0E
:1019F000F71EF701C080D180E280F3806C5F7F4FDB
:101A0000C216D306E406F50651F7880F991FF801B0
:101A1000E355FF4F0190F081E02DE80FF91F808121
:101A200029833A834B835C830E94511C29813A812C
:101A30004B815C81F801258B368B478B508F80E082
:101A400090E01DC0FC01E155FF4FC080D180E280D5
:101A5000F3802C153D054E055F0578F03496C08067
:101A6000D180E280F380C216D306E406F50628F0A2
:101A700080E0D6CF81E890E002C082E890E00F904D
:101A80000F900F900F90DF91CF911F910F91FF90CA
:101A9000EF90DF90CF90BF90AF9008958F929F927C
:101AA000AF92BF92DF92EF92FF920F931F93CF936B
:101AB000DF9300D000D0CDB7DEB7D62E49015A0152
:101AC000A801970181149104A104B104C9F061E057
:101AD0008D2DE9823A834B835C830E94F91C298116
:101AE0003A814B815C81211531054105510519F47D
:101AF00020E030E0A901B4018D2D0E94A92003C08F
:101B0000862F0E94D12280E090E00F900F900F90DE
:101B10000F90DF91CF911F910F91FF90EF90DF9089
:101B2000BF90AF909F908F900895CB01642F0C943D
:101B30000C25CB010C9404259CB5937F982B9CBD60
:101B40000895413049F030F0423041F0433049F4DB
:101B50008CE005C080E003C084E001C088E00E9402
:101B60009C0D80E090E008952CB5982F93702C7F09
:101B7000922B9CBD9DB582FB882780F99E7F982B78
:101B80009DBD08952F923F924F925F926F927F92E8
:101B90008F929F92AF92BF92CF92DF92EF92FF927D
:101BA0000F931F93CF93DF9300D000D000D0CDB719
:101BB000DEB77C01C12CD12C1E821D823C016AEB58
:101BC000660E711C4C017BEB870E911C5C018DEB4A
:101BD000A80EB11CD3018C9190E06D817E816817B5
:101BE00079070CF04CC0D401ED91FC91B601660F61
:101BF000771FE60FF71F2080318042805380221527
:101C0000330544055505A8F0F8012082318242824F
:101C100053828D819E81880F991FF701E354FF4FF6
:101C20000190F081E02DE80FF91F80810E94B40D32
:101C300026C001976D817E8168177907B1F4D801BC
:101C40002D923D924D925C921397D501ED91FC91AE
:101C5000EC0DFD1D808129833A834B835C830E94B8
:101C6000B40D5C814B813A8129816D817E816F5FEA
:101C70007F4F7E836D8372E0C70ED11CABCF80E0B7
:101C800090E026960FB6F894DEBF0FBECDBFDF9171
:101C9000CF911F910F91FF90EF90DF90CF90BF9069
:101CA000AF909F908F907F906F905F904F903F90FC
:101CB0002F9008951F93CF93DF93EC010E94530858
:101CC00083EA93E09983888382E08F83188619865C
:101CD00080E090E00E940425182F81E090E00E94AF
:101CE0000425212F30E0322F2227282B3EAB2DABAD
:101CF000DF91CF911F910895EF92FF920F93CF93B1
:101D0000DF931F92CDB7DEB7642F8DE794E0298370
:101D10000E948C01402F50E0B7018DE794E00E94B3
:101D200009012981211102C061E003C0213041F481
:101D300060E08DE794E00E94960180E090E007C0AB
:101D400061E08DE794E00E94960181E890E00F90B9
:101D5000DF91CF910F91FF90EF9008954F925F9296
:101D60006F927F928F929F92AF92BF92CF92DF92AB
:101D7000EF92FF920F931F93CF93DF93642F211164
:101D800002C021E003C0213099F520E0402F8DE70B
:101D900094E00E947F010E94BF1B4B015C0110E098
:101DA0002701612C712C8DE794E00E94DE008017E2
:101DB000910774F40E94BF1B681979098A099B096D
:101DC000461657066806790670F783E890E012C059
:101DD000E601CE018C199D098017910734F48DE737
:101DE00094E00E94E6008993F4CF80E090E002C086
:101DF00081E890E0DF91CF911F910F91FF90EF90DC
:101E0000DF90CF90BF90AF909F908F907F906F901A
:101E10005F904F900895CF93DF93EA01611105C061
:101E200087EB96E00E94181E888380E090E0DF91A7
:101E3000CF910895EF92FF920F931F93CF93DF936B
:101E400000D000D0CDB7DEB77C01CB01642FD70125
:101E500013969C938E93129718964C9319821A821C
:101E60001B821C82DC01ED91FC9102A0F3A1E02D0C
:101E70008E010F5F1F4F20E835E240E050E00995EA
:101E8000F701E65DFE4F84E090E0918380830F9040
:101E90000F900F900F90DF91CF911F910F91FF90B6
:101EA000EF9008958FEF9FEF08958FEF9FEF0895C4
:101EB000CF92DF92EF92FF920F931F93CF93DF9316
:101EC00000D0CDB7DEB77C011A82DC0112968D916D
:101ED0009C911397DC01ED91FC9106A0F7A1E02DF8
:101EE000AE014E5F5F4FD70118966C9109958A81BC
:101EF000823008F408C11982F70182819381670159
:101F0000FAE0CF0ED11CDC01ED91FC9100A4F1A50B
:101F1000E02D8E010F5F1F4F960142E0D70118960A
:101F20006C910995F701228582819381DC01ED9105
:101F3000FC9106A0F7A1E02DAE014E5F5F4FD701E7
:101F400018966C912F3F09F0CBC009952A8130E09B
:101F5000F701838590E00297281739070CF45AC0DF
:101F6000D70112968D919C911397DC01ED91FC9114
:101F7000D7011B964C911B97425000A4F1A5E02D70
:101F80008E010F5F1F4F9701245F3F4F18966C9192
:101F90000995B601C7010E943711F701A281B381EB
:101FA000882309F48AC0ED91FC911197E657FF4F01
:101FB0000190F081E02DA60161E0CD010995870136
:101FC00006571F4FA801B601C7010E949811D701FB
:101FD00012968D919C911397DC01ED91FC91E6573F
:101FE000FF4F0190F081E02DA80160E00995F70115
:101FF00082819381DC01ED91FC91D701A557BF4F00
:1020000002A4F3A5E02D98014C91D70118966C918C
:10201000099579C005E610E02A8130E0F701838553
:1020200090E00297281739070CF09ACFD701129643
:102030008D919C911397DC01ED91FC9106A0F7A185
:10204000E02DAE014E5F5F4FD70118966C91099558
:1020500001501109F70182819381DC01ED91FC911E
:1020600001151105F9F406A0F7A1E02DAE014E5FB0
:102070005F4FD70118966C910995F7018281938182
:10208000DC01ED91FC9100A4F1A5E02D8E010F5F24
:102090001F4F96014A81D70118966C9109958FEFD1
:1020A0009FEF33C0EE59FF4F0190F081E02D41E0EA
:1020B00050E060E070E00995AFCFED91FC91119791
:1020C00026A137A1AE014E5F5F4FF7016085CD01BC
:1020D000F9010995D70112968D919C91139704C02F
:1020E0000995F70182819381DC01ED91FC9100A4B7
:1020F000F1A5E02D8E010F5F1F4F96014A81D70198
:1021000018966C91099580E090E00F900F90DF9108
:10211000CF911F910F91FF90EF90DF90CF90089596
:10212000CF93DF93EC01C65DDE4F288139812530E6
:10213000310579F026303105B1F024303105F1F464
:10214000DC01ED91FC910084F185E02DDF91CF91D0
:102150000994DC01ED91FC910284F385E02D099551
:10216000198218820BC0DC01ED91FC910484F58585
:10217000E02D09958FEF9FEF0E941A25DF91CF91F7
:102180000895CF93DF93EC010E941D1185E394E045
:1021900099838883FE01E65DFE4F118210821F82C3
:1021A0001E82DF91CF91089582E895E00C94C110D2
:1021B0008FEF9FEF08958FEF9FEF08958FEF9FEFC1
:1021C00008958FEF9FEF08958FEF9FEF08958FEFA2
:1021D0009FEF08958FEF9FEF0895DC0114962D91E6
:1021E0003C91159724303105B9F04CF4232B11F5AF
:1021F000DC01ED91FC910190F081E02D1AC02530B9
:10220000310589F026303105A9F4DC01ED91FC910E
:102210000484F585E02D0DC0DC01ED91FC91008476
:10222000F185E02D06C0DC01ED91FC910284F3857F
:10223000E02D099480E890E00895FC0189E594E0A0
:10224000918380831582148280E881870895FB0141
:10225000218130E02150310980E0AF01461B570B4E
:10226000421753071CF49191890FF7CF0895CF932C
:10227000DF93EB010E9427119981C90FD11D21978E
:1022800091E02881821390E0892FDF91CF9108950A
:102290000F931F93CF93DF93FA014FEF408346E0F4
:1022A000420F4183DB0112964C91129742831396A1
:1022B0004C9143830F3F110509F010F4048302C0D1
:1022C00043E04483E9012596CE0FDF1FBF010E9442
:1022D00027118883DF91CF911F910F9108950F935C
:1022E0001F93890120E030E00E9448111F910F9157
:1022F0000895EF92FF920F931F93CF93DF93D9012D
:10230000EA012596F901202F30E08F010A1B1B0BF3
:10231000021713071CF411911993F7CF87010E943C
:102320004811DF91CF911F910F91FF90EF90089589
:102330002F923F924F925F926F927F928F929F92D5
:10234000AF92BF92CF92DF92EF92FF920F931F93C3
:10235000CF93DF9300D000D000D0CDB7DEB73C01E3
:102360004B012A012DB63EB6DB0114962C91149731
:1023700030E0322F222715968C91282B2115BCEFA7
:102380003B07C8F01982F901EB57FB4FEE0FFF1F17
:10239000E60DF71D9A012B5F3F4F6A5F7F4FD40117
:1023A00011968C910190F081E02DAE014F5F5F4F4F
:1023B000875009955CC72432310509F4CFC508F070
:1023C00004C12231310509F4E4C208F07BC02A308F
:1023D000310509F485C208F04FC02530310509F4F4
:1023E0004BC258F42330310509F418C208F027C253
:1023F000232B09F4E4C70C944D1B2830310509F454
:1024000059C208F062C22630310511F00C944D1B00
:10241000FB01208530E0322F2227442737FD4095ED
:10242000542F8185282B19821A821B821C82D3018A
:1024300012968D919C911397DC01ED91FC9104A073
:10244000F5A1E02D8E010F5F1F4FD30118966C91FF
:1024500009957C01F30182819381DC01ED91FC916E
:10246000EE59FF4F0190F081E02D48EE53E060E01F
:1024700070E009950C94461BF301A281B3812E30C4
:10248000310509F44AC278F42C30310509F433C21D
:1024900008F03AC25D962D913C915E97E12CF12CAB
:1024A0005C960C9165C52031310509F43FC208F0F6
:1024B00046C29D962D913C919E97E12CF12C9C96C5
:1024C0000C9156C52A31310509F4ABC350F5F3011F
:1024D000A281B3812631310509F401C388F4243186
:1024E000310509F48CC208F0DFC2D6968C91FA014E
:1024F0008583D3011296ED91FC91139785A978C23B
:102500002831310509F417C308F06BC3DC968C91B0
:10251000FA018583D3011296ED91FC91139783AD57
:1025200067C22E31310509F42DC4D0F4D3011296BF
:102530008D919C9113972C31310509F4A5C308F0B6
:10254000FFC3FC01EF5BFF4F8181FA018583D3015B
:102550001296ED91FC911397EF5BFF4F808148C27B
:102560002032310509F439C408F428C42232310577
:1025700009F494C42332310511F00C944D1BD3019E
:102580001296ED91FC911397EA55FF4F8381FA0162
:1025900085831296ED91FC911397EA55FF4F828146
:1025A000DA0116968C93D3011296ED91FC91139754
:1025B000EA55FF4F8181FA0187831296ED91FC91D4
:1025C0001397EA55FF4F80818AC5213E310509F4F2
:1025D00072C608F0ACC02436310509F48DC508F088
:1025E00069C02334310509F408C5B0F4213431053C
:1025F00009F4C4C408F0D8C42532310511F00C9494
:102600004D1BD3011296ED91FC91139723A934A988
:10261000E12CF12C02A9ACC42036310509F426C501
:102620002136310509F43EC52434310511F00C94EE
:102630004D1BF30182819381DC01ED91FC91DB0163
:102640001A962C911A971B96CC901B97D12CE12CA3
:10265000F12C7601DD24CC24F22A1D962C911D97B5
:10266000C22A1C962C911C97D22A0284F385E02D55
:102670009E012F5F3F4F590119960C91199716969D
:102680002C91169718964C91189717966C9109955E
:102690007C0189819A812B813C81D20115963C93E2
:1026A000159716962C93169717969C93179718962E
:1026B0008C93B9C6223C310509F4A6C500F5203C2F
:1026C000310509F459C508F072C52338310509F000
:1026D000E4C7F30182819381DB0116966C91DC01E2
:1026E000ED91FC91262F30E0295F3F4F280D391DD9
:1026F000A401495F5F4F0484F585E02D3BC5243C70
:10270000310509F4B7C508F499C5253C310509F42C
:10271000C6C5203E310509F0C0C7F301828193810F
:10272000DC01ED91FC91008CF18DE02D25C6273068
:10273000B1E03B0709F47BC6D8F52115F1E03F076E
:1027400009F41FC6B0F4233E310509F4EDC508F4C1
:10275000CDC5243E310509F0A0C7D30112968D9155
:102760009C911397DC01ED91FC9100A0F1A1E02D6B
:1027700003C6223091E0390709F424C608F40FC6D5
:102780002330314009F089C7D30112968D919C9175
:102790001397DC01ED91FC910288F389E02DDB01B8
:1027A00017964C91179716966C9109957C013BC62C
:1027B0002036E1E03E0709F4F8C6B8F4213481E0A0
:1027C000380709F46CC6223491E0390709F4D9C6F8
:1027D0002034314009F061C7F30182819381DC012B
:1027E000ED91FC91E25BFF4FD4C62236B1E03B078E
:1027F00009F418C708F4F3C62336F1E03F0709F4DB
:1028000038C72436314009F048C7F30182819381EB
:10281000DC01ED91FC91E45AFF4F33C7D3011296CE
:10282000ED91FC9113978281FA0185831296ED91C7
:10283000FC9113978381DA0116968C93DBC0D30148
:102840001296ED91FC9113978781FA018583129678
:10285000ED91FC9113978085DA0116968C93D30144
:102860001296ED91FC9113978185FA01878300E020
:1028700010E023E030E03AC4D3011296ED91FC91D0
:10288000139780A5FA0185831296ED91FC91139719
:1028900087A1DA0116968C93D3011296ED91FC91E3
:1028A000139786A1FA0187831296ED91FC911397F5
:1028B00085A115C4D3011296ED91FC911397238540
:1028C0003485E12CF12C028553C3D3011296ED918E
:1028D000FC91139726853785E12CF12C058548C39B
:1028E000D3011296ED91FC911397228D338DE12C3B
:1028F000F12C018D3DC390962D913C919197E12C47
:10290000F12C5F960C9134C393962D913C91949742
:10291000E12CF12C92960C912BC39A962D913C911F
:102920009B97E12CF12C99960C9122C3D0962D9176
:102930003C91D197E12CF12C9F960C9119C3ED910C
:10294000FC911197E258FF4F0190F081E02D67E470
:1029500074E0CD010995F30182819381DC01ED9151
:10296000FC91E258FF4F0190F081E02D6EE973E099
:10297000099585E090E0F3019583848320E030E0C1
:10298000A201B401C3010E946F1154E0E52EF12CA5
:102990008DC6D30112968D919C911397FB012681D0
:1029A00030E0322F22274781242BDC01D6963C933E
:1029B0002E93D597ED91FC91EC59FF4F0190F0814A
:1029C000E02DDB0116964C9160E070E00995F30173
:1029D00082819381DC01ED91FC91EC59FF4F0190D4
:1029E000F081E02DD40117964C9161E070E05AC05F
:1029F000F201868300E010E022E030E077C3FB01C3
:102A0000408550E0542F44278185482B662757FD89
:102A10006095762FD7964D935D936D937C93DA975F
:102A2000ED91FC911197EC59FF4F20813181F40118
:102A3000468162E070E0CD01F9010995D30112965B
:102A40008D919C911397DC01ED91FC91EC59FF4F16
:102A50000190F081E02DD40117964C9163E070E075
:102A60000995F30182819381DC01ED91FC91EC5990
:102A7000FF4F0190F081E02DD40118964C9164E055
:102A800070E00995F30182819381DC01ED91FC9165
:102A9000EC59FF4F0190F081E02DD40119964C9133
:102AA00065E070E009958BC4DA968C91FA01858314
:102AB000D3011296ED91FC91139781ADFA018683B3
:102AC0001296ED91FC91139780ADDA0117968C93D5
:102AD000D3011296ED91FC91139787A99FC0FB013A
:102AE000868190E0982F88272781822BDC969C9303
:102AF0008E93DB97ED91FC911197EC59FF4F20815C
:102B00003181FB01468166E070E0CD01F901099554
:102B1000D30112968D919C911397DC01ED91FC915C
:102B2000EC59FF4F0190F081E02DD40117964C91A4
:102B300067E070E0B7CF9D01235C3F4FFB0140850C
:102B400050E0542F44278185482B662757FD609518
:102B5000762FF9014083518362837383ED91FC9159
:102B60001197EC59FF4F20813181F401468168E0D3
:102B700070E0CD01F9010995D30112968D919C91D8
:102B80001397DC01ED91FC91EC59FF4F0190F0811E
:102B9000E02DD40117964C9169E070E00995F3019E
:102BA00082819381DC01ED91FC91EC59FF4F019002
:102BB000F081E02DD40118964C916AE070E00995FF
:102BC000F30182819381DC01ED91FC91EC59FF4F7F
:102BD0000190F081E02DD40119964C916BE070E0EA
:102BE00061CFDD9613968C91FA018583D3011296FD
:102BF000ED91FC911397FD968281FA0186831296DE
:102C0000ED91FC911397FD968181DA0117968C93D3
:102C1000D3011296ED91FC91139785ADF201808757
:102C200061C2D30112968D919C911397FC01EF5BC9
:102C3000FF4FDB0116962C91169730E0322F22279A
:102C400017964C91242B31832083DC01ED91FC916C
:102C5000EC59FF4F0190F081E02DDB0116964C916D
:102C60006CE070E00995F30182819381DC01ED91C4
:102C7000FC91EC59FF4F0190F081E02DD4011796A3
:102C80004C916DE070E00ECFDB0116962C91FC01AB
:102C9000ED5BFF4F213278F020E22083F301828147
:102CA0009381DC01ED91FC91EC59FF4F0190F08193
:102CB000E02D40E20FC02083F30182819381DC018B
:102CC000ED91FC91EC59FF4F0190F081E02DDB017B
:102CD00016964C916EE070E009957401B7E0EB0E2A
:102CE000F11C00E010E0D30112968D919C91139796
:102CF000FC01ED5BFF4F208130E0021713070CF061
:102D00005EC3D701800F911F9C012C5B3F4FF701E1
:102D100081917F01F9018083F30182819381FC011C
:102D200020813181F901EC59FF4FB801615F7F4F7C
:102D30000190F081E02D4C9109950F5F1F4FD3CF8B
:102D4000FC01ED5BFF4F8081FA018583369680E0C0
:102D500090E0D30112964D915C911397DA01AD5B2F
:102D6000BF4F2C9130E0821793074CF4480F591F46
:102D7000DA01AC5BBF4F2C9121930196EACF00E0C2
:102D800010E0B4C1D3011296ED91FC911397DB01D1
:102D900016968C91EC59FF4F8083F30182819381C9
:102DA000DC01ED91FC91EC59FF4F0190F081E02D99
:102DB000DB0116964C9160E370E074CED30112965D
:102DC000ED91FC911397EC59FF4F8081FA018583B7
:102DD00000E010E021E030E089C1DB0116962C9183
:102DE000F30182819381FC01EB59FF4F213488F07C
:102DF00020E42083D30112968D919C911397DC01DE
:102E0000ED91FC91EC59FF4F0190F081E02D40E4F1
:102E10000FC02083F30182819381DC01ED91FC914D
:102E2000EC59FF4F0190F081E02DDB0116964C919B
:102E300061E370E009957401B7E0EB0EF11C00E06E
:102E400010E0D30112968D919C911397FC01EB59E0
:102E5000FF4F208130E0021713070CF0B0C2D701FA
:102E6000800F911F9C012A593F4FF70181917F01EB
:102E7000F9018083F30182819381FC0120813181FA
:102E8000F901EC59FF4FB8016E5C7F4F0190F08162
:102E9000E02D4C9109950F5F1F4FD3CFF301828135
:102EA0009381FC01EA55FF4FDB0116962C91169792
:102EB00017964C91179750E060E070E0BA015527E3
:102EC0004427722B19962C911997422B18962C9106
:102ED000522B4083518362837383DC01ED91FC911B
:102EE000EC59FF4F0190F081E02DD40116964C91E2
:102EF00062E770E00995F30182819381DC01ED9135
:102F0000FC91EC59FF4F0190F081E02DD401179610
:102F10004C9163E770E00995F30182819381DC01B4
:102F2000ED91FC91EC59FF4F0190F081E02DD4011F
:102F300018964C9164E770E00995F30182819381C2
:102F4000DC01ED91FC91EC59FF4F0190F081E02DF7
:102F5000D40119964C9165E770E0A4CDD301129687
:102F6000ED91FC91139725813681E12CF12C0481A0
:102F7000A201B401C3010E94791198C3F3018281B7
:102F80009381DB0116966C91DC01ED91FC91262F6B
:102F900030E0295F3F4F280D391DA401495F5F4F85
:102FA0000480F581E02DE6C0FB011181D30112966A
:102FB0008D919C911397DC01ED91FC919A012B5F0F
:102FC0003F4FAB014A5F5F4F69EF610F0680F781AA
:102FD000E02D09957C01212F30E02850310953E084
:102FE000359527955A95E1F72F5F30E08701A201CB
:102FF000B401C3010E94481159C3F3018281938136
:10300000DC01ED91FC91DB011B96EC901B974E2DA2
:1030100050E060E070E0142F0027FF24EE241E969D
:103020002C911E97E22A1D964C911D9750E0542F2B
:103030004427662757FD6095762FE42AF52A062B4C
:10304000172B19962C91199730E0322F22274427FD
:1030500037FD4095542F1A966C911A97262B0084B1
:10306000F185E02D16966C9109950FC3F3018281CD
:103070009381DC01ED91FC91DB0119962C9119975C
:1030800030E0322F2227442737FD4095542F1A96DF
:103090006C911A97262B0280F381E02D16966C9185
:1030A0000995F3C2D3011296ED91FC911397808D8F
:1030B000FA0185831296ED91FC9113978789DA01C5
:1030C00016968C93D3011296ED91FC9113978689F5
:1030D000FA0187831296ED91FC9113978589D201AD
:1030E00018968C9300E010E024E030E0A201B401D7
:1030F000C3010E944811D8C2D3011296ED91FC91F0
:1031000013978089FA01858312968D919C9113976C
:10311000DC01ED91FC91DB0111966C9167500190FF
:10312000F081E02D9A012A5F3F4FA4014A5F5F4F73
:1031300009957C01F401818190E00797D3011296F3
:10314000ED91FC9113972089289FA001299F500D94
:103150001124CA0123E0969587952A95E1F7282F37
:1031600047705527452B11F021E0280F30E02F5FE5
:103170003F4F3CCF099589C2FB01218530E0322FBA
:103180002227442737FD4095542F8285282B19820A
:103190001A821B821C82D30112968D919C911397E7
:1031A000DC01ED91FC9102A0F3A1E02D1BC0DB013D
:1031B00019962C91199730E0322F2227442737FD9A
:1031C0004095542F1A968C91282B19821A821B82B3
:1031D0001C82F30182819381DC01ED91FC9104A0BA
:1031E000F5A1E02D8E010F5F1F4FD40116966C9153
:1031F00009957C0189819A812B813C81F20135837B
:103200002683978380870FC1D30112968D919C915D
:103210001397DC01ED91FC9106A0F7A1E02DAE0122
:103220004F5F5F4FDB0116966C9109957C01898198
:10323000F2018583870121E030E0D9CE1982D301E4
:1032400012968D919C911397DC01ED91FC919A015E
:103250002B5F3F4F00A4F1A5E02D8E010F5F1F4FA4
:10326000DB0117964C91179716966C9109957C0186
:103270002981BBCEF30182819381DC01ED91FC9128
:103280009B01295F3F4FDB0111964C9111974850EC
:1032900002A4F3A5E02D16966C910995F6C1F301F1
:1032A00082819381DC01ED91FC91E45BFF4F019001
:1032B000F081E02D61C0FB01218530E0322F222713
:1032C000442737FD4095542F8285282B19821A8276
:1032D0001B821C82D30112968D919C911397DC0165
:1032E000ED91FC91028CF38DE02D7CCFD3011296F1
:1032F0008D919C911397DC01ED91FC917B01B9E0DC
:10330000EB0EF11CDB0111960C9111970A50048C05
:10331000F58DE02D18962C91189717964C911797CC
:1033200016966C910995B1C1F30182819381DC01FC
:10333000ED91FC916A01B5E0CB0ED11CDB01199631
:10334000EC901997F12CFE2CEE241A962C911A97DA
:10335000E22A068CF78DE02D18960C9118971B9693
:103360002C911B9717964C91179716966C9109956F
:103370007C01F401208539CED40116966C91099513
:1033800084C1F30182819381DC01ED91FC9106847B
:10339000F785E02DDB0116966C91099510C0F301BD
:1033A00082819381DC01ED91FC910088F189E02D0F
:1033B000DB0117964C91179716966C91099520E0B2
:1033C00030E06DC1FB0187812085422F50E060E035
:1033D00070E033272227582B8285282B8185382BB4
:1033E00019821A821B821C82D30112968D919C91A4
:1033F0001397DC01ED91FC910488F589E02D8E0195
:103400000F5F1F4FD40116966C9109957C0189813D
:103410009A812B813C81F2013583268397838087B3
:1034200000E010E001C0870124E030E0E0CDD301EE
:103430001296ED91FC911397DB0117964C91008148
:1034400011815201B5E0AB0EB11C6B012AE0C20E36
:10345000D11CDB0111968C9190E00B97642F70E0EA
:103460000E944F23262FD80156960D90BC91A02D77
:10347000BE83AD83D4011996EC90199718960C91E0
:10348000189716966C91CF01ED81FE8109957C010C
:10349000D40111962C9130E02B503109A7CDADB657
:1034A000BEB6DB011696EC91F0E0CF01880F991FB4
:1034B0002DB73EB7281B390B0FB6F8943EBF0FBE91
:1034C0002DBF0DB71EB70F5F1F4FE60FF71F3896C2
:1034D000B80180E090E0D40116962C9130E082177C
:1034E00093078CF49F0121503109D9012C9130E0D0
:1034F000322F22274081242BDB012D933D93BD01E8
:1035000001963296E8CF6801E12CF12CF401668136
:10351000262F30E0D30112968D919C911397E216DD
:10352000F306ACF4F601419151916F01DC01ED918C
:10353000FC91E857FF4F60E070E00190F081E02DD2
:103540002AE030E00995BFEFEB1AFB0ADFCFDC0180
:10355000ED91FC91E05BFF4FA401495F5F4F01904B
:10356000F081E02D980109957C019C01A201B40134
:10357000C3010E946F110FB6F894BEBE0FBEADBE60
:1035800095C0F30182819381DC01ED91FC91EE5AAB
:10359000FF4FA4014A5F5F4FD40111966C916750B1
:1035A0000190F081E02D099570C0F3018281938133
:1035B000DC01ED91FC91EC5AFF4FDB0116966C910A
:1035C000169770E0762F662717962C911797622B27
:1035D0000190F081E02D18964C91099556C0F301A9
:1035E00082819381DC01ED91FC91EA5AFF4FDB016E
:1035F00016966C91169770E0762F662717962C9189
:103600001797622B0190F081E02D1B96EC901B9791
:103610001A960C911A9719962C91199718964C9105
:10362000099533C0F30182819381DC01ED91FC9116
:10363000E85AFF4F9B01255F3F4FDB0118964C91E5
:10364000189750E0542F442719966C911997462BE0
:1036500016966C91169770E0762F662717961C9138
:103660001797612B0190F081E02D1A960C91099526
:103670000CC0F30182819381DC01ED91FC91E65A4B
:10368000FF4F0190F081E02D09957C019701A20187
:10369000B401C3010E946F1109C021E030E0A20112
:1036A000B401C3010E946F11E12CF12CC7010FB6C8
:1036B000F8943EBE0FBE2DBE26960FB6F894DEBF20
:1036C0000FBECDBFDF91CF911F910F91FF90EF9073
:1036D000DF90CF90BF90AF909F908F907F906F9032
:1036E0005F904F903F902F9008951F920F920FB6CA
:1036F0000F9211242F933F938F939F93AF93BF9378
:103700008091AF069091B006A091B106B091B2063B
:103710003091AE0623E0230F2D3720F40196A11D32
:10372000B11D05C026E8230F0296A11DB11D2093EF
:10373000AE068093AF069093B006A093B106B09307
:10374000B2068091B3069091B406A091B506B091EF
:10375000B6060196A11DB11D8093B3069093B406E1
:10376000A093B506B093B606BF91AF919F918F918C
:103770003F912F910F900FBE0F901F9018952FB76C
:10378000F8946091AF067091B0068091B106909167
:10379000B2062FBF08953FB7F8948091B306909179
:1037A000B406A091B506B091B60626B5A89B05C093
:1037B0002F3F19F00196A11DB11D3FBF6627782F3D
:1037C000892F9A2F620F711D811D911D42E0660F96
:1037D000771F881F991F4A95D1F70895CF92DF92DE
:1037E000EF92FF92CF93DF936B017C010E94CB1B82
:1037F000EB01C114D104E104F10489F00E944223D9
:103800000E94CB1B6C1B7D0B683E734090F381E0E4
:10381000C81AD108E108F108C851DC4FEACFDF919E
:10382000CF91FF90EF90DF90CF900895789484B57A
:10383000826084BD84B5816084BD85B5826085BDAC
:1038400085B5816085BDEEE6F0E080818160808392
:10385000E1E8F0E010828081826080838081816075
:103860008083E0E8F0E0808181608083E1EBF0E03C
:10387000808184608083E0EBF0E0808181608083E0
:10388000EAE7F0E0808184608083808182608083C9
:103890008081816080838081806880831092C100F4
:1038A00008958093680108958E3008F08E508770D7
:1038B0002091680190E4299F90011124822B80932C
:1038C0007C0080917A00806480937A0080917A00F5
:1038D00086FDFCCF809178002091790090E0922BBA
:1038E00008951F93CF93DF93182FEB0161E00E949F
:1038F000F91C209711F460E004C0CF3FD10539F4E2
:1039000061E0812FDF91CF911F910C94321DE12F47
:10391000F0E0E859FF4FE491E330F9F048F4E1308A
:10392000B9F0E230A1F584B5806284BDC8BD34C071
:10393000E730E9F0E83019F1E43049F58091800092
:10394000806280938000D0938B00C0938A0024C053
:1039500084B5806884BDC7BD1FC080918000806829
:1039600080938000D0938900C093880015C0809117
:10397000B00080688093B000C093B3000DC0809108
:10398000B00080628093B000C093B40005C0C0381E
:10399000D1050CF0B5CFAFCFDF91CF911F91089536
:1039A000833081F028F4813099F08230A1F00895BD
:1039B0008730A9F08830B9F08430D1F4809180004C
:1039C0008F7D03C0809180008F7780938000089561
:1039D00084B58F7702C084B58F7D84BD08958091B2
:1039E000B0008F7703C08091B0008F7D8093B000CE
:1039F0000895CF93DF9390E0FC01E458FF4F2491AA
:103A0000FC01E057FF4F8491882349F190E0880F33
:103A1000991FFC01E854FF4FA591B49182559F4F27
:103A2000FC01C591D4919FB7611108C0F8948C91A5
:103A3000209582238C93888182230AC0623051F4BE
:103A4000F8948C91322F309583238C938881822B2C
:103A5000888304C0F8948C91822B8C939FBFDF9154
:103A6000CF9108950F931F93CF93DF931F92CDB7FC
:103A7000DEB7282F30E0F901E859FF4F8491F901B2
:103A8000E458FF4F1491F901E057FF4F04910023D0
:103A9000C9F0882321F069830E94D01C6981E02F3E
:103AA000F0E0EE0FFF1FE255FF4FA591B4919FB7D5
:103AB000F8948C91611103C01095812301C0812B72
:103AC0008C939FBF0F90DF91CF911F910F9108951D
:103AD000CF93DF93282F30E0F901E859FF4F84910D
:103AE000F901E458FF4FD491F901E057FF4FC49119
:103AF000CC2391F081110E94D01CEC2FF0E0EE0F4E
:103B0000FF1FEC55FF4FA591B4912C912D2381E01F
:103B100090E021F480E002C080E090E0DF91CF915E
:103B20000895CF92DF92EF92FF920F931F93CF935E
:103B3000DF9390E0FC01E458FF4FD491FC01E05783
:103B4000FF4F7491611102C0C0E001C0CD2FDA01B6
:103B5000C901BF70672F70E0660F771F6C557F4FEC
:103B600000E010E09801FB01E590F490F70140813E
:103B70004D234C131EC0680179014FEFC41AD40ABB
:103B8000E40AF40A081719072A073B0709F442C098
:103B900097018601E8CF68017901FFEFCF1ADF0AAC
:103BA000EF0AFF0A081719072A073B0799F197013F
:103BB0008601FB01E590F490F70140814D234C1301
:103BC000EACF801B910BA20BB30B20E030E0A901E0
:103BD000FB01E590F490F701F080FD22FC120AC091
:103BE000281739074A075B07A9F02F5F3F4F4F4F50
:103BF0005F4FEECFA8E1B0E00E94A423605F7F4F4B
:103C00008F4F9F4F24E096958795779567952A95D6
:103C1000D1F703C060E070E0CB01DF91CF911F913D
:103C20000F91FF90EF90DF90CF9008950E94FF24B6
:103C3000FC01818D228D90E0805C9F4F821B910959
:103C40008F7399270895FC01918D828D981731F01B
:103C5000828DE80FF11D858D90E008958FEF9FEF25
:103C60000895FC01918D828D981761F0828DDF019E
:103C7000A80FB11D5D968C91928D9F5F9F73928F5F
:103C800090E008958FEF9FEF089581ED9FE1892BDC
:103C900049F080E090E0892B29F00E94D11F81112A
:103CA0000C9400000895FC01848DDF01A80FB11D64
:103CB000A35ABF4F2C91848D90E001968F73992762
:103CC000848FA689B7892C93A089B1898C9180644F
:103CD0008C93938D848D981306C00288F389E02D10
:103CE00080818F7D80830895CF93DF93EC01888D51
:103CF0008823C9F0EA89FB89808185FD05C0A889F0
:103D0000B9898C9186FD0FC00FB607FCF5CF808175
:103D100085FFF2CFA889B9898C9185FFEDCFCE01BF
:103D20000E94531EE7CFDF91CF910895CF92DF928B
:103D3000FF920F931F93CF93DF931F92CDB7DEB700
:103D40006C01DC015B969C915B975C968C915C9717
:103D5000981307C05096ED91FC915197808185FD95
:103D600032C0F601038D10E00F5F1F4F0F73112754
:103D7000F02EF601848DF81211C00FB607FCF9CFB2
:103D8000D6015096ED91FC915197808185FFF1CF3E
:103D9000C60169830E94531E6981EBCF838DE80FB2
:103DA000F11DE35AFF4F6083D6015B960C935B973E
:103DB0005296ED91FC91539780818062808381E0DF
:103DC00058968C930DC0D6015696ED91FC9157975D
:103DD00060835096ED91FC9151978081806480833F
:103DE00081E090E00F90DF91CF911F910F91FF90B4
:103DF000DF90CF900895BF92CF92DF92EF92FF9223
:103E0000CF93DF93EC016A017B01B22EE889F98937
:103E100082E08083411581EE580761057105A1F0AC
:103E200060E079E08DE390E0A70196010E946323B2
:103E300021503109410951095695479537952795E4
:103E4000211580E1380798F0E889F989108260E847
:103E500074E88EE190E0A70196010E94632321504F
:103E60003109410951095695479537952795EC85B4
:103E7000FD853083EE85FF852083188EEC89FD89D2
:103E8000B082EA89FB89808180618083EA89FB892D
:103E9000808188608083EA89FB8980818068808353
:103EA000EA89FB8980818F7D8083DF91CF91FF90AC
:103EB000EF90DF90CF90BF900895FC01938D848D9B
:103EC0009813FCCFA289B3898C918F7E8C93A289A1
:103ED000B3898C91877F8C93A289B3898C918F77DA
:103EE0008C93A289B3898C918F7D8C93828D818FE5
:103EF00008951F920F920FB60F9211242F938F9354
:103F00009F93EF93FF93E091C706F091C8068081DD
:103F1000E091CD06F091CE0682FD12C09081809195
:103F2000D0068F5F8F732091D106821751F0E091F8
:103F3000D006F0E0E954F94F958F8093D00601C088
:103F40008081FF91EF919F918F912F910F900FBEE4
:103F50000F901F9018951F920F920FB60F92112479
:103F60002F933F934F935F936F937F938F939F9381
:103F7000AF93BF93EF93FF9387EB96E00E94531E9E
:103F8000FF91EF91BF91AF919F918F917F916F9131
:103F90005F914F913F912F910F900FBE0F901F9007
:103FA000189587EB96E00E94181E21E0892B09F4F2
:103FB00020E0822F08951092BA061092B90688EE7A
:103FC00093E0A0E0B0E08093BB069093BC06A09382
:103FD000BD06B093BE068DE694E09093B80680933C
:103FE000B70685EC90E09093C4068093C30684ECFA
:103FF00090E09093C6068093C50680EC90E0909385
:10400000C8068093C70681EC90E09093CA0680931F
:10401000C90682EC90E09093CC068093CB0686ECA8
:1040200090E09093CE068093CD061092D006109229
:10403000D1061092D2061092D306089508950E94D8
:10404000161C0E941E200E948F00C5E4DEE10E9423
:10405000A4002097E1F30E94451EF9CF0C94D823C9
:10406000CF92DF92EF92FF920F931F93CF93DF9344
:104070006C017A01EB01E60EF71E00E010E0CE15B0
:10408000DF0561F06991D601ED91FC910190F0811D
:10409000E02DC6010995080F191FF1CFC801DF9166
:1040A000CF911F910F91FF90EF90DF90CF900895E7
:1040B0000F931F93CF93DF93EC010E94BF1B688780
:1040C00079878A879B87E881F9810680F781E02DCF
:1040D000CE01099597FF15C00E94BF1B0885198561
:1040E0002A853B85601B710B820B930B0C811D8114
:1040F0002E813F81601771078207930720F38FEFAE
:104100009FEFDF91CF911F910F910895CF92DF9292
:10411000EF92FF920F931F93CF93DF937C016A017D
:10412000EB0100E010E00C151D0549F0C7010E94ED
:10413000582097FD04C089930F5F1F4FF4CFC8012B
:10414000DF91CF911F910F91FF90EF90DF90CF9073
:1041500008953F924F925F926F927F928F929F92BB
:10416000AF92BF92CF92DF92EF92FF920F931F9385
:10417000CF93DF9300D000D0CDB7DEB78B012901FC
:104180003A0190916901981721F09F3F09F0D3C13E
:1041900004C0E2ECF0E0349081C080936901E2EC6D
:1041A000F0E0E491EF3F09F4C6C1E13031F1E230D3
:1041B00009F44BC0E11171C014BC15BC94B59260F8
:1041C00094BD95B5916095BD282F30E0F901E05779
:1041D000FF4FE491F0E0EE0FFF1FE255FF4F4591D6
:1041E00054915093640740936307F901E458FF4FDB
:1041F000249120936207312C53C0109280001092BA
:10420000810090918100986090938100909181004D
:10421000916090938100282F30E0F901E057FF4F23
:10422000E491F0E0EE0FFF1FE255FF4F45915491EE
:1042300050935D0740935C07F901E458FF4F2491C8
:1042400020935B07332433942BC01092B00010925C
:10425000B1009091B00092609093B0009091B10045
:1042600091609093B100282F30E0F901E057FF4FA3
:10427000E491F0E0EE0FFF1FE255FF4F459154919E
:104280005093560740935507F901E458FF4F249186
:104290002093540752E0352E03C03E2E37FC4BC10D
:1042A00061E00E94F91C4801A12CB12C832D8D7F67
:1042B00009F0C0C060E072E18AE790E0A5019401D6
:1042C0000E94852329833A834B835C8369017A01A9
:1042D00081E0C81AD108E108F1089FEFC916D1049E
:1042E000E104F10409F008F49AC060E472E48FE09C
:1042F00090E0A50194010E94852369017A01E1E023
:10430000CE1AD108E108F108F2E03F1219C08FEF90
:10431000C816D104E104F10409F008F487C060E98B
:1043200070ED83E090E0A50194010E94852369016E
:104330007A0191E0C91AD108E108F10883E001C0CF
:1043400082E0EFEFCE16D104E104F10409F008F4A5
:1043500067C068E478EE81E090E0A50194010E94D6
:10436000852369017A01F1E0CF1AD108E108F1084B
:104370003320E1F082E038121BC09FEFC916D10450
:10438000E104F10409F008F4D4C064E274EF80E0C1
:1043900090E0A50194010E94852369017A01E1E082
:1043A000CE1AD108E108F10885E003C083E001C01E
:1043B00084E0FFEFCF16D104E104F10489F180F12C
:1043C00062E17AE780E090E0A50194010E948523F4
:1043D00069017A0181E0C81AD108E108F1083110B9
:1043E00002C084E001C086E09FEFC916D104E10459
:1043F000F104B1F0A8F0C980DA80EB80FC809AE08B
:10440000F594E794D794C7949A95D1F7E1E0CE1A42
:10441000D108E108F108332031F087E008C081E0DD
:10442000332011F004C085E085BD34C082E0809364
:10443000B10030C060E072E18AE790E0A50194012C
:104440000E94852369017A01F1E0CF1AD108E108C1
:10445000F108C114D10481E0E806F10488F068E4B1
:1044600078EE81E090E0A50194010E948523690126
:104470007A0191E0C91AD108E108F10893E001C07E
:1044800091E0E1E03E1206C080918100887F892B97
:1044900080938100411451046104710471F0D801CA
:1044A000AA0FBB1FA30192010E94A42328EE33E0B0
:1044B00040E050E00E94632303C02FEF3FEFA901CB
:1044C000F1E03F16A1F082E0381619F1311033C047
:1044D000C7BC2093650730936607409367075093E6
:1044E000680780916E00826080936E0024C0D09235
:1044F0008900C092880020935E0730935F07409345
:1045000060075093610780916F00826080936F0015
:1045100012C0C092B30020935707309358074093BE
:10452000590750935A078091700082608093700001
:1045300002C084E07CCF0F900F900F900F90DF911E
:10454000CF911F910F91FF90EF90DF90CF90BF9090
:10455000AF909F908F907F906F905F904F903F9023
:104560000895813039F018F0823051F0089510929A
:104570006E00089580916F008D7F80936F00089585
:10458000809170008D7F8093700081E08093B000F7
:104590008091B100887F84608093B1001092B30055
:1045A0000895CF93C82F809169018C1307C0E2EC66
:1045B000F0E084919FEF9093690101C08FEF0E941A
:1045C000B12260E08C2FCF910C94321D1F920F927C
:1045D0000FB60F9211242F933F934F935F936F93D6
:1045E0007F938F939F93AF93BF93EF93FF938091AC
:1045F000570790915807A0915907B0915A07892BF6
:104600008A2B8B2B51F190915407E0915507F09133
:10461000560780818927808380915707909158079A
:10462000A0915907B0915A07181619061A061B06C9
:10463000C4F48091570790915807A0915907B09101
:104640005A070197A109B10980935707909358071A
:10465000A0935907B0935A0704C0809169010E9442
:10466000D122FF91EF91BF91AF919F918F917F9157
:104670006F915F914F913F912F910F900FBE0F90CF
:104680001F9018950895991B79E004C0991F9617FB
:1046900008F0961B881F7A95C9F78095089597FBB7
:1046A000072E16F4009407D077FD09D00E94AF239F
:1046B00007FC05D03EF4909581959F4F0895709525
:1046C00061957F4F0895A1E21A2EAA1BBB1BFD0125
:1046D0000DC0AA1FBB1FEE1FFF1FA217B307E407E1
:1046E000F50720F0A21BB30BE40BF50B661F771F39
:1046F000881F991F1A9469F7609570958095909519
:104700009B01AC01BD01CF010895052E97FB1EF45E
:1047100000940E949C2357FD07D00E94632307FC4E
:1047200003D04EF40C949C235095409530952195E0
:104730003F4F4F4F5F4F08959095809570956195CD
:104740007F4F8F4F9F4F08950E94C923A59F900DC3
:10475000B49F900DA49F800D911D11240895AA1B54
:10476000BB1B51E107C0AA1FBB1FA617B70710F05C
:10477000A61BB70B881F991F5A95A9F7809590958E
:10478000BC01CD010895EE0FFF1F0590F491E02DBF
:104790000994A29FB001B39FC001A39F700D811D1A
:1047A0001124911DB29F700D811D1124911D08953A
:1047B000CF93DF938230910510F482E090E0E09196
:1047C0006B07F0916C0720E030E0A0E0B0E030979C
:1047D00039F14081518148175907B8F048175907F6
:1047E00071F482819381109729F013969C938E9394
:1047F00012972CC090936C0780936B0727C02115EC
:10480000310531F04217530718F0A901DB0101C04F
:10481000EF019A01BD01DF010280F381E02DD7CFC6
:1048200021153105F9F0281B390B2430310580F4AE
:104830008A819B816115710521F0FB01938382833D
:1048400004C090936C0780936B07FE01329644C0BE
:10485000FE01E20FF31F81939193225031093983B6
:1048600028833AC02091690730916A07232B41F4CD
:10487000209102013091030130936A072093690768
:1048800020910001309101012115310541F42DB72E
:104890003EB74091040150910501241B350BE09176
:1048A0006907F0916A07E217F307A0F42E1B3F0B8C
:1048B0002817390778F0AC014E5F5F4F2417350792
:1048C00048F04E0F5F1F50936A074093690781932A
:1048D000919302C0E0E0F0E0CF01DF91CF91089525
:1048E000CF93DF93009709F487C0FC0132971382BE
:1048F0001282C0916B07D0916C07209781F42081C0
:104900003181280F391F8091690790916A078217BA
:10491000930779F5F0936A07E09369076DC0DE01AC
:1049200020E030E0AE17BF0750F412964D915C9135
:1049300013979D014115510509F1DA01F3CFB383B6
:10494000A28340815181840F951F8A179B0771F4C0
:104950008D919C911197840F951F0296918380836E
:1049600012968D919C911397938382832115310523
:1049700029F4F0936C07E0936B073EC0D9011396BE
:10498000FC93EE9312974D915D91A40FB51FEA171A
:10499000FB0779F480819181840F951F0296D901DC
:1049A00011969C938E938281938113969C938E9300
:1049B0001297E0E0F0E08A819B81009719F0FE01F8
:1049C000EC01F9CFCE01029628813981820F931F25
:1049D0002091690730916A072817390769F43097E1
:1049E00029F410926C0710926B0702C01382128296
:1049F000D0936A07C0936907DF91CF91089581E052
:104A000090E0F8940C941A25F999FECF92BD81BDDF
:104A1000F89A992780B50895262FF999FECF1FBAE5
:104A200092BD81BD20BD0FB6F894FA9AF99A0FBED7
:084A300001960895F894FFCFF0
:104A380000006D078000010000002C0100005802F2
:104A48000000B004000060090000C01200008025CA
:104A5800000040380000004B000080700000127A0F
:104A680000000096000000E1000000C20100040000
:104A780000000500010006000200030000127A0091
:104A880000093D0080841E0040420F0020A107005D
:104A980090D0030048E8010001FF00000000360143
:104AA8000901DE00E600F900080100000000B00876
:104AB800BB0C1709B3094E0D040A920AC20A5C0816
:104AC800A10DC20D5609C70A66087C0EAE0E69080C
:104AD800DB0A6C080B0F450BAA0C6206460631066A
:104AE800690675067F06B2069407BF06D706ED0667
:104AF800030719072F0745075B07630B6C0BE50BCB
:104B08006E0C750778077B077E078107A308A50841
:104B18009F08950D990DFB0584078507860787076C
:104B2800880789078A078B078C078D078E078F07E9
:104B380090079107920793073006B507000305060B
:104B4800090A0B000102030405060708090A0B0CF1
:104B58000D0300E0C8100000010203040506074128
:104B6800726475696E6F204E616E6F203332380043
:104B780000000000B008BB0C1709B3094E0D040A69
:104B8800920AC20A5C08A10DC20D5609C70A660836
:104B98007C0EAE0E6908DB0A6C080B0F450BAA0CDD
:104BA800620646063106690675067F06B206940750
:104BB800BF06D706ED06030719072F0745075B074A
:104BC800630B6C0BE50B6E0C750778077B077E078C
:104BD8008107A308A5089F08950D990DFB05840773
:104BE800850786078707880789078A078B078C0741
:104BF8008D078E078F079007910792079307300656
:104C0800B507446562756767696E6720456E6162BE
:104C18006C65640000000000161E161E161E161E87
:104C2800161E161E161E161E161E161E161E161EDC
:104C3800161E161E161E161E161E161E161E161ECC
:104C4800161E161E620646063106690675067F069A
:104C5800B2069407BF06D706ED06030719072F0704
:104C680045075B07161E161E161E161E75077807C3
:104C78007B077E078107161E161E2F06161E161E98
:104C8800FB058407850786078707880789078A073A
:104C98008B078C078D078E078F0790079107920760
:104CA80093073006B50743726561746564204E65E5
:104CB8007720536572766F204F6E204368616E6E61
:104CC800656C2000536572766F2000203A20000042
:104CD800000000B008BB0C1709B3094E0D040A9276
:104CE8000AC20A5C08A10DC20D5609C70A66087CEB
:104CF8000EAE0E6908DB0A6C080B0F450BAA0C6296
:104D08000646063106690675067F06B2069407BF91
:104D180006D706ED06030719072F0745075B076344
:104D28000B6C0BE50B6E0C750778077B077E07810C
:104D380007A308A5089F08950D990DFB058407850D
:104D48000786078707880789078A078B078C078DD7
:104D5800078E078F0790079107920793073006B5CC
:104D68000700000000D810DB10DE10E110580F52C9
:104D78000F550F90101A0F436C6F736520436F6DBA
:104D88006D616E640000000000D810DB10DE10E1D9
:104D980010E410E710EA10ED1000000000961E3035
:0A4DA80020181E311E231E741E0089
:00000001FF
