:100000002CC100005BC1000059C1000057C10000B5
:1000100055C1000053C1000051C100004FC1000094
:100020004DC100004BC1000049C1000047C10000A4
:1000300045C100000C94322A41C100003FC10000BC
:100040003DC10000BEC5000039C1000037C100003D
:1000500035C1000033C1000031C100000C944A1FBB
:100060002DC100000C94DB230C94112427C1000047
:1000700025C1000023C1000021C100001FC10000F4
:10008000CDC500001BC1000019C1000017C1000050
:100090000C9486240C94BC2411C10000A3C300005E
:1000A0000DC100000BC10000E6C5000007C1000043
:1000B00005C1000003C1000001C1000009C6000025
:1000C000FDC00000FBC00000F9C000000C94312509
:1000D0000C946725F3C000000C94DC250C941226C8
:1000E000EDC0000097209C20A120AB20B5202E2140
:1000F000BF20C720CF20D920E320ED20FC200621FF
:100100002E2110211A212421502153214221462140
:100110004C218A2157215B216121652169216F21B1
:10012000732177218A217D218121852100000A0BFD
:1001300002090C0D0E080703040100000000000076
:1001400000000000000000000000000000000000AF
:10015000000000000000000012111000000000006C
:10016000000000000000000000000000000000008F
:1001700000000102102020080810204010204080BC
:10018000020102010804020101020408102040805B
:1001900080402010080402018004020180402010E9
:1001A0000804020108040201010204081020408032
:1001B0000102040810204080050505050705080810
:1001C0000808020202020A0A0808040404040101E1
:1001D00001010101010103030303030303030407F6
:1001E00007070C0C0C0C0C0C0C0C0202020206068D
:1001F0000606060606060B0B0B0B0B0B0B0B000083
:1002000020002300260029002C002F0032000001CE
:10021000000003010601090100002200250028005A
:100220002B002E00310034000201000005010801FE
:100230000B0100002100240027002A002D003000BF
:10024000330001010000040107010A010200090353
:10025000A1144324EE249925442611241FBECFEF78
:10026000D1E2DEBFCDBF00E00CBF16E0A0E0B2E0FF
:10027000E6EFF8E500E00BBF02C007900D92AE314B
:10028000B107D9F72AE0AEE1B6E001C01D92A03C6B
:10029000B207E1F712E0CAE5D2E000E006C022971B
:1002A0000109FE010BBF0E94112BCE34D10780E063
:1002B0000807A9F70E94932A0C94792CA1CECF921B
:1002C000DF92EF92FF920F931F93E82FF92F05C053
:1002D000015011092109310961F190819623941788
:1002E000B9F305C0015011092109310911F19081BB
:1002F00096239413F7CFC12CD12CE12CF12C0AC0FA
:100300008FEFC81AD80AE80AF80A0C151D052E0541
:100310003F0579F080818623841791F36C2D7D2D24
:100320008E2D9F2D1F910F91FF90EF90DF90CF901A
:10033000089560E070E080E090E01F910F91FF90E1
:10034000EF90DF90CF900895CF93DF938DEC90E006
:100350000E94A12AEC0127D6D0931F06C0931E0647
:1003600040E0BE0184EE97E0DF91CF910C94CF1274
:1003700084EE97E00C948012CF93CFB7F8948091DD
:100380002006811127C0EDEEF1E08491E7EAF1E06B
:100390009491E82FF0E0EE0FFF1FEE5CFD4FA5916A
:1003A000B4918C91892321F461E085E30E94C421FA
:1003B00061E085E30E948B218CB580618CBD8CB59A
:1003C00080648CBD61E084E30E948B2161E083E363
:1003D0000E948B21809120068F5F80932006CFBFE3
:1003E000CF9108958091510690E020915206821B92
:1003F000910908952091520680915106281750F4D2
:10040000E22FF0E0ED5AF94F808190E02F5F2093CA
:10041000520608958FEF9FEF0895E0915206809164
:100420005106E81730F4F0E0ED5AF94F808190E082
:1004300008958FEF9FEF08950895CF92DF92EF9286
:10044000FF920F931F93CF93DF937C01CB018A011F
:1004500020912D06222389F0EB016B01C40ED51EDD
:10046000CC15DD0561F06991D701ED91FC9101900A
:10047000F081E02DC7011995F3CF642F8AD1C8010F
:10048000DF91CF911F910F91FF90EF90DF90CF9070
:100490000895CF93DF931F92CDB7DEB76983209184
:1004A0002D062223D1F020912E06203240F021E0AB
:1004B00030E0FC013383228380E090E014C080911F
:1004C0002F06E82FF0E0E05DF94F998190838F5F70
:1004D00080932F0680932E0604C061E0CE01019622
:1004E00058D181E090E00F90DF91CF910895FC0109
:1004F0001382128248EE53E060E070E0448355833B
:100500006683778382E792E09183808308951092D7
:1005100052061092510610922F0610922E067CC0A1
:1005200081E080932D066093500610922F06109262
:100530002E0608950F93062F21E040912E0660E3CA
:1005400076E080915006CED010922F0610922E06A3
:1005500010922D060F9108958F929F92AF92BF92A5
:10056000CF92DF92EF92FF920F931F93CF93DF937F
:10057000EC01F62ED42E48015901EE2009F1D0DF0E
:100580001E2D143008F013E01150B8F0E881F98105
:1005900028E0129FB0011124A501940104C05695D2
:1005A0004795379527956A95D2F7CA01B901019009
:1005B000F081E02DCE011995E7CF60E0CE01BADFE2
:1005C0004D2D413208F040E22C2D63E576E08F2D71
:1005D00041D01092520680935106DF91CF911F9126
:1005E0000F91FF90EF90DF90CF90BF90AF909F90D2
:1005F0008F900895CF92EF920F931F93C22EE12C0C
:1006000000E010E09801A8DF1F910F91EF90CF90CC
:10061000089581E296E06BCF1092E00681E080932E
:10062000DE061092DD0661E084E10E94C42161E0F3
:1006300085E10E94C421E9EBF0E080818E7F808318
:1006400080818D7F808388E48093B80085E48093E7
:10065000BC000895413208F043C09091E00691112A
:10066000FCCF91E09093E0062093DE062FEF2093DD
:1006700073061092B806240F2093B7069093DF06F6
:100680009091DF06880F892B8093DF068091DD062D
:10069000813061F41092DD068091DF068093BB000B
:1006A0008091BC0083FDF8CF85EC01C085EE80937E
:1006B000BC008091E0068130E1F38091B806841798
:1006C00010F44091B80629EB36E0FB01D9018A2FDE
:1006D000821B841718F48D918193F9CF842F08958C
:1006E00080E008950F93413208F04AC09091E006EF
:1006F0009111FCCF92E09093E0060093DE069FEF0D
:10070000909373061092B8064093B706FB0169EB0D
:1007100076E0DB019A2F961B941718F491919D9324
:10072000F9CF1092DF069091DF06880F892B809316
:10073000DF068091DD06813061F41092DD06809144
:10074000DF068093BB008091BC0083FDF8CF85EC71
:1007500001C085EE8093BC00222321F08091E00649
:100760008230E1F3809173068F3F61F080917306D0
:10077000803251F080917306803341F483E007C0EA
:1007800081E005C080E003C082E001C084E00F91F9
:100790000895613298F42091E006243089F4609342
:1007A0009506FC0187E996E0DC012A2F281B261715
:1007B00018F421912D93F9CF80E0089581E00895F8
:1007C00082E0089585ED8093BC008091BC0084FD9B
:1007D000FCCF1092E006089585EC8093BC00109247
:1007E000E00608951F920F920FB60F9211240BB6D8
:1007F0000F922F933F934F935F936F937F938F93BA
:100800009F93AF93BF93EF93FF938091B900887F3D
:10081000803609F49DC070F5883209F45CC090F40C
:10082000803109F455C038F4882309F4F3C08830C6
:1008300009F44EC0F2C0883109F44DC0803209F489
:100840005EC0EBC0803409F469C050F4803309F411
:1008500056C0883309F0E1C080937306BDDFDDC068
:10086000803509F44FC0883509F45DC0883409F03B
:10087000D4C0D2C0883909F4C3C0A8F4883709F4B9
:1008800067C038F4883609F463C0803709F460C063
:10089000C4C0883809F4B4C0803909F45FC0803816
:1008A00009F0BBC05BC0803B09F482C038F4803AD9
:1008B00009F466C0883A09F47BC0AFC0803C09F4F3
:1008C000A3C0883C09F4A0C0883B09F486C0A5C039
:1008D0008091DF0610C09091B8068091B7069817F6
:1008E00070F5E091B80681E08E0F8093B806F0E0D5
:1008F000E754F94F80818093BB0085EC82C08093E0
:1009000073068AC0E091B80681E08E0F8093B80626
:100910008091BB00F0E0E754F94F80839091B806D6
:100920008091B7066AC0E091B80681E08E0F80938F
:10093000B8068091BB00F0E0E754F94F80838091C6
:10094000DE06811169C081E08093DD0684EA5DC026
:1009500083E08093E00610927406CFCF80917406F6
:10096000803208F04DC0E091740681E08E0F8093D4
:1009700074068091BB00F0E0EB58F94F8083BDCF47
:100980002BDF80917406803230F4E0917406F0E041
:10099000EB58F94F10826091740670E0E091D9062F
:1009A000F091DA0685E796E019951092740635C045
:1009B00084E08093E0061092960610929506E091EE
:1009C000DB06F091DC06199580919506811105C032
:1009D00081E08093950610929706E091960681E05B
:1009E0008E0F80939606F0E0E956F94F8081809350
:1009F000BB009091960680919506981708F47DCFDC
:100A000085E88093BC0009C085EC8093BC001092FF
:100A1000E00603C010927306D5DEFF91EF91BF91FF
:100A2000AF919F918F917F916F915F914F913F9186
:100A30002F910F900BBE0F900FBE0F901F90189527
:100A4000CF92DF92EF92FF920F931F93CF93DF939A
:100A50006C018B017A01EC01CE51D94F888187FF5F
:100A600004C0FB011182108223C02CE02C9DC00128
:100A70002D9D900D11242881AC01420F511D27FDA1
:100A80005A952091E10630E0421753078CF42881F3
:100A9000AC01420F511D27FD5A959A01FA01EE0F44
:100AA000FF1FE20FF31FEA51F94F208126FD19C005
:100AB00088818F5F88838CE08C9D90018D9D300DA7
:100AC00011248881A901480F511D87FD5A958091F5
:100AD000E10690E048175907B4F488818C303CF166
:100AE00012C02881820F911D27FD9A95FC01EE0FFF
:100AF000FF1FE80FF91FEA51F94F808160E08F7303
:100B00000E94C421D5CFF801808191810496803460
:100B10009C4918F480E49CE904C0F801808191812B
:100B20000496F701918380838FEF888341C0F80199
:100B3000808191814881B901640F711D47FD7A95CB
:100B4000AB01FB01EE0FFF1FE40FF51FEA51F94F58
:100B500041815281840F951FF701918380838881A1
:100B6000A901480F511D87FD5A95FA01EE0FFF1F8D
:100B7000E40FF51FEA51F94F808186FF19C0888183
:100B8000280F311D87FD3A95F901EE0FFF1FE20F87
:100B9000F31FEA51F94F808161E08F73DF91CF91AC
:100BA0001F910F91FF90EF90DF90CF900C94C42194
:100BB000DF91CF911F910F91FF90EF90DF90CF9039
:100BC00008951F920F920FB60F9211240BB60F9239
:100BD0002F933F934F935F936F937F938F939F9345
:100BE000AF93BF93EF93FF9348E850E064E870E061
:100BF00081E090E025DFFF91EF91BF91AF919F9150
:100C00008F917F916F915F914F913F912F910F90B5
:100C10000BBE0F900FBE0F901F9018951F920F9252
:100C20000FB60F9211240BB60F922F933F934F9351
:100C30005F936F937F938F939F93AF93BF93EF9344
:100C4000FF9348E950E064E970E082E090E0F8DE6C
:100C5000FF91EF91BF91AF919F918F917F916F9194
:100C60005F914F913F912F910F900BBE0F900FBE50
:100C70000F901F9018951F920F920FB60F9211248C
:100C80000BB60F922F933F934F935F936F937F9386
:100C90008F939F93AF93BF93EF93FF9348EA50E0F6
:100CA00064EA70E083E090E0CBDEFF91EF91BF91CA
:100CB000AF919F918F917F916F915F914F913F91F4
:100CC0002F910F900BBE0F900FBE0F901F90189595
:100CD0001F920F920FB60F9211240BB60F922F9303
:100CE0003F934F935F936F937F938F939F93AF93B4
:100CF000BF93EF93FF9348E251E064E271E080E03C
:100D000090E09EDEFF91EF91BF91AF919F918F9107
:100D10007F916F915F914F913F912F910F900BBEFB
:100D20000F900FBE0F901F9018952091E106203371
:100D3000A0F431E0320F3093E106FC012083822FD2
:100D400090E0FC01EE0FFF1FE80FF91FEA51F94F89
:100D500088EB9BE09283818308952FEFFC01208331
:100D60000895DF92EF92FF920F931F93CF93DF933B
:100D7000EC01D62E7A0189018881803308F068C0A1
:100D800061E08D2D0E948B218881A82FB0E0FD01AC
:100D9000EE0FFF1FEA0FFB1FEA51F94F2D2D2F73A6
:100DA0009081907C922B908360E272E06E197F09B3
:100DB00077FF02C06D5F7F4F759567957595679555
:100DC000698340E659E0401B510B57FF02C04D5F5D
:100DD0005F4F55954795559547954A836CE00E941E
:100DE000A42A9CE0899FB001112420E030E0A901F1
:100DF000460F571FFA01EE0FFF1FE40FF51FEA51D0
:100E0000F94F908196FD18C02F5F3F4F2C30310570
:100E100071F790E08130910521F51092800082E019
:100E2000809381001092850010928400B19A809185
:100E30006F00826080936F00888190E0FC01EE0F6C
:100E4000FF1FE80FF91FEA51F94F8081806480830A
:100E50008881DF91CF911F910F91FF90EF90DF90EC
:100E600008958230910569F41092900082E0809399
:100E70009100109295001092940088BB80937100AD
:100E8000DBCF8330910569F41092A00082E080935B
:100E9000A1001092A5001092A40089BB809372005B
:100EA000CBCF892B49F61092200182E0809321015B
:100EB00010922501109224018ABB80937300BCCF4D
:100EC00020E639E040E252E04CCFFC01808190E026
:100ED000FC01EE0FFF1FE80FF91FEA51F94F808167
:100EE0008F7B80830895FC018081803370F5918130
:100EF00028E830E0291B310997FD3395220F331F75
:100F0000220F331F621773077CF0928128E532E0CD
:100F1000291B310997FD3395220F331F220F331FF1
:100F2000621773070CF49B0122503109220F331F03
:100F30004FB7F89490E0FC01EE0FFF1FE80FF91F88
:100F4000EA51F94F328321834FBF08952BE035E0FA
:100F5000FC0131832083CDC022E832E0FC013183E3
:100F60002083F4CF20E233E0FC0131832083F4CFEF
:100F7000CF93DF93EC01EADFCE01DF91CF910C94A8
:100F8000A22ACF93DF93EC01E7DFCE01DF91CF916F
:100F90000C94A22ACF93DF93EC01E4DFCE01DF9122
:100FA000CF910C94A22ACF93DF93EC0194D080E2EE
:100FB00093E099838883B1E0BB8382E18C838CE1E9
:100FC00094E09E838D8383E0888719861A86A6E342
:100FD000AB878AEC93E09D878C8720E12E872CE0FD
:100FE00034E0388B2F872AE0298B40E45BE46CE403
:100FF00070E04A8B5B8B6C8B7D8B4E8B5F8B688F2D
:10100000798FFE01E954FF4F20E034E031832083E3
:10101000339722E02083319624E034E0318320832B
:101020003496108211821282138234964083518347
:10103000628373831A8E1C8E1B8E2FE02EA32BEBE4
:1010400033E038A72FA319A61BA61AA624E02CA7C5
:101050002EE332E03EA72DA740913A0250913B0289
:1010600060913C0270913D024FA758AB69AB7AABDF
:1010700034962DE0208331962AE032E031832083BC
:10108000BBAB23EE37E03DAB2CAB379622EE37E01F
:1010900031832083BEAB2AEB33E038AF2FAB3597DB
:1010A00027E02083319620E532E031832083329699
:1010B00022E432E03183208319AE1BAE1AAEACAF0E
:1010C0009EAF8DAFC553DF4F86E797E09983888346
:1010D000DF91CF910895CF93DF93EC010E94981197
:1010E00082E892E09983888382E08A83DF91CF91BE
:1010F000089524E434E0FC01318320830895EF92C5
:10110000FF920F931F93CF93DF9300D01F92CDB721
:10111000DEB77C0119821A821B821C82DC01ED91F0
:10112000FC9106A4F7A5E02D8E010F5F1F4F20E074
:1011300032EC41E050E01995D701ED91FC91E65772
:10114000FF4F0190F081E02D6EE274E0C701199528
:101150000F900F900F900F90DF91CF911F910F91F3
:10116000FF90EF9008950895089581E090E008952C
:1011700081E090E0089581E090E0089581E090E0C2
:101180000895CF93DF931F92CDB7DEB74983DC017B
:10119000ED91FC9106A8F7A9E02D9E012F5F3F4F2E
:1011A00041E019950F90DF91CF910895FF920F9331
:1011B0001F93CF93DF93EC01F62E8A01F801419142
:1011C0008F01442349F0E881F98100ACF1ADE02DB5
:1011D0006F2DCE011995F2CFDF91CF911F910F9115
:1011E000FF900895DC01ED91FC9104ACF5ADE02D8C
:1011F0001994DC01ED91FC91EE5BFF4F9A014427BD
:1012000037FD4095542F0190F081E02D1994DC01B9
:10121000ED91FC91EC5BFF4F9A0140E050E00190B2
:10122000F081E02D1994CF92DF92EF92FF920F930D
:101230001F93CF93DF93EC01162F69017A0157FFBB
:101240000FC0E881F98100ACF1ADE02D4DE21995B8
:10125000F094E094D094C094C11CD11CE11CF11C0A
:10126000E881F981E856FF4F0190F081E02D0AE016
:10127000A7019601612FCE011995DF91CF911F91A2
:101280000F91FF90EF90DF90CF9008950F93DC01C6
:10129000ED91FC91E856FF4F0190F081E02D0AE0BE
:1012A00019950F9108951F93CF93DF93EC01162F9B
:1012B000E881F98100ACF1ADE02D4DE01995E881B0
:1012C000F98100ACF1ADE02D4AE0612FCE01DF9154
:1012D000CF911F9119941F93CF93DF93EC01162F99
:1012E000E881F98100ACF1ADE02D1995E881F98133
:1012F000E85BFF4F0190F081E02D612FCE01DF917F
:10130000CF911F9119941F93CF93DF93EC01162F68
:10131000E881F98102ACF3ADE02D1995E881F981FE
:10132000E85BFF4F0190F081E02D612FCE01DF914E
:10133000CF911F9119941F93CF93DF93EC01162F38
:10134000E881F98104ACF5ADE02D1995E881F981CA
:10135000E85BFF4F0190F081E02D612FCE01DF911E
:10136000CF911F9119941F93CF93DF93EC01162F08
:10137000E881F98106ACF7ADE02D1995E881F98196
:10138000E85BFF4F0190F081E02D612FCE01DF91EE
:10139000CF911F9119941F93CF93DF93EC01162FD8
:1013A000E881F981EE5BFF4F0190F081E02D199506
:1013B000E881F981E85BFF4F0190F081E02D612F1A
:1013C000CE01DF91CF911F9119941F93CF93DF939B
:1013D000EC01162FE881F981EC5BFF4F0190F08161
:1013E000E02D1995E881F981E85BFF4F0190F081CC
:1013F000E02D612FCE01DF91CF911F911994FF92C3
:101400000F931F93CF93DF93EC01F62EE881F981C0
:10141000EA5BFF4F0190F081E02D1995E881F98199
:10142000E85BFF4F0190F081E02D6F2DCE01DF9141
:10143000CF911F910F91FF90199481E090E0089552
:1014400081E090E0089581E090E0089581E090E0EF
:10145000089581E090E0089508950895089508950D
:101460000895089508950895089508950895089594
:10147000089508950895089524E434E0FC0131832B
:1014800020830C94A22A0F931F93DC01ED91FC9111
:101490000115110539F400ACF1ADE02D422F1F917B
:1014A0000F9119940A30110541F4EE5BFF4F019042
:1014B000F081E02D1F910F911994E856FF4F019094
:1014C000F081E02D19951F910F9108952F923F9271
:1014D0004F925F926F927F928F929F92AF92BF9244
:1014E000CF92DF92EF92FF920F931F93CF93DF93F0
:1014F000CDB7DEB7A0970FB6F894DEBF0FBECDBF55
:101500005C01162FCA01B9012115310541055105AC
:1015100011F5D501ED91FC9100ACF1ADE02D40E36A
:10152000612FC501A0960FB6F894DEBF0FBECDBFE8
:10153000DF91CF911F910F91FF90EF90DF90CF90AF
:10154000BF90AF909F908F907F906F905F904F90E3
:101550003F902F901994FE0131964F01C12CD12C50
:1015600076013F01202E312C412C512CFFEFCF1A58
:10157000DF0AEF0AFF0AA20191010E94C32AD401E7
:101580006D934D01B901CA01611571058105910580
:1015900069F7B1E0CB1AD108E108F108D501ED9166
:1015A000FC9100ACF1ADE02DD301AC0DBD1D4C9113
:1015B0004A3010F4405D01C0495C612FC5011995A6
:1015C000B1E0CB1AD108E108F108EFEFCE16DE0644
:1015D000EE06FE0619F7A0960FB6F894DEBF0FBE12
:1015E000CDBFDF91CF911F910F91FF90EF90DF90D2
:1015F000CF90BF90AF909F908F907F906F905F90B3
:101600004F903F902F900895FC0184E494E09183E3
:1016100080838EEF8283138280E8878308958CB560
:10162000411102C0806201C08F7D8CBD80E090E0DE
:10163000089580E090E0089581E090E00895CF92D1
:10164000DF92FF920F931F93CF93DF9300D01F92EF
:10165000CDB7DEB76C01F62EDC01ED91FC91E85AB6
:10166000FF4F0190F081E02D29833A834B835C8307
:101670001995D601ED91FC9106A4F7A5E02D2981DD
:101680003A814B815C816F2DC60119950F900F90A7
:101690000F900F90DF91CF911F910F91FF90DF90EE
:1016A000CF900895CB01BA010C94C31F0C94941FE2
:1016B0000E94941F28EE33E040E050E00E94C32ACD
:1016C000CA01B90108954F925F927F928F929F92C3
:1016D000AF92BF92CF92DF92EF92FF920F931F9340
:1016E000CF93DF931F92CDB7DEB77C016A018901EA
:1016F000F90110822A0178E0712CA62EB12C88E025
:10170000882E912CC2018C199D098A159B057CF5A8
:10171000F20181912F0179830E944E20F7016189A6
:101720007981662379F3F7012189261BAC0102C078
:10173000569547952A95E2F79A01A401471B51094E
:10174000042E01C0220F0A94EAF7F801E70DF11DFB
:101750003081322B3083671710F4761BD3CF671B91
:101760007394F801E70DF11D108278E0DACF80E084
:1017700090E00F90DF91CF911F910F91FF90EF902C
:10178000DF90CF90BF90AF909F908F907F905F90B1
:101790004F900895AF92BF92CF92DF92EF92FF9257
:1017A0000F931F93CF93DF937901EA0100E010E0DC
:1017B000A62EB12C0A151B05FCF46E0161E089917F
:1017C0000E948B21F80193E0F595E7959A95E1F752
:1017D000EE0DFF1D608170E0C8018770992702C07F
:1017E000759567958A95E2F76170F60180810E9490
:1017F000C4210F5F1F4FDECF80E090E0DF91CF91DB
:101800001F910F91FF90EF90DF90CF90BF90AF901E
:1018100008955F926F927F928F929F92AF92BF9244
:10182000CF92DF92EF92FF920F931F93CF93DF93AC
:10183000542E822E1E2D61E0802F0E948B2111706C
:10184000FF24F394F1266F2D802F0E94C421E12CF8
:10185000C0E0D0E0912C652C712CC815D90524F579
:10186000612F802F0E94C42140E050E046155705AB
:10187000A4F48E2D840F90E0F501E80FF91FD60136
:10188000A80FB91F8C918EBD00000DB407FEFDCFCF
:101890008EB580834F5F5F4FE9CF6F2D802F0E9401
:1018A000C4212196E50CD9CF80E090E0DF91CF9163
:1018B0001F910F91FF90EF90DF90CF90BF90AF906E
:1018C0009F908F907F906F905F9008956F927F921E
:1018D0009F92AF92BF92CF92DF92EF92FF920F93BF
:1018E0001F93CF93DF931F92CDB7DEB78A017901A3
:1018F0003A01B12CA12C28E0C62ED12CC301801BAB
:10190000910B8C159D05F4F4211108C0F701EA0D27
:10191000F11DB082A394B12C27E001C02150F30146
:1019200091903F0160E0892D29830E948B21892DB0
:101930000E94F9212981022E01C0880F0A94EAF73A
:10194000B82ADCCFF701EA0DF11DB08280E090E00B
:101950000F90DF91CF911F910F91FF90EF90DF904B
:10196000CF90BF90AF909F907F906F9008959F927F
:10197000AF92BF92CF92DF92EF92FF920F931F939D
:10198000CF93DF9300D01F92CDB7DEB7162F842FF1
:10199000922EA7019601813029F561E0812FC9823D
:1019A0003A834B835C830E948B2161E0812F0E94EC
:1019B000C42161E070E080E090E00E94C31F60E01D
:1019C000812F0E94C42161E070E080E090E00E94DD
:1019D000C31F61E0812F0E94C42129813A814B817C
:1019E0005C8126C0823021F561E0812FC9823A8373
:1019F0004B835C830E948B2160E0812F0E94C42175
:101A000061E070E080E090E00E94C31F61E0812F00
:101A10000E94C42161E070E080E090E00E94C31F5A
:101A200060E0812F0E94C4215C814B813A81298131
:101A300060E0892D29833A834B835C830E948B214C
:101A400029813A814B815C81011102C060E003C0B1
:101A5000013049F461E0892D0E942122F501608363
:101A600071838283938380E090E00F900F900F90BA
:101A70000F90DF91CF911F910F91FF90EF90DF902A
:101A8000CF90BF90AF909F900895AF92BF92CF92AA
:101A9000DF92EF92FF920F931F93CF93DF93790121
:101AA000EA018901A62EB12CC8018E199F098A1559
:101AB0009B0574F46E0161E089910E948B21F8010D
:101AC00061918F0170E0F60180810E947320ECCF5C
:101AD00080E090E0DF91CF911F910F91FF90EF9008
:101AE000DF90CF90BF90AF9008950E94BC0180E03E
:101AF00090E0089587539F4FDC01ED91FC91E60F34
:101B0000F11D8081882319F08F5F808304C081E2FA
:101B100096E00E94870280E090E00895FF920F9384
:101B20001F93CF93DF93862FF42EB901E801811123
:101B300004C050E08EE198E011C0813021F450E003
:101B40008BEB98E00BC0823021F450E088E599E0FF
:101B500005C0833031F450E085EF99E00E94DB2628
:101B6000888388818F1519F083E890E002C080E0B7
:101B700090E0DF91CF911F910F91FF900895611137
:101B800003C08EE198E00EC0613019F48BEB98E051
:101B900009C0623019F488E599E004C0633021F48B
:101BA00085EF99E00E94B92380E090E008953F928C
:101BB0004F925F926F927F928F929F92AF92BF925D
:101BC000CF92DF92EF92FF920F931F93CF93DF9309
:101BD000EC016A018A01A62EB12C7C018BECE80E87
:101BE000F11CC8018C199D098A159B050CF042C097
:101BF000D8013D908D01632C712C4301880C991CF8
:101C0000D701ED91FC91E80DF91D80819181892B1F
:101C100041F783E090E00E94A12A2C0186D8D701E9
:101C2000ED91FC911197E80DF91D51824082ED91E3
:101C3000FC91E80DF91DB3018081918141D9E881C2
:101C4000F981E858FF4F0190F081E02D6EED74E0CE
:101C5000CE011995E881F981EC56FF4F432D50E0F4
:101C600060E070E00190F081E02D2AE030E0CE01EC
:101C70001995B7CF80E090E0DF91CF911F910F9140
:101C8000FF90EF90DF90CF90BF90AF909F908F909C
:101C90007F906F905F904F903F9008956F927F92EA
:101CA0008F929F92AF92BF92CF92DF92EF92FF926C
:101CB0000F931F93CF93DF93EC015A0169018A01BF
:101CC000662E712C7C018BECE80EF11CC8018A1980
:101CD0009B09861597050CF058C0E881F981E858F2
:101CE000FF4F0190F081E02D6CEF74E0CE0119956B
:101CF000D8018C91E881F981EC57FF4FD7012C91E5
:101D000011969C91A22FB92FA80FB11DA80FB11D3C
:101D10004D915C91662757FD6095762F0190F0817B
:101D2000E02D2AE030E0CE011995E881F981E858EC
:101D3000FF4F0190F081E02D63E075E0CE01199531
:101D40004601E881F981EC56FF4FD6014D915D9136
:101D50006D0160E070E00190F081E02D2AE030E05C
:101D6000CE011995F80181918F01D4016D917C917B
:101D7000F70120819181E22FF92FE80FF11DE80F83
:101D8000F11D80819181AFD8A1CF80E090E0DF91FB
:101D9000CF911F910F91FF90EF90DF90CF90BF9068
:101DA000AF909F908F907F906F900895CF92DF9229
:101DB000EF92FF920F931F93CF93DF937A018A01E3
:101DC000C62ED12CEC01C553DF4FC8018E199F09D7
:101DD0008C159D05DCF4F801808128819981E22F22
:101DE000F92FE80FF11DE80FF11D808191816DD869
:101DF000F80181918F0128819981E22FF92FE80F55
:101E0000F11DE80FF11D11821082DFCF80E090E01C
:101E1000DF91CF911F910F91FF90EF90DF90CF90C6
:101E20000895862FB90181110BC0E0911E08F09131
:101E30001F0850E00280F381E02D8EE198E026C07B
:101E4000813059F4E091BB08F091BC0850E0028069
:101E5000F381E02D8BEB98E019C0823059F4E091CA
:101E60005809F091590950E00280F381E02D88E58E
:101E700099E00CC0833059F4E091F509F091F6092E
:101E800050E00280F381E02D85EF99E0199580E024
:101E900090E00895AF92BF92CF92DF92EF92FF92BF
:101EA0000F931F93CF93DF9300D01F92CDB7DEB770
:101EB0008C01613091F020F0623009F452C069C0A9
:101EC00081E00E944B20F801428953896489758919
:101ED000468B578B608F718F41C0FC01EC54FF4FD4
:101EE000E081EE2309F455C060E070E080E090E00E
:101EF000AE2EB12CD801AB54BF4F01C001968A154C
:101F00009B050CF049C0ED90FC901197E60EF71E72
:101F1000F701C080D180E280F3806C5F7F4FC216F2
:101F2000D306E406F50651F7880F991FF801E95426
:101F3000FF4F0190F081E02DE80FF91F8081298388
:101F40003A834B835C830E944B2029813A814B81E9
:101F50005C81F801268B378B408F518F80E090E0B9
:101F60001DC0FC01E754FF4FC080D180E280F380A8
:101F70002C153D054E055F0578F03496C080D18064
:101F8000E280F380C216D306E406F50628F080E06E
:101F9000D6CF81E890E002C082E890E00F900F90E9
:101FA0000F900F90DF91CF911F910F91FF90EF90C5
:101FB000DF90CF90BF90AF9008958F929F92AF9295
:101FC000BF92DF92EF92FF920F931F93CF93DF9315
:101FD00000D01F92CDB7DEB7D62E49015A01A80115
:101FE000970181149104A104B104C9F061E08D2D21
:101FF000E9823A834B835C830E948B2129813A8159
:102000004B815C81211531054105510519F420E012
:1020100030E0A901B4018D2D0E94FD2603C0862F5A
:102020000E941E2A80E090E00F900F900F900F907A
:10203000DF91CF911F910F91FF90EF90DF90BF90B4
:10204000AF909F908F900895CB01642F0C946B2CD0
:10205000CB010C94632C8F929F92AF92BF92CF9240
:10206000DF92EF92FF920F931F93CF93DF93E801DC
:10207000FC01EF53FF4F008110E0C12CD12CE0E0B8
:10208000F0E07C0172ECE70EF11CE017F10794F42C
:10209000D701AD90BC90AC0CBD1CD5018D909D902E
:1020A000AD90BC90B4E0CB0ED11C281539054A0583
:1020B0005B0520F4309721F0319702C03196E5CFCF
:1020C000611116C08F01000F111F000F111F7C013D
:1020D000E2ECEE0EF11CD701ED91FC91E00FF11F47
:1020E000408151816281738126E08EE198E047C092
:1020F0006130B1F48F01000F111F000F111F7C011F
:10210000F2ECEF0EF11CD701ED91FC91E00FF11F05
:10211000408151816281738126E08BEB98E02FC072
:102120006230B1F48F01000F111F000F111F7C01ED
:10213000F2ECEF0EF11CD701ED91FC91E00FF11FD5
:10214000408151816281738126E088E599E017C062
:10215000633029F58F01000F111F000F111F7C0143
:10216000F2ECEF0EF11CD701ED91FC91E00FF11FA5
:10217000408151816281738126E085EF99E00E9460
:102180005923F701A081B181A00FB11F8D919D91BD
:102190000D90BC91A02D88839983AA83BB8380E096
:1021A00090E0DF91CF911F910F91FF90EF90DF9022
:1021B000CF90BF90AF909F908F9008959CB5937FE4
:1021C000982B9CBD0895413049F030F0423041F0E9
:1021D000433041F48CE005C080E003C084E001C0DE
:1021E00088E0ECDF80E090E008952CB5982F9370A4
:1021F0002C7F922B9CBD9DB582FB882780F99E7F0A
:10220000982B9DBD08952F923F924F925F926F92AF
:102210007F928F929F92AF92BF92CF92DF92EF9276
:10222000FF920F931F93CF93DF9300D000D0CDB7D1
:10223000DEB77C01C12CD12C1E821D823C0164ECD6
:10224000660E711C4C0175EC870E911C5C0187ECCD
:10225000A80EB11CD3018C9190E06D817E8168172E
:1022600079070CF04AC0D401ED91FC91B601660FDC
:10227000771FE60FF71F20803180428053802215A0
:10228000330544055505A0F0F801208231824282D1
:1022900053828D819E81880F991FF701E953FF4F6B
:1022A0000190F081E02DE80FF91F80819EDF25C0AD
:1022B00001976D817E8168177907A9F4D8012D9265
:1022C0003D924D925C921397D501ED91FC91EC0DEE
:1022D000FD1D808129833A834B835C8386DF5C818B
:1022E0004B813A8129816D817E816F5F7F4F7E8333
:1022F0006D8372E0C70ED11CADCF80E090E02696D2
:102300000FB6F894DEBF0FBECDBFDF91CF911F9106
:102310000F91FF90EF90DF90CF90BF90AF909F9084
:102320008F907F906F905F904F903F902F90089587
:102330001F93CF93DF93EC0167D98BE095E09983EE
:10234000888383E0888719861A8680E090E00E945F
:10235000632C182F81E090E00E94632CEF96212FD0
:1023600030E0322F2227282B39832883DF91CF9129
:102370001F910895EF92FF920F93CF93DF931F92D7
:10238000CDB7DEB7642F81E296E029830E949002E8
:10239000402F50E0B70181E296E00E941D022981A2
:1023A000211102C061E003C0213041F460E081E20C
:1023B00096E00E949A0280E090E007C061E081E22E
:1023C00096E00E949A0281E890E00F90DF91CF9111
:1023D0000F91FF90EF9008954F925F926F927F92CE
:1023E0008F929F92AF92BF92CF92DF92EF92FF9225
:1023F0000F931F93CF93DF93642F211102C021E02D
:1024000003C0213099F520E0402F81E296E00E9440
:10241000FA020E94941F4B015C0110E02701612C1D
:10242000712C81E296E00E94F2018017910774F40A
:102430000E94941F681979098A099B094616570654
:102440006806790670F783E890E012C0E601CE01D5
:102450008C199D098017910734F481E296E00E945F
:10246000FA018993F4CF80E090E002C081E890E027
:10247000DF91CF911F910F91FF90EF90DF90CF9060
:10248000BF90AF909F908F907F906F905F904F9094
:102490000895CF93DF93EA01611103C08EE198E0C4
:1024A0000EC0613019F48BEB98E009C0623019F46A
:1024B00088E599E004C0633029F485EF99E00E9433
:1024C0004D22888380E090E0DF91CF910895CF93F3
:1024D000DF93EC018A819B81DC01ED91FC91E85A4C
:1024E000FF4F0190F081E02D6885199518AA1FA66D
:1024F00080E090E0DF91CF9108958FEF9FEF0895F6
:10250000CF93DF93EC018FA598A98430910541F119
:102510007CF4892B09F040C0E881F9816A817B81D4
:102520000088F189E02D4885CE01DF91CF91199483
:1025300085309105D9F0069779F58A819B81DC0178
:10254000ED91FC91E657FF4F0190F081E02D63EB98
:1025500075E01995E881F9810484F585E02D18C0AE
:10256000E881F9810084F185E02D12C08A819B8188
:10257000DC01ED91FC91E657FF4F0190F081E02DD9
:1025800065EA75E01995E881F9810284F385E02D0B
:10259000CE01DF91CF911994DF91CF910895DF9211
:1025A000EF92FF920F931F93CF93DF9300D01F9270
:1025B000CDB7DEB77C018B01D42EDC0113967C9362
:1025C0006E931297FB01878190E00E94382BD70110
:1025D0001A969C938E931997F801878190E00E9438
:1025E000382BD7011C969C938E931B97D801ED91A5
:1025F000FC91E657FF4F0190F081E02D60EC75E013
:10260000C8011995F701D08619821A821B821C8293
:1026100082819381DC01ED91FC9106A4F7A5E02D68
:102620008E010F5F1F4F20E835E240E050E06D2D36
:10263000199584E090E0F70190AB87A70F900F9079
:102640000F900F90DF91CF911F910F91FF90EF901E
:10265000DF900895EF92FF920F931F93CF93DF9334
:102660001F921F92CDB7DEB77C011A82DC01129651
:102670008D919C911397DC01ED91FC9102A8F3A937
:10268000E02DAE014E5F5F4FD70118966C91199502
:102690008A81823008F42FC11982F70182819381E7
:1026A000DC01ED91FC91D70119962D913C911A977F
:1026B00004A8F5A9E02D8E010F5F1F4F42E0189688
:1026C0006C911995D7011996ED91FC911A9720817B
:1026D00012968D919C911397DC01ED91FC9102A8CB
:1026E000F3A9E02DAE014E5F5F4FD70118966C91B4
:1026F0002F3F09F0E9C019952A8130E0D7011996DA
:10270000ED91FC911A97818190E002972817390783
:102710002CF1F701828193810184F285E02DDC01A7
:102720006D917C919F012E5F3F4F41814250DB01B3
:10273000D496ED91FC91D5978E010F5F1F4FD70175
:1027400018966C911995F70161857285C70161D161
:10275000F701A281B38181115AC0A3C005E610E040
:102760002A8130E0D7011996ED91FC911A97818169
:1027700090E002972817390764F6D70112968D91D9
:102780009C911397DC01ED91FC9102A8F3A9E02D37
:10279000AE014E5F5F4FD70118966C9119950150AD
:1027A0001109F70182819381DC01ED91FC91011502
:1027B000110511F502A8F3A9E02DAE014E5F5F4FA0
:1027C000D70118966C911995F70182819381DC01EC
:1027D000ED91FC91D70119962D913C911A9704A87F
:1027E000F5A9E02D8E010F5F1F4F4A8118966C915D
:1027F00019958FEF9FEF8DC0E259FF4F0190F08147
:10280000E02D41E050E060E070E01995A9CFED9136
:10281000FC911197CF018A569F4FF7014185528550
:10282000FC012081318161E0CD01F9011995D701C9
:102830001B964D915C911C9719966D917C911A97FE
:10284000C70144D1049729F485E090E0F70190ABEB
:1028500087A7D70112968D919C911397DC01ED917A
:10286000FC91EA56FF4FD7011B964D915C911C9746
:102870000190F081E02D60E01995F701828193814C
:10288000A385B485FC0120813181F90106A917A92E
:102890009D0111964C91D70118966C91F8011995EC
:1028A00036C0ED91FC91119722A933A9AE014E5F7C
:1028B0005F4FF7016085CD01F9011995D701129697
:1028C0008D919C91139704C01995F7018281938192
:1028D000DC01ED91FC91D70119962D913C911A974D
:1028E00004A8F5A9E02D8E010F5F1F4F4A811896AD
:1028F0006C9119950CC0D7019D96ED91FC919E9716
:10290000309729F060E070E080E090E0199580E079
:1029100090E00F900F90DF91CF911F910F91FF905A
:10292000EF900895CF93DF93EC015BD08AED95E0B3
:102930009983888318AA1FA61F821E82DF91CF91D8
:10294000089584EE97E0EECF8FEF9FEF08958FEF1D
:102950009FEF08958FEF9FEF08958FEF9FEF0895FA
:102960008FEF9FEF08958FEF9FEF08958FEF9FEF09
:102970000895CF93DF93DC011496CD91DC911597E8
:10298000C430D105B9F054F4209729F5DC01ED915C
:10299000FC910190F081E02D19951FC0C530D10543
:1029A00081F02697C1F4DC01ED91FC910484F5855A
:1029B000E02D0DC0DC01ED91FC910084F185E02D4E
:1029C00006C0DC01ED91FC910284F385E02D1995A0
:1029D000C0E0D0E002C0C0E8D0E0CE01DF91CF91EE
:1029E00008952EEF35E0FC01318320831582148297
:1029F0000895FB01218130E02150310980E0AF01D1
:102A0000461B570B421753071CF49191890FF7CFC0
:102A10000895CF93DF93EB01ECDF9981C90FD11DAE
:102A2000219791E02881821390E0892FDF91CF9147
:102A300008950F931F93CF93DF93FA014FEF4083D5
:102A400046E0420F4183DB0112964C91129742837C
:102A500013964C9143830F3F110509F010F4048342
:102A600002C043E04483E9012596CE0FDF1FBF017A
:102A7000C0DF8883DF91CF911F910F9108950F934D
:102A80001F93890120E030E0D4DF1F910F9108955A
:102A9000EF92FF920F931F93CF93DF93D901EA0137
:102AA0002596F901202F30E08F010A1B1B0B02171E
:102AB00013071CF411911993F7CF8701BADFDF9147
:102AC000CF911F910F91FF90EF9008952F923F9219
:102AD0004F925F926F927F928F929F92AF92BF922E
:102AE000CF92DF92EF92FF920F931F93CF93DF93DA
:102AF00000D000D0CDB7DEB73C014B012A012DB686
:102B00003EB6DB0114962C91149730E0322F222729
:102B100015968C91282B2115BCEF3B07C0F019822C
:102B2000F901FC5FEE0FFF1FE60DF71D9A012B5F09
:102B30003F4F6A5F7F4FD40111968C910584F685D3
:102B4000E02DAE014F5F5F4F8750199562C7243269
:102B5000310509F4D0C508F007C12231310509F467
:102B6000D3C208F07BC02A30310509F488C208F0CE
:102B70004FC02530310509F44EC258F423303105D9
:102B800009F41BC208F02AC2232B09F4EDC70C94E8
:102B9000221F2830310509F45CC208F065C22630D6
:102BA000310511F00C94221FFB01208530E0322FFB
:102BB0002227442737FD4095542F8185282B1982E1
:102BC0001A821B821C82D30112968D919C911397BD
:102BD000DC01ED91FC9100A8F1A9E02D8E010F5FC1
:102BE0001F4FD30118966C9119957C01F3018281D6
:102BF0009381DC01ED91FC91E259FF4F0190F0814E
:102C0000E02D48EE53E060E070E019950C941B1F36
:102C1000F301A281B3812E30310509F44DC278F45D
:102C20002C30310509F436C208F03DC297962D913B
:102C30003C919897E12CF12C96960C9166C5203129
:102C4000310509F442C208F049C2D7962D913C9152
:102C5000D897E12CF12CD6960C9157C52A31310525
:102C600009F4ACC380F5D30112968D919C91139712
:102C70002631310509F4F9C290F42431310509F403
:102C80007BC208F0D0C2FC01FF968181FA018583E6
:102C9000D3011296ED91FC91139787AD66C228314E
:102CA000310509F410C308F064C3FC01EB5BFF4F6E
:102CB0008181FA018583D3011296ED91FC911397DE
:102CC000EB5BFF4F51C22E31310509F428C4B8F433
:102CD000F301828193812C31310509F4A2C308F0FC
:102CE000FCC3FC01E55BFF4F8181FA018583D301C1
:102CF0001296ED91FC911397E55BFF4F35C22032A0
:102D0000310509F437C408F426C42232310509F428
:102D100092C42332310511F00C94221FD301129674
:102D2000ED91FC911397E055FF4F8381FA01858364
:102D30001296ED91FC911397E055FF4F8281DA01D5
:102D400016968C93D3011296ED91FC911397E05552
:102D5000FF4F8181FA0187831296ED91FC911397C1
:102D6000E055FF4F80818EC5213E310509F475C6BF
:102D700008F0ACC02436310509F490C508F069C0EC
:102D80002334310509F404C5B0F42134310509F4C4
:102D9000C1C408F0D5C42532310511F00C94221FAE
:102DA000D3011296ED91FC91139725AD36ADE12C30
:102DB000F12C04ADAAC42036310509F422C5213610
:102DC000310509F442C52434310511F00C94221F59
:102DD000F30182819381DC01ED91FC91DB011A9674
:102DE0002C911A971B96CC901B97D12CE12CF12C8F
:102DF0007601DD24CC24F22A1D962C911D97C22A3F
:102E00001C962C911C97D22A0488F589E02D9E01EE
:102E10002F5F3F4F590119960C91199716962C91D7
:102E2000169718964C91189717966C9119957C01E6
:102E300089819A812B813C81D20115963C9315970B
:102E400016962C93169717969C93179718968C9313
:102E5000BFC6223C310509F4A9C500F5203C310567
:102E600009F45CC508F075C52338310509F0EAC7D7
:102E7000F30182819381DB0116966C91DC01ED9167
:102E8000FC91262F30E0295F3F4F280D391DA4010A
:102E9000495F5F4F0688F789E02D3EC5243C310528
:102EA00009F4BAC508F49CC5253C310509F4C9C527
:102EB000203E310509F0C6C7F30182819381DC0110
:102EC000ED91FC9104A0F5A1E02D28C62730F1E09A
:102ED0003F0709F481C6D8F5211591E0390709F4B7
:102EE00022C6B0F4233E310509F4F0C508F4D0C57C
:102EF000243E310509F0A6C7D30112968D919C910D
:102F00001397DC01ED91FC9104A4F5A5E02D06C614
:102F10002230B1E03B0709F42AC608F415C6233075
:102F2000314009F08FC7D30112968D919C91139770
:102F3000DC01ED91FC91068CF78DE02DDB011796FD
:102F40004C91179716966C9119957C0141C62036C5
:102F500081E0380709F4FEC6B8F42134A1E03A074D
:102F600009F472C62234B1E03B0709F4DFC620340D
:102F7000314009F067C7F30182819381DC01ED9153
:102F8000FC91E65AFF4FDAC62236F1E03F0709F41A
:102F90001EC708F4F9C6233691E0390709F43EC785
:102FA0002436314009F04EC7F30182819381DC0160
:102FB000ED91FC91E859FF4F39C7D3011296ED917D
:102FC000FC9113978281FA0185831296ED91FC9111
:102FD00013978381DA0116968C93C9C0D301129698
:102FE000ED91FC9113978085FA0185831296ED91FE
:102FF000FC9113978185DA0116968C93D301129672
:10300000ED91FC9113978285FA01878300E010E02F
:1030100023E030E03EC4D3011296ED91FC9113976A
:1030200082A9FA0185831296ED91FC91139781A9EB
:10303000DA0116968C93D3011296ED91FC911397B9
:1030400080A9FA0187831296ED91FC91139787A5C9
:1030500019C4D3011296ED91FC91139724853585FF
:10306000E12CF12C038551C3D3011296ED91FC9113
:10307000139727853089E12CF12C068546C3D301AF
:103080001296ED91FC911397238D348DE12CF12C48
:10309000028D3BC39A962D913C919B97E12CF12C8C
:1030A00099960C9132C39D962D913C919E97E12C5F
:1030B000F12C9C960C9129C3D4962D913C91D597D7
:1030C000E12CF12CD3960C9120C3DA962D913C91F2
:1030D000DB97E12CF12CD9960C9117C3ED91FC9163
:1030E0001197E657FF4F0190F081E02D6CEE75E0EF
:1030F000CD01199520E030E0A201B401C301BFDC8D
:10310000E4E0EE2EF12CA7C6F30182819381FC014D
:10311000FF96DB0116962C91169730E0322F22276E
:1031200017964C91242B31832083DC01ED91FC9187
:10313000E059FF4F0190F081E02DD40116964C919B
:1031400060E070E01995F30182819381DC01ED91DB
:10315000FC91E059FF4F0190F081E02DD4011796CA
:103160004C9161E070E05DC08081F201868300E0F7
:1031700010E022E030E08DC3FC01EF5BFF4FDB018C
:1031800018964C91189750E0542F442719962C917B
:10319000422B662757FD6095762F408351836283CB
:1031A0007383DC01ED91FC91E059FF4F0190F081B8
:1031B000E02DD40116964C9162E070E01995F30170
:1031C00082819381DC01ED91FC91E059FF4F0190E8
:1031D000F081E02DD40117964C9163E070E01995D1
:1031E000F30182819381DC01ED91FC91E059FF4F65
:1031F0000190F081E02DD40118964C9164E070E0CC
:103200001995F30182819381DC01ED91FC91E059E4
:10321000FF4F0190F081E02DD40119964C9165E0AB
:1032200070E01995A1C4FC01EF5BFF4F8381FA01A7
:103230008583D3011296ED91FC911397EF5BFF4FBD
:103240008281FA0186831296ED91FC911397EF5BD0
:10325000FF4F8181DA0117968C93D3011296ED917D
:10326000FC911397EF5BFF4FA5C0FC01EB5BFF4F99
:10327000DB0116962C91169730E0322F22271796F5
:103280004C91242B31832083DC01ED91FC91E0599A
:10329000FF4F0190F081E02DDB0116964C9166E026
:1032A00070E01995F30182819381DC01ED91FC912D
:1032B000E059FF4F0190F081E02DD40117964C9119
:1032C00067E070E0AECFFC01E95BFF4FDB011896D1
:1032D0004C91189750E0542F442719962C91422B6B
:1032E000662757FD6095762F4083518362837383F1
:1032F000DC01ED91FC91E059FF4F0190F081E02D50
:10330000D40116964C9168E070E01995F301828122
:103310009381DC01ED91FC91E059FF4F0190F08128
:10332000E02DD40117964C9169E070E01995F301F6
:1033300082819381DC01ED91FC91E059FF4F019076
:10334000F081E02DD40118964C916AE070E0199557
:10335000F30182819381DC01ED91FC91E059FF4FF3
:103360000190F081E02DD40119964C916BE070E052
:1033700058CFFC01E95BFF4F8381FA018583D301BC
:103380001296ED91FC911397E95BFF4F8281FA0150
:1033900086831296ED91FC911397E95BFF4F818133
:1033A000DA0117968C93D3011296ED91FC91139745
:1033B000E95BFF4F8081F201808767C2D3011296DB
:1033C0008D919C911397FC01E55BFF4FDB011696F5
:1033D0002C91169730E0322F222717964C91242BF0
:1033E00031832083DC01ED91FC91E059FF4F019086
:1033F000F081E02DDB0116964C916CE070E01995A0
:10340000F30182819381DC01ED91FC91E059FF4F42
:103410000190F081E02DD40117964C916DE070E0A1
:1034200000CFDB0116962C91FC01E35BFF4F2132AC
:1034300078F020E22083F30182819381DC01ED9119
:10344000FC91E059FF4F0190F081E02D40E20FC068
:103450002083F30182819381DC01ED91FC91E0599D
:10346000FF4F0190F081E02DDB0116964C916EE04C
:1034700070E019957401B7E0EB0EF11C00E010E06C
:10348000D30112968D919C911397FC01E35BFF4F42
:10349000208130E0021713070CF066C3D701800FBC
:1034A000911F9C01225B3F4FF70181917F01F90140
:1034B0008083F30182819381FC0120813181F901B4
:1034C000E059FF4FB801615F7F4F0190F081E02D1F
:1034D0004C9119950F5F1F4FD3CFFC01E35BFF4F5A
:1034E0008081FA018583369680E090E0D3011296C0
:1034F0004D915C911397DA01A35BBF4F2C9130E0A3
:10350000821793074CF4480F591FDA01A25BBF4F93
:103510002C9121930196EACF00E010E0BAC1D301CB
:103520001296ED91FC911397DB0116968C91E2595E
:10353000FF4F8083F30182819381DC01ED91FC9147
:10354000E059FF4F0190F081E02DDB0116964C9180
:1035500060E370E066CED3011296ED91FC91139773
:10356000E259FF4F8081FA01858300E010E021E0FD
:1035700030E08FC1DB0116962C91F301828193819B
:10358000FC01E159FF4F213488F020E42083D3016E
:1035900012968D919C911397DC01ED91FC91E0596D
:1035A000FF4F0190F081E02D40E40FC02083F30134
:1035B00082819381DC01ED91FC91E059FF4F0190F4
:1035C000F081E02DDB0116964C9161E370E01995D6
:1035D0007401B7E0EB0EF11C00E010E0D30112968D
:1035E0008D919C911397FC01E159FF4F208130E0B0
:1035F000021713070CF0B8C2D701800F911F9C016E
:1036000020593F4FF70181917F01F9018083F30138
:1036100082819381FC0120813181F901E059FF4FC2
:10362000B8016E5C7F4F0190F081E02D4C911995AF
:103630000F5F1F4FD3CFF30182819381FC01E055CF
:10364000FF4FDB0116962C91169717964C91179702
:1036500050E060E070E0BA0155274427722B1996BC
:103660002C911997422B18962C91522B4083518301
:1036700062837383DC01ED91FC91E059FF4F01906F
:10368000F081E02DD40116964C9162E770E0199517
:10369000F30182819381DC01ED91FC91E059FF4FB0
:1036A0000190F081E02DD40117964C9163E770E012
:1036B0001995F30182819381DC01ED91FC91E05930
:1036C000FF4F0190F081E02DD40118964C9164E7F2
:1036D00070E01995F30182819381DC01ED91FC91F9
:1036E000E059FF4F0190F081E02DD40119964C91E3
:1036F00065E770E096CDD3011296ED91FC9113979A
:1037000025813681E12CF12C0481A201B401C30191
:10371000BFD9A1C3F30182819381DB0116966C911D
:10372000DC01ED91FC91262F30E0295F3F4F280D01
:10373000391DA401495F5F4F0284F385E02DECC081
:10374000FB011181D30112968D919C911397DC019D
:10375000ED91FC919A012B5F3F4FAB014A5F5F4FA8
:1037600069EF610F0684F785E02D19957C01212F03
:1037700030E02850310953E0359527955A95E1F707
:103780002F5F30E08701A201B401C30152D963C3A6
:10379000F30182819381DC01ED91FC91DB011B96A9
:1037A000EC901B974E2D50E060E070E0142F002746
:1037B000FF24EE241E962C911E97E22A1D964C9112
:1037C0001D9750E0542F4427662757FD6095762FAC
:1037D000E42AF52A062B172B19962C91199730E01D
:1037E000322F2227442737FD4095542F1A966C918B
:1037F0001A97262B0288F389E02D16966C9119955D
:1038000019C3F30182819381DC01ED91FC91DB010D
:1038100017966C91179718962C911897022F10E015
:1038200020E030E0A80133272227562B1A966C910E
:103830001A97262B19966C911997362B0084F185CF
:10384000E02D16966C911995F5C2D3011296ED9163
:10385000FC911397818DFA0185831296ED91FC916D
:103860001397808DDA0116968C93D3011296ED9101
:10387000FC9113978789FA0187831296ED91FC9149
:1038800013978689D20118968C9300E010E024E00B
:1038900030E0A201B401C301CCD8DBC2D30112963F
:1038A000ED91FC9113978189FA01858312968D9190
:1038B0009C911397DC01ED91FC91DB0111966C91C9
:1038C00067500480F581E02D9A012A5F3F4FA401E3
:1038D0004A5F5F4F19957C01F401818190E0079761
:1038E000D3011296ED91FC9113972189289FA00195
:1038F000299F500D1124CA0123E0969587952A959A
:10390000E1F7282F47705527452B11F021E0280FAC
:1039100030E02F5F3F4F36CF19958CC2FB012185D8
:1039200030E0322F2227442737FD4095542F8285DF
:10393000282B19821A821B821C82D30112968D9128
:103940009C911397DC01ED91FC9106A4F7A5E02D65
:103950001BC0DB0119962C91199730E0322F2227DA
:10396000442737FD4095542F1A968C91282B1982A5
:103970001A821B821C82F30182819381DC01ED910A
:10398000FC9100A8F1A9E02D8E010F5F1F4FD4011B
:1039900016966C9119957C0189819A812B813C81C5
:1039A000F201358326839783808712C1D301129653
:1039B0008D919C911397DC01ED91FC9102A8F3A9E4
:1039C000E02DAE014F5F5F4FDB0116966C911995AC
:1039D0007C018981F2018583870121E030E0D3CE2B
:1039E0001982D30112968D919C911397DC01ED9170
:1039F000FC919A012B5F3F4F04A8F5A9E02D8E01A1
:103A00000F5F1F4FDB0117964C91179716966C911D
:103A100019957C012981B5CEF30182819381DC0166
:103A2000ED91FC919B01295F3F4FDB0111964C9179
:103A30001197485006A8F7A9E02D16966C91199594
:103A4000F9C1F30182819381DC01ED91FC91E85A87
:103A5000FF4F0190F081E02D61C0FB01218530E036
:103A6000322F2227442737FD4095542F8285282B5B
:103A700019821A821B821C82D30112968D919C910D
:103A80001397DC01ED91FC9106A0F7A1E02D7CCF0E
:103A9000D30112968D919C911397DC01ED91FC91CD
:103AA0007B01B9E0EB0EF11CDB0111960C91119733
:103AB0000A5000A4F1A5E02D18962C91189717969E
:103AC0004C91179716966C911995B4C1F3018281A8
:103AD0009381DC01ED91FC916A01B5E0CB0ED11C24
:103AE000DB011996EC901997F12CFE2CEE241A9616
:103AF0002C911A97E22A02A4F3A5E02D18960C91B6
:103B000018971B962C911B9717964C911797169602
:103B10006C9119957C01F401208533CED401169661
:103B20006C91199587C1F30182819381DC01ED913C
:103B3000FC91028CF38DE02DDB0116966C911995AA
:103B40007C0120E030E078C1F30182819381DC01C7
:103B5000ED91FC91048CF58DE02DDB0117964C91D5
:103B6000179716966C91199520E030E06DC1FB0116
:103B700087812085422F50E060E070E033272227C4
:103B8000582B8285282B8185382B19821A821B821B
:103B90001C82D30112968D919C911397DC01ED91BB
:103BA000FC9100A0F1A1E02D8E010F5F1F4FD40109
:103BB00016966C9119957C0189819A812B813C81A3
:103BC000F201358326839783808700E010E001C0EF
:103BD000870124E030E0D7CDD3011296ED91FC911E
:103BE0001397DB0117964C91008111815201B5E0CA
:103BF000AB0EB11C6B012AE0C20ED11CDB01119689
:103C00008C9190E00B97642F70E00E94B02A262FD1
:103C1000D80192960D90BC91A02DBE83AD83D401A6
:103C20001996EC90199718960C91189716966C9116
:103C3000CF01ED81FE8119957C01D40111962C9163
:103C400030E02B5031099ECDADB6BEB6DB011696E5
:103C5000EC91F0E0CF01880F991F2DB73EB7281BDC
:103C6000390B0FB6F8943EBF0FBE2DBF0DB71EB770
:103C70000F5F1F4FE60FF71F3896B80180E090E006
:103C8000D40116962C9130E0821793078CF49F0193
:103C900021503109D9012C9130E0322F2227408167
:103CA000242BDB012D933D93BD0101963296E8CF85
:103CB0006801E12CF12CF4016681262F30E0D3015C
:103CC00012968D919C911397E216F306ACF4F601CF
:103CD000419151916F01DC01ED91FC91EC56FF4F48
:103CE00060E070E00190F081E02D2AE030E019956D
:103CF000BFEFEB1AFB0ADFCFDC01ED91FC91E45A38
:103D0000FF4FA401495F5F4F0190F081E02D9801C2
:103D100019957C019C01A201B401C3010E943F15C9
:103D20000FB6F894BEBE0FBEADBE95C0F301828142
:103D30009381DC01ED91FC91E25AFF4FA4014A5FAF
:103D40005F4FD40111966C9167500190F081E02D86
:103D5000199570C0F30182819381DC01ED91FC9192
:103D6000E05AFF4FDB0116966C91169770E0762FA4
:103D7000662717962C911797622B0190F081E02D02
:103D800018964C91199556C0F30182819381DC01FC
:103D9000ED91FC91EE59FF4FDB0116966C91169751
:103DA00070E0762F662717962C911797622B01905B
:103DB000F081E02D1B96EC901B971A960C911A97A8
:103DC00019962C91199718964C91199533C0F301B7
:103DD00082819381DC01ED91FC91EC59FF4F9B01B5
:103DE000255F3F4FDB0118964C91189750E0542FF8
:103DF000442719966C911997462B16966C91169735
:103E000070E0762F662717961C911797612B01900B
:103E1000F081E02D1A960C9119950CC0F301828166
:103E20009381DC01ED91FC91EA59FF4F0190F08103
:103E3000E02D19957C019701A201B401C3010E94F4
:103E40003F1509C021E030E0A201B401C3010E9486
:103E50003F15E12CF12CC7010FB6F8943EBE0FBE02
:103E60002DBE26960FB6F894DEBF0FBECDBFDF91F4
:103E7000CF911F910F91FF90EF90DF90CF90BF9067
:103E8000AF909F908F907F906F905F904F903F90FA
:103E90002F9008951F920F920FB60F9211242F9317
:103EA0003F938F939F93AF93BF9380911608909108
:103EB0001708A0911808B09119083091150823E04F
:103EC000230F2D3720F40196A11DB11D05C026E852
:103ED000230F0296A11DB11D20931508809316088B
:103EE00090931708A0931808B093190880911A08A6
:103EF00090911B08A0911C08B0911D080196A11D6E
:103F0000B11D80931A0890931B08A0931C08B093CE
:103F10001D08BF91AF919F918F913F912F910F906D
:103F20000FBE0F901F9018952FB7F8946091160848
:103F30007091170880911808909119082FBF089563
:103F40003FB7F89480911A0890911B08A0911C0823
:103F5000B0911D0826B5A89B05C02F3F19F001960A
:103F6000A11DB11D3FBF6627782F892F9A2F620FA1
:103F7000711D811D911D42E0660F771F881F991FDB
:103F80004A95D1F70895CF92DF92EF92FF92CF93A7
:103F9000DF936B017C01D4DFEB01C114D104E10498
:103FA000F10481F00E94A32ACBDF6C1B7D0B683EDD
:103FB000734098F381E0C81AD108E108F108C851AC
:103FC000DC4FEBCFDF91CF91FF90EF90DF90CF9060
:103FD0000895789484B5826084BD84B5816084BD81
:103FE00085B5826085BD85B5816085BDEEE6F0E072
:103FF000808181608083E1E8F0E0108280818260CE
:104000008083808181608083E0E8F0E0808181604E
:104010008083E1EBF0E0808184608083E0EBF0E07E
:10402000808181608083E1E9F0E08081826080832B
:10403000808181608083E0E9F0E08081816080831D
:10404000E1EAF0E08081826080838081816080830A
:10405000E0EAF0E0808181608083E1E2F1E080814C
:1040600082608083808181608083E0E2F1E08081F2
:1040700081608083EAE7F0E08081846080838081D2
:10408000826080838081816080838081806880837A
:104090001092C100089580936C020895863308F051
:1040A000865320917B00982F9870277F922B9093B6
:1040B0007B00877020916C0290E4299F900111246D
:1040C000822B80937C0080917A00806480937A00B8
:1040D00080917A0086FDFCCF809178002091790054
:1040E00090E0922B08951F93CF93DF93182FEB014D
:1040F00061E011D1209711F460E004C0CF3FD105F9
:1041000031F461E0812FDF91CF911F913DC1E12F0B
:10411000F0E0E45DFE4F449150E0FA013197E23166
:10412000F10508F09BC0EE58FF4F0C94012B84B5AD
:10413000806884BDC7BD97C084B5806284BDC8BD9A
:1041400092C080918000806880938000D093890025
:10415000C093880088C08091800080628093800036
:10416000D0938B00C0938A007EC0809180008860CD
:1041700080938000D0938D00C0938C0074C0809198
:10418000B00080688093B000C093B3006CC0809191
:10419000B00080628093B000C093B40064C080918E
:1041A0009000806880939000D0939900C09398000D
:1041B0005AC080919000806280939000D0939B00C1
:1041C000C0939A0050C080919000886080939000C6
:1041D000D0939D00C0939C0046C08091A000806851
:1041E0008093A0008091A0008F7B8093A000D0934B
:1041F000A900C093A80037C08091A000806280937E
:10420000A000D093AB00C093AA002DC08091A00065
:1042100088608093A000D093AD00C093AC0023C011
:1042200080912001806880932001D0932901C09360
:10423000280119C080912001806280932001D093D1
:104240002B01C0932A010FC08091200188608093C8
:104250002001D0932D01C0932C0105C0C038D10599
:104260000CF04FCF49CFDF91CF911F91089590E08F
:10427000FC013197E231F10508F04CC0EC57FF4FDB
:104280000C94012B809180008F7703C08091800077
:104290008F7D80938000089580918000877FF9CF83
:1042A00084B58F7702C084B58F7D84BD08958091D9
:1042B000B0008F7703C08091B0008F7D8093B000F5
:1042C0000895809190008F7707C0809190008F7D36
:1042D00003C080919000877F809390000895809123
:1042E000A0008F7707C08091A0008F7D03C08091D0
:1042F000A000877F8093A0000895809120018F7790
:1043000007C0809120018F7D03C080912001877FAD
:10431000809320010895CF93DF9390E0FC01EE5845
:10432000FE4F2491FC01E854FE4F8491882349F10B
:1043300090E0880F991FFC01EE5CFD4FA591B491B0
:10434000885E9D4FFC01C591D4919FB7611108C053
:10435000F8948C91209582238C93888182230AC0C3
:10436000623051F4F8948C91322F309583238C93E2
:104370008881822B888304C0F8948C91822B8C9343
:104380009FBFDF91CF9108950F931F93CF93DF933A
:104390001F92CDB7DEB7282F30E0F901E45DFE4F64
:1043A0008491F901EE58FE4F1491F901E854FE4F43
:1043B00004910023C1F0882319F0698358DF6981D3
:1043C000E02FF0E0EE0FFF1FE85EFD4FA591B491E6
:1043D0009FB7F8948C91611103C01095812301C09F
:1043E000812B8C939FBF0F90DF91CF911F910F91E5
:1043F0000895CF93DF93282F30E0F901E45DFE4F5D
:104400008491F901EE58FE4FD491F901E854FE4F22
:10441000C491CC2389F081112ADFEC2FF0E0EE0F5C
:10442000FF1FE250FE4FA591B4912C912D2381E006
:1044300090E021F480E002C080E090E0DF91CF9135
:1044400008950F931F93762F90E0FC01EE58FE4FD6
:104450006491FC01E854FE4FE4917111762FF0E075
:10446000EE0FFF1FE250FE4F8591949189019A0152
:104470003F70472F0E945F0161157105810591050D
:1044800031F06F5F7F4F8F4F9F4F9F7003C060E091
:1044900070E0CB011F910F910895FC01818D228D59
:1044A00090E0805C9F4F821B91098F73992708953C
:1044B000FC01918D828D981731F0828DE80FF11DEE
:1044C000858D90E008958FEF9FEF0895FC01918D09
:1044D000828D981761F0828DDF01A80FB11D5D9666
:1044E0008C91928D9F5F9F73928F90E008958FEFD4
:1044F0009FEF08958AE394E2892B39F080E090E001
:10450000892B19F0B7D1811122C085EE94E2892B55
:1045100039F080E090E0892B19F057D281111AC050
:1045200080E995E2892B39F080E090E0892B19F041
:10453000F7D2811112C08BE396E2892B99F080E0CB
:1045400090E0892B79F097D381110AC008950E94D9
:104550000000DBCF0E940000E3CF0E940000EBCF01
:104560000C9400000895FC01848DDF01A80FB11D9B
:10457000A35ABF4F2C91848D90E001968F73992799
:10458000848FA689B7892C93A089B1898C91806486
:104590008C93938D848D981306C00288F389E02D47
:1045A00080818F7D80830895CF93DF93EC01888D88
:1045B0008823C1F0EA89FB89808185FD05C0A8892F
:1045C000B9898C9186FD0EC00FB607FCF5CF8081AE
:1045D00085FFF2CFA889B9898C9185FFEDCFCE01F7
:1045E000C2DFE8CFDF91CF910895CF92DF92FF92A3
:1045F0000F931F93CF93DF931F92CDB7DEB76C015C
:1046000081E0D60158968C9358975B969C915B9766
:104610005C968C915C97981307C05096ED91FC9135
:104620005197808185FD2DC0F601038D10E00F5F4D
:104630001F4F0F731127F02EF601848DF81210C052
:104640000FB607FCF9CFD6015096ED91FC9151972A
:10465000808185FFF1CFC601698385DF6981ECCF59
:10466000838DE80FF11DE35AFF4F6083D6015B96FF
:104670000C935B975296ED91FC91539780818062E9
:104680000CC0D6015696ED91FC91579760835096D9
:10469000ED91FC91519780818064808381E090E06E
:1046A0000F90DF91CF911F910F91FF90DF90CF90EE
:1046B0000895BF92CF92DF92EF92FF92CF93DF9354
:1046C000EC016A017B01B22EE889F98982E08083DE
:1046D000411581EE58076105710599F060E079E0B8
:1046E0008DE390E0A70196014ED721503109410991
:1046F00051095695479537952795211580E138073B
:1047000090F0E889F989108260E874E88EE190E021
:10471000A701960138D72150310941095109569511
:10472000479537952795EC85FD853083EE85FF8588
:104730002083188EEC89FD89B082EA89FB8980810B
:1047400080618083EA89FB89808188608083EA892F
:10475000FB89808180688083EA89FB8980818F7DE5
:104760008083DF91CF91FF90EF90DF90CF90BF904B
:104770000895CF93DF93EC01E881F9810284F385FA
:10478000E02D1995EA89FB8980818F7E8083EA89F3
:10479000FB898081877F8083EA89FB8980818F778D
:1047A0008083EA89FB8980818F7D80838A8D898FD0
:1047B000DF91CF9108951F920F920FB60F9211249F
:1047C0000BB60F922F938F939F93EF93FF93E091EC
:1047D0002E08F0912F088081E0913408F09135087F
:1047E00082FD12C09081809137088F5F8F73209176
:1047F0003808821751F0E0913708F0E0E25EF74F99
:10480000958F8093370801C08081FF91EF919F9130
:104810008F912F910F900BBE0F900FBE0F901F9096
:1048200018951F920F920FB60F9211240BB60F928C
:104830002F933F934F935F936F937F938F939F93A8
:10484000AF93BF93EF93FF938EE198E08CDEFF91DF
:10485000EF91BF91AF919F918F917F916F915F91F8
:104860004F913F912F910F900BBE0F900FBE0F9065
:104870001F9018958EE198E010DE21E0892B09F455
:1048800020E0822F0895109221081092200888EECF
:1048900093E0A0E0B0E08093220890932308A093D7
:1048A0002408B093250882E196E090931F08809336
:1048B0001E0885EC90E090932B0880932A0884ECE6
:1048C00090E090932D0880932C0880EC90E09093DA
:1048D0002F0880932E0881EC90E09093310880930C
:1048E000300882EC90E0909333088093320886EC95
:1048F00090E0909335088093340810923708109216
:1049000038081092390810923A0808951F920F92B1
:104910000FB60F9211240BB60F922F938F939F9384
:10492000EF93FF93E091CB08F091CC088081E09168
:10493000D108F091D20882FD12C090818091D408F4
:104940008F5F8F732091D508821751F0E091D408C2
:10495000F0E0E554F74F958F8093D40801C0808133
:10496000FF91EF919F918F912F910F900BBE0F9020
:104970000FBE0F901F9018951F920F920FB60F92B7
:1049800011240BB60F922F933F934F935F936F9326
:104990007F938F939F93AF93BF93EF93FF938BEB93
:1049A00098E0E1DDFF91EF91BF91AF919F918F91E1
:1049B0007F916F915F914F913F912F910F900BBE1F
:1049C0000F900FBE0F901F9018958BEB98E065DD50
:1049D00021E0892B09F420E0822F08951092BE086F
:1049E0001092BD0888EE93E0A0E0B0E08093BF088D
:1049F0009093C008A093C108B093C20882E196E0EA
:104A00009093BC088093BB088DEC90E09093C8080D
:104A10008093C7088CEC90E09093CA088093C908F3
:104A200088EC90E09093CC088093CB0889EC90E0E0
:104A30009093CE088093CD088AEC90E09093D008B4
:104A40008093CF088EEC90E09093D2088093D108A9
:104A50001092D4081092D5081092D6081092D70858
:104A600008951F920F920FB60F9211240BB60F925A
:104A70002F938F939F93EF93FF93E0916809F091A9
:104A800069098081E0916E09F0916F0982FD12C081
:104A90009081809171098F5F8F73209172098217C5
:104AA00051F0E0917109F0E0E85AF64F958F80934C
:104AB000710901C08081FF91EF919F918F912F919A
:104AC0000F900BBE0F900FBE0F901F9018951F9266
:104AD0000F920FB60F9211240BB60F922F933F93A4
:104AE0004F935F936F937F938F939F93AF93BF93F6
:104AF000EF93FF9388E599E036DDFF91EF91BF9149
:104B0000AF919F918F917F916F915F914F913F9165
:104B10002F910F900BBE0F900FBE0F901F90189506
:104B200088E599E0BADC21E0892B09F420E0822FA6
:104B3000089510925B0910925A0988EE93E0A0E064
:104B4000B0E080935C0990935D09A0935E09B093F7
:104B50005F0982E196E0909359098093580985EDA9
:104B600090E0909365098093640984ED90E09093C0
:104B700067098093660980ED90E0909369098093BE
:104B8000680981ED90E090936B0980936A0982ED4A
:104B900090E090936D0980936C0986ED90E090937E
:104BA0006F0980936E091092710910927209109228
:104BB00073091092740908951F920F920FB60F9205
:104BC00011240BB60F922F938F939F93EF93FF9324
:104BD000E091050AF091060A8081E0910B0AF091BC
:104BE0000C0A82FD12C0908180910E0A8F5F8F7334
:104BF00020910F0A821751F0E0910E0AF0E0EB507D
:104C0000F64F958F80930E0A01C08081FF91EF913E
:104C10009F918F912F910F900BBE0F900FBE0F9011
:104C20001F9018951F920F920FB60F9211240BB67A
:104C30000F922F933F934F935F936F937F938F9335
:104C40009F93AF93BF93EF93FF9385EF99E08BDC36
:104C5000FF91EF91BF91AF919F918F917F916F9154
:104C60005F914F913F912F910F900BBE0F900FBE10
:104C70000F901F90189585EF99E00FDC21E0892BAC
:104C800009F420E0822F08951092F8091092F70994
:104C900088EE93E0A0E0B0E08093F9099093FA09E0
:104CA000A093FB09B093FC0982E196E09093F6098A
:104CB0008093F50985E391E09093020A8093010ABD
:104CC00084E391E09093040A8093030A80E391E0E7
:104CD0009093060A8093050A81E391E09093080A75
:104CE0008093070A82E391E090930A0A8093090A6D
:104CF00086E391E090930C0A80930B0A10920E0ABF
:104D000010920F0A1092100A1092110A0895CF9271
:104D1000DF92EF92FF920F931F93CF93DF937C016B
:104D20006A01EB0100E010E00C151D0571F06991BE
:104D3000D701ED91FC910190F081E02DC70119950B
:104D4000892B19F00F5F1F4FEFCFC801DF91CF9173
:104D50001F910F91FF90EF90DF90CF9008950F93E8
:104D60001F93CF93DF93EC01DFD8688779878A8719
:104D70009B87E881F9810680F781E02DCE011995A6
:104D800097FF14C0D1D8088519852A853B85601BFB
:104D9000710B820B930B0C811D812E813F8160175B
:104DA00071078207930728F38FEF9FEFDF91CF9171
:104DB0001F910F910895CF92DF92EF92FF920F9380
:104DC0001F93CF93DF937C016A01EB0100E010E0B9
:104DD0000C151D0541F0C701C2DF97FD04C0899382
:104DE0000F5F1F4FF5CFC801DF91CF911F910F913A
:104DF000FF90EF90DF90CF9008953F924F925F9297
:104E00006F927F928F929F92AF92BF92CF92DF92DA
:104E1000EF92FF920F931F93CF93DF9300D01F92D7
:104E2000CDB7DEB78B0129013A0190916D02981739
:104E300021F09F3F09F0B2C204C0ECE4F2E03490EC
:104E400004C180936D02ECE4F2E0E491EF3F09F4D9
:104E5000A5C2E23009F480C074F5EE2309F45BC00A
:104E6000E13009F0F1C01092800010928100909121
:104E7000810098609093810090918100916090935F
:104E80008100282F30E0F901E854FE4FE491F0E072
:104E9000EE0FFF1FE85EFD4F459154915093B00A0D
:104EA0004093AF0AF901EE58FE4F24912093AE0AC9
:104EB00033243394CCC0E43009F49EC00CF474C0A5
:104EC000E53009F0C1C010922001109221019091AB
:104ED000210198609093210190912101916090931C
:104EE0002101282F30E0F901E854FE4FE491F0E071
:104EF000EE0FFF1FE85EFD4F459154915093940AC9
:104F00004093930AF901EE58FE4F24912093920AA0
:104F100055E0352E9CC014BC15BC94B5926094BD70
:104F200095B5916095BD282F30E0F901E854FE4F0A
:104F3000E491F0E0EE0FFF1FE85EFD4F45915491C4
:104F40005093B70A4093B60AF901EE58FE4F2491E8
:104F50002093B50A312C7BC01092B0001092B100A2
:104F60009091B00092609093B0009091B1009160E8
:104F70009093B100282F30E0F901E854FE4FE491FE
:104F8000F0E0EE0FFF1FE85EFD4F45915491509306
:104F9000A90A4093A80AF901EE58FE4F24912093E4
:104FA000A70A22E0322E53C0109290001092910076
:104FB00090919100986090939100909191009160F0
:104FC00090939100282F30E0F901E854FE4FE491CE
:104FD000F0E0EE0FFF1FE85EFD4F459154915093B6
:104FE000A20A4093A10AF901EE58FE4F24912093A2
:104FF000A00AB3E03B2E2BC01092A0001092A1009B
:105000009091A10098609093A1009091A10091606F
:105010009093A100282F30E0F901E854FE4FE4916D
:10502000F0E0EE0FFF1FE85EFD4F45915491509365
:105030009B0A40939A0AF901EE58FE4F249120935F
:10504000990A74E0372E03C03E2E37FCA7C161E0F9
:1050500062D94801A12CB12C832D8D7F09F0C1C0EC
:1050600060E072E18AE790E0A5019401AED2298365
:105070003A834B835C8369017A0181E0C81AD108C5
:10508000E108F1089FEFC916D104E104F10409F029
:1050900008F495C060E472E48FE090E0A50194010B
:1050A00094D269017A01E1E0CE1AD108E108F10851
:1050B000F2E03F1218C08FEFC816D104E104F104EA
:1050C00009F008F486C060E970ED83E090E0A50186
:1050D00094017BD269017A0191E0C91AD108E108F3
:1050E000F10883E001C082E0EFEFCE16D104E104C5
:1050F000F10409F008F464C068E478EE81E090E01F
:10510000A501940162D269017A01F1E0CF1AD108B8
:10511000E108F1083320D9F082E038121AC09FEF7D
:10512000C916D104E104F10409F008F435C164E2C0
:1051300074EF80E090E0A501940147D269017A0103
:10514000E1E0CE1AD108E108F10885E003C083E070
:1051500001C084E0FFEFCF16D104E104F10481F136
:1051600078F162E17AE780E090E0A50194012DD228
:1051700069017A0181E0C81AD108E108F10831100B
:1051800002C084E001C086E09FEFC916D104E104AB
:10519000F104B1F0A8F0C980DA80EB80FC809AE0DD
:1051A000F594E794D794C7949A95D1F7E1E0CE1A95
:1051B000D108E108F108332031F087E00BC081E02D
:1051C000332011F007C085E095B5987F982B95BDE9
:1051D00054C082E09091B100987F982B9093B100D9
:1051E0004CC060E072E18AE790E0A5019401EDD146
:1051F00069017A01F1E0CF1AD108E108F108C11480
:10520000D10481E0E806F10480F068E478EE81E002
:1052100090E0A5019401D9D169017A0191E0C91A00
:10522000D108E108F10893E001C091E0E1E03E120D
:1052300007C080918100887F892B809381001DC0E9
:10524000F3E03F1207C080919100887F892B809303
:10525000910013C084E0381207C08091A100887FBC
:10526000892B8093A10009C0E5E03E1206C0809121
:105270002101887F892B809321014114510461040D
:10528000710461F0D801AA0FBB1FA3019201BFD125
:1052900028EE33E040E050E076D103C02FEF3FEF3F
:1052A000A901F2E03F1609F443C0F315BCF0332026
:1052B00081F181E0381272C0D0928900C0928800DA
:1052C0002093B10A3093B20A4093B30A5093B40AC0
:1052D00080916F00826080936F0060C094E0391607
:1052E00009F448C03916A4F1E5E03E1257C0D09247
:1052F0002901C09228012093950A3093960A409381
:10530000970A5093980A809173008260809373008B
:1053100045C0C7BC2093B80A3093B90A4093BA0A73
:105320005093BB0A80916E00826080936E0036C0FD
:10533000C092B3002093AA0A3093AB0A4093AC0A00
:105340005093AD0A8091700082608093700026C0F7
:10535000D0929900C09298002093A30A3093A40A97
:105360004093A50A5093A60A8091710082608093B1
:10537000710014C0D092A900C092A80020939C0A8A
:1053800030939D0A40939E0A50939F0A8091720029
:1053900082608093720002C084E01CCF0F900F9057
:1053A0000F900F90DF91CF911F910F91FF90EF9091
:1053B000DF90CF90BF90AF909F908F907F906F9035
:1053C0005F904F903F9008958230A9F028F4882391
:1053D00049F0813051F00895843021F1E8F08530B2
:1053E00039F1089510926E00089580916F008D7FBD
:1053F00080936F000895809170008D7F809370007E
:1054000081E08093B0008091B100887F84608093B8
:10541000B1001092B3000895809171008D7F809348
:1054200071000895809172008D7F809372000895BD
:10543000809173008D7F809373000895CF93C82F60
:1054400080916D028C1307C0ECE4F2E084919FEF31
:1054500090936D0201C08FEFB7DF60E08C2FCF918A
:105460000C94C4211F920F920FB60F9211240BB609
:105470000F922F933F934F935F936F937F938F93ED
:105480009F93AF93BF93EF93FF938091AA0A90915C
:10549000AB0AA091AC0AB091AD0A892B8A2B8B2B59
:1054A00051F19091A70AE091A80AF091A90A808190
:1054B000892780838091AA0A9091AB0AA091AC0AB7
:1054C000B091AD0A181619061A061B06BCF4809195
:1054D000AA0A9091AB0AA091AC0AB091AD0A0197CB
:1054E000A109B1098093AA0A9093AB0AA093AC0AD0
:1054F000B093AD0A03C080916D02A0DFFF91EF91E0
:10550000BF91AF919F918F917F916F915F914F91DB
:105510003F912F910F900BBE0F900FBE0F901F90D9
:105520001895CDD108950E94E91FFCDF0E94A401C7
:10553000CAE7D2E20E94B8012097E1F30E947A22E2
:10554000F9CF96C02DC10895991B79E004C0991F29
:10555000961708F0961B881F7A95C9F780950895CD
:1055600097FB072E16F4009406D077FD08D05DD087
:1055700007FC05D03EF4909581959F4F0895709556
:1055800061957F4F0895A1E21A2EAA1BBB1BFD0156
:105590000DC0AA1FBB1FEE1FFF1FA217B307E40712
:1055A000F50720F0A21BB30BE40BF50B661F771F6A
:1055B000881F991F1A9469F760957095809590954A
:1055C0009B01AC01BD01CF010895052E97FB16F498
:1055D00000940FD057FD05D0D6DF07FC02D046F46B
:1055E00008C050954095309521953F4F4F4F5F4FE4
:1055F000089590958095709561957F4F8F4F9F4F3F
:105600000895EE0FFF1F0590F491E02D199421D01D
:10561000A59F900DB49F900DA49F800D911D112406
:1056200008950790F691E02D1994AA1BBB1B51E138
:1056300007C0AA1FBB1FA617B70710F0A61BB70B02
:10564000881F991F5A95A9F780959095BC01CD01A7
:105650000895A29FB001B39FC001A39F700D811D4B
:105660001124911DB29F700D811D1124911D08956B
:10567000CF93DF938230910510F482E090E0E091C7
:10568000BE0AF091BF0A20E030E0A0E0B0E0309721
:1056900039F14081518148175907B8F04817590727
:1056A00071F482819381109729F013969C938E93C5
:1056B00012972CC09093BF0A8093BE0A27C0211571
:1056C000310531F04217530718F0A901DB0101C081
:1056D000EF019A01BD01DF010280F381E02DD7CFF8
:1056E00021153105F9F0281B390B2430310580F4E0
:1056F0008A819B816115710521F0FB01938382836F
:1057000004C09093BF0A8093BE0AFE01329644C043
:10571000FE01E20FF31F81939193225031093983E7
:1057200028833AC02091BC0A3091BD0A232B41F452
:1057300020910202309103023093BD0A2093BC0AEB
:1057400020910002309101022115310541F42DB75D
:105750003EB74091040250910502241B350BE091A5
:10576000BC0AF091BD0AE217F307A0F42E1B3F0B11
:105770002817390778F0AC014E5F5F4F24173507C3
:1057800048F04E0F5F1F5093BD0A4093BC0A8193AF
:10579000919302C0E0E0F0E0CF01DF91CF91089556
:1057A000CF93DF93009709F487C0FC0132971382EF
:1057B0001282C091BE0AD091BF0A209781F4208145
:1057C0003181280F391F8091BC0A9091BD0A821740
:1057D000930779F5F093BD0AE093BC0A6DC0DE0132
:1057E00020E030E0AE17BF0750F412964D915C9167
:1057F00013979D014115510509F1DA01F3CFB383E8
:10580000A28340815181840F951F8A179B0771F4F1
:105810008D919C911197840F951F0296918380839F
:1058200012968D919C911397938382832115310554
:1058300029F4F093BF0AE093BE0A3EC0D901139643
:10584000FC93EE9312974D915D91A40FB51FEA174B
:10585000FB0779F480819181840F951F0296D9010D
:1058600011969C938E938281938113969C938E9331
:105870001297E0E0F0E08A819B81009719F0FE0129
:10588000EC01F9CFCE01029628813981820F931F56
:105890002091BC0A3091BD0A2817390769F4309766
:1058A00029F41092BF0A1092BE0A02C0138212821B
:1058B000D093BD0AC093BC0ADF91CF91089581E0D7
:1058C00090E0F89416C0F999FECF92BD81BDF89A88
:1058D000992780B50895262FF999FECF1FBA92BD5A
:1058E00081BD20BD0FB6F894FA9AF99A0FBE0196C1
:0658F0000895F894FFCFBB
:1058F6000000C00A8000010000002C0100005802D0
:105906000000B004000060090000C01200008025FD
:10591600000040380000004B000080700000127A42
:1059260000000096000000E1000000C20100000136
:105936000203040000000500010006000200030047
:1059460000127A0000093D0080841E0040420F00CC
:1059560020A1070090D0030048E8010001FF0000E5
:10596600000049021D02F201FA010D021C020000AC
:105976000000AC07C107630BB5084A0FCA0BB8088D
:10598600660CBB08DD0FB70C450DBE08750D0F0B79
:10599600E3100311090C7A0D190BBA11EC111C0B4B
:1059A6002B101F0B49128E0D110FF208D608C108D5
:1059B600F908070913094609430A53096B098309BC
:1059C6009B09B309CB09E509FF09BF0DD70D4E0E9B
:1059D600D60E1D0A200A230A260A290A560B580B38
:1059E600520B241028107F082C0A2D0A2E0A2F0A83
:1059F600300A310A320A330A340A350A360A370AB5
:105A0600380A390A3A0A3B0AB408660A0000000056
:105A1600B207CA07630BB5084A0FCA0BB808660C6B
:105A2600BB08DD0FB70C450DBE08750D0F0BE31057
:105A36000311090C7A0D190BBA11EC111C0B2B1062
:105A46001F0B49128E0D110FF208D608C108F9086E
:105A5600070913094609430A53096B0983099B0978
:105A6600B309CB09E509FF09BF0DD70D4E0ED60EBA
:105A76001D0A200A230A260A290A560B580B520B1E
:105A8600241028107F082C0A2D0A2E0A2F0A300A05
:105A9600310A320A330A340A350A360A370A380A0C
:105AA600390A3A0A3B0AB408660A000203040506E4
:105AB6000708090A0B0C0D2C2D2E00010203040504
:105AC600060708090A0B0C0D0E0F101112131415F8
:105AD600161718191A1B1C1D1E1F202122232425E8
