:1000000005C1000030C100002EC100002CC100005D
:100010002AC1000028C1000026C1000024C1000040
:1000200022C1000020C100001EC100001CC1000050
:100030001AC100000C94DA2816C1000014C1000097
:1000400012C100001FC700000EC100000CC100005B
:100050000AC1000008C1000006C100000C94241F62
:1000600002C100000C94FB220C943F24FCC0000051
:10007000FAC00000F8C00000F6C00000F4C00000A4
:10008000D4C60000F0C00000EEC00000ECC00000CC
:100090000C943B230C947E24E6C00000A6C2000012
:1000A000E2C00000E0C0000093C60000DCC0000019
:1000B000DAC00000D8C00000D6C000005CC6000056
:1000C000D2C00000D0C00000CEC000000C947B2342
:1000D0000C94BD24C8C000000C94BB230C94FC24D9
:1000E000C2C0000000002100240027002A002D00CB
:1000F0003000330001010000040107010A01000083
:100100002200250028002B002E00310034000201BF
:100110000000050108010B0100002000230026005B
:1001200029002C002F00320000010000030106010D
:10013000090105050505070508080808020202026D
:100140000A0A080804040404010101010101010173
:100150000303030303030303040707070C0C0C0C3E
:100160000C0C0C0C02020202060606060606060627
:100170000B0B0B0B0B0B0B0B0102102020080810B4
:100180002040102040800201020108040201010207
:1001900004081020408080402010080402018004E0
:1001A000020180402010080402010804020101023B
:1001B0000408102040800102040810204080000044
:1001C000090A02080B0C0D070603040100000000D9
:1001D000000000000000000000000000000000001F
:1001E0000000000000000000000011100F000000DF
:1001F00000000000000000000000000000000000FF
:100200000000000002009F018C13D22611241FBEA3
:10021000CFEFD1E2DEBFCDBF00E00CBF15E0A0E024
:10022000B2E0E8EEFBE500E00BBF02C007900D92E4
:10023000A438B107D9F71BBE1BE0A4E8B5E001C0A4
:100240001D92A535B107E1F712E0CCE0D2E004C081
:100250002297FE010E94EE2DC630D107C9F70E94F9
:1002600008280C94F22DCCCE8AE497E00C94DB1194
:100270000F931F9383EC90E00E941728182F092FEB
:100280002ED610938405009385058AE497E0612FAC
:10029000702F40E00E949E111F910F91089585E3F9
:1002A00061E00E94FD2185E361E00E944A218CB556
:1002B00080618CBD8CB580648CBD84E361E00E945C
:1002C0004A2183E361E00C944A2181E08093CB05CD
:1002D0006093A8051092C9051092CA05089520914F
:1002E000A70530E08091A605281B3109C9010895B2
:1002F0004091A6058091A705481718F02FEF3FEF12
:100300000AC0E42FF0E0EA57FA4F8081282F30E04E
:100310004F5F4093A605C9010895E091A60580911D
:10032000A705E81718F0EFEFFFEF06C0F0E0EA5777
:10033000FA4F8081E82FF0E0CF01089508951092E0
:10034000CF051092CE0588EE93E0A0E0B0E0809358
:10035000D0059093D105A093D205B093D30589EA37
:1003600092E09093CD058093CC050895CF92DF92D3
:10037000EF92FF920F931F93CF93DF937C016B015A
:100380008A018091CB058823A1F0C0E0D0E00DC0A8
:10039000D701ED91FC91D601AC0FBD1F0190F0810A
:1003A000E02DC7016C9119952196C017D10780F3F4
:1003B00003C0CB01642FFED0C801DF91CF911F9104
:1003C0000F91FF90EF90DF90CF900895DF93CF9340
:1003D0000F92CDB7DEB7FC0169838091CB058823EE
:1003E000C9F08091CA05803238F081E090E09383B3
:1003F000828320E030E014C08091C905E82FF0E04E
:10040000E755FA4F998190838F5F8093C905809358
:10041000CA0504C0CE01019661E0CCD021E030E0F5
:10042000C9010F90CF91DF9108950F93062F80910E
:10043000A80569EA75E04091CA0521E066D01092EE
:10044000C9051092CA051092CB050F91089541324B
:1004500008F040E2862F66E875E00ED01092A605FF
:100460008093A70508951092A6051092A7051092F3
:10047000C9051092CA054EC2382F413210F040E033
:1004800042C08091D8058823E1F791E09093D80588
:100490002093DA058FEF80934506109200064150B5
:1004A000409301064F5F9093D9058091D905330F92
:1004B000832B8093D9058091DB05813041F4109224
:1004C000DB058091D9058093BB0085EC01C085EEEA
:1004D0008093BC008091D8058130E1F380910006C3
:1004E000841710F44091000620E030E00AC0FB01C0
:1004F000E20FF31FD901A052BA4F8C9180832F5F76
:100500003F4F2417A0F3842F08950F931F93582F64
:10051000122F413210F081E04AC08091D805882323
:10052000E1F782E08093D8050093DA058FEF80939E
:1005300045061092000640930106A0EEB5E0FB01CF
:1005400002C081918D938E2F861B8417D0F3109259
:10055000D9058091D905550F852B8093D9058091B8
:10056000DB05813041F41092DB058091D905809341
:10057000BB0085EC01C085EE8093BC00112321F007
:100580008091D8058230E1F3809145068F3F11F4C8
:1005900080E00DC080914506803211F482E007C0F2
:1005A00080914506803311F084E001C083E01F9103
:1005B0000F910895482F613210F081E008958091E5
:1005C000D805843011F082E0089560932306A2E0FC
:1005D000B6E0842F9C01F90102C081918D938E2F8A
:1005E000841B8617D0F380E008951F920F920FB6F8
:1005F0000F920BB60F9211242F933F934F935F935B
:100600006F937F938F939F93AF93BF93EF93FF93DA
:100610008091B90090E0887F90708036910509F450
:10062000F2C081369105CCF58832910509F47BC082
:1006300089329105B4F48031910509F46FC081319C
:1006400091053CF4009709F447C1089709F04FC1A0
:1006500065C08831910509F466C0809709F047C1EB
:1006600082C08034910509F4A4C08134910544F41A
:100670008033910509F482C0C89709F038C189C058
:100680008035910509F489C08835910509F496C033
:100690008834910509F02BC1AEC08839910509F461
:1006A00013C189399105ECF48837910509F4ABC081
:1006B000893791054CF48836910509F4A4C0803738
:1006C000910509F014C19FC08838910509F4FCC058
:1006D0008039910509F49DC08038910509F007C162
:1006E00098C0803B910509F4C6C0813B91054CF44C
:1006F000803A910509F49FC0883A910509F0F7C046
:10070000BAC0803C910509F4E3C0883C910509F426
:10071000DFC0883B910509F0EAC0C2C08091D905CD
:100720008093BB00CFC0909100068091010698177E
:1007300068F490910006E92FF0E0E052FA4F8081D2
:100740008093BB009F5F90930006BCC08091DA0548
:10075000882309F44BC085ED8093BC008091BC00D8
:1007600084FDFCCFC2C080E28093450685ED809376
:10077000BC008091BC0084FDFCCFB7C080E38093B7
:10078000450685ED8093BC008091BC0084FDFCCFC4
:10079000ACC088E3809345069BC080910006909191
:1007A000BB00E82FF0E0E052FA4F90838F5F809318
:1007B0000006909100068091010682C0809100069B
:1007C0009091BB00E82FF0E0E052FA4F90838F5FEA
:1007D000809300068091DA05882341F085ED8093AF
:1007E000BC008091BC0084FDFCCF7FC081E0809381
:1007F000DB0584EA6EC085ED8093BC008091BC006F
:1008000084FDFCCF72C083E08093D805109244062B
:1008100059C080914406803208F056C08091440649
:100820009091BB00E82FF0E0EC5DF94F90838F5F73
:100830008093440647C080914406803230F4E091B2
:100840004406F0E0EC5DF94F108285ED8093BC002A
:100850008091BC0084FDFCCF1092D80560914406C5
:10086000E091DE05F091DF0584E296E070E01995F5
:10087000109244062DC084E08093D8051092220681
:1008800010922306E091DC05F091DD051995809129
:100890002306882329F481E0809323061092020620
:1008A00090912206E92FF0E0EE5FF94F808180936E
:1008B000BB009F5F909322069091220680912306B1
:1008C000981710F485EC01C085E88093BC000FC038
:1008D00085EC8093BC0009C01092450685ED80939D
:1008E000BC008091BC0084FDFCCF1092D805FF9124
:1008F000EF91BF91AF919F918F917F916F915F9198
:100900004F913F912F910F900BBE0F900FBE0F9004
:100910001F9018951092D80581E08093DA05109207
:10092000DB0584E161E00E94FD2185E161E00E9438
:10093000FD21E9EBF0E080818E7F808380818D7FD7
:10094000808388E48093B80085E48093BC00089598
:10095000F999FECF72BD61BDF89A80B50895F999F5
:10096000FECF1FBA72BD61BD40BD0FB6F894FA9AB2
:10097000F99A0FBE0895FC0180914706803390F4E8
:1009800082838F5F80934706815090E0FC01EE0FD9
:10099000FF1FE80FF91FE85BF94F88EB9BE092839C
:1009A000818308958FEF82830895DC0112968C91E4
:1009B000129790E0FC01EE0FFF1FE80FF91FE85BB4
:1009C000F94F80818F7B808312968C916CE00E941E
:1009D0007C2D90E0AC01440F551F480F591F440F68
:1009E000551F440F551F20E030E0C901840F951FAB
:1009F000FC01EE0FFF1FE80FF91FE85BF94F808144
:100A000086FD05C02F5F3F4F2C30310571F70895EB
:100A1000FC0122812033B8F58081992787FD9095CC
:100A200048E850E0481B590B440F551F440F551F11
:100A30006417750784F08181992787FD909548E5B3
:100A400052E0481B590B440F551F440F551F6417A4
:100A500075070CF4AB0142505040CA01AA2797FD1C
:100A6000A095BA2F880F991FAA1FBB1F4FB7F894E4
:100A700030E0F901EE0FFF1FE20FF31FE85BF94FC3
:100A8000928381834FBF0895CF92DF92EF92FF92BE
:100A90001F93CF93DF93EC01162F7A0169018A81AE
:100AA000803308F093C0862F61E00E944A218A813A
:100AB00090E0FC01EE0FFF1FE80FF91FE85BF94F14
:100AC0001F738081807C812B808380E292E08E196D
:100AD0009F0964E070E00E94882D688380E699E0B9
:100AE0008C199D0964E070E00E94882D6983AA81B9
:100AF0008A2F6CE00E947C2D682F70E0AB01440FC0
:100B0000551F460F571F440F551F440F551F20E018
:100B100030E0C901840F951FFC01EE0FFF1FE80FA5
:100B2000F91FE85BF94F808186FD44C02F5F3F4F7E
:100B30002C30310571F753C01092800082E0809311
:100B400081001092850010928400B19A80916F000C
:100B5000826080936F002EC06230710569F410923C
:100B6000900082E080939100109295001092940082
:100B700088BB809371001EC06330710569F41092C8
:100B8000A00082E08093A1001092A5001092A40022
:100B900089BB809372000EC0672B61F41092200114
:100BA00082E08093210110922501109224018ABBDA
:100BB000809373008A2F90E0FC01EE0FFF1FE80F77
:100BC000F91FE85BF94F8081806480838A81DF911F
:100BD000CF911F91FF90EF90DF90CF9008956130FB
:100BE000710509F0B9CFA8CF40E252E020E639E024
:100BF0004BCFEF92FF920F931F93CF93DF938B0115
:100C00007A01EC01DC01A852B94F8C9187FF04C036
:100C1000FB011182108237C0AE01440F551F4C0FEB
:100C20005D1F440F551F440F551F2C91332727FD7F
:100C30003095240F351F8091470690E0281739071B
:100C400014F58C91992787FD9095840F951FFC01D1
:100C5000EE0FFF1FE80FF91FE85BF94F808186FF59
:100C600012C08C91992787FD9095840F951FFC01E8
:100C7000EE0FFF1FE80FF91FE85BF94F80818F73BC
:100C800060E00E94FD21DE01A852B94F8C918F5F78
:100C90008C93AE01440F551F4C0F5D1F440F551F21
:100CA000440F551F2C91332727FD3095240F351FF6
:100CB0008091470690E0281739070CF04DC08C91C1
:100CC0008C300CF049C0F801208131818C9199273A
:100CD00087FD9095840F951FFC01EE0FFF1FE80F15
:100CE000F91FE85BF94F81819281280F391FF701C5
:100CF000318320838C91992787FD9095840F951FD0
:100D0000FC01EE0FFF1FE80FF91FE85BF94F808130
:100D100086FF2AC08C91992787FD9095840F951F97
:100D2000FC01EE0FFF1FE80FF91FE85BF94F808110
:100D30008F7361E00E94FD2117C080E49CE904C02C
:100D4000F801808191810496F70191838083C852D4
:100D5000D94F8FEF888308C0F80180819181049674
:100D600080549C4950F3ECCFDF91CF911F910F91AC
:100D7000FF90EF9008951F920F920FB60F920BB64F
:100D80000F9211242F933F934F935F936F937F9311
:100D90008F939F93AF93BF93EF93FF9380E090E087
:100DA00064E271E048E251E024DFFF91EF91BF91EE
:100DB000AF919F918F917F916F915F914F913F91F3
:100DC0002F910F900BBE0F900FBE0F901F90189594
:100DD0001F920F920FB60F920BB60F9211242F9302
:100DE0003F934F935F936F937F938F939F93AF93B3
:100DF000BF93EF93FF9383E090E064EA70E048EAEA
:100E000050E0F7DEFF91EF91BF91AF919F918F91ED
:100E10007F916F915F914F913F912F910F900BBEFA
:100E20000F900FBE0F901F9018951F920F920FB644
:100E30000F920BB60F9211242F933F934F935F9312
:100E40006F937F938F939F93AF93BF93EF93FF9392
:100E500082E090E064E970E048E950E0CADEFF918A
:100E6000EF91BF91AF919F918F917F916F915F9122
:100E70004F913F912F910F900BBE0F900FBE0F908F
:100E80001F9018951F920F920FB60F920BB60F92EC
:100E900011242F933F934F935F936F937F938F937F
:100EA0009F93AF93BF93EF93FF9381E090E064E84B
:100EB00070E048E850E09DDEFF91EF91BF91AF9167
:100EC0009F918F917F916F915F914F913F912F9162
:100ED0000F900BBE0F900FBE0F901F901895FF92B2
:100EE0000F931F93CF93DF938C01D1D08DE293E0CA
:100EF000D80111969C938E9361E013966C9313978F
:100F000082E114968C93149785EB92E016969C934D
:100F10008E93159717966C93179772E018967C939B
:100F2000189719961C92199786E3F82E1A96FC9238
:100F30001A97E3EEF2E01C96FC93EE931B9780E188
:100F40001D968C931D9787EC92E01F969C938E9331
:100F50001E978AE050968C93509720E43BE44CE433
:100F600050E0E801298B3A8B4B8B5C8B55962D9387
:100F70003D934D935C93589703551F4F8FED92E02F
:100F8000E8019983888303501040D8017D938D0137
:100F900087ED92E08D939C930C5F1F4FE8011992AF
:100FA0001992199219928E01288339834A835B839F
:100FB000035B1040E801198E1B8E1A8E8FE08C8F18
:100FC00089E193E09E8F8D8F1F8E19A218A284E075
:100FD0008AA385E692E09CA38BA3809199029091CD
:100FE0009A02A0919B02B0919C028DA39EA3AFA3F5
:100FF000B8A709541F4F8DE0D8018D938D0189E664
:1010000092E08D939C93085B1040E80169A78CEDFA
:1010100096E09BA78AA701541F4F8DED96E0D8015B
:101020008D939C930F5B1040E8016CA788E293E0DE
:101030009EA78DA706541F4F87E0D8018D938BE3A1
:1010400092E0ED01899399938E0187E592E099836F
:1010500088830D5B1040D8019F961C929F97D19674
:101060001C921E92D097D296FC92D297D496FC9363
:10107000EE93D3970F531F4F8EED96E0E8019983BF
:101080008883DF91CF911F910F91FF9008950F9367
:101090001F938C010E946F1185EB93E0F8019183FF
:1010A000808382E082831F910F910895FC018DE37C
:1010B00094E0918380838EEF828313820895EF9270
:1010C000FF920F931F93DF93CF9300D00F92CDB772
:1010D000DEB77C0119821A821B821C82DC01ED9131
:1010E000FC9102A0F3A1E02D20E032EC41E050E0C1
:1010F0008E010F5F1F4F1995D701ED91FC91EC58B0
:10110000FF4F0190F081E02DC70160E072E019957A
:101110000F900F900F900F90CF91DF911F910F9133
:10112000FF90EF90089508950895DF93CF930F9265
:10113000CDB7DEB7DC014983ED91FC9102A4F3A5A4
:10114000E02D41E09E012F5F3F4F19950F90CF9109
:10115000DF910895FF920F931F93CF93DF938C013C
:10116000F62EEA010AC02196D801ED91FC9104A463
:10117000F5A5E02DC8016F2D19954881442399F7F5
:10118000DF91CF911F910F91FF900895DC01ED91B8
:10119000FC9100A8F1A9E02D19950895DC019A01B0
:1011A000ED91FC91442737FD4095542F06A8F7A9EF
:1011B000E02D19950895DC01ED91FC919A0140E034
:1011C00050E000ACF1ADE02D19950895DF92EF925B
:1011D000FF920F931F93CF93DF93EC01D62E7901EB
:1011E0008A0157FF0FC0E881F98104A4F5A5E02D1D
:1011F0004DE2199510950095F094E094E11CF11CD6
:10120000011D111DE881F981EE57FF4F0190F0811A
:10121000E02DCE016D2DA80197010AE01995DF910F
:10122000CF911F910F91FF90EF90DF9008950F9352
:10123000DC01ED91FC91EE57FF4F0190F081E02D24
:101240000AE019950F9108950F931F93DC01011582
:10125000110541F4ED91FC9104A4F5A5E02D422F78
:10126000199511C0ED91FC9111970A30110529F4DF
:1012700006A8F7A9E02D199506C0EE57FF4F01907B
:10128000F081E02D19951F910F910895FF920F9312
:101290001F938C01F62EDC01ED91FC9104A4F5A5C1
:1012A000E02D4DE01995D801ED91FC9104A4F5A530
:1012B000E02DC8016F2D4AE019951F910F91FF9005
:1012C0000895FF920F931F938C01F62EDC01ED9190
:1012D000FC9104A4F5A5E02D1995D801ED91FC91A0
:1012E00004ACF5ADE02DC8016F2D19951F910F913C
:1012F000FF900895FF920F931F938C01F62EDC014F
:10130000ED91FC9106A4F7A5E02D1995D801ED917A
:10131000FC9104ACF5ADE02DC8016F2D19951F911E
:101320000F91FF900895FF920F931F938C01F62E5B
:10133000DC01ED91FC9100A8F1A9E02D1995D801EF
:10134000ED91FC9104ACF5ADE02DC8016F2D199520
:101350001F910F91FF900895FF920F931F938C019F
:10136000F62EDC01ED91FC9102A8F3A9E02D199570
:10137000D801ED91FC9104ACF5ADE02DC8016F2DC5
:1013800019951F910F91FF900895FF920F931F934E
:101390008C01F62EDC01ED91FC9106A8F7A9E02D59
:1013A0001995D801ED91FC9104ACF5ADE02DC80183
:1013B0006F2D19951F910F91FF900895FF920F9334
:1013C0001F938C01F62EDC01ED91FC9100ACF1AD88
:1013D000E02D1995D801ED91FC9104ACF5ADE02D0F
:1013E000C8016F2D19951F910F91FF900895DF92FD
:1013F000EF92FF920F931F937C01D62EDC01ED91AB
:10140000FC9102ACF3ADE02D1995D701ED91FC9163
:1014100004ACF5ADE02DC7016D2D19951F910F910D
:10142000FF90EF90DF90089508950895089508952E
:1014300008950895089508950895089508950895C4
:1014400008950895089508952F923F924F925F92C4
:101450006F927F928F929F92AF92BF92CF92DF92C4
:10146000EF92FF920F931F93DF93CF93CDB7DEB729
:10147000A1970FB6F894DEBF0FBECDBF1C0169A3C4
:1014800069017A01211531054105510549F4DC0155
:10149000ED91FC9104A4F5A5E02D40E3199555C00C
:1014A000882499245401402E55246624772401E091
:1014B00010E00C0F1D1F080D191DC701B601A30177
:1014C00092010E949B2DF80160830894811C911C5D
:1014D000A11CB11CC701B601A30192010E949B2D62
:1014E000C901DA016C017D01C114D104E104F104E8
:1014F000F1F671E0E72EF12CEC0EFD1EE80CF91C64
:101500003E010894611C711CD501C4010197A10919
:10151000B1096C01C818D90815C0D101ED91FC9131
:1015200024A535A5F601EE0DFF1D40814A3010F4CB
:10153000405D01C0495CC10169A1F9011995089498
:10154000E108F1086E147F0441F7A1960FB6F894F4
:10155000DEBF0FBECDBFCF91DF911F910F91FF90E6
:10156000EF90DF90CF90BF90AF909F908F907F9043
:101570006F905F904F903F902F900895442319F4FF
:101580008CB5806202C08CB58F7D8CBD80E090E010
:1015900008958CB5837F842B8CBD80E090E0089506
:1015A0006F927F928F929F92AF92BF92CF92DF9273
:1015B000EF92FF920F931F93CF93DF93EC0169019A
:1015C0007A01A80160E070E000E010E0BAEB6B2E59
:1015D000712C680E791EABEB8A2E912C880E991E09
:1015E000FDEBAF2EB12CA80EB91E54C0C801880F58
:1015F000991FD401ED91FC91E80FF91F8081918131
:10160000A281B381C816D906EA06FB06F8F0FA01F2
:1016100080839183A283B383660F771FC354DF4F08
:10162000E881F981E60FF71F80812CB5382F3370E0
:101630002C7F322B3CBD2DB590E0959587959595E7
:10164000879581702E7F822B8DBD2CC0215030401C
:1016500062177307D9F4FA0180839183A283B3835D
:10166000D501ED91FC91E00FF11F80812CB5382F51
:1016700033702C7F322B3CBD2DB590E0959587952E
:101680009595879581702E7F822B8DBD6F5F7F4FE3
:101690000E5F1F4FF3018081282F30E06217730720
:1016A0000CF4A4CF80E090E0DF91CF911F910F91D7
:1016B000FF90EF90DF90CF90BF90AF909F908F9072
:1016C0007F906F90089580E090E0089581E090E031
:1016D00008959F92AF92BF92CF92DF92EF92FF92C6
:1016E0000F931F937C01962E59016A01DC01ED9145
:1016F000FC91E45BFF4F0190F081E02D1995D7013B
:10170000ED91FC9102A0F3A1E02DC701692DA60186
:10171000950119951F910F91FF90EF90DF90CF9059
:10172000BF90AF909F90089586E496E011C986E43B
:1017300096E015C9CF92DF92EF92FF920F931F931D
:10174000CF93DF93242F352F8901C0E0D0E0C62E40
:10175000DD2441ECE42EF12CE80EF91E1BC0D8016B
:101760008C9190E0880F991FD701ED91FC91E80FC3
:10177000F91F8081918119D9F80181918F0190E041
:10178000880F991FD701ED91FC91E80FF91F118285
:1017900010822196CC15DD0514F380E090E0DF91F6
:1017A000CF911F910F91FF90EF90DF90CF90089510
:1017B0006F927F928F929F92AF92BF92CF92DF9261
:1017C000EF92FF920F931F93CF93DF93EC015C0195
:1017D000842F952F6C01790100E010E0662E7724AC
:1017E00071EC872E912C8C0E9D1E55C0E881F981DD
:1017F000EE59FF4F0190F081E02DC50162E172E0EA
:101800001995A881B981A259BF4FF601808190E056
:10181000880F991FF40120813181280F391FF901A8
:1018200040815181662757FD6095762FED91FC919F
:10183000C5012AE030E01995E881F981EE59FF4FA2
:101840000190F081E02DC50169E172E01995E88110
:10185000F981E258FF4FD7014D915C9160E070E053
:101860000190F081E02DC5012AE030E01995F601E4
:1018700081916F0190E0880F991FD401ED91FC9147
:10188000E80FF91FD7016D917D917D0180819181D4
:10189000BFD80F5F1F4F061517050CF4A7CF80E0C8
:1018A00090E0DF91CF911F910F91FF90EF90DF902B
:1018B000CF90BF90AF909F908F907F906F90089542
:1018C0002F923F924F925F926F927F928F929F9250
:1018D000AF92BF92CF92DF92EF92FF920F931F933E
:1018E000DF93CF9300D0CDB7DEB76C011A018983A7
:1018F0008D2CAA24BB24462E5524F1EC6F2E712C7E
:10190000680E791E4AC0F101EA0DFB1D9080E92C9A
:10191000FF24EE0CFF1CD3010D90BC91A02DAE0D49
:10192000BF1DBB83AA838D919C91892B99F583E080
:1019300090E00E941728182F092F1DD8EA81FB81FB
:1019400010830183D301ED91FC91EE0DFF1D808189
:101950009181692D70E048D9D601ED91FC91EE5945
:10196000FF4F0190F081E02D8981982D6DE172E0AB
:101970001995D601ED91FC91E258FF4F492D50E0A9
:1019800060E070E00190F081E02D8981982D2AE0DF
:1019900030E019950894A11CB11CA414B5040CF4F2
:1019A000B2CF80E090E00F900F900F90CF91DF9139
:1019B0001F910F91FF90EF90DF90CF90BF90AF906D
:1019C0009F908F907F906F905F904F903F902F905F
:1019D0000895662319F48FE99AE00EC0613019F476
:1019E00081EC9AE009C0623019F483EE9AE004C0F9
:1019F000633021F485E09BE00E94C22580E090E006
:101A00000895662319F48FE99AE00EC0613019F445
:101A100081EC9AE009C0623019F483EE9AE004C0C8
:101A2000633031F485E09BE0B90150E00E94192851
:101A300080E090E00895FF920F931F93CF93DF9380
:101A4000F42EE801662319F48FE99AE00EC06130A4
:101A500019F481EC9AE009C0623019F483EE9AE03F
:101A600004C0633041F485E09BE0B9014F2D50E0A4
:101A70000E946F28888388818F1519F420E030E058
:101A800002C023E830E0C901DF91CF911F910F918F
:101A9000FF900895CF93DF93EA01662319F48FE94D
:101AA0009AE00EC0613019F481EC9AE009C062300E
:101AB00019F483EE9AE004C0633029F485E09BE0DA
:101AC0000E942826888380E090E0DF91CF910895DE
:101AD0008F929F92AF92BF92DF92EF92FF920F93FD
:101AE0001F93CF93DF93EC01D62EBA01A9014801D1
:101AF000C954DF4F8881C75BD040A82EBB2400E0CB
:101B000010E020E030E088EBE82EF12CEC0EFD1E1A
:101B100012C0D701ED91FC91E20FF31F80819181FA
:101B2000A281B3812C5F3F4F481759076A077B0793
:101B300028F00F5F1F4F0A151B055CF301151105F7
:101B400011F001501040DD20A1F47801EE0CFF1CD3
:101B5000EE0CFF1C8E0108541F4FD801ED91FC9133
:101B6000EE0DFF1D40815181628173818FE99AE002
:101B700044C0F1E0DF16A1F47801EE0CFF1CEE0C7E
:101B8000FF1C8E0108541F4FD801ED91FC91EE0D02
:101B9000FF1D408151816281738181EC9AE02DC0EB
:101BA000F2E0DF16A1F47801EE0CFF1CEE0CFF1C36
:101BB0008E0108541F4FD801ED91FC91EE0DFF1DD1
:101BC000408151816281738183EE9AE016C0F3E017
:101BD000DF1619F57801EE0CFF1CEE0CFF1C8E01D0
:101BE00008541F4FD801ED91FC91EE0DFF1D40816F
:101BF00051816281738185E09BE00E943B25D80181
:101C0000ED91FC91EE0DFF1D80819181A281B38148
:101C1000F40180839183A283B38380E090E0DF911D
:101C2000CF911F910F91FF90EF90DF90BF90AF90F9
:101C30009F908F9008950E946C1F28EE33E040E043
:101C400050E00E949B2DCA01B90108950C946C1FAD
:101C500008956F927F928F929F92AF92BF92CF9290
:101C6000DF92EF92FF920F931F93CF93DF93360192
:101C7000222331F48CEC95E0642F402F21E00AC040
:101C8000213019F021E830E036C08CEC95E0642F6B
:101C9000402F20E00E9427020E946C1F5B016C0114
:101CA000802E992400E010E00EC00E946C1F6A197B
:101CB0007B098C099D09E616F7060807190718F431
:101CC00023E830E018C08CEC95E00E946F01881585
:101CD00099055CF3C0E0D0E009C08CEC95E00E946F
:101CE0007801F301EC0FFD1F80832196C815D905FB
:101CF000A4F320E030E0C901DF91CF911F910F9153
:101D0000FF90EF90DF90CF90BF90AF909F908F901B
:101D10007F906F900895EF92FF920F931F93122F71
:101D20008CEC95E0642F0E9465018CEC95E0B70186
:101D3000402F50E00E94B601112321F48CEC95E075
:101D400061E005C0113041F48CEC95E060E00E9448
:101D5000150220E030E007C08CEC95E061E00E94C5
:101D6000150221E830E0C9011F910F91FF90EF901B
:101D70000895FC01E154FF4F0190F081E02DE60F42
:101D8000F11D8081882319F08F5F808304C08CEC63
:101D900095E00E94330280E090E008956F927F9278
:101DA0008F929F92AF92BF92CF92DF92EF92FF926B
:101DB0000F931F93CF93DF93842EF22E902E1E2D20
:101DC0003601802F61E00E944A216E2D609561707E
:101DD000802F0E94FD21C0E0D0E000E0CF2CDD2468
:101DE000E82CFF2411701CC0802F820FA82FB0E0B8
:101DF000F301EA0FFB1F80818EBD00000DB407FECA
:101E0000FDCF8EB5AA0DBB1D8C932F5F3F4F2E15B6
:101E10003F0554F3892D612F0E94FD212196080D65
:101E2000CC15DD051CF420E030E0F1CF80E090E03F
:101E3000DF91CF911F910F91FF90EF90DF90CF90A6
:101E4000BF90AF909F908F907F906F900895CF92AA
:101E5000DF92EF92FF920F931F93CF93DF9369016D
:101E60008A01C0E0D0E0E62EFF241EC0F801808188
:101E700061E00E944A21FE0193E0F595E7959A956D
:101E8000E1F7EC0DFD1D608170E0CE018770907070
:101E900002C0759567958A95E2F76170F8018191A6
:101EA0008F010E94FD212196CE15DF05FCF280E016
:101EB00090E0DF91CF911F910F91FF90EF90DF9015
:101EC000CF9008950E944F0180E090E00895CF9256
:101ED000DF92EF92FF920F931F93CF93DF936901ED
:101EE0008A01C0E0D0E0E62EFF2410C0F801808116
:101EF00061E00E944A21F601EC0FFD1F6081F801AC
:101F000081918F0170E00E946C202196CE15DF0533
:101F10006CF380E090E0DF91CF911F910F91FF90E3
:101F2000EF90DF90CF900895CB01BA010C947A1F07
:101F30009F92AF92BF92CF92DF92EF92FF920F9358
:101F40001F93CF93DF93162F922EE5014130D9F4E2
:101F5000862F61E00E944A21812F61E00E94FD21CD
:101F600061E070E080E090E00E947A1F812F60E0E5
:101F70000E94FD2161E070E080E090E00E947A1F05
:101F8000812F61E01CC04230E1F4862F61E00E94A5
:101F90004A21812F60E00E94FD2161E070E080E035
:101FA00090E00E947A1F812F61E00E94FD2161E094
:101FB00070E080E090E00E947A1F812F60E00E9434
:101FC000FD21892D60E00E944A21002319F4892D0A
:101FD00060E004C0013051F4892D61E0A701960151
:101FE0000E945E22688379838A839B8380E090E0ED
:101FF000DF91CF911F910F91FF90EF90DF90CF90E5
:10200000BF90AF909F9008959F92AF92BF92CF9252
:10201000DF92EF92FF920F931F93962E59016A0160
:102020002115310541055105B9F0862F61E00E9467
:102030004A21E114F1040105110529F0892DB501AA
:10204000A801970106C0892DB50120E030E040E0ED
:1020500050E00E94392903C0862F0E94C52880E0E5
:1020600090E01F910F91FF90EF90DF90CF90BF9085
:10207000AF909F9008958F929F92AF92BF92CF9210
:10208000DF92EF92FF920F931F93CF93DF934A015A
:10209000790108E0CC24DD24C0E0D0E0A62EBB24EA
:1020A0001EC0002341F4F701EC0DF11DD082C39452
:1020B00007E0DD2401C00150F401EC0FFD1F108189
:1020C000812F60E00E944A21812F0E942F22002E42
:1020D00002C0880F991F0A94E2F7D82A2196CA15E0
:1020E000DB05FCF2EC0CF11CF701D08280E090E003
:1020F000DF91CF911F910F91FF90EF90DF90CF90E4
:10210000BF90AF909F908F900895CF92DF92EF9203
:10211000FF920F931F93CF93DF93EC0179018A0114
:10212000613091F0613020F0623009F068C040C049
:1021300081E00E94352089899A89AB89BC898D8B81
:102140009E8BAF8BB88F55C0C655DF4F8881CA5A5A
:10215000D040882309F453C020E030E040E050E054
:10216000C82EDD24BE0165557F4F1EC0DB01ED91F9
:10217000FC91E40FF51F80819181A281B3814C5FB6
:102180005F4F8E159F05A007B10761F4220F331F23
:10219000C355DF4FE881F981CD5AD040E20FF31FDC
:1021A000808121C02F5F3F4F2C153D05FCF224C0DC
:1021B000C155DF4F88819981AA81BB81CF5AD04018
:1021C000281739074A075B07B8F0CD54DF4F8881DD
:1021D0009981AA81BB81C35BD04082179307A40772
:1021E000B50750F080E00E943520ED8AFE8A0F8B03
:1021F000188F20E030E005C022E830E002C021E87E
:1022000030E0C901DF91CF911F910F91FF90EF90C6
:10221000DF90CF9008956F927F928F929F92AF92AE
:10222000BF92CF92DF92EF92FF920F931F93CF93C3
:10223000DF936C014A017901D9011C9200E018E09A
:10224000C0E0D0E0A62EBB2458E0652E712C33C030
:10225000F401EC0FFD1F80810E943820AC01F601D3
:10226000608926C0F701E00FF11DD60150968C91D0
:1022700090E0861B91099A0102C0369527958A95B0
:10228000E2F7C9019301211B310902C0880F991F90
:102290002A95E2F72081282B2083611710F4161B62
:1022A00009C0611B0F5FF701E00FF11D108218E0FC
:1022B0006623C1F62196CA15DB0554F280E090E052
:1022C000DF91CF911F910F91FF90EF90DF90CF9012
:1022D000BF90AF909F908F907F906F900895DF9206
:1022E000EF92FF920F931F938C010E94560885EC8A
:1022F00094E0F8019183808381E0878382E0808786
:10230000118676E4E72E76E0F72EC70160E070E0F4
:102310000E94A804D82EC70161E070E00E94A804C2
:102320003D2D20E090E0282B392BF80136AB25AB72
:102330001F910F91FF90EF90DF900895EF92FF9221
:102340000F931F93DF93CF9300D00F92CDB7DEB7DB
:102350007C01DB01FC017383628319821A821B8278
:102360001C824087ED91FC9102A0F3A1E02DCB01EE
:10237000642F20E835E240E050E08E010F5F1F4FF0
:1023800019958AE291E0E80EF91E84E090E0F701E9
:10239000918380830F900F900F900F90CF91DF91DA
:1023A0001F910F91FF90EF9008958FEF9FEF089589
:1023B0008FEF9FEF0895CF93DF93DC01EC01C65DB3
:1023C000DE4F888199818530910571F086309105C5
:1023D000B1F0049701F5ED91FC9111970084F1851E
:1023E000E02DCD01199517C0ED91FC911197028454
:1023F000F385E02DCD011995198218820CC0ED915D
:10240000FC9111970484F585E02DCD0119958FEF8E
:102410009FEF0E94F22DDF91CF9108958F929F92AE
:10242000AF92BF92CF92DF92EF92FF920F931F93E2
:10243000DF93CF930F920F92CDB7DEB77C01198255
:10244000FC01A281B381ED91FC91119706A0F7A147
:10245000E02DCD01D70118966C915E010894A11C66
:10246000B11CA50119958981823008F42DC11A8209
:10247000F701A281B3817AE0C72ED12CCE0CDF1CEC
:10248000ED91FC91119762E0862E912C8C0E9D1E91
:1024900000A4F1A5E02DCD01D70118966C9142E082
:1024A000960184011995F7018285A281B3818F3F3E
:1024B00009F0EDC0ED91FC91119706A0F7A1E02D78
:1024C000CD01D70118966C91A5011995298130E0AD
:1024D000F701838590E00297281739070CF05BC05D
:1024E00004E610E0C501BA2CA92E4BC0D701129604
:1024F000ED91FC911397A081B18196962D913C911D
:102500009797CF01F70160854B2D5A2DF901199549
:10251000F701A281B3810115110519F5ED91FC9127
:10252000119706A0F7A1E02DCD01D70118966C9167
:102530004B2D5A2D1995F701A281B381ED91FC9194
:10254000119700A4F1A5E02DCD01D70118966C914B
:10255000498196018E010E5F1F4F19952FEF3FEFB6
:10256000B5C0ED91FC911197E85AFF4F0190F081B1
:10257000E02DCD0141E050E060E070E019950150A0
:102580001040298130E0F701838590E002972817F9
:1025900039070CF4ABCFD7011296ED91FC9113974C
:1025A000808191811B964C9142509701245F3F4F4F
:1025B00052E0A52EB12CAC0EBD1EDC0198968D907C
:1025C0009C909997CF01F70160858501F4011995D9
:1025D000C701B601FBD0F701A281B3818823C1F105
:1025E000ED91FC911197E058FF4F0190F081E02DA3
:1025F000CD0161E0A6011995870106571F4FC7015C
:10260000B601A8017DD1F701A281B381ED91FC91C2
:102610001197E058FF4F0190F081E02DCD0160E06F
:10262000A8011995F701A281B381ED91FC91119751
:1026300002A4F3A5E02DCD01D70118966C912BE8EB
:1026400030E0E20EF31ED7014C91980119953CC081
:10265000ED91FC91119706A0F7A1E02DCD01D701D6
:1026600018966C91AE014F5F5F4F1995F701A281EB
:10267000B381ED91FC91119700A4F1A5E02DCD015E
:10268000D70118966C914981960185011CC0ED9186
:10269000FC91119706A0F7A1E02DCD01D701189666
:1026A0006C91A5011995F701A281B381ED91FC917F
:1026B000119700A4F1A5E02DCD01D70118966C91DA
:1026C000498196018401199520E030E0C9010F90FD
:1026D0000F90CF91DF911F910F91FF90EF90DF90BE
:1026E000CF90BF90AF909F908F9008950F931F93BE
:1026F0008C0115D08DE495E0F80191838083065D0F
:102700001E4FF801118210820A521140F8011782FF
:1027100016821F910F9108958AE497E0E7CFFC019C
:1027200083E695E0918380831582148280E8818717
:1027300008958FEF9FEF08958FEF9FEF08958FEF2C
:102740009FEF08958FEF9FEF08958FEF9FEF08950C
:102750008FEF9FEF08958FEF9FEF0895CF93DF9353
:10276000EC018C819D818430910591F0853091053B
:102770001CF4892B39F024C08530910579F0069737
:10278000F9F416C0E881F9810190F081E02D15C0BF
:10279000E881F9810084F185E02D0FC0E881F9819D
:1027A0000284F385E02DCE0119951D821C820BC099
:1027B000E881F9810484F585E02DCE01199503C0E7
:1027C00080E890E000C0DF91CF910895DB01119681
:1027D0006C911197462F50E04150504020E030E07E
:1027E00090E007C0FD01E20FF31F8081980F2F5F7B
:1027F0003F4F24173507B4F320E0A60FB11D119702
:102800008C91981709F421E0822F08950F931F935C
:10281000FB01DA018FEF8C93822F8A5F11968C93E4
:102820001197828112968C931297838113968C93C1
:1028300013970F3F110509F020F414960C93149789
:1028400004C083E014968C93149711968C91119781
:10285000682F70E06150704040E050E090E007C0A9
:10286000FD01E40FF51F8081980F4F5F5F4F461702
:102870005707B4F3A20FB31F15969C931F910F91A6
:1028800008950F931F93890120E030E0BFDF1F916F
:102890000F910895BF92CF92DF92EF92FF920F9324
:1028A0001F93CF93DF93EC016B01142FB52EB90169
:1028B000842F952F9C01D90120E030E0402F50E07B
:1028C00009C0FB01E20FF31F808114968C931497CB
:1028D0002F5F3F4F1196241735079CF3CE01B601A9
:1028E000412F5B2D202F30E0870190DFDF91CF91CA
:1028F0001F910F91FF90EF90DF90CF90BF900895C0
:102900002F923F924F925F926F927F928F929F92FF
:10291000AF92BF92CF92DF92EF92FF920F931F93ED
:10292000DF93CF93CDB7DEB728970FB6F894DEBF0D
:102930000FBECDBF2C013B011A012DB73EB73E8320
:102940002D83DB0114969C91149780E015962C91B1
:10295000E22FF0E0E82BF92BBCEFE030FB07C0F0F2
:102960001982EB57FB4FEE0FFF1FE40DF51DDB0146
:1029700011968C916A5F7F4F9A012B5F3F4F0190B8
:10298000F081E02D8750AE014F5F5F4F1995ECC786
:10299000E232F10509F42DC5E332F10508F090C0EB
:1029A000E131F10509F436C1E231F10508F044C026
:1029B000E930F10509F4D9C1EA30F105E0F4E43079
:1029C000F10509F43AC1E530F10540F4309709F416
:1029D0003AC2339711F00C94FA1E21C1E630F1058A
:1029E00009F47EC1E630F10508F447C1389711F0CB
:1029F0000C94FA1EB0C1ED30F10509F4D6C1EE30E9
:102A0000F10568F4EB30F10509F4BFC1D20112966B
:102A10000D911C9113973C9708F0C1C1B0C1EF30E4
:102A2000F10509F4D2C1D20112960D911C911397B0
:102A3000709708F0D4C1C3C1E931F10509F43AC374
:102A4000EA31F10508F5E531F10509F46AC2E6312C
:102A5000F10568F4E331F10509F4FBC1D2011296E6
:102A60000D911C911397749708F009C2BEC1E7310C
:102A7000F10509F4BBC2D20112960D911C91139776
:102A8000789708F0C1C287C2ED31F10509F4F2C3AD
:102A9000EE31F10540F4EB31F10509F470C37C9798
:102AA00008F07FC33DC3EF31F10509F42EC4EF31C7
:102AB000F10508F40DC4B09711F00C94FA1E33C45C
:102AC000E33CF10509F438C7E43CF10508F048C0DF
:102AD000E434F10509F4DBC5E534F105F0F4E53241
:102AE000F10509F449C5E632F10548F4E332F10590
:102AF00009F4FDC4B49711F00C94FA1E33C5E23406
:102B0000F10509F45BC5E334F10508F07FC5E13454
:102B1000F10511F00C94FA1E3CC5E338F10509F4F7
:102B200099C6E438F10570F4E136F10509F41DC6E3
:102B3000E436F10509F44CC6E036F10511F00C94C9
:102B4000FA1EF0C5E13CF10509F4BBC6E23CF10513
:102B500008F0D7C6E03CF10511F00C94FA1E91C6BE
:102B6000B1E0E030FB0709F4D3C721E0E130F20720
:102B700018F5E13EF10509F42BC7E23EF10570F4CA
:102B8000E53CF10509F40CC7E53CF10508F4EFC696
:102B9000E03EF10511F00C94FA1E0EC7E33EF1057C
:102BA00009F471C7E33EF10508F450C7E43EF105AE
:102BB00011F00C94FA1E9BC731E0E730F30711F4D3
:102BC0000C94221E41E0E830F40788F451E0E23032
:102BD000F50709F4C0C781E0E230F80708F4A9C797
:102BE000E350F14011F00C94FA1E0C940A1EA1E07F
:102BF000E134FA0711F40C94631EB1E0E234FB07F0
:102C000011F40C94DF1EE054F14011F00C94FA1E04
:102C10000C945A1EA4E0EA2EF12C0C94031FD2014E
:102C20001296ED91FC9113978281FA018583129699
:102C3000ED91FC911397838119C1D2011296ED9108
:102C4000FC9113978781FA0185831296ED91FC918F
:102C500013978085DA0116968C93D2011296ED9126
:102C6000FC9113978185FA018783C20123E030E04C
:102C700000E010E0CBDD0C94011FD2011296ED9123
:102C8000FC91139785A196A1A7A1B0A58B2F992799
:102C9000AA27BB27FA018583D2011296ED91FC91F8
:102CA000139785A196A1A7A1B0A5CD01AA27BB27FF
:102CB000FA018683D2011296ED91FC91139785A1BA
:102CC00096A1A7A1B0A5892F9A2FAB2FBB27FA01F8
:102CD0008783D2011296ED91FC91139785A153C180
:102CE000DB0118963C91189720E0442737FD40956A
:102CF000542F19968C9190E0A0E0B0E0282B392B4E
:102D00004A2B5B2B19821A821B821C82F201A28140
:102D1000B381ED91FC91119704A0F5A1E02DCD01B7
:102D2000D20118966C918E010F5F1F4F19957C018F
:102D3000F201A281B381ED91FC911197E85AFF4F06
:102D40000190F081E02DCD0148EE53E060E070E0AD
:102D500019950C94F31ED2011296ED91FC911397E4
:102D600023853485C201028510C4D2011296ED91EB
:102D7000FC91139726853785C201058506C4F801A5
:102D8000228D338DC201018D00C4D2011296ED91C6
:102D9000FC911397258D368DC201048DF6C3F80181
:102DA00020A131A1C201078DF0C3D2011296ED918D
:102DB000FC91139723A134A1C20102A1E6C3F8013B
:102DC00022A533A5C20101A5E0C3D2011296ED915F
:102DD000FC91139725A536A5C20104A5D6C3F80119
:102DE00020A931A9C20107A5D0C3DB0116969C9189
:102DF000169780E017962C91179730E0822B932B33
:102E0000F80196AB85AB0190F081E02DE65AFF4FBB
:102E10000190F081E02DC80160E070E016964C91C1
:102E20001995F201A281B381ED91FC911197E65AB7
:102E3000FF4F0190F081E02DCD0161E070E0D30102
:102E400017964C911995C201B301A10120E030E021
:102E5000D6C7D2011296ED91FC91139786A9FA017B
:102E600085831296ED91FC91139785A9D101169651
:102E70008C93C201B301A10122E030E0F9CEFB0145
:102E8000818590E0308520E0822B932BAA2797FD47
:102E9000A095BA2FF80187AB90AFA1AFB2AF019068
:102EA000F081E02DE65AFF4F0190F081E02DC8013E
:102EB00062E070E0D30116964C911995F201A2815F
:102EC000B381ED91FC911197E65AFF4F0190F0818B
:102ED000E02DCD0163E070E0D30117964C91199578
:102EE000F201A281B381ED91FC911197E65AFF4F57
:102EF0000190F081E02DCD0164E070E0D3011896DF
:102F00004C911995F201A281B381ED91FC91119739
:102F1000E65AFF4F0190F081E02DCD0165E070E0B1
:102F2000E2C2D2011296ED91FC91139787A990AD60
:102F3000A1ADB2AD8B2F9927AA27BB27FA018583B4
:102F4000D2011296ED91FC91139787A990ADA1AD96
:102F5000B2ADCD01AA27BB27F1018683D20112961B
:102F6000ED91FC91139787A990ADA1ADB2AD892FDA
:102F70009A2FAB2FBB27F1018783D2011296ED91D7
:102F8000FC91139787A9F1018087C201B301A101C8
:102F900024E030E06DCEDB0116969C91169780E020
:102FA00017962C91179730E0822B932BF80194AF52
:102FB00083AF0190F081E02DE65AFF4F0190F08140
:102FC000E02DC80166E070E016964C911995F2016B
:102FD000A281B381ED91FC911197E65AFF4F0190C8
:102FE000F081E02DCD0167E070E029CFD20112968B
:102FF000ED91FC91139784ADFA0185831296ED91C2
:10300000FC91139783AD32CF035C1F4FFB01818589
:1030100090E0308520E0822B932BAA2797FDA09586
:10302000BA2FF80180839183A283B3830D5310409C
:10303000D801ED91FC91E65AFF4F0190F081E02D0F
:10304000C80168E070E0D30116964C911995F20121
:10305000A281B381ED91FC911197E65AFF4F019047
:10306000F081E02DCD0169E070E0D30117964C911D
:103070001995F201A281B381ED91FC911197E65A65
:10308000FF4F0190F081E02DCD016AE070E0D301A7
:1030900018964C911995F201A281B381ED91FC91A2
:1030A0001197E65AFF4F0190F081E02DCD016BE0C2
:1030B00070E019C2D2011296ED91FC911397FD9622
:1030C00080819181A281B3818B2F9927AA27BB2769
:1030D000FA018583D2011296ED91FC911397FD962A
:1030E00080819181A281B381CD01AA27BB27FA01FA
:1030F0008683D2011296ED91FC911397FD96808103
:103100009181A281B381892F9A2FAB2FBB27FA011E
:103110008783D2011296ED91FC91139785AD33CF41
:10312000F201A281B381AF5BBF4FFB01968180E0CA
:10313000278130E0822B932B11969C938E93A15480
:10314000B040ED91FC911197E65AFF4F0190F0814C
:10315000E02DCD016CE070E0D30116964C911995ED
:10316000F201A281B381ED91FC911197E65AFF4FD4
:103170000190F081E02DCD016DE070E060CED201D4
:103180001296ED91FC911397EF5BFF4F8181FA014D
:1031900085831296ED91FC911397EF5BFF4F808131
:1031A00065CEFB018681D20112960D911C91139779
:1031B0008132B8F00D5B1F4F80E2F80180831296D8
:1031C0000D90BC91A02DED91FC911197E65AFF4F07
:1031D0000190F081E02DCD016EE070E040E21995A4
:1031E00016C00D5B1F4FD8018C93D2011296ED9142
:1031F000FC911397A081B181A65ABF4F2D913C91AC
:10320000CF016EE070E0F3014681F9011995730179
:1032100000E010E01DC0E00FF11FEC5BFF4FD70195
:1032200016968C918083F201A281B381ED91FC917D
:103230001197E65AFF4F015F1F4F0190F081E02D7B
:10324000CD01B801D70116964C9119950E5010403A
:10325000D2011296ED91FC9113970894E11CF11C98
:10326000ED5BFF4F8081E354F04090E008171907B1
:1032700094F2E9CDD2011296ED91FC911397ED5B9A
:10328000FF4F8081FA018583BA0140E050E00AC017
:10329000E40FF51FEC5BFF4F8081DB0115968C93EB
:1032A0004F5F5F4FD2011296ED91FC911397ED5B4A
:1032B000FF4F2081E354F0406F5F7F4F822F90E0FB
:1032C000481759072CF3C201B301A10130E0D0CC5B
:1032D000D2011296ED91FC911397EC59FF4FDB014F
:1032E00016968C918083F201A281B381ED91FC91BD
:1032F0001197E65AFF4F0190F081E02DCD0160E378
:1033000070E0D30116964C919DCDD2011296ED91AD
:10331000FC911397EC59FF4F8081FA018583C2011C
:1033200021E030E0A5CCDB0116968C91F201028100
:1033300013818134A8F00B591F4F80E4D8018C937E
:10334000A281B381ED91FC911197E65AFF4F019054
:10335000F081E02DCD0161E370E040E4199516C0E5
:103360000B591F4FF8018083D2011296ED91FC9109
:103370001397A081B181A65ABF4F2D913C91CF01E7
:1033800061E370E0F3014681F9011995730100E0F2
:1033900010E01DC0E00FF11FEA59FF4FD70116964C
:1033A0008C918083F201A281B381ED91FC91119700
:1033B000E65AFF4F0E5C1F4F0190F081E02DCD01CA
:1033C000B801D70116964C91199501531040D201BE
:1033D0001296ED91FC9113970894E11CF11CEB59A6
:1033E000FF4F8081E556F04090E00817190794F2EE
:1033F0002ACDF201628173816A557F4FD3011696FF
:103400002C91169730E040E050E0522F44273327AC
:10341000222717968C9190E0A0E0B0E0DC0199277C
:103420008827282B392B4A2B5B2BF301818590E0D1
:10343000A0E0B0E0282B392B4A2B5B2B808590E055
:10344000A0E0B0E0BA2FA92F982F8827282B392B7E
:103450004A2B5B2BDB012D933D934D935C9313978C
:10346000665A7040DB01ED91FC91E65AFF4F0190E6
:10347000F081E02DCB0162E770E0D30116964C910C
:103480001995F201A281B381ED91FC911197E65A51
:10349000FF4F0190F081E02DCD0163E770E0D30193
:1034A00017964C911995F201A281B381ED91FC918F
:1034B0001197E65AFF4F0190F081E02DCD0164E7AE
:1034C00070E0D30118964C911995F201A281B38155
:1034D000ED91FC911197E65AFF4F0190F081E02D9C
:1034E000CD0165E770E0D30119964C91ABCCD201C8
:1034F0001296ED91FC911397EA55FF4F80819181CF
:10350000A281B3818B2F9927AA27BB27F10185833D
:10351000D2011296ED91FC911397EA55FF4F8081ED
:103520009181A281B381CD01AA27BB27F1018683B6
:10353000D2011296ED91FC911397EA55FF4F8081CD
:103540009181A281B381892F9A2FAB2FBB27F101E3
:103550008783D2011296ED91FC911397EA55FF4FA4
:10356000808111CDD2011296ED91FC9113972581A6
:103570003681C201048109C0D2011296ED91FC91FD
:10358000139723A934A9C20102A9EE24FF2482D9EA
:103590003AC4F201A281B381FB016681ED91FC91F5
:1035A0001197A301495F5F4F262F30E0295F3F4FFE
:1035B000260D371D0480F581E02D60C1DB011196D9
:1035C0000C91D2011296ED91FC911397A081B181DB
:1035D000602F6750A3014A5F5F4F91012B5F3F4F00
:1035E00016960D90BC91A02DCF01FD0119957C017F
:1035F00010E00850104023E0159507952A95E1F753
:103600000F5FC201B301A101202F6FC2F2016281DD
:103610007381DB01ED91FC91D30119963C911997CF
:1036200020E0442737FD4095542F1A968C9190E066
:10363000A0E0B0E0282B392B4A2B5B2BD3011B9643
:10364000EC901B97FF2400E010E01E2D0027FF24C4
:10365000EE241E968C9190E0A0E0B0E0E82AF92AD2
:103660000A2B1B2BD3011D969C9180E0AA2797FD66
:10367000A095BA2FE82AF92A0A2B1B2B0084F18582
:10368000E02DCB01D30116966C911995ABC3F201D5
:1036900022813381D901ED91FC91DB011A96CC9006
:1036A0001A97DD24EE24FF24FC2CEE24DD24CC2408
:1036B0001B968C9190E0A0E0B0E0DC019927882770
:1036C000C82AD92AEA2AFB2ADB011D968C9190E0B0
:1036D000A0E0B0E0C82AD92AEA2AFB2ADB011C961E
:1036E0008C9190E0A0E0B0E0BA2FA92F982F882706
:1036F000C82AD92AEA2AFB2A0284F385E02DC901C7
:10370000DB0117966C91179718964C91189716969F
:103710002C91169719960C915E010894A11CB11C6E
:1037200019957DC1D20112966D917C911397DB01A1
:10373000ED91FC91D30119963C91199720E0442713
:1037400037FD4095542F1A968C9190E0A0E0B0E0A0
:10375000282B392B4A2B5B2B0280F381E02DCB01E8
:10376000D30116966C9119953DC3D2011296ED9135
:10377000FC91139785899689A789B08D8B2F9927FE
:10378000AA27BB27FA018583D2011296ED91FC91FD
:10379000139785899689A789B08DCD01AA27BB2764
:1037A000FA018683D2011296ED91FC9113978589D7
:1037B0009689A789B08D892F9A2FAB2FBB27F1014E
:1037C0008783D2011296ED91FC9113978589DBCB0B
:1037D000D2011296ED91FC9113978089FA018583AD
:1037E0001296ED91FC91139780819181DB011196E6
:1037F0006C916750A3014A5F5F4F91012A5F3F4F71
:10380000DC010D911C91CF01F80119957C01F301A8
:10381000218130E027503040D2011296ED91FC9189
:103820001397808990E0FC012E9FC0012F9F900D7F
:103830003E9F900D11249C0143E0369527954A95B3
:10384000E1F787709070892B09F02F5F30E02F5FD0
:103850003F4F29C2F201A281B381FB016681ED9144
:10386000FC911197A301495F5F4F262F30E0295F3C
:103870003F4F260D371D0484F585E02DCD011995A8
:10388000B1C2DB0119963C91199720E0442737FD1E
:103890004095542F1A968C9190E0A0E0B0E0282B30
:1038A000392B4A2B5B2B19821A821B821C82F20154
:1038B000A281B381ED91FC91119702A0F3A1E02DBB
:1038C000A6C0DB0119963C91199720E0442737FDEB
:1038D0004095542F1A968C9190E0A0E0B0E0282BF0
:1038E000392B4A2B5B2B19821A821B821C82F20114
:1038F000A281B381ED91FC91119704A0F5A1E02D77
:1039000086C0F201A281B381ED91FC91119706A0CE
:10391000F7A1E02DCD01DB0116966C91AE014F5F52
:103920005F4F19957C018981F1018583C201B30143
:10393000A10121E030E0BAC11982F201A281B38174
:10394000ED91FC9111979A012B5F3F4F00A4F1A5D7
:10395000E02DCD01DB0116966C91169717964C91D0
:103960008E010F5F1F4F19957C012981BBC0D201C9
:103970001296ED91FC91139780819181DB01119654
:103980004C9148509B01295F3F4FDC019A960D9165
:103990001C919B97CF01FB016681F801199522C20A
:1039A000D2011296ED91FC911397A081B181A45B95
:1039B000BF4F2D913C91A6C0D2011296ED91FC9182
:1039C0001397A081B18158962D913C9159979AC037
:1039D000DB0119963C91199720E0442737FD40956B
:1039E000542F1A968C9190E0A0E0B0E0282B392B50
:1039F0004A2B5B2B19821A821B821C82F201A28144
:103A0000B381ED91FC911197028CF38DE02DCD01E6
:103A1000D30116966C918E010F5F1F4F19957C0193
:103A200089819A81AB81BC812B2F3327442755276D
:103A3000F10125839D01442755272683892F9A2F3D
:103A4000AB2FBB27878389818087F6C0D20112966E
:103A5000ED91FC91139780819181DB0111960C917E
:103A60000A50B9E0EB2EF12CE60EF71EDC015C9655
:103A7000CD90DC905D97CF01FB0166814781208569
:103A8000F6011995AFC1D20112964D915C91139731
:103A9000FA0120813181DB011996FC911997E0E050
:103AA0001A968C9190E0E82BF92BA5E0CA2ED12C28
:103AB000C20CD31CD9015E96AD90BC905F97CA0131
:103AC000DB0116966C91169717964C9117971B96DB
:103AD0002C911B9718960C917F01F50119957C018B
:103AE000F3012085C201B301A10130E0DFC0D201A2
:103AF0001296ED91FC911397A081B18190962D9132
:103B00003C919197CF01F3016681F90119956AC142
:103B1000D2011296ED91FC911397A081B1811E966E
:103B20002D913C911F97CF01FB016681F9011995F9
:103B30008AC9D2011296ED91FC911397A081B181AF
:103B400050962D913C915197CF01FB0166814781A1
:103B5000F901199578C9DB0117962C91179730E078
:103B600040E050E0522F44273327222718968C91AB
:103B700090E0A0E0B0E0DC0199278827282B392BC2
:103B80004A2B5B2BF301828590E0A0E0B0E0282B6C
:103B9000392B4A2B5B2B818590E0A0E0B0E0BA2F57
:103BA000A92F982F8827282B392B4A2B5B2B19827A
:103BB0001A821B821C82F201A281B381ED91FC91D9
:103BC00011970488F589E02DCD01D30116966C91EB
:103BD0008E010F5F1F4F19957C0189819A81AB81FE
:103BE000BC812B2F332744275527F10125839D01C5
:103BF000442755272683892F9A2FAB2FBB278783EE
:103C000089818087C201B301A10124E030E000E096
:103C100010E04DC0D2011296ED91FC911397A08156
:103C2000B18152962D913C915397CF01FB01668152
:103C30004781F90119957C01C201B301A10124E07A
:103C400030E034C0D2011296ED91FC911397DB0164
:103C500017964C9117970081118111968C9190E0E5
:103C60000B97642F70E00E94882D262F7AE0C72ED4
:103C7000D12CC60CD71C65E0A62EB12CA20CB31C0F
:103C8000D80156968D909C905797CF01F30166818D
:103C90000085E184F40119957C01D30111962C91E2
:103CA00030E02B503040C201B301A10187010E94D6
:103CB0000614A9C0F20182819381DC01ED91FC918F
:103CC000E25BFF4F84C0BDB7BF83EEB7E88756E025
:103CD000A52EB12CA60EB71EDB0116968C9190E096
:103CE0009C01220F331FEDB7FEB7E21BF30B0FB69B
:103CF000F894FEBF0FBEEDBF2DB73EB72F5F3F4F0D
:103D0000FC013796E60FF71F49016901B90140E050
:103D100050E00DC0308120E0818190E0822B932B18
:103D2000DB018D939D93BD014F5F5F4F3296D501AF
:103D30008C9190E0481759076CF3EE24FF2415C0CE
:103D4000D801ED91FC91E258FF4FD6014D915D9164
:103D50006D0160E070E00190F081E02DC8012AE083
:103D600030E019950894E11CF11CF5016081862F63
:103D700090E0D20112960D911C911397E816F90666
:103D8000FCF2D801ED91FC91E05BFF4FA301495F8C
:103D90005F4F0190F081E02DC801940119957C01DD
:103DA000C201B301A10197010E9441142F813885FE
:103DB000C9010FB6F8949EBF0FBE8DBF24C0F2019B
:103DC00082819381DC01ED91FC91EE5AFF4FD3018A
:103DD00011966C916750A3014A5F5F4F0190F0818B
:103DE000E02D19957C01C201B301A10197010E9448
:103DF000411409C0C201B301A10121E030E00E94D9
:103E00004114EE24FF24C701ED81FE810FB6F89422
:103E1000FEBF0FBEEDBF28960FB6F894DEBF0FBEF3
:103E2000CDBFCF91DF911F910F91FF90EF90DF9069
:103E3000CF90BF90AF909F908F907F906F905F904A
:103E40004F903F902F9008951F920F920FB60F92B0
:103E500011242F933F938F939F93AF93BF938091A0
:103E60007A0890917B08A0917C08B0917D083091F0
:103E70007E080196A11DB11D232F2D5F2D3720F047
:103E80002D570196A11DB11D20937E0880937A08BD
:103E900090937B08A0937C08B0937D08809176086E
:103EA00090917708A0917808B09179080196A11DAA
:103EB000B11D8093760890937708A0937808B0930B
:103EC0007908BF91AF919F918F913F912F910F9062
:103ED0000FBE0F901F9018958FB7F89420917A0815
:103EE00030917B0840917C0850917D088FBFB901CB
:103EF000CA0108959B01AC017FB7F89480917608C0
:103F000090917708A0917808B091790866B5A89B40
:103F100005C06F3F19F00196A11DB11D7FBFBA2FDB
:103F2000A92F982F8827860F911DA11DB11D62E032
:103F3000880F991FAA1FBB1F6A95D1F7BC012DC01E
:103F4000FFB7F8948091760890917708A09178084F
:103F5000B0917908E6B5A89B05C0EF3F19F001962E
:103F6000A11DB11DFFBFBA2FA92F982F88278E0F33
:103F7000911DA11DB11DE2E0880F991FAA1FBB1F53
:103F8000EA95D1F7861B970B885E9340C8F22150C3
:103F900030404040504068517C4F2115310541056B
:103FA000510571F60895789484B5826084BD84B516
:103FB000816084BD85B5826085BD85B5816085BD24
:103FC000EEE6F0E0808181608083E1E8F0E010823D
:103FD000808182608083808181608083E0E8F0E07E
:103FE000808181608083E1EBF0E080818460808368
:103FF000E0EBF0E0808181608083E1E9F0E08081A6
:1040000082608083808181608083E0E9F0E080814C
:1040100081608083E1EAF0E080818260808380813A
:1040200081608083E0EAF0E0808181608083E1E26A
:10403000F1E0808182608083808181608083E0E222
:10404000F1E0808181608083EAE7F0E08081846034
:104050008083808182608083808181608083808191
:10406000806880831092C100089580939D02089516
:10407000382F863308F0365320917B00832F8695A6
:104080008695869590E08170907043E0880F991F27
:104090004A95E1F7277F282B20937B00377080918A
:1040A0009D028295880F880F807C832B80937C00F3
:1040B00080917A00806480937A0080917A0086FDF6
:1040C000FCCF2091780040917900942F80E030E07F
:1040D000282B392BC90108951F93CF93DF93182FF5
:1040E000EB0161E0D7D0209709F4CAC0CF3FD105DA
:1040F00009F4C9C0E12FF0E0E254FE4F8491893009
:1041000009F466C08A30B0F48430F1F1853040F4AF
:10411000823059F1833070F5813009F0AEC020C093
:10412000873009F443C0883008F048C0863009F071
:10413000A4C034C08D3009F478C08E3038F48B3090
:1041400009F45AC08C3008F066C04CC0803109F4C4
:1041500080C0813109F487C08F3009F08EC06FC0F4
:1041600084B5806884BDC7BD91C084B5806284BDBC
:10417000C8BD8CC080918000806880938000D093FF
:104180008900C093880082C0809180008062809303
:104190008000D0938B00C0938A0078C08091B000DB
:1041A00080688093B000C093B30070C08091B0006D
:1041B00080628093B000C093B40068C0809190008A
:1041C000806880939000D0939900C09398005EC05F
:1041D00080919000806280939000D0939B00C09368
:1041E0009A0054C080919000886080939000D09392
:1041F0009D00C0939C004AC08091A000806880937D
:10420000A0008091A0008F7B8093A000D093A90094
:10421000C093A8003BC08091A00080628093A00062
:10422000D093AB00C093AA0031C08091A0008860F9
:104230008093A000D093AD00C093AC0027C08091C4
:104240002001806880932001D0932901C093280128
:104250001DC080912001806280932001D0932B01AA
:10426000C0932A0113C080912001886080932001AF
:10427000D0932D01C0932C0109C0C038D1051CF486
:10428000812F60E002C0812F61E0B7D0DF91CF9134
:104290001F910895CF93DF93482F50E0CA018858AB
:1042A0009E4FFC0134914E5C5E4FFA01849188234D
:1042B00069F190E0880F991FFC01EC51FF4FA59127
:1042C000B491FC01E250FF4FC591D491662351F4A3
:1042D0002FB7F8948C91932F909589238C93888194
:1042E00089230BC0623061F42FB7F8948C91932F1F
:1042F000909589238C938881832B88832FBF06C058
:104300009FB7F8948C91832B8C939FBFDF91CF91B3
:104310000895893009F449C08A30A0F4843051F1FD
:10432000853040F4823079F1833000F5813009F036
:1043300063C026C0873079F1883098F5863009F05F
:104340005BC025C08D3009F442C08E3028F48B301C
:10435000B1F18C30C0F52DC0803109F442C08131FB
:1043600009F445C08F3009F047C037C08091800004
:104370008F7703C0809180008F7D809380000895A7
:1043800084B58F7702C084B58F7D84BD08958091F8
:10439000B0008F7703C08091B0008F7D8093B00014
:1043A0000895809190008F7707C0809190008F7D55
:1043B00003C080919000877F809390000895809142
:1043C000A0008F7707C08091A0008F7D03C08091EF
:1043D000A000877F8093A0000895809120018F77AF
:1043E00003C0809120018F7D8093200108958091EA
:1043F0002001877F809320010895FF920F931F93E0
:10440000F62E482F50E0CA0182549E4FFC012491A1
:10441000CA0188589E4FFC0114914E5C5E4FFA0110
:1044200004910023C1F0222311F0822F72DFE02FCC
:10443000F0E0EE0FFF1FE250FF4FA591B4919FB740
:10444000F894FF2021F48C911095812302C08C9167
:10445000812B8C939FBF1F910F91FF9008950F9315
:104460001F93482F50E0CA0182549E4FFC012491B3
:10447000CA0188589E4FFC0104914E5C5E4FFA01C0
:104480001491112319F420E030E014C0222311F01C
:10449000822F3FDF812F90E0880F991F885E9E4F0B
:1044A000FC01A591B4918C9120E030E0802311F0C3
:1044B00021E030E0C9011F910F9108958F929F92E2
:1044C000AF92BF92CF92DF92EF92FF920F931F9322
:1044D000CF93DF93A82FB0E0CD0188589E4FFC0109
:1044E0008490AE5CBE4FFD018491662311F4992443
:1044F00001C0982C6FEFA62E6FEFB62E6FEFC62E71
:104500006FE0D62EA222B322C422D522682F70E0FB
:10451000660F771F685E7E4FEE24FF248701FB0144
:10452000A591B4910BC0EA14FB040C051D0509F418
:104530004EC00894E11CF11C011D111D8C918821B5
:10454000891589F30CC0EA14FB040C051D0509F458
:104550003EC00894E11CF11C011D111D03C0FB01AC
:10456000A591B4918C918821891569F720E030E0FC
:1045700040E050E0FB01C591D4910FC0DA01C901C0
:104580008E0D9F1DA01FB11F8A159B05AC05BD0593
:10459000F1F02F5F3F4F4F4F5F4F88818821891582
:1045A00069F3CA01B90125E130E040E050E00E9422
:1045B0005D2D9B01AC01205F3F4F4F4F5F4F84E06B
:1045C00056954795379527958A95D1F704C020E0F1
:1045D00030E040E050E0B901CA01DF91CF911F9176
:1045E0000F91FF90EF90DF90CF90BF90AF909F9092
:1045F0008F90089508951F920F920FB60F920BB6E9
:104600000F9211242F933F934F938F939F93EF9388
:10461000FF938091C00082FD1DC04091C600209193
:10462000BF083091C0082F5F3F4F2F7330708091CB
:10463000C1089091C2082817390771F0E091BF08AE
:10464000F091C008E158F74F40833093C0082093A1
:10465000BF0802C08091C600FF91EF919F918F919A
:104660004F913F912F910F900BBE0F900FBE0F9067
:104670001F90189508951F920F920FB60F920BB6C8
:104680000F9211242F933F934F938F939F93EF9308
:10469000FF938091C80082FD1DC04091CE00209103
:1046A0004709309148092F5F3F4F2F733070809139
:1046B000490990914A092817390771F0E091470993
:1046C000F0914809E95FF64F408330934809209301
:1046D000470902C08091CE00FF91EF919F918F9189
:1046E0004F913F912F910F900BBE0F900FBE0F90E7
:1046F0001F90189508951F920F920FB60F920BB648
:104700000F9211242F933F934F938F939F93EF9387
:10471000FF938091D00082FD1DC04091D600209172
:10472000CF093091D0092F5F3F4F2F7330708091A8
:10473000D1099091D2092817390771F0E091CF097A
:10474000F091D009E157F64F40833093D009209380
:10475000CF0902C08091D600FF91EF919F918F9178
:104760004F913F912F910F900BBE0F900FBE0F9066
:104770001F90189508951F920F920FB60F920BB6C7
:104780000F9211242F933F934F938F939F93EF9307
:10479000FF938091300182FD1DC040913601209130
:1047A000570A3091580A2F5F3F4F2F733070809116
:1047B000590A90915A0A2817390771F0E091570A5F
:1047C000F091580AE95EF54F40833093580A2093E0
:1047D000570A02C080913601FF91EF919F918F910E
:1047E0004F913F912F910F900BBE0F900FBE0F90E6
:1047F0001F901895E091AB0AF091AC0AE05CFF4F76
:104800008191919120813181821B930B8F739070E4
:10481000892B09F0EFDEE091CD0AF091CE0AE05C41
:10482000FF4F8191919120813181821B930B8F7376
:104830009070892B09F01EDFE091EF0AF091F00AE9
:10484000E05CFF4F8191919120813181821B930B1C
:104850008F739070892B09F04DDFE091110BF0916F
:10486000120BE05CFF4F8191919120813181821B7D
:10487000930B8F739070892B09F07CCF08951F9252
:104880000F920FB60F920BB60F9211242F933F93F6
:104890008F939F93EF93FF93209103093091040925
:1048A00080910509909106092817390731F4809104
:1048B000C1008F7D8093C10014C0E0910509F09183
:1048C0000609ED53F74F2081809105099091060963
:1048D00001968F7390709093060980930509209339
:1048E000C600FF91EF919F918F913F912F910F9073
:1048F0000BBE0F900FBE0F901F9018951F920F9236
:104900000FB60F920BB60F9211242F933F938F93F4
:104910009F93EF93FF9320918B0930918C098091A5
:104920008D0990918E092817390731F48091C900BB
:104930008F7D8093C90014C0E0918D09F0918E099C
:10494000E55BF64F208180918D0990918E0901964B
:104950008F73907090938E0980938D092093CE0071
:10496000FF91EF919F918F913F912F910F900BBEEF
:104970000F900FBE0F901F9018951F920F920FB6B9
:104980000F920BB60F9211242F933F938F939F9307
:10499000EF93FF932091130A3091140A8091150A26
:1049A0009091160A2817390731F48091D1008F7D34
:1049B0008093D10014C0E091150AF091160AED52CF
:1049C000F64F20818091150A9091160A01968F73F7
:1049D00090709093160A8093150A2093D600FF9149
:1049E000EF919F918F913F912F910F900BBE0F9060
:1049F0000FBE0F901F9018951F920F920FB60F9237
:104A00000BB60F9211242F933F938F939F93EF93A5
:104A1000FF9320919B0A30919C0A80919D0A90916E
:104A20009E0A2817390731F4809131018F7D8093D8
:104A3000310114C0E0919D0AF0919E0AE55AF54FAC
:104A4000208180919D0A90919E0A01968F739070AB
:104A500090939E0A80939D0A20933601FF91EF91D7
:104A60009F918F913F912F910F900BBE0F900FBE92
:104A70000F901F901895AF92BF92DF92EF92FF9226
:104A80000F931F93CF93DF93EC017A018B01DD2409
:104A9000403081EE580780E0680780E0780711F029
:104AA000DD24D39491E0A92EB12CEC89FD89DD2081
:104AB00069F0C50108A002C0880F991F0A94E2F7A7
:104AC000808360E079E08DE390E005C0108260E8CB
:104AD00074E88EE190E0A80197010E949B2D21507F
:104AE000304040405040569547953795279580E196
:104AF0002030380720F0DD2011F0DD24D6CFE88902
:104B0000F9893083EA89FB89208319A2EE89FF891C
:104B1000408121E030E0C9010C8C02C0880F991F50
:104B20000A94E2F7482B4083EE89FF894081C9014E
:104B30000D8C02C0880F991F0A94E2F7482B40831E
:104B4000EE89FF894081C9010E8C02C0880F991F30
:104B50000A94E2F7482B4083EE89FF8980810F8C0D
:104B600002C0220F331F0A94E2F7209528232083E6
:104B7000DF91CF911F910F91FF90EF90DF90BF9049
:104B8000AF900895CF93DF93DC011E968D919C9199
:104B90001F97EC01C05CDF4FFC01EE5BFF4F2881EB
:104BA00039818081918128173907C9F75696ED918F
:104BB000FC915797408121E030E0C9015C960C9050
:104BC0005C9702C0880F991F0A94E2F780958423AE
:104BD00080835696ED91FC9157974081C9015D966F
:104BE0000C905D9702C0880F991F0A94E2F7809598
:104BF000842380835696ED91FC9157974081C9019B
:104C00005E960C905E9702C0880F991F0A94E2F797
:104C10008095842380835696ED91FC9157978081EF
:104C20005F960C905F9702C0220F331F0A94E2F741
:104C30002095282320831C96ED91FC911D97EE5B17
:104C4000FF4F8081918192938293DF91CF9108955C
:104C5000DC011C96ED91FC911D97E05CFF4F2191CA
:104C6000319180819181281B390B2F733070C901DC
:104C70000895DC011C96ED91FC911D97E05CFF4FBF
:104C800020813181E054F040DF01AE5BBF4F8D9158
:104C90009C9111972817390719F42FEF3FEF07C0A0
:104CA0008D919C91E80FF91F8081282F30E0C90178
:104CB0000895DC011C96ED91FC911D97E05CFF4F7F
:104CC00020813181E054F040DF01AE5BBF4F8D9118
:104CD0009C9111972817390719F42FEF3FEF10C057
:104CE0008D919C911197E80FF91F20818D919C91D6
:104CF000119701968F73907011969C938E9330E06C
:104D0000C9010895DC0191968C919197882339F01F
:104D10005496ED91FC915597808186FFF9CF91963D
:104D20001C920895CF93DF93EC01EE85FF85E05C44
:104D3000FF4F20813181E054F0402F5F3F4F2F73B0
:104D40003070DF01AE5BBF4F8D919C91119728179A
:104D50003907D1F3E05CFF4F80819181E054F0404E
:104D6000E80FF91F6083EE85FF85E05CFF4F31831C
:104D70002083EE89FF89208181E090E00F8C02C0C2
:104D8000880F991F0A94E2F7282B208381E089A3DA
:104D9000EC89FD8980818064808381E090E0DF91EF
:104DA000CF9108951F931092A20A1092A10A28EEA3
:104DB00033E040E050E02093A30A3093A40A4093EC
:104DC000A50A5093A60A67E775E07093A00A60935E
:104DD0009F0A8FE798E09093AC0A8093AB0A83EC2C
:104DE00098E09093AE0A8093AD0A85EC90E09093A2
:104DF000B00A8093AF0A84EC90E09093B20A80935B
:104E0000B10A80EC90E09093B40A8093B30A81ECED
:104E100090E09093B60A8093B50A82EC90E090936C
:104E2000B80A8093B70A86EC90E09093BA0A809310
:104E3000B90A14E01093BB0AB3E0B093BC0AA7E030
:104E4000A093BD0AF5E0F093BE0AE1E0E093BF0A4B
:104E50001092C40A1092C30A2093C50A3093C60A5E
:104E60004093C70A5093C80A7093C20A6093C10A5C
:104E700087E099E09093CE0A8093CD0A8BE499E085
:104E80009093D00A8093CF0A8DEC90E09093D20A51
:104E90008093D10A8CEC90E09093D40A8093D30A4B
:104EA00088EC90E09093D60A8093D50A89EC90E044
:104EB0009093D80A8093D70A8AEC90E09093DA0A0C
:104EC0008093D90A8EEC90E09093DC0A8093DB0A01
:104ED0001093DD0AB093DE0AA093DF0AF093E00A94
:104EE000E093E10A1092E60A1092E50A2093E70A9D
:104EF0003093E80A4093E90A5093EA0A7093E40A6F
:104F00006093E30A8FE899E09093F00A8093EF0AA8
:104F100083ED99E09093F20A8093F10A85ED90E099
:104F20009093F40A8093F30A84ED90E09093F60A4C
:104F30008093F50A80ED90E09093F80A8093F70A49
:104F400081ED90E09093FA0A8093F90A82ED90E067
:104F50009093FC0A8093FB0A86ED90E09093FE0A02
:104F60008093FD0A1093FF0AB093000BA093010BEE
:104F7000F093020BE093030B1092080B1092070BB7
:104F80002093090B30930A0B40930B0B50930C0B9F
:104F90007093060B6093050B87E19AE09093120BD8
:104FA0008093110B8BE59AE09093140B8093130B75
:104FB00085E391E09093160B8093150B84E391E0C9
:104FC0009093180B8093170B80E391E090931A0B4A
:104FD0008093190B81E391E090931C0B80931B0B42
:104FE00082E391E090931E0B80931D0B86E391E08A
:104FF0009093200B80931F0B1093210BB093220BE7
:10500000A093230BF093240BE093250B1F9108959D
:10501000CF93DF930E94D31F0E943801CAEFD3E2DF
:105020000E9434012097E1F3E5DBFACF089510C424
:105030000895CF92DF92EF92FF920F931F93CF9339
:10504000DF937C016B018A01C0E0D0E00FC0D60184
:105050006D916D01D701ED91FC910190F081E02DF2
:10506000C7011995C80FD91F01501040011511052E
:1050700071F7CE01DF91CF911F910F91FF90EF90CB
:10508000DF90CF900895CF93DF93EC010E946C1FC7
:10509000688779878A879B87E881F9810680F7810D
:1050A000E02DCE0119959C0197FF15C00E946C1F41
:1050B000288539854A855B85621B730B840B950BAC
:1050C0002C813D814E815F816217730784079507AC
:1050D00018F32FEF3FEFC901DF91CF910895CF92E1
:1050E000DF92EF92FF920F931F93CF93DF936C01A8
:1050F0008B017A01C0E0D0E008C0C601C4DF97FD93
:1051000007C0F80181938F012196CE15DF05A8F322
:10511000CE01DF91CF911F910F91FF90EF90DF9023
:10512000CF9008958230B9F0833028F4882351F06D
:10513000813051F50AC0843011F18430E8F08530B7
:1051400019F520C010926E00089580916F008D7F38
:1051500080936F000895809170008D7F8093700020
:1051600081E08093B0008091B100887F846080935B
:10517000B1001092B300089510927100089510923A
:10518000720008951092730008951F93182F809154
:105190009E02811711F09FEF06C0E4E0F2E09491C7
:1051A0008FEF80939E02892FBDDF812F60E025D98C
:1051B0001F9108951F920F920FB60F920BB60F9288
:1051C00011242F933F934F935F936F937F938F930C
:1051D0009F93AF93BF93EF93FF938091350B909183
:1051E000360BA091370BB091380B0097A105B10594
:1051F00051F1E091390BF0913A0B808190913B0B8A
:10520000892780838091350B9091360BA091370BC5
:10521000B091380B181619061A061B06BCF48091BB
:10522000350B9091360BA091370BB091380B01974D
:10523000A109B1098093350B9093360BA093370BDE
:10524000B093380B03C080919E029FDFFF91EF91D6
:10525000BF91AF919F918F917F916F915F914F918E
:105260003F912F910F900BBE0F900FBE0F901F908C
:1052700018952F923F925F926F927F928F929F929A
:10528000AF92BF92CF92DF92EF92FF920F931F9354
:10529000DF93CF9300D00F92CDB7DEB7A82F1B01BD
:1052A00029833A834B835C8380919E028A1721F481
:1052B000E4E0F2E0549003C18F3F09F0B3C2A09341
:1052C0009E02E4E0F2E054902FEF521609F4AAC2D5
:1052D00082E0581609F45BC085153CF0552089F032
:1052E00091E0591609F0EBC02CC0B4E05B1609F44C
:1052F0009AC05B160CF471C0E5E05E1609F0DFC0E1
:10530000B8C014BC15BC84B5826084BD85B581600D
:1053100085BD2A2F30E0F901EE5CFE4FE491F0E00C
:10532000EE0FFF1FE250FF4F8591949190932C0B4D
:1053300080932B0B28583E4FF901849180932D0BBD
:10534000C0C010928000109281008091810088601E
:1053500080938100809181008160809381002A2F59
:1053600030E0F901EE5CFE4FE491F0E0EE0FFF1F3C
:10537000E250FF4F859194919093330B8093320BC1
:1053800028583E4FF90184918093340B9AC01092B3
:10539000B0001092B1008091B00082608093B000A4
:1053A0008091B10081608093B1002A2F30E0F90133
:1053B000EE5CFE4FE491F0E0EE0FFF1FE250FF4F76
:1053C0008591949190933A0B8093390B28583E4FD6
:1053D000F901849180933B0B74C01092900010925D
:1053E000910080919100886080939100809191005C
:1053F0008160809391002A2F30E0F901EE5CFE4F2E
:10540000E491F0E0EE0FFF1FE250FF4F8591949181
:105410009093410B8093400B28583E4FF9018491A3
:105420008093420B4EC01092A0001092A100809178
:10543000A10088608093A1008091A1008160809389
:10544000A1002A2F30E0F901EE5CFE4FE491F0E07C
:10545000EE0FFF1FE250FF4F859194919093480B00
:105460008093470B28583E4FF90184918093490B54
:1054700028C01092200110922101809121018860A2
:1054800080932101809121018160809321012A2F45
:1054900030E0F901EE5CFE4FE491F0E0EE0FFF1F0B
:1054A000E250FF4F8591949190934F0B80934E0B58
:1054B00028583E4FF90184918093500B02C057FC4D
:1054C000B1C18A2F61E00E944A21552021F0F2E00B
:1054D0005F1609F0B7C031018824992460E072E1B9
:1054E0008AE790E0A401930148D359016A0186013B
:1054F00075010894E108F108010911092FEFE2167E
:10550000F1040105110509F008F493C060E472E4A8
:105510008FE090E0A401930130D379018A010894CF
:10552000E108F1080109110982E05816B9F49FEF6A
:10553000E916F1040105110509F008F47FC060E9DE
:1055400070ED83E090E0A401930117D379018A0103
:105550000894E108F1080109110983E0AFEFEA16A8
:10556000F1040105110509F008F464C068E478EE5F
:1055700081E090E0A401930100D379018A010894AD
:10558000E108F10801091109552011F483E01CC05C
:10559000B2E05B1611F084E017C0EFEFEE16F104F5
:1055A0000105110509F008F43BC164E274EF80E0E5
:1055B00090E0A4019301E1D279018A010894E10805
:1055C000F1080109110985E0FFEFEF16F10401056B
:1055D000110581F178F162E17AE780E090E0A401C1
:1055E0009301CBD279018A010894E108F1080109FD
:1055F0001109552011F086E001C084E02FEFE2167A
:10560000F10401051105B1F0A8F0C601B50120E0D3
:1056100034E040E050E0B1D279018A010894E10819
:10562000F10801091109552011F087E008C085E053
:1056300003C081E0552019F485BD56C082E08093F7
:10564000B10052C05101CC24DD2460E072E18AE750
:1056500090E0A601950191D279018A010894E108B0
:10566000F1080109110980E0E81680E0F80681E000
:10567000080780E0180710F491E00FC068E478EEA6
:1056800081E090E0A601950178D279018A01089421
:10569000E108F1080109110993E0A1E05A1639F473
:1056A00080918100887F982B909381001DC0B3E08A
:1056B0005B1639F480919100887F982B909391002C
:1056C00013C0E4E05E1639F48091A100887F982B26
:1056D0009093A10009C0F5E05F1631F4809121019B
:1056E000887F982B9093210189819A81AB81BC811D
:1056F0000097A105B10529F48FEF9FEFAFEFBFEF42
:1057000011C0220C331CB10180E090E029813A8164
:105710004B815C81D2D128EE33E040E050E00BD2E7
:10572000C901DA01E2E05E16A9F1E5153CF0552069
:1057300081F0F1E05F1609F075C01AC024E052163E
:1057400009F44AC05216B4F1E5E05E1609F06AC0E9
:1057500055C0E7BC8093270B9093280BA093290B8F
:10576000B0932A0B80916E00826080936E005AC0C5
:10577000F0928900E092880080932E0B90932F0B7B
:10578000A093300BB093310B80916F0082608093B7
:105790006F0048C0E092B3008093350B9093360BB6
:1057A000A093370BB093380B809170008260809388
:1057B000700038C0F0929900E092980080933C0B02
:1057C00090933D0BA0933E0BB0933F0B80917100E3
:1057D00082608093710026C0F092A900E092A80038
:1057E0008093430B9093440BA093450BB093460BCF
:1057F0008091720082608093720014C0F09229013F
:10580000E092280180934A0B90934B0BA0934C0B92
:10581000B0934D0B8091730082608093730002C03F
:1058200084E00DCF0F900F900F900F90CF91DF91EC
:105830001F910F91FF90EF90DF90CF90BF90AF90AE
:105840009F908F907F906F905F903F902F900895E2
:105850000F931F93CF93DF93BC018230910510F417
:1058600062E070E0E091530BF091540B40E050E0A7
:10587000A0E0B0E024C08081918186179707D0F026
:105880008617970771F482819381109729F01396F8
:105890009C938E9312972CC09093540B8093530B30
:1058A00027C04115510519F08417950718F48D018B
:1058B000AC01EF01DF01828193819C01F9013097F6
:1058C000D1F641155105F9F0CA01861B970B8430BA
:1058D000910580F48A819B810115110521F0F80161
:1058E0009383828304C09093540B8093530BFE01E7
:1058F000329645C0FE01E80FF91F6193719302973C
:10590000998388833CC08091510B9091520B892BD5
:1059100041F48091A1029091A2029093520B809346
:10592000510B4091A3025091A4024115510541F43D
:105930004DB75EB780919F029091A002481B590B12
:105940002091510B3091520B24173507B0F4CA0146
:10595000821B930B8617970780F0AB014E5F5F4F5A
:105960008417950750F0420F531F5093520B4093EA
:10597000510BF9016193719302C0E0E0F0E0CF01B7
:10598000DF91CF911F910F910895CF93DF939C01E9
:10599000009709F48FC0EC0122971B821A82609154
:1059A000530B7091540B6115710581F488819981B5
:1059B000820F931F2091510B3091520B28173907FA
:1059C00039F5D093520BC093510B74C0DB0140E00A
:1059D00050E0AC17BD0708F1BB83AA83FE012191FB
:1059E0003191E20FF31FAE17BF0779F48D919C91AF
:1059F0001197280F391F2E5F3F4F39832883129646
:105A00008D919C9113979B838A834115510571F465
:105A1000D093540BC093530B4DC012968D919C9113
:105A20001397AD01009711F0DC01D3CFDA01139683
:105A3000DC93CE931297FA0121913191E20FF31F7B
:105A4000CE17DF0769F488819981280F391F2E5FEF
:105A50003F4FFA01318320838A819B819383828324
:105A6000E0E0F0E0DB0112968D919C911397009796
:105A700019F0BC01FD01F6CFAB014E5F5F4FDB01BA
:105A80008D919C91840F951F2091510B3091520B59
:105A90002817390779F4309729F41092540B109293
:105AA000530B02C013821282425050405093520B4B
:105AB0004093510BDF91CF910895629FD001739F66
:105AC000F001829FE00DF11D649FE00DF11D929F9A
:105AD000F00D839FF00D749FF00D659FF00D9927D9
