:100000002CC100005BC1000059C1000057C10000B5
:1000100055C1000053C1000051C100004FC1000094
:100020004DC100004BC1000049C1000047C10000A4
:1000300045C100000C94F12841C100003FC10000FF
:100040003DC1000020C5000039C1000037C10000DB
:1000500035C1000033C1000031C100000C94B61D51
:100060002DC100000C949C220C94D22227C10000C8
:1000700025C1000023C1000021C100001FC10000F4
:100080002FC500001BC1000019C1000017C10000EE
:100090000C9447230C947D2311C1000005C300007C
:1000A0000DC100000BC1000048C5000007C10000E1
:1000B00005C1000003C1000001C100006BC50000C4
:1000C000FDC00000FBC00000F9C000000C94F2234A
:1000D0000C942824F3C000000C949D240C94D32489
:1000E000EDC00000031F081F0D1F171F211F9A1FBF
:1000F0002B1F331F3B1F451F4F1F591F681F721FA8
:100100009A1F7C1F861F901FBC1FBF1FAE1FB21FF0
:10011000B81FF61FC31FC71FCD1FD11FD51FDB1F61
:10012000DF1FE31FF61FE91FED1FF11F00000A0B81
:1001300002090C0D0E080703040100000000000076
:1001400000000000000000000000000000000000AF
:10015000000000000000000012111000000000006C
:10016000000000000000000000000000000000008F
:1001700000000102102020080810204010204080BC
:10018000020102010804020101020408102040805B
:1001900080402010080402018004020180402010E9
:1001A0000804020108040201010204081020408032
:1001B0000102040810204080050505050705080810
:1001C0000808020202020A0A0808040404040101E1
:1001D00001010101010103030303030303030407F6
:1001E00007070C0C0C0C0C0C0C0C0202020206068D
:1001F0000606060606060B0B0B0B0B0B0B0B000083
:1002000020002300260029002C002F0032000001CE
:10021000000003010601090100002200250028005A
:100220002B002E00310034000201000005010801FE
:100230000B0100002100240027002A002D003000BF
:10024000330001010000040107010A0102007302EA
:100250001F130423AF235A24052511241FBECFEFFB
:10026000D1E2DEBFCDBF00E00CBF15E0A0E0B2E000
:10027000E0E5F6E500E00BBF02C007900D92AE3B53
:10028000B107D9F72BE0AEEBB5E001C01D92AB355D
:10029000B207E1F712E0CAE5D2E000E006C022971B
:1002A0000109FE010BBF0E94BE29CE34D10780E0B8
:1002B0000807A9F70E9449250C94262BA1CECF93BD
:1002C000DF9383EC90E00E945525EC01A1D5D093FB
:1002D000BF05C093BE0540E0BE0184E897E0DF9112
:1002E000CF910C94671184E897E00C94DC12CF93C3
:1002F000CFB7F8948091C005811127C0EDEEF1E0F1
:100300008491E7EAF1E09491E82FF0E0EE0FFF1F0F
:10031000EE5CFD4FA591B4918C91892321F461E0AD
:1003200085E30E94302061E085E30E94F71F8CB5D1
:1003300080618CBD8CB580648CBD61E084E30E94DB
:10034000F71F61E083E30E94F71F8091C0058F5F74
:100350008093C005CFBFCF9108958091F10590E0C3
:100360002091F205821B910908952091F205809158
:10037000F105281750F4E22FF0E0ED50FA4F80819C
:1003800090E02F5F2093F20508958FEF9FEF08957F
:10039000E091F2058091F105E81730F4F0E0ED50BE
:1003A000FA4F808190E008958FEF9FEF08950895B0
:1003B000CF92DF92EF92FF920F931F93CF93DF9331
:1003C0007C01CB018A012091CD05222389F0EB012C
:1003D0006B01C40ED51ECC15DD0561F06991D70106
:1003E000ED91FC910190F081E02DC7011995F3CFBB
:1003F000642F31D1C801DF91CF911F910F91FF90F0
:10040000EF90DF90CF900895CF93DF931F92CDB7F9
:10041000DEB769832091CD052223D1F02091CE054E
:10042000203240F021E030E0FC013383228380E081
:1004300090E014C08091CF05E82FF0E0E053FA4F30
:10044000998190838F5F8093CF058093CE0504C000
:1004500061E0CE010196FFD081E090E00F90DF9146
:10046000CF910895FC011382128248EE53E060E0C0
:1004700070E0448355836683778382E792E09183BB
:10048000808308951092F2051092F1051092CF0525
:100490001092CE052BC0862F413208F040E263EF68
:1004A00075E042D01092F2058093F105089581E045
:1004B0008093CD056093F0051092CF051092CE0584
:1004C00008950F93062F21E04091CE0560ED75E071
:1004D0008091F0056DD01092CF051092CE0510924C
:1004E000CD050F91089581EC95E0BCCF1092800668
:1004F00081E080937E0610927D0661E084E10E9497
:10050000302061E085E10E943020E9EBF0E080815D
:100510008E7F808380818D7F808388E48093B80084
:1005200085E48093BC000895413208F03FC090916B
:1005300080069111FCCF91E09093800620937E0677
:100540002FEF2093130610925806240F209357067E
:1005500090937F0690917F06880F892B80937F066A
:1005600080917D06813041F410927D0680917F0656
:100570008093BB0085EC01C085EE8093BC00809128
:1005800080068130E1F380915806841710F4409181
:10059000580629E536E0FB01D9018A2F821B841712
:1005A00018F48D918193F9CF842F089580E00895F8
:1005B0000F93413208F046C0909180069111FCCF14
:1005C00092E09093800600937E069FEF909313062F
:1005D0001092580640935706FB0169E576E0DB016F
:1005E0009A2F961B941718F491919D93F9CF10921E
:1005F0007F0690917F06880F892B80937F068091DC
:100600007D06813041F410927D0680917F068093B3
:10061000BB0085EC01C085EE8093BC00222321F055
:10062000809180068230E1F3809113068F3F61F064
:1006300080911306803251F080911306803341F48B
:1006400083E007C081E005C080E003C082E001C014
:1006500084E00F910895613298F42091800624304F
:1006600089F460933506FC0187E396E0DC012A2FCC
:10067000281B261718F421912D93F9CF80E00895B7
:1006800081E0089582E0089585ED8093BC0080911B
:10069000BC0084FDFCCF10928006089585EC809309
:1006A000BC001092800608951F920F920FB60F9211
:1006B00011240BB60F922F933F934F935F936F9339
:1006C0007F938F939F93AF93BF93EF93FF9380910B
:1006D000B900887F803609F49CC068F5883209F437
:1006E0005BC090F4803109F454C038F4882309F4D5
:1006F000F3C0883009F44DC0F2C0883109F44CC011
:10070000803209F45DC0EBC0803409F468C048F45D
:10071000803309F455C0883309F0E1C08093130693
:10072000A7C0803509F44FC0883509F45DC088340E
:1007300009F0D5C0D3C0883909F4C4C0A8F48837FB
:1007400009F467C038F4883609F463C0803709F4C7
:1007500060C0C5C0883809F4B5C0803909F45FC0ED
:10076000803809F0BCC05BC0803B09F483C038F41A
:10077000803A09F466C0883A09F47CC0B0C0803C75
:1007800009F4A4C0883C09F4A1C0883B09F487C0DF
:10079000A6C080917F0610C09091580680915706A0
:1007A000981770F5E091580681E08E0F80935806F7
:1007B000F0E0E75AF94F80818093BB0085EC83C05D
:1007C000809313068BC0E091580681E08E0F8093D2
:1007D00058068091BB00F0E0E75AF94F8083909172
:1007E0005806809157066BC0E091580681E08E0F45
:1007F000809358068091BB00F0E0E75AF94F808360
:1008000080917E0681116AC081E080937D0684EA32
:100810005EC083E08093800610921406CFCF809153
:100820001406803208F04EC0E091140681E08E0F6D
:10083000809314068091BB00F0E0EB5EF94F80835B
:10084000BDCF80911406803230F4E0911406F0E0C0
:10085000EB5EF94F108218DF6091140670E0E091B2
:100860007906F0917A0685E196E0199510921406C2
:1008700015DF35C084E08093800610923606109212
:100880003506E0917B06F0917C061995809135063E
:10089000811105C081E08093350610923706E09102
:1008A000360681E08E0F80933606F0E0E95CF94F62
:1008B00080818093BB009091360680913506981711
:1008C00008F47CCF85E88093BC0009C085EC809358
:1008D000BC001092800603C010921306D5DEFF9173
:1008E000EF91BF91AF919F918F917F916F915F91A8
:1008F0004F913F912F910F900BBE0F900FBE0F9015
:100900001F901895CF92DF92EF92FF920F931F9353
:10091000CF93DF936C018B017A01EC01CE57D94F55
:10092000888187FF04C0FB011182108223C02CE064
:100930002C9DC0012D9D900D11242881AC01420FEA
:10094000511D27FD5A952091810630E0421753072B
:100950008CF42881AC01420F511D27FD5A959A0154
:10096000FA01EE0FFF1FE20FF31FEA57F94F208144
:1009700026FD19C088818F5F88838CE08C9D900153
:100980008D9D300D11248881A901480F511D87FDCF
:100990005A958091810690E048175907B4F48881F0
:1009A0008C303CF112C02881820F911D27FD9A9551
:1009B000FC01EE0FFF1FE80FF91FEA57F94F808186
:1009C00060E08F730E943020D5CFF8018081918143
:1009D000049680349C4918F480E49CE904C0F80132
:1009E000808191810496F701918380838FEF8883C2
:1009F00041C0F801808191814881B901640F711D66
:100A000047FD7A95AB01FB01EE0FFF1FE40FF51FC9
:100A1000EA57F94F41815281840F951FF701918365
:100A200080838881A901480F511D87FD5A95FA01DD
:100A3000EE0FFF1FE40FF51FEA57F94F808186FF85
:100A400019C08881280F311D87FD3A95F901EE0FF5
:100A5000FF1FE20FF31FEA57F94F808161E08F73A8
:100A6000DF91CF911F910F91FF90EF90DF90CF908A
:100A70000C943020DF91CF911F910F91FF90EF9058
:100A8000DF90CF9008951F920F920FB60F9211240E
:100A90000BB60F922F933F934F935F936F937F9378
:100AA0008F939F93AF93BF93EF93FF9348E850E0EA
:100AB00064E870E081E090E025DFFF91EF91BF9165
:100AC000AF919F918F917F916F915F914F913F91E6
:100AD0002F910F900BBE0F900FBE0F901F90189587
:100AE0001F920F920FB60F9211240BB60F922F93F5
:100AF0003F934F935F936F937F938F939F93AF93A6
:100B0000BF93EF93FF9348E950E064E970E082E01F
:100B100090E0F8DEFF91EF91BF91AF919F918F919F
:100B20007F916F915F914F913F912F910F900BBEED
:100B30000F900FBE0F901F9018951F920F920FB637
:100B40000F9211240BB60F922F933F934F935F9305
:100B50006F937F938F939F93AF93BF93EF93FF9385
:100B600048EA50E064EA70E083E090E0CBDEFF9179
:100B7000EF91BF91AF919F918F917F916F915F9115
:100B80004F913F912F910F900BBE0F900FBE0F9082
:100B90001F9018951F920F920FB60F9211240BB64B
:100BA0000F922F933F934F935F936F937F938F9306
:100BB0009F93AF93BF93EF93FF9348E251E064E2BA
:100BC00071E080E090E09EDEFF91EF91BF91AF91E8
:100BD0009F918F917F916F915F914F913F912F9155
:100BE0000F900BBE0F900FBE0F901F901895209185
:100BF00081062033A0F431E0320F30938106FC01EE
:100C00002083822F90E0FC01EE0FFF1FE80FF91FF9
:100C1000EA57F94F88EB9BE09283818308952FEF89
:100C2000FC0120830895DF92EF92FF920F931F93B0
:100C3000CF93DF93EC01D62E7A018901888180332E
:100C400008F068C061E08D2D0E94F71F8881A82FF1
:100C5000B0E0FD01EE0FFF1FEA0FFB1FEA57F94F4F
:100C60002D2D2F739081907C922B908360E272E007
:100C70006E197F0977FF02C06D5F7F4F759567958D
:100C800075956795698340E659E0401B510B57FF06
:100C900002C04D5F5F4F55954795559547954A83DF
:100CA0006CE00E9451299CE0899FB001112420E052
:100CB00030E0A901460F571FFA01EE0FFF1FE40FA6
:100CC000F51FEA57F94F908196FD18C02F5F3F4FEF
:100CD0002C30310571F790E08130910521F51092AB
:100CE000800082E080938100109285001092840041
:100CF000B19A80916F00826080936F00888190E04C
:100D0000FC01EE0FFF1FE80FF91FEA57F94F808132
:100D1000806480838881DF91CF911F910F91FF9034
:100D2000EF90DF9008958230910569F41092900061
:100D300082E080939100109295001092940088BBFD
:100D400080937100DBCF8330910569F41092A0008D
:100D500082E08093A1001092A5001092A40089BBAC
:100D600080937200CBCF892B49F61092200182E04C
:100D70008093210110922501109224018ABB809357
:100D80007300BCCF20E639E040E252E04CCFFC01DA
:100D9000808190E0FC01EE0FFF1FE80FF91FEA577A
:100DA000F94F80818F7B80830895FC01808180339F
:100DB00070F5918128E830E0291B310997FD3395C2
:100DC000220F331F220F331F621773077CF09281AB
:100DD00028E532E0291B310997FD3395220F331F97
:100DE000220F331F621773070CF49B012250310945
:100DF000220F331F4FB7F89490E0FC01EE0FFF1F56
:100E0000E80FF91FEA57F94F328321834FBF089546
:100E10001F93CF93DF93EC0194D082E892E0998303
:100E20008883B1E0BB8382E18C8382E793E09E8379
:100E30008D8312E01F8318861986A6E3AA8780E2B5
:100E400093E09C878B8720E12D8722E633E03F8764
:100E50002E872AE0288B40E45BE46CE470E0498B49
:100E60005A8B6B8B7C8B4D8B5E8B6F8B788FFE01DF
:100E7000E355FF4F26E533E031832083339710831A
:100E800031962AE533E03183208334961082118233
:100E90001282138234964083518362837383198E46
:100EA0001B8E1A8E2FE02C8F21E133E03E8F2D8F89
:100EB0001F8E19A218A224E02AA32EE332E03CA33D
:100EC0002BA340913A0250913B0260913C027091F9
:100ED0003D024DA35EA36FA378A734962DE0208337
:100EE00031962AE032E031832083B9A723E837E046
:100EF0003BA72AA7379622E837E031832083BCA797
:100F000020E133E03EA72DA7359727E020833196D7
:100F100020E532E031832083329622E432E03183CF
:100F200020831FA619AA18AAAAAB9CAB8BABCF53E0
:100F3000DF4F86E197E099838883DF91CF911F91FE
:100F40000895CF93DF93EC010E94991088E893E015
:100F50009983888382E08A83DF91CF910895EF920D
:100F6000FF920F931F93CF93DF9300D01F92CDB7C3
:100F7000DEB77C0119821A821B821C82DC01ED9192
:100F8000FC9102A0F3A1E02D8E010F5F1F4F20E026
:100F900032EC41E050E01995D701ED91FC91E25817
:100FA000FF4F0190F081E02D66E174E0C7011995D3
:100FB0000F900F900F900F90DF91CF911F910F9195
:100FC000FF90EF90089508950895CF93DF931F92B7
:100FD000CDB7DEB74983DC01ED91FC9102A4F3A506
:100FE000E02D9E012F5F3F4F41E019950F90DF915B
:100FF000CF910895FF920F931F93CF93DF93EC014E
:10100000F62E8A01F80141918F01442349F0E881CD
:10101000F98104A4F5A5E02D6F2DCE011995F2CF2D
:10102000DF91CF911F910F91FF900895DC01ED9119
:10103000FC9100A8F1A9E02D1994DC01ED91FC913F
:101040009A01442737FD4095542F06A8F7A9E02DB3
:101050001994DC01ED91FC919A0140E050E000AC64
:10106000F1ADE02D1994CF92DF92EF92FF920F93A2
:101070001F93CF93DF93EC01162F69017A0157FF7D
:101080000FC0E881F98104A4F5A5E02D4DE2199582
:10109000F094E094D094C094C11CD11CE11CF11CCC
:1010A000E881F981E457FF4F0190F081E02D0AE0DB
:1010B000A7019601612FCE011995DF91CF911F9164
:1010C0000F91FF90EF90DF90CF9008950F93DC0188
:1010D000ED91FC91E457FF4F0190F081E02D0AE083
:1010E00019950F9108951F93CF93DF93EC01162F5D
:1010F000E881F98104A4F5A5E02D4DE01995E8817A
:10110000F98104A4F5A5E02D4AE0612FCE01DF911D
:10111000CF911F9119941F93CF93DF93EC01162F5A
:10112000E881F98104A4F5A5E02D1995E881F981FC
:1011300004ACF5ADE02D612FCE01DF91CF911F9171
:1011400019941F93CF93DF93EC01162FE881F98157
:1011500006A4F7A5E02D1995E881F98104ACF5AD59
:10116000E02D612FCE01DF91CF911F9119941F9334
:10117000CF93DF93EC01162FE881F98100A8F1A944
:10118000E02D1995E881F98104ACF5ADE02D612FD2
:10119000CE01DF91CF911F9119941F93CF93DF93CD
:1011A000EC01162FE881F98102A8F3A9E02D199529
:1011B000E881F98104ACF5ADE02D612FCE01DF911E
:1011C000CF911F9119941F93CF93DF93EC01162FAA
:1011D000E881F98106A8F7A9E02D1995E881F98140
:1011E00004ACF5ADE02D612FCE01DF91CF911F91C1
:1011F00019941F93CF93DF93EC01162FE881F981A7
:1012000000ACF1ADE02D1995E881F98104ACF5ADA4
:10121000E02D612FCE01DF91CF911F911994FF92A4
:101220000F931F93CF93DF93EC01F62EE881F981A2
:1012300002ACF3ADE02D1995E881F98104ACF5AD70
:10124000E02D6F2DCE01DF91CF911F910F91FF9077
:10125000199481E090E0089581E090E0089581E0A4
:1012600090E0089581E090E0089581E090E0089595
:101270000895089508950895089508950895089586
:101280000895089508950895089508950895089576
:101290000F931F93DC01ED91FC910115110539F4B9
:1012A00004A4F5A5E02D422F1F910F9119940A3047
:1012B000110531F406A8F7A9E02D1F910F9119949B
:1012C000E457FF4F0190F081E02D19951F910F9188
:1012D00008952F923F924F925F926F927F928F92DA
:1012E0009F92AF92BF92CF92DF92EF92FF920F93B5
:1012F0001F93CF93DF93CDB7DEB7A0970FB6F894C7
:10130000DEBF0FBECDBF5C01162FCA01B90121158A
:1013100031054105510511F5D501ED91FC9104A46C
:10132000F5A5E02D40E3612FC501A0960FB6F89416
:10133000DEBF0FBECDBFDF91CF911F910F91FF9008
:10134000EF90DF90CF90BF90AF909F908F907F9065
:101350006F905F904F903F902F901994FE013196BF
:101360004F01C12CD12C76013F01202E312C412C74
:10137000512CFFEFCF1ADF0AEF0AFF0AA2019101F9
:101380000E947029D4016D934D01B901CA01611504
:1013900071058105910569F7B1E0CB1AD108E10823
:1013A000F108D501ED91FC9104A4F5A5E02DD30140
:1013B000AC0DBD1D4C914A3010F4405D01C0495C3C
:1013C000612FC5011995B1E0CB1AD108E108F108E8
:1013D000EFEFCE16DE06EE06FE0619F7A0960FB664
:1013E000F894DEBF0FBECDBFDF91CF911F910F915B
:1013F000FF90EF90DF90CF90BF90AF909F908F9035
:101400007F906F905F904F903F902F900895FC01D8
:101410008CE294E0918380838EEF8283138208951F
:101420008CB5411102C0806201C08F7D8CBD80E00F
:1014300090E0089580E090E0089581E090E00895C4
:10144000CF92DF92FF920F931F93CF93DF9300D041
:101450001F92CDB7DEB76C01F62EDC01ED91FC9149
:10146000E45BFF4F0190F081E02D29833A834B83A9
:101470005C831995D601ED91FC9102A0F3A1E02DBA
:1014800029813A814B815C816F2DC60119950F909E
:101490000F900F900F90DF91CF911F910F91FF90C0
:1014A000DF90CF900895CB01BA010C942F1E0C94BD
:1014B000001E0E94001E28EE33E040E050E00E9433
:1014C0007029CA01B90108954F925F927F928F925D
:1014D0009F92AF92BF92CF92DF92EF92FF920F93C3
:1014E0001F93CF93DF931F92CDB7DEB77C016A01C4
:1014F0008901F90110822A0178E0712CA62EB12C05
:1015000088E0882E912CC2018C199D098A159B05B3
:101510007CF5F20181912F0179830E94BA1EF701B7
:1015200060897981662379F3F7012089261BAC0154
:1015300002C0569547952A95E2F79A01A401471BE8
:101540005109042E01C0220F0A94EAF7F801E70DB1
:10155000F11D3081322B3083671710F4761BD3CF07
:10156000671B7394F801E70DF11D108278E0DACF64
:1015700080E090E00F90DF91CF911F910F91FF904D
:10158000EF90DF90CF90BF90AF909F908F907F9023
:101590005F904F900895AF92BF92CF92DF92EF92FB
:1015A000FF920F931F93CF93DF937901EA0100E03D
:1015B00010E0A62EB12C0A151B05FCF46E0161E0AB
:1015C00089910E94F71FF80193E0F595E7959A95A8
:1015D000E1F7EE0DFF1D608170E0C801877099276B
:1015E00002C0759567958A95E2F76170F601808172
:1015F0000E9430200F5F1F4FDECF80E090E0DF9130
:10160000CF911F910F91FF90EF90DF90CF90BF90FF
:10161000AF9008955F926F927F928F929F92AF9258
:10162000BF92CF92DF92EF92FF920F931F93CF93CF
:10163000DF93542E822E1E2D61E0802F0E94F71F13
:101640001170FF24F394F1266F2D802F0E9430201B
:10165000E12CC0E0D0E0912C652C712CC815D90587
:1016600024F5612F802F0E94302040E050E0461585
:101670005705A4F48E2D840F90E0F501E80FF91FB3
:10168000D601A80FB91F8C918EBD00000DB407FEC6
:10169000FDCF8EB580834F5F5F4FE9CF6F2D802FD9
:1016A0000E9430202196E50CD9CF80E090E0DF91B8
:1016B000CF911F910F91FF90EF90DF90CF90BF904F
:1016C000AF909F908F907F906F905F9008956F92F2
:1016D0007F929F92AF92BF92CF92DF92EF92FF9252
:1016E0000F931F93CF93DF931F92CDB7DEB78A017D
:1016F00079013A01B12CA12C28E0C62ED12CC301CE
:10170000801B910B8C159D05F4F4211108C0F70185
:10171000EA0DF11DB082A394B12C27E001C0215045
:10172000F30191903F0160E0892D29830E94F71F0A
:10173000892D0E9465202981022E01C0880F0A94FC
:10174000EAF7B82ADCCFF701EA0DF11DB08280E09C
:1017500090E00F90DF91CF911F910F91FF90EF904C
:10176000DF90CF90BF90AF909F907F906F90089543
:101770009F92AF92BF92CF92DF92EF92FF920F9320
:101780001F93CF93DF9300D01F92CDB7DEB7162FF4
:10179000842F922EA7019601813029F561E0812FD7
:1017A000C9823A834B835C830E94F71F61E0812FDB
:1017B0000E94302061E070E080E090E00E942F1EE7
:1017C00060E0812F0E94302061E070E080E090E0D6
:1017D0000E942F1E61E0812F0E94302029813A81D2
:1017E0004B815C8126C0823021F561E0812FC98266
:1017F0003A834B835C830E94F71F60E0812F0E9435
:10180000302061E070E080E090E00E942F1E61E0F7
:10181000812F0E94302061E070E080E090E00E9423
:101820002F1E60E0812F0E9430205C814B813A8125
:10183000298160E0892D29833A834B835C830E9450
:10184000F71F29813A814B815C81011102C060E060
:1018500003C0013049F461E0892D0E948D20F5011B
:10186000608371838283938380E090E00F900F9078
:101870000F900F90DF91CF911F910F91FF90EF90FC
:10188000DF90CF90BF90AF909F900895AF92BF929E
:10189000CF92DF92EF92FF920F931F93CF93DF933C
:1018A0007901EA018901A62EB12CC8018E199F0980
:1018B0008A159B0574F46E0161E089910E94F71FFF
:1018C000F80161918F0170E0F60180810E94DF1EB6
:1018D000ECCF80E090E0DF91CF911F910F91FF90CE
:1018E000EF90DF90CF90BF90AF9008950E94770166
:1018F00080E090E0089581549F4FDC01ED91FC91D0
:10190000E60FF11D8081882319F08F5F808304C06A
:1019100081EC95E00E94420280E090E00895FF9201
:101920000F931F93CF93DF93862FF42EB901E80115
:10193000811104C050E089EB98E011C0813021F49E
:1019400050E086E599E00BC0823021F450E083EF4F
:1019500099E005C0833031F450E080E99AE00E94BC
:10196000AA25888388818F1519F083E890E002C04A
:1019700080E090E0DF91CF911F910F91FF9008954B
:10198000611103C089EB98E00EC0613019F486E55F
:1019900099E009C0623019F483EF99E004C0633024
:1019A00021F480E99AE00E94802280E090E008958E
:1019B0003F924F925F926F927F928F929F92AF92DF
:1019C000BF92CF92DF92EF92FF920F931F93CF932C
:1019D000DF93EC016A018A01A62EB12C7C0181EC17
:1019E000E80EF11CC8018C199D098A159B050CF0A5
:1019F00042C0D8013D908D01632C712C4301880CAD
:101A0000991CD701ED91FC91E80DF91D8081918120
:101A1000892B41F783E090E00E9455252C01E7D8FF
:101A2000D701ED91FC911197E80DF91D518240828B
:101A3000ED91FC91E80DF91DB30180819181A2D94E
:101A4000E881F981E459FF4F0190F081E02D6AEBC4
:101A500074E0CE011995E881F981E857FF4F432DD5
:101A600050E060E070E00190F081E02D2AE030E08D
:101A7000CE011995B7CF80E090E0DF91CF911F9113
:101A80000F91FF90EF90DF90CF90BF90AF909F901D
:101A90008F907F906F905F904F903F9008956F92DE
:101AA0007F928F929F92AF92BF92CF92DF92EF92EE
:101AB000FF920F931F93CF93DF93EC015A016901BB
:101AC0008A01662E712C7C0181ECE80EF11CC801A4
:101AD0008A199B09861597050CF058C0E881F98191
:101AE000E459FF4F0190F081E02D68ED74E0CE01E4
:101AF0001995D8018C91E881F981E858FF4FD701F9
:101B00002C9111969C91A22FB92FA80FB11DA80F4F
:101B1000B11D4D915C91662757FD6095762F019020
:101B2000F081E02D2AE030E0CE011995E881F981BD
:101B3000E459FF4F0190F081E02D6FED74E0CE018C
:101B400019954601E881F981E857FF4FD6014D917B
:101B50005D916D0160E070E00190F081E02D2AE080
:101B600030E0CE011995F80181918F01D4016D917A
:101B70007C91F70120819181E22FF92FE80FF11D6F
:101B8000E80FF11D8081918110D9A1CF80E090E014
:101B9000DF91CF911F910F91FF90EF90DF90CF9049
:101BA000BF90AF909F908F907F906F900895CF924D
:101BB000DF92EF92FF920F931F93CF93DF937A01FF
:101BC0008A01C62ED12CEC01CF53DF4FC8018E19EC
:101BD0009F098C159D05DCF4F8018081288199818D
:101BE000E22FF92FE80FF11DE80FF11D808191819F
:101BF000CED8F80181918F0128819981E22FF92FA8
:101C0000E80FF11DE80FF11D11821082DFCF80E097
:101C100090E0DF91CF911F910F91FF90EF90DF90B7
:101C2000CF900895862FB90181110BC0E091B908BA
:101C3000F091BA0850E00280F381E02D89EB98E042
:101C400026C0813059F4E0915609F091570950E0CF
:101C50000280F381E02D86E599E019C0823059F4C5
:101C6000E091F309F091F40950E00280F381E02D56
:101C700083EF99E00CC0833059F4E091900AF09121
:101C8000910A50E00280F381E02D80E99AE01995F5
:101C900080E090E00895AF92BF92CF92DF92EF92F2
:101CA000FF920F931F93CF93DF9300D01F92CDB776
:101CB000DEB78C01613091F020F0623009F452C03F
:101CC00069C081E00E94B71EF80141895289638989
:101CD0007489458B568B678B708F41C0FC01E6552C
:101CE000FF4FE081EE2309F455C060E070E080E032
:101CF00090E0AE2EB12CD801A555BF4F01C0019682
:101D00008A159B050CF049C0ED90FC901197E60EEA
:101D1000F71EF701C080D180E280F3806C5F7F4FB7
:101D2000C216D306E406F50651F7880F991FF8018D
:101D3000E355FF4F0190F081E02DE80FF91F8081FE
:101D400029833A834B835C830E94B71E29813A81A1
:101D50004B815C81F801258B368B478B508F80E05F
:101D600090E01DC0FC01E155FF4FC080D180E280B2
:101D7000F3802C153D054E055F0578F03496C08044
:101D8000D180E280F380C216D306E406F50628F07F
:101D900080E0D6CF81E890E002C082E890E00F902A
:101DA0000F900F900F90DF91CF911F910F91FF90A7
:101DB000EF90DF90CF90BF90AF9008958F929F9259
:101DC000AF92BF92DF92EF92FF920F931F93CF9348
:101DD000DF9300D01F92CDB7DEB7D62E49015A014E
:101DE000A801970181149104A104B104C9F061E034
:101DF0008D2DE9823A834B835C830E94F71F2981F2
:101E00003A814B815C81211531054105510519F459
:101E100020E030E0A901B4018D2D0E94CC2503C043
:101E2000862F0E94DD2880E090E00F900F900F90A9
:101E30000F90DF91CF911F910F91FF90EF90DF9066
:101E4000BF90AF909F908F900895CB01642F0C941A
:101E5000182BCB010C94102B8F929F92AF92BF92B4
:101E6000CF92DF92EF92FF920F931F93CF93DF9366
:101E7000E801FC01E954FF4F008110E0C12CD12C96
:101E8000E0E0F0E07C0178EBE70EF11CE017F107F1
:101E900094F4D701AD90BC90AC0CBD1CD5018D90D5
:101EA0009D90AD90BC90B4E0CB0ED11C28153905A7
:101EB0004A055B0520F4309721F0319702C0319636
:101EC000E5CF611116C08F01000F111F000F111F08
:101ED0007C01E8EBEE0EF11CD701ED91FC91E00FD7
:101EE000F11F408151816281738126E089EB98E086
:101EF00047C06130B1F48F01000F111F000F111F97
:101F00007C01F8EBEF0EF11CD701ED91FC91E00F95
:101F1000F11F408151816281738126E086E599E05D
:101F20002FC06230B1F48F01000F111F000F111F7D
:101F30007C01F8EBEF0EF11CD701ED91FC91E00F65
:101F4000F11F408151816281738126E083EF99E026
:101F500017C0633029F58F01000F111F000F111FEB
:101F60007C01F8EBEF0EF11CD701ED91FC91E00F35
:101F7000F11F408151816281738126E080E99AE0FE
:101F80000E942022F701A081B181A00FB11F8D9185
:101F90009D910D90BC91A02D88839983AA83BB83CA
:101FA00080E090E0DF91CF911F910F91FF90EF9033
:101FB000DF90CF90BF90AF909F908F9008959CB589
:101FC000937F982B9CBD0895413049F030F042300A
:101FD00041F0433041F48CE005C080E003C084E070
:101FE00001C088E0ECDF80E090E008952CB5982FE8
:101FF00093702C7F922B9CBD9DB582FB882780F926
:102000009E7F982B9DBD08952F923F924F925F9295
:102010006F927F928F929F92AF92BF92CF92DF92F8
:10202000EF92FF920F931F93CF93DF9300D000D0D6
:10203000CDB7DEB77C01C12CD12C1E821D823C01A4
:102040006AEB660E711C4C017BEB870E911C5C01E8
:102050008DEBA80EB11CD3018C9190E06D817E8137
:10206000681779070CF04AC0D401ED91FC91B601D4
:10207000660F771FE60FF71F208031804280538064
:102080002215330544055505A0F0F8012082318260
:10209000428253828D819E81880F991FF701E354FC
:1020A000FF4F0190F081E02DE80FF91F80819EDF46
:1020B00025C001976D817E8168177907A9F4D80141
:1020C0002D923D924D925C921397D501ED91FC912A
:1020D000EC0DFD1D808129833A834B835C8386DF71
:1020E0005C814B813A8129816D817E816F5F7F4F59
:1020F0007E836D8372E0C70ED11CADCF80E090E08F
:1021000026960FB6F894DEBF0FBECDBFDF91CF91FC
:102110001F910F91FF90EF90DF90CF90BF90AF9005
:102120009F908F907F906F905F904F903F902F90F7
:1021300008951F93CF93DF93EC0169D987EE94E064
:102140009983888382E08F831886198680E090E0E7
:102150000E94102B182F81E090E00E94102B212F5D
:1021600030E0322F2227282B3EAB2DABDF91CF91D1
:102170001F910895EF92FF920F93CF93DF931F92D9
:10218000CDB7DEB7642F81EC95E029830E9457021A
:10219000402F50E0B70181EC95E00E94D8012981E1
:1021A000211102C061E003C0213041F460E081EC04
:1021B00095E00E94610280E090E007C061E081EC60
:1021C00095E00E94610281E890E00F90DF91CF914D
:1021D0000F91FF90EF9008954F925F926F927F92D0
:1021E0008F929F92AF92BF92CF92DF92EF92FF9227
:1021F0000F931F93CF93DF93642F211102C021E02F
:1022000003C0213099F520E0402F81EC95E00E9439
:102210004B020E94001E4B015C0110E02701612C63
:10222000712C81EC95E00E94AD018017910774F448
:102230000E94001E681979098A099B0946165706EB
:102240006806790670F783E890E012C0E601CE01D7
:102250008C199D098017910734F481EC95E00E9458
:10226000B5018993F4CF80E090E002C081E890E06E
:10227000DF91CF911F910F91FF90EF90DF90CF9062
:10228000BF90AF909F908F907F906F905F904F9096
:102290000895CF93DF93EA01611103C089EB98E0C1
:1022A0000EC0613019F486E599E009C0623019F476
:1022B00083EF99E004C0633029F480E99AE00E943A
:1022C0001421888380E090E0DF91CF910895EF9210
:1022D000FF920F931F93CF93DF9300D01F92CDB740
:1022E000DEB77C01CB01642FD70113969C938E93AC
:1022F000129718964C9319821A821B821C82DC0159
:10230000ED91FC9102A0F3A1E02D8E010F5F1F4F14
:1023100020E835E240E050E01995F701E65DFE4F18
:1023200084E090E0918380830F900F900F900F9046
:10233000DF91CF911F910F91FF90EF9008958FEF54
:102340009FEF08958FEF9FEF0895CF92DF92EF9266
:10235000FF920F931F93CF93DF931F921F92CDB7DE
:10236000DEB77C011A82DC0112968D919C91139745
:10237000DC01ED91FC9106A0F7A1E02DAE014E5FCE
:102380005F4FD70118966C9119958A81823008F4B5
:1023900006C11982F701828193816701FAE0CF0EAD
:1023A000D11CDC01ED91FC9100A4F1A5E02D8E0182
:1023B0000F5F1F4F960142E0D70118966C91199557
:1023C000F701228582819381DC01ED91FC9106A0C9
:1023D000F7A1E02DAE014E5F5F4FD70118966C91CB
:1023E0002F3F09F0C9C019952A8130E0F701838594
:1023F00090E00297281739070CF458C0D7011296BD
:102400008D919C911397DC01ED91FC91D7011B9666
:102410004C911B97425000A4F1A5E02D8E010F5F57
:102420001F4F9701245F3F4F18966C911995B60185
:10243000C70167D1F701A281B381882309F489C05C
:10244000ED91FC911197E657FF4F0190F081E02D3F
:10245000A60161E0CD011995870106571F4FA8011C
:10246000B601C701ABD1D70112968D919C911397FC
:10247000DC01ED91FC91E657FF4F0190F081E02DDA
:10248000A80160E01995F70182819381DC01ED914B
:10249000FC91D701A557BF4F02A4F3A5E02D9801E9
:1024A0004C91D70118966C91199579C005E610E00A
:1024B0002A8130E0F701838590E0029728173907D9
:1024C0000CF09CCFD70112968D919C911397DC0153
:1024D000ED91FC9106A0F7A1E02DAE014E5F5F4F9C
:1024E000D70118966C91199501501109F701828155
:1024F0009381DC01ED91FC9101151105F9F406A021
:10250000F7A1E02DAE014E5F5F4FD70118966C9199
:102510001995F70182819381DC01ED91FC9100A472
:10252000F1A5E02D8E010F5F1F4F96014A81D70163
:1025300018966C9119958FEF9FEF33C0EE59FF4FAE
:102540000190F081E02D41E050E060E070E01995ED
:10255000AFCFED91FC91119726A137A1AE014E5F4F
:102560005F4FF7016085CD01F9011995D7011296EA
:102570008D919C91139704C01995F70182819381E5
:10258000DC01ED91FC9100A4F1A5E02D8E010F5F1F
:102590001F4F96014A81D70118966C91199580E0DA
:1025A00090E00F900F90DF91CF911F910F91FF90CE
:1025B000EF90DF90CF900895CF93DF93EC01C65D4D
:1025C000DE4F288139812530310579F026303105FB
:1025D000B1F024303105F1F4DC01ED91FC9100847F
:1025E000F185E02DDF91CF911994DC01ED91FC9103
:1025F0000284F385E02D1995198218820BC0DC0145
:10260000ED91FC910484F585E02D19958FEF9FEFF6
:102610000E94262BDF91CF910895CF93DF93EC0199
:1026200056D089E795E099838883FE01E65DFE4FE9
:10263000118210821F821E82DF91CF91089584E85B
:1026400097E0EBCF8FEF9FEF08958FEF9FEF089507
:102650008FEF9FEF08958FEF9FEF08958FEF9FEF1C
:1026600008958FEF9FEF08958FEF9FEF0895DC019E
:1026700014962D913C91159724303105B9F04CF406
:10268000232B11F5DC01ED91FC910190F081E02DFF
:102690001AC02530310589F026303105A9F4DC0156
:1026A000ED91FC910484F585E02D0DC0DC01ED91E8
:1026B000FC910084F185E02D06C0DC01ED91FC91D8
:1026C0000284F385E02D199480E890E00895FC01E0
:1026D0008DE995E0918380831582148280E881875B
:1026E0000895FB01218130E02150310980E0AF01E4
:1026F000461B570B421753071CF49191890FF7CFD4
:102700000895CF93DF93EB01ECDF9981C90FD11DC1
:10271000219791E02881821390E0892FDF91CF915A
:1027200008950F931F93CF93DF93FA014FEF4083E8
:1027300046E0420F4183DB0112964C91129742838F
:1027400013964C9143830F3F110509F010F4048355
:1027500002C043E04483E9012596CE0FDF1FBF018D
:10276000C0DF8883DF91CF911F910F9108950F9360
:102770001F93890120E030E0D4DF1F910F9108956D
:10278000EF92FF920F931F93CF93DF93D901EA014A
:102790002596F901202F30E08F010A1B1B0B021731
:1027A00013071CF411911993F7CF8701BADFDF915A
:1027B000CF911F910F91FF90EF9008952F923F922C
:1027C0004F925F926F927F928F929F92AF92BF9241
:1027D000CF92DF92EF92FF920F931F93CF93DF93ED
:1027E00000D000D0CDB7DEB73C014B012A012DB699
:1027F0003EB6DB0114962C91149730E0322F22273D
:1028000015968C91282B2115BCEF3B07C8F0198237
:10281000F901EB57FB4FEE0FFF1FE60DF71D9A0175
:102820002B5F3F4F6A5F7F4FD40111968C910190CF
:10283000F081E02DAE014F5F5F4F8750199558C76B
:102840002432310509F4CEC508F004C12231310526
:1028500009F4E3C208F07BC02A30310509F485C2CF
:1028600008F04FC02530310509F44BC258F423302D
:10287000310509F418C208F027C2232B09F4E0C778
:102880000C948E1D2830310509F459C208F062C23B
:102890002630310511F00C948E1DFB01208530E0AF
:1028A000322F2227442737FD4095542F8185282B2E
:1028B00019821A821B821C82D30112968D919C91DF
:1028C0001397DC01ED91FC9104A0F5A1E02D8E01A0
:1028D0000F5F1F4FD30118966C9119957C01F3017E
:1028E00082819381DC01ED91FC91EE59FF4F0190C3
:1028F000F081E02D48EE53E060E070E019950C9413
:10290000871DF301A281B3812E30310509F44AC23B
:1029100078F42C30310509F433C208F03AC25D96E0
:102920002D913C915E97E12CF12C5C960C9164C545
:102930002031310509F43FC208F046C29D962D9121
:102940003C919E97E12CF12C9C960C9155C52A3117
:10295000310509F4AAC350F5F301A281B3812631F0
:10296000310509F400C388F42431310509F48BC220
:1029700008F0DEC2D6968C91FA018583D3011296B7
:10298000ED91FC91139785A977C22831310509F49F
:1029900016C308F06AC3DC968C91FA018583D301D3
:1029A0001296ED91FC91139783AD66C22E313105DD
:1029B00009F42CC4D0F4D30112968D919C911397F5
:1029C0002C31310509F4A4C308F0FEC3FC01EF5B10
:1029D000FF4F8181FA018583D3011296ED91FC911D
:1029E0001397EF5BFF4F808147C22032310509F416
:1029F00038C408F427C42232310509F493C42332C1
:102A0000310511F00C948E1DD3011296ED91FC91BD
:102A10001397EA55FF4F8381FA0185831296ED9152
:102A2000FC911397EA55FF4F8281DA0116968C9339
:102A3000D3011296ED91FC911397EA55FF4F8181D6
:102A4000FA0187831296ED91FC911397EA55FF4F97
:102A5000808187C5213E310509F46EC608F0ACC0FF
:102A60002436310509F489C508F069C023343105DD
:102A700009F405C5B0F42134310509F4C2C408F0E5
:102A8000D6C42532310511F00C948E1DD301129657
:102A9000ED91FC91139723A934A9E12CF12C02A903
:102AA000ABC42036310509F423C52136310509F4BC
:102AB0003BC52434310511F00C948E1DF301828145
:102AC0009381DC01ED91FC91DB011A962C911A9710
:102AD0001B96CC901B97D12CE12CF12C7601DD2498
:102AE000CC24F22A1D962C911D97C22A1C962C915B
:102AF0001C97D22A0284F385E02D9E012F5F3F4F61
:102B0000590119960C91199716962C9116971896AB
:102B10004C91189717966C9119957C0189819A812F
:102B20002B813C81D20115963C93159716962C93D8
:102B3000169717969C93179718968C93B5C6223CB8
:102B4000310509F4A2C500F5203C310509F455C54D
:102B500008F06EC52338310509F0E0C7F301828122
:102B60009381DB0116966C91DC01ED91FC91262F8F
:102B700030E0295F3F4F280D391DA401495F5F4FA9
:102B80000484F585E02D37C5243C310509F4B3C52F
:102B900008F495C5253C310509F4C2C5203E310530
:102BA00009F0BCC7F30182819381DC01ED91FC91B6
:102BB000008CF18DE02D21C62730B1E03B0709F4F0
:102BC00077C6D8F52115F1E03F0709F41BC6B0F42C
:102BD000233E310509F4E9C508F4C9C5243E310591
:102BE00009F09CC7D30112968D919C911397DC013B
:102BF000ED91FC9100A0F1A1E02DFFC5223091E004
:102C0000390709F420C608F40BC62330314009F017
:102C100085C7D30112968D919C911397DC01ED919C
:102C2000FC910288F389E02DDB0117964C911797F0
:102C300016966C9119957C0137C62036E1E03E0767
:102C400009F4F4C6B8F4213481E0380709F468C601
:102C5000223491E0390709F4D5C62034314009F017
:102C60005DC7F30182819381DC01ED91FC91E25B10
:102C7000FF4FD0C62236B1E03B0709F414C708F471
:102C8000EFC62336F1E03F0709F434C7243631405C
:102C900009F044C7F30182819381DC01ED91FC913D
:102CA000E45AFF4F2FC7D3011296ED91FC91139771
:102CB0008281FA0185831296ED91FC9113978381AD
:102CC000DA0116968C93DAC0D3011296ED91FC913D
:102CD00013978781FA0185831296ED91FC911397E2
:102CE0008085DA0116968C93D3011296ED91FC91B2
:102CF00013978185FA01878300E010E023E030E03C
:102D000037C4D3011296ED91FC91139780A5FA0177
:102D100085831296ED91FC91139787A1DA0116969F
:102D20008C93D3011296ED91FC91139786A1FA0131
:102D300087831296ED91FC91139785A112C4D3015C
:102D40001296ED91FC91139723853485E12CF12C9B
:102D5000028552C3D3011296ED91FC9113972685FB
:102D60003785E12CF12C058547C3D3011296ED91EF
:102D7000FC911397228D338DE12CF12C018D3CC3F6
:102D800090962D913C919197E12CF12C5F960C91AE
:102D900033C393962D913C919497E12CF12C92960C
:102DA0000C912AC39A962D913C919B97E12CF12C82
:102DB00099960C9121C3D0962D913C91D197E12CFD
:102DC000F12C9F960C9118C3ED91FC911197E2584C
:102DD000FF4F0190F081E02D6BE875E0CD01199572
:102DE000F30182819381DC01ED91FC91E258FF4F68
:102DF0000190F081E02D62EE74E0199585E090E09D
:102E0000F3019583848320E030E0A201B401C30183
:102E1000AEDC54E0E52EF12C8AC6D30112968D91DA
:102E20009C911397FB01268130E0322F22274781A6
:102E3000242BDC01D6963C932E93D597ED91FC91F3
:102E4000EC59FF4F0190F081E02DDB0116964C917B
:102E500060E070E01995F30182819381DC01ED91CE
:102E6000FC91EC59FF4F0190F081E02DD4011796B1
:102E70004C9161E070E05AC0F201868300E010E0FE
:102E800022E030E075C3FB01408550E0542F442719
:102E90008185482B662757FD6095762FD7964D93F1
:102EA0005D936D937C93DA97ED91FC911197EC59BA
:102EB000FF4F20813181F401468162E070E0CD0155
:102EC000F9011995D30112968D919C911397DC010C
:102ED000ED91FC91EC59FF4F0190F081E02DD40170
:102EE00017964C9163E070E01995F301828193810C
:102EF000DC01ED91FC91EC59FF4F0190F081E02D48
:102F0000D40118964C9164E070E01995F301828128
:102F10009381DC01ED91FC91EC59FF4F0190F08120
:102F2000E02DD40119964C9165E070E0199588C4A4
:102F3000DA968C91FA018583D3011296ED91FC917A
:102F4000139781ADFA0186831296ED91FC91139748
:102F500080ADDA0117968C93D3011296ED91FC9116
:102F6000139787A99FC0FB01868190E0982F88273F
:102F70002781822BDC969C938E93DB97ED91FC91BD
:102F80001197EC59FF4F20813181FB01468166E0AA
:102F900070E0CD01F9011995D30112968D919C91A4
:102FA0001397DC01ED91FC91EC59FF4F0190F081FA
:102FB000E02DD40117964C9167E070E0B7CF9D01EA
:102FC000235C3F4FFB01408550E0542F442781850F
:102FD000482B662757FD6095762FF9014083518372
:102FE00062837383ED91FC911197EC59FF4F20811F
:102FF0003181F401468168E070E0CD01F901199555
:10300000D30112968D919C911397DC01ED91FC9167
:10301000EC59FF4F0190F081E02DD40117964C91AF
:1030200069E070E01995F30182819381DC01ED91F3
:10303000FC91EC59FF4F0190F081E02DD4011896DE
:103040004C916AE070E01995F30182819381DC0173
:10305000ED91FC91EC59FF4F0190F081E02DD401EE
:1030600019964C916BE070E061CFDD9613968C91D0
:10307000FA018583D3011296ED91FC911397FD9689
:103080008281FA0186831296ED91FC911397FD9649
:103090008181DA0117968C93D3011296ED91FC9100
:1030A000139785ADF20180875FC2D30112968D918F
:1030B0009C911397FC01EF5BFF4FDB0116962C915F
:1030C000169730E0322F222717964C91242B31830C
:1030D0002083DC01ED91FC91EC59FF4F0190F081D0
:1030E000E02DDB0116964C916CE070E01995F30130
:1030F00082819381DC01ED91FC91EC59FF4F0190AD
:10310000F081E02DD40117964C916DE070E00ECF68
:10311000DB0116962C91FC01ED5BFF4F213278F01C
:1031200020E22083F30182819381DC01ED91FC9107
:10313000EC59FF4F0190F081E02D40E20FC0208359
:10314000F30182819381DC01ED91FC91EC59FF4FF9
:103150000190F081E02DDB0116964C916EE070E05D
:1031600019957401B7E0EB0EF11C00E010E0D301FB
:1031700012968D919C911397FC01ED5BFF4F20817E
:1031800030E0021713070CF05BC3D701800F911FCB
:103190009C012C5B3F4FF70181917F01F9018083F6
:1031A000F30182819381FC0120813181F901EC5985
:1031B000FF4FB801615F7F4F0190F081E02D4C918E
:1031C00019950F5F1F4FD3CFFC01ED5BFF4F80813F
:1031D000FA018583369680E090E0D30112964D91F6
:1031E0005C911397DA01AD5BBF4F2C9130E08217F1
:1031F00093074CF4480F591FDA01AC5BBF4F2C9179
:1032000021930196EACF00E010E0B2C1D3011296FB
:10321000ED91FC911397DB0116968C91EC59FF4FC1
:103220008083F30182819381DC01ED91FC91EC5963
:10323000FF4F0190F081E02DDB0116964C9160E389
:1032400070E074CED3011296ED91FC911397EC5976
:10325000FF4F8081FA01858300E010E021E030E03B
:1032600087C1DB0116962C91F30182819381FC01C9
:10327000EB59FF4F213488F020E42083D3011296CC
:103280008D919C911397DC01ED91FC91EC59FF4FCE
:103290000190F081E02D40E40FC02083F301828192
:1032A0009381DC01ED91FC91EC59FF4F0190F0818D
:1032B000E02DDB0116964C9161E370E019957401E5
:1032C000B7E0EB0EF11C00E010E0D30112968D91F7
:1032D0009C911397FC01EB59FF4F208130E00217BE
:1032E00013070CF0ADC2D701800F911F9C012A5922
:1032F0003F4FF70181917F01F9018083F3018281C2
:103300009381FC0120813181F901EC59FF4FB80113
:103310006E5C7F4F0190F081E02D4C9119950F5F0D
:103320001F4FD3CFF30182819381FC01EA55FF4FF8
:10333000DB0116962C91169717964C91179750E033
:1033400060E070E0BA0155274427722B19962C9142
:103350001997422B18962C91522B408351836283EC
:103360007383DC01ED91FC91EC59FF4F0190F081EA
:10337000E02DD40116964C9162E770E01995F301A7
:1033800082819381DC01ED91FC91EC59FF4F01901A
:10339000F081E02DD40117964C9163E770E0199508
:1033A000F30182819381DC01ED91FC91EC59FF4F97
:1033B0000190F081E02DD40118964C9164E770E003
:1033C0001995F30182819381DC01ED91FC91EC5917
:1033D000FF4F0190F081E02DD40119964C9165E7E3
:1033E00070E0A4CDD3011296ED91FC911397258145
:1033F0003681E12CF12C0481A201B401C301C0D9B2
:1034000096C3F30182819381DB0116966C91DC01F6
:10341000ED91FC91262F30E0295F3F4F280D391D9B
:10342000A401495F5F4F0480F581E02DE4C0FB01FA
:103430001181D30112968D919C911397DC01ED912E
:10344000FC919A012B5F3F4FAB014A5F5F4F69EFE1
:10345000610F0680F781E02D19957C01212F30E066
:103460002850310953E0359527955A95E1F72F5F9C
:1034700030E08701A201B401C30153D958C3F3015D
:1034800082819381DC01ED91FC91DB011B96EC9034
:103490001B974E2D50E060E070E0142F0027FF24B2
:1034A000EE241E962C911E97E22A1D964C911D9794
:1034B00050E0542F4427662757FD6095762FE42A65
:1034C000F52A062B172B19962C91199730E0322FDD
:1034D0002227442737FD4095542F1A966C911A974E
:1034E000262B0084F185E02D16966C9119950EC35C
:1034F000F30182819381DC01ED91FC91DB0119964E
:103500002C91199730E0322F2227442737FD409520
:10351000542F1A966C911A97262B0280F381E02D76
:1035200016966C911995F2C2D3011296ED91FC9109
:103530001397808DFA0185831296ED91FC91139774
:103540008789DA0116968C93D3011296ED91FC913E
:1035500013978689FA0187831296ED91FC91139750
:103560008589D20118968C9300E010E024E030E0C9
:10357000A201B401C301D5D8D8C2D3011296ED91EE
:10358000FC9113978089FA01858312968D919C9105
:103590001397DC01ED91FC91DB0111966C91675062
:1035A0000190F081E02D9A012A5F3F4FA4014A5F0C
:1035B0005F4F19957C01F401818190E00797D30159
:1035C0001296ED91FC9113972089289FA001299FC5
:1035D000500D1124CA0123E0969587952A95E1F7AD
:1035E000282F47705527452B11F021E0280F30E098
:1035F0002F5F3F4F3ECF199589C2FB01218530E0F7
:10360000322F2227442737FD4095542F8285282BBF
:1036100019821A821B821C82D30112968D919C9171
:103620001397DC01ED91FC9102A0F3A1E02D1BC0EA
:10363000DB0119962C91199730E0322F222744276D
:1036400037FD4095542F1A968C91282B19821A8297
:103650001B821C82F30182819381DC01ED91FC913C
:1036600004A0F5A1E02D8E010F5F1F4FD401169627
:103670006C9119957C0189819A812B813C81F201A1
:1036800035832683978380870FC1D30112968D914E
:103690009C911397DC01ED91FC9106A0F7A1E02D20
:1036A000AE014F5F5F4FDB0116966C9119957C015F
:1036B0008981F2018583870121E030E0DBCE198228
:1036C000D30112968D919C911397DC01ED91FC91A1
:1036D0009A012B5F3F4F00A4F1A5E02D8E010F5FF3
:1036E0001F4FDB0117964C91179716966C91199501
:1036F0007C012981BDCEF30182819381DC01ED91B2
:10370000FC919B01295F3F4FDB0111964C91119772
:10371000485002A4F3A5E02D16966C911995F6C1B8
:10372000F30182819381DC01ED91FC91E45BFF4F19
:103730000190F081E02D61C0FB01218530E0322F46
:103740002227442737FD4095542F8285282B198244
:103750001A821B821C82D30112968D919C91139721
:10376000DC01ED91FC91028CF38DE02D7CCFD30137
:1037700012968D919C911397DC01ED91FC917B0148
:10378000B9E0EB0EF11CDB0111960C9111970A5078
:10379000048CF58DE02D18962C91189717964C9166
:1037A000179716966C911995B1C1F3018281938197
:1037B000DC01ED91FC916A01B5E0CB0ED11CDB017F
:1037C0001996EC901997F12CFE2CEE241A962C9158
:1037D0001A97E22A068CF78DE02D18960C9118970F
:1037E0001B962C911B9717964C91179716966C91D8
:1037F00019957C01F40120853BCED40116966C917D
:10380000199584C1F30182819381DC01ED91FC91D2
:103810000684F785E02DDB0116966C91199510C092
:10382000F30182819381DC01ED91FC910088F189A3
:10383000E02DDB0117964C91179716966C91199510
:1038400020E030E06DC1FB0187812085422F50E0F0
:1038500060E070E033272227582B8285282B818552
:10386000382B19821A821B821C82D30112968D91E9
:103870009C911397DC01ED91FC910488F589E02D72
:103880008E010F5F1F4FD40116966C9119957C0124
:1038900089819A812B813C81F2013583268397832C
:1038A000808700E010E001C0870124E030E0E2CD35
:1038B000D3011296ED91FC911397DB0117964C9171
:1038C000008111815201B5E0AB0EB11C6B012AE001
:1038D000C20ED11CDB0111968C9190E00B97642FE6
:1038E00070E00E945D29262FD80156960D90BC915C
:1038F000A02DBE83AD83D4011996EC90199718962C
:103900000C91189716966C91CF01ED81FE81199557
:103910007C01D40111962C9130E02B503109A9CDB6
:10392000ADB6BEB6DB011696EC91F0E0CF01880F84
:10393000991F2DB73EB7281B390B0FB6F8943EBF21
:103940000FBE2DBF0DB71EB70F5F1F4FE60FF71F3E
:103950003896B80180E090E0D40116962C9130E0C2
:10396000821793078CF49F0121503109D9012C91C2
:1039700030E0322F22274081242BDB012D933D9311
:10398000BD0101963296E8CF6801E12CF12CF401DB
:103990006681262F30E0D30112968D919C9113976A
:1039A000E216F306ACF4F601419151916F01DC018E
:1039B000ED91FC91E857FF4F60E070E00190F081DD
:1039C000E02D2AE030E01995BFEFEB1AFB0ADFCFBC
:1039D000DC01ED91FC91E05BFF4FA401495F5F4F7B
:1039E0000190F081E02D980119957C019C01A201C4
:1039F000B401C3010E94B7130FB6F894BEBE0FBE48
:103A0000ADBE95C0F30182819381DC01ED91FC9103
:103A1000EE5AFF4FA4014A5F5F4FD40111966C919B
:103A200067500190F081E02D199570C0F3018281FB
:103A30009381DC01ED91FC91EC5AFF4FDB0116966E
:103A40006C91169770E0762F662717962C91179732
:103A5000622B0190F081E02D18964C91199556C07B
:103A6000F30182819381DC01ED91FC91EA5AFF4FD1
:103A7000DB0116966C91169770E0762F66271796E5
:103A80002C911797622B0190F081E02D1B96EC9002
:103A90001B971A960C911A9719962C9119971896AC
:103AA0004C91199533C0F30182819381DC01ED9132
:103AB000FC91E85AFF4F9B01255F3F4FDB011896B1
:103AC0004C91189750E0542F442719966C911997F0
:103AD000462B16966C91169770E0762F66271796F0
:103AE0001C911797612B0190F081E02D1A960C9193
:103AF00019950CC0F30182819381DC01ED91FC9159
:103B0000E65AFF4F0190F081E02D19957C01970155
:103B1000A201B401C3010E94B71309C021E030E043
:103B2000A201B401C3010E94B713E12CF12CC7011B
:103B30000FB6F8943EBE0FBE2DBE26960FB6F89473
:103B4000DEBF0FBECDBFDF91CF911F910F91FF90D0
:103B5000EF90DF90CF90BF90AF909F908F907F902D
:103B60006F905F904F903F902F9008951F920F920B
:103B70000FB60F9211242F933F938F939F93AF9380
:103B8000BF938091B1089091B208A091B308B09111
:103B9000B4083091B00823E0230F2D3720F40196AC
:103BA000A11DB11D05C026E8230F0296A11DB11D60
:103BB0002093B0088093B1089093B208A093B30803
:103BC000B093B4088091B5089091B608A091B70859
:103BD000B091B8080196A11DB11D8093B5089093CE
:103BE000B608A093B708B093B808BF91AF919F9162
:103BF0008F913F912F910F900FBE0F901F901895AE
:103C00002FB7F8946091B1087091B2088091B30811
:103C10009091B4082FBF08953FB7F8948091B508EC
:103C20009091B608A091B708B091B80826B5A89BA6
:103C300005C02F3F19F00196A11DB11D3FBF66279A
:103C4000782F892F9A2F620F711D811D911D42E0DF
:103C5000660F771F881F991F4A95D1F70895CF9255
:103C6000DF92EF92FF92CF93DF936B017C01D4DF61
:103C7000EB01C114D104E104F10481F00E94502948
:103C8000CBDF6C1B7D0B683E734098F381E0C81A54
:103C9000D108E108F108C851DC4FEBCFDF91CF919B
:103CA000FF90EF90DF90CF900895789484B5826074
:103CB00084BD84B5816084BD85B5826085BD85B5D0
:103CC000816085BDEEE6F0E0808181608083E1E87F
:103CD000F0E01082808182608083808181608083B7
:103CE000E0E8F0E0808181608083E1EBF0E08081BA
:103CF00084608083E0EBF0E0808181608083E1E993
:103D0000F0E0808182608083808181608083E0E94F
:103D1000F0E0808181608083E1EAF0E08081826070
:103D20008083808181608083E0EAF0E0808181602F
:103D30008083E1E2F1E08081826080838081816024
:103D40008083E0E2F1E0808181608083EAE7F0E057
:103D500080818460808380818260808380818160B3
:103D600080838081806880831092C1000895809351
:103D70006C020895863308F0865320917B00982FBB
:103D80009870277F922B90937B00877020916C0214
:103D900090E4299F90011124822B80937C008091D4
:103DA0007A00806480937A0080917A0086FDFCCF4F
:103DB000809178002091790090E0922B08951F93D4
:103DC000CF93DF93182FEB0161E011D1209711F40D
:103DD00060E004C0CF3FD10531F461E0812FDF9175
:103DE000CF911F913DC1E12FF0E0E45DFE4F449182
:103DF00050E0FA013197E231F10508F09BC0EE582E
:103E0000FF4F0C94AE2984B5806884BDC7BD97C0B0
:103E100084B5806284BDC8BD92C0809180008068F6
:103E200080938000D0938900C093880088C08091DF
:103E30008000806280938000D0938B00C0938A00C2
:103E40007EC080918000886080938000D0938D0038
:103E5000C0938C0074C08091B00080688093B000E3
:103E6000C093B3006CC08091B00080628093B000BA
:103E7000C093B40064C080919000806880939000EB
:103E8000D0939900C09398005AC0809190008062AE
:103E900080939000D0939B00C0939A0050C0809173
:103EA0009000886080939000D0939D00C0939C0008
:103EB00046C08091A00080688093A0008091A000FF
:103EC0008F7B8093A000D093A900C093A80037C037
:103ED0008091A00080628093A000D093AB00C0933B
:103EE000AA002DC08091A00088608093A000D0938C
:103EF000AD00C093AC0023C0809120018068809306
:103F00002001D0932901C093280119C0809120017C
:103F1000806280932001D0932B01C0932A010FC0AF
:103F200080912001886080932001D0932D01C0935F
:103F30002C0105C0C038D1050CF04FCF49CFDF911F
:103F4000CF911F91089590E0FC013197E231F10586
:103F500008F04CC0EC57FF4F0C94AE2980918000C4
:103F60008F7703C0809180008F7D809380000895BB
:103F700080918000877FF9CF84B58F7702C084B5A8
:103F80008F7D84BD08958091B0008F7703C08091AC
:103F9000B0008F7D8093B0000895809190008F775E
:103FA00007C0809190008F7D03C080919000877F33
:103FB0008093900008958091A0008F7707C0809132
:103FC000A0008F7D03C08091A000877F8093A00018
:103FD0000895809120018F7707C0809120018F7D07
:103FE00003C080912001877F809320010895CF93A3
:103FF000DF9390E0FC01EE58FE4F2491FC01E85461
:10400000FE4F8491882349F190E0880F991FFC01AD
:10401000EE5CFD4FA591B491885E9D4FFC01C5916A
:10402000D4919FB7611108C0F8948C912095822398
:104030008C93888182230AC0623051F4F8948C9169
:10404000322F309583238C938881822B888304C000
:10405000F8948C91822B8C939FBFDF91CF91089520
:104060000F931F93CF93DF931F92CDB7DEB7282F07
:1040700030E0F901E45DFE4F8491F901EE58FE4F06
:104080001491F901E854FE4F04910023C1F08823F4
:1040900019F0698358DF6981E02FF0E0EE0FFF1F10
:1040A000E85EFD4FA591B4919FB7F8948C91611192
:1040B00003C01095812301C0812B8C939FBF0F906B
:1040C000DF91CF911F910F910895CF93DF93282F08
:1040D00030E0F901E45DFE4F8491F901EE58FE4FA6
:1040E000D491F901E854FE4FC491CC2389F0811199
:1040F0002ADFEC2FF0E0EE0FFF1FE250FE4FA591FC
:10410000B4912C912D2381E090E021F480E002C055
:1041100080E090E0DF91CF910895CF92DF92EF920F
:10412000FF920F931F93CF93DF9390E0FC01EE5823
:10413000FE4FD491FC01E854FE4F7491611102C00E
:10414000C0E001C0CD2FDA01C901BF70672F70E058
:10415000660F771F62507E4F00E010E09801FB0170
:10416000E590F490F70140814D234C131EC0680187
:1041700079014FEFC41AD40AE40AF40A08171907A0
:104180002A073B0709F442C097018601E8CF68017E
:104190007901FFEFCF1ADF0AEF0AFF0A08171907A4
:1041A0002A073B0799F197018601FB01E590F490FE
:1041B000F70140814D234C13EACF801B910BA20BDA
:1041C000B30B20E030E0A901FB01E590F490F7018A
:1041D000F080FD22FC120AC0281739074A075B0746
:1041E000A9F02F5F3F4F4F4F5F4FEECFA8E1B0E0F8
:1041F0000E94B429605F7F4F8F4F9F4F24E09695B8
:104200008795779567952A95D1F703C060E070E0B0
:10421000CB01DF91CF911F910F91FF90EF90DF9035
:10422000CF9008950E940C2BFC01818D228D90E08F
:10423000805C9F4F821B91098F7399270895FC0121
:10424000918D828D981731F0828DE80FF11D858D4B
:1042500090E008958FEF9FEF0895FC01918D828D7E
:10426000981761F0828DDF01A80FB11D5D968C91CA
:10427000928D9F5F9F73928F90E008958FEF9FEFD5
:1042800008958BEF92E2892B39F080E090E0892B42
:1042900019F0B1D1811122C086EA93E2892B39F05D
:1042A00080E090E0892B19F051D281111AC081E58C
:1042B00094E2892B39F080E090E0892B19F0F1D25B
:1042C000811112C08CEF94E2892B99F080E090E08C
:1042D000892B79F091D381110AC008950E940000C2
:1042E000DBCF0E940000E3CF0E940000EBCF0C94D4
:1042F00000000895FC01848DDF01A80FB11DA35AB1
:10430000BF4F2C91848D90E001968F739927848FF5
:10431000A689B7892C93A089B1898C9180648C93EC
:10432000938D848D981306C00288F389E02D8081D7
:104330008F7D80830895CF93DF93EC01888D882350
:10434000C1F0EA89FB89808185FD05C0A889B9890A
:104350008C9186FD0EC00FB607FCF5CF808185FFDE
:10436000F2CFA889B9898C9185FFEDCFCE01C2DF4C
:10437000E8CFDF91CF910895CF92DF92FF920F9314
:104380001F93CF93DF931F92CDB7DEB76C01DC0193
:104390005B969C915B975C968C915C97981307C099
:1043A0005096ED91FC915197808185FD31C0F601C9
:1043B000038D10E00F5F1F4F0F731127F02EF601D2
:1043C000848DF81210C00FB607FCF9CFD6015096B5
:1043D000ED91FC915197808185FFF1CFC6016983F2
:1043E00089DF6981ECCF838DE80FF11DE35AFF4F20
:1043F0006083D6015B960C935B975296ED91FC918E
:10440000539780818062808381E058968C930DC0A1
:10441000D6015696ED91FC91579760835096ED9199
:10442000FC91519780818064808381E090E00F90BF
:10443000DF91CF911F910F91FF90DF90CF90089562
:10444000BF92CF92DF92EF92FF92CF93DF93EC0176
:104450006A017B01B22EE889F98982E080834115E7
:1044600081EE58076105710599F060E079E08DE310
:1044700090E0A701960134D7215031094109510933
:104480005695479537952795211580E1380790F087
:10449000E889F989108260E874E88EE190E0A7016C
:1044A00096011ED72150310941095109569547956A
:1044B00037952795EC85FD853083EE85FF85208334
:1044C000188EEC89FD89B082EA89FB898081806140
:1044D0008083EA89FB89808188608083EA89FB89FF
:1044E000808180688083EA89FB8980818F7D8083D9
:1044F000DF91CF91FF90EF90DF90CF90BF90089524
:10450000FC01938D848D9813FCCFA289B3898C9183
:104510008F7E8C93A289B3898C91877F8C93A2899B
:10452000B3898C918F778C93A289B3898C918F7D7D
:104530008C93828D818F08951F920F920FB60F92E8
:1045400011240BB60F922F938F939F93EF93FF93AA
:10455000E091C908F091CA088081E091CF08F091FC
:10456000D00882FD12C090818091D2088F5F8F7336
:104570002091D308821751F0E091D208F0E0E7547F
:10458000F74F958F8093D20801C08081FF91EF9102
:104590009F918F912F910F900BBE0F900FBE0F9098
:1045A0001F9018951F920F920FB60F9211240BB601
:1045B0000F922F933F934F935F936F937F938F93BC
:1045C0009F93AF93BF93EF93FF9389EB98E092DEB5
:1045D000FF91EF91BF91AF919F918F917F916F91DB
:1045E0005F914F913F912F910F900BBE0F900FBE97
:1045F0000F901F90189589EB98E016DE21E0892B2B
:1046000009F420E0822F08951092BC081092BB0894
:1046100088EE93E0A0E0B0E08093BD089093BE08E0
:10462000A093BF08B093C00881EB95E09093BA08BF
:104630008093B90885EC90E09093C6088093C508F4
:1046400084EC90E09093C8088093C70880EC90E0D9
:104650009093CA088093C90881EC90E09093CC08AD
:104660008093CB0882EC90E09093CE088093CD08A5
:1046700086EC90E09093D0088093CF081092D208F7
:104680001092D3081092D4081092D50808951F9262
:104690000F920FB60F9211240BB60F922F938F9398
:1046A0009F93EF93FF93E0916609F09167098081F2
:1046B000E0916C09F0916D0982FD12C090818091AA
:1046C0006F098F5F8F7320917009821751F0E0910D
:1046D0006F09F0E0EA5AF64F958F80936F0901C099
:1046E0008081FF91EF919F918F912F910F900BBE41
:1046F0000F900FBE0F901F9018951F920F920FB63C
:104700000F9211240BB60F922F933F934F935F9309
:104710006F937F938F939F93AF93BF93EF93FF9389
:1047200086E599E0E7DDFF91EF91BF91AF919F9111
:104730008F917F916F915F914F913F912F910F904A
:104740000BBE0F900FBE0F901F90189586E599E055
:104750006BDD21E0892B09F420E0822F089510926F
:1047600059091092580988EE93E0A0E0B0E08093D8
:104770005A0990935B09A0935C09B0935D0981EBA2
:1047800095E090935709809356098DEC90E09093B3
:104790006309809362098CEC90E0909365098093A3
:1047A000640988EC90E0909367098093660989EC2E
:1047B00090E090936909809368098AEC90E0909367
:1047C0006B0980936A098EEC90E090936D09809359
:1047D0006C0910926F091092700910927109109271
:1047E000720908951F920F920FB60F9211240BB603
:1047F0000F922F938F939F93EF93FF93E091030A70
:10480000F091040A8081E091090AF0910A0A82FD80
:1048100012C0908180910C0A8F5F8F7320910D0AD6
:10482000821751F0E0910C0AF0E0ED50F64F958FB1
:1048300080930C0A01C08081FF91EF919F918F912D
:104840002F910F900BBE0F900FBE0F901F901895D9
:104850001F920F920FB60F9211240BB60F922F9347
:104860003F934F935F936F937F938F939F93AF93F8
:10487000BF93EF93FF9383EF99E03CDDFF91EF91BE
:10488000BF91AF919F918F917F916F915F914F9168
:104890003F912F910F900BBE0F900FBE0F901F9066
:1048A000189583EF99E0C0DC21E0892B09F420E022
:1048B000822F08951092F6091092F50988EE93E080
:1048C000A0E0B0E08093F7099093F809A093F9096C
:1048D000B093FA0981EB95E09093F4098093F30982
:1048E00085ED90E09093000A8093FF0984ED90E0BD
:1048F0009093020A8093010A80ED90E09093040A5D
:104900008093030A81ED90E09093060A8093050A54
:1049100082ED90E09093080A8093070A86ED90E07C
:1049200090930A0A8093090A10920C0A10920D0AB9
:1049300010920E0A10920F0A08951F920F920FB64E
:104940000F9211240BB60F922F938F939F93EF9397
:10495000FF93E091A00AF091A10A8081E091A60A5C
:10496000F091A70A82FD12C090818091A90A8F5F01
:104970008F732091AA0A821751F0E091A90AF0E002
:10498000E057F54F958F8093A90A01C08081FF9170
:10499000EF919F918F912F910F900BBE0F900FBEB3
:1049A0000F901F9018951F920F920FB60F9211241F
:1049B0000BB60F922F933F934F935F936F937F9319
:1049C0008F939F93AF93BF93EF93FF9380E99AE008
:1049D00091DCFF91EF91BF91AF919F918F917F916A
:1049E0006F915F914F913F912F910F900BBE0F9060
:1049F0000FBE0F901F90189580E99AE015DC21E01A
:104A0000892B09F420E0822F08951092930A1092C6
:104A1000920A88EE93E0A0E0B0E08093940A90932D
:104A2000950AA093960AB093970A81EB95E090932C
:104A3000910A8093900A85E391E090939D0A809378
:104A40009C0A84E391E090939F0A80939E0A80E3FE
:104A500091E09093A10A8093A00A81E391E0909362
:104A6000A30A8093A20A82E391E09093A50A80931F
:104A7000A40A86E391E09093A70A8093A60A109275
:104A8000A90A1092AA0A1092AB0A1092AC0A0895D1
:104A900008950BD9FDDF0E945F01C1E4D1E20E94BD
:104AA00073012097E1F3EDDBFACF8FC4CF92DF9251
:104AB000EF92FF920F931F93CF93DF936C017A01D4
:104AC000EB01E60EF71E00E010E0CE15DF0561F009
:104AD0006991D601ED91FC910190F081E02DC60124
:104AE0001995080F191FF1CFC801DF91CF911F91C0
:104AF0000F91FF90EF90DF90CF9008950F931F9349
:104B0000CF93DF93EC017CD8688779878A879B876E
:104B1000E881F9810680F781E02DCE01199597FF94
:104B200014C06ED8088519852A853B85601B710BDA
:104B3000820B930B0C811D812E813F8160177107C1
:104B40008207930728F38FEF9FEFDF91CF911F919B
:104B50000F910895CF92DF92EF92FF920F931F93E0
:104B6000CF93DF937C016A01EB0100E010E00C15AC
:104B70001D0541F0C701C2DF97FD04C089930F5F97
:104B80001F4FF5CFC801DF91CF911F910F91FF907B
:104B9000EF90DF90CF9008953F924F925F926F9287
:104BA0007F928F929F92AF92BF92CF92DF92EF92BD
:104BB000FF920F931F93CF93DF9300D01F92CDB737
:104BC000DEB78B0129013A0190916D02981721F00F
:104BD0009F3F09F0ABC204C0ECE4F2E0349004C1A2
:104BE00080936D02ECE4F2E0E491EF3F09F49EC2A1
:104BF000E23009F480C074F5EE2309F45BC0E130C3
:104C000009F0F1C010928000109281009091810013
:104C100098609093810090918100916090938100C1
:104C2000282F30E0F901E854FE4FE491F0E0EE0F58
:104C3000FF1FE85EFD4F4591549150934B0B4093FD
:104C40004A0BF901EE58FE4F24912093490B33246F
:104C50003394CCC0E43009F49EC00CF474C0E53049
:104C600009F0C1C010922001109221019091210100
:104C7000986090932101909121019160909321017E
:104C8000282F30E0F901E854FE4FE491F0E0EE0FF8
:104C9000FF1FE85EFD4F4591549150932F0B4093B9
:104CA0002E0BF901EE58FE4F249120932D0B55E069
:104CB000352E9CC014BC15BC94B5926094BD95B5BE
:104CC000916095BD282F30E0F901E854FE4FE49142
:104CD000F0E0EE0FFF1FE85EFD4F459154915093B9
:104CE000520B4093510BF901EE58FE4F2491209343
:104CF000500B312C7BC01092B0001092B1009091FB
:104D0000B00092609093B0009091B1009160909348
:104D1000B100282F30E0F901E854FE4FE491F0E0B3
:104D2000EE0FFF1FE85EFD4F459154915093440BE9
:104D30004093430BF901EE58FE4F24912093420B10
:104D400022E0322E53C01092900010929100909168
:104D50009100986090939100909191009160909350
:104D60009100282F30E0F901E854FE4FE491F0E083
:104D7000EE0FFF1FE85EFD4F4591549150933D0BA0
:104D800040933C0BF901EE58FE4F249120933B0BCE
:104D9000B3E03B2E2BC01092A0001092A100909186
:104DA000A10098609093A1009091A10091609093D0
:104DB000A100282F30E0F901E854FE4FE491F0E023
:104DC000EE0FFF1FE85EFD4F459154915093360B57
:104DD0004093350BF901EE58FE4F24912093340B8C
:104DE00074E0372E03C03E2E37FCA0C161E0FFD82F
:104DF0004801A12CB12C832D8D7F09F0BAC060E051
:104E000072E18AE790E0A50194018CD229833A836C
:104E10004B835C8369017A0181E0C81AD108E108FB
:104E2000F1089FEFC916D104E104F10409F008F478
:104E300095C060E472E48FE090E0A501940172D225
:104E400069017A01E1E0CE1AD108E108F108F2E047
:104E50003F1218C08FEFC816D104E104F10409F025
:104E600008F483C060E970ED83E090E0A50194014F
:104E700059D269017A0191E0C91AD108E108F10813
:104E800083E001C082E0EFEFCE16D104E104F1042B
:104E900009F008F464C068E478EE81E090E0A501D0
:104EA000940140D269017A01F1E0CF1AD108E108FA
:104EB000F1083320D9F082E038121AC09FEFC916EA
:104EC000D104E104F10409F008F42EC164E274EFA6
:104ED00080E090E0A501940125D269017A01E1E02A
:104EE000CE1AD108E108F10885E003C083E001C0D3
:104EF00084E0FFEFCF16D104E104F10481F178F1F1
:104F000062E17AE780E090E0A50194010BD26901AB
:104F10007A0181E0C81AD108E108F108311002C015
:104F200084E001C086E09FEFC916D104E104F104DA
:104F3000B1F0A8F0C980DA80EB80FC809AE0F594AB
:104F4000E794D794C7949A95D1F7E1E0CE1AD108A7
:104F5000E108F108332031F087E008C081E0332018
:104F600011F004C085E085BD50C082E08093B1009F
:104F70004CC060E072E18AE790E0A5019401D2D1D3
:104F800069017A01F1E0CF1AD108E108F108C114F2
:104F9000D10481E0E806F10480F068E478EE81E075
:104FA00090E0A5019401BED169017A0191E0C91A8E
:104FB000D108E108F10893E001C091E0E1E03E1280
:104FC00007C080918100887F892B809381001DC05C
:104FD000F3E03F1207C080919100887F892B809376
:104FE000910013C084E0381207C08091A100887F2F
:104FF000892B8093A10009C0E5E03E1206C0809194
:105000002101887F892B809321014114510461047F
:10501000710461F0D801AA0FBB1FA3019201A4D1B2
:1050200028EE33E040E050E05BD103C02FEF3FEFCC
:10503000A901F2E03F1609F443C0F315BCF0332098
:1050400081F181E0381272C0D0928900C09288004C
:1050500020934C0B30934D0B40934E0B50934F0BC2
:1050600080916F00826080936F0060C094E0391679
:1050700009F448C03916A4F1E5E03E1257C0D092B9
:105080002901C09228012093300B3093310B4093BB
:10509000320B5093330B80917300826080937300C6
:1050A00045C0C7BC2093530B3093540B4093550B12
:1050B0005093560B80916E00826080936E0036C0D4
:1050C000C092B3002093450B3093460B4093470B9F
:1050D0005093480B8091700082608093700026C0CE
:1050E000D0929900C092980020933E0B30933F0BD2
:1050F0004093400B5093410B8091710082608093EC
:10510000710014C0D092A900C092A8002093370B60
:105110003093380B4093390B50933A0B80917200C7
:1051200082608093720002C084E020CF0F900F90C5
:105130000F900F90DF91CF911F910F91FF90EF9003
:10514000DF90CF90BF90AF909F908F907F906F90A7
:105150005F904F903F9008958230A9F028F4882303
:1051600049F0813051F00895843009F1E8F085303C
:1051700009F1089510926E00089580916F008D7F5F
:1051800080936F000895809170008D7F80937000F0
:1051900081E08093B0008091B100887F846080932B
:1051A000B1001092B300089510927100089510920A
:1051B00072000895109273000895CF93C82F8091C4
:1051C0006D028C1307C0ECE4F2E084919FEF9093A2
:1051D0006D0201C08FEFC0DF60E08C2FCF910C9487
:1051E00030201F920F920FB60F9211240BB60F9220
:1051F0002F933F934F935F936F937F938F939F93DF
:10520000AF93BF93EF93FF938091450B9091460B23
:10521000A091470BB091480B892B8A2B8B2B51F116
:105220009091420BE091430BF091440B80818927D0
:1052300080838091450B9091460BA091470BB091D4
:10524000480B181619061A061B06BCF48091450B6C
:105250009091460BA091470BB091480B0197A10983
:10526000B1098093450B9093460BA093470BB093E5
:10527000480B03C080916D02A0DFFF91EF91BF91B9
:10528000AF919F918F917F916F915F914F913F91DE
:105290002F910F900BBE0F900FBE0F901F9018957F
:1052A0000895991B79E004C0991F961708F0961B82
:1052B000881F7A95C9F78095089597FB072E16F4F5
:1052C000009406D077FD08D05DD007FC05D03EF4F1
:1052D000909581959F4F0895709561957F4F0895A2
:1052E000A1E21A2EAA1BBB1BFD010DC0AA1FBB1FEA
:1052F000EE1FFF1FA217B307E407F50720F0A21B5C
:10530000B30BE40BF50B661F771F881F991F1A94C8
:1053100069F760957095809590959B01AC01BD01F2
:10532000CF010895052E97FB16F400940FD057FD7A
:1053300005D0D6DF07FC02D046F408C05095409552
:10534000309521953F4F4F4F5F4F08959095809531
:10535000709561957F4F8F4F9F4F0895EE0FFF1F00
:105360000590F491E02D199421D0A59F900DB49F44
:10537000900DA49F800D911D112408950790F69122
:10538000E02D1994AA1BBB1B51E107C0AA1FBB1F2C
:10539000A617B70710F0A61BB70B881F991F5A95C1
:1053A000A9F780959095BC01CD010895A29FB00109
:1053B000B39FC001A39F700D811D1124911DB29F49
:1053C000700D811D1124911D0895CF93DF938230BC
:1053D000910510F482E090E0E091590BF0915A0BA6
:1053E00020E030E0A0E0B0E0309739F14081518119
:1053F00048175907B8F04817590771F4828193810B
:10540000109729F013969C938E9312972CC090932B
:105410005A0B8093590B27C02115310531F04217E3
:10542000530718F0A901DB0101C0EF019A01BD018A
:10543000DF010280F381E02DD7CF21153105F9F08E
:10544000281B390B2430310580F48A819B8161153A
:10545000710521F0FB019383828304C090935A0B62
:105460008093590BFE01329644C0FE01E20FF31FF8
:105470008193919322503109398328833AC0209136
:10548000570B3091580B232B41F42091020230919D
:1054900003023093580B2093570B20910002309158
:1054A00001022115310541F42DB73EB740910402A8
:1054B00050910502241B350BE091570BF091580BCE
:1054C000E217F307A0F42E1B3F0B2817390778F0DB
:1054D000AC014E5F5F4F2417350748F04E0F5F1F3A
:1054E0005093580B4093570B8193919302C0E0E087
:1054F000F0E0CF01DF91CF910895CF93DF93009734
:1055000009F487C0FC01329713821282C091590BB3
:10551000D0915A0B209781F420813181280F391FB7
:105520008091570B9091580B8217930779F5F09360
:10553000580BE093570B6DC0DE0120E030E0AE1752
:10554000BF0750F412964D915C9113979D01411540
:10555000510509F1DA01F3CFB383A2834081518170
:10556000840F951F8A179B0771F48D919C91119759
:10557000840F951F02969183808312968D919C9142
:105580001397938382832115310529F4F0935A0BE5
:10559000E093590B3EC0D9011396FC93EE931297FA
:1055A0004D915D91A40FB51FEA17FB0779F4808137
:1055B0009181840F951F0296D90111969C938E9329
:1055C0008281938113969C938E931297E0E0F0E092
:1055D0008A819B81009719F0FE01EC01F9CFCE0181
:1055E000029628813981820F931F2091570B3091A9
:1055F000580B2817390769F4309729F410925A0B81
:105600001092590B02C013821282D093580BC09390
:10561000570BDF91CF91089581E090E0F89416C088
:10562000F999FECF92BD81BDF89A992780B508956A
:10563000262FF999FECF1FBA92BD81BD20BD0FB6AE
:10564000F894FA9AF99A0FBE01960895F894FFCF4C
:1056500000005B0B8000010000002C0100005802DC
:105660000000B004000060090000C01200008025A6
:10567000000040380000004B000080700000127AEB
:1056800000000096000000E1000000C201000001DF
:1056900002030400000005000100060002000300F0
:1056A00000127A0000093D0080841E0040420F0075
:1056B00020A1070090D0030048E8010001FF00008E
:1056C00000000402D801AD01B501C801D7010000F6
:1056D0000000640A4B0ECB0A670BDE0EB80B460CBB
:1056E000760C100AE40F04100A0B7B0C1A0ABA108D
:1056F000EC101D0A2C0F200A49118F0C120E1608EF
:10570000FA07E5071D0829083308660848097308E1
:105710008B08A108B708CD08E308F9080F09C00CE9
:10572000D80C4F0DD70D29092C092F09320935093D
:10573000570A590A530A250F290FAF0738093909A3
:105740003A093B093C093D093E093F094009410925
:10575000420943094409450946094709E40769091B
:105760000002030405060708090A0B0C0D2C2D2E58
:10577000000102030405060708090A0B0C0D0E0FB1
:10578000101112131415161718191A1B1C1D1E1FA1
:10579000202122232425262728292A2B2C2D2E2F91
:1057A00030313233343502000300E0C810000010FD
:1057B0002700000102030405060708090A0B0C0D67
:1057C0000E0F41726475696E6F204D6567612032FE
:1057D0003536300000000000640A4B0ECB0A670B20
:1057E000DE0EB80B460C760C100AE40F04100A0B00
:1057F0007B0C1A0ABA10EC101D0A2C0F200A491152
:105800008F0C120E1608FA07E5071D082908330841
:105810006608480973088B08A108B708CD08E30893
:10582000F9080F09C00CD80C4F0DD70D29092C0908
:105830002F0932093509570A590A530A250F290F2A
:10584000AF07380939093A093B093C093D093E09C6
:105850003F094009410942094309440945094609EC
:105860004709E4076909446562756767696E6720DF
:10587000456E61626C656400000000001221122117
:105880001221122112211221122112211221122180
:105890001221122112211221122112211221122170
:1058A00012211221122112211608FA07E5071D08FC
:1058B000290833086608480973088B08A108B70847
:1058C000CD08E308F9080F09122112211221122133
:1058D00029092C092F093209350912211221E30760
:1058E00012211221AF07380939093A093B093C094D
:1058F0003D093E093F09400941094209430944095C
:10590000450946094709E4076909437265617465F9
:1059100064204E657720536572766F204F6E20436A
:1059200068616E6E656C2000536572766F20002092
:105930003A200000000000640A4B0ECB0A670BDE21
:105940000EB80B460C760C100AE40F04100A0B7B01
:105950000C1A0ABA10EC101D0A2C0F200A49118FDC
:105960000C120E1608FA07E5071D08290833086609
:1059700008480973088B08A108B708CD08E308F99F
:10598000080F09C00CD80C4F0DD70D29092C092F71
:105990000932093509570A590A530A250F290FAF49
:1059A00007380939093A093B093C093D093E093FD5
:1059B0000940094109420943094409450946094783
:1059C00009E4076909000000002213251328132B9E
:1059D00013A5119F11A211DC126711436C6F73653F
:1059E00020436F6D6D616E6400000000002213257E
:1059F0001328132B132E1331133413371300000005
:0E5A000000BC21562514212D211F219B2100C1
:00000001FF
