:1000000003C1000032C1000030C100002EC1000059
:100010002CC100002AC1000028C1000026C1000038
:1000200024C1000022C1000020C100001EC1000048
:100030001CC100000C941D2118C1000016C1000055
:1000400014C100000C94A12310C100000EC10000D7
:100050000CC100000AC1000008C100000C94CD22B0
:1000600004C100000C94A3220C947922FEC000006D
:10007000FCC00000FAC00000F8C00000F6C000009C
:100080000C947323F2C00000F0C00000EEC000002A
:100090000C944F220C942522E8C000000C94CF232E
:1000A000E4C00000E2C000000C944523DEC0000064
:1000B000DCC00000DAC00000D8C000000C94172398
:1000C000D4C00000D2C00000D0C000000C94FB21BE
:1000D0000C94D121CAC000000C94A7210C947D215E
:1000E000C4C0000000002100240027002A002D00C9
:1000F0003000330001010000040107010A01000083
:100100000A0B02090C0D0E08070304010000000091
:1001100000000000000000000000000000000000DF
:10012000000000000000000000001211100000009C
:1001300000000000000000000000000000000000BF
:1001400000000000000020002300260029002C00F1
:100150002F00320000010000030106010901010225
:1001600010202008081020401020408002010201C9
:100170000804020101020408102040808040201081
:1001800008040201800402018040201008040201DA
:100190000804020101020408102040800102040842
:1001A0001020408000002200250028002B002E0097
:1001B0003100340002010000050108010B010505B2
:1001C0000505070508080808020202020A0A0808CD
:1001D00004040404010101010101010103030303FB
:1001E00003030303040707070C0C0C0C0C0C0C0C8A
:1001F0000202020206060606060606060B0B0B0B9B
:100200000B0B0B0B0200382511241FBECFEFD1E2E0
:10021000DEBFCDBF00E00CBF14E0A0E0B2E0E6EE30
:10022000F1E500E00BBF02C007900D92AE3CB107B4
:10023000D9F729E0AEECB4E001C01D92A436B207B4
:10024000E1F711E0C4E0D1E000E006C02197010928
:10025000802FFE010E94A527C330D10780E0080748
:10026000A9F70E94EF250C94F128CACE982F20916F
:10027000AE0681E0213208F043C080918A068111E8
:10028000FCCF8091AD0632E030938A0690938906C8
:100290009FEF909388061092870620938606ADE81C
:1002A000B6E0E6E6F6E090E0291331C0109265066C
:1002B00090916506880F892B80936506809164066E
:1002C000813049F510926406809165068093BB00E9
:1002D0008091BC0083FDF8CF85EC8093BC008091B9
:1002E0008A068230E1F3809188068F3FB1F08091D9
:1002F00088068032A1F080918806803391F084E0F6
:1003000010928C061092AE0610928B0608953D91C5
:1003100031939F5FC9CF85EEE0CF80E0F1CF82E0DF
:10032000EFCF83E0EDCF90918A069111FCCF91E061
:1003300090938A06409389062FEF209388061092A7
:100340008706260F20938606909365069091650692
:10035000880F892B80936506809164068130F9F4BB
:1003600010926406809165068093BB008091BC006A
:1003700083FDF8CF85EC8093BC0080918A068130A4
:10038000E1F380918706861710F460918706A6E650
:10039000B6E0E4E4F6E080E0861303C0089585EE5D
:1003A000EACF9D9191938F5FF7CFCF92DF92EF923B
:1003B000FF92CF93DF93EC016A017B01E889F98911
:1003C00082E08083C11481EED806E104F104A1F03B
:1003D00060E079E08DE390E0A70196010E94552747
:1003E000215031094109510956954795379527956F
:1003F000211580E1380798F0E889F989108260E8D2
:1004000074E88EE190E0A70196010E9455272150E3
:100410003109410951095695479537952795EC853E
:10042000FD853083EE85FF852083188EEC89FD895C
:1004300086E08083EA89FB89808180618083EA8904
:10044000FB89808188608083EA89FB89808180685C
:100450008083EA89FB8980818F7D8083DF91CF91C2
:10046000FF90EF90DF90CF900895AF92BF92CF9220
:10047000DF92EF92FF920F931F93CF93DF936C0164
:100480007B018B01040F151FEB015E01AE18BF0845
:10049000C017D10759F06991D601ED91FC910190F7
:1004A000F081E02DC6011995892B79F7C501DF91FF
:1004B000CF911F910F91FF90EF90DF90CF90BF9061
:1004C000AF900895FC01A089B1898C91A689B78964
:1004D00082FD0FC09C91818D8F5F8F73228D82175B
:1004E00049F0A18DAE0FBF2FB11D5D969C93818FFA
:1004F00008958C910895FC01538D448D252F30E093
:10050000842F90E0821B930B541710F0CF96089520
:1005100001970895FC01918D828D981761F0A28D4D
:10052000AE0FBF2FB11D5D968C91928D9F5F9F7313
:10053000928F90E008958FEF9FEF0895FC01918DC9
:10054000828D981731F0828DE80FF11D858D90E036
:1005500008958FEF9FEF0895FC01918D228D892FD3
:1005600090E0805C9F4F821B91098F7399270895BB
:100570008FEA96E0F1DF21E0892B09F420E0822F59
:1005800008958CE497E0E8DF21E0892B09F420E06E
:10059000822F089589EE97E0DFDF21E0892B09F4AF
:1005A00020E0822F089586E898E0D6DF21E0892BAD
:1005B00009F420E0822F0895FC01A48DA80FB92F23
:1005C000B11DA35ABF4F2C91848D90E001968F737B
:1005D0009927848FA689B7892C93A089B1898C919A
:1005E000837080648C93938D848D981306C00288E9
:1005F000F389E02D80818F7D80830895EF92FF92B3
:100600000F931F93CF93DF93EC0181E0888F9B8D35
:100610008C8D98131AC0E889F989808185FF15C0EF
:100620009FB7F894EE89FF896083E889F989808112
:100630008370806480839FBF81E090E0DF91CF91E1
:100640001F910F91FF90EF900895F62E0B8D10E003
:100650000F5F1F4F0F731127E02E8C8D8E110BC073
:100660000FB607FCFACFE889F989808185FFF5CFBD
:10067000CE01A2DFF2CFEB8DEC0FFD2FF11DE35A7F
:10068000FF4FF0829FB7F8940B8FEA89FB89808136
:100690008062D0CFCF93DF93EC01888D8823B1F0B7
:1006A000AA89BB89E889F9898C9185FD03C080817D
:1006B00086FD0CC00FB607FCF7CF8C9185FFF2CFFB
:1006C000808185FFEDCFCE0177DFEACFDF91CF913B
:1006D0000895CF93DF93EC01DDDFEA89FB89808108
:1006E0008F7E8083EA89FB898081877F8083EA8986
:1006F000FB8980818F778083EA89FB8980818F7D68
:1007000080838A8D898FDF91CF91089580E090E07A
:10071000892B21F048DF81110E94000080E090E0E9
:10072000892B21F037DF81110E94000080E090E0EA
:10073000892B21F026DF81110E94000080E090E0EB
:10074000892B21F015DF81110C9400000895815050
:10075000823108F05AC0E82FF0E08827ED54FC4FB2
:100760008F4F0C94A527D303D703C503CB03CF0327
:100770000504DA03E003E403EA03EE03F203F803FB
:10078000FC030504000406040A04809180008F77AE
:10079000809380000895809180008F7DF9CF8091B3
:1007A0008000877FF5CF84B58F7784BD089584B5A9
:1007B0008F7DFBCF8091B0008F778093B00008953C
:1007C0008091B0008F7DF9CF809190008F778093DA
:1007D00090000895809190008F7DF9CF80919000D6
:1007E000877FF5CF8091A0008F778093A000089538
:1007F0008091A0008F7DF9CF8091A000877FF5CFF9
:10080000809120018F7780932001089580912001AD
:100810008F7DF9CF80912001877FF5CF1F93CF93F4
:10082000DF93282F30E0F901E250FF4F8491F90166
:10083000E25AFE4FD491F901E254FE4FC491CC2309
:10084000A1F0162F811183DFEC2FF0E0EE0FFF1FD8
:10085000EC55FE4FA591B4918FB7F894EC9111111E
:1008600008C0D095DE23DC938FBFDF91CF911F911D
:100870000895DE2BF8CF9091010289130DC0E4E0BA
:10088000F2E0E4919FEF90930102E230D9F030F46E
:10089000EE2379F0E13081F060E0C0CFE43049F13F
:1008A00010F1E530C9F7909173009D7F909373002C
:1008B000F3CF10926E00F0CF90916F009D7F9093D8
:1008C0006F00EACF909170009D7F9093700091E04F
:1008D0009093B0009091B100987F94609093B10094
:1008E0001092B300D9CF909171009D7F90937100C9
:1008F000D3CF909172009D7F90937200CDCFCF9314
:10090000DF9390E0FC01E25AFE4F249182549E4F07
:10091000FC0184918823D1F090E0880F991FFC019D
:10092000EC51FF4FA591B491FC01EC55FE4FC591E0
:10093000D49161110EC09FB7F8948C91E22FE0958D
:100940008E238C932881E223E8839FBFDF91CF9190
:1009500008958FB7F894EC91E22BEC938FBFF6CF0C
:100960004F925F926F927F928F929F92AF92BF92BF
:10097000CF92DF92EF92FF920F931F93CF93DF936B
:1009800000D01F921F92CDB7DEB78B0129013A012B
:10099000909101028917C9F09F3F09F490C00F9010
:1009A0000F900F900F900F90DF91CF911F910F91AB
:1009B000FF90EF90DF90CF90BF90AF909F908F907F
:1009C0007F906F905F904F900895E4E0F2E0249163
:1009D0002D8327FDE4CF61E092DF2D81222321F0DA
:1009E0008D81823009F004C24801B12CA12C60E055
:1009F00072E18AE790E0A50198010E942F272983E0
:100A00003A834B835C8369017A0191E0C91AD1086A
:100A1000E108F1082FEFC216D104E104F10409F056
:100A20000CF4B5C160E472E48FE090E0A501980198
:100A30000E942F2769017A0181E0C81AD108E108D4
:100A4000F1089D81923009F025C182E02FEFC21696
:100A5000D104E104F10409F00CF46BC160E970ED1C
:100A600083E090E0A50198010E942F2769017A0197
:100A700081E0C81AD108E108F10883E09FEFC916A8
:100A8000D104E104F10409F00CF453C168E478EEF8
:100A900081E090E0A50198010E942F2769017A0169
:100AA00081E0C81AD108E108F1089FEFC916D10406
:100AB000E104F10411F00CF043C184E03AC18093E9
:100AC0000102E4E0F2E094919D839F3F09F467CF37
:100AD000923009F473C050F4992391F1913009F4E4
:100AE0004BC097FD5CCF61E00ADF7ACF2D812430C7
:100AF00009F4AEC008F488C0253099F7109220019F
:100B00001092210190912101986090932101909180
:100B10002101916090932101282F30E0F901E254E6
:100B2000FE4FE491F0E0EE0FFF1FEC55FE4F4591B4
:100B30005491F901E25AFE4FE491E093B6054BCF90
:100B400014BC15BC94B5926094BD95B5916095BDEB
:100B5000282F30E0F901E254FE4FE491F0E0EE0F6F
:100B6000FF1FEC55FE4F45915491F901E25AFE4F9B
:100B7000E491E093BA052FCF10928000109281008B
:100B80009091810098609093810090918100916094
:100B900090938100282F30E0F901E254FE4FE49158
:100BA000F0E0EE0FFF1FEC55FE4F45915491F90117
:100BB000E25AFE4FE491E093B9050DCF1092B000D8
:100BC0001092B1009091B00092609093B00090911B
:100BD000B10091609093B100282F30E0F901E25408
:100BE000FE4FE491F0E0EE0FFF1FEC55FE4F4591F4
:100BF00054915093D0054093CF05F901E25AFE4F2E
:100C0000E491E093D105E7CE10929000109291000C
:100C100090919100986090939100909191009160D3
:100C200090939100282F30E0F901E254FE4FE491B7
:100C3000F0E0EE0FFF1FEC55FE4F45915491F90186
:100C4000E25AFE4FE491E093B80593E09D83C3CE52
:100C50001092A0001092A1009091A1009860909332
:100C6000A1009091A10091609093A100282F30E005
:100C7000F901E254FE4FE491F0E0EE0FFF1FEC5556
:100C8000FE4F45915491F901E25AFE4FE491E093F1
:100C9000B705A1CE2FEFC216D104E104F10409F08B
:100CA0000CF4A4C068E478EE81E090E0A50198011E
:100CB0000E942F2769017A0181E0C81AD108E10852
:100CC000F1089D81992309F489C19FEFC916D104C8
:100CD000E104F10409F00CF4F0CE62E17AE780E07F
:100CE00090E0A50194010E942F2769017A0181E01B
:100CF000C81AD108E108F1089D81992309F453C16C
:100D000086E09FEFC916D104E104F10491F088F068
:100D1000C980DA80EB80FC808AE0F594E794D79470
:100D2000C7948A95D1F781E0C81AD108E108F10883
:100D300087E09091B100987F892B8093B1002FC0FC
:100D400064E274EF80E090E0A50194010E942F27F7
:100D500069017A0181E0C81AD108E108F10885E04B
:100D60009FEFC916D104E104F10419F310F362E115
:100D70007AE780E090E0A50194010E942F276901A5
:100D80007A0181E0C81AD108E108F108B9CF81E001
:100D90002D812111CECF95B5987F892B85BD2FEF61
:100DA0003FEFA901411451046104710409F049C0E5
:100DB0009D81923009F4E7C00CF0CEC0992309F46C
:100DC000D3C0913009F0EBCDD0928900C092880059
:100DD0002093C7053093C8054093C9055093CA05B1
:100DE00080916F00826080936F00D9CD82E0D0CF78
:100DF000B12CA12C60E072E18AE790E0A501980196
:100E00000E942F2769017A0181E0C81AD108E10800
:100E1000F108C114D10491E0E906F10404F591E070
:100E20002D81213069F580918100887F892B809305
:100E300081002FEF3FEFA9014114510461047104B7
:100E400019F2D801AA0FBB1FA30192010E944B27E0
:100E500028EE33E040E050E00E945527A9CF68E437
:100E600078EE81E090E0A50198010E942F276901AA
:100E70007A0181E0C81AD108E108F10893E0D0CFE7
:100E80008D81833001F580919100887F892B80933B
:100E900091002FEF3FEFA901411451046104710447
:100EA00081F6D0929900C09298002093C3053093A8
:100EB000C4054093C5055093C605809171008260BA
:100EC000809371006CCD2D81243009F58091A100B3
:100ED000887F892B8093A1002FEF3FEFA901411458
:100EE00051046104710409F0ACCFD092A900C09202
:100EF000A8002093BF053093C0054093C1055093CF
:100F0000C2058091720082608093720048CD8D810D
:100F1000853009F044CF80912101887F892B80930F
:100F200021012FEF3FEFA901411451046104710425
:100F300009F087CFD0922901C09228012093BB05E8
:100F40003093BC054093BD055093BE05809173005E
:100F500082608093730023CD8D81843031F20CF454
:100F6000A0CF853039F31BCDC7BC2093CB05309380
:100F7000CC054093CD055093CE0580916E008260E4
:100F800080936E000CCDC092B3002093D2053093B5
:100F9000D3054093D4055093D505809170008260AD
:100FA00080937000FCCC84E02FEFC216D104E104E2
:100FB000F10409F008F4EFCEC980DA80EB80FC8000
:100FC0009AE0F594E794D794C7949A95D1F791E075
:100FD000C91AD108E108F10885E0DDCE83E02FEFE2
:100FE000C216D104E104F10411F00CF076CED3CE98
:100FF0003FB7F8948091B2059091B305A091B405E4
:10100000B091B50526B5A89B05C02F3F19F00196F4
:10101000A11DB11D3FBFBA2FA92F982F8827BC0152
:10102000CD01620F711D811D911D42E0660F771F7A
:10103000881F991F4A95D1F708958F929F92AF927A
:10104000BF92CF92DF92EF92FF926B017C01D0DFD3
:101050004B015C01C114D104E104F104B1F0C8DF1B
:10106000681979098A099B09683E734081059105D1
:1010700088F321E0C21AD108E108F10888EE880E51
:1010800083E0981EA11CB11CE5CFFF90EF90DF908C
:10109000CF90BF90AF909F908F9008952FB7F89406
:1010A0006091AE057091AF058091B0059091B1054A
:1010B0002FBF08954F925F926F927F92AF92BF922F
:1010C000CF92DF92EF92FF920F931F93CF93DF9314
:1010D0008C016B017B01E40EF51EEB015E01AC1887
:1010E000BD08EC16FD06E9F0D9DFF80160877187CD
:1010F00082879387C8010EDA97FF23C0CFDFF801FC
:10110000408451846284738464197509860997093F
:10111000448055806680778064157505860597053F
:1011200048F3C501DF91CF911F910F91FF90EF9090
:10113000DF90CF90BF90AF907F906F905F904F9077
:1011400008958993CBCF0F931F93CF93DF93FA0129
:101150008FEF808386E0820F8183DB0112969C9162
:101160001297928313969C9193830F3F110509F078
:1011700098F404832B5F3F4FDF01A20FB31FEF01F1
:1011800020E08150990BAE014E1B5F0B48175907A9
:1011900034F43991230FF7CF93E09483EBCF2C9362
:1011A000DF91CF911F910F9108950F931F93CF93CC
:1011B000DF93E901DA011596F901202F30E08F0164
:1011C0000C1B1D0B021713071CF401910D93F7CF95
:1011D00010E000E0B8DFDF91CF911F910F910895EB
:1011E0000F931F93890130E020E0ADDF1F910F9135
:1011F0000895DC0114962D913C911597243031050A
:10120000D9F028F4232B79F080E890E00895253078
:101210003105C1F026303105B9F7ED91FC91048418
:10122000F585E02D05C0ED91FC910190F081E02D58
:10123000199590E080E00895ED91FC910084F1858E
:10124000E02DF6CFED91FC910284F385E02DF0CFF7
:101250008FEF9FEF0895CF93DF93DC019F962D9141
:101260003C91D0972430310571F128F4232BE9F01B
:10127000DF91CF910895EC012530310561F12630E1
:101280003105B1F78A819B81DC01ED91FC91E65734
:10129000FF4F0190F081E02D62E674E01995E8813E
:1012A000F9810484F585E02D28C0FC0162817381F9
:1012B0000190F081E02D0088F189E02D18964C9185
:1012C000DF91CF911994ED91FC910084F185E02D8F
:1012D000DF91CF9119948A819B81DC01ED91FC9182
:1012E000E657FF4F0190F081E02D64E574E0199519
:1012F000E881F9810284F385E02DCE01E9CFCF9317
:10130000DF93EC018A819B81DC01ED91FC91E85A2D
:10131000FF4F0190F081E02D6885199518AA1FA64E
:1013200090E080E0DF91CF910895CF93DF93DA01D1
:1013300070E085539F4F9D01241B350B26173707FF
:10134000DCF42D9130E0220F331FFC01C081D181EC
:10135000C20FD31FE881F981E0812E2F30E0F9011F
:10136000EE0FFF1FE20FF31FE35EFA4F20812F7B8A
:10137000208319821882DFCF90E080E0DF91CF9147
:1013800008954F925F926F927F928F929F92AF9249
:10139000BF92CF92DF92EF92FF920F931F93CF9362
:1013A000DF93EC016A0179018A01462E512C5C0120
:1013B0004BECA40EB11C38E8632E712C48E5842E4A
:1013C00042E0942EC8018C199D09841595050CF0F6
:1013D0008BC0E881F981E858FF4F0190F081E02D42
:1013E0006FE674E0CE011995D8018D918D0190E0E2
:1013F000880F991FF50120813181820F931FDC0135
:101400004D915C91052E000C660B770BE881F981FC
:10141000EC57FF4F0190F081E02D2AE030E0CE0143
:101420001995E881F981E858FF4F0190F081E02D8E
:1014300066E774E0CE011995F701419151917F0162
:1014400070E060E0E881F981EC56FF4F0190F08197
:10145000E02D2AE030E0CE011995F8013197808126
:1014600090E0880F991FD5012D913C91820F931F19
:10147000DC01ED91FC916081603308F0A3CFD701CE
:1014800012972D913C918181A301481B510987FD41
:101490005395CA01880F991F880F991F281739077C
:1014A0007CF08281D401A81BB10987FDB395CD01E1
:1014B000880F991F880F991F281739070CF4C90145
:1014C0000297AC01440F551F7FB7F894862F90E028
:1014D0009C01220F331F820F931FFC01E35EFA4F22
:1014E000528341837FBF6ECF90E080E0DF91CF9148
:1014F0001F910F91FF90EF90DF90CF90BF90AF9032
:101500009F908F907F906F905F904F90089586E8A6
:1015100098E0662361F089EE97E0613041F08CE459
:1015200097E0623021F0633019F48FEA96E0D1D869
:1015300090E080E00895862FB901811108C050E045
:1015400086E898E00E94350290E080E008958130BE
:1015500021F450E089EE97E0F5CF823021F450E09D
:101560008CE497E0EFCF833079F750E08FEA96E094
:10157000E9CF0F931F93CF93862FC42FB901811109
:1015800010C050E086E898E095DDF8018083F8010E
:1015900080818C1318C090E080E0CF911F910F9153
:1015A0000895813021F450E089EE97E0EDCF82304C
:1015B00021F450E08CE497E0E7CF833041F750E02E
:1015C0008FEA96E0E1CF83E890E0E7CFCF93DF9317
:1015D000EA0186E898E0662361F089EE97E06130E1
:1015E00041F08CE497E0623021F0633029F48FEA17
:1015F00096E00E94AC02888390E080E0DF91CF917A
:1016000008958F929F92AF92BF92FF920F931F9374
:10161000CF93DF93EC01F62E49015A01E881F9815D
:10162000E85AFF4F0190F081E02D1995E881F9818A
:1016300006A4F7A5E02DA50194016F2DCE01199503
:10164000DF91CF911F910F91FF90BF90AF909F902E
:101650008F9008954F925F926F927F92AF92BF9258
:10166000EF92FF920F931F93CF93DF93FC01EF5301
:10167000FF4FE081F0E0B12CA12C7C0172ECE70E71
:10168000F11CAE16BF06BCF4E701A881B981E501E3
:10169000CC0FDD1FCC0FDD1FAC0FBD1F4D905D903B
:1016A0006D907C90241535054605570520F0DFEF39
:1016B000AD1ABD0AE6CFA114B10419F0E1E0AE1AEB
:1016C000B108611133C0E501CC0FDD1FCC0FDD1F68
:1016D0007C01F2ECEF0EF11CD701ED91FC91EC0FC7
:1016E000FD1F408151816281738186E898E00E94EC
:1016F000D501F70140815181C40FD51F888199819F
:10170000AA81BB81E80188839983AA83BB8390E087
:1017100080E0DF91CF911F910F91FF90EF90BF90EC
:10172000AF907F906F905F904F9008956130A9F4D3
:10173000E501CC0FDD1FCC0FDD1F7C01E2ECEE0ECE
:10174000F11CD701ED91FC91EC0FFD1F40815181FF
:101750006281738189EE97E0CACF6230A9F4E50116
:10176000CC0FDD1FCC0FDD1F7C01E2ECEE0EF11C77
:10177000D701ED91FC91EC0FFD1F408151816281F9
:1017800073818CE497E0B3CF633009F6E501CC0FA9
:10179000DD1FCC0FDD1F7C01E2ECEE0EF11CD7014A
:1017A000ED91FC91EC0FFD1F4081518162817381AD
:1017B0008FEA96E09CCF81E090E0089580911B0530
:1017C00090911A05891B990B089590E080E0089587
:1017D0000895089587539F4FDC01ED91FC91E60F2A
:1017E000F11D8081882329F08F5F808390E080E065
:1017F000089510921A0510921B0510928C061092F3
:10180000AE0610928A0681E08093890610926406E3
:1018100061E084E103D861E085E100D88091B900FE
:101820008E7F8093B9008091B9008D7F8093B9003D
:1018300088E48093B80085E48093BC0088EE9BE048
:10184000909319058093180589EE9BE090931705F6
:1018500080931605CBCF5F926F927F928F929F926B
:10186000AF92BF92CF92DF92EF92FF920F931F93AE
:10187000CF93DF93D42F822E61E0802F40D88E2D1E
:101880008170582ECE2DC095C1706C2F802F0E9474
:101890000E0410E0F12CE12C912C6D2E712CE8142B
:1018A000F90434F5652D802F0E940E0430E020E00D
:1018B00026153705A4F4812F820F90E0F601E80F7A
:1018C000F91F40818A0D9B1D4EBD00000DB407FE1F
:1018D000FDCF4EB5FC0140832F5F3F4FE9CF6C2F0A
:1018E000802F0E940E04FFEFEF1AFF0A1D0FD7CFC3
:1018F00090E080E0DF91CF911F910F91FF90EF90EA
:10190000DF90CF90BF90AF909F908F907F906F901F
:101910005F9008958CB5411105C080628CBD90E048
:1019200080E008958F7DFACFCF93CFB7F894809160
:101930001505811127C0E3EFF1E08491E3E9F1E0BF
:101940009491E82FF0E0EE0FFF1FEC51FF4FA591AF
:10195000B491EC91E92321F461E085E30E940E0447
:1019600061E085E30E947F048CB580618CBD8CB5FD
:1019700080648CBD61E084E30E947F0461E083E3C6
:101980000E947F04809115058F5F80931505CFBF5E
:1019900090E080E0CF9108958F929F92AF92BF9296
:1019A000CF92DF92EF92FF920F931F93CF93DF932B
:1019B0005A0169018A01E62EF12CC8018A199B0996
:1019C0008E159F050CF0DCC061E0F80181918F015C
:1019D0000E947F04F60181906F01C82DD0E0F801CC
:1019E0003197908061E0892D0E947F04209729F42F
:1019F00060E0892D0E940E04E0CFCF3FD10511F4A5
:101A000061E0F7CFE92DF0E0E250FF4FE491E150C3
:101A1000E23108F0B0C0F0E08827EE5EF24F8F4F61
:101A20000C94A527240D290D2E0D380D420DBB0D4C
:101A30004C0D540D5C0D660D700D7A0D890D930DD6
:101A4000BB0D9D0DA70DB10D84B5806884BD87BC0D
:101A5000B4CF84B5806284BD88BCAFCF8091800054
:101A6000806880938000D0938900C0938800A5CFC0
:101A700080918000806280938000D0938B00C0931F
:101A80008A009BCF80918000886080938000D093F3
:101A90008D00C0938C0091CF8091B00080688093BE
:101AA000B0008092B30089CF8091B00080628093B3
:101AB000B0008092B40081CF8091900080688093C4
:101AC0009000D0939900C093980077CF80919000B8
:101AD000806280939000D0939B00C0939A006DCF5A
:101AE00080919000886080939000D0939D00C09377
:101AF0009C0063CF8091A00080688093A0008091BB
:101B0000A0008F7B8093A000D093A900C093A80071
:101B100054CF8091A00080628093A000D093AB004E
:101B2000C093AA004ACF8091A00088608093A00053
:101B3000D093AD00C093AC0040CF8091200180686D
:101B400080932001D0932901C093280136CF809142
:101B50002001806280932001D0932B01C0932A0141
:101B60002CCF80912001886080932001D0932D019B
:101B7000C0932C0122CFC038D1050CF041CF38CF13
:101B800090E080E0DF91CF911F910F91FF90EF9057
:101B9000DF90CF90BF90AF909F908F9008958F92DD
:101BA0009F92AF92BF92CF92DF92EF92FF920F93EC
:101BB0001F93CF93C62F49015A0167017801811401
:101BC0009104A104B104F9F061E08C2F0E947F041C
:101BD000A8019601CD28CE28CF2819F420E030E0C6
:101BE000A901B4018C2F0E94B00490E080E0CF9155
:101BF0001F910F91FF90EF90DF90CF90BF90AF902B
:101C00009F908F900895862F0E943B04EECF7F9285
:101C10008F929F92AF92BF92CF92DF92EF92FF92FC
:101C20000F931F93CF93DF937A016901EA0180E05C
:101C3000812C28E0B22E062F10E0F601E80DF11DF0
:101C40009E012E193F09201731070CF03BC0B1103F
:101C500032C08083839497E0992EA99060E08A2D0A
:101C60000E947F042A2D30E0F901E250FF4F849159
:101C7000F901E25AFE4FA490F901E254FE4F74902C
:101C80007720F1F081110E94A703E72DF0E0EE0F1D
:101C9000FF1FEC5BFE4FA591B491EC91AE2231E0B9
:101CA00009F430E0832F092C01C0880F0A94EAF769
:101CB0008B29B92CC2CF99249A949B0CB82ECDCFE6
:101CC00080E0F1CF808390E080E0DF91CF911F91A1
:101CD0000F91FF90EF90DF90CF90BF90AF909F90CB
:101CE0008F907F900895CF92DF92EF92FF920F93A3
:101CF0001F93CF93DF937901EA01D12CC12C062FDA
:101D000010E0C016D10604F561E089910E947F04BD
:101D1000F60183E0F595E7958A95E1F7EE0DFF1D55
:101D2000608170E0C6018770992702C0759567953C
:101D30008A95E2F76170FE01319780810E940E045E
:101D40008FEFC81AD80ADDCF90E080E0DF91CF9105
:101D50001F910F91FF90EF90DF90CF900895CF9259
:101D6000DF92EF92FF920F931F93CF93DF93FC01CB
:101D70006130E9F030F0623009F450C081E890E061
:101D80000DC081E08093000282899389A489B5897E
:101D9000868B978BA08FB18F90E080E0DF91CF9101
:101DA0001F910F91FF90EF90DF90CF900895DC018D
:101DB000AC54BF4F6C91662309F390E080E070E073
:101DC0008F010B541F4F861797070CF044C0E80192
:101DD000A881B981EC01CC0FDD1FCC0FDD1FAC0F4A
:101DE000BD1FCD90DD90ED90FC902C153D054E056E
:101DF0005F0591F4880F991FDF01A954BF4F0D9023
:101E0000BC91A02DA80FB91F8C9180930002268B46
:101E1000378B408F518FC0CF0196D5CFDC01A754AF
:101E2000BF4F8D919D910D90BC91A02D2817390722
:101E30004A075B0780F0DF01A354BF4F8D919D914E
:101E40000D90BC91A02D82179307A407B50718F039
:101E500010920002DCCF82E890E0A0CF6F927F92D8
:101E60008F929F92AF92BF92CF92DF92EF92FF92AA
:101E70000F931F93CF93DF938C01E9011882DA014E
:101E800098E0B92E912C70E0E8E0EE2EF12CCD0117
:101E9000841B950B861797070CF050C09D919633C5
:101EA00008F09653E0917B00892F8870E77F8E2B96
:101EB00080937B00E0910002D0E4ED9FF0011124BB
:101EC00097709E2B90937C0080917A008064809321
:101ED0007A0080917A0086FDFCCF80917800E091B5
:101EE00079007E2E682EF801A188AA2081F2C9010E
:101EF000890D911DE801E989CE2ECA18DD08F3018C
:101F000002C0F695E795CA94E2F7EF016701CB1896
:101F1000D10801C0CC0FCA94EAF7FC01D081CD2BC7
:101F2000C083AB1410F4BA18B2CFAB189394E90184
:101F3000C90DD11D188288E0B82ED7CF90E080E07F
:101F4000DF91CF911F910F91FF90EF90DF90CF9095
:101F5000BF90AF909F908F907F906F9008959ED884
:101F600028EE33E040E050E00E945527CA01B90155
:101F7000089594C8CB01BA0160C89CB59C7F282FF6
:101F80002370922B9CBD9DB582FB222720F9892FBF
:101F90008E7F822B8DBD08954F925F926F927F92BC
:101FA0008F929F92AF92BF92CF92DF92EF92FF9269
:101FB0000F931F93CF93DF937C0129013A01D0E067
:101FC000C0E04C0184EC880E911C6701A5ECCA0EA0
:101FD000D11C5701B7ECAB0EB11CF401808190E02D
:101FE000C817D9071CF5D601ED91FC919E01220F6F
:101FF000331F220F331FE20FF31F40815181628193
:102000007381441655066606770618F1F801408379
:10201000518362837383CC0FDD1FF701E953FF4FB8
:1020200080819181C80FD91F8881A7DF90E080E06F
:10203000DF91CF911F910F91FF90EF90DF90CF90A4
:10204000BF90AF909F908F907F906F905F904F90D8
:10205000089501978C179D0781F4D8014D935D93E6
:102060006D937C931397D501ED91FC91CE01880F70
:10207000991FE80FF91F808180DF2196AECF9CB5B4
:10208000937F892B8CBD0895413059F038F0423050
:1020900051F0433051F090E080E0089580E0EFDFB0
:1020A000FACF84E0FCCF88E0FACF8CE0F8CF2F9213
:1020B0003F924F925F926F927F928F929F92AF92D8
:1020C000BF92CF92DF92EF92FF920F931F93CF9325
:1020D000DF93CDB7DEB7A1970FB6F894DEBF0FBE82
:1020E000CDBF6C01362ECA01B9016115710581059C
:1020F000910511F5D601ED91FC9100ACF1ADE02D0B
:1021000040E3632DC601A1960FB6F894DEBF0FBE63
:10211000CDBFDF91CF911F910F91FF90EF90DF9096
:10212000CF90BF90AF909F908F907F906F905F9077
:102130004F903F902F901994FE0131964F01412C02
:10214000512C32015F01E02EF12C10E000E0A801DB
:1021500097010E945527222E39A3DA01A30192018B
:102160002F5F3F4F4F4F5F4FF40161934F01622D3F
:1021700079A1CD01611571058105910599F5790167
:1021800010E000E0D601ED91FC9100ACF1ADE02D46
:10219000D201A01BB10BAA0DBB1D4C914A3028F5F2
:1021A000405D632DC60119950F5F1F4FE016F106C4
:1021B00049F7A1960FB6F894DEBF0FBECDBFDF91F1
:1021C000CF911F910F91FF90EF90DF90CF90BF9034
:1021D000AF909F908F907F906F905F904F903F90C7
:1021E0002F90089529013A01B2CF495CDACF0895C2
:1021F00008950895089508950895089508950895F7
:1022000081E090E0089581E090E0089581E090E021
:10221000089581E090E00895FF920F931F93CF936C
:10222000DF93EC01F62EE881F981EA5BFF4F019024
:10223000F081E02D1995E881F981E85BFF4F01906D
:10224000F081E02D6F2DCE01DF91CF911F910F9185
:10225000FF9019941F93CF93DF93EC01162FE88121
:10226000F981EC5BFF4F0190F081E02D1995E88139
:10227000F981E85BFF4F0190F081E02D612FCE01E5
:10228000DF91CF911F9119941F93CF93DF93EC01AE
:10229000162FE881F981EE5BFF4F0190F081E02D70
:1022A0001995E881F981E85BFF4F0190F081E02DFD
:1022B000612FCE01DF91CF911F9119941F93CF937E
:1022C000DF93EC01162FE881F98106ACF7ADE02D24
:1022D0001995E881F981E85BFF4F0190F081E02DCD
:1022E000612FCE01DF91CF911F9119941F93CF934E
:1022F000DF93EC01162FE881F98104ACF5ADE02DF8
:102300001995E881F981E85BFF4F0190F081E02D9C
:10231000612FCE01DF91CF911F9119941F93CF931D
:10232000DF93EC01162FE881F98102ACF3ADE02DCB
:102330001995E881F981E85BFF4F0190F081E02D6C
:10234000612FCE01DF91CF911F9119941F93CF93ED
:10235000DF93EC01162FE881F98100ACF1ADE02D9F
:102360001995E881F981E85BFF4F0190F081E02D3C
:10237000612FCE01DF91CF911F9119941F93CF93BD
:10238000DF93EC01162FE881F98100ACF1ADE02D6F
:102390004DE01995E881F98100ACF1ADE02D4AE0FE
:1023A000612FCE01DF91CF911F9119940F931F934D
:1023B000DC01ED91FC910115110539F400ACF1AD92
:1023C000E02D422F1F910F9119940A30110541F40D
:1023D000EE5BFF4F0190F081E02D1F910F9119945A
:1023E000E856FF4F0190F081E02D19951F910F9154
:1023F00008950F93DC01ED91FC91E856FF4F019099
:10240000F081E02D0AE019950F910895CF92DF92A7
:10241000EF92FF920F931F93CF93DF93EC01162F50
:1024200069017A01F7FE0FC0E881F98100ACF1ADD6
:10243000E02D4DE21995F094E094D094C094C11C25
:10244000D11CE11CF11CE881F981E856FF4F019095
:10245000F081E02D0AE0A7019601612FCE011995C8
:10246000DF91CF911F910F91FF90EF90DF90CF9070
:1024700008959A0150E040E0DC01ED91FC91EC5BA5
:10248000FF4F0190F081E02D19949A01550F440BF4
:10249000550BDC01ED91FC91EE5BFF4F0190F0815B
:1024A000E02D1994DC01ED91FC9104ACF5ADE02D2B
:1024B0001994FF920F931F93CF93DF93EC01F62EA5
:1024C0008A01F80141918F01442349F0E881F981A3
:1024D00000ACF1ADE02D6F2DCE011995F2CFDF915B
:1024E000CF911F910F91FF900895CF93DF931F928B
:1024F000CDB7DEB74983DC01ED91FC9106A8F7A9C1
:10250000E02D9E012F5F3F4F41E019950F90DF9125
:10251000CF91089581E090E008950895EF92FF92A1
:102520000F931F93CF93DF9300D01F92CDB7DEB7E9
:102530007C0119821A821B821C82DC01ED91FC91C4
:1025400006A4F7A5E02D8E010F5F1F4F20E032ECAF
:1025500041E050E01995D701ED91FC91E657FF4F0E
:102560000190F081E02D6AE774E0C70119950F90A2
:102570000F900F900F90DF91CF911F910F91FF90CF
:10258000EF900895089508950895AF92BF92CF9265
:10259000DF92EF92FF920F931F93CF93DF936B0124
:1025A0007A01EC01CF5EDA4F28813CE0389F800150
:1025B000399F100D1124A0901C05B12C27FF1FC0BE
:1025C000FB011182108288818F5F88838881980146
:1025D000280F311D87FD3A95F6012A153B051CF49D
:1025E00088818C30C4F180819181049680349C492B
:1025F00008F473C0F60180819181049670C08881CF
:102600009801280F311D87FD3A952A153B05DCF608
:102610008881A801480F511D87FD5A95FA01EE0FD8
:10262000FF1FE40FF51FE35EFA4F808186FFCBCFDB
:102630008881F801E80FF11D87FDFA95CF01EE0FB3
:10264000FF1FE80FF91FE35EFA4F808160E08F7390
:102650000E940E04B8CF808191812881A801420F89
:10266000511D27FD5A959A01FA01EE0FFF1FE20F47
:10267000F31FE35EFA4F21813281820F931FF7012E
:102680009183808388819801280F311D87FD3A95B9
:10269000F901EE0FFF1FE20FF31FE35EFA4F808197
:1026A00086FF22C08881080F111D87FD1A95F80149
:1026B000EE0FFF1FE00FF11FE35EFA4F808161E034
:1026C0008F73DF91CF911F910F91FF90EF90DF906B
:1026D000CF90BF90AF900C940E0480E49CE9F7017A
:1026E000918380838FEF8883DF91CF911F910F912A
:1026F000FF90EF90DF90CF90BF90AF90089585ED61
:102700008093BC008091BC0084FDFCCF10928A06AF
:1027100008952091EE04260F3327331F213231050F
:10272000ECF420918A06FC0190E080E0243069F00E
:1027300082E00895A091EE042191AC0142535B4FD9
:10274000A40FB52FB11D2C930196861798F3809195
:10275000EE04680F6093EE0480E0089581E0089530
:10276000E0911A0580911B05E81730F4F0E0EC5B6E
:10277000F94F808190E008958FEF9FEF0895909139
:102780001A0580911B052FEF3FEF981748F4E92FAA
:10279000F0E0EC5BF94F208130E09F5F90931A05E9
:1027A000C9010895CF92DF92EF92FF920F931F938A
:1027B000CF93DF937C01CB018A0120918B062223EA
:1027C00089F0EB016B01C40ED51ECC15DD0561F05F
:1027D0006991D701ED91FC910190F081E02DC70145
:1027E0001995F3CF642F95DFC801DF91CF911F9129
:1027F0000F91FF90EF90DF90CF900895EF92FF92AE
:102800000F93CF93C22FB70181E080938B06409343
:10281000AD0610928C061092AE06402F50E084E573
:1028200099E0C0DF81E0CC2319F0C13051F480E0A1
:102830000E94360190E080E0CF910F91FF90EF90E1
:10284000089581E00E94360181E890E0F5CFCF93B2
:10285000DF931F92CDB7DEB7698320918B062223C9
:10286000F9F02091AE06203258F021E030E0FC0172
:102870003383228390E080E00F90DF91CF91089521
:1028800080918C06E82FF0E0E357F94F998190830F
:102890008F5F80938C068093AE0681E090E0ECCF52
:1028A00061E0CE01019635DFF8CF90E080E0089539
:1028B000CB010C9419272F923F924F925F926F9207
:1028C0007F928F929F92AF92BF92CF92DF92EF92C0
:1028D000FF920F931F93CF93DF938C015A016A01EC
:1028E000462E512C3C018BEC680E711C42E0342EBC
:1028F00058EB852E5BE0952EC6018A199B0984153D
:1029000095050CF0C9C0D6012D906D01E22CF12C7B
:10291000EE0CFF1CF30180819181E80EF91ED701B6
:102920008D919C91892B41F783E090E00E94C8270C
:10293000EC0180911C05803308F081C091E0980F74
:1029400090931C05888390E0FC01EE0FFF1FE80FB9
:10295000F91FE35EFA4F92828182F701D183C0832F
:102960008881803308F04EC061E0822D0E947F0490
:102970008881282F30E0F901EE0FFF1FE20FF31FCF
:10298000E35EFA4F9081907C222D2F73922B9083DF
:1029900019821A826CE00E948627869FF00111241A
:1029A00050E040E0BF01640F751F9B01220F331FF1
:1029B000260F371FD901A35EBA4F9C9196FD15C013
:1029C0004F5F5F4F4C30510569F78130D9F5109258
:1029D0008000309281001092850010928400B19A9C
:1029E00080916F00826080936F00E8818E2F90E06D
:1029F000FC01EE0FFF1FE80FF91FE35EFA4F808125
:102A000080648083D801ED91FC91E858FF4F0190DC
:102A1000F081E02D6CE874E0C8011995422D50E07A
:102A200070E060E0D801ED91FC91EC56FF4F019011
:102A3000F081E02D2AE030E0C80119955DCFBFEFAD
:102A4000B8838BCF823061F4109290008093910014
:102A5000109295001092940088BB80937100C5CFAE
:102A6000833061F41092A0003092A1001092A50072
:102A70001092A40039BA30927200B7CF8111B5CF4D
:102A80001092200130922101109225011092240110
:102A90003ABA30927300A9CF90E080E0DF91CF91F5
:102AA0001F910F91FF90EF90DF90CF90BF90AF906C
:102AB0009F908F907F906F905F904F903F902F905E
:102AC0000895DF92EF92FF920F931F93CF93DF93BE
:102AD00000D01F92CDB7DEB77C018B01D42EDC0174
:102AE00013967C936E931297FB01878190E00E946E
:102AF000C827D7011A969C938E931997F80187815E
:102B000090E00E94C827D7011C969C938E931B9738
:102B1000D801ED91FC91E657FF4F0190F081E02D37
:102B20006AEA74E0C8011995F701D08619821A8201
:102B30001B821C8282819381DC01ED91FC9106A4B1
:102B4000F7A5E02D8E010F5F1F4F20E835E240E032
:102B500050E06D2D199584E090E0F70190AB87A7C8
:102B60000F900F900F900F90DF91CF911F910F91C9
:102B7000FF90EF90DF9008950E94ED280F931F9330
:102B800090E0FC01E25AFE4F7491FC01E254FE4FCA
:102B9000E4916111672FF0E0EE0FFF1FEC5BFE4F39
:102BA0008591949189019A013F70462F672F0E9469
:102BB000F324611571058105910529F06F5F7F4F41
:102BC0008F4F9F4F9F701F910F910895AF92BF92AB
:102BD000CF92DF92EF92FF920F93CF93DF93C62FA6
:102BE000D22F4130D9F561E08C2F0E947F0461E043
:102BF0008C2F0E940E0461E070E080E090E00E9463
:102C00001D0860E08C2F0E940E0461E070E080E0FF
:102C100090E00E941D0861E08C2F0E940E0460E08D
:102C20008D2F0E947F04A701960160E0002319F018
:102C3000013041F461E08D2FA1DFF50160837183E4
:102C40008283938390E080E0DF91CF910F91FF909A
:102C5000EF90DF90CF90BF90AF9008954230F9F69B
:102C600061E08C2F0E947F0460E08C2F0E940E0494
:102C700061E070E080E090E00E941D0861E08C2F30
:102C80000E940E0461E070E080E090E00E941D0868
:102C900060E0C2CF2F923F924F925F926F927F92ED
:102CA0008F929F92AF92BF92CF92DF92EF92FF925C
:102CB0000F931F93CF93DF9300D000D01F921F92EA
:102CC000CDB7DEB74C012DB63EB61E82DC011296A2
:102CD0008D919C91DC01ED91FC9102A8F3A9E02D6E
:102CE000AE014A5F5F4FD40118966C9119958E81A1
:102CF000823010F40C94A7201D82F401828193810C
:102D000021853285DC01ED91FC9104A8F5A9E02D27
:102D10008E010B5F1F4F42E0D40118966C911995FC
:102D2000D4011996ED91FC911A97208112968D91FC
:102D30009C91DC01ED91FC9102A8F3A9E02DAE017C
:102D40004A5F5F4FD40118966C912F3F11F00C949D
:102D5000922019952E81D4011996ED91FC918181D3
:102D60008250990B281719060CF06FC005E610E089
:102D7000F40182819381DC01ED90FC9060854E81AD
:102D8000A185B28511962C912250330B4217130660
:102D90000CF05BC0D701D296ED91FC91AE014A5F79
:102DA0005F4F199501501109F40182819381DC0173
:102DB000ED91FC9101151105E9F502A8F3A9E02DAB
:102DC000AE014A5F5F4FD40118966C911995F401DA
:102DD0008281938121853285DC01ED91FC9104A8EB
:102DE000F5A9E02D8E010B5F1F4F4E81D40118967F
:102DF0006C9119958FEF9FEF0FB6F8943EBE0FBE02
:102E00002DBE28960FB6F894DEBF0FBECDBFDF9162
:102E1000CF911F910F91FF90EF90DF90CF90BF90D7
:102E2000AF909F908F907F906F905F904F903F906A
:102E30002F900895E259FF4F0190F081E02D41E07D
:102E400050E060E070E0199593CFF40182819381A6
:102E50000184F285E02D9F012E5F3F4F418142505A
:102E6000DC01ED91FC9104A8F5A9E02D8E010B5F2A
:102E70001F4FD40118966C911995F4014185528524
:102E8000DA0111962C9130E0D9011197FA0160E036
:102E9000CF01841B950B8A179B071CF48191680F47
:102EA000F7CFF40182819381FC01A081B181240FCD
:102EB000351FF9013197208126130C948920AA56D9
:102EC000BF4FED91FC9161E01995D4011B964D9097
:102ED0005C901C9719966D907C901A97F301448131
:102EE00055815427452754274115FCEF5F07D8F03B
:102EF000198292012B5F3F4FB3016A5F7F4FD3016D
:102F000011968C91FA01FC5FEE0FFF1FE80DF91D81
:102F10000584F685E02DAE014F5F5F4F8750199510
:102F20007C01298105C64432510509F4C4C508F065
:102F30004FC14231510509F418C308F086C04A3028
:102F4000510509F4E8C208F04CC04530510509F4B8
:102F50008AC260F44330510509F453C208F064C2D8
:102F6000452B09F431C321E030E030C3483051052E
:102F700009F497C208F0C8C246305105A1F7F30121
:102F8000208530E0322F2227032E000C440B550BF6
:102F90008185282B19821A821B821C8212968D91A0
:102FA0009C91DC01ED91FC9100A8F1A9E02D8E012E
:102FB0000F5F1F4FD40118966C9119957C01F40195
:102FC00082819381DC01ED91FC91E259FF4F0190E8
:102FD000F081E02D48EE53E060E070E01995970134
:102FE0004EC7F401A281B3814E30510509F4A8C245
:102FF00068F44C30510509F49CC208F493C29D96C4
:103000002D913C919E979C960C9151C24031510557
:1030100009F4A4C208F49BC2ED91FC911197E65704
:10302000FF4F0190F081E02D60EC74E0CD01199527
:1030300030E020E0A201B301C4010E94F00885E065
:1030400090E0F40190AB87A737C24A31510509F4EB
:10305000BDC308F05DC012968D919C91463151051B
:1030600009F41FC370F54431510509F4C3C208F4D3
:10307000B3C28F5B9F4FFC018381D20115968C9365
:10308000D4011296ED91FC911397EF5BFF4F828173
:10309000F20186831296ED91FC91EF5BFF4F8181E7
:1030A000D20117968C93D4011296ED91FC91EF5BAF
:1030B000FF4F8081F201808710E000E024E030E0E3
:1030C000CCC14831510509F42AC308F419C3895BFE
:1030D0009F4FFC018381D20115968C93D4011296E7
:1030E000ED91FC911397E95BFF4F8281F20186839A
:1030F0001296ED91FC91E95BFF4F8181D201179609
:103100008C93D4011296ED91FC91E95BFF4FD1CFE6
:103110004E31510509F4F5C350F5F40182819381D4
:103120004C31510509F490C308F480C3835B9F4F71
:10313000FC018081D20115968C931597169650E06C
:1031400040E0F40182819381FC01E35BFF4F208129
:1031500030E0421753070CF0D1C3840F951FFC01D8
:10316000E25BFF4F80818D934F5F5F4FEACF40322C
:10317000510509F4EDC308F4DEC34232510509F4E8
:1031800045C44332510509F0EECE1296ED91FC9103
:103190001397E055FF4F8381F20185831296ED91DD
:1031A000FC91E055FF4F8281D20116968C93D40199
:1031B0001296ED91FC911397E055FF4F8181F2013A
:1031C00087831296ED91FC91E055FF4F808165C198
:1031D000413E510509F4EAC508F094C04436510552
:1031E00009F40DC508F051C04334510509F4A2C4D7
:1031F00088F44134510509F465C408F07AC44532B5
:10320000510509F0B0CE1296ED91FC9125AD36AD89
:1032100004AD4DC14036510509F4BDC441365105D8
:1032200009F4D2C44434510509F09DCEF3016285FE
:103230007385848595850E94AD276B017C0112966C
:103240008D919C91DC01ED91FC910488F589E02D34
:103250009E012F5F3F4F5901D30119960C91199789
:1032600016962C91169718964C91189717966C9164
:1032700019957C0189819A812B813C81F2013583EA
:1032800026839783808787013AC6423C510509F41B
:103290002EC500F5403C510509F4EDC408F00BC5FE
:1032A0004338510509F05FCEF40182819381D30147
:1032B00016966C91262F30E0295F3F4F260D371D63
:1032C000A301495F5F4FDC01ED91FC910688F7890E
:1032D000E02D0DC4443C510509F443C508F429C54B
:1032E000453C510509F452C5403E510509F03BCE1D
:1032F000F40182819381DC01ED91FC9104A0F5A1A0
:10330000E02D4FC54730F1E05F0709F4FBC5C0F57C
:10331000411531E0530709F4A2C5A0F4433E51051D
:1033200009F478C508F45BC5443E510509F01BCE8D
:1033300012968D919C91DC01ED91FC9104A4F5A570
:10334000E02D2FC5423091E0590709F4AFC508F4CC
:103350009CC54330514009F006CED40112968D91A0
:103360009C91DC01ED91FC91068CF78DE02DD30151
:1033700017964C91179716966C9119957C0183CFEF
:103380004036E1E05E0709F45FC610F5413421E004
:10339000520709F4E9C5423431E0530709F444C641
:1033A0004034514009F0DFCDF40182819381A301C3
:1033B0004A5F5F4FD30111966C916750DC01ED912C
:1033C000FC91E65AFF4F0190F081E02D1995E1C381
:1033D000423691E0590709F46EC608F44CC64336EC
:1033E000B1E05B0709F488C64436514009F0BBCD13
:1033F000F40182819381DC01ED91FC91E859FF4F4A
:1034000083C61296ED91FC9113978281F201858318
:103410001296ED91FC918381D20116968C9310E067
:1034200000E022E030E019C01296ED91FC91139774
:103430008085F20185831296ED91FC918185D20100
:1034400016968C93D4011296ED91FC918285F2012F
:10345000878310E000E023E030E0A201B301C40163
:103460000E94A30829C01296ED91FC91139782A99E
:10347000F20185831296ED91FC9181A9D2011696F5
:103480008C93D4011296ED91FC91139780A9F201CF
:1034900087831296ED91FC9187A5D20118968C93A3
:1034A0000BCE1296ED91FC91248535850385A20102
:1034B000B301C4010E94D508D40112968D919C914C
:1034C00013971B964D915C91DC01ED91FC91EA56AE
:1034D000FF4F0190F081E02D60E01995F4018281A9
:1034E0009381A385B485FC0120813181F90106A96E
:1034F00017A99D0111964C91D40118966C91F80171
:10350000199590E080E078CC1296ED91FC9127859A
:1035100030890685CCCF1296ED91FC91238D348DA8
:10352000028DC5CF97962D913C91989796960C91C8
:10353000BECF9A962D913C919B9799960C91B7CFBF
:10354000D4962D913C91D597D3960C91B0CFD79628
:103550002D913C91D897D6960C91A9CFDA962D91C2
:103560003C91DB97D9960C91A2CF1296ED91FC91EC
:10357000FF96D30116968D919C91982789279827BD
:1035800091838083F40182819381DC01ED91FC9130
:10359000E059FF4F0190F081E02DD30116964C9138
:1035A00070E060E01995F40182819381DC01ED9176
:1035B000FC91E059FF4F0190F081E02DD301179667
:1035C0004C9161E070E0199530E020E0A201B30178
:1035D000C4010E94F00870CFCF96FC018181D20116
:1035E00015968C93D4011296ED91FC9187ADF20162
:1035F000868315CF8F5B9F4FD30118964D915C91B9
:10360000542745275427052E000C660B770BFC0129
:103610004083518362837383D40112968D919C9170
:10362000DC01ED91FC91E059FF4F0190F081E02D1C
:10363000D30116964C9162E070E01995F4018281F5
:103640009381DC01ED91FC91E059FF4F0190F081F5
:10365000E02DD30117964C9163E070E01995F401C9
:1036600082819381DC01ED91FC91E059FF4F019043
:10367000F081E02DD30118964C9164E070E019952B
:10368000F40182819381DC01ED91FC91E059FF4FBF
:103690000190F081E02DD30119964C9165E070E026
:1036A00092CF8B5B9F4FD30116962D913C91322781
:1036B00023273227FC0131832083D40112968D9178
:1036C0009C91DC01ED91FC91E059FF4F0190F0815C
:1036D000E02DD30116964C9166E070E01995F40147
:1036E00082819381DC01ED91FC91E059FF4F0190C3
:1036F000F081E02DD30117964C9167E070E063CF25
:103700008B5B9F4FFC018181D20115968C93D40174
:103710001296ED91FC91EB5BFF4F808168CF895B46
:103720009F4FD30118964D915C91542745275427FC
:10373000052E000C660B770BFC01408351836283DE
:103740007383D40112968D919C91DC01ED91FC91D3
:10375000E059FF4F0190F081E02DD30116964C9176
:1037600068E070E01995F40182819381DC01ED91AC
:10377000FC91E059FF4F0190F081E02DD3011796A5
:103780004C9169E070E01995F40182819381DC012C
:10379000ED91FC91E059FF4F0190F081E02DD301B4
:1037A00018964C916AE070E01995F401828193813A
:1037B000DC01ED91FC91E059FF4F0190F081E02D8B
:1037C000D30119964C916BE070E0FDCE1296ED910D
:1037D000FC91E55BFF4FD30116968D919C91982744
:1037E0008927982791838083F40182819381DC016A
:1037F000ED91FC91E059FF4F0190F081E02DD30154
:1038000016964C916CE070E01995F40182819381D9
:10381000DC01ED91FC91E059FF4F0190F081E02D2A
:10382000D30117964C916DE070E0CDCE855B9F4F34
:10383000FC018181D20115968C93D4011296ED91F1
:10384000FC91E55BFF4F69CFD30116962C91FC01EB
:10385000E35BFF4F213208F441C080E28083F40132
:1038600082819381DC01ED91FC91E059FF4F019041
:10387000F081E02D40E26EE070E01995730110E0F8
:1038800000E0F40182819381FFEFEF1AFF0AFC014F
:10389000E35BFF4F20812017110609F00CF494CE52
:1038A000800F911FFC01E25BFF4FD70116968C91B0
:1038B0008083F40182819381B801615F7F4FDC01D5
:1038C000ED91FC91E059FF4F0190F081E02DD7017F
:1038D00016964C9119950F5F1F4FD3CF2083F4019B
:1038E00082819381DC01ED91FC91E059FF4F0190C1
:1038F000F081E02DD30116964C91BDCF10E000E091
:10390000ACCD1296ED91FC91D30116968C91E259B3
:10391000FF4F8083F40182819381DC01ED91FC9162
:10392000E059FF4F0190F081E02DD30116964C91A4
:1039300060E370E048CE1296ED91FC91E259FF4FA2
:103940008081F201858310E000E021E030E085CD48
:10395000D30116968C91D4011296ED91FC91139798
:10396000E159FF4F813408F441C080E4808312960E
:103970008D919C91DC01ED91FC91E059FF4F0190FC
:10398000F081E02D40E461E370E01995730110E0EF
:1039900000E0F40182819381FFEFEF1AFF0AFC013E
:1039A000E159FF4F20812017110609F00CF40CCECD
:1039B000800F911FFC01E059FF4FD70116968C91A3
:1039C0008083F40182819381B8016E5C7F4FDC01BA
:1039D000ED91FC91E059FF4F0190F081E02DD7016E
:1039E00016964C9119950F5F1F4FD3CF8083F4012A
:1039F00082819381DC01ED91FC91E059FF4F0190B0
:103A0000F081E02DD30116964C91BDCFF301668174
:103A10007781808591850E94AD271296ED91FC916A
:103A20001397E055FF4F60837183828393831296CF
:103A30008D919C91DC01ED91FC91E059FF4F01903B
:103A4000F081E02DD30116964C9162E770E0199554
:103A5000F40182819381DC01ED91FC91E059FF4FEB
:103A60000190F081E02DD30117964C9163E770E04F
:103A70001995F40182819381DC01ED91FC91E0596B
:103A8000FF4F0190F081E02DD30118964C9164E72F
:103A900070E01995F40182819381DC01ED91FC9134
:103AA000E059FF4F0190F081E02DD30119964C9120
:103AB00065E770E088CD1296ED91FC912581368105
:103AC0000481F5CCF40182819381D30116966C9127
:103AD000262F30E0295F3F4F260D371DA301495F98
:103AE0005F4FDC01ED91FC910284F385E02D199587
:103AF00050C0F301118112968D919C9192012B5F20
:103B00003F4FA3014A5F5F4F69EF610FDC01ED9109
:103B1000FC910684F785E02D19957C01E12FE85092
:103B2000FF0B9F0153E0359527955A95E1F72F5FDD
:103B300030E09FC012968D919C91F301E3844E2D4D
:103B400050E070E060E0742F6627552744272685F3
:103B5000422B258530E0322F22277901330F000BCD
:103B6000110BE42AF52A062B172B218530E0322F82
:103B70002227032E000C440B550B6285262BDC01FB
:103B8000ED91FC910288F389E02DD30116966C919A
:103B900019957C0124CAD30117966D917D918D9161
:103BA0009C911A970E94AD279B01AC01F401828180
:103BB0009381DC01ED91FC910084F185E02DD3012E
:103BC00016966C911995E5CF1296ED91FC9113978D
:103BD000818DF20185831296ED91FC91808DD20149
:103BE00016968C93D4011296ED91FC9113978789C8
:103BF000F20187831296ED91FC9186894ECC129644
:103C0000ED91FC9113978189F201858312968D9134
:103C10009C91D30111966C916750DC01ED91FC9160
:103C20000480F581E02D92012A5F3F4FA3014A5F96
:103C30005F4F19957C01F30121812750330BD4018B
:103C40001296ED91FC914189429FC001439F900DD6
:103C50001124AC01E3E056954795EA95E1F7242F4E
:103C600087709927892B11F021E0240F30E02F5F16
:103C70003F4F870153C0F301218530E0322F2227C7
:103C8000032E000C440B550B8285282B19821A82B7
:103C90001B821C8212968D919C91DC01ED91FC910E
:103CA00006A4F7A5E02D8E010F5F1F4FD3011696D6
:103CB0006C911995DECAD30119962C91199730E0B1
:103CC000322F2227032E000C440B550B1A968C9191
:103CD000282B19821A821B821C82F4018281938113
:103CE000DC01ED91FC9100A8F1A9E02DDCCF12964A
:103CF0008D919C91DC01ED91FC9102A8F3A9E02D3E
:103D0000AE014F5F5F4FD30116966C9119957C0100
:103D10008981F2018583870121E030E0A201B301AE
:103D2000C4010E94A308B4E0EB16F10409F0C4CB6F
:103D300086C9198212968D919C9192012B5F3F4FFB
:103D4000DC01ED91FC9104A8F5A9E02D8E010F5F37
:103D50001F4FD30117964C91179716966C91199592
:103D6000DFC8F401828193819301295F3F4FD30122
:103D700011964C914850DC01ED91FC9106A8F7A9F1
:103D8000E02DD30116966C91199503CFF401828131
:103D90009381DC01ED91FC91E85AFF4F0190F08195
:103DA000E02DD30116966C911995F3CEF301218580
:103DB00030E0322F2227032E000C440B550B828556
:103DC000282B19821A821B821C8212968D919C913B
:103DD000DC01ED91FC9106A0F7A1E02D64CF1296D5
:103DE0008D919C917301B9E0EB0EF11CF3010181FF
:103DF0000A50DC01ED91FC9100A4F1A5E02DD30166
:103E000018962C91189717964C91179716966C91B7
:103E10001995BFCEF401828193816201F5E0CF0E46
:103E2000D11CD3011996ED90FC90FE24EF24FE24C2
:103E3000DC01ED91FC9102A4F3A5E02DD3011896CD
:103E40000C9118971B962C911B9717964C911797CE
:103E500016966C9119957C01F301208569CEF401C9
:103E600082819381DC01ED91FC91028CF38DE02D38
:103E7000D30116966C9119957C0130E020E0A201E7
:103E8000B301C4010E94F0084ECFF40182819381F6
:103E9000DC01ED91FC91048CF58DE02DD30117969A
:103EA0004C91179716966C9119958ECBF3016781FB
:103EB0007085818592850E94AD279B01AC01198296
:103EC0001A821B821C8212968D919C91DC01ED91CD
:103ED000FC9100A0F1A1E02D8E010F5F1F4FD301D7
:103EE00016966C9119957C0189819A812B813C8170
:103EF000F201358326839783808710E000E024E079
:103F000030E00CCF1296ED91FC91D30117964C91B5
:103F10005201B5E0AB0EB11C63012AE0C20ED11C08
:103F2000D30111968C918B50990B642F70E0FAD7C6
:103F3000262FA081B18192968D919C9198878F8335
:103F4000D3011996EC90199718960C91189716961C
:103F50006C91CF01EF81F88519957C01D301119601
:103F60002C912B50330B85CEADB6BEB6F3018681B6
:103F700090E09C01220F331F4DB75EB7421B530BDD
:103F80000FB6F8945EBF0FBE4DBF0DB71EB70F5FE3
:103F90001F4FFC013796E60DF71D7801D80130E080
:103FA00020E02817390744F4508141814D935D93F7
:103FB0002F5F3F4F3296F5CFD12CC12CD3011696EF
:103FC0006C91F40182819381DC012D913C916C15FF
:103FD0001D0499F094F0F701419151917F0170E037
:103FE00060E02C563F4FD901ED91FC912AE030E082
:103FF0001995BFEFCB1ADB0AE1CFA301495F5F4FF1
:10400000245A3F4FD901ED91FC91980119957C01FB
:104010009C01A201B301C4010E94F0080FB6F894FC
:10402000BEBE0FBEADBE7FCEF40182819381A301DF
:104030004A5F5F4FD30111966C916750DC01ED919F
:10404000FC91E25AFF4FBFC9F40182819381D301F1
:1040500016966D917C91762767277627DC01ED9186
:10406000FC91E05AFF4F0190F081E02DD3011896AA
:104070004C9119958ECDF40182819381D3011696CE
:104080006D917C91762767277627DC01ED91FC9175
:10409000EE59FF4F0190F081E02DD3011B96EC907B
:1040A0001B971A960C911A9719962C911997189696
:1040B0004C9119956ECDF401828193819301255F16
:1040C0003F4FD30118964D915C911997542745277E
:1040D000542716966D917C91762767277627DC0109
:1040E000ED91FC91EC59FF4F0190F081E02DD3014F
:1040F0001A960C9119954DCDF40182819381DC01C2
:10410000ED91FC91EA59FF4F0190F081E02D199556
:1041100040CDD296ED91FC91AE014A5F5F4FD40144
:1041200018966C911995F4018281938121853285CD
:10413000DC01ED91FC9104A8F5A9E02D8E010B5F47
:104140001F4F4E81D40118966C911995DAC9D4018C
:104150009D96ED91FC91309709F4D3C970E060E031
:1041600090E080E01995CDC9CB01642F6AC64F92CB
:104170005F926F927F928F929F92AF92BF92CF92F7
:10418000DF92EF92FF920F931F93CF93DF93842FD1
:10419000211124C0602F013208F060E241E00E944A
:1041A000930110921A0580931B050E944E082B0163
:1041B0003C0110E04701B12CA12C80911B05801718
:1041C0001106A4F0E6010C0D1D1D0C171D0779F159
:1041D00084E599E00E94BF138993F7CF2130A1F4C1
:1041E000602F013208F060E240E0D9CF0E944E0813
:1041F000641975098609970986169706A806B906EF
:10420000E0F683E890E002C081E890E0DF91CF9192
:104210001F910F91FF90EF90DF90CF90BF90AF90E4
:104220009F908F907F906F905F904F90089590E057
:1042300080E0ECCF49C748C747C71F920F920FB61F
:104240000F9211240BB60F922F933F934F935F93CE
:104250006F937F938F939F93AF93BF93EF93FF934E
:104260008091D2059091D305A091D405B091D50548
:10427000892B8A2B8B2BE1F19091D105E091CF0511
:10428000F091D0058081892780838091D20590911B
:10429000D305A091D405B091D505181619061A06B4
:1042A0001B069CF48091D2059091D305A091D40572
:1042B000B091D5050197A109B1098093D2059093DA
:1042C000D305A093D405B093D505FF91EF91BF918D
:1042D000AF919F918F917F916F915F914F913F919E
:1042E0002F910F900BBE0F900FBE0F901F9018953F
:1042F000809101020E943B04E8CF1F920F920FB6FB
:104300000F9211240BB60F922F933F934F935F930D
:104310006F937F938F939F93AF93BF93EF93FF938D
:104320008FEA96E00E94DC02FF91EF91BF91AF917E
:104330009F918F917F916F915F914F913F912F91BD
:104340000F900BBE0F900FBE0F901F9018951F92ED
:104350000F920FB60F9211240BB60F922F933F932B
:104360004F935F936F937F938F939F93AF93BF937D
:10437000EF93FF938FEA96E00E946202FF91EF9124
:10438000BF91AF919F918F917F916F915F914F916D
:104390003F912F910F900BBE0F900FBE0F901F906B
:1043A00018951F920F920FB60F9211240BB60F9211
:1043B0002F933F934F935F936F937F938F939F932D
:1043C000AF93BF93EF93FF938CE497E00E94DC02DE
:1043D000FF91EF91BF91AF919F918F917F916F91DD
:1043E0005F914F913F912F910F900BBE0F900FBE99
:1043F0000F901F9018951F920F920FB60F921124D5
:104400000BB60F922F933F934F935F936F937F93CE
:104410008F939F93AF93BF93EF93FF938CE497E0B9
:104420000E946202FF91EF91BF91AF919F918F9196
:104430007F916F915F914F913F912F910F900BBEA4
:104440000F900FBE0F901F9018951F920F920FB6EE
:104450000F9211240BB60F922F933F934F935F93BC
:104460006F937F938F939F93AF93BF93EF93FF933C
:1044700089EE97E00E94DC02FF91EF91BF91AF912E
:104480009F918F917F916F915F914F913F912F916C
:104490000F900BBE0F900FBE0F901F9018951F929C
:1044A0000F920FB60F9211240BB60F922F933F93DA
:1044B0004F935F936F937F938F939F93AF93BF932C
:1044C000EF93FF9389EE97E00E946202FF91EF91D4
:1044D000BF91AF919F918F917F916F915F914F911C
:1044E0003F912F910F900BBE0F900FBE0F901F901A
:1044F00018951F920F920FB60F9211240BB60F92C0
:104500002F933F934F935F936F937F938F939F93DB
:10451000AF93BF93EF93FF9386E898E00E94DC028D
:10452000FF91EF91BF91AF919F918F917F916F918B
:104530005F914F913F912F910F900BBE0F900FBE47
:104540000F901F9018951F920F920FB60F92112483
:104550000BB60F922F933F934F935F936F937F937D
:104560008F939F93AF93BF93EF93FF9386E898E069
:104570000E946202FF91EF91BF91AF919F918F9145
:104580007F916F915F914F913F912F910F900BBE53
:104590000F900FBE0F901F9018951F920F920FB69D
:1045A0000F9211242F933F938F939F93AF93BF93B9
:1045B0008091AE059091AF05A091B005B091B10585
:1045C0003091AD0523E0230F2D3758F50196A11D3D
:1045D000B11D2093AD058093AE059093AF05A093D8
:1045E000B005B093B1058091B2059091B305A0914B
:1045F000B405B091B5050196A11DB11D8093B2051A
:104600009093B305A093B405B093B505BF91AF9156
:104610009F918F913F912F910F900FBE0F901F9000
:10462000189526E8230F0296A11DB11DD2CF1F9227
:104630000F920FB60F9211240BB60F922F933F9348
:104640004F935F936F937F938F939F93AF93BF939A
:10465000EF93FF9348E251E064E271E090E080E084
:104660000E94C512FF91EF91BF91AF919F918F91E1
:104670007F916F915F914F913F912F910F900BBE62
:104680000F900FBE0F901F9018951F920F920FB6AC
:104690000F9211240BB60F922F933F934F935F937A
:1046A0006F937F938F939F93AF93BF93EF93FF93FA
:1046B00048EA50E064EA70E083E090E00E94C512AE
:1046C000FF91EF91BF91AF919F918F917F916F91EA
:1046D0005F914F913F912F910F900BBE0F900FBEA6
:1046E0000F901F9018951F920F920FB60F921124E2
:1046F0000BB60F922F933F934F935F936F937F93DC
:104700008F939F93AF93BF93EF93FF9348E950E04C
:1047100064E970E082E090E00E94C512FF91EF91A1
:10472000BF91AF919F918F917F916F915F914F91C9
:104730003F912F910F900BBE0F900FBE0F901F90C7
:1047400018951F920F920FB60F9211240BB60F926D
:104750002F933F934F935F936F937F938F939F9389
:10476000AF93BF93EF93FF9348E850E064E870E0A5
:1047700081E090E00E94C512FF91EF91BF91AF914F
:104780009F918F917F916F915F914F913F912F9169
:104790000F900BBE0F900FBE0F901F9018951F9299
:1047A0000F920FB60F9211240BB60F922F933F93D7
:1047B0004F935F936F937F938F939F93AF93BF9329
:1047C000EF93FF938091B900887F803609F44DC044
:1047D00008F040C0883209F4A9C028F5803109F4F6
:1047E0009DC0C8F4882309F4FBC0883009F496C042
:1047F000FF91EF91BF91AF919F918F917F916F91B9
:104800005F914F913F912F910F900BBE0F900FBE74
:104810000F901F901895883109F488C0803241F7B5
:104820008093880614C0803409F49DC040F480331E
:10483000B9F38833E9F68093880685ECB0C08035FB
:1048400009F485C0883509F496C0883489F60E9439
:104850007F13CECF883909F48CC038F5883729F01A
:1048600050F4883611F0803719F683E080938A0679
:104870001092100557C0883809F47BC0803919F0B0
:10488000803809F0B5CF80911005803208F071C0F2
:10489000E091100581E08E0F809310058091BB00A0
:1048A000F0E0E051FB4F80833DC0803B39F0E0F405
:1048B000803A09F479C0883A09F09ACF84E080936D
:1048C0008A061092EF041092EE04E0911805F09120
:1048D000190519958091EE0481110FC081E0809334
:1048E000EE041092CE0409C0803C09F4A6CF883CA7
:1048F00009F4A3CF883B09F07BCFE091EF0481E07E
:104900008E0F8093EF04F0E0E253FB4F80818093A1
:10491000BB009091EF048091EE0429C08091650660
:104920008093BB0085EC8093BC0062CF909187069A
:1049300080918606981758F5E091870681E08E0FE2
:1049400080938706F0E0EA59F94F8081E9CFE09142
:10495000870681E08E0F809387068091BB00F0E090
:10496000EA59F94F808390918706809186069817BF
:10497000C8F285E8D8CFE091870681E08E0F80935A
:1049800087068091BB00F0E0EA59F94F808380915F
:10499000890681115CCF81E08093640684EA80936C
:1049A000BC0010928A0624CF85EC8093BC00109244
:1049B0008A0680911005803230F4E0911005F0E015
:1049C000E051FB4F10826091100570E0E0911605F8
:1049D000F091170580EF94E019951092100508CF1B
:1049E0001092880634CFCF92DF92EF92FF920F930E
:1049F0001F93E82FF92F05C0015011092109310932
:104A000061F1908196239417B9F305C00150110903
:104A10002109310911F1908196239413F7CFC12C0C
:104A2000D12CE12CF12C0AC08FEFC81AD80AE80A61
:104A3000F80A0C151D052E053F0579F080818623A7
:104A4000841791F36C2D7D2D8E2D9F2D1F910F912D
:104A5000FF90EF90DF90CF90089560E070E080E0ED
:104A600090E01F910F91FF90EF90DF90CF9008950D
:104A7000EFEAF6E01382128288EE93E0A0E0B0E065
:104A800084839583A683B7832EE134E0318320832A
:104A900045E351E05587448744E351E05787468713
:104AA00040E351E0518B408B41E351E0538B428B0B
:104AB00042E351E0558B448B46E351E0578B468BE4
:104AC000118E128E138E148EECE4F7E01382128294
:104AD00084839583A683B7833183208345ED50E09B
:104AE0005587448744ED50E05787468740ED50E0B6
:104AF000518B408B41ED50E0538B428B42ED50E0A7
:104B0000558B448B46ED50E0578B468B118E128EA1
:104B1000138E148EE9EEF7E013821282848395835C
:104B2000A683B783318320834DEC50E055874487BB
:104B30004CEC50E05787468748EC50E0518B408B57
:104B400049EC50E0538B428B4AEC50E0558B448B40
:104B50004EEC50E0578B468B118E128E138E148EB6
:104B6000E6E8F8E01382128284839583A683B783F4
:104B70003183208325EC30E03587248724EC30E036
:104B80003787268720EC30E0318B208B21EC30E01A
:104B9000338B228B22EC30E0358B248B26EC30E0FB
:104BA000378B268B118E128E138E148EE3E2F9E072
:104BB0001582148220E334E03183208310AA17A6E3
:104BC00017821682E4E5F9E01382128284839583CA
:104BD000A683B78386E494E09183808308957894D4
:104BE00084B5826084BD84B5816084BD85B58260F2
:104BF00085BD85B5816085BD80916E0081608093A3
:104C00006E0010928100809181008260809381000B
:104C1000809181008160809381008091800081601B
:104C2000809380008091B10084608093B100809176
:104C3000B00081608093B000809191008260809389
:104C4000910080919100816080939100809190000B
:104C50008160809390008091A10082608093A10088
:104C60008091A10081608093A1008091A00081606B
:104C70008093A00080912101826080932101809126
:104C800021018160809321018091200181608093C6
:104C9000200180917A00846080937A0080917A006C
:104CA000826080937A0080917A00816080937A009C
:104CB00080917A00806880937A001092C1008DEC18
:104CC00090E066D1EC018EEF8A831B8280E88F83AF
:104CD0008EE692E09983888383E0888719861A8616
:104CE00090E080E0A6D0182F81E090E0A2D0FE01F5
:104CF000FF96912F91838083E2E0EA8380E893E03E
:104D00009983888381E08B8392E19C832AE633E058
:104D10003E832D8396E39B8724E333E03D872C87F6
:104D200040E14E8744E253E0588B4F874AE0498B7D
:104D300040E45BE46CE470E04A8B5B8B6C8B7D8BB6
:104D40004E8B5F8B688F798FDE01A954BF4F00E2D5
:104D500013E011961C930E931397EC93FE01EB5402
:104D6000FF4FA8E1B3E0B183A08334961082118293
:104D700012821382349640835183628373831A8E26
:104D80001C8E1B8E4FE04EA349E053E058A74FA363
:104D900019A61BA61AA644E04CA740E652E05EA75F
:104DA0004DA740915C0250915D0260915E0270914E
:104DB0005F024FA758AB69AB7AAB34964DE04083A6
:104DC00031964CE252E0518340838BAB43E456E092
:104DD0005DAB4CAB379642E456E0518340838EABDB
:104DE00048E053E058AF4FAB359787E0808331966A
:104DF00040E152E051834083329642E052E05183D9
:104E0000408319AE1BAE1AAE9CAF3EAF2DAF3496A9
:104E100086ED95E09183808340E0BE0183E299E0D6
:104E20000E94611583E299E00E942B090E9486038B
:104E3000F9CFF999FECF92BD81BDF89A992780B537
:104E40000895262FF999FECF1FBA92BD81BD20BDCE
:104E50000FB6F894FA9AF99A0FBE01960895052EA6
:104E600097FB16F400940FD057FD05D01ED007FC19
:104E700002D046F408C050954095309521953F4F9B
:104E80004F4F5F4F089590958095709561957F4F36
:104E90008F4F9F4F08952BD0A59F900DB49F900DDD
:104EA000A49F800D911D11240895A1E21A2EAA1B22
:104EB000BB1BFD010DC0AA1FBB1FEE1FFF1FA217CA
:104EC000B307E407F50720F0A21BB30BE40BF50BC7
:104ED000661F771F881F991F1A9469F76095709550
:104EE000809590959B01AC01BD01CF010895A29FD3
:104EF000B001B39FC001A39F700D811D1124911DAE
:104F0000B29F700D811D1124911D0895991B79E0A8
:104F100004C0991F961708F0961B881F7A95C9F749
:104F20008095089597FB072E16F4009406D077FD20
:104F300008D01AD007FC05D03EF4909581959F4F7C
:104F40000895709561957F4F0895EE0FFF1F881F9C
:104F50008BBF0790F691E02D199469279627692752
:104F60007827872778270895AA1BBB1B51E107C024
:104F7000AA1FBB1FA617B70710F0A61BB70B881FE9
:104F8000991F5A95A9F780959095BC01CD01089578
:104F90000F931F93CF93DF938230910510F482E03B
:104FA00090E0E0916209F091630930E020E0B0E028
:104FB000A0E0309799F42115310509F44AC0281B67
:104FC000390B24303105D8F58A819B816115710533
:104FD00089F1FB0193838283FE0111C040815181DD
:104FE0000281138148175907E0F04817590799F4CF
:104FF000109761F012960C93129713961C933296A9
:10500000CF01DF91CF911F910F9108950093620915
:1050100010936309F4CF2115310551F0421753075E
:1050200038F0A901DB019A01BD01DF01F801C1CF10
:10503000EF01F9CF9093630980936209CDCFFE0110
:10504000E20FF31F81939193225031093983288312
:10505000D7CF2091600930916109232B41F4209131
:1050600066023091670230936109209360092091B4
:105070006402309165022115310541F42DB73EB728
:105080004091680250916902241B350BE091600940
:10509000F0916109E217F307A0F42E1B3F0B2817CC
:1050A000390778F0AC014E5F5F4F2417350748F0A1
:1050B0004E0F5F1F50936109409360098193919354
:1050C0009FCFF0E0E0E09CCFCF93DF930097E9F033
:1050D000FC01329713821282A0916209B091630998
:1050E000ED0130E020E01097A1F420813181820FA2
:1050F000931F20916009309161092817390709F041
:1051000061C0F0936109E0936009DF91CF91089548
:10511000EA01CE17DF07E8F54A815B819E01411560
:105120005105B1F7E901FB83EA8349915991C40F15
:10513000D51FEC17FD0761F4808191810296840FE1
:10514000951FE90199838883828193819B838A8358
:10515000F0E0E0E012968D919C9113970097B9F5DD
:105160002D913C911197CD010296820F931F2091B2
:105170006009309161092817390739F6309751F5E0
:105180001092630910926209B0936109A0936009BB
:10519000BCCFD383C28340815181840F951FC81730
:1051A000D90761F44E5F5F4F88819981480F591F7D
:1051B000518340838A819B819383828321153105AA
:1051C00009F0B0CFF0936309E09362099ECFFD012F
:1051D000DC01C0CF13821282D7CF81E090E0F89437
:0651E00000C0F894FFCFAF
:1051E60001FF0400000005000100060002000300A4
:1051F60000127A0000093D0080841E0040420F0024
:1052060020A1070090D0030048E801002C0100000F
:1052160058020000B004000060090000C01200003F
:105226008025000040380000004B00008070000020
:10523600127A00000096000000E1000000C20100A2
:105246000001020300006409800000000000C21291
:105256001C212E0F8A12AF0E730E8A12070E8A12A7
:10526600CF0DE615CC0C8A12940C8A0C4410CC0F88
:105276002B0CEA0BE50BFE13B720DB0B2A0B010BFD
:10528600E60AB90A9B0A52125912751245123912C8
:105296000612F911D611BE11A6118E1176115E11E4
:1052A60044112A110C11870A5B14C10995090911C9
:1052B6000611031100110011B90FAF0FBA0FB42078
:1052C60058148E12FD10FC10FB10FA10FF10F91086
:1052D600F810F710FE10FD10FC10FB10FA10F91074
:1052E600F810F7108D125710000203040506070880
:1052F600090A0B0C0D2C2D2EE0C8100000102700FB
:1053060002000300000102030405060708090A0B50
:105316000C0D0E0F000102030405060708090A0B0F
:105326000C0D0E0F101112131415161718191A1B3F
:105336001C1D1E1F202122232425262728292A2B2F
:105346002C2D2E2F30313233343541726475696E0F
:105356006F204D6567612032353630000000000051
:10536600C4121A212E0F8A12AF0E730E8A12070E5E
:105376008A12CF0DE615CC0C8A12940C8A0C4410B6
:10538600CC0F2B0CEA0BE50BFE13B720DB0B2A0B1D
:10539600010BE60AB90A9B0A5212591275124512F6
:1053A60039120612F911D611BE11A6118E117611F7
:1053B6005E1144112A110C11870A5B14C109950963
:1053C60009110611031100110011B90FAF0FBA0F21
:1053D600B42058148E12FD10FC10FB10FA10FF10AA
:1053E600F910F810F710FE10FD10FC10FB10FA1063
:1053F600F910F810F7108D12571000000000FE0289
:1054060035027B024A03AC028A029E0200000000BB
:1054160028092809280928094A167F0928092B0975
:105426006115000000002714D2135514FE10DE0B80
:10543600BF13B0135374617465202D20436C6F73D2
:1054460065005374617465202D2045786974005396
:105456006572766F2000203A2000446562756767A2
:10546600696E6720456E61626C65640043726561B2
:10547600746564204E657720536572766F204F6E93
:10548600204368616E6E656C2000537461727469A6
:105496006E67204C697374656E65722E2E2E0A0037
:0E54A600436C6F736520436F6D6D616E640023
:00000001FF
