:100000000C9465000C948D000C948D000C948D0064
:100010000C948D000C948D000C948D000C94E222B5
:100020000C948D000C948D000C948D000C942A057A
:100030000C948D000C948D000C948D000C948D000C
:100040000C94B51C0C948D000C94A71F0C94F51FF8
:100050000C948D000C948D000C948D000C948D00EC
:100060000C9459020C948D0000000000240027001D
:100070002A0000000000250028002B0000000000DE
:1000800023002600290004040404040404040202DA
:100090000202020203030303030301020408102007
:1000A0004080010204081020010204081020000012
:1000B0000007000201000003040600000000000029
:1000C00000000200FD003511C72111241FBECFEF33
:1000D000D8E0DEBFCDBF13E0A0E0B1E0E0E4FEE495
:1000E00002C005900D92AE3AB107D9F716E0AEEA1C
:1000F000B3E001C01D92AE3AB107E1F710E0CAECDF
:10010000D0E004C02297FE010E941A27C43CD10708
:10011000C9F70E941D220C941E270C94000086EB48
:1001200094E00E94820F08950F931F9383EC90E058
:100130000E942D22182F092F0E94E8051093AE036C
:100140000093AF0386EB94E0612F702F40E00E9494
:10015000450F1F910F9108958AE061E00E94631E90
:100160008AE061E00E94241E8CB580618CBD8CB554
:1001700080648CBD8DE061E00E94241E8BE061E014
:100180000E94241E089581E08093F5036093D203BA
:100190001092F3031092F40308952091D10330E0FC
:1001A0008091D003281B3109C90108954091D003E3
:1001B0008091D103481718F02FEF3FEF0AC0E42FCA
:1001C000F0E0E055FC4F8081282F30E04F5F4093F6
:1001D000D003C9010895E091D0038091D103E817BD
:1001E00018F0EFEFFFEF06C0F0E0E055FC4F808124
:1001F000E82FF0E0CF01089508951092F9031092CE
:10020000F80388EE93E0A0E0B0E08093FA039093C7
:10021000FB03A093FC03B093FD0385EA91E0909368
:10022000F7038093F6030895CF92DF92EF92FF9247
:100230000F931F93CF93DF937C016B018A01809111
:10024000F5038823A1F0C0E0D0E00DC0D701ED9107
:10025000FC91D601AC0FBD1F0190F081E02DC701CC
:100260006C9109952196C017D10780F304C0CB018A
:10027000642F0E943E02C801DF91CF911F910F9120
:10028000FF90EF90DF90CF900895DF93CF930F9280
:10029000CDB7DEB7FC0169838091F5038823C9F0EF
:1002A0008091F403803238F081E090E09383828380
:1002B00020E030E015C08091F303E82FF0E0ED522C
:1002C000FC4F998190838F5F8093F3038093F403B5
:1002D00005C0CE01019661E00E943E0221E030E0BF
:1002E000C9010F90CF91DF9108950F93062F809150
:1002F000D20363ED73E04091F40321E00E94E90131
:100300001092F3031092F4031092F5030F910895E5
:10031000413208F040E2862F60EB73E00E94A001BA
:100320001092D0038093D10308951092D0031092BD
:10033000D1031092F3031092F4030E94EA0308958C
:10034000382F413210F040E042C0809102048823EF
:10035000E1F791E090930204209304048FEF8093DF
:100360006F0410922A04415040932B044F5F9093E6
:10037000030480910304330F832B80930304809143
:100380000504813041F410920504809103048093A8
:10039000BB0085EC01C085EE8093BC008091020417
:1003A0008130E1F380912A04841710F440912A04EB
:1003B00020E030E00AC0FB01E20FF31FD901A65F85
:1003C000BB4F8C9180832F5F3F4F2417A0F3842F66
:1003D00008950F931F93582F122F413210F081E090
:1003E0004AC0809102048823E1F782E080930204EE
:1003F000009304048FEF80936F0410922A044093BB
:100400002B04AAE0B4E0FB0102C081918D938E2FF2
:10041000861B8417D0F31092030480910304550FB8
:10042000852B8093030480910504813041F4109260
:100430000504809103048093BB0085EC01C085EE28
:100440008093BC00112321F0809102048230E1F3FB
:1004500080916F048F3F11F480E00DC080916F0494
:10046000803211F482E007C080916F04803311F074
:1004700084E001C083E01F910F910895482F6132FD
:1004800010F081E0089580910204843011F082E040
:10049000089560934D04ACE2B4E0842F9C01F9010F
:1004A00002C081918D938E2F841B8617D0F380E03C
:1004B00008951F920F920FB60F9211242F933F931E
:1004C0004F935F936F937F938F939F93AF93BF935C
:1004D000EF93FF938091B90090E0887F9070803611
:1004E000910509F4F2C081369105CCF58832910569
:1004F00009F47BC089329105B4F48031910509F487
:100500006FC0813191053CF4009709F447C1089709
:1005100009F04FC165C08831910509F466C0809724
:1005200009F047C182C08034910509F4A4C0813428
:10053000910544F48033910509F482C0C89709F00D
:1005400038C189C08035910509F489C08835910585
:1005500009F496C08834910509F02BC1AEC08839E2
:10056000910509F413C189399105ECF48837910597
:1005700009F4ABC0893791054CF48836910509F42C
:10058000A4C08037910509F014C19FC08838910537
:1005900009F4FCC08039910509F49DC080389105AB
:1005A00009F007C198C0803B910509F4C6C0813BA2
:1005B00091054CF4803A910509F49FC0883A910561
:1005C00009F0F7C0BAC0803C910509F4E3C0883C4B
:1005D000910509F4DFC0883B910509F0EAC0C2C06B
:1005E000809103048093BB00CFC090912A04809136
:1005F0002B04981768F490912A04E92FF0E0E65F45
:10060000FB4F80818093BB009F5F90932A04BCC006
:1006100080910404882309F44BC085ED8093BC00CD
:100620008091BC0084FDFCCFC2C080E280936F0447
:1006300085ED8093BC008091BC0084FDFCCFB7C0E9
:1006400080E380936F0485ED8093BC008091BC00B3
:1006500084FDFCCFACC088E380936F049BC0809185
:100660002A049091BB00E82FF0E0E65FFB4F9083F7
:100670008F5F80932A0490912A0480912B0482C07A
:1006800080912A049091BB00E82FF0E0E65FFB4FD9
:1006900090838F5F80932A0480910404882341F023
:1006A00085ED8093BC008091BC0084FDFCCF7FC0B1
:1006B00081E08093050484EA6EC085ED8093BC00E0
:1006C0008091BC0084FDFCCF72C083E08093020463
:1006D00010926E0459C080916E04803208F056C0AA
:1006E00080916E049091BB00E82FF0E0E25BFB4F3D
:1006F00090838F5F80936E0447C080916E04803238
:1007000030F4E0916E04F0E0E25BFB4F108285ED87
:100710008093BC008091BC0084FDFCCF1092020449
:1007200060916E04E0910804F09109048EE494E075
:1007300070E0099510926E042DC084E0809302044D
:1007400010924C0410924D04E0910604F0910704BD
:10075000099580914D04882329F481E080934D040C
:1007600010922C0490914C04E92FF0E0E45DFB4FD3
:1007700080818093BB009F5F90934C0490914C04C8
:1007800080914D04981710F485EC01C085E88093A2
:10079000BC000FC085EC8093BC0009C010926F04B0
:1007A00085ED8093BC008091BC0084FDFCCF10924D
:1007B0000204FF91EF91BF91AF919F918F917F9133
:1007C0006F915F914F913F912F910F900FBE0F90BE
:1007D0001F9018951092020481E0809304041092F7
:1007E000050482E161E00E94631E83E161E00E94F2
:1007F000631EE9EBF0E080818E7F808380818D7FB6
:10080000808388E48093B80085E48093BC000895D9
:10081000F999FECF72BD61BDF89A80B50895F99936
:10082000FECF1FBA72BD61BD40BD0FB6F894FA9AF3
:10083000F99A0FBE0895FC01809171048C3090F4F8
:1008400082838F5F80937104815090E0FC01EE0FF2
:10085000FF1FE80FF91FEE58FB4F88EB9BE09283D8
:10086000818308958FEF82830895DC0112968C9125
:10087000129790E0FC01EE0FFF1FE80FF91FEE58F2
:10088000FB4F80818F7B808312968C916CE00E945D
:10089000A82690E0AC01440F551F480F591F440F84
:1008A000551F440F551F20E030E0C901840F951FEC
:1008B000FC01EE0FFF1FE80FF91FEE58FB4F808180
:1008C00086FD05C02F5F3F4F2C30310571F708952D
:1008D000FC0122812C30B8F58081992787FD909505
:1008E00048E850E0481B590B440F551F440F551F53
:1008F0006417750784F08181992787FD909548E5F5
:1009000052E0481B590B440F551F440F551F6417E5
:1009100075070CF4AB0142505040CA01AA2797FD5D
:10092000A095BA2F880F991FAA1FBB1F4FB7F89425
:1009300030E0F901EE0FFF1FE20FF31FEE58FB4FFF
:10094000928381834FBF0895CF92DF92EF92FF92FF
:100950001F93CF93DF93EC01162F7A0169018A81EF
:100960008C3008F064C0862F61E00E94241E8A81CA
:1009700090E0FC01EE0FFF1FE80FF91FEE58FB4F50
:100980001F738081807C812B808380E292E08E19AE
:100990009F0964E070E00E94B426688380E699E0D5
:1009A0008C199D0964E070E00E94B4266983AA81D5
:1009B0008A2F6CE00E94A826682F70E0AB01440FDC
:1009C000551F460F571F440F551F440F551F20E05A
:1009D00030E0C901840F951FFC01EE0FFF1FE80FE7
:1009E000F91FEE58FB4F808186FD15C02F5F3F4FEA
:1009F0002C30310571F724C01092800082E0809382
:100A000081001092850010928400B19A80916F004D
:100A1000826080936F008A2F90E0FC01EE0FFF1F31
:100A2000E80FF91FEE58FB4F8081806480838A8134
:100A3000DF91CF911F91FF90EF90DF90CF900895BD
:100A4000672BD1F2E8CF40E252E020E639E00E9485
:100A5000A40408951F920F920FB60F9211242F93A2
:100A60003F934F935F936F937F938F939F93AF9336
:100A7000BF93EF93FF938091960487FF05C0109278
:100A80008500109284002BC020919604332727FD07
:100A900030958091710490E02817390704F5809112
:100AA0009604992787FD9095FC01EE0FFF1FE80F34
:100AB000F91FEE58FB4F808186FF11C0809196048C
:100AC000992787FD9095FC01EE0FFF1FE80FF91F96
:100AD000EE58FB4F80818F7360E00E94631E80910F
:100AE00096048F5F8093960420919604332727FD08
:100AF00030958091710490E0281739070CF04EC0B2
:100B0000809196048C300CF049C020918400309183
:100B1000850080919604992787FD9095FC01EE0F42
:100B2000FF1FE80FF91FEE58FB4F81819281280FBC
:100B3000391F30938900209388008091960499276B
:100B400087FD9095FC01EE0FFF1FE80FF91FEE588F
:100B5000FB4F808186FF2BC080919604992787FDEB
:100B60009095FC01EE0FFF1FE80FF91FEE58FB4FA9
:100B700080818F7361E00E94631E19C080E49CE94C
:100B800005C080918400909185000496909389001F
:100B9000809388008FEF8093960409C08091840031
:100BA00090918500049680549C4940F3EACFFF91D0
:100BB000EF91BF91AF919F918F917F916F915F91D5
:100BC0004F913F912F910F900FBE0F901F9018954E
:100BD000FF920F931F93CF93DF938C010E94160F08
:100BE0008FED91E0D80111969C938E9385E012963B
:100BF0008C93129713961C92139789E014968C93FA
:100C0000149781EB91E016969C938E93159761E073
:100C100017966C93179782E018968C9318971996ED
:100C20001C9219978EE0F82E1A96FC921A97E6EC11
:100C3000F1E01C96FC93EE931B9776E01D967C9357
:100C40001D978AEB91E01F969C938E931E978AE0E6
:100C500050968C93509720E43BE44CE450E0E8013C
:100C6000298B3A8B4B8B5C8B55962D933D934D93F3
:100C70005C93589703551F4F84EC91E0E8019983EA
:100C8000888303501040D8016D938D0180EC91E072
:100C90008D939C930C5F1F4FE80119921992199242
:100CA00019928E01288339834A835B83035B10404A
:100CB000E801198E1B8E1A8E7C8F84ED91E09E8F39
:100CC0008D8F1F8E19A218A26AA389E994E09CA3B4
:100CD0008BA38091950190919601A0919701B0917D
:100CE00098018DA39EA3AFA3B8A709541F4F8DE011
:100CF000D8018D938D0185E691E08D939C93085BDF
:100D00001040E80169A787E994E09BA78AA70154EE
:100D10001F4F88E994E0D8018D939C930F5B10409E
:100D2000E8016CA78AED91E09EA78DA706541F4F9E
:100D300087E0D8018D938BE391E0ED01899399933E
:100D40008E0187E591E0998388830D5B1040D8017F
:100D50009F961C929F97D1961C921E92D097D296E6
:100D6000FC92D297D496FC93EE93D3970F531F4FD8
:100D70008AE994E0E80199838883DF91CF911F91FC
:100D80000F91FF900895FC0187E692E091838083A4
:100D90008EEF828313820895EF92FF920F931F9339
:100DA000DF93CF9300D000D0CDB7DEB77C0119829E
:100DB0001A821B821C82DC01ED91FC9102A0F3A13E
:100DC000E02D20E032EC41E050E08E010F5F1F4F3C
:100DD0000995D701ED91FC91EC58FF4F0190F081FE
:100DE000E02DC70160E071E009950F900F900F9022
:100DF0000F90CF91DF911F910F91FF90EF90089589
:100E000008950895DF93CF930F92CDB7DEB7DC013D
:100E10004983ED91FC9102A4F3A5E02D41E09E01F0
:100E20002F5F3F4F09950F90CF91DF910895FF926B
:100E30000F931F93CF93DF938C01F62EEA010AC024
:100E40002196D801ED91FC9104A4F5A5E02DC801EF
:100E50006F2D09954881442399F7DF91CF911F9118
:100E60000F91FF900895DC01ED91FC9100A8F1A98C
:100E7000E02D09950895DC019A01ED91FC9144273C
:100E800037FD4095542F06A8F7A9E02D0995089540
:100E9000DC01ED91FC919A0140E050E000ACF1AD35
:100EA000E02D09950895DF92EF92FF920F931F9323
:100EB000CF93DF93EC01D62E79018A0157FF0FC043
:100EC000E881F98104A4F5A5E02D4DE2099510957E
:100ED0000095F094E094E11CF11C011D111DE881C6
:100EE000F981EE57FF4F0190F081E02DCE016D2D7D
:100EF000A80197010AE00995DF91CF911F910F9109
:100F0000FF90EF90DF9008950F93DC01ED91FC913D
:100F1000EE57FF4F0190F081E02D0AE009950F9107
:100F200008950F931F93DC010115110541F4ED9114
:100F3000FC9104A4F5A5E02D422F099511C0ED9177
:100F4000FC9111970A30110529F406A8F7A9E02DA4
:100F5000099506C0EE57FF4F0190F081E02D0995ED
:100F60001F910F910895FF920F931F938C01F62EFE
:100F7000DC01ED91FC9104A4F5A5E02D4DE009956F
:100F8000D801ED91FC9104A4F5A5E02DC8016F2DC9
:100F90004AE009951F910F91FF900895FF920F93DA
:100FA0001F938C01F62EDC01ED91FC9104A4F5A5B4
:100FB000E02D0995D801ED91FC9104ACF5ADE02D43
:100FC000C8016F2D09951F910F91FF900895FF9211
:100FD0000F931F938C01F62EDC01ED91FC9106A47A
:100FE000F7A5E02D0995D801ED91FC9104ACF5AD84
:100FF000E02DC8016F2D09951F910F91FF90089565
:10100000FF920F931F938C01F62EDC01ED91FC9162
:1010100000A8F1A9E02D0995D801ED91FC9104AC4F
:10102000F5ADE02DC8016F2D09951F910F91FF902F
:101030000895FF920F931F938C01F62EDC01ED9122
:10104000FC9102A8F3A9E02D0995D801ED91FC913E
:1010500004ACF5ADE02DC8016F2D09951F910F91DE
:10106000FF900895FF920F931F938C01F62EDC01E1
:10107000ED91FC9106A8F7A9E02D0995D801ED9115
:10108000FC9104ACF5ADE02DC8016F2D09951F91C1
:101090000F91FF900895FF920F931F938C01F62EEE
:1010A000DC01ED91FC9100ACF1ADE02D0995D8018A
:1010B000ED91FC9104ACF5ADE02DC8016F2D0995C3
:1010C0001F910F91FF900895DF92EF92FF920F937F
:1010D0001F937C01D62EDC01ED91FC9102ACF3ADA7
:1010E000E02D0995D701ED91FC9104ACF5ADE02D13
:1010F000C7016D2D09951F910F91FF90EF90DF9023
:1011000008950895089508950895089508950895F7
:1011100008950895089508950895089508950895E7
:1011200008952F923F924F925F926F927F928F928B
:101130009F92AF92BF92CF92DF92EF92FF920F9366
:101140001F93DF93CF93CDB7DEB7A1970FB6F89477
:10115000DEBF0FBECDBF1C0169A369017A01211555
:1011600031054105510549F4DC01ED91FC9104A4E0
:10117000F5A5E02D40E3099555C088249924540134
:10118000402E55246624772401E010E00C0F1D1F2B
:10119000080D191DC701B601A30192010E94C726BF
:1011A000F80160830894811C911CA11CB11CC7012B
:1011B000B601A30192010E94C726C901DA016C01A0
:1011C0007D01C114D104E104F104F1F671E0E72ED0
:1011D000F12CEC0EFD1EE80CF91C3E010894611C7C
:1011E000711CD501C4010197A109B1096C01C8188E
:1011F000D90815C0D101ED91FC9124A535A5F601C2
:10120000EE0DFF1D40814A3010F4405D01C0495C85
:10121000C10169A1F90109950894E108F1086E146A
:101220007F0441F7A1960FB6F894DEBF0FBECDBF85
:10123000CF91DF911F910F91FF90EF90DF90CF90B2
:10124000BF90AF909F908F907F906F905F904F90E6
:101250003F902F900895442319F48CB5806202C00A
:101260008CB58F7D8CBD80E090E008958CB5837F38
:10127000842B8CBD80E090E00895CF92DF92EF92B6
:10128000FF920F931F93CF93DF93FC0179018A01A3
:10129000E654FF4F8191C82EDD2440E050E060E02D
:1012A00070E0EF0121C0E881F981E60FF71F80812E
:1012B0009181A281B3816C5F7F4FE816F9060A071E
:1012C0001B07A8F02CB5382F33702C7F322B3CBD78
:1012D0002DB590E0959587959595879581702E7F92
:1012E000822B8DBD4F5F5F4F4C155D05E4F280E0B2
:1012F00090E0DF91CF911F910F91FF90EF90DF90E1
:10130000CF90089580E090E0089581E090E0089506
:101310009F92AF92BF92CF92DF92EF92FF920F9384
:101320001F937C01962E59016A01DC01ED91FC911D
:10133000E45BFF4F0190F081E02D0995D701ED911D
:10134000FC9102A0F3A1E02DC701692DA601950132
:1013500009951F910F91FF90EF90DF90CF90BF9074
:10136000AF909F90089580E794E00E94080408954C
:1013700080E794E00E940F040895CF92DF92EF92ED
:10138000FF920F931F93CF93DF93242F352F890163
:10139000C0E0D0E0C62EDD2461ECE62EF12CE80E94
:1013A000F91E1CC0D8018C9190E0880F991FD701BD
:1013B000ED91FC91E80FF91F808191810E94350425
:1013C000F80181918F0190E0880F991FD701ED916D
:1013D000FC91E80FF91F118210822196CC15DD05D2
:1013E0000CF380E090E0DF91CF911F910F91FF907F
:1013F000EF90DF90CF9008956F927F928F929F929F
:10140000AF92BF92CF92DF92EF92FF920F931F9312
:10141000CF93DF93EC015C01842F952F6C01790150
:1014200000E010E0662E7724F1EC8F2E912C8C0ECC
:101430009D1E56C0E881F981EE59FF4F0190F08161
:10144000E02DC50162E171E00995A881B981A25939
:10145000BF4FF601808190E0880F991FF401208131
:101460003181280F391FF90140815181662757FDCD
:101470006095762FED91FC91C5012AE030E0099549
:10148000E881F981EE59FF4F0190F081E02DC5010F
:1014900069E171E00995E881F981E258FF4FD701D0
:1014A0004D915C9160E070E00190F081E02DC5010C
:1014B0002AE030E00995F60181916F0190E0880FF4
:1014C000991FD401ED91FC91E80FF91FD7016D919F
:1014D0007D917D01808191810E9468040F5F1F4F83
:1014E000061517050CF4A6CF80E090E0DF91CF91B0
:1014F0001F910F91FF90EF90DF90CF90BF90AF9032
:101500009F908F907F906F9008952F923F924F926F
:101510005F926F927F928F929F92AF92BF92CF9283
:10152000DF92EF92FF920F931F93DF93CF9300D040
:101530000F92CDB7DEB76C011A0189838D2CAA24D6
:10154000BB24462E5524B1EC6B2E712C680E791EEF
:101550004CC0F101EA0DFB1D9080E92CFF24EE0C3C
:10156000FF1CD3010D90BC91A02DAE0DBF1DBB8300
:10157000AA838D919C91892BA9F583E090E00E942C
:101580002D22182F092F0E941B04EA81FB81108352
:101590000183D301ED91FC91EE0DFF1D80819181BE
:1015A000692D70E00E942305D601ED91FC91EE5962
:1015B000FF4F0190F081E02D8981982D6DE171E060
:1015C0000995D601ED91FC91E258FF4F492D50E06D
:1015D00060E070E00190F081E02D8981982D2AE093
:1015E00030E009950894A11CB11CA414B5040CF4B6
:1015F000B0CF80E090E00F900F900F90CF91DF91EF
:101600001F910F91FF90EF90DF90CF90BF90AF9020
:101610009F908F907F906F905F904F903F902F9012
:101620000895662321F483E796E00E94B72080E0C6
:1016300090E00895662331F483E796E0B90150E025
:101640000E94302280E090E00895FF920F931F9354
:10165000CF93DF93F42EE801662339F483E796E015
:10166000B90150E00E948622888388818F1519F481
:1016700020E030E002C023E830E0C901DF91CF91E3
:101680001F910F91FF900895CF93DF93EA01662396
:1016900029F483E796E00E941D21888380E090E092
:1016A000DF91CF9108959F92AF92BF92CF92DF9238
:1016B000EF92FF920F931F93CF93DF93EC01962E3F
:1016C000BA01A9015801C954DF4F8881C75BD040D6
:1016D000C82EDD2400E010E020E030E088EBE82EAA
:1016E000F12CEC0EFD1E12C0D701ED91FC91E20F22
:1016F000F31F80819181A281B3812C5F3F4F4817F6
:1017000059076A077B0728F00F5F1F4F0C151D054F
:101710005CF30115110511F001501040992019F5E5
:101720007801EE0CFF1CEE0CFF1C8E0108541F4FBD
:10173000D801ED91FC91EE0DFF1D40815181628138
:10174000738183E796E00E943020D801ED91FC91EF
:10175000EE0DFF1D80819181A281B381F50180830F
:101760009183A283B38380E090E0DF91CF911F91BA
:101770000F91FF90EF90DF90CF90BF90AF909F9030
:1017800008950E94FD1C28EE33E040E050E00E94E6
:10179000C726CA01B90108950E94FD1C08956F92E1
:1017A0007F928F929F92AF92BF92CF92DF92EF92F1
:1017B000FF920F931F93CF93DF933601222331F4CF
:1017C00086EF93E0642F402F21E00AC0213019F00A
:1017D00021E830E036C086EF93E0642F402F20E010
:1017E0000E9488010E94FD1C5B016C01802E9924DF
:1017F00000E010E00EC00E94FD1C6A197B098C09F4
:101800009D09E616F7060807190718F423E830E0E3
:1018100018C086EF93E00E94CD00881599055CF30F
:10182000C0E0D0E009C086EF93E00E94D600F3014B
:10183000EC0FFD1F80832196C815D905A4F320E085
:1018400030E0C901DF91CF911F910F91FF90EF9090
:10185000DF90CF90BF90AF909F908F907F906F90D0
:101860000895EF92FF920F931F93122F86EF93E04C
:10187000642F0E94C30086EF93E0B701402F50E031
:101880000E941401112321F486EF93E061E005C06A
:10189000113041F486EF93E060E00E94750120E092
:1018A00030E007C086EF93E061E00E94750121E817
:1018B00030E0C9011F910F91FF90EF900895FC0156
:1018C000E154FF4F0190F081E02DE60FF11D808182
:1018D000882319F08F5F808304C086EF93E00E9415
:1018E000950180E090E008956F927F928F929F9291
:1018F000AF92BF92CF92DF92EF92FF920F931F931E
:10190000CF93DF93842EF22E902E1E2D3601802F42
:1019100061E00E94241E6E2D60956170802F0E94F0
:10192000631EC0E0D0E000E0CF2CDD24E82CFF24D3
:1019300011701CC0802F820FA82FB0E0F301EA0FB6
:10194000FB1F80818EBD00000DB407FEFDCF8EB55C
:10195000AA0DBB1D8C932F5F3F4F2E153F0554F3EF
:10196000892D612F0E94631E2196080DCC15DD057F
:101970001CF420E030E0F1CF80E090E0DF91CF91E7
:101980001F910F91FF90EF90DF90CF90BF90AF909D
:101990009F908F907F906F900895CF92DF92EF92FB
:1019A000FF920F931F93CF93DF9369018A01C0E0E9
:1019B000D0E0E62EFF241EC0F801808161E00E9485
:1019C000241EFE0193E0F595E7959A95E1F7EC0D5D
:1019D000FD1D608170E0CE018770907002C075952A
:1019E00067958A95E2F76170F80181918F010E94F5
:1019F000631E2196CE15DF05FCF280E090E0DF91BA
:101A0000CF911F910F91FF90EF90DF90CF900895AD
:101A10000E94AC0080E090E00895CF92DF92EF92B8
:101A2000FF920F931F93CF93DF9369018A01C0E068
:101A3000D0E0E62EFF2410C0F801808161E00E9412
:101A4000241EF601EC0FFD1F6081F80181918F01CA
:101A500070E00E94C41D2196CE15DF056CF380E076
:101A600090E0DF91CF911F910F91FF90EF90DF9069
:101A7000CF900895CB01BA010E940B1D08959F924B
:101A8000AF92BF92CF92DF92EF92FF920F931F938C
:101A9000CF93DF93162F922EE5014130D9F4862F94
:101AA00061E00E94241E812F61E00E94631E61E0BC
:101AB00070E080E090E00E940B1D812F60E00E94AA
:101AC000631E61E070E080E090E00E940B1D812FBA
:101AD00061E01CC04230E1F4862F61E00E94241EC8
:101AE000812F60E00E94631E61E070E080E090E082
:101AF0000E940B1D812F61E00E94631E61E070E077
:101B000080E090E00E940B1D812F60E00E94631E28
:101B1000892D60E00E94241E002319F4892D60E0C5
:101B200004C0013051F4892D61E0A70196010E94A3
:101B30000A1F688379838A839B8380E090E0DF912A
:101B4000CF911F910F91FF90EF90DF90CF90BF90BA
:101B5000AF909F9008959F92AF92BF92CF92DF92E5
:101B6000EF92FF920F931F93962E59016A01211550
:101B7000310541055105B9F0862F61E00E94241E10
:101B8000E114F1040105110529F0892DB501A80121
:101B9000970106C0892DB50120E030E040E050E01B
:101BA0000E943E2303C0862F0E94CB2280E090E05B
:101BB0001F910F91FF90EF90DF90CF90BF90AF906B
:101BC0009F9008958F929F92AF92BF92CF92DF9293
:101BD000EF92FF920F931F93CF93DF934A01790106
:101BE00008E0CC24DD24C0E0D0E0A62EBB241EC03B
:101BF000002341F4F701EC0DF11DD082C39407E0FE
:101C0000DD2401C00150F401EC0FFD1F1081812F74
:101C100060E00E94241E812F0E94B71E002E02C089
:101C2000880F991F0A94E2F7D82A2196CA15DB0576
:101C3000FCF2EC0CF11CF701D08280E090E0DF9127
:101C4000CF911F910F91FF90EF90DF90CF90BF90B9
:101C5000AF909F908F900895CF92DF92EF92FF9276
:101C60000F931F93CF93DF93EC0179018A016130C9
:101C700091F0613020F0623009F068C040C081E02E
:101C80000E949F1D89899A89AB89BC898D8B9E8B07
:101C9000AF8BB88F55C0C655DF4F8881CA5AD04028
:101CA000882309F453C020E030E040E050E0C82E23
:101CB000DD24BE0165557F4F1EC0DB01ED91FC9117
:101CC000E40FF51F80819181A281B3814C5F5F4F4A
:101CD0008E159F05A007B10761F4220F331FC3556E
:101CE000DF4FE881F981CD5AD040E20FF31F8081A8
:101CF00021C02F5F3F4F2C153D05FCF224C0C1557C
:101D0000DF4F88819981AA81BB81CF5AD0402817A3
:101D100039074A075B07B8F0CD54DF4F88819981B6
:101D2000AA81BB81C35BD04082179307A407B50784
:101D300050F080E00E949F1DED8AFE8A0F8B188F65
:101D400020E030E005C022E830E002C021E830E0C9
:101D5000C901DF91CF911F910F91FF90EF90DF901C
:101D6000CF9008956F927F928F929F92AF92BF9281
:101D7000CF92DF92EF92FF920F931F93CF93DF9357
:101D80006C014A017901D9011C9200E018E0C0E021
:101D9000D0E0A62EBB2458E0652E712C33C0F40190
:101DA000EC0FFD1F80810E94A21DAC01F60160892D
:101DB00026C0F701E00FF11DD60150968C9190E0FE
:101DC000861B91099A0102C0369527958A95E2F7FC
:101DD000C9019301211B310902C0880F991F2A955F
:101DE000E2F72081282B2083611710F4161B09C00D
:101DF000611B0F5FF701E00FF11D108218E06623F1
:101E0000C1F62196CA15DB0554F280E090E0DF911F
:101E1000CF911F910F91FF90EF90DF90CF90BF90E7
:101E2000AF909F908F907F906F900895DF92EF9288
:101E3000FF920F931F938C010E94C3068FEE92E0D6
:101E4000F8019183808381E0878382E08087118617
:101E500070E7E72E74E0F72EC70160E070E00E94A3
:101E60000804D82EC70161E070E00E9408043D2DEF
:101E700020E090E0282B392BF80136AB25AB1F91E1
:101E80000F91FF90EF90DF900895EF92FF920F93E4
:101E90001F93DF93CF9300D000D0CDB7DEB77C0186
:101EA000DB01FC017383628319821A821B821C820C
:101EB0004087ED91FC9102A0F3A1E02DCB01642FAE
:101EC00020E835E240E050E08E010F5F1F4F09959A
:101ED0008AE291E0E80EF91E84E090E0F701918338
:101EE00080830F900F900F900F90CF91DF911F91F3
:101EF0000F91FF90EF9008958FEF9FEF08958FEF70
:101F00009FEF0895CF93DF93DC01EC01C65DDE4FB8
:101F1000888199818530910571F086309105B1F005
:101F2000049701F5ED91FC9111970084F185E02D66
:101F3000CD01099517C0ED91FC9111970284F385AD
:101F4000E02DCD010995198218820CC0ED91FC910C
:101F500011970484F585E02DCD0109958FEF9FEF52
:101F60000E941E27DF91CF9108958F929F92AF928A
:101F7000BF92CF92DF92EF92FF920F931F93DF9366
:101F8000CF9300D0CDB7DEB77C011982FC01A281CE
:101F9000B381ED91FC91119706A0F7A1E02DCD0141
:101FA000D70118966C915E010894A11CB11CA50183
:101FB00009958981823008F42FC11A82F701A28124
:101FC000B3817AE0C72ED12CCE0CDF1CED91FC91B1
:101FD000119762E0862E912C8C0E9D1E00A4F1A517
:101FE000E02DCD01D70118966C9142E09601840155
:101FF0000995F7018285A281B3818F3F09F0EFC077
:10200000ED91FC91119706A0F7A1E02DCD01D7012C
:1020100018966C91A5010995298130E0F701838517
:1020200090E00297281739070CF05BC004E610E037
:10203000C501BA2CA92E4BC0D7011296ED91FC9187
:102040001397A081B18196962D913C919797CF01DE
:10205000F70160854B2D5A2DF9010995F701A281F1
:10206000B3810115110519F5ED91FC91119706A0A9
:10207000F7A1E02DCD01D70118966C914B2D5A2D6B
:102080000995F701A281B381ED91FC91119700A40C
:10209000F1A5E02DCD01D70118966C9149819601EB
:1020A0008E010E5F1F4F09952FEF3FEFB7C0ED91E7
:1020B000FC911197E85AFF4F0190F081E02DCD017E
:1020C00041E050E060E070E0099501501040298146
:1020D00030E0F701838590E00297281739070CF468
:1020E000ABCFD7011296ED91FC911397808191812E
:1020F0001B964C9142509701245F3F4F52E0A52E12
:10210000B12CAC0EBD1EDC0198968D909C909997D9
:10211000CF01F70160858501F4010995C701B6017A
:102120000E949111F701A281B3818823C9F1ED9139
:10213000FC911197E058FF4F0190F081E02DCD0107
:1021400061E0A6010995870106571F4FC701B60137
:10215000A8010E942D12F701A281B381ED91FC919B
:102160001197E058FF4F0190F081E02DCD0160E024
:10217000A8010995F701A281B381ED91FC91119716
:1021800002A4F3A5E02DCD01D70118966C912BE8A0
:1021900030E0E20EF31ED7014C91980109953CC046
:1021A000ED91FC91119706A0F7A1E02DCD01D7018B
:1021B00018966C91AE014F5F5F4F0995F701A281B0
:1021C000B381ED91FC91119700A4F1A5E02DCD0113
:1021D000D70118966C914981960185011CC0ED913B
:1021E000FC91119706A0F7A1E02DCD01D70118961B
:1021F0006C91A5010995F701A281B381ED91FC9144
:10220000119700A4F1A5E02DCD01D70118966C918E
:10221000498196018401099520E030E0C9010F90C1
:102220000F90CF91DF911F910F91FF90EF90DF9072
:10223000CF90BF90AF909F908F9008950F931F9372
:102240008C010E943A1187E793E0F8019183808323
:10225000065D1E4FF801118210820A521140F801EA
:10226000178216821F910F91089586EB94E00E94C9
:102270001E110895FC018DE893E0918380831582FF
:10228000148280E8818708958FEF9FEF08958FEF84
:102290009FEF08958FEF9FEF08958FEF9FEF0895C1
:1022A0008FEF9FEF08958FEF9FEF08958FEF9FEFD0
:1022B0000895CF93DF93EC018C819D81843091054B
:1022C00091F0853091051CF4892B39F024C08530BC
:1022D000910579F00697F9F416C0E881F98101902B
:1022E000F081E02D15C0E881F9810084F185E02DB1
:1022F0000FC0E881F9810284F385E02DCE010995B4
:102300001D821C820BC0E881F9810484F585E02DD3
:10231000CE01099503C080E890E000C0DF91CF9125
:102320000895DB0111966C911197462F50E04150B2
:10233000504020E030E090E007C0FD01E20FF31FC5
:102340008081980F2F5F3F4F24173507B4F320E0AB
:10235000A60FB11D11978C91981709F421E0822FD7
:1023600008950F931F93FB01DA018FEF8C93822F57
:102370008A5F11968C931197828112968C93129793
:10238000838113968C9313970F3F110509F020F466
:1023900014960C93149704C083E014968C931497AE
:1023A00011968C911197682F70E06150704040E059
:1023B00050E090E007C0FD01E40FF51F8081980F09
:1023C0004F5F5F4F46175707B4F3A20FB31F159621
:1023D0009C931F910F9108950F931F93890120E003
:1023E00030E00E94B1111F910F910895BF92CF92DA
:1023F000DF92EF92FF920F931F93CF93DF93EC0145
:102400006B01142FB52EB901842F952F9C01D90192
:1024100020E030E0402F50E009C0FB01E20FF31F45
:10242000808114968C9314972F5F3F4F1196241739
:1024300035079CF3CE01B601412F5B2D202F30E0F4
:1024400087010E94B111DF91CF911F910F91FF90F1
:10245000EF90DF90CF90BF9008952F923F924F92D0
:102460005F926F927F928F929F92AF92BF92CF9224
:10247000DF92EF92FF920F931F93DF93CF93CDB72D
:10248000DEB728970FB6F894DEBF0FBECDBF2C0184
:102490003B011A012DB73EB73E832D83DB01149615
:1024A0009C91149780E015962C91E22FF0E0E82B98
:1024B000F92BBCEFE030FB07C0F01982EB57FB4F64
:1024C000EE0FFF1FE40DF51DDB0111968C916A5F85
:1024D0007F4F9A012B5F3F4F0190F081E02D875095
:1024E000AE014F5F5F4F0995E7C7E232F10509F48E
:1024F0002DC5E332F10508F090C0E131F10509F492
:1025000035C1E231F10508F044C0E930F10509F4C4
:10251000D9C1EA30F105E0F4E430F10509F439C13C
:10252000E530F10540F4309709F43AC2339711F0E1
:102530000C948B1C20C1E630F10509F47EC1E63015
:10254000F10508F447C1389711F00C948B1CB0C109
:10255000ED30F10509F4D6C1EE30F10568F4EB3049
:10256000F10509F4BFC1D20112960D911C91139788
:102570003C9708F0C1C1B0C1EF30F10509F4D2C1F8
:10258000D20112960D911C911397709708F0D4C147
:10259000C3C1E931F10509F43AC3EA31F10508F59F
:1025A000E531F10509F46AC2E631F10568F4E33179
:1025B000F10509F4FBC1D20112960D911C911397FC
:1025C000749708F009C2BEC1E731F10509F4BBC236
:1025D000D20112960D911C911397789708F0C1C201
:1025E00087C2ED31F10509F4F2C3EE31F10540F493
:1025F000EB31F10509F470C37C9708F07FC33DC34C
:10260000EF31F10509F42EC4EF31F10508F40DC4E2
:10261000B09711F00C948B1C33C4E33CF10509F422
:1026200033C7E43CF10508F048C0E434F10509F48F
:10263000D6C5E534F105F0F4E532F10509F449C5F4
:10264000E632F10548F4E332F10509F4FDC4B4972C
:1026500011F00C948B1C33C5E234F10509F45CC510
:10266000E334F10508F078C5E134F10511F00C947C
:102670008B1C3DC5E338F10509F494C6E438F10537
:1026800070F4E136F10509F418C6E436F10509F4F1
:1026900047C6E036F10511F00C948B1CEBC5E13C0C
:1026A000F10509F4B6C6E23CF10508F0D2C6E03CFB
:1026B000F10511F00C948B1C8CC6B1E0E030FB07E7
:1026C00009F4CEC721E0E130F20718F5E13EF1054B
:1026D00009F426C7E23EF10570F4E53CF10509F482
:1026E00007C7E53CF10508F4EAC6E03EF10511F044
:1026F0000C948B1C09C7E33EF10509F46CC7E33E5B
:10270000F10508F44BC7E43EF10511F00C948B1C65
:1027100096C731E0E730F30711F40C94B01B41E0A9
:10272000E830F40780F451E0E230F50709F4BBC764
:1027300081E0E230F80708F4A4C7E350F14011F05B
:102740000C948B1CF5C7A1E0E134FA0711F40C944A
:10275000F41BB1E0E234FB0711F40C94701CE0545C
:10276000F14011F00C948B1C0C94EB1BA4E0EA2EAE
:10277000F12C0C94941CD2011296ED91FC911397BC
:102780008281FA0185831296ED91FC9113978381E2
:102790001AC1D2011296ED91FC9113978781FA012B
:1027A00085831296ED91FC9113978085DA01169638
:1027B0008C93D2011296ED91FC9113978185FA01C9
:1027C0008783C20123E030E000E010E00E94B111F5
:1027D0000C94921CD2011296ED91FC91139785A155
:1027E00096A1A7A1B0A58B2F9927AA27BB27FA01ED
:1027F0008583D2011296ED91FC91139785A196A144
:10280000A7A1B0A5CD01AA27BB27FA018683D201D3
:102810001296ED91FC91139785A196A1A7A1B0A561
:10282000892F9A2FAB2FBB27FA018783D2011296EB
:10283000ED91FC91139785A153C1DB0118963C9152
:10284000189720E0442737FD4095542F19968C9116
:1028500090E0A0E0B0E0282B392B4A2B5B2B1982AB
:102860001A821B821C82F201A281B381ED91FC913C
:10287000119704A0F5A1E02DCD01D20118966C911D
:102880008E010F5F1F4F09957C01F201A281B38178
:10289000ED91FC911197E85AFF4F0190F081E02DE6
:1028A000CD0148EE53E060E070E009950C94841C83
:1028B000D2011296ED91FC91139723853485C201C4
:1028C000028510C4D2011296ED91FC9113972685D2
:1028D0003785C201058506C4F801228D338DC201FA
:1028E000018D00C4D2011296ED91FC911397258DB4
:1028F000368DC201048DF6C3F80120A131A1C201B9
:10290000078DF0C3D2011296ED91FC91139723A18C
:1029100034A1C20102A1E6C3F80122A533A5C20178
:1029200001A5E0C3D2011296ED91FC91139725A564
:1029300036A5C20104A5D6C3F80120A931A9C20158
:1029400007A5D0C3DB0116969C91169780E01796D9
:102950002C91179730E0822B932BF80196AB85AB27
:102960000190F081E02DE65AFF4F0190F081E02DBB
:10297000C80160E070E016964C910995F201A281C1
:10298000B381ED91FC911197E65AFF4F0190F081D0
:10299000E02DCD0161E070E0D30117964C910995CF
:1029A000C201B301A10120E030E0BAC7D201129602
:1029B000ED91FC91139786A9FA0185831296ED910A
:1029C000FC91139785A9D10116968C93C201B3018E
:1029D000A10122E030E0F8CEFB01818590E0308556
:1029E00020E0822B932BAA2797FDA095BA2FF80100
:1029F00087AB90AFA1AFB2AF0190F081E02DE65A66
:102A0000FF4F0190F081E02DC80162E070E0D3013A
:102A100016964C910995F201A281B381ED91FC913A
:102A20001197E65AFF4F0190F081E02DCD0163E050
:102A300070E0D30117964C910995F201A281B38100
:102A4000ED91FC911197E65AFF4F0190F081E02D36
:102A5000CD0164E070E0D30118964C910995F20124
:102A6000A281B381ED91FC911197E65AFF4F01903D
:102A7000F081E02DCD0165E070E0E2C2D201129656
:102A8000ED91FC91139787A990ADA1ADB2AD8B2FBD
:102A90009927AA27BB27FA018583D2011296ED91C7
:102AA000FC91139787A990ADA1ADB2ADCD01AA2736
:102AB000BB27F1018683D2011296ED91FC91139709
:102AC00087A990ADA1ADB2AD892F9A2FAB2FBB27AF
:102AD000F1018783D2011296ED91FC91139787A99A
:102AE000F1018087C201B301A10124E030E06CCE86
:102AF000DB0116969C91169780E017962C911797FC
:102B000030E0822B932BF80194AF83AF0190F081DA
:102B1000E02DE65AFF4F0190F081E02DC80166E0FC
:102B200070E016964C910995F201A281B381ED9166
:102B3000FC911197E65AFF4F0190F081E02DCD01F5
:102B400067E070E029CFD2011296ED91FC911397C6
:102B500084ADFA0185831296ED91FC91139783ADB4
:102B600032CF035C1F4FFB01818590E0308520E070
:102B7000822B932BAA2797FDA095BA2FF80180836B
:102B80009183A283B3830D531040D801ED91FC9142
:102B9000E65AFF4F0190F081E02DC80168E070E037
:102BA000D30116964C910995F201A281B381ED9162
:102BB000FC911197E65AFF4F0190F081E02DCD0175
:102BC00069E070E0D30117964C910995F201A2815A
:102BD000B381ED91FC911197E65AFF4F0190F0817E
:102BE000E02DCD016AE070E0D30118964C91099573
:102BF000F201A281B381ED91FC911197E65AFF4F4A
:102C00000190F081E02DCD016BE070E019C2D2019E
:102C10001296ED91FC911397FD9680819181A2818E
:102C2000B3818B2F9927AA27BB27FA018583D2016D
:102C30001296ED91FC911397FD9680819181A2816E
:102C4000B381CD01AA27BB27FA018683D201129650
:102C5000ED91FC911397FD9680819181A281B381C2
:102C6000892F9A2FAB2FBB27FA018783D2011296A7
:102C7000ED91FC91139785AD33CFF201A281B38121
:102C8000AF5BBF4FFB01968180E0278130E0822B54
:102C9000932B11969C938E93A154B040ED91FC918F
:102CA0001197E65AFF4F0190F081E02DCD016CE0C5
:102CB00070E0D30116964C910995F201A281B3817F
:102CC000ED91FC911197E65AFF4F0190F081E02DB4
:102CD000CD016DE070E060CED2011296ED91FC91D5
:102CE0001397EF5BFF4F8181FA0185831296ED9177
:102CF000FC911397EF5BFF4F808165CEFB018681CE
:102D0000D20112960D911C9113978132B8F00D5B90
:102D10001F4F80E2F801808312960D90BC91A02D88
:102D2000ED91FC911197E65AFF4F0190F081E02D53
:102D3000CD016EE070E040E2099516C00D5B1F4FBB
:102D4000D8018C93D2011296ED91FC911397A0813A
:102D5000B181A65ABF4F2D913C91CF016EE070E03A
:102D6000F3014681F9010995730100E010E01DC0EF
:102D7000E00FF11FEC5BFF4FD70116968C9180831B
:102D8000F201A281B381ED91FC911197E65AFF4FB8
:102D9000015F1F4F0190F081E02DCD01B801D701F7
:102DA00016964C9109950E501040D2011296ED9155
:102DB000FC9113970894E11CF11CED5BFF4F80819F
:102DC000E354F04090E00817190794F2E9CDD201DE
:102DD0001296ED91FC911397ED5BFF4F8081FA0104
:102DE0008583BA0140E050E00AC0E40FF51FEC5BB8
:102DF000FF4F8081DB0115968C934F5F5F4FD201AF
:102E00001296ED91FC911397ED5BFF4F2081E354F7
:102E1000F0406F5F7F4F822F90E0481759072CF3E7
:102E2000C201B301A10130E0CFCCD2011296ED91E5
:102E3000FC911397EC59FF4FDB0116968C91808320
:102E4000F201A281B381ED91FC911197E65AFF4FF7
:102E50000190F081E02DCD0160E370E0D301169682
:102E60004C919DCDD2011296ED91FC911397EC59A6
:102E7000FF4F8081FA018583C20121E030E0A4CCBC
:102E8000DB0116968C91F201028113818134A8F046
:102E90000B591F4F80E4D8018C93A281B381ED912F
:102EA000FC911197E65AFF4F0190F081E02DCD0182
:102EB00061E370E040E4099516C00B591F4FF8011B
:102EC0008083D2011296ED91FC911397A081B1817C
:102ED000A65ABF4F2D913C91CF0161E370E0F30101
:102EE0004681F9010995730100E010E01DC0E00F73
:102EF000F11FEA59FF4FD70116968C918083F2019A
:102F0000A281B381ED91FC911197E65AFF4F0E5CBF
:102F10001F4F0190F081E02DCD01B801D701169629
:102F20004C91099501531040D2011296ED91FC91FC
:102F300013970894E11CF11CEB59FF4F8081E55673
:102F4000F04090E00817190794F22ACDF20162814F
:102F500073816A557F4FD30116962C91169730E0F6
:102F600040E050E0522F44273327222717968C91B8
:102F700090E0A0E0B0E0DC0199278827282B392BCE
:102F80004A2B5B2BF301818590E0A0E0B0E0282B79
:102F9000392B4A2B5B2B808590E0A0E0B0E0BA2F64
:102FA000A92F982F8827282B392B4A2B5B2BDB0145
:102FB0002D933D934D935C931397665A7040DB01BC
:102FC000ED91FC91E65AFF4F0190F081E02DCB018D
:102FD00062E770E0D30116964C910995F201A28147
:102FE000B381ED91FC911197E65AFF4F0190F0816A
:102FF000E02DCD0163E770E0D30117964C91099560
:10300000F201A281B381ED91FC911197E65AFF4F35
:103010000190F081E02DCD0164E770E0D3011896B6
:103020004C910995F201A281B381ED91FC91119728
:10303000E65AFF4F0190F081E02DCD0165E770E089
:10304000D30119964C91ABCCD2011296ED91FC9123
:103050001397EA55FF4F80819181A281B3818B2F15
:103060009927AA27BB27F1018583D2011296ED91FA
:10307000FC911397EA55FF4F80819181A281B38122
:10308000CD01AA27BB27F1018683D2011296ED91CB
:10309000FC911397EA55FF4F80819181A281B38102
:1030A000892F9A2FAB2FBB27F1018783D20112966C
:1030B000ED91FC911397EA55FF4F808111CDD2011C
:1030C0001296ED91FC91139725813681C2010481FE
:1030D00009C0D2011296ED91FC91139723A934A94E
:1030E000C20102A9EE24FF240E94F6111DC4F201C0
:1030F000A281B381FB016681ED91FC911197A3013F
:10310000495F5F4F262F30E0295F3F4F260D371D67
:103110000480F581E02D5AC1D2011296ED91FC9107
:10312000139780819181DB0111966C916750A30107
:103130004A5F5F4F91012B5F3F4FDC0116960D9167
:103140001C911797CF01F80109957C01F3012181AA
:1031500030E02750304038C3D20112966D917C91F7
:103160001397DB01ED91FC91D30119963C911997CE
:1031700020E0442737FD4095542F1A968C9190E01B
:10318000A0E0B0E0282B392B4A2B5B2BD3011B96F8
:10319000EC901B97FF2400E010E01E2D0027FF2479
:1031A000EE241E968C9190E0A0E0B0E0E82AF92A87
:1031B0000A2B1B2BD3011D969C9180E0AA2797FD1B
:1031C000A095BA2FE82AF92A0A2B1B2B0084F18537
:1031D000E02DCB01D30116966C91099594C3F201B1
:1031E00022813381D901ED91FC91DB011A96CC90BB
:1031F0001A97DD24EE24FF24FC2CEE24DD24CC24BD
:103200001B968C9190E0A0E0B0E0DC019927882724
:10321000C82AD92AEA2AFB2ADB011D968C9190E064
:10322000A0E0B0E0C82AD92AEA2AFB2ADB011C96D2
:103230008C9190E0A0E0B0E0BA2FA92F982F8827BA
:10324000C82AD92AEA2AFB2A0284F385E02DC9017B
:10325000DB0117966C91179718964C911897169654
:103260002C91169719960C915E010894A11CB11C23
:1032700009957DC1D20112966D917C911397DB0166
:10328000ED91FC91D30119963C91199720E04427C8
:1032900037FD4095542F1A968C9190E0A0E0B0E055
:1032A000282B392B4A2B5B2B0280F381E02DCB019D
:1032B000D30116966C91099526C3D2011296ED9111
:1032C000FC91139785899689A789B08D8B2F9927B3
:1032D000AA27BB27FA018583D2011296ED91FC91B2
:1032E000139785899689A789B08DCD01AA27BB2719
:1032F000FA018683D2011296ED91FC91139785898C
:103300009689A789B08D892F9A2FAB2FBB27F10102
:103310008783D2011296ED91FC9113978589E0CBBA
:10332000D2011296ED91FC9113978089FA01858361
:103330001296ED91FC91139780819181DB0111969A
:103340006C916750A3014A5F5F4F91012A5F3F4F25
:10335000DC010D911C91CF01F80109957C01F3016D
:10336000218130E027503040D2011296ED91FC913E
:103370001397808990E0FC012E9FC0012F9F900D34
:103380003E9F900D11249C0143E0369527954A9568
:10339000E1F787709070892B09F02F5F30E02F5F85
:1033A0003F4F12C2F201A281B381FB016681ED9110
:1033B000FC911197A301495F5F4F262F30E0295FF1
:1033C0003F4F260D371D0484F585E02DCD0109956D
:1033D0009AC2DB0119963C91199720E0442737FDEA
:1033E0004095542F1A968C9190E0A0E0B0E0282BE5
:1033F000392B4A2B5B2B19821A821B821C82F20109
:10340000A281B381ED91FC91119702A0F3A1E02D6F
:10341000A6C0DB0119963C91199720E0442737FD9F
:103420004095542F1A968C9190E0A0E0B0E0282BA4
:10343000392B4A2B5B2B19821A821B821C82F201C8
:10344000A281B381ED91FC91119704A0F5A1E02D2B
:1034500086C0F201A281B381ED91FC91119706A083
:10346000F7A1E02DCD01DB0116966C91AE014F5F07
:103470005F4F09957C018981F1018583C201B30108
:10348000A10121E030E0A3C11982F201A281B38140
:10349000ED91FC9111979A012B5F3F4F00A4F1A58C
:1034A000E02DCD01DB0116966C91169717964C9185
:1034B0008E010F5F1F4F09957C012981BBC0D2018E
:1034C0001296ED91FC91139780819181DB01119609
:1034D0004C9148509B01295F3F4FDC019A960D911A
:1034E0001C919B97CF01FB016681F80109950BC2E6
:1034F000D2011296ED91FC911397A081B181A45B4A
:10350000BF4F2D913C91A6C0D2011296ED91FC9136
:103510001397A081B18158962D913C9159979AC0EB
:10352000DB0119963C91199720E0442737FD40951F
:10353000542F1A968C9190E0A0E0B0E0282B392B04
:103540004A2B5B2B19821A821B821C82F201A281F8
:10355000B381ED91FC911197028CF38DE02DCD019B
:10356000D30116966C918E010F5F1F4F09957C0158
:1035700089819A81AB81BC812B2F33274427552722
:10358000F10125839D01442755272683892F9A2FF2
:10359000AB2FBB27878389818087DCC0D20112963D
:1035A000ED91FC91139780819181DB0111960C9133
:1035B0000A5079E0E72EF12CE60CF71CDC015C9652
:1035C000CD90DC905D97CF01F30166814781208526
:1035D000F601099598C1D20112964D915C9113970D
:1035E000FA0120813181DB011996FC911997E0E005
:1035F0001A968C9190E0E82BF92B65E0C62ED12C21
:10360000C20CD31CD9015E96AD90BC905F97CA01E5
:10361000D30116966C91169717964C9117971B9697
:103620002C911B9718960C917F01F50109957C014F
:10363000F3012085C201B301A10130E0C8C0D2016D
:103640001296ED91FC911397A081B18190962D91E6
:103650003C919197CF01F3016681F901099553C11E
:10366000D2011296ED91FC911397A081B1811E9623
:103670002D913C911F97CF01FB016681F9010995BE
:103680008FC9D2011296ED91FC911397A081B1815F
:1036900050962D913C915197CF01FB016681478156
:1036A000F90109957DC9DB0119963C91199720E034
:1036B000442737FD4095542F1A968C9190E0A0E056
:1036C000B0E0282B392B4A2B5B2B19821A821B82E4
:1036D0001C82F201A281B381ED91FC9111970488C3
:1036E000F589E02DCD01DB0116966C918E010F5FFF
:1036F0001F4F09957C0189819A81AB81BC812B2F59
:10370000332744275527F10125839D014427552759
:103710002683892F9A2FAB2FBB27878389818087A8
:10372000C201B301A10124E030E000E010E050C08C
:10373000D2011296ED91FC911397A081B18152961E
:103740002D913C915397CF01FB0166814781F9018F
:1037500009957C01C201B301A10124E030E037C02A
:10376000D2011296ED91FC911397DB0117964C91C3
:1037700017970081118111968C9190E00B97642F1F
:1037800070E00E94B426262F7AE0C72ED12CC60CFA
:10379000D71C65E0A62EB12CA20CB31CD8015696FE
:1037A0008D909C905797CF01F30166810085E1844D
:1037B000F40109957C01D30118962C91189717965E
:1037C0008C91289F90011124C201B301A1018701AE
:1037D0000E94B111A9C0F20182819381DC01ED91B7
:1037E000FC91E25BFF4F84C0BDB7BF83EEB7E887B3
:1037F00056E0A52EB12CA60EB71EDB0116968C91B5
:1038000090E09C01220F331FEDB7FEB7E21BF30BD4
:103810000FB6F894FEBF0FBEEDBF2DB73EB72F5FBA
:103820003F4FFC013796E60FF71F49016901B901C7
:1038300040E050E00DC0308120E0818190E0822B9B
:10384000932BDB018D939D93BD014F5F5F4F3296AC
:10385000D5018C9190E0481759076CF3EE24FF24B2
:1038600015C0D801ED91FC91E258FF4FD6014D9162
:103870005D916D0160E070E00190F081E02DC80184
:103880002AE030E009950894E11CF11CF501608103
:10389000862F90E0D20112960D911C911397E81695
:1038A000F906FCF2D801ED91FC91E05BFF4FA3011A
:1038B000495F5F4F0190F081E02DC80194010995A7
:1038C0007C01C201B301A10197010E94EC112F817B
:1038D0003885C9010FB6F8949EBF0FBE8DBF24C0B6
:1038E000F20182819381DC01ED91FC91EE5AFF4F50
:1038F000D30111966C916750A3014A5F5F4F01900D
:10390000F081E02D09957C01C201B301A10197016D
:103910000E94EC1109C0C201B301A10121E030E015
:103920000E94EC11EE24FF24C701ED81FE810FB649
:10393000F894FEBF0FBEEDBF28960FB6F894DEBF19
:103940000FBECDBFCF91DF911F910F91FF90EF90F0
:10395000DF90CF90BF90AF909F908F907F906F90AF
:103960005F904F903F902F9008951F920F920FB647
:103970000F9211242F933F938F939F93AF93BF93F5
:103980008091E6059091E705A091E805B091E905E1
:103990003091EA050196A11DB11D232F2D5F2D3712
:1039A00020F02D570196A11DB11D2093EA058093AB
:1039B000E6059093E705A093E805B093E9058091AB
:1039C000E2059091E305A091E405B091E50501962B
:1039D000A11DB11D8093E2059093E305A093E4053A
:1039E000B093E505BF91AF919F918F913F912F913A
:1039F0000F900FBE0F901F9018958FB7F8942091DD
:103A0000E6053091E7054091E8055091E9058FBF43
:103A1000B901CA0108959B01AC017FB7F894809168
:103A2000E2059091E305A091E405B091E50566B546
:103A3000A89B05C06F3F19F00196A11DB11D7FBF66
:103A4000BA2FA92F982F8827860F911DA11DB11D70
:103A500062E0880F991FAA1FBB1F6A95D1F7BC01AE
:103A60002DC0FFB7F8948091E2059091E305A091F5
:103A7000E405B091E505E6B5A89B05C0EF3F19F058
:103A80000196A11DB11DFFBFBA2FA92F982F88271E
:103A90008E0F911DA11DB11DE2E0880F991FAA1F75
:103AA000BB1FEA95D1F7861B970B885E9340C8F23F
:103AB000215030404040504068517C4F2115310525
:103AC0004105510571F60895789484B5826084BDEE
:103AD00084B5816084BD85B5826085BD85B5816012
:103AE00085BDEEE6F0E0808181608083E1E8F0E072
:103AF0001082808182608083808181608083E0E8A1
:103B0000F0E0808181608083E1EBF0E0808184607F
:103B10008083E0EBF0E0808181608083EAE7F0E081
:103B200080818460808380818260808380818160E5
:103B300080838081806880831092C1000895809383
:103B400099010895982F8E3008F09E5097708091BB
:103B500099018295880F880F807C892B80937C0047
:103B600080917A00806480937A0080917A0086FD4B
:103B7000FCCF2091780040917900942F80E030E0D4
:103B8000282B392BC90108951F93CF93DF93182F4A
:103B9000EB0161E00E94241E209709F44AC0CF3F48
:103BA000D10509F449C0E12FF0E0E255FF4F8491BF
:103BB0008330C1F0843028F4813051F08230B1F587
:103BC0000CC0863019F1873049F1843079F514C082
:103BD00084B5806884BDC7BD33C084B5806284BDB0
:103BE000C8BD2EC080918000806880938000D093F3
:103BF0008900C093880024C08091800080628093F7
:103C00008000D0938B00C0938A001AC08091B000CE
:103C100080688093B000C093B30012C08091B00060
:103C200080628093B000C093B4000AC0C038D10550
:103C30001CF4812F60E002C0812F61E00E94631EAE
:103C4000DF91CF911F910895CF93DF93482F50E0DC
:103C5000CA0186569F4FFC0134914A575F4FFA01C3
:103C60008491882369F190E0880F991FFC01E8593D
:103C7000FF4FA591B491FC01EE58FF4FC591D4912F
:103C8000662351F42FB7F8948C91932F9095892344
:103C90008C93888189230BC0623061F42FB7F8942C
:103CA0008C91932F909589238C938881832B888383
:103CB0002FBF06C09FB7F8948C91832B8C939FBF26
:103CC000DF91CF910895482F50E0CA0182559F4F50
:103CD000FC012491CA0186569F4FFC0194914A57DA
:103CE0005F4FFA013491332309F440C0222351F18C
:103CF000233071F0243028F42130A1F0223011F566
:103D000014C02630B1F02730C1F02430D9F404C0FB
:103D1000809180008F7703C0809180008F7D809399
:103D2000800010C084B58F7702C084B58F7D84BDBC
:103D300009C08091B0008F7703C08091B0008F7D63
:103D40008093B000E32FF0E0EE0FFF1FEE58FF4F1F
:103D5000A591B4912FB7F894662321F48C91909596
:103D6000892302C08C91892B8C932FBF0895682FD3
:103D700070E0CB0182559F4FFC012491CB01865608
:103D80009F4FFC0144916A577F4FFB019491992307
:103D900019F420E030E03CC0222351F1233071F0CF
:103DA000243028F42130A1F0223011F514C026303F
:103DB000B1F02730C1F02430D9F404C080918000E4
:103DC0008F7703C0809180008F7D8093800010C02A
:103DD00084B58F7702C084B58F7D84BD09C0809182
:103DE000B0008F7703C08091B0008F7D8093B000CA
:103DF000892F90E0880F991F84589F4FFC01A5914F
:103E0000B4918C9120E030E0842311F021E030E087
:103E1000C90108958F929F92AF92BF92CF92DF9285
:103E2000EF92FF920F931F93CF93DF93A82FB0E0F1
:103E3000CD0186569F4FFC018490AA57BF4FFD01CC
:103E40008491662311F4992401C0982C6FEFA62E5B
:103E50006FEFB62E6FEFC62E6FE0D62EA222B322E2
:103E6000C422D522682F70E0660F771F64587F4FF9
:103E7000EE24FF248701FB01A591B4910BC0EA1445
:103E8000FB040C051D0509F44EC00894E11CF11C4F
:103E9000011D111D8C918821891589F30CC0EA142C
:103EA000FB040C051D0509F43EC00894E11CF11C3F
:103EB000011D111D03C0FB01A591B4918C918821B6
:103EC000891569F720E030E040E050E0FB01C59142
:103ED000D4910FC0DA01C9018E0D9F1DA01FB11F23
:103EE0008A159B05AC05BD05F1F02F5F3F4F4F4F85
:103EF0005F4F88818821891569F3CA01B90125E1DD
:103F000030E040E050E00E9489269B01AC01205F38
:103F10003F4F4F4F5F4F84E0569547953795279514
:103F20008A95D1F704C020E030E040E050E0B901CC
:103F3000CA01DF91CF911F910F91FF90EF90DF9019
:103F4000CF90BF90AF909F908F90089508951F924B
:103F50000F920FB60F9211242F933F934F938F938D
:103F60009F93EF93FF938091C00082FD1DC040910D
:103F7000C60020912B0630912C062F5F3F4F2F73E8
:103F8000307080912D0690912E062817390771F018
:103F9000E0912B06F0912C06E551FA4F40833093C7
:103FA0002C0620932B0602C08091C600FF91EF9152
:103FB0009F918F914F913F912F910F900FBE0F9036
:103FC0001F901895E0917F06F0918006E05CFF4F0E
:103FD0008191919120813181821B930B8F7390701D
:103FE000892B11F00E94A61F08951F920F920FB601
:103FF0000F9211242F933F938F939F93EF93FF93EF
:1040000020916F0630917006809171069091720632
:104010002817390731F48091C1008F7D8093C1004A
:1040200014C0E0917106F0917206E15DF94F2081B4
:10403000809171069091720601968F7390709093A3
:104040007206809371062093C600FF91EF919F91B5
:104050008F913F912F910F900FBE0F901F90189549
:10406000AF92BF92DF92EF92FF920F931F93CF9385
:10407000DF93EC017A018B01DD24403081EE58079B
:1040800080E0680780E0780711F0DD24D39491E0A8
:10409000A92EB12CEC89FD89DD2069F0C50108A0AD
:1040A00002C0880F991F0A94E2F7808360E079E0EC
:1040B0008DE390E005C0108260E874E88EE190E046
:1040C000A80197010E94C72621503040404050402F
:1040D000569547953795279580E12030380720F091
:1040E000DD2011F0DD24D6CFE889F9893083EA8913
:1040F000FB89208319A2EE89FF89408121E030E00D
:10410000C9010C8C02C0880F991F0A94E2F7482B52
:104110004083EE89FF894081C9010D8C02C0880F60
:10412000991F0A94E2F7482B4083EE89FF8940816A
:10413000C9010E8C02C0880F991F0A94E2F7482B20
:104140004083EE89FF8980810F8C02C0220F331FCC
:104150000A94E2F7209528232083DF91CF911F91C5
:104160000F91FF90EF90DF90BF90AF900895CF93A5
:10417000DF93DC011E968D919C911F97EC01C05C32
:10418000DF4FFC01EE5BFF4F2881398180819181F7
:1041900028173907C9F75696ED91FC91579740813A
:1041A00021E030E0C9015C960C905C9702C0880F5A
:1041B000991F0A94E2F78095842380835696ED91A7
:1041C000FC9157974081C9015D960C905D9702C0A4
:1041D000880F991F0A94E2F780958423808356966E
:1041E000ED91FC9157974081C9015E960C905E97C6
:1041F00002C0880F991F0A94E2F780958423808378
:104200005696ED91FC91579780815F960C905F9741
:1042100002C0220F331F0A94E2F72095282320833F
:104220001C96ED91FC911D97EE5BFF4F8081918173
:1042300092938293DF91CF910895DC011C96ED91CA
:10424000FC911D97E05CFF4F21913191808191811C
:10425000281B390B2F733070C9010895DC011C969F
:10426000ED91FC911D97E05CFF4F20813181E0547E
:10427000F040DF01AE5BBF4F8D919C9111972817E5
:10428000390719F42FEF3FEF07C08D919C91E80F8C
:10429000F91F8081282F30E0C9010895DC011C96A8
:1042A000ED91FC911D97E05CFF4F20813181E0543E
:1042B000F040DF01AE5BBF4F8D919C9111972817A5
:1042C000390719F42FEF3FEF10C08D919C91119792
:1042D000E80FF91F20818D919C91119701968F73A2
:1042E000907011969C938E9330E0C9010895DC0183
:1042F00091968C919197882339F05496ED91FC9189
:104300005597808186FFF9CF91961C920895CF939F
:10431000DF93EC01EE85FF85E05CFF4F208131816A
:10432000E054F0402F5F3F4F2F733070DF01AE5BE2
:10433000BF4F8D919C91119728173907D1F3E05CFD
:10434000FF4F80819181E054F040E80FF91F6083B6
:10435000EE85FF85E05CFF4F31832083EE89FF8986
:10436000208181E090E00F8C02C0880F991F0A9491
:10437000E2F7282B208381E089A3EC89FD898081E5
:104380008064808381E090E0DF91CF910895109266
:1043900076061092750688EE93E0A0E0B0E0809378
:1043A000770690937806A0937906B0937A0681EA0F
:1043B00093E090937406809373068BEE95E0909350
:1043C000800680937F068FE296E09093820680932A
:1043D000810685EC90E0909384068093830684ECBC
:1043E00090E0909386068093850680EC90E0909311
:1043F00088068093870681EC90E090938A068093EC
:10440000890682EC90E090938C0680938B0686EC74
:1044100090E090938E0680938D0684E080938F06C3
:1044200083E08093900687E08093910685E08093F7
:10443000920681E0809393060895CF93DF930E94C4
:10444000641D0E949400C2EEDFE10E948F0020975D
:10445000E1F30E94E21FF9CF08950E9454250895C8
:10446000CF92DF92EF92FF920F931F93CF93DF9340
:104470007C016B018A01C0E0D0E00FC0D6016D91D4
:104480006D01D701ED91FC910190F081E02DC70104
:104490000995C80FD91F015010400115110571F77A
:1044A000CE01DF91CF911F910F91FF90EF90DF90A0
:1044B000CF900895CF93DF93EC010E94FD1C688795
:1044C00079878A879B87E881F9810680F781E02DCB
:1044D000CE0109959C0197FF15C00E94FD1C2885FF
:1044E00039854A855B85621B730B840B950B2C8188
:1044F0003D814E815F81621773078407950718F32A
:104500002FEF3FEFC901DF91CF910895CF92DF9256
:10451000EF92FF920F931F93CF93DF936C018B0168
:104520007A01C0E0D0E009C0C6010E945A2297FD7E
:1045300007C0F80181938F012196CE15DF05A0F306
:10454000CE01DF91CF911F910F91FF90EF90DF90FF
:10455000CF900895813041F0813018F08230D1F44D
:1045600009C010926E00089580916F008D7F809336
:104570006F000895809170008D7F8093700081E0BE
:104580008093B0008091B100887F84608093B100F7
:104590001092B30008951F93182F80919A018117EC
:1045A00011F09FEF06C0E2ECF0E094918FEF809362
:1045B0009A01892F0E94AA22812F60E00E94631E27
:1045C0001F9108951F920F920FB60F9211242F93EF
:1045D0003F934F935F936F937F938F939F93AF938B
:1045E000BF93EF93FF938091A3069091A406A091AF
:1045F000A506B091A6060097A105B10551F1E0917D
:10460000A706F091A80680819091A906892780834A
:104610008091A3069091A406A091A506B091A6064C
:10462000181619061A061B06C4F48091A306909169
:10463000A406A091A506B091A6060197A109B1090B
:104640008093A3069093A406A093A506B093A60614
:1046500004C080919A010E94CB22FF91EF91BF91FB
:10466000AF919F918F917F916F915F914F913F910A
:104670002F910F900FBE0F901F9018952F923F9281
:104680005F926F927F928F929F92AF92BF92CF92E2
:10469000DF92EF92FF920F931F93DF93CF9300D09F
:1046A00000D0CDB7DEB7A82F1B0129833A834B83F7
:1046B0005C8380919A018A1721F4E2ECF0E0549037
:1046C00082C08F3F09F0DAC1A0939A01E2ECF0E0DA
:1046D00054902FEF521609F4D1C181E0581639F1E8
:1046E00092E0591609F449C0552009F06CC014BC79
:1046F00015BC84B5826084BD85B5816085BD2A2FD7
:1047000030E0F901EA57FF4FE491F0E0EE0FFF1FB0
:10471000EE58FF4F8591949190939A068093990655
:1047200026563F4FF901849180939B064EC010920C
:1047300080001092810080918100886080938100C8
:10474000809181008160809381002A2F30E0F901FF
:10475000EA57FF4FE491F0E0EE0FFF1FEE58FF4FD6
:10476000859194919093A1068093A00626563F4F81
:10477000F90184918093A20628C01092B000109293
:10478000B1008091B00082608093B0008091B10050
:1047900081608093B1002A2F30E0F901EA57FF4F82
:1047A000E491F0E0EE0FFF1FEE58FF4F85919491DA
:1047B0009093A8068093A70626563F4FF90184914F
:1047C0008093A90602C057FC59C18A2F61E00E945C
:1047D000241E552021F0F2E05F1609F0BEC0310121
:1047E0008824992460E072E18AE790E0A4019301B3
:1047F0000E94E92659016A01860175010894E108C1
:10480000F108010911092FEFE216F1040105110564
:1048100009F008F499C060E472E48FE090E0A4012C
:1048200093010E94E92679018A010894E108F108C0
:104830000109110982E05816C1F49FEFE916F1044D
:104840000105110509F008F484C060E970ED83E00A
:1048500090E0A40193010E94E92679018A0108945D
:10486000E108F1080109110983E0AFEFEA16F1044C
:104870000105110509F008F468C068E478EE81E0EC
:1048800090E0A40193010E94E92679018A0108942D
:10489000E108F10801091109552011F483E01DC058
:1048A000B2E05B1611F084E018C0EFEFEE16F104F1
:1048B0000105110509F008F4DFC064E274EF80E03F
:1048C00090E0A40193010E94E92679018A010894ED
:1048D000E108F1080109110985E0FFEFEF16F10485
:1048E0000105110591F188F162E17AE780E090E03D
:1048F000A40193010E94E92679018A010894E10844
:10490000F10801091109552011F086E001C084E089
:104910002FEFE216F10401051105B9F0B0F0C60160
:10492000B50120E034E040E050E00E94E926790142
:104930008A010894E108F10801091109552011F0D4
:1049400087E008C085E003C081E0552019F485BDEB
:104950003AC082E08093B10036C05101CC24DD24FE
:1049600060E072E18AE790E0A60195010E94E926E5
:1049700079018A010894E108F1080109110980E030
:10498000E81680E0F80681E0080780E0180710F4D8
:1049900091E010C068E478EE81E090E0A601950116
:1049A0000E94E92679018A010894E108F1080109C9
:1049B000110993E0A1E05A1631F480918100887FBB
:1049C000982B9093810089819A81AB81BC8100975B
:1049D000A105B10529F48FEF9FEFAFEFBFEF13C033
:1049E000220C331CB10180E090E029813A814B8197
:1049F0005C810E94892628EE33E040E050E00E946E
:104A0000C726C901DA01E1E05E16A1F0F2E05F1607
:104A100019F1552099F5E7BC809395069093960679
:104A2000A0939706B093980680916E008260809361
:104A30006E0024C0F0928900E092880080939C066A
:104A400090939D06A0939E06B0939F0680916F0061
:104A5000826080936F0012C0E092B3008093A3063F
:104A60009093A406A093A506B093A606809170002B
:104A700082608093700002C084E06CCF0F900F9032
:104A80000F900F90CF91DF911F910F91FF90EF90BA
:104A9000DF90CF90BF90AF909F908F907F906F905E
:104AA0005F903F902F9008950F931F93CF93DF93C4
:104AB000BC018230910510F462E070E0E091AC0638
:104AC000F091AD0640E050E0A0E0B0E024C080816D
:104AD000918186179707D0F08617970771F4828126
:104AE0009381109729F013969C938E9312972CC064
:104AF0009093AD068093AC0627C04115510519F07F
:104B00008417950718F48D01AC01EF01DF01828154
:104B100093819C01F9013097D1F641155105F9F0C7
:104B2000CA01861B970B8430910580F48A819B8192
:104B30000115110521F0F8019383828304C090933D
:104B4000AD068093AC06FE01329645C0FE01E80F2B
:104B5000F91F619371930297998388833CC0809178
:104B6000AA069091AB06892B41F480919D0190910A
:104B70009E019093AB068093AA0640919F015091AD
:104B8000A0014115510541F44DB75EB780919B01DD
:104B900090919C01481B590B2091AA063091AB06BD
:104BA00024173507B0F4CA01821B930B86179707A9
:104BB00080F0AB014E5F5F4F8417950750F0420FB6
:104BC000531F5093AB064093AA06F901619371936A
:104BD00002C0E0E0F0E0CF01DF91CF911F910F9193
:104BE0000895CF93DF939C01009709F48FC0EC01E7
:104BF00022971B821A826091AC067091AD066115F6
:104C0000710581F488819981820F931F2091AA06F2
:104C10003091AB062817390739F5D093AB06C0930E
:104C2000AA0674C0DB0140E050E0AC17BD0708F1F4
:104C3000BB83AA83FE0121913191E20FF31FAE17CE
:104C4000BF0779F48D919C911197280F391F2E5F22
:104C50003F4F3983288312968D919C9113979B83A4
:104C60008A834115510571F4D093AD06C093AC060B
:104C70004DC012968D919C911397AD01009711F044
:104C8000DC01D3CFDA011396DC93CE931297FA01AD
:104C900021913191E20FF31FCE17DF0769F488816C
:104CA0009981280F391F2E5F3F4FFA0131832083EE
:104CB0008A819B8193838283E0E0F0E0DB0112969E
:104CC0008D919C911397009719F0BC01FD01F6CFCF
:104CD000AB014E5F5F4FDB018D919C91840F951F5F
:104CE0002091AA063091AB062817390779F430973E
:104CF00029F41092AD061092AC0602C01382128203
:104D0000425050405093AB064093AA06DF91CF919A
:104D10000895629FD001739FF001829FE00DF11D05
:104D2000649FE00DF11D929FF00D839FF00D749F25
:104D3000F00D659FF00D9927729FB00DE11DF91FD1
:104D4000639FB00DE11DF91FBD01CF01112408952E
:104D5000991B79E004C0991F961708F0961B881FCD
:104D60007A95C9F78095089597FB092E07260AD0F2
:104D700077FD04D049D006D000201AF470956195D3
:104D80007F4F0895F6F7909581959F4F0895A1E282
:104D90001A2EAA1BBB1BFD010DC0AA1FBB1FEE1FB5
:104DA000FF1FA217B307E407F50720F0A21BB30B00
:104DB000E40BF50B661F771F881F991F1A9469F77C
:104DC00060957095809590959B01AC01BD01CF01D8
:104DD000089597FB092E05260ED057FD04D0D7DF86
:104DE0000AD0001C38F450954095309521953F4FDE
:104DF0004F4F5F4F0895F6F79095809570956195A8
:104E00007F4F8F4F9F4F0895AA1BBB1B51E107C0D7
:104E1000AA1FBB1FA617B70710F0A61BB70B881F4A
:104E2000991F5A95A9F780959095BC01CD010895D9
:104E3000EE0FFF1F0590F491E02D0994F894FFCF39
:104E4000446562756767696E6720456E61626C656F
:104E50006400536572766F2000203A20004372652B
:104E600061746564204E657720536572766F204FBC
:104E70006E204368616E6E656C200000127A00003F
:104E8000093D0080841E0040420F0020A1070090D1
:104E9000D0030048E80100040000000500010006FE
:104EA00000020003002C01000058020000B00400C2
:104EB0000060090000C0120000802500004038009A
:104EC00000004B000080700000127A000000960085
:104ED0000000E1000000C2010001FF8000AE0600FA
:104EE000000000000045011401CD00D600EB00FCDD
:104EF00000526564426F61726400000102030405A0
:104F0000E0C81000030000010203040506070809B9
:104F10000A0B0C0D030506090A0B0000000000B285
:104F20000E2C0ECD0CE20DAB0D3F0D0D0D080D2B13
:104F30000936093D09740C5F0C8209310CCF0B85D1
:104F400009530B8809440B250B1A0B33071707026B
:104F5000073B074807530784079107B307CE07E7C6
:104F6000070008190832084B086408110B850AFC71
:104F700009BD09CC0BC10B3A0DB809B309CC0681A8
:104F800008820883088408850886088708880889B5
:104F9000088A088B088C088D088E088F08900801F5
:104FA000079108000000002C222C222C222C222CFD
:104FB000222C222C222C222C222C222C222C222C81
:104FC000222C222C222C222C222C222C222C222C71
:104FD000222C223307170702073B07480753078491
:104FE000079107B307CE07E7070008190832084BF7
:104FF0000864082C222C222C222C222C222C220069
:10500000072C222C22CC068108820883088408857C
:105010000886088708880889088A088B088C088D04
:10502000088E088F0890080107910800000000B260
:105030000E2C0ECD0CE20DAB0D3F0D0D0D080D2B02
:105040000936093D09740C5F0C8209310CCF0B85C0
:1050500009530B8809440B250B1A0B33071707025A
:10506000073B074807530784079107B307CE07E7B5
:10507000070008190832084B086408110B850AFC60
:1050800009BD09CC0BC10B3A0DB809B309CC068197
:1050900008820883088408850886088708880889A4
:1050A000088A088B088C088D088E088F08900801E4
:1050B00007910800000000441147114A114D11B535
:1050C0000F7C0F7F0F820F450F0000000044114737
:1050D000114A114D11501153115611591100000070
:0E50E00000872130221D214E212E2177210034
:00000001FF
