:100000000C9405010C942D010C942D010C942D01E0
:100010000C942D010C942D010C942D010C942D01A8
:100020000C942D010C942D010C945E280C94F02658
:100030000C942D010C942D010C942D010C942D0188
:100040000C942D010C94F9040C942D010C942D01A9
:100050000C942D010C942D010C942D010C94AF1DCA
:100060000C942D010C942D010C942D010C942D0158
:100070000C942D010C942D010C942D010C942D0148
:100080000C945F240C942D010C942D010C942D01E3
:100090000C94CC030C942D010C942D010C942D0187
:1000A0000C942D010C942D010C942D01001F051FA3
:1000B0000A1F141F1E1F681F681F681F281F321F7A
:1000C0003C1F461F531F681F5B1F891F8C1F7B1F10
:1000D0007F1F851FAD1FAD1FAD1F901F941F981F61
:1000E0009E1FA21FAD1FA81F070605040100080AD6
:1000F0000B0C0D090000000200090F0000030401B1
:10010000000C0000000000000000000000000000E3
:100110000000000408020110408040102040804090
:10012000800802040180402010020110801020404D
:100130004020040404040403040502020202040330
:100140000202020206060606060604040202020471
:1001500004000000002300260029002C002F0000CE
:10016000000000250028002B002E003100000000B8
:1001700000240027002A002D003000080B00020296
:100180000201000904000001020200000524001021
:1001900001052401010104240206052406000107CB
:1001A00005810310004009040100020A0000000755
:1001B000050202400000070583024000000312010F
:1001C0000002EF02014041233680000101020301D9
:1001D00012010002000000404123368000010102AC
:1001E000030141726475696E6F204C4C430041728B
:1001F0006475696E6F204C656F6E6172646F000488
:1002000003090400E202FC125A2111241FBECFEFA1
:10021000DAE0DEBFCDBF14E0A0E0B1E0E6E0F7E554
:1002200002C005900D92AC3EB107D9F726E0ACEEC6
:10023000B4E001C01D92A53BB207E1F712E0CAE0AD
:10024000D2E004C02297FE010E940D2AC430D107DB
:10025000C9F70E94F7280C94812B0C940000CF92D0
:10026000DF92EF92FF920F931F93E82FF92F05C0B3
:10027000015011092109310961F1908196239417E8
:10028000B9F305C0015011092109310911F190811B
:1002900096239413F7CFC12CD12CE12CF12C0AC05A
:1002A0008FEFC81AD80AE80AF80A0C151D052E05A2
:1002B0003F0579F080818623841791F36C2D7D2D85
:1002C0008E2D9F2D1F910F91FF90EF90DF90CF907B
:1002D000089560E070E080E090E01F910F91FF9042
:1002E000EF90DF90CF900895CF93DF938DEC90E067
:1002F0000E940A29EC010E94C906D093ED04C09324
:10030000EC0440E0BE0184EF95E0DF91CF910C94C6
:10031000281184EF95E00C94D910CF93CFB7F894BF
:100320008091EE04811127C0E3E4F1E08491E4E2DE
:10033000F1E09491E82FF0E0EE0FFF1FE359FE4F3C
:10034000A591B4918C91892321F461E081E10E940F
:10035000E71F61E081E10E94AE1F8CB580618CBD1A
:100360008CB580648CBD61E08FE00E94AE1F61E0BF
:1003700080E10E94AE1F8091EE048F5F8093EE04B7
:10038000CFBFCF91089580911F0590E02091200567
:10039000821B910908952091200580911F0528173F
:1003A00050F4E22FF0E0EF5DFA4F808190E02F5F94
:1003B0002093200508958FEF9FEF0895E091200589
:1003C00080911F05E81730F4F0E0EF5DFA4F80816F
:1003D00090E008958FEF9FEF08950895CF92DF92F8
:1003E000EF92FF920F931F93CF93DF937C01CB018A
:1003F0008A012091FB04222389F0EB016B01C40EDA
:10040000D51ECC15DD0569F06991D701ED91FC9100
:100410000190F081E02DC7010995F3CF642F0E9470
:10042000A303C801DF91CF911F910F91FF90EF902F
:10043000DF90CF900895CF93DF931F92CDB7DEB7B3
:1004400069832091FB042223D1F02091FC04203207
:1004500040F021E030E0FC013383228380E090E033
:1004600015C08091FD04E82FF0E0E250FB4F998128
:1004700090838F5F8093FD048093FC0405C061E04E
:10048000CE0101960E94A30381E090E00F90DF91DE
:10049000CF910895FC011382128248EE53E060E090
:1004A00070E0448355836683778381E891E091838C
:1004B000808308951092200510921F051092FD046C
:1004C0001092FC040C94E60281E08093FB0460939C
:1004D0001E051092FD041092FC0408950F93062F40
:1004E00021E04091FC046EEF74E080911E050E94B3
:1004F0004C031092FD041092FC041092FB040F9127
:1005000008958F929F92AF92BF92CF92DF92EF9217
:10051000FF920F931F93CF93DF93EC01F62ED42E0F
:1005200048015901EE2019F10E9464021E2D143079
:1005300008F013E01150B8F0E881F98128E0129F2B
:10054000B0011124A501940104C056954795379533
:1005500027956A95D2F7CA01B9010190F081E02D83
:10056000CE010995E7CF60E0CE010E946E024D2DCD
:10057000413208F040E22C2D61E275E08F2D0E949F
:1005800004031092200580931F05DF91CF911F91E6
:100590000F91FF90EF90DF90CF90BF90AF909F9022
:1005A0008F900895CF92EF920F931F93C22EE12C5C
:1005B00000E010E098010E9481021F910F91EF90DE
:1005C000CF9008958FEE94E00C944A021092AE05FD
:1005D00081E08093AC051092AB0561E082E00E945F
:1005E000E71F61E083E00E94E71FE9EBF0E0808114
:1005F0008E7F808380818D7F808388E48093B800A4
:1006000085E48093BC000895413208F043C0909186
:10061000AE059111FCCF91E09093AE052093AC050F
:100620002FEF2093410510928605240F2093850516
:100630009093AD059091AD05880F892B8093AD0502
:100640008091AB05813061F41092AB058091AD05CE
:100650008093BB008091BC0083FDF8CF85EC01C086
:1006600085EE8093BC008091AE058130E1F38091EE
:100670008605841710F44091860527E835E0FB01D4
:10068000D9018A2F821B841718F48D918193F9CF99
:10069000842F089580E008950F93413208F04AC0F6
:1006A0009091AE059111FCCF92E09093AE0500932E
:1006B000AC059FEF90934105109286054093850508
:1006C000FB0167E875E0DB019A2F961B941718F47D
:1006D00091919D93F9CF1092AD059091AD05880F42
:1006E000892B8093AD058091AB05813061F4109228
:1006F000AB058091AD058093BB008091BC0083FD6C
:10070000F8CF85EC01C085EE8093BC00222321F058
:100710008091AE058230E1F3809141058F3F61F019
:1007200080914105803251F080914105803341F440
:1007300083E007C081E005C080E003C082E001C023
:1007400084E00F910895613298F42091AE05243031
:1007500089F460936305FC0185E695E0DC012A2FAE
:10076000281B261718F421912D93F9CF80E00895C6
:1007700081E0089582E0089585ED8093BC0080912A
:10078000BC0084FDFCCF1092AE05089585EC8093EB
:10079000BC001092AE0508951F920F920FB60F92F3
:1007A00011242F933F934F935F936F937F938F9376
:1007B0009F93AF93BF93EF93FF938091B900887F8E
:1007C000803609F49EC078F5883209F45DC090F453
:1007D000803109F456C038F4882309F4F5C0883014
:1007E00009F44FC0F5C0883109F44EC0803209F4D5
:1007F0005FC0EEC0803409F46AC058F4803309F455
:1008000057C0883309F0E4C0809341050E94C603B5
:10081000DFC0803509F44FC0883509F45DC08834E5
:1008200009F0D6C0D3C0883909F4C4C0A8F4883709
:1008300009F467C038F4883609F463C0803709F4D6
:1008400060C0C6C0883809F4B5C0803909F45FC0FB
:10085000803809F0BDC05BC0803B09F483C038F428
:10086000803A09F466C0883A09F47CC0B1C0803C83
:1008700009F4A4C0883C09F4A1C0883B09F487C0EE
:10088000A7C08091AD0510C0909186058091850527
:10089000981770F5E091860581E08E0F80938605AC
:1008A000F0E0E957FA4F80818093BB0085EC83C06C
:1008B000809341058BC0E091860581E08E0F809387
:1008C00086058091BB00F0E0E957FA4F8083909154
:1008D0008605809185056BC0E091860581E08E0FCD
:1008E000809386058091BB00F0E0E957FA4F808342
:1008F0008091AC0581116AC081E08093AB0584EAE8
:100900005EC083E08093AE0510924205CFCF809108
:100910004205803208F04EC0E091420581E08E0F22
:10092000809342058091BB00F0E0ED5BFA4F80833D
:10093000BDCF0E94C60380914205803230F4E09121
:100940004205F0E0ED5BFA4F10826091420570E0E5
:10095000E091A705F091A80583E495E00995109230
:10096000420536C084E08093AE0510926405109273
:100970006305E091A905F091AA05099580916305A9
:10098000811105C081E08093630510926505E091B7
:10099000640581E08E0F80936405F0E0EB59FA4F17
:1009A00080818093BB0090916405809163059817C6
:1009B00008F47CCF85E88093BC000AC085EC809366
:1009C000BC001092AE0504C0109241050E94BC0309
:1009D000FF91EF91BF91AF919F918F917F916F9117
:1009E0005F914F913F912F910F900FBE0F901F90ED
:1009F00018951F920F920FB60F9211242F933F93C9
:100A00004F935F936F937F938F939F93AF93BF9316
:100A1000EF93FF938091B00587FF05C0109285008A
:100A2000109284001AC02091B005332727FD30951D
:100A30008091AF0590E0281739077CF48091B005CC
:100A4000992787FD9095FC01EE0FFF1FE80FF91F16
:100A5000EF54FA4F808186FD15C08091B0058F5FFD
:100A60008093B0052091B005332727FD3095809104
:100A7000AF0590E028173907BCF48091B0058C30A1
:100A80005CF112C08091B005992787FD9095FC011B
:100A9000EE0FFF1FE80FF91FEF54FA4F808160E05F
:100AA0008F730E94E71FD9CF8091840090918500B9
:100AB000049680349C4918F480E49CE905C0809138
:100AC000840090918500049690938900809388001B
:100AD0008FEF8093B00538C020918400309185005D
:100AE0008091B005992787FD9095FC01EE0FFF1FBF
:100AF000E80FF91FEF54FA4F81819281820F931F03
:100B000090938900809388008091B005992787FD94
:100B10009095FC01EE0FFF1FE80FF91FEF54FA4FFD
:100B2000808186FF11C08091B005992787FD90953F
:100B3000FC01EE0FFF1FE80FF91FEF54FA4F808101
:100B400061E08F730E94E71FFF91EF91BF91AF911A
:100B50009F918F917F916F915F914F913F912F91D5
:100B60000F900FBE0F901F9018952091AF052C305D
:100B7000A0F431E0320F3093AF05FC012083822FC7
:100B800090E0FC01EE0FFF1FE80FF91FEF54FA4F42
:100B900088EB9BE09283818308952FEFFC012083F3
:100BA0000895DF92EF92FF920F931F93CF93DF93FD
:100BB000EC01D62E7A01890188818C3008F066C05C
:100BC00061E08D2D0E94AE1F8881A82FB0E0FD014D
:100BD000EE0FFF1FEA0FFB1FEF54FA4F2D2D2F735F
:100BE0009081907C922B908360E272E06E197F0975
:100BF00077FF02C06D5F7F4F759567957595679517
:100C0000698340E659E0401B510B57FF02C04D5F1E
:100C10005F4F55954795559547954A836CE00E94DF
:100C2000AA299CE0899FB001112420E030E0A901AD
:100C3000460F571FFA01EE0FFF1FE40FF51FEF5489
:100C4000FA4F908196FD16C02F5F3F4F2C30310533
:100C500071F781110FC01092800082E080938100B3
:100C60001092850010928400B19A80916F0082608A
:100C700080936F00888190E0FC01EE0FFF1FE80F6A
:100C8000F91FEF54FA4F8081806480838881DF915F
:100C9000CF911F910F91FF90EF90DF90089520E684
:100CA00039E040E252E00C94D105FC01808190E0F3
:100CB000FC01EE0FFF1FE80FF91FEF54FA4F808180
:100CC0008F7B80830895FC0180818C3070F5918149
:100CD00028E830E0291B310997FD3395220F331F97
:100CE000220F331F621773077CF0928128E532E0F0
:100CF000291B310997FD3395220F331F220F331F14
:100D0000621773070CF49B0122503109220F331F25
:100D10004FB7F89490E0FC01EE0FFF1FE80FF91FAA
:100D2000EF54FA4F328321834FBF089529ED33E00A
:100D3000FC01318320830C94720721E931E0FC012E
:100D4000318320830C9496062FE232E0FC0131833C
:100D500020830C949D06CF93DF93EC010E949606AE
:100D6000CE01DF91CF910C940C29CF93DF93EC014E
:100D70000E949D06CE01DF91CF910C940C29CF9358
:100D8000DF93EC010E94A406CE01DF91CF910C9479
:100D90000C291F93CF93DF93EC010E9464078FE22D
:100DA00092E09983888382E08B8381E18C838BEE50
:100DB00092E09E838D8380E48F8383E08887198609
:100DC0001A86AEE0AB8781ED92E09D878C8726E0A6
:100DD0002E8725EE32E0388B2F872AE0298B40E4DE
:100DE0005BE46CE470E04E8B5F8B688F798F4A8B8D
:100DF0005B8B6C8B7D8BFE01E954FF4F2FED32E056
:100E0000318320833397B1E0B083319621EE32E015
:100E10003183208334961082118212821382349699
:100E200040835183628373831A8E1C8E1B8E17E05E
:100E30001EA32AEC32E038A72FA319A61BA61AA6D8
:100E4000BCA721EF35E03EA72DA740913A01509174
:100E50003B0160913C0170913D014FA758AB69ABDC
:100E60007AAB34962DE0208331962AE031E031834D
:100E70002083BBAB23EF35E03DAB2CAB379622EFA5
:100E800035E031832083BEAB29EC32E038AF2FABA5
:100E90003597108331962CE431E0318320833296EC
:100EA0002EE331E03183208319AE1BAE1AAEACAF16
:100EB0009EAF8DAFC553DF4F85ED95E09983888355
:100EC000DF91CF911F910895CF93DF93EC010E94A2
:100ED000F40F81E991E09983888382E08A83DF912E
:100EE000CF91089522E133E0FC01318320830895FE
:100EF000EF92FF920F931F93CF93DF9300D000D018
:100F0000CDB7DEB77C0119821A821B821C82DC01FC
:100F1000ED91FC9106A4F7A5E02D8E010F5F1F4F08
:100F200020E032EC41E050E00995D701ED91FC91D1
:100F3000E657FF4F0190F081E02D6CEF72E0C701A2
:100F400009950F900F900F900F90DF91CF911F9107
:100F50000F91FF90EF9008950895089581E090E03B
:100F6000089581E090E0089581E090E0089581E0A7
:100F700090E00895CF93DF931F92CDB7DEB74983FA
:100F8000DC01ED91FC9106A8F7A9E02D9E012F5FF1
:100F90003F4F41E009950F90DF91CF910895FF9267
:100FA0000F931F93CF93DF93EC01F62E8A01F80184
:100FB00041918F01442349F0E881F98100ACF1AD02
:100FC000E02D6F2DCE010995F2CFDF91CF911F91CA
:100FD0000F91FF900895DC01ED91FC9104ACF5AD0B
:100FE000E02D0994DC01ED91FC91EE5BFF4F9A013D
:100FF000442737FD4095542F0190F081E02D09944E
:10100000DC01ED91FC91EC5BFF4F9A0140E050E078
:101010000190F081E02D0994CF92DF92EF92FF9240
:101020000F931F93CF93DF93EC01162F69017A0181
:1010300057FF0FC0E881F98100ACF1ADE02D4DE222
:101040000995F094E094D094C094C11CD11CE11C8B
:10105000F11CE881F981E856FF4F0190F081E02D05
:101060000AE0A7019601612FCE010995DF91CF918A
:101070001F910F91FF90EF90DF90CF9008950F9305
:10108000DC01ED91FC91E856FF4F0190F081E02DDD
:101090000AE009950F9108951F93CF93DF93EC0118
:1010A000162FE881F98100ACF1ADE02D4DE00995F6
:1010B000E881F98100ACF1ADE02D4AE0612FCE016D
:1010C000DF91CF911F9109941F93CF93DF93EC0190
:1010D000162FE881F98100ACF1ADE02D0995E8818A
:1010E000F981E85BFF4F0190F081E02D612FCE0187
:1010F000DF91CF911F9109941F93CF93DF93EC0160
:10110000162FE881F98102ACF3ADE02D0995E88155
:10111000F981E85BFF4F0190F081E02D612FCE0156
:10112000DF91CF911F9109941F93CF93DF93EC012F
:10113000162FE881F98104ACF5ADE02D0995E88121
:10114000F981E85BFF4F0190F081E02D612FCE0126
:10115000DF91CF911F9109941F93CF93DF93EC01FF
:10116000162FE881F98106ACF7ADE02D0995E881ED
:10117000F981E85BFF4F0190F081E02D612FCE01F6
:10118000DF91CF911F9109941F93CF93DF93EC01CF
:10119000162FE881F981EE5BFF4F0190F081E02D81
:1011A0000995E881F981E85BFF4F0190F081E02D1E
:1011B000612FCE01DF91CF911F9109941F93CF939F
:1011C000DF93EC01162FE881F981EC5BFF4F019072
:1011D000F081E02D0995E881F981E85BFF4F0190EE
:1011E000F081E02D612FCE01DF91CF911F91099405
:1011F000FF920F931F93CF93DF93EC01F62EE881BC
:10120000F981EA5BFF4F0190F081E02D0995E881BB
:10121000F981E85BFF4F0190F081E02D6F2DCE0149
:10122000DF91CF911F910F91FF90099481E090E0A1
:10123000089581E090E0089581E090E0089581E0D4
:1012400090E0089581E090E008950895089508954C
:1012500008950895089508950895089508950895A6
:101260000895089508950895089522E133E0FC015A
:10127000318320830C940C290F931F93DC01ED9193
:10128000FC910115110539F400ACF1ADE02D422FB0
:101290001F910F9109940A30110541F4EE5BFF4F45
:1012A0000190F081E02D1F910F910994E856FF4FB6
:1012B0000190F081E02D09951F910F9108952F92D3
:1012C0003F924F925F926F927F928F929F92AF92D6
:1012D000BF92CF92DF92EF92FF920F931F93CF9323
:1012E000DF93CDB7DEB7A0970FB6F894DEBF0FBE81
:1012F000CDBF5C01162FCA01B90121153105410589
:10130000510511F5D501ED91FC9100ACF1ADE02D49
:1013100040E3612FC501A0960FB6F894DEBF0FBE63
:10132000CDBFDF91CF911F910F91FF90EF90DF9094
:10133000CF90BF90AF909F908F907F906F905F9075
:101340004F903F902F900994FE0131964F01C12C90
:10135000D12C76013F01202E312C412C512CFFEF56
:10136000CF1ADF0AEF0AFF0AA20191010E94CA29DF
:10137000D4016D934D01B901CA0161157105810553
:10138000910569F7B1E0CB1AD108E108F108D50160
:10139000ED91FC9100ACF1ADE02DD301AC0DBD1D84
:1013A0004C914A3010F4405D01C0495C612FC50189
:1013B0000995B1E0CB1AD108E108F108EFEFCE169C
:1013C000DE06EE06FE0619F7A0960FB6F894DEBF0D
:1013D0000FBECDBFDF91CF911F910F91FF90EF9086
:1013E000DF90CF90BF90AF909F908F907F906F9045
:1013F0005F904F903F902F900895FC0182E193E021
:10140000918380838EEF8283138280E8878308959F
:101410008CB5411102C0806201C08F7D8CBD80E01F
:1014200090E0089580E090E0089581E090E00895D4
:10143000CF92DF92FF920F931F93CF93DF9300D051
:1014400000D0CDB7DEB76C01F62EDC01ED91FC913A
:10145000E85AFF4F0190F081E02D29833A834B83B6
:101460005C830995D601ED91FC9106A4F7A5E02DCA
:1014700029813A814B815C816F2DC60109950F90BE
:101480000F900F900F90DF91CF911F910F91FF90D0
:10149000DF90CF900895CB01BA010C94281E0C94D4
:1014A000F91D0E94F91D28EE33E040E050E00E9453
:1014B000CA29CA01B90108954F925F927F928F9213
:1014C0009F92AF92BF92CF92DF92EF92FF920F93D3
:1014D0001F93CF93DF931F92CDB7DEB77C016A01D4
:1014E0008901F90110822A0178E0712CA62EB12C15
:1014F00088E0882E912CC2018C199D098A159B05C4
:101500007CF5F20181912F0179830E94A91EF701D8
:1015100061897981662379F3F7012189261BAC0162
:1015200002C0569547952A95E2F79A01A401471BF8
:101530005109042E01C0220F0A94EAF7F801E70DC1
:10154000F11D3081322B3083671710F4761BD3CF17
:10155000671B7394F801E70DF11D108278E0DACF74
:1015600080E090E00F90DF91CF911F910F91FF905D
:10157000EF90DF90CF90BF90AF909F908F907F9033
:101580005F904F900895AF92BF92CF92DF92EF920B
:10159000FF920F931F93CF93DF937901EA0100E04D
:1015A00010E0A62EB12C0A151B05FCF46E0161E0BB
:1015B00089910E94AE1FF80193E0F595E7959A9501
:1015C000E1F7EE0DFF1D608170E0C801877099277B
:1015D00002C0759567958A95E2F76170F601808182
:1015E0000E94E71F0F5F1F4FDECF80E090E0DF918A
:1015F000CF911F910F91FF90EF90DF90CF90BF9010
:10160000AF9008955F926F927F928F929F92AF9268
:10161000BF92CF92DF92EF92FF920F931F93CF93DF
:10162000DF93542E822E1E2D61E0802F0E94AE1F6C
:101630001170FF24F394F1266F2D802F0E94E71F75
:10164000E12CC0E0D0E0912C652C712CC815D90597
:1016500024F5612F802F0E94E71F40E050E04615DF
:101660005705A4F48E2D840F90E0F501E80FF91FC3
:10167000D601A80FB91F8C918EBD00000DB407FED6
:10168000FDCF8EB580834F5F5F4FE9CF6F2D802FE9
:101690000E94E71F2196E50CD9CF80E090E0DF9112
:1016A000CF911F910F91FF90EF90DF90CF90BF905F
:1016B000AF909F908F907F906F905F9008956F9202
:1016C0007F929F92AF92BF92CF92DF92EF92FF9262
:1016D0000F931F93CF93DF931F92CDB7DEB78A018D
:1016E00079013A01B12CA12C28E0C62ED12CC301DE
:1016F000801B910B8C159D05F4F4211108C0F70196
:10170000EA0DF11DB082A394B12C27E001C0215055
:10171000F30191903F0160E0892D29830E94AE1F63
:10172000892D0E941D202981022E01C0880F0A9454
:10173000EAF7B82ADCCFF701EA0DF11DB08280E0AC
:1017400090E00F90DF91CF911F910F91FF90EF905C
:10175000DF90CF90BF90AF909F907F906F90089553
:101760009F92AF92BF92CF92DF92EF92FF920F9330
:101770001F93CF93DF9300D000D0CDB7DEB7162FE5
:10178000842F922EA7019601813029F561E0812FE7
:10179000C9823A834B835C830E94AE1F61E0812F34
:1017A0000E94E71F61E070E080E090E00E94281E48
:1017B00060E0812F0E94E71F61E070E080E090E030
:1017C0000E94281E61E0812F0E94E71F29813A8133
:1017D0004B815C8126C0823021F561E0812FC98276
:1017E0003A834B835C830E94AE1F60E0812F0E948E
:1017F000E71F61E070E080E090E00E94281E61E059
:10180000812F0E94E71F61E070E080E090E00E947D
:10181000281E60E0812F0E94E71F5C814B813A8186
:10182000298160E0892D29833A834B835C830E9460
:10183000AE1F29813A814B815C81011102C060E0B9
:1018400003C0013049F461E0892D0E944620F50172
:10185000608371838283938380E090E00F900F9088
:101860000F900F90DF91CF911F910F91FF90EF900C
:10187000DF90CF90BF90AF909F900895AF92BF92AE
:10188000CF92DF92EF92FF920F931F93CF93DF934C
:101890007901EA018901A62EB12CC8018E199F0990
:1018A0008A159B0574F46E0161E089910E94AE1F58
:1018B000F80161918F0170E0F60180810E94DA1ECB
:1018C000ECCF80E090E0DF91CF911F910F91FF90DE
:1018D000EF90DF90CF90BF90AF9008950E948D0160
:1018E00080E090E0089587539F4FDC01ED91FC91DB
:1018F000E60FF11D8081882319F08F5F808304C07B
:101900008FEE94E00E945A0280E090E008958F925A
:101910009F92AF92BF92CF92DF92EF92FF920F937E
:101920001F93CF93DF93FC01EF53FF4FC081CC2E69
:10193000D12CA0E0B0E0E0E0F0E07C0172ECE70E3A
:10194000F11CEC15FD0584F4E701A880B980AA0E0E
:10195000BB1EE50188809980AA80BB80149628155B
:1019600039054A055B0520F4309721F0319702C014
:101970003196E7CF611125C0EF01CC0FDD1FCC0FF1
:10198000DD1F7C01E2ECEE0EF11CD701ED91FC9124
:10199000EC0FFD1F40815181628173818EE296E0E0
:1019A0000E945321F701A081B181AC0FBD1F8D9121
:1019B0009D910D90BC91A02DE80188839983AA8305
:1019C000BB8380E090E0DF91CF911F910F91FF905A
:1019D000EF90DF90CF90BF90AF909F908F90089541
:1019E000FF920F931F93CF93DF93F42EE8016111C1
:1019F00007C050E0B9018EE296E00E94A5218883DD
:101A000088818F1519F083E890E002C080E090E0B3
:101A1000DF91CF911F910F91FF900895611104C044
:101A20008EE296E00E94592180E090E008953F9276
:101A30004F925F926F927F928F929F92AF92BF92DE
:101A4000CF92DF92EF92FF920F931F93CF93DF938A
:101A5000EC016A018A01A62EB12C7C018BECE80E08
:101A6000F11CC8018C199D098A159B050CF044C016
:101A7000D8013D908D01632C712C4301880C991C79
:101A8000D701ED91FC91E80DF91D80819181892BA1
:101A900041F783E090E00E940A292C010E94B505DD
:101AA000D701ED91FC911197E80DF91D518240820B
:101AB000ED91FC91E80DF91DB301808191810E94A7
:101AC0004F06E881F981E858FF4F0190F081E02D41
:101AD0006CEA73E0CE010995E881F981EC56FF4F7D
:101AE000432D50E060E070E00190F081E02D2AE0AD
:101AF00030E0CE010995B5CF80E090E0DF91CF9145
:101B00001F910F91FF90EF90DF90CF90BF90AF901B
:101B10009F908F907F906F905F904F903F9008952F
:101B20006F927F928F929F92AF92BF92CF92DF92ED
:101B3000EF92FF920F931F93CF93DF93EC015A0123
:101B400069018A01662E712C7C018BECE80EF11C78
:101B5000C8018A199B09861597050CF059C0E881C0
:101B6000F981E858FF4F0190F081E02D6AEC73E0B5
:101B7000CE010995D8018C91E881F981EC57FF4F8E
:101B8000D7012C9111969C91A22FB92FA80FB11DAE
:101B9000A80FB11D4D915C91662757FD6095762F7A
:101BA0000190F081E02D2AE030E0CE010995E88136
:101BB000F981E858FF4F0190F081E02D61ED73E06D
:101BC000CE0109954601E881F981EC56FF4FD60117
:101BD0004D915D916D0160E070E00190F081E02D2C
:101BE0002AE030E0CE010995F80181918F01D401FE
:101BF0006D917C91F70120819181E22FF92FE80FFF
:101C0000F11DE80FF11D808191810E946306A0CF34
:101C100080E090E0DF91CF911F910F91FF90EF90C6
:101C2000DF90CF90BF90AF909F908F907F906F90FC
:101C30000895CF92DF92EF92FF920F931F93CF936D
:101C4000DF937A018A01C62ED12CEC01C553DF4FF8
:101C5000C8018E199F098C159D05E4F4F801808157
:101C600028819981E22FF92FE80FF11DE80FF11D6E
:101C7000808191810E945506F80181918F01288110
:101C80009981E22FF92FE80FF11DE80FF11D118264
:101C90001082DECF80E090E0DF91CF911F910F9115
:101CA000FF90EF90DF90CF900895AF92BF92CF92C8
:101CB000DF92EF92FF920F931F93CF93DF9300D0A9
:101CC00000D0CDB7DEB78C01613091F020F06230EA
:101CD00009F452C069C081E00E94A61EF801428941
:101CE000538964897589468B578B608F718F41C08A
:101CF000FC01EC54FF4FE081EE2309F455C060E095
:101D000070E080E090E0AE2EB12CD801AB54BF4F14
:101D100001C001968A159B050CF049C0ED90FC901E
:101D20001197E60EF71EF701C080D180E280F380A4
:101D30006C5F7F4FC216D306E406F50651F7880F95
:101D4000991FF801E954FF4F0190F081E02DE80F51
:101D5000F91F808129833A834B835C830E94A61EEE
:101D600029813A814B815C81F801268B378B408F2A
:101D7000518F80E090E01DC0FC01E754FF4FC08010
:101D8000D180E280F3802C153D054E055F0578F08B
:101D90003496C080D180E280F380C216D306E40678
:101DA000F50628F080E0D6CF81E890E002C082E816
:101DB00090E00F900F900F900F90DF91CF911F91B7
:101DC0000F91FF90EF90DF90CF90BF90AF9008956C
:101DD0008F929F92AF92BF92DF92EF92FF920F93FA
:101DE0001F93CF93DF9300D000D0CDB7DEB7D62EB0
:101DF00049015A01A801970181149104A104B10479
:101E0000C9F061E08D2DE9823A834B835C830E94A7
:101E1000AE1F29813A814B815C8121153105410535
:101E2000510519F420E030E0A901B4018D2D0E9484
:101E3000C82103C0862F0E944A2480E090E00F90C2
:101E40000F900F900F90DF91CF911F910F91FF9006
:101E5000EF90DF90BF90AF909F908F900895CB014F
:101E6000642F0C94732BCB010C946B2B9CB5937F3C
:101E7000982B9CBD0895413049F030F0423041F03C
:101E8000433049F48CE005C080E003C084E001C029
:101E900088E00E94360F80E090E008952CB5982FDE
:101EA00093702C7F922B9CBD9DB582FB882780F977
:101EB0009E7F982B9DBD08952F923F924F925F92E7
:101EC0006F927F928F929F92AF92BF92CF92DF924A
:101ED000EF92FF920F931F93CF93DF9300D000D028
:101EE00000D0CDB7DEB77C01C12CD12C1E821D8263
:101EF0003C0164EC660E711C4C0175EC870E911C64
:101F00005C0187ECA80EB11CD3018C9190E06D812F
:101F10007E81681779070CF04CC0D401ED91FC91DB
:101F2000B601660F771FE60FF71F208031804280D1
:101F300053802215330544055505A8F0F801208289
:101F40003182428253828D819E81880F991FF701D1
:101F5000E953FF4F0190F081E02DE80FF91F8081D8
:101F60000E944E0F26C001976D817E816817790708
:101F7000B1F4D8012D923D924D925C921397D50108
:101F8000ED91FC91EC0DFD1D808129833A834B83FB
:101F90005C830E944E0F5C814B813A8129816D8167
:101FA0007E816F5F7F4F7E836D8372E0C70ED11C91
:101FB000ABCF80E090E026960FB6F894DEBF0FBE60
:101FC000CDBFDF91CF911F910F91FF90EF90DF90E8
:101FD000CF90BF90AF909F908F907F906F905F90C9
:101FE0004F903F902F9008951F93CF93DF93EC0174
:101FF0000E94FD0989ED93E09983888383E08887B7
:1020000019861A8680E090E00E946B2B182F81E0E1
:1020100090E00E946B2BEF96212F30E0322F222789
:10202000282B39832883DF91CF911F910895EF9258
:10203000FF920F93CF93DF931F92CDB7DEB7642F3C
:102040008FEE94E029830E946402402F50E0B70194
:102050008FEE94E00E94EE012981211102C061E01F
:1020600003C0213041F460E08FEE94E00E946E02E4
:1020700080E090E007C061E08FEE94E00E946E0285
:1020800081E890E00F90DF91CF910F91FF90EF905A
:1020900008954F925F926F927F928F929F92AF922C
:1020A000BF92CF92DF92EF92FF920F931F93CF9345
:1020B000DF93642F211102C021E003C0213099F584
:1020C00020E0402F8FEE94E00E94D2020E94F91D82
:1020D0004B015C0110E02701612C712C8FEE94E024
:1020E0000E94C3018017910774F40E94F91D6819BA
:1020F00079098A099B09461657066806790670F71A
:1021000083E890E012C0E601CE018C199D0980178A
:10211000910734F48FEE94E00E94CB018993F4CFC1
:1021200080E090E002C081E890E0DF91CF911F91C4
:102130000F91FF90EF90DF90CF90BF90AF909F9066
:102140008F907F906F905F904F900895CF93DF9323
:10215000EA01611105C08EE296E00E949C2088830E
:1021600080E090E0DF91CF910895611106C050E0CA
:10217000B9018EE296E00E94B92080E090E00895D7
:10218000CF93DF93EC018A819B81DC01ED91FC917F
:10219000E85AFF4F0190F081E02D6885099518AA53
:1021A0001FA680E090E0DF91CF9108958FEF9FEF21
:1021B0000895CF93DF93EC018FA598A98430910502
:1021C00041F17CF4892B09F040C0E881F9816A81F2
:1021D0007B810088F189E02D4885CE01DF91CF9188
:1021E000099485309105D9F0069779F58A819B810C
:1021F000DC01ED91FC91E657FF4F0190F081E02D5D
:1022000061E874E00995E881F9810484F585E02DA1
:1022100018C0E881F9810084F185E02D12C08A811F
:102220009B81DC01ED91FC91E657FF4F0190F0811D
:10223000E02D63E774E00995E881F9810284F38574
:10224000E02DCE01DF91CF910994DF91CF910895D8
:10225000DF92EF92FF920F931F93CF93DF9300D003
:1022600000D0CDB7DEB77C018B01D42EDC011396F4
:102270007C936E931297FB01878190E00E943F2A26
:10228000D7011A969C938E931997F801878190E055
:102290000E943F2AD7011C969C938E931B97D801CE
:1022A000ED91FC91E657FF4F0190F081E02D6EE833
:1022B00074E0C8010995F701D08619821A821B8241
:1022C0001C8282819381DC01ED91FC9106A4F7A52B
:1022D000E02D8E010F5F1F4F20E835E240E050E017
:1022E0006D2D099584E090E0F70190AB87A70F90E2
:1022F0000F900F900F90DF91CF911F910F91FF9052
:10230000EF90DF900895EF92FF920F931F93CF937A
:10231000DF9300D0CDB7DEB77C011A82DC011296C4
:102320008D919C911397DC01ED91FC9102A8F3A98A
:10233000E02DAE014E5F5F4FD70118966C91099565
:102340008A81823008F431C11982F7018281938138
:10235000DC01ED91FC91D70119962D913C911A97D2
:1023600004A8F5A9E02D8E010F5F1F4F42E01896DB
:102370006C910995D7011996ED91FC911A972081DE
:1023800012968D919C911397DC01ED91FC9102A81E
:10239000F3A9E02DAE014E5F5F4FD70118966C9107
:1023A0002F3F09F0EBC009952A8130E0D70119963B
:1023B000ED91FC911A97818190E0029728173907D7
:1023C00034F1F701828193810184F285E02DDC01F3
:1023D0006D917C919F012E5F3F4F41814250DB0107
:1023E000D496ED91FC91D5978E010F5F1F4FD701C9
:1023F00018966C910995F70161857285C7010E9455
:102400006513F701A281B38181115AC0A4C005E60A
:1024100010E02A8130E0D7011996ED91FC911A97CE
:10242000818190E00297281739075CF6D701129650
:102430008D919C911397DC01ED91FC9102A8F3A979
:10244000E02DAE014E5F5F4FD70118966C91099554
:1024500001501109F70182819381DC01ED91FC911A
:102460000115110511F502A8F3A9E02DAE014E5F8B
:102470005F4FD70118966C910995F701828193817E
:10248000DC01ED91FC91D70119962D913C911A97A1
:1024900004A8F5A9E02D8E010F5F1F4F4A81189601
:1024A0006C9109958FEF9FEF8EC0E259FF4F01901D
:1024B000F081E02D41E050E060E070E00995A9CFA7
:1024C000ED91FC911197CF018A569F4FF7014185FD
:1024D0005285FC012081318161E0CD01F90109952E
:1024E000D7011B964D915C911C9719966D917C912B
:1024F0001A97C7010E94C613049729F485E090E05B
:10250000F70190AB87A7D70112968D919C911397F5
:10251000DC01ED91FC91EA56FF4FD7011B964D91DE
:102520005C911C970190F081E02D60E00995F70126
:1025300082819381A385B485FC0120813181F901D9
:1025400006A917A99D0111964C91D70118966C9177
:10255000F801099536C0ED91FC91119722A933A994
:10256000AE014E5F5F4FF7016085CD01F90109951E
:10257000D70112968D919C91139704C00995F7018C
:1025800082819381DC01ED91FC91D70119962D9107
:102590003C911A9704A8F5A9E02D8E010F5F1F4FFB
:1025A0004A8118966C9109950CC0D7019D96ED91C2
:1025B000FC919E97309729F060E070E080E090E019
:1025C000099580E090E00F900F90DF91CF911F91DF
:1025D0000F91FF90EF900895CF93DF93EC010E944D
:1025E0004D1388EA94E09983888318AA1FA61F8256
:1025F0001E82DF91CF91089584EF95E00C94EC1248
:102600008FEF9FEF08958FEF9FEF08958FEF9FEF6C
:1026100008958FEF9FEF08958FEF9FEF08958FEF4D
:102620009FEF08958FEF9FEF0895CF93DF93DC0125
:102630001496CD91DC911597C430D105B9F054F4BE
:10264000209729F5DC01ED91FC910190F081E02DBE
:1026500009951FC0C530D10581F02697C1F4DC0172
:10266000ED91FC910484F585E02D0DC0DC01ED9128
:10267000FC910084F185E02D06C0DC01ED91FC9118
:102680000284F385E02D0995C0E0D0E002C0C0E8E7
:10269000D0E0CE01DF91CF9108952CEC34E0FC0125
:1026A00031832083158214820895FB01218130E05B
:1026B0002150310980E0AF01461B570B42175307E9
:1026C0001CF49191890FF7CF0895CF93DF93EB011D
:1026D0000E9455139981C90FD11D219791E028813E
:1026E000821390E0892FDF91CF9108950F931F936C
:1026F000CF93DF93FA014FEF408346E0420F4183CF
:10270000DB0112964C911297428313964C914383AE
:102710000F3F110509F010F4048302C043E0448325
:10272000E9012596CE0FDF1FBF010E945513888354
:10273000DF91CF911F910F9108950F931F938901FE
:1027400020E030E00E9476131F910F910895EF92E0
:10275000FF920F931F93CF93DF93D901EA01259640
:10276000F901202F30E08F010A1B1B0B0217130702
:102770001CF411911993F7CF87010E947613DF9112
:10278000CF911F910F91FF90EF9008952F923F925C
:102790004F925F926F927F928F929F92AF92BF9271
:1027A000CF92DF92EF92FF920F931F93CF93DF931D
:1027B00000D000D000D0CDB7DEB73C014B012A01DC
:1027C0002DB63EB6DB0114962C91149730E0322FD3
:1027D000222715968C91282B2115BCEF3B07C0F0C2
:1027E0001982F901FC5FEE0FFF1FE60DF71D9A013C
:1027F0002B5F3F4F6A5F7F4FD40111968C91058408
:10280000F685E02DAE014F5F5F4F8750099566C793
:102810002432310509F4D1C508F007C12231310550
:1028200009F4D4C208F07BC02A30310509F488C20B
:1028300008F04FC02530310509F44EC258F423305A
:10284000310509F41BC208F02AC2232B09F4F1C791
:102850000C94871D2830310509F45CC208F065C26C
:102860002630310511F00C94871DFB01208530E0E6
:10287000322F2227442737FD4095542F8185282B5E
:1028800019821A821B821C82D30112968D919C910F
:102890001397DC01ED91FC9100A8F1A9E02D8E01C8
:1028A0000F5F1F4FD30118966C9109957C01F301BE
:1028B00082819381DC01ED91FC91E259FF4F0190FF
:1028C000F081E02D48EE53E060E070E009950C9453
:1028D000801DF301A281B3812E30310509F44DC270
:1028E00078F42C30310509F436C208F03DC29796D1
:1028F0002D913C919897E12CF12C96960C9167C5FF
:102900002031310509F442C208F049C2D7962D9111
:102910003C91D897E12CF12CD6960C9158C52A31D0
:10292000310509F4ADC380F5D30112968D919C91C8
:1029300013972631310509F4FAC290F42431310598
:1029400009F47CC208F0D1C2FC01FF968181FA0132
:102950008583D3011296ED91FC91139787AD67C2E1
:102960002831310509F411C308F065C3FC01EB5BA4
:10297000FF4F8181FA018583D3011296ED91FC917D
:102980001397EB5BFF4F52C22E31310509F429C476
:10299000B8F4F301828193812C31310509F4A3C38A
:1029A00008F0FDC3FC01E55BFF4F8181FA018583DF
:1029B000D3011296ED91FC911397E55BFF4F36C260
:1029C0002032310509F438C408F427C42232310515
:1029D00009F493C42332310511F00C94871DD301FF
:1029E0001296ED91FC911397E055FF4F8381FA0108
:1029F00085831296ED91FC911397E055FF4F8281EC
:102A0000DA0116968C93D3011296ED91FC911397EF
:102A1000E055FF4F8181FA0187831296ED91FC9179
:102A20001397E055FF4F808191C5213E310509F490
:102A300079C608F0ACC02436310509F494C508F015
:102A400069C02334310509F407C5B0F421343105D8
:102A500009F4C3C408F0D7C42532310511F00C9431
:102A6000871DD3011296ED91FC91139725AD36ADDC
:102A7000E12CF12C04ADABC42036310509F425C599
:102A80002136310509F445C52434310511F00C9483
:102A9000871DF30182819381DC01ED91FC91DB01C3
:102AA0001A962C911A971B96CC901B97D12CE12C3F
:102AB000F12C7601DD24CC24F22A1D962C911D9751
:102AC000C22A1C962C911C97D22A0488F589E02DE5
:102AD0009E012F5F3F4F590119960C911997169639
:102AE0002C91169718964C91189717966C910995FA
:102AF0007C0189819A812B813C81D20115963C937E
:102B0000159716962C93169717969C9317971896C9
:102B10008C93C3C6223C310509F4ADC500F5203CB9
:102B2000310509F460C508F079C52338310509F08D
:102B3000EEC7F30182819381DB0116966C91DC0173
:102B4000ED91FC91262F30E0295F3F4F280D391D74
:102B5000A401495F5F4F0688F789E02D42C5243CF8
:102B6000310509F4BEC508F4A0C5253C310509F4BA
:102B7000CDC5203E310509F0CAC7F301828193819A
:102B8000DC01ED91FC9104A0F5A1E02D2CC62730CD
:102B9000F1E03F0709F485C6D8F5211591E0390722
:102BA00009F426C6B0F4233E310509F4F4C508F44F
:102BB000D4C5243E310509F0AAC7D30112968D91E0
:102BC0009C911397DC01ED91FC9104A4F5A5E02DF7
:102BD0000AC62230B1E03B0709F42EC608F419C634
:102BE0002330314009F093C7D30112968D919C9107
:102BF0001397DC01ED91FC91068CF78DE02DDB0144
:102C000017964C91179716966C9109957C0145C6BD
:102C1000203681E0380709F402C7B8F42134A1E076
:102C20003A0709F476C62234B1E03B0709F4E3C65B
:102C30002034314009F06BC7F30182819381DC01BC
:102C4000ED91FC91E65AFF4FDEC62236F1E03F07D8
:102C500009F422C708F4FDC6233691E0390709F4C8
:102C600042C72436314009F052C7F3018281938173
:102C7000DC01ED91FC91E859FF4F3DC7D30112965D
:102C8000ED91FC9113978281FA0185831296ED9163
:102C9000FC9113978381DA0116968C93CAC0D301F5
:102CA0001296ED91FC9113978085FA018583129617
:102CB000ED91FC9113978185DA0116968C93D301DF
:102CC0001296ED91FC9113978285FA01878300E0BB
:102CD00010E023E030E041C4D3011296ED91FC9165
:102CE000139782A9FA0185831296ED91FC911397AF
:102CF00081A9DA0116968C93D3011296ED91FC917D
:102D0000139780A9FA0187831296ED91FC9113978E
:102D100087A51CC4D3011296ED91FC9113972485CD
:102D20003585E12CF12C038552C3D3011296ED9128
:102D3000FC91139727853089E12CF12C068547C338
:102D4000D3011296ED91FC911397238D348DE12CD4
:102D5000F12C028D3CC39A962D913C919B97E12CCE
:102D6000F12C99960C9133C39D962D913C919E9791
:102D7000E12CF12C9C960C912AC3D4962D913C9178
:102D8000D597E12CF12CD3960C9121C3DA962D9195
:102D90003C91DB97E12CF12CD9960C9118C3ED9165
:102DA000FC911197E657FF4F0190F081E02D6AEBFF
:102DB00074E0CD01099520E030E0A201B401C30127
:102DC0000E949D13E4E0EE2EF12CAAC6F30182814D
:102DD0009381FC01FF96DB0116962C91169730E04B
:102DE000322F222717964C91242B31832083DC012C
:102DF000ED91FC91E059FF4F0190F081E02DD4015D
:102E000016964C9160E070E00995F3018281938100
:102E1000DC01ED91FC91E059FF4F0190F081E02D34
:102E2000D40117964C9161E070E05DC08081F201A1
:102E3000868300E010E022E030E08FC3FC01EF5B0E
:102E4000FF4FDB0118964C91189750E0542F442700
:102E500019962C91422B662757FD6095762F40835B
:102E6000518362837383DC01ED91FC91E059FF4F44
:102E70000190F081E02DD40116964C9162E070E053
:102E80000995F30182819381DC01ED91FC91E05978
:102E9000FF4F0190F081E02DD40117964C9163E033
:102EA00070E00995F30182819381DC01ED91FC9141
:102EB000E059FF4F0190F081E02DD40118964C911C
:102EC00064E070E00995F30182819381DC01ED916A
:102ED000FC91E059FF4F0190F081E02DD40119964B
:102EE0004C9165E070E00995A4C4FC01EF5BFF4FD5
:102EF0008381FA018583D3011296ED91FC9113979A
:102F0000EF5BFF4F8281FA0186831296ED91FC916F
:102F10001397EF5BFF4F8181DA0117968C93D301F2
:102F20001296ED91FC911397EF5BFF4FA5C0FC014A
:102F3000EB5BFF4FDB0116962C91169730E0322F9A
:102F4000222717964C91242B31832083DC01ED91AD
:102F5000FC91E059FF4F0190F081E02DDB011696C6
:102F60004C9166E070E00995F30182819381DC0168
:102F7000ED91FC91E059FF4F0190F081E02DD401DB
:102F800017964C9167E070E0AECFFC01E95BFF4F14
:102F9000DB0118964C91189750E0542F442719964E
:102FA0002C91422B662757FD6095762F40835183E5
:102FB00062837383DC01ED91FC91E059FF4F019036
:102FC000F081E02DD40116964C9168E070E00995EF
:102FD000F30182819381DC01ED91FC91E059FF4F77
:102FE0000190F081E02DD40117964C9169E070E0DA
:102FF0000995F30182819381DC01ED91FC91E05907
:10300000FF4F0190F081E02DD40118964C916AE0B9
:1030100070E00995F30182819381DC01ED91FC91CF
:10302000E059FF4F0190F081E02DD40119964C91A9
:103030006BE070E058CFFC01E95BFF4F8381FA0140
:103040008583D3011296ED91FC911397E95BFF4FB5
:103050008281FA0186831296ED91FC911397E95BC8
:10306000FF4F8181DA0117968C93D3011296ED916F
:10307000FC911397E95BFF4F8081F201808769C261
:10308000D30112968D919C911397FC01E55BFF4F44
:10309000DB0116962C91169730E0322F22271796D7
:1030A0004C91242B31832083DC01ED91FC91E0597C
:1030B000FF4F0190F081E02DDB0116964C916CE002
:1030C00070E00995F30182819381DC01ED91FC911F
:1030D000E059FF4F0190F081E02DD40117964C91FB
:1030E0006DE070E000CFDB0116962C91FC01E35BF4
:1030F000FF4F213278F020E22083F3018281938117
:10310000DC01ED91FC91E059FF4F0190F081E02D41
:1031100040E20FC02083F30182819381DC01ED91B5
:10312000FC91E059FF4F0190F081E02DDB011696F4
:103130004C916EE070E009957401B7E0EB0EF11C64
:1031400000E010E0D30112968D919C911397FC0141
:10315000E35BFF4F208130E0021713070CF069C3D7
:10316000D701800F911F9C01225B3F4FF701819196
:103170007F01F9018083F30182819381FC01208129
:103180003181F901E059FF4FB801615F7F4F019034
:10319000F081E02D4C9109950F5F1F4FD3CFFC01BB
:1031A000E35BFF4F8081FA018583369680E090E0F3
:1031B000D30112964D915C911397DA01A35BBF4F37
:1031C0002C9130E0821793074CF4480F591FDA0115
:1031D000A25BBF4F2C9121930196EACF00E010E053
:1031E000BCC1D3011296ED91FC911397DB011696A9
:1031F0008C91E259FF4F8083F30182819381DC013E
:10320000ED91FC91E059FF4F0190F081E02DDB0141
:1032100016964C9160E370E066CED3011296ED9164
:10322000FC911397E259FF4F8081FA01858300E0FA
:1032300010E021E030E091C1DB0116962C91F30102
:1032400082819381FC01E159FF4F213488F020E411
:103250002083D30112968D919C911397DC01ED91FF
:10326000FC91E059FF4F0190F081E02D40E40FC048
:103270002083F30182819381DC01ED91FC91E0597F
:10328000FF4F0190F081E02DDB0116964C9161E338
:1032900070E009957401B7E0EB0EF11C00E010E05E
:1032A000D30112968D919C911397FC01E159FF4F28
:1032B000208130E0021713070CF0BBC2D701800F4A
:1032C000911F9C0120593F4FF70181917F01F90126
:1032D0008083F30182819381FC0120813181F90196
:1032E000E059FF4FB8016E5C7F4F0190F081E02DF7
:1032F0004C9109950F5F1F4FD3CFF30182819381CA
:10330000FC01E055FF4FDB0116962C91169717969E
:103310004C91179750E060E070E0BA0155274427C0
:10332000722B19962C911997422B18962C91522B8F
:103330004083518362837383DC01ED91FC91E059FA
:10334000FF4F0190F081E02DD40116964C9162E779
:1033500070E00995F30182819381DC01ED91FC918C
:10336000E059FF4F0190F081E02DD40117964C9168
:1033700063E770E00995F30182819381DC01ED91AF
:10338000FC91E059FF4F0190F081E02DD401189697
:103390004C9164E770E00995F30182819381DC012F
:1033A000ED91FC91E059FF4F0190F081E02DD401A7
:1033B00019964C9165E770E096CDD3011296ED9188
:1033C000FC91139725813681E12CF12C0481A20117
:1033D000B401C3010E94A713A3C3F30182819381A7
:1033E000DB0116966C91DC01ED91FC91262F30E00B
:1033F000295F3F4F280D391DA401495F5F4F0284AB
:10340000F385E02DEEC0FB011181D30112968D9161
:103410009C911397DC01ED91FC919A012B5F3F4F3A
:10342000AB014A5F5F4F69EF610F0684F785E02DBE
:1034300009957C01212F30E02850310953E0359562
:1034400027955A95E1F72F5F30E08701A201B4017B
:10345000C3010E94761364C3F30182819381DC016E
:10346000ED91FC91DB011B96EC901B974E2D50E0EB
:1034700060E070E0142F0027FF24EE241E962C91AC
:103480001E97E22A1D964C911D9750E0542F442719
:10349000662757FD6095762FE42AF52A062B172B11
:1034A00019962C91199730E0322F2227442737FDA7
:1034B0004095542F1A966C911A97262B0288F389FF
:1034C000E02D16966C9109951AC3F30182819381C0
:1034D000DC01ED91FC91DB0117966C911797189622
:1034E0002C911897022F10E020E030E0A80133273C
:1034F0002227562B1A966C911A97262B19966C91A7
:103500001997362B0084F185E02D16966C9109955C
:10351000F6C2D3011296ED91FC911397818DFA01B9
:1035200085831296ED91FC911397808DDA011696A2
:103530008C93D3011296ED91FC9113978789FA0130
:1035400087831296ED91FC9113978689D201189684
:103550008C9300E010E024E030E0A201B401C3014C
:103560000E947613DBC2D3011296ED91FC91139762
:103570008189FA01858312968D919C911397DC01C4
:10358000ED91FC91DB0111966C9167500480F581FF
:10359000E02D9A012A5F3F4FA4014A5F5F4F0995D2
:1035A0007C01F401818190E00797D3011296ED919F
:1035B000FC9113972189289FA001299F500D112468
:1035C000CA0123E0969587952A95E1F7282F477041
:1035D0005527452B11F021E0280F30E02F5F3F4F9A
:1035E00034CF09958CC2FB01218530E0322F222790
:1035F000442737FD4095542F8285282B19821A8243
:103600001B821C82D30112968D919C911397DC0131
:10361000ED91FC9106A4F7A5E02D1BC0DB011996E6
:103620002C91199730E0322F2227442737FD4095FF
:10363000542F1A968C91282B19821A821B821C8275
:10364000F30182819381DC01ED91FC9100A8F1A945
:10365000E02D8E010F5F1F4FD40116966C910995D6
:103660007C0189819A812B813C81F20135832683FB
:103670009783808712C1D30112968D919C911397E5
:10368000DC01ED91FC9102A8F3A9E02DAE014F5FA2
:103690005F4FDB0116966C9109957C018981F201DF
:1036A0008583870121E030E0D1CE1982D3011296C3
:1036B0008D919C911397DC01ED91FC919A012B5F08
:1036C0003F4F04A8F5A9E02D8E010F5F1F4FDB01CE
:1036D00017964C91179716966C9109957C01298144
:1036E000B3CEF30182819381DC01ED91FC919B01CA
:1036F000295F3F4FDB0111964C911197485006A866
:10370000F7A9E02D16966C910995F9C1F301828114
:103710009381DC01ED91FC91E85AFF4F0190F0811B
:10372000E02D61C0FB01218530E0322F22274427A4
:1037300037FD4095542F8285282B19821A821B82CF
:103740001C82D30112968D919C911397DC01ED910F
:10375000FC9106A0F7A1E02D7CCFD30112968D91AC
:103760009C911397DC01ED91FC917B01B9E0EB0E8C
:10377000F11CDB0111960C9111970A5000A4F1A5E0
:10378000E02D18962C91189717964C91179716962E
:103790006C910995B4C1F30182819381DC01ED91B3
:1037A000FC916A01B5E0CB0ED11CDB011996EC90BF
:1037B0001997F12CFE2CEE241A962C911A97E22AD6
:1037C00002A4F3A5E02D18960C9118971B962C9146
:1037D0001B9717964C91179716966C9109957C013B
:1037E000F401208531CED40116966C91099587C1DC
:1037F000F30182819381DC01ED91FC91028CF38DC8
:10380000E02DDB0116966C9109957C0120E030E0FB
:1038100078C1F30182819381DC01ED91FC91048CEC
:10382000F58DE02DDB0117964C91179716966C914C
:10383000099520E030E06DC1FB0187812085422F92
:1038400050E060E070E033272227582B8285282B38
:103850008185382B19821A821B821C82D301129611
:103860008D919C911397DC01ED91FC9100A0F1A149
:10387000E02D8E010F5F1F4FD40116966C910995B4
:103880007C0189819A812B813C81F20135832683D9
:103890009783808700E010E001C0870124E030E0DA
:1038A000D5CDD3011296ED91FC911397DB011796BC
:1038B0004C91008111815201B5E0AB0EB11C6B013E
:1038C0002AE0C20ED11CDB0111968C9190E00B977F
:1038D000642F70E00E94B629262FD80192960D9091
:1038E000BC91A02DBE83AD83D4011996EC9019979D
:1038F00018960C91189716966C91CF01ED81FE8168
:1039000009957C01D40111962C9130E02B5031099E
:103910009CCDADB6BEB6DB011696EC91F0E0CF01C2
:10392000880F991F2DB73EB7281B390B0FB6F89497
:103930003EBF0FBE2DBF0DB71EB70F5F1F4FE60F67
:10394000F71F3896B80180E090E0D40116962C91CC
:1039500030E0821793078CF49F0121503109D9017F
:103960002C9130E0322F22274081242BDB012D9334
:103970003D93BD0101963296E8CF6801E12CF12C10
:10398000F4016681262F30E0D30112968D919C912F
:103990001397E216F306ACF4F601419151916F01D1
:1039A000DC01ED91FC91EC56FF4F60E070E001907E
:1039B000F081E02D2AE030E00995BFEFEB1AFB0A19
:1039C000DFCFDC01ED91FC91E45AFF4FA401495F88
:1039D0005F4F0190F081E02D980109957C019C01D9
:1039E000A201B401C3010E949D130FB6F894BEBE9C
:1039F0000FBEADBE95C0F30182819381DC01ED91D4
:103A0000FC91E25AFF4FA4014A5F5F4FD401119627
:103A10006C9167500190F081E02D099570C0F30121
:103A200082819381DC01ED91FC91E05AFF4FDB0133
:103A300016966C91169770E0762F662717962C9144
:103A40001797622B0190F081E02D18964C91099503
:103A500056C0F30182819381DC01ED91FC91EE5916
:103A6000FF4FDB0116966C91169770E0762F662754
:103A700017962C911797622B0190F081E02D1B96E1
:103A8000EC901B971A960C911A9719962C911997EE
:103A900018964C91099533C0F30182819381DC0122
:103AA000ED91FC91EC59FF4F9B01255F3F4FDB01EE
:103AB00018964C91189750E0542F442719966C9102
:103AC0001997462B16966C91169770E0762F6627FD
:103AD00017961C911797612B0190F081E02D1A9693
:103AE0000C9109950CC0F30182819381DC01ED9169
:103AF000FC91EA59FF4F0190F081E02D09957C017E
:103B00009701A201B401C3010E949D1309C021E0E5
:103B100030E0A201B401C3010E949D13E12CF12CFD
:103B2000C7010FB6F8943EBE0FBE2DBE26960FB647
:103B3000F894DEBF0FBECDBFDF91CF911F910F91E3
:103B4000FF90EF90DF90CF90BF90AF909F908F90BD
:103B50007F906F905F904F903F902F9008951F92AD
:103B60000F920FB60F9211242F933F938F939F9331
:103B7000AF93BF938091260690912706A0912806C7
:103B8000B09129063091250623E0230F2D3720F42C
:103B90000196A11DB11D05C026E8230F0296A11DA7
:103BA000B11D209325068093260690932706A093A7
:103BB0002806B093290680912A0690912B06A091A1
:103BC0002C06B0912D060196A11DB11D80932A06E9
:103BD00090932B06A0932C06B0932D06BF91AF9126
:103BE0009F918F913F912F910F900FBE0F901F903B
:103BF00018952FB7F894609126067091270680914A
:103C00002806909129062FBF08953FB7F894809118
:103C10002A0690912B06A0912C06B0912D0626B570
:103C2000A89B05C02F3F19F00196A11DB11D3FBFF4
:103C30006627782F892F9A2F620F711D811D911D84
:103C400042E0660F771F881F991F4A95D1F70895A4
:103C5000CF92DF92EF92FF92CF93DF936B017C01C3
:103C60000E94051EEB01C114D104E104F10489F0A6
:103C70000E940E290E94051E6C1B7D0B683E73403E
:103C800090F381E0C81AD108E108F108C851DC4F6F
:103C9000EACFDF91CF91FF90EF90DF90CF90089522
:103CA000789484B5826084BD84B5816084BD85B517
:103CB000826085BD85B5816085BDEEE6F0E08081DE
:103CC00081608083E1E8F0E01082808182608083FF
:103CD000808181608083E0E8F0E080818160808382
:103CE000E1E9F0E08081826080838081816080836F
:103CF000E0E9F0E0808181608083E1ECF0E08081A8
:103D00008460808380818260808380818160808301
:103D1000E3ECF0E0808181608083E0ECF0E0808182
:103D200082608083E2ECF0E0808181608083EAE75A
:103D3000F0E08081846080838081826080838081E4
:103D4000816080838081806880830895809368018A
:103D50000895823108F08251E82FF0E0E851FF4FDA
:103D6000E49180917B00E3FB222720F930E095E08D
:103D7000220F331F9A95E1F78F7D822B80937B0072
:103D8000E7708091680120E4829FC0011124E82B34
:103D9000E0937C0080917A00806480937A00809127
:103DA0007A0086FDFCCF809178002091790090E028
:103DB000922B08951F93CF93DF93182FEB0161E0AF
:103DC0000E94AE1F209711F460E004C0CF3FD105E0
:103DD00039F461E0812FDF91CF911F910C94E71F9F
:103DE000E12FF0E0EC50FF4F449150E0FA013197A1
:103DF000EF30F10508F06CC0EA5AFF4F0C940B2A23
:103E000084B5806884BDC7BD68C084B5806284BD48
:103E1000C8BD63C080918000806880938000D0938B
:103E20008900C093880059C080918000806280938F
:103E30008000D0938B00C0938A004FC08091800097
:103E4000886080938000D0938D00C0938C0045C023
:103E500080919000806880939000D0939900C093E7
:103E600098003BC080919000806280939000D09336
:103E70009B00C0939A0031C080919000886080932D
:103E80009000D0939D00C0939C0027C08091C000FB
:103E900080688093C0008091C0008F7B8093C000B9
:103EA000C093CF001AC08091C00080628093C00090
:103EB000C093D00012C08091C20088608093C2007D
:103EC0008091C2008B7F8093C200C093D20005C056
:103ED000C038D1050CF07DCF77CFDF91CF911F9106
:103EE000089590E0FC013197EF30F105B0F5EB5902
:103EF000FF4F0C940B2A809180008F7703C0809134
:103F000080008F7D80938000089580918000877F5E
:103F1000F9CF84B58F7702C084B58F7D84BD0895B5
:103F2000809190008F7707C0809190008F7D03C0B3
:103F300080919000877F8093900008958091C000C9
:103F40008F7703C08091C0008F7D8093C00008955B
:103F50008091C200877F8093C2000895CF93DF9342
:103F600090E0FC01ED5EFE4F2491FC01EE5CFE4F03
:103F70008491882349F190E0880F991FFC01E3594F
:103F8000FE4FA591B491815A9E4FFC01C591D491E9
:103F90009FB7611108C0F8948C91209582238C936F
:103FA000888182230AC0623051F4F8948C91322FB8
:103FB000309583238C938881822B888304C0F89466
:103FC0008C91822B8C939FBFDF91CF9108950F939B
:103FD0001F93CF93DF931F92CDB7DEB7282F30E02A
:103FE000F901EC50FF4F8491F901ED5EFE4F149101
:103FF000F901EE5CFE4F04910023C9F0882321F003
:1040000069830E94711F6981E02FF0E0EE0FFF1FAE
:10401000E15AFE4FA591B4919FB7F8948C9161112C
:1040200003C01095812301C0812B8C939FBF0F90FB
:10403000DF91CF911F910F910895CF93DF93282F98
:1040400030E0F901EC50FF4F8491F901ED5EFE4F35
:10405000D491F901EE5CFE4FC491CC2391F0811113
:104060000E94711FEC2FF0E0EE0FFF1FEF5AFE4F82
:10407000A591B4912C912D2381E090E021F480E072
:1040800002C080E090E0DF91CF9108950F931F93DD
:10409000762F90E0FC01ED5EFE4F6491FC01EE5C3A
:1040A000FE4FE4917111762FF0E0EE0FFF1FEF5AF3
:1040B000FE4F8591949189019A013F70472F0E948C
:1040C0002F01611571058105910531F06F5F7F4FFB
:1040D0008F4F9F4F9F7003C060E070E0CB011F9136
:1040E0000F910895CF93DF931F92CDB7DEB7698309
:1040F000DC01ED91FC910280F381E02D41E050E084
:10410000BE016F5F7F4F09950F90DF91CF910895AA
:10411000CF93DF93EC018C859D8597FF05C082E0EE
:104120000E94D9259D878C878C859D85DF91CF91B5
:10413000089583E00C945428FC018485958597FDAF
:1041400006C082E00E94812590E00196089582E0F9
:104150000E94812590E00895FC018485958597FD56
:1041600005C02FEF3FEF35872487089582E00C9438
:10417000D925CF93DF93EC0180917401882331F02E
:1041800083E00E940A261816190634F081E090E0B8
:104190009B838A8380E090E0DF91CF910895FC01BA
:1041A00020812E5F208342E450E06BE771E080E8DD
:1041B0000C94A526FC0121818081813A59F4213299
:1041C00009F05CC047E050E06DE671E080E00E94DD
:1041D000A52667C0813209F051C0233289F483815A
:1041E00090E0982F88273281832BA0E0B0E0809365
:1041F000690190936A01A0936B01B0936C010FC0A9
:10420000203239F467E070E08DE691E00E94D62616
:104210000AC0223221F482818093740104C02D7F70
:10422000203209F03EC080916D0190916E01A09105
:104230006F01B0917001803B9440A105B10501F57B
:104240008091740180FD1CC080910008909101084C
:104250009093FF0A8093FE0A87E797E790930108FF
:10426000809300082BE088E190E00FB6F894A895C1
:10427000809360000FBE2093600013C080E008951B
:1042800088E10FB6F89480936000109260000FBE32
:10429000A8958091FE0A9091FF0A9093010880935F
:1042A000000881E008952FEF3FEFFC013587248758
:1042B00008950895109231061092300688EE93E02A
:1042C000A0E0B0E08093320690933306A0933406CA
:1042D000B093350680EE94E090932F0680932E06DF
:1042E0008FEF9FEF90933B0680933A0608950F93CC
:1042F0001F93CF93DF93EC010E94F91D68877987A4
:104300008A879B87E881F9810680F781E02DCE01BD
:10431000099597FF15C00E94F91D088519852A8502
:104320003B85601B710B820B930B0C811D812E81D1
:104330003F81601771078207930720F38FEF9FEF8C
:10434000DF91CF911F910F910895CF92DF92EF925D
:10435000FF920F931F93CF93DF937C016A01EB01D0
:1043600000E010E00C151D0549F0C7010E947721FF
:1043700097FD04C089930F5F1F4FF4CFC801DF91F1
:10438000CF911F910F91FF90EF90DF90CF90089504
:104390003F924F925F926F927F928F929F92AF92D5
:1043A000BF92CF92DF92EF92FF920F931F93CF9322
:1043B000DF9300D000D0CDB7DEB78B0129013A01E1
:1043C00090917501981721F09F3F09F025C204C014
:1043D000EDEBF1E03490AEC080937501EDEBF1E0D0
:1043E000E491EF3F09F418C2E13009F452C01CF522
:1043F000E1119FC014BC15BC94B5926094BD95B5F5
:10440000916095BD282F30E0F901EE5CFE4FE491FC
:10441000F0E0EE0FFF1FE15AFE4F4591549150938B
:10442000950640939406F901ED5EFE4F249120938A
:104430009306312C81C0E33009F453C0E43009F015
:1044400078C01092C0001092C1009091C100986095
:104450009093C1009091C10091609093C100282F6A
:1044600030E0F901EE5CFE4FE491F0E0EE0FFF1F4B
:10447000E15AFE4F459154915093800640937F0638
:10448000F901ED5EFE4F249120937E0654E0352E17
:1044900053C010928000109281009091810098602A
:1044A0009093810090918100916090938100282FDA
:1044B00030E0F901EE5CFE4FE491F0E0EE0FFF1FFB
:1044C000E15AFE4F4591549150938E0640938D06CC
:1044D000F901ED5EFE4F249120938C063324339432
:1044E0002BC01092900010929100909191009860D2
:1044F0009093910090919100916090939100282F5A
:1045000030E0F901EE5CFE4FE491F0E0EE0FFF1FAA
:10451000E15AFE4F45915491509387064093860689
:10452000F901ED5EFE4F24912093850673E0372E4E
:1045300003C03E2E37FC70C161E00E94AE1F4801EF
:10454000A12CB12C832D8D7F09F0BDC060E072E1FC
:104550008AE790E0A50194010E94EC2929833A831F
:104560004B835C8369017A0181E0C81AD108E108B4
:10457000F1089FEFC916D104E104F10409F008F431
:104580009AC060E472E48FE090E0A50194010E947B
:10459000EC2969017A01E1E0CE1AD108E108F108BD
:1045A000F2E03F1219C08FEFC816D104E104F10404
:1045B00009F008F4CCC060E970ED83E090E0A5015B
:1045C00094010E94EC2969017A0191E0C91AD1088D
:1045D000E108F10883E001C082E0EFEFCE16D104DC
:1045E000E104F10409F008F467C068E478EE81E0C2
:1045F00090E0A50194010E94EC2969017A01F1E0A3
:10460000CF1AD108E108F1083320E1F082E0381236
:104610001BC09FEFC916D104E104F10409F008F4AE
:1046200096C064E274EF80E090E0A50194010E94DE
:10463000EC2969017A01E1E0CE1AD108E108F1081C
:1046400085E003C083E001C084E0FFEFCF16D10412
:10465000E104F10489F180F162E17AE780E090E021
:10466000A50194010E94EC2969017A0181E0C81A30
:10467000D108E108F108311002C084E001C086E0F1
:104680009FEFC916D104E104F104B1F0A8F0C9808C
:10469000DA80EB80FC809AE0F594E794D794C79495
:1046A0009A95D1F7E1E0CE1AD108E108F10831106E
:1046B0004EC085E003C081E0311049C095B5987FB8
:1046C000982B95BD44C060E072E18AE790E0A501B7
:1046D00094010E94EC2969017A01F1E0CF1AD10816
:1046E000E108F108C114D10481E0E806F10488F082
:1046F00068E478EE81E090E0A50194010E94EC2945
:1047000069017A0191E0C91AD108E108F10893E042
:1047100001C091E0E1E03E1207C080918100887FF6
:10472000892B8093810013C0F3E03F1207C0809172
:104730009100887F892B8093910009C084E0381212
:1047400006C08091C100887F892B8093C1004114ED
:1047500051046104710471F0D801AA0FBB1FA301B9
:1047600092010E94112A28EE33E040E050E00E94BE
:10477000CA2903C02FEF3FEFA90191E0391649F193
:1047800093158CF0311048C0C7BC20939606309327
:104790009706409398065093990680916E00826028
:1047A00080936E0039C0E3E03E1629F1F4E03F1239
:1047B00033C0C092CF00209381063093820640938D
:1047C0008306509384068091720080648093720007
:1047D00023C0D0928900C092880020938F06309326
:1047E0009006409391065093920680916F008260EC
:1047F00080936F0011C0D0929900C09298002093CE
:1048000088063093890640938A0650938B068091E0
:1048100071008260809371000F900F900F900F9045
:10482000DF91CF911F910F91FF90EF90DF90CF908C
:10483000BF90AF909F908F907F906F905F904F90C0
:104840003F9008958230A1F028F4882341F0813010
:1048500049F00895833091F08430B1F008951092BA
:104860006E00089580916F008D7F80936F00089592
:10487000809170008D7F8093700008958091710009
:104880008D7F809371000895809172008F7B80935B
:1048900072000895CF93C82F809175018C1307C0C3
:1048A000EDEBF1E084919FEF9093750101C08FEFE4
:1048B0000E94222460E08C2FCF910C94E71F1F925E
:1048C0000F920FB60F9211242F933F934F935F9344
:1048D0006F937F938F939F93AF93BF93EF93FF93C8
:1048E0008091880690918906A0918A06B0918B06E6
:1048F000892B8A2B8B2B51F190918506E0918606AE
:10490000F091870680818927808380918806909125
:104910008906A0918A06B0918B06181619061A0608
:104920001B062CF58091880690918906A0918A0635
:10493000B0918B060197A109B109809388069093E5
:104940008906A0938A06B0938B0611C083E00E946B
:10495000222420918506E0918606F09187068081C9
:1049600090E030E020953095822393238083FF915F
:10497000EF91BF91AF919F918F917F916F915F91D7
:104980004F913F912F910F900FBE0F901F90189550
:10499000615030F02091F100FC0120830196F8CFA6
:1049A000289884E68093A306089540919E0650912E
:1049B0009F0620919C0630919D0642175307B4F440
:1049C0009091E8009570E1F39091E80092FD19C094
:1049D0008093F10080919E0690919F0601968F73BF
:1049E0009927892B19F48EEF8093E80080919E0619
:1049F00090919F06019690939F0680939E0681E07A
:104A0000089580E00895CF92DF92EF92FF920F9386
:104A10001F93CF93DF931F92CDB7DEB7082F162FCA
:104A2000F42E862F880F8E5F99830E94D52483E011
:104A30000E94D524E02EC02E9981D92E8C2D8E195E
:104A4000811798F4F601F7FE02C0849101C08081BD
:104A50000E94D524082F80E00E94D5248023FFEFF8
:104A6000CF1ADF0A8111EACF01C081E00F90DF91F8
:104A7000CF911F910F91FF90EF90DF90CF9008950D
:104A80008091D70081608093D70080EA8093D8001E
:104A900089B5806189BD89B5826089BD09B400FE90
:104AA000FDCF61E070E080E090E00E94281E8091E0
:104AB000D8008F7C80618093D8008091E000807F57
:104AC0008093E0000895CF93DF931F92CDB7DEB7B8
:104AD0001982CE0101960E94CF200E949629BE0124
:104AE0006F5F7F4F0E940F2989810F90DF91CF91D7
:104AF00008952FB7FC012083F89467706093E90054
:104B00000895CF93DF931F92CDB7DEB7682FCE0104
:104B100001960E9479258091F20099819FBF0F90A4
:104B2000DF91CF910895FF920F931F93CF93DF935F
:104B300000D0CDB7DEB7F62E8A019091A206992358
:104B400011F057FF03C08FEF9FEF2BC0682FCE01EE
:104B500001967A830E9479258091F20090E0A80165
:104B60007A81801791070CF4AC01EF2DF72FF40E2A
:104B700084E6FE1639F028988093A3069091F10000
:104B80009193F7CF4115510521F08091F2008823D0
:104B900021F089818FBFCA0104C08BE68093E800B1
:104BA000F8CF0F900F90DF91CF911F910F91FF9051
:104BB0000895CF93DF931F92CDB7DEB741E050E069
:104BC000BE016F5F7F4F0E949325019719F4898181
:104BD00090E002C08FEF9FEF0F90DF91CF9108958B
:104BE000CF93DF931F92CDB7DEB7682FCE0101962A
:104BF0000E9479259091E800892F807295FF04C06A
:104C00009091F20080E4891B99819FBF0F90DF9102
:104C1000CF9108956F927F928F929F92AF92BF92A1
:104C2000CF92DF92EF92FF920F931F93CF93DF9378
:104C30001F92CDB7DEB7782E7B01C42EB52E8091A2
:104C4000A206882369F0042F152F8AEFD82E872D0E
:104C50008072982E9AE3A92E872D8074882E11C019
:104C60008FEF9FEF57C0872D0E94F025682E81118E
:104C70000CC0DA94A9F361E070E080E090E00E945B
:104C8000281E0115110579F73BC0282F30E00217C7
:104C900013070CF4602E672DCE0101960E94792532
:104CA0008091E80085FF29C0262D30E0021B130B00
:104CB000992039F06A948FEF6816B1F01092F100E4
:104CC000F9CFF701862D77FE07C0815058F09491F7
:104CD0009093F1003196F9CF815020F0919190930B
:104CE000F100FACFE20EF31E8091E80085FF0FC0BD
:104CF0000115110511F481100AC089818FBFC1CF40
:104D00005D9884E68093A4068C2D9B2D03C0A09211
:104D1000E800F3CF0F90DF91CF911F910F91FF909B
:104D2000EF90DF90CF90BF90AF909F908F907F904B
:104D30006F9008951092E90010929F0610929E06BF
:104D400090939D0680939C060895CF92DF92FF92E8
:104D50000F931F93CF93DF9300D0CDB7DEB7F82E1C
:104D60008A016B0101151105B1F0F601F7FE02C0D1
:104D7000849101C0808149835A830E94D5240150C7
:104D80001109FFEFCF1ADF0A49815A818111EACF59
:104D90008FEF9FEF01C0CA010F900F90DF91CF916D
:104DA0001F910F91FF90DF90CF9008951F93CF93A5
:104DB000DF931F92CDB7DEB7162F2091E80022FFB8
:104DC000FCCF612F79830E94C8248BEF8093E80089
:104DD000812F7981972F0F90DF91CF911F910895A7
:104DE0001F920F920FB60F921124DF92EF92FF9253
:104DF0000F931F932F933F934F935F936F937F93E3
:104E00008F939F93AF93BF93EF93FF93CF93DF93D2
:104E1000CDB7DEB76C97DEBFCDBF1092E9008091B1
:104E2000E80083FF23C168E0CE0145960E94C824B4
:104E300082EF8093E8003D8937FF05C08091E8004C
:104E400080FFFCCF03C08EEF8093E800832F807635
:104E500009F0F0C02E894F89D88C21110CC0303850
:104E600029F48091A1068093F10002C01092F10014
:104E70001092F100F4C0842F90E09D29213049F474
:104E80003111EDC0019709F0EAC08091A1068D7F34
:104E90000AC0233059F43111E2C0019709F0DFC094
:104EA0008091A10682608093A106D9C0253041F48B
:104EB0008091E80080FFFCCF40684093E300CFC0C2
:104EC000263009F08DC0EB8CFC8C22E0D2122CC075
:104ED00080E090E00E949A260E94632599E08E016E
:104EE0000F5F1F4FF801292F11922A95E9F7998337
:104EF000DA8291E09E8390EA98879AEF99872091D1
:104F00009E0630919F06275F3F4F3C832B838D8306
:104F1000C7010E949A2649E050E0B80180E00E9453
:104F2000A5260E9463259BC0C7010E949A260E9465
:104F30009629BE016B5E7F4F0E943829009719F0B9
:104F40000CF08DC090C081E0D8120EC08B8D9C8D6E
:104F5000089719F481E080939B0680919B0681114C
:104F60002FC060ED71E031C0E3E0DE127CC08F89BC
:104F7000882349F1823029F440E860E18EEE91E027
:104F80001CC0813029F440E86BE082EE91E015C04E
:104F9000833009F068C00E9496298E010F5F1F4F71
:104FA000B8010E945729F80101900020E9F73197D4
:104FB000E01BF10B40E06E2FC8010E9403254DC09D
:104FC0006EEB71E002C06FEF71E06115710509F4DD
:104FD0004AC0FB01449150E080E80E94A5263FC0F2
:104FE000273009F440C0283021F481E08093F1009B
:104FF00036C02930A1F53370B1F5E7E7F1E081E083
:1050000021E036E39081992361F08093E9002093B9
:10501000EB0091919093EC003093ED008F5F87301F
:1050200089F78EE78093EA001092EA008F898093D7
:10503000A20615C08B8D9C8D0E949A26898D8111A8
:1050400005C0CE0145960E94DA2007C00E9496292D
:10505000BE016B5E7F4F0E947629882321F08EEF80
:105060008093E80003C081E28093EB006C960FB65A
:10507000F894DEBF0FBECDBFDF91CF91FF91EF91CE
:10508000BF91AF919F918F917F916F915F914F9160
:105090003F912F911F910F91FF90EF90DF900F9014
:1050A0000FBE0F901F9018958093E9008091F20039
:1050B000882319F08AE38093E80008951F920F92E5
:1050C0000FB60F9211242F933F934F935F936F93DB
:1050D0007F938F939F93AF93BF93CF93EF93FF9360
:1050E000C091E1008091E100837F8093E100809393
:1050F000E100C3FF0FC01092E90081E08093EB0054
:105100001092EC0082E38093ED001092A20688E0FA
:105110008093F000C2FF19C083E00E945428809160
:10512000A406882339F08091A40681508093A406B8
:10513000882389F18091A306882339F08091A30602
:1051400081508093A306882341F1C4FF10C0809151
:10515000E2008E7E81608093E2008091E1008F7E8C
:105160008093E1008091A0068E7E806111C0C0FF17
:1051700016C08091E2008E7E80618093E200809173
:10518000E1008E7E8093E1008091A0068E7E81609A
:105190008093A00604C05D9ACDCF289AD6CFFF9108
:1051A000EF91CF91BF91AF919F918F917F916F912F
:1051B0005F914F913F912F910F900FBE0F901F90D5
:1051C00018951092A2061092A1061092A0060E94B5
:1051D0004025E1EEF0E080818E7E80838DE080933B
:1051E000E200559A209A08950E94662B08950E9425
:1051F000501E0E94F6288AE996E00E94E1280E944B
:105200007401C0E0D0E00E9489012097E1F30E9480
:105210000000F9CF0C943F2A0C94D72A0895EF92FE
:10522000FF920F931F93CF93DF937B01FC01C28109
:10523000D38100E010E0209781F0E881F9810280BD
:10524000F381E02DB701CE01099597FD08C0080F45
:10525000191F0884D985C02DEECFC80102C08FEF79
:105260009FEFDF91CF911F910F91FF90EF900895E5
:105270000F931F93CF93DF938B01FC01C281D381E6
:10528000209771F0E881F9810480F581E02DB80163
:10529000CE010995009731F40884D985C02DF0CF4F
:1052A00080E090E0DF91CF911F910F9108950F93CF
:1052B0001F93CF93DF938B01FC01C281D381209791
:1052C00071F0E881F9810680F781E02DB801CE0107
:1052D0000995080F111D0884D985C02DF0CFF8015C
:1052E0001082DF91CF911F910F9108950F931F931B
:1052F000CF93DF938B01FC01C281D381209771F0A2
:10530000E881F9810190F081E02DB801CE01099585
:10531000811106C00884D985C02DF0CF80E001C07E
:1053200081E0DF91CF911F910F9108958091A9069F
:1053300081110DC082E08093A50684E08093A606CB
:105340001092A8061092A70681E08093A90685EA2C
:1053500096E00895991B79E004C0991F961708F00C
:10536000961B881F7A95C9F78095089597FB072E9D
:1053700016F4009407D077FD09D00E941C2A07FC80
:1053800005D03EF4909581959F4F08957095619555
:105390007F4F0895A1E21A2EAA1BBB1BFD010DC071
:1053A000AA1FBB1FEE1FFF1FA217B307E407F507D5
:1053B00020F0A21BB30BE40BF50B661F771F881FB1
:1053C000991F1A9469F760957095809590959B0147
:1053D000AC01BD01CF010895052E97FB1EF400948A
:1053E0000E94032A57FD07D00E94CA2907FC03D058
:1053F0004EF40C94032A50954095309521953F4FDB
:105400004F4F5F4F089590958095709561957F4FB0
:105410008F4F9F4F0895EE0FFF1F0590F491E02DE1
:1054200009940E94302AA59F900DB49F900DA49FCF
:10543000800D911D11240895AA1BBB1B51E107C0CB
:10544000AA1FBB1FA617B70710F0A61BB70B881F14
:10545000991F5A95A9F780959095BC01CD010895A3
:10546000A29FB001B39FC001A39F700D811D1124A5
:10547000911DB29F700D811D1124911D0895CF9330
:10548000DF938230910510F482E090E0E091B30662
:10549000F091B40620E030E0A0E0B0E0309739F1C0
:1054A0004081518148175907B8F04817590771F4DE
:1054B00082819381109729F013969C938E93129773
:1054C0002CC09093B4068093B30627C021153105F4
:1054D00031F04217530718F0A901DB0101C0EF01B9
:1054E0009A01BD01DF010280F381E02DD7CF2115A4
:1054F0003105F9F0281B390B2430310580F48A81FD
:105500009B816115710521F0FB019383828304C0A7
:105510009093B4068093B306FE01329644C0FE0118
:10552000E20FF31F8193919322503109398328832D
:105530003AC02091B1063091B206232B41F420915C
:105540000201309103013093B2062093B1062091FD
:105550000001309101012115310541F42DB73EB70D
:105560004091040150910501241B350BE091B106D7
:10557000F091B206E217F307A0F42E1B3F0B281799
:10558000390778F0AC014E5F5F4F2417350748F0BC
:105590004E0F5F1F5093B2064093B10681939193D3
:1055A00002C0E0E0F0E0CF01DF91CF910895CF930A
:1055B000DF93009709F487C0FC01329713821282AF
:1055C000C091B306D091B406209781F42081318137
:1055D000280F391F8091B1069091B2068217930768
:1055E00079F5F093B206E093B1066DC0DE0120E0DC
:1055F00030E0AE17BF0750F412964D915C911397AF
:105600009D014115510509F1DA01F3CFB383A2835E
:1056100040815181840F951F8A179B0771F48D91EA
:105620009C911197840F951F029691838083129607
:105630008D919C911397938382832115310529F4D1
:10564000F093B406E093B3063EC0D9011396FC93E1
:10565000EE9312974D915D91A40FB51FEA17FB07CA
:1056600079F480819181840F951F0296D90111965A
:105670009C938E938281938113969C938E93129721
:10568000E0E0F0E08A819B81009719F0FE01EC01D7
:10569000F9CFCE01029628813981820F931F209184
:1056A000B1063091B2062817390769F4309729F40A
:1056B0001092B4061092B30602C013821282D093E5
:1056C000B206C093B106DF91CF91089581E090E0DA
:1056D000F8940C94812BF999FECF92BD81BDF89A74
:1056E000992780B50895262FF999FECF1FBA92BD4C
:1056F00081BD20BD0FB6F894FA9AF99A0FBE0196B3
:065700000895F894FFCFAC
:105706000000B5068000010000002C0100005802D0
:105716000000B004000060090000C01200008025EF
:10572600000040380000004B000080700000127A34
:1057360000000096000000E1000000C20100040025
:1057460000000500010006000200030000127A00B6
:1057560000093D0080841E0040420F0020A1070082
:1057660090D0030048E8010001FFFFFFFF00E100C1
:105776000000000000FF00C1808100000000000062
:10578600001B02EE01C301CB01DE01ED01000000AA
:10579600009D06B5065C0AAE07550EC30AB1075F43
:1057A6000BB407E80EB00B3E0CB7076E0C080A3BAD
:1057B6000F5C0F020B730C120A17104910150A879B
:1057C6000C180AA610F00CB510EB07CF07BA07F2B3
:1057D6000700080C083F083C094C0864087C08943C
:1057E60008AC08C408DE08F8080E0D170D900D1950
:1057F6000E160919091C091F0922094F0A510A4BDD
:105806000A2F0F330F7807250926092709280929A2
:10581600092A092B092C092D092E092F09300931CE
:1058260009320933093409AD075F0900000000A4F5
:1058360006BF065C0AAE07550EC30AB1075F0BB476
:1058460007E80EB00B3E0CB7076E0C080A3B0F5C60
:105856000F020B730C120A17104910150A870C1841
:105866000AA610F00CB510EB07CF07BA07F207002F
:10587600080C083F083C094C0864087C089408ACEE
:1058860008C408DE08F8080E0D170D900D190E163F
:105896000919091C091F0922094F0A510A4B0A2F27
:1058A6000F330F7807250926092709280929092A08
:1058B600092B092C092D092E092F09300931093226
:1058C6000933093409AD075F0900030506090A0B08
:1058D6000D000102030405060708090A0B0C0D0357
:1058E60000E0C810000001020304054172647569F6
:1058F6006E6F204C656F6E6172646F0044656275F1
:105906006767696E6720456E61626C6564000000BA
:10591600000072073509F428AE07F428F428B10709
:10592600F428B407F428F428F428B707F428F42850
:10593600F428F428F428F428F428F428F428F42881
:10594600F428F428F428F428F428EB07CF07BA073C
:10595600F20700080C083F083C094C0864087C085C
:105966009408AC08C408DE08F808F428F428F428DB
:10597600F428160919091C091F092209F428F42814
:10598600AC07F428F42878072509260927092809E9
:1059960029092A092B092C092D092E092F09300955
:1059A6003109320933093409AD075F09437265616C
:1059B600746564204E657720536572766F204F6E4E
:1059C600204368616E6E656C2000536572766F20A9
:1059D60000203A2000000000009606AB065C0AAEE6
:1059E60007550EC30AB1075F0BB407E80EB00B3EAE
:1059F6000CB7076E0C080A3B0F5C0F020B730C12F8
:105A06000A17104910150A870C180AA610F00CB5CB
:105A160010EB07CF07BA07F20700080C083F083C4F
:105A2600094C0864087C089408AC08C408DE08F829
:105A3600080E0D170D900D190E160919091C091FD0
:105A46000922094F0A510A4B0A2F0F330F780725EF
:105A56000926092709280929092A092B092C092DAC
:105A6600092E092F0930093109320933093409ADE4
:105A7600075F095374617465202D20436C6F73654D
:105A8600005374617465202D204578697400537441
:105A9600617274696E67204C697374656E65722EE7
:105AA6002E2E0A000000000000130313061309132C
:105AB6008311C010D610D9102811436C6F7365205E
:105AC600436F6D6D616E64000000000000130313E8
:105AD600061309130C130F131213151300000000FD
