:100000000C9477010C949F010C949F010C949F0118
:100010000C949F010C949F010C949F010C949F01E0
:100020000C949F010C949F010C9480270C9407283A
:100030000C949F010C949F010C949F010C949F01C0
:100040000C949F010C9458060C949F010C949F01F2
:100050000C949F010C949F010C949F010C94E21D41
:100060000C949F010C949F010C949F010C949F0190
:100070000C949F010C949F010C949F010C949F0180
:100080000C9423230C949F010C949F010C949F01CA
:100090000C948A030C949F010C949F010C949F0173
:1000A0000C949F010C949F010C949F010000000090
:1000B000240027002A002D00300000000000250049
:1000C00028002B002E003100000000002300260035
:1000D00029002C002F000404040404030405020278
:1000E00002020403020202020606060606060404D1
:1000F00002020204040802011040804010204080E7
:10010000408008020401804020100201108010206D
:1001100040400000000200080E0000030401000B34
:1001200000000000000000000000000000000000CF
:10013000070605040100080A0B0C0D09080B000254
:10014000020201000904000001020200000524006F
:100150001001052401010104240206052406000102
:100160000705810310004009040100020A00000095
:100170000705020240000007058302400000030457
:100180000309042203410072006400750069006ED7
:10019000006F0020004C0065006F006E006100726F
:1001A0000064006F0018034100720064007500696C
:1001B000006E006F0020004C004C00430012010054
:1001C00002000000404123368000010102000112BC
:1001D00001000202000040412336800001010200BC
:1001E0000100C18081C105010902A1010901A1002D
:1001F00085010509190129031500250195037501DC
:10020000810295017505810305010930093109381D
:100210001581257F750895038106C0C00501090673
:10022000A1018502050719E029E7150025017501DF
:1002300095088102950175088103950675081500DA
:1002400025650507190029658100C0090402000120
:100250000300000009210101000122650007058457
:100260000340000100000000000000002A2B2800CD
:10027000000000000000000000000000000000007E
:10028000000000002C9EB4A0A1A2A434A6A7A5AE95
:10029000362D3738271E1F20212223242526B3334D
:1002A000B62EB7B89F8485868788898A8B8C8D8E79
:1002B0008F909192939495969798999A9B9C9D2F45
:1002C0003130A3AD350405060708090A0B0C0D0EE5
:1002D0000F101112131415161718191A1B1C1DAF25
:1002E000B1B0B5002E0262129F21BC26BF2A112494
:1002F0001FBECFEFDAE0DEBFCDBF14E0A0E0B1E07B
:10030000EEEBF8E502C005900D92A835B107D9F7DC
:1003100017E0A8E5B4E001C01D92AD31B107E1F7E7
:1003200012E0CEEED2E004C02297FE010E94592CCA
:10033000C43ED107C9F70E946A220C945D2C0C942C
:10034000000080E695E00E94AF1008950F931F9380
:1003500083EC90E00E947E22182F092F0E9416073E
:10036000109358040093590480E695E0612F702F94
:1003700040E00E9472101F910F910895882319F494
:100380008CB5806202C08CB58F7D8CBD08959CB504
:10039000937F982B9CBD08952CB5382F33702C7FFC
:1003A000322B3CBD2DB590E0959587959595879519
:1003B00081702E7F822B8DBD089581E161E00E94C6
:1003C000542081E161E00E94C71F8CB580618CBD23
:1003D0008CB580648CBD8FE061E00E94C71F80E116
:1003E00061E00E94C71F089581E080939F0460939D
:1003F0007C0410929D0410929E04089520917B0429
:1004000030E080917A04281B3109C9010895409198
:100410007A0480917B04481718F02FEF3FEF0AC051
:10042000E42FF0E0E65AFB4F8081282F30E04F5F49
:1004300040937A04C9010895E0917A0480917B0485
:10044000E81718F0EFEFFFEF06C0F0E0E65AFB4FB9
:100450008081E82FF0E0CF01089508951092A30461
:100460001092A20488EE93E0A0E0B0E08093A40490
:100470009093A504A093A604B093A7048FEA91E0FB
:100480009093A1048093A0040895CF92DF92EF92FD
:10049000FF920F931F93CF93DF937C016B018A012F
:1004A00080919F048823A1F0C0E0D0E00DC0D70167
:1004B000ED91FC91D601AC0FBD1F0190F081E02DB4
:1004C000C7016C9109952196C017D10780F304C02C
:1004D000CB01642F0E946F03C801DF91CF911F9160
:1004E0000F91FF90EF90DF90CF900895DF93CF931F
:1004F0000F92CDB7DEB7FC01698380919F048823FA
:10050000C9F080919E04803238F081E090E09383BE
:10051000828320E030E015C080919D04E82FF0E058
:10052000E358FB4F998190838F5F80939D04809364
:100530009E0405C0CE01019661E00E946F0321E098
:1005400030E0C9010F90CF91DF9108950F93062FEE
:1005500080917C046DE774E040919E0421E00E944C
:100560001A0310929D0410929E0410929F040F9102
:100570000895413208F040E2862F6AE574E00E9457
:10058000D10210927A0480937B04089510927A0429
:1005900010927B0410929D0410929E040E941B05F1
:1005A0000895382F413210F040E042C08091AC04F1
:1005B0008823E1F791E09093AC042093AE048FEF91
:1005C000809319051092D40441504093D5044F5F95
:1005D0009093AD048091AD04330F832B8093AD04D1
:1005E0008091AF04813041F41092AF048091AD044A
:1005F0008093BB0085EC01C085EE8093BC008091A8
:10060000AC048130E1F38091D404841710F440915C
:10061000D40420E030E00AC0FB01E20FF31FD9014F
:10062000AC54BB4F8C9180832F5F3F4F2417A0F3B6
:10063000842F08950F931F93582F122F413210F0DB
:1006400081E04AC08091AC048823E1F782E0809386
:10065000AC040093AE048FEF809319051092D4047C
:100660004093D504A4EBB4E0FB0102C081918D93CB
:100670008E2F861B8417D0F31092AD048091AD04A9
:10068000550F852B8093AD048091AF04813041F4E8
:100690001092AF048091AD048093BB0085EC01C043
:1006A00085EE8093BC00112321F08091AC04823050
:1006B000E1F3809119058F3F11F480E00DC0809126
:1006C0001905803211F482E007C08091190580334A
:1006D00011F084E001C083E01F910F910895482F2D
:1006E000613210F081E008958091AC04843011F003
:1006F00082E008956093F704A6EDB4E0842F9C0196
:10070000F90102C081918D938E2F841B8617D0F33F
:1007100080E008951F920F920FB60F9211242F932D
:100720003F934F935F936F937F938F939F93AF9379
:10073000BF93EF93FF938091B90090E0887F907012
:100740008036910509F4F2C081369105CCF58832E6
:10075000910509F47BC089329105B4F4803191058B
:1007600009F46FC0813191053CF4009709F447C149
:10077000089709F04FC165C08831910509F466C03A
:10078000809709F047C182C08034910509F4A4C064
:100790008134910544F48033910509F482C0C897EF
:1007A00009F038C189C08035910509F489C08835C0
:1007B000910509F496C08834910509F02BC1AEC0AB
:1007C0008839910509F413C189399105ECF488370A
:1007D000910509F4ABC0893791054CF48836910531
:1007E00009F4A4C08037910509F014C19FC088386E
:1007F000910509F4FCC08039910509F49DC0803849
:10080000910509F007C198C0803B910509F4C6C065
:10081000813B91054CF4803A910509F49FC0883AD8
:10082000910509F0F7C0BAC0803C910509F4E3C016
:10083000883C910509F4DFC0883B910509F0EAC0C6
:10084000C2C08091AD048093BB00CFC09091D4040E
:100850008091D504981768F49091D404E92FF0E0C2
:10086000EC54FB4F80818093BB009F5F9093D40436
:10087000BCC08091AE04882309F44BC085ED809301
:10088000BC008091BC0084FDFCCFC2C080E280939C
:10089000190585ED8093BC008091BC0084FDFCCFE0
:1008A000B7C080E38093190585ED8093BC008091EB
:1008B000BC0084FDFCCFACC088E3809319059BC0CD
:1008C0008091D4049091BB00E82FF0E0EC54FB4FF2
:1008D00090838F5F8093D4049091D4048091D50449
:1008E00082C08091D4049091BB00E82FF0E0EC54DA
:1008F000FB4F90838F5F8093D4048091AE04882354
:1009000041F085ED8093BC008091BC0084FDFCCF5C
:100910007FC081E08093AF0484EA6EC085ED809350
:10092000BC008091BC0084FDFCCF72C083E080934A
:10093000AC041092180559C080911805803208F057
:1009400056C0809118059091BB00E82FF0E0E85068
:10095000FB4F90838F5F8093180547C080911805E7
:10096000803230F4E0911805F0E0E850FB4F10823F
:1009700085ED8093BC008091BC0084FDFCCF10927B
:10098000AC0460911805E091B204F091B30488EFD3
:1009900094E070E00995109218052DC084E08093D2
:1009A000AC041092F6041092F704E091B004F091B8
:1009B000B10409958091F704882329F481E080939C
:1009C000F7041092D6049091F604E92FF0E0EA5271
:1009D000FB4F80818093BB009F5F9093F6049091C2
:1009E000F6048091F704981710F485EC01C085E8AF
:1009F0008093BC000FC085EC8093BC0009C01092AE
:100A0000190585ED8093BC008091BC0084FDFCCF6E
:100A10001092AC04FF91EF91BF91AF919F918F9194
:100A20007F916F915F914F913F912F910F900FBEEA
:100A30000F901F9018951092AC0481E08093AE0443
:100A40001092AF0482E061E00E94542083E061E0F4
:100A50000E945420E9EBF0E080818E7F80838081CA
:100A60008D7F808388E48093B80085E48093BC0008
:100A70000895F999FECF72BD61BDF89A80B50895C9
:100A8000F999FECF1FBA72BD61BD40BD0FB6F89493
:100A9000FA9AF99A0FBE0895FC0180911B058C30DB
:100AA00090F480838F5F80931B05815090E0FC0160
:100AB000EE0FFF1FE80FF91FE45EFA4F88EB9BE093
:100AC0009283818308958FEF80830895DC018C9158
:100AD00090E0FC01EE0FFF1FE80FF91FE45EFA4FF4
:100AE00080818F7B80838C916CE00E94E72B90E06B
:100AF000AC01440F551F480F591F440F551F440F99
:100B0000551F20E030E0C901840F951FFC01EE0F56
:100B1000FF1FE80FF91FE45EFA4F808186FD05C0D4
:100B20002F5F3F4F2C30310571F70895FC01208174
:100B30002C30B8F58181992787FD909548E850E0E1
:100B4000481B590B440F551F440F551F6417750759
:100B500084F08281992787FD909548E552E0481BF3
:100B6000590B440F551F440F551F641775070CF49C
:100B7000AB0142505040CA01AA2797FDA095BA2F59
:100B8000880F991FAA1FBB1F4FB7F89430E0F901D7
:100B9000EE0FFF1FE20FF31FE45EFA4F9283818393
:100BA0004FBF0895CF92DF92EF92FF921F93CF93A2
:100BB000DF93EC01162F7A01690188818C3008F0EF
:100BC00064C0862F61E00E94C71F888190E0FC010D
:100BD000EE0FFF1FE80FF91FE45EFA4F1F738081CD
:100BE000807C812B808380E292E08E199F0964E0F3
:100BF00070E00E94F32B698380E699E08C199D09CF
:100C000064E070E00E94F32B6A83A8818A2F6CE075
:100C10000E94E72B682F70E0AB01440F551F460F71
:100C2000571F440F551F440F551F20E030E0C901E6
:100C3000840F951FFC01EE0FFF1FE80FF91FE45E04
:100C4000FA4F808186FD15C02F5F3F4F2C30310554
:100C500071F724C01092800082E08093810010928E
:100C6000850010928400B19A80916F008260809319
:100C70006F008A2F90E0FC01EE0FFF1FE80FF91FB5
:100C8000E45EFA4F8081806480838881DF91CF9118
:100C90001F91FF90EF90DF90CF900895672BD1F2D6
:100CA000E8CF40E252E020E639E00E94D205089504
:100CB0001F920F920FB60F9211242F933F934F93D1
:100CC0005F936F937F938F939F93AF93BF93EF93B4
:100CD000FF938091400587FF05C010928500109218
:100CE00084002BC020914005332727FD309580914B
:100CF0001B0590E02817390704F5809140059927D6
:100D000087FD9095FC01EE0FFF1FE80FF91FE45ED1
:100D1000FA4F808186FF11C080914005992787FD99
:100D20009095FC01EE0FFF1FE80FF91FE45EFA4FEC
:100D300080818F7360E00E945420809140058F5F16
:100D40008093400520914005332727FD3095809101
:100D50001B0590E0281739070CF04EC08091400524
:100D60008C300CF049C02091840030918500809136
:100D70004005992787FD9095FC01EE0FFF1FE80FB6
:100D8000F91FE45EFA4F81819281280F391F309359
:100D900089002093880080914005992787FD9095D0
:100DA000FC01EE0FFF1FE80FF91FE45EFA4F808190
:100DB00086FF2BC080914005992787FD9095FC0107
:100DC000EE0FFF1FE80FF91FE45EFA4F80818F736B
:100DD00061E00E94542019C080E49CE905C0809124
:100DE00084009091850004969093890080938800F8
:100DF0008FEF8093400509C0809184009091850019
:100E0000049680549C4940F3EACFFF91EF91BF9143
:100E1000AF919F918F917F916F915F914F913F9192
:100E20002F910F900FBE0F901F9018950F931F9347
:100E3000CF93DF938C010E94EA0782EF91E0D80103
:100E400011969C938E9322E013962C93139781E135
:100E500014968C9314978BEB91E016969C938E933B
:100E6000159761E017966C93179718962C9318971F
:100E700019961C9219977EE01A967C931A97E8EDC2
:100E8000F1E01C96FC93EE931B9786E01D968C93E5
:100E90001D978CEC91E01F969C938E931E978AE091
:100EA00050968C93509720E43BE44CE450E0E801EA
:100EB000298B3A8B4B8B5C8B55962D933D934D93A1
:100EC0005C93589703551F4F86ED91E0E801998395
:100ED000888303501040D8016D938D0182ED91E01D
:100EE0008D939C930C5F1F4FE801199219921992F0
:100EF00019928E01288339834A835B83035B1040F8
:100F0000E801198E1B8E1A8E27E02C8F86EE91E059
:100F10009E8F8D8F1F8E19A218A26AA383E495E07D
:100F20009CA38BA38091950190919601A09197012C
:100F3000B09198018DA39EA3AFA3B8A709541F4FEA
:100F40008DE0D8018D938D0185E691E08D939C9382
:100F5000085B1040E80169A781E495E09BA78AA798
:100F600001541F4F82E495E0D8018D939C930F5B51
:100F70001040E8016CA78DEE91E09EA78DA7065466
:100F80001F4FD8012D938BE391E0ED018993999345
:100F90008E0187E591E0998388830D5B1040D8012D
:100FA0009F961C929F97D1961C921E92D097D29694
:100FB0007C93D297D496FC93EE93D3970F531F4F05
:100FC00084E495E0E80199838883DF91CF911F91B4
:100FD0000F9108950F931F938C010E9443108AE78D
:100FE00092E0F8019183808382E082831F910F91C8
:100FF0000895FC0182E093E0918380838EEF8283E9
:1010000013820895EF92FF920F931F93DF93CF9374
:1010100000D000D0CDB7DEB77C0119821A821B82C6
:101020001C82DC01ED91FC9102A0F3A1E02D20E0F7
:1010300032EC41E050E08E010F5F1F4F0995D70160
:10104000ED91FC91EC58FF4F0190F081E02DC7012C
:1010500060E071E009950F900F900F900F90CF9185
:10106000DF911F910F91FF90EF90089508950895DB
:10107000DF93CF930F92CDB7DEB7DC014983ED91BB
:10108000FC9102A4F3A5E02D41E09E012F5F3F4FAC
:1010900009950F90CF91DF910895FF920F931F93C1
:1010A000CF93DF938C01F62EEA010AC02196D80176
:1010B000ED91FC9104A4F5A5E02DC8016F2D0995D3
:1010C0004881442399F7DF91CF911F910F91FF90B1
:1010D0000895DC01ED91FC9100A8F1A9E02D09959E
:1010E0000895DC019A01ED91FC91442737FD40956C
:1010F000542F06A8F7A9E02D09950895DC01ED917C
:10110000FC919A0140E050E000ACF1ADE02D099572
:101110000895DF92EF92FF920F931F93CF93DF9387
:10112000EC01D62E79018A0157FF0FC0E881F981C1
:1011300004A4F5A5E02D4DE2099510950095F094D5
:10114000E094E11CF11C011D111DE881F981EE57AD
:10115000FF4F0190F081E02DCE016D2DA801970188
:101160000AE00995DF91CF911F910F91FF90EF90C9
:10117000DF9008950F93DC01ED91FC91EE57FF4F46
:101180000190F081E02D0AE009950F9108950F93E9
:101190001F93DC010115110541F4ED91FC9104A4AC
:1011A000F5A5E02D422F099511C0ED91FC91119705
:1011B0000A30110529F406A8F7A9E02D099506C003
:1011C000EE57FF4F0190F081E02D09951F910F918F
:1011D0000895FF920F931F938C01F62EDC01ED9181
:1011E000FC9104A4F5A5E02D4DE00995D801ED9101
:1011F000FC9104A4F5A5E02DC8016F2D4AE00995E6
:101200001F910F91FF900895FF920F931F938C01F0
:10121000F62EDC01ED91FC9104A4F5A5E02D0995D5
:10122000D801ED91FC9104ACF5ADE02DC8016F2D16
:1012300009951F910F91FF900895FF920F931F93AF
:101240008C01F62EDC01ED91FC9106A4F7A5E02DB2
:101250000995D801ED91FC9104ACF5ADE02DC801E4
:101260006F2D09951F910F91FF900895FF920F9395
:101270001F938C01F62EDC01ED91FC9100A8F1A9E1
:10128000E02D0995D801ED91FC9104ACF5ADE02D70
:10129000C8016F2D09951F910F91FF900895FF923E
:1012A0000F931F938C01F62EDC01ED91FC9102A8A7
:1012B000F3A9E02D0995D801ED91FC9104ACF5ADB1
:1012C000E02DC8016F2D09951F910F91FF90089592
:1012D000FF920F931F938C01F62EDC01ED91FC9190
:1012E00006A8F7A9E02D0995D801ED91FC9104AC71
:1012F000F5ADE02DC8016F2D09951F910F91FF905D
:101300000895FF920F931F938C01F62EDC01ED914F
:10131000FC9100ACF1ADE02D0995D801ED91FC9167
:1013200004ACF5ADE02DC8016F2D09951F910F910B
:10133000FF900895DF92EF92FF920F931F937C012D
:10134000D62EDC01ED91FC9102ACF3ADE02D0995B8
:10135000D701ED91FC9104ACF5ADE02DC7016D2DE9
:1013600009951F910F91FF90EF90DF9008950895D8
:101370000895089508950895089508950895089585
:1013800008950895089508950895089508952F9251
:101390003F924F925F926F927F928F929F92AF9205
:1013A000BF92CF92DF92EF92FF920F931F93DF9342
:1013B000CF93CDB7DEB7A1970FB6F894DEBF0FBEBF
:1013C000CDBF1C0169A369017A01211531054105D1
:1013D000510549F4DC01ED91FC9104A4F5A5E02D43
:1013E00040E3099555C0882499245401402E552482
:1013F0006624772401E010E00C0F1D1F080D191D55
:10140000C701B601A30192010E94062CF801608376
:101410000894811C911CA11CB11CC701B601A30139
:1014200092010E94062CC901DA016C017D01C114F0
:10143000D104E104F104F1F671E0E72EF12CEC0E99
:10144000FD1EE80CF91C3E010894611C711CD501BD
:10145000C4010197A109B1096C01C818D90815C0C8
:10146000D101ED91FC9124A535A5F601EE0DFF1DEE
:1014700040814A3010F4405D01C0495CC10169A15E
:10148000F90109950894E108F1086E147F0441F709
:10149000A1960FB6F894DEBF0FBECDBFCF91DF91FE
:1014A0001F910F91FF90EF90DF90CF90BF90AF9082
:1014B0009F908F907F906F905F904F903F902F9074
:1014C000089580E090E0089581E090E008959F9273
:1014D000AF92BF92CF92DF92EF92FF920F931F9342
:1014E0007C01962E59016A01DC01ED91FC91E45BCF
:1014F000FF4F0190F081E02D0995D701ED91FC910E
:1015000002A0F3A1E02DC701692DA601950109955F
:101510001F910F91FF90EF90DF90CF90BF90AF9011
:101520009F9008958AE195E00E94390508958AE127
:1015300095E00E9440050895CF92DF92EF92FF92CE
:101540000F931F93CF93DF93242F352F8901C0E092
:10155000D0E0C62EDD2441ECE42EF12CE80EF91E7D
:101560001CC0D8018C9190E0880F991FD701ED9194
:10157000FC91E80FF91F808191810E946605F801B6
:1015800081918F0190E0880F991FD701ED91FC9117
:10159000E80FF91F118210822196CC15DD050CF39E
:1015A00080E090E0DF91CF911F910F91FF90EF903D
:1015B000DF90CF9008956F927F928F929F92AF921B
:1015C000BF92CF92DF92EF92FF920F931F93CF9330
:1015D000DF93EC015C01842F952F6C01790100E011
:1015E00010E0662E772471EC872E912C8C0E9D1EB8
:1015F00056C0E881F981EE59FF4F0190F081E02D4E
:10160000C50162E171E00995A881B981A259BF4F76
:10161000F601808190E0880F991FF40120813181CB
:10162000280F391FF90140815181662757FD6095C8
:10163000762FED91FC91C5012AE030E00995E88113
:10164000F981EE59FF4F0190F081E02DC50169E16C
:1016500071E00995E881F981E258FF4FD7014D917A
:101660005C9160E070E00190F081E02DC5012AE01E
:1016700030E00995F60181916F0190E0880F991F84
:10168000D401ED91FC91E80FF91FD7016D917D9187
:101690007D01808191810E9496050F5F1F4F061585
:1016A00017050CF4A6CF80E090E0DF91CF911F9159
:1016B0000F91FF90EF90DF90CF90BF90AF909F90F1
:1016C0008F907F906F9008952F923F924F925F92EC
:1016D0006F927F928F929F92AF92BF92CF92DF9242
:1016E000EF92FF920F931F93DF93CF9300D00F924F
:1016F000CDB7DEB76C011A0189838D2CAA24BB24D7
:10170000462E5524F1EC6F2E712C680E791E4CC0BC
:10171000F101EA0DFB1D9080E92CFF24EE0CFF1C6B
:10172000D3010D90BC91A02DAE0DBF1DBB83AA832C
:101730008D919C91892BA9F583E090E00E947E22F7
:10174000182F092F0E944C05EA81FB811083018329
:10175000D301ED91FC91EE0DFF1D80819181692DEA
:1017600070E00E945106D601ED91FC91EE59FF4FB9
:101770000190F081E02D8981982D6DE171E009954E
:10178000D601ED91FC91E258FF4F492D50E060E009
:1017900070E00190F081E02D8981982D2AE030E001
:1017A00009950894A11CB11CA414B5040CF4B0CF85
:1017B00080E090E00F900F900F90CF91DF911F91FC
:1017C0000F91FF90EF90DF90CF90BF90AF909F90E0
:1017D0008F907F906F905F904F903F902F900895E3
:1017E000662321F489ED96E00E94542180E090E088
:1017F0000895662331F489ED96E0B90150E00E9426
:10180000812280E090E00895FF920F931F93CF9381
:10181000DF93F42EE801662339F489ED96E0B901EF
:1018200050E00E94D722888388818F1519F420E028
:1018300030E002C023E830E0C901DF91CF911F9171
:101840000F91FF900895CF93DF93EA01662329F467
:1018500089ED96E00E945521888380E090E0DF9139
:10186000CF9108959F92AF92BF92CF92DF92EF9265
:10187000FF920F931F93CF93DF93EC01962EBA0143
:10188000A9015801C954DF4F8881C75BD040C82ED9
:10189000DD2400E010E020E030E0B8EBEB2EF12C8E
:1018A000EC0EFD1E12C0D701ED91FC91E20FF31F6B
:1018B00080819181A281B3812C5F3F4F48175907E6
:1018C0006A077B0728F00F5F1F4F0C151D055CF39F
:1018D0000115110511F001501040992009F578010A
:1018E000EE0CFF1CEE0CFF1C8E0108541F4FD8019C
:1018F000ED91FC91EE0DFF1D6081718189ED96E007
:101900000E945321D801ED91FC91EE0DFF1D8081C5
:101910009181A281B381F50180839183A283B383F6
:1019200080E090E0DF91CF911F910F91FF90EF90B9
:10193000DF90CF90BF90AF909F9008950E942A1E95
:1019400028EE33E040E050E00E94062CCA01B901C5
:1019500008950E942A1E08956F927F928F929F92FF
:10196000AF92BF92CF92DF92EF92FF920F931F93AD
:10197000CF93DF933601222331F480EA94E0642F81
:10198000402F21E00AC0213019F021E830E036C0B4
:1019900080EA94E0642F402F20E00E94B9020E9468
:1019A0002A1E5B016C01802E992400E010E00EC01D
:1019B0000E942A1E6A197B098C099D09E616F70602
:1019C0000807190718F423E830E018C080EA94E00B
:1019D0000E94FE01881599055CF3C0E0D0E009C0C3
:1019E00080EA94E00E940702F301EC0FFD1F808360
:1019F0002196C815D905A4F320E030E0C901DF9194
:101A0000CF911F910F91FF90EF90DF90CF90BF90FB
:101A1000AF909F908F907F906F900895EF92FF927C
:101A20000F931F93122F80EA94E0642F0E94F40119
:101A300080EA94E0B701402F50E00E944502112354
:101A400021F480EA94E061E005C0113041F480EABD
:101A500094E060E00E94A60220E030E007C080EA47
:101A600094E061E00E94A60221E830E0C9011F91E4
:101A70000F91FF90EF900895FC01E154FF4F01900A
:101A8000F081E02DE60FF11D8081882319F08F5F32
:101A9000808304C080EA94E00E94C60280E090E067
:101AA00008956F927F928F929F92AF92BF92CF9242
:101AB000DF92EF92FF920F931F93CF93DF93842EC9
:101AC000F22E902E1E2D3601802F61E00E94C71F3E
:101AD0006E2D60956170802F0E945420C0E0D0E090
:101AE00000E0CF2CDD24E82CFF2411701BC0802FD8
:101AF000820FA82FB0E0F301EA0FFB1F80818EBD9B
:101B00000DB407FEFDCF8EB5AA0DBB1D8C932F5FC4
:101B10003F4F2E153F055CF3892D612F0E94542005
:101B20002196080DCC15DD051CF420E030E0F1CF46
:101B300080E090E0DF91CF911F910F91FF90EF90A7
:101B4000DF90CF90BF90AF909F908F907F906F90DD
:101B50000895CF92DF92EF92FF920F931F93CF934E
:101B6000DF9369018A01C0E0D0E0E62EFF241EC0A9
:101B7000F801808161E00E94C71FFE0183E0F595B6
:101B8000E7958A95E1F7EC0DFD1D608170E0CE01CF
:101B90008770907002C0759567958A95E2F76170BD
:101BA000F80181918F010E9454202196CE15DF0506
:101BB000FCF280E090E0DF91CF911F910F91FF90B8
:101BC000EF90DF90CF9008958F929F92AF92BF9247
:101BD000CF92DF92EF92FF920F931F93CF93DF93F9
:101BE00069017A0100E010E0C0E0D0E03AEB832E1A
:101BF000912C880E991E2BEBA22EB12CA80EB91E8B
:101C000013C0D501ED91FC91EC0FFD1F80819181F6
:101C1000A281B3812496C816D906EA06FB0650F0C5
:101C20000E94CC010F5F1F4FF401808190E00817E4
:101C300019073CF380E090E0DF91CF911F910F9165
:101C4000FF90EF90DF90CF90BF90AF909F908F90DC
:101C50000895842F0E94C70180E090E00895842FAA
:101C60000E94BE0180E090E008950E94DD0180E0C6
:101C700090E00895CF92DF92EF92FF920F931F931F
:101C8000CF93DF9369018A01C0E0D0E0E62EFF2404
:101C900010C0F801808161E00E94C71FF601EC0FBF
:101CA000FD1F6081F80181918F0170E00E94221F69
:101CB0002196CE15DF056CF380E090E0DF91CF91A7
:101CC0001F910F91FF90EF90DF90CF900895CB017F
:101CD000BA010E94381E08959F92AF92BF92CF9290
:101CE000DF92EF92FF920F931F93CF93DF93162F04
:101CF000922EE5014130D9F4862F61E00E94C71F82
:101D0000812F61E00E94542061E070E080E090E06B
:101D10000E94381E812F60E00E94542061E070E034
:101D200080E090E00E94381E812F61E01CC04230AC
:101D3000E1F4862F61E00E94C71F812F60E00E94BE
:101D4000542061E070E080E090E00E94381E812F16
:101D500061E00E94542061E070E080E090E00E9429
:101D6000381E812F60E00E945420892D60E00E947F
:101D7000C71F002319F4892D60E004C0013051F41D
:101D8000892D61E0A70196010E94B72068837983BD
:101D90008A839B8380E090E0DF91CF911F910F9128
:101DA000FF90EF90DF90CF90BF90AF909F900895FD
:101DB0009F92AF92BF92CF92DF92EF92FF920F93DA
:101DC0001F93962E59016A012115310541055105D0
:101DD000B9F0862F61E00E94C71FE114F1040105EC
:101DE000110529F0892DB501A801970106C0892D9B
:101DF000B50120E030E040E050E00E949F2303C0A6
:101E0000862F0E94882380E090E01F910F91FF9021
:101E1000EF90DF90CF90BF90AF909F9008958F92FA
:101E20009F92AF92BF92CF92DF92EF92FF920F9369
:101E30001F93CF93DF934A01790108E0CC24DD247E
:101E4000C0E0D0E0A62EBB241EC0002341F4F70161
:101E5000EC0DF11DD082C39407E0DD2401C00150D8
:101E6000F401EC0FFD1F1081812F60E00E94C71F5D
:101E7000812F0E948720002E02C0880F991F0A948C
:101E8000E2F7D82A2196CA15DB05FCF2EC0CF11C0E
:101E9000F701D08280E090E0DF91CF911F910F9108
:101EA000FF90EF90DF90CF90BF90AF909F908F907A
:101EB0000895CF92DF92EF92FF920F931F93CF93EB
:101EC000DF93EC0179018A01613091F0613020F0FB
:101ED000623009F068C040C081E00E94E71E898935
:101EE0009A89AB89BC898D8B9E8BAF8BB88F55C07F
:101EF000C655DF4F8881CA5AD040882309F453C0A1
:101F000020E030E040E050E0C82EDD24BE01655501
:101F10007F4F1EC0DB01ED91FC91E40FF51F808126
:101F20009181A281B3814C5F5F4F8E159F05A00701
:101F3000B10761F4220F331FC355DF4FE881F981E8
:101F4000CD5AD040E20FF31F808121C02F5F3F4F59
:101F50002C153D05FCF224C0C155DF4F88819981C5
:101F6000AA81BB81CF5AD040281739074A075B079F
:101F7000B8F0CD54DF4F88819981AA81BB81C35BC2
:101F8000D04082179307A407B50750F080E00E9465
:101F9000E71EED8AFE8A0F8B188F20E030E005C027
:101FA00022E830E002C021E830E0C901DF91CF91A2
:101FB0001F910F91FF90EF90DF90CF9008956F9257
:101FC0007F928F929F92AF92BF92CF92DF92EF92C9
:101FD000FF920F931F93CF93DF936C014A01790116
:101FE000D9011C9200E018E0C0E0D0E0A62EBB248E
:101FF00058E0652E712C33C0F401EC0FFD1F808179
:102000000E94EA1EAC01F601608926C0F701E00FCC
:10201000F11DD60150968C9190E0861B91099A0192
:1020200002C0369527958A95E2F7C9019301211BD5
:10203000310902C0880F991F2A95E2F72081282BC9
:102040002083611710F4161B09C0611B0F5FF70195
:10205000E00FF11D108218E06623C1F62196CA1523
:10206000DB0554F280E090E0DF91CF911F910F915A
:10207000FF90EF90DF90CF90BF90AF909F908F90A8
:102080007F906F900895DF92EF92FF920F931F93CE
:102090008C010E94F9078AE893E0F801918380831C
:1020A00081E0878382E0808711867AE1E72E75E000
:1020B000F72EC70160E070E00E943905D82EC701F5
:1020C00061E070E00E9439053D2D20E090E0282B72
:1020D000392BF80136AB25AB1F910F91FF90EF9094
:1020E000DF900895EF92FF920F931F93DF93CF93AA
:1020F00000D000D0CDB7DEB77C01DB01FC017383DB
:10210000628319821A821B821C824087ED91FC91A6
:1021100002A0F3A1E02DCB01642F20E835E240E0DE
:1021200050E08E010F5F1F4F09958AE291E0E80EA3
:10213000F91E84E090E0F701918380830F900F9067
:102140000F900F90CF91DF911F910F91FF90EF9023
:1021500008958FEF9FEF08958FEF9FEF0895CF932E
:10216000DF93DC01EC01C65DDE4F8881998185300B
:10217000910571F086309105B1F0049701F5ED916C
:10218000FC9111970084F185E02DCD01099517C0D0
:10219000ED91FC9111970284F385E02DCD01099515
:1021A000198218820CC0ED91FC9111970484F58579
:1021B000E02DCD0109958FEF9FEF0E945D2CDF91FF
:1021C000CF9108958F929F92AF92BF92CF92DF925C
:1021D000EF92FF920F931F93DF93CF9300D0CDB771
:1021E000DEB77C011982FC01A281B381ED91FC91E3
:1021F000119706A0F7A1E02DCD01D70118966C919B
:102200005E010894A11CB11CA50109958981823049
:1022100008F42FC11A82F701A281B3817AE0C72E98
:10222000D12CCE0CDF1CED91FC91119762E0862E33
:10223000912C8C0E9D1E00A4F1A5E02DCD01D7019F
:1022400018966C9142E0960184010995F701828508
:10225000A281B3818F3F09F0EFC0ED91FC911197FE
:1022600006A0F7A1E02DCD01D70118966C91A5012C
:102270000995298130E0F701838590E002972817BE
:1022800039070CF05BC004E610E0C501BA2CA92E9A
:102290004BC0D7011296ED91FC911397A081B181AB
:1022A00096962D913C919797CF01F70160854B2D24
:1022B0005A2DF9010995F701A281B3810115110584
:1022C00019F5ED91FC91119706A0F7A1E02DCD0134
:1022D000D70118966C914B2D5A2D0995F701A281C3
:1022E000B381ED91FC91119700A4F1A5E02DCD01F2
:1022F000D70118966C91498196018E010E5F1F4F90
:1023000009952FEF3FEFB7C0ED91FC911197E85A77
:10231000FF4F0190F081E02DCD0141E050E060E001
:1023200070E0099501501040298130E0F701838564
:1023300090E00297281739070CF4ABCFD70112961B
:10234000ED91FC911397808191811B964C914250A5
:102350009701245F3F4F52E0A52EB12CAC0EBD1E5D
:10236000DC0198968D909C909997CF01F70160853C
:102370008501F4010995C701B6010E94BE12F7015B
:10238000A281B3818823C9F1ED91FC911197E058A6
:10239000FF4F0190F081E02DCD0161E0A60109958C
:1023A000870106571F4FC701B601A8010E945A13A3
:1023B000F701A281B381ED91FC911197E058FF4F95
:1023C0000190F081E02DCD0160E0A8010995F701B1
:1023D000A281B381ED91FC91119702A4F3A5E02DA8
:1023E000CD01D70118966C912BE830E0E20EF31E78
:1023F000D7014C91980109953CC0ED91FC91119742
:1024000006A0F7A1E02DCD01D70118966C91AE0181
:102410004F5F5F4F0995F701A281B381ED91FC9168
:10242000119700A4F1A5E02DCD01D70118966C916C
:102430004981960185011CC0ED91FC91119706A080
:10244000F7A1E02DCD01D70118966C91A501099552
:10245000F701A281B381ED91FC91119700A4F1A540
:10246000E02DCD01D70118966C9149819601840128
:10247000099520E030E0C9010F900F90CF91DF91D6
:102480001F910F91FF90EF90DF90CF90BF90AF9092
:102490009F908F9008950F931F938C010E94671255
:1024A00082E194E0F80191838083065D1E4FF8017C
:1024B000118210820A521140F801178216821F9170
:1024C0000F91089580E695E00E944B120895FC015B
:1024D00088E294E0918380831582148280E881876A
:1024E00008958FEF9FEF08958FEF9FEF08958FEF7F
:1024F0009FEF08958FEF9FEF08958FEF9FEF08955F
:102500008FEF9FEF08958FEF9FEF0895CF93DF93A5
:10251000EC018C819D818430910591F0853091058D
:102520001CF4892B39F024C08530910579F0069789
:10253000F9F416C0E881F9810190F081E02D15C011
:10254000E881F9810084F185E02D0FC0E881F981EF
:102550000284F385E02DCE0109951D821C820BC0FB
:10256000E881F9810484F585E02DCE01099503C049
:1025700080E890E000C0DF91CF910895DB011196D3
:102580006C911197462F50E04150504020E030E0D0
:1025900090E007C0FD01E20FF31F8081980F2F5FCD
:1025A0003F4F24173507B4F320E0A60FB11D119754
:1025B0008C91981709F421E0822F08950F931F93AF
:1025C000FB01DA018FEF8C93822F8A5F11968C9337
:1025D0001197828112968C931297838113968C9314
:1025E00013970F3F110509F020F414960C931497DC
:1025F00004C083E014968C93149711968C911197D4
:10260000682F70E06150704040E050E090E007C0FB
:10261000FD01E40FF51F8081980F4F5F5F4F461754
:102620005707B4F3A20FB31F15969C931F910F91F8
:1026300008950F931F93890120E030E00E94DE127D
:102640001F910F910895BF92CF92DF92EF92FF9268
:102650000F931F93CF93DF93EC016B01142FB52ED3
:10266000B901842F952F9C01D90120E030E0402F43
:1026700050E009C0FB01E20FF31F808114968C9398
:1026800014972F5F3F4F1196241735079CF3CE0107
:10269000B601412F5B2D202F30E087010E94DE1212
:1026A000DF91CF911F910F91FF90EF90DF90CF902E
:1026B000BF9008952F923F924F925F926F927F92B8
:1026C0008F929F92AF92BF92CF92DF92EF92FF9242
:1026D0000F931F93DF93CF93CDB7DEB728970FB635
:1026E000F894DEBF0FBECDBF2C013B011A012DB700
:1026F0003EB73E832D83DB0114969C91149780E0B6
:1027000015962C91E22FF0E0E82BF92BBCEFE0308E
:10271000FB07C0F01982EB57FB4FEE0FFF1FE40DD4
:10272000F51DDB0111968C916A5F7F4F9A012B5F3B
:102730003F4F0190F081E02D8750AE014F5F5F4F1A
:102740000995E7C7E232F10509F42DC5E332F10539
:1027500008F090C0E131F10509F435C1E231F1052D
:1027600008F044C0E930F10509F4D9C1EA30F105B7
:10277000E0F4E430F10509F439C1E530F10540F445
:10278000309709F43AC2339711F00C94B81D20C168
:10279000E630F10509F47EC1E630F10508F447C1E1
:1027A000389711F00C94B81DB0C1ED30F10509F463
:1027B000D6C1EE30F10568F4EB30F10509F4BFC184
:1027C000D20112960D911C9113973C9708F0C1C14C
:1027D000B0C1EF30F10509F4D2C1D20112960D91CA
:1027E0001C911397709708F0D4C1C3C1E931F1056A
:1027F00009F43AC3EA31F10508F5E531F10509F4C8
:102800006AC2E631F10568F4E331F10509F4FBC170
:10281000D20112960D911C911397749708F009C27A
:10282000BEC1E731F10509F4BBC2D20112960D9188
:102830001C911397789708F0C1C287C2ED31F1055A
:1028400009F4F2C3EE31F10540F4EB31F10509F47E
:1028500070C37C9708F07FC33DC3EF31F10509F4E5
:102860002EC4EF31F10508F40DC4B09711F00C94AB
:10287000B81D33C4E33CF10509F433C7E43CF1056A
:1028800008F048C0E434F10509F4D6C5E534F10593
:10289000F0F4E532F10509F449C5E632F10548F4F2
:1028A000E332F10509F4FDC4B49711F00C94B81D9E
:1028B00033C5E234F10509F45CC5E334F10508F0F1
:1028C00078C5E134F10511F00C94B81D3DC5E3382D
:1028D000F10509F494C6E438F10570F4E136F10528
:1028E00009F418C6E436F10509F447C6E036F105E7
:1028F00011F00C94B81DEBC5E13CF10509F4B6C626
:10290000E23CF10508F0D2C6E03CF10511F00C9470
:10291000B81D8CC6B1E0E030FB0709F4CEC721E05A
:10292000E130F20718F5E13EF10509F426C7E23E71
:10293000F10570F4E53CF10509F407C7E53CF10544
:1029400008F4EAC6E03EF10511F00C94B81D09C781
:10295000E33EF10509F46CC7E33EF10508F44BC70B
:10296000E43EF10511F00C94B81D96C731E0E73054
:10297000F30711F40C94DD1C41E0E830F40780F417
:1029800051E0E230F50709F4BBC781E0E230F80717
:1029900008F4A4C7E350F14011F00C94B81DF5C73A
:1029A000A1E0E134FA0711F40C94211DB1E0E23406
:1029B000FB0711F40C949D1DE054F14011F00C94B0
:1029C000B81D0C94181DA4E0EA2EF12C0C94C11D26
:1029D000D2011296ED91FC9113978281FA018583C1
:1029E0001296ED91FC91139783811AC1D201129630
:1029F000ED91FC9113978781FA0185831296ED91F1
:102A0000FC9113978085DA0116968C93D201129669
:102A1000ED91FC9113978185FA018783C20123E030
:102A200030E000E010E00E94DE120C94BF1DD201E5
:102A30001296ED91FC91139785A196A1A7A1B0A53F
:102A40008B2F9927AA27BB27FA018583D2011296DB
:102A5000ED91FC91139785A196A1A7A1B0A5CD01F9
:102A6000AA27BB27FA018683D2011296ED91FC9129
:102A7000139785A196A1A7A1B0A5892F9A2FAB2F57
:102A8000BB27FA018783D2011296ED91FC9113972F
:102A900085A153C1DB0118963C91189720E044278B
:102AA00037FD4095542F19968C9190E0A0E0B0E04E
:102AB000282B392B4A2B5B2B19821A821B821C82F2
:102AC000F201A281B381ED91FC91119704A0F5A1CF
:102AD000E02DCD01D20118966C918E010F5F1F4F32
:102AE00009957C01F201A281B381ED91FC911197CE
:102AF000E85AFF4F0190F081E02DCD0148EE53E000
:102B000060E070E009950C94B11DD2011296ED9130
:102B1000FC91139723853485C201028510C4D2012C
:102B20001296ED91FC91139726853785C201058594
:102B300006C4F801228D338DC201018D00C4D2017B
:102B40001296ED91FC911397258D368DC201048D5F
:102B5000F6C3F80120A131A1C201078DF0C3D20153
:102B60001296ED91FC91139723A134A1C20102A109
:102B7000E6C3F80122A533A5C20101A5E0C3D20135
:102B80001296ED91FC91139725A536A5C20104A5D7
:102B9000D6C3F80120A931A9C20107A5D0C3DB0122
:102BA00016969C91169780E017962C91179730E017
:102BB000822B932BF80196AB85AB0190F081E02D31
:102BC000E65AFF4F0190F081E02DC80160E070E00F
:102BD00016964C910995F201A281B381ED91FC9179
:102BE0001197E65AFF4F0190F081E02DCD0161E091
:102BF00070E0D30117964C910995C201B301A10170
:102C000020E030E0BAC7D2011296ED91FC91139703
:102C100086A9FA0185831296ED91FC91139785A9F7
:102C2000D10116968C93C201B301A10122E030E0DC
:102C3000F8CEFB01818590E0308520E0822B932B3C
:102C4000AA2797FDA095BA2FF80187AB90AFA1AF47
:102C5000B2AF0190F081E02DE65AFF4F0190F08174
:102C6000E02DC80162E070E0D30116964C91099501
:102C7000F201A281B381ED91FC911197E65AFF4FC9
:102C80000190F081E02DCD0163E070E0D301179653
:102C90004C910995F201A281B381ED91FC911197BC
:102CA000E65AFF4F0190F081E02DCD0164E070E025
:102CB000D30118964C910995F201A281B381ED914F
:102CC000FC911197E65AFF4F0190F081E02DCD0164
:102CD00065E070E0E2C2D2011296ED91FC9113978B
:102CE00087A990ADA1ADB2AD8B2F9927AA27BB279D
:102CF000FA018583D2011296ED91FC91139787A971
:102D000090ADA1ADB2ADCD01AA27BB27F10186835D
:102D1000D2011296ED91FC91139787A990ADA1ADC8
:102D2000B2AD892F9A2FAB2FBB27F1018783D20138
:102D30001296ED91FC91139787A9F1018087C2014A
:102D4000B301A10124E030E06CCEDB0116969C912A
:102D5000169780E017962C91179730E0822B932BD3
:102D6000F80194AF83AF0190F081E02DE65AFF4F58
:102D70000190F081E02DC80166E070E016964C915C
:102D80000995F201A281B381ED91FC911197E65A68
:102D9000FF4F0190F081E02DCD0167E070E029CF79
:102DA000D2011296ED91FC91139784ADFA018583BF
:102DB0001296ED91FC91139783AD32CF035C1F4FB8
:102DC000FB01818590E0308520E0822B932BAA27A0
:102DD00097FDA095BA2FF80180839183A283B383D6
:102DE0000D531040D801ED91FC91E65AFF4F019030
:102DF000F081E02DC80168E070E0D30116964C9197
:102E00000995F201A281B381ED91FC911197E65AE7
:102E1000FF4F0190F081E02DCD0169E070E0D3011A
:102E200017964C910995F201A281B381ED91FC9125
:102E30001197E65AFF4F0190F081E02DCD016AE035
:102E400070E0D30118964C910995F201A281B381EB
:102E5000ED91FC911197E65AFF4F0190F081E02D22
:102E6000CD016BE070E019C2D2011296ED91FC9198
:102E70001397FD9680819181A281B3818B2F992731
:102E8000AA27BB27FA018583D2011296ED91FC9106
:102E90001397FD9680819181A281B381CD01AA27EC
:102EA000BB27FA018683D2011296ED91FC9113970C
:102EB000FD9680819181A281B381892F9A2FAB2FBA
:102EC000BB27FA018783D2011296ED91FC911397EB
:102ED00085AD33CFF201A281B381AF5BBF4FFB0160
:102EE000968180E0278130E0822B932B11969C9372
:102EF0008E93A154B040ED91FC911197E65AFF4F8B
:102F00000190F081E02DCD016CE070E0D3011696C8
:102F10004C910995F201A281B381ED91FC91119739
:102F2000E65AFF4F0190F081E02DCD016DE070E099
:102F300060CED2011296ED91FC911397EF5BFF4F9B
:102F40008181FA0185831296ED91FC911397EF5BD5
:102F5000FF4F808165CEFB018681D20112960D91D3
:102F60001C9113978132B8F00D5B1F4F80E2F8017E
:102F7000808312960D90BC91A02DED91FC9111973C
:102F8000E65AFF4F0190F081E02DCD016EE070E038
:102F900040E2099516C00D5B1F4FD8018C93D201FA
:102FA0001296ED91FC911397A081B181A65ABF4F63
:102FB0002D913C91CF016EE070E0F3014681F90163
:102FC0000995730100E010E01DC0E00FF11FEC5BFC
:102FD000FF4FD70116968C918083F201A281B381B5
:102FE000ED91FC911197E65AFF4F015F1F4F019041
:102FF000F081E02DCD01B801D70116964C910995CD
:103000000E501040D2011296ED91FC911397089446
:10301000E11CF11CED5BFF4F8081E354F04090E038
:103020000817190794F2E9CDD2011296ED91FC919F
:103030001397ED5BFF4F8081FA018583BA0140E071
:1030400050E00AC0E40FF51FEC5BFF4F8081DB010D
:1030500015968C934F5F5F4FD2011296ED91FC91C4
:103060001397ED5BFF4F2081E354F0406F5F7F4F7C
:10307000822F90E0481759072CF3C201B301A10138
:1030800030E0CFCCD2011296ED91FC911397EC5920
:10309000FF4FDB0116968C918083F201A281B381F0
:1030A000ED91FC911197E65AFF4F0190F081E02DD0
:1030B000CD0160E370E0D30116964C919DCDD20115
:1030C0001296ED91FC911397EC59FF4F8081FA0114
:1030D0008583C20121E030E0A4CCDB0116968C91FF
:1030E000F201028113818134A8F00B591F4F80E453
:1030F000D8018C93A281B381ED91FC911197E65A8E
:10310000FF4F0190F081E02DCD0161E370E040E4DC
:10311000099516C00B591F4FF8018083D2011296F2
:10312000ED91FC911397A081B181A65ABF4F2D91CB
:103130003C91CF0161E370E0F3014681F90109950B
:10314000730100E010E01DC0E00FF11FEA59FF4FCE
:10315000D70116968C918083F201A281B381ED9103
:10316000FC911197E65AFF4F0E5C1F4F0190F081C2
:10317000E02DCD01B801D70116964C910995015368
:103180001040D2011296ED91FC9113970894E11C26
:10319000F11CEB59FF4F8081E556F04090E0081795
:1031A000190794F22ACDF201628173816A557F4F2B
:1031B000D30116962C91169730E040E050E0522F44
:1031C00044273327222717968C9190E0A0E0B0E0A7
:1031D000DC0199278827282B392B4A2B5B2BF301FD
:1031E000818590E0A0E0B0E0282B392B4A2B5B2BA7
:1031F000808590E0A0E0B0E0BA2FA92F982F882713
:10320000282B392B4A2B5B2BDB012D933D934D93C0
:103210005C931397665A7040DB01ED91FC91E65A7E
:10322000FF4F0190F081E02DCB0162E770E0D30108
:1032300016964C910995F201A281B381ED91FC9112
:103240001197E65AFF4F0190F081E02DCD0163E721
:1032500070E0D30117964C910995F201A281B381D8
:10326000ED91FC911197E65AFF4F0190F081E02D0E
:10327000CD0164E770E0D30118964C910995F201F5
:10328000A281B381ED91FC911197E65AFF4F019015
:10329000F081E02DCD0165E770E0D30119964C91E6
:1032A000ABCCD2011296ED91FC911397EA55FF4FEA
:1032B00080819181A281B3818B2F9927AA27BB2777
:1032C000F1018583D2011296ED91FC911397EA5595
:1032D000FF4F80819181A281B381CD01AA27BB27B5
:1032E000F1018683D2011296ED91FC911397EA5574
:1032F000FF4F80819181A281B381892F9A2FAB2FBB
:10330000BB27F1018783D2011296ED91FC911397AF
:10331000EA55FF4F808111CDD2011296ED91FC91BB
:10332000139725813681C201048109C0D20112960A
:10333000ED91FC91139723A934A9C20102A9EE24AF
:10334000FF240E9423131DC4F201A281B381FB015B
:103350006681ED91FC911197A301495F5F4F262F84
:1033600030E0295F3F4F260D371D0480F581E02DA9
:103370005AC1D2011296ED91FC91139780819181EF
:10338000DB0111966C916750A3014A5F5F4F910179
:103390002B5F3F4FDC0116960D911C911797CF01C3
:1033A000F80109957C01F301218130E0275030407C
:1033B00038C3D20112966D917C911397DB01ED9188
:1033C000FC91D30119963C91199720E0442737FDD1
:1033D0004095542F1A968C9190E0A0E0B0E0282BF5
:1033E000392B4A2B5B2BD3011B96EC901B97FF24A8
:1033F00000E010E01E2D0027FF24EE241E968C9185
:1034000090E0A0E0B0E0E82AF92A0A2B1B2BD301B8
:103410001D969C9180E0AA2797FDA095BA2FE82AD7
:10342000F92A0A2B1B2B0084F185E02DCB01D30157
:1034300016966C91099594C3F20122813381D901CA
:10344000ED91FC91DB011A96CC901A97DD24EE24C5
:10345000FF24FC2CEE24DD24CC241B968C9190E0E0
:10346000A0E0B0E0DC0199278827C82AD92AEA2AF7
:10347000FB2ADB011D968C9190E0A0E0B0E0C82A09
:10348000D92AEA2AFB2ADB011C968C9190E0A0E065
:10349000B0E0BA2FA92F982F8827C82AD92AEA2A5C
:1034A000FB2A0284F385E02DC901DB0117966C919C
:1034B000179718964C91189716962C91169719965F
:1034C0000C915E010894A11CB11C09957DC1D2012B
:1034D00012966D917C911397DB01ED91FC91D301D4
:1034E00019963C91199720E0442737FD4095542FB9
:1034F0001A968C9190E0A0E0B0E0282B392B4A2B53
:103500005B2B0280F381E02DCB01D30116966C91E9
:10351000099526C3D2011296ED91FC9113978589E6
:103520009689A789B08D8B2F9927AA27BB27FA01E7
:103530008583D2011296ED91FC9113978589968926
:10354000A789B08DCD01AA27BB27FA018683D201B6
:103550001296ED91FC91139785899689A789B08D74
:10356000892F9A2FAB2FBB27F1018783D2011296A7
:10357000ED91FC9113978589E0CBD2011296ED91E4
:10358000FC9113978089FA0185831296ED91FC9145
:10359000139780819181DB0111966C916750A30193
:1035A0004A5F5F4F91012A5F3F4FDC010D911C91F3
:1035B000CF01F80109957C01F301218130E027500A
:1035C0003040D2011296ED91FC911397808990E0E2
:1035D000FC012E9FC0012F9F900D3E9F900D112446
:1035E0009C0143E0369527954A95E1F787709070E6
:1035F000892B09F02F5F30E02F5F3F4F12C2F2019D
:10360000A281B381FB016681ED91FC911197A30129
:10361000495F5F4F262F30E0295F3F4F260D371D52
:103620000484F585E02DCD0109959AC2DB01199638
:103630003C91199720E0442737FD4095542F1A9666
:103640008C9190E0A0E0B0E0282B392B4A2B5B2B2B
:1036500019821A821B821C82F201A281B381ED9130
:10366000FC91119702A0F3A1E02DA6C0DB011996F1
:103670003C91199720E0442737FD4095542F1A9626
:103680008C9190E0A0E0B0E0282B392B4A2B5B2BEB
:1036900019821A821B821C82F201A281B381ED91F0
:1036A000FC91119704A0F5A1E02D86C0F201A28142
:1036B000B381ED91FC91119706A0F7A1E02DCD010A
:1036C000DB0116966C91AE014F5F5F4F09957C014F
:1036D0008981F1018583C201B301A10121E030E0BC
:1036E000A3C11982F201A281B381ED91FC911197DE
:1036F0009A012B5F3F4F00A4F1A5E02DCD01DB0126
:1037000016966C91169717964C918E010F5F1F4F6E
:1037100009957C012981BBC0D2011296ED91FC91E3
:10372000139780819181DB0111964C9148509B0148
:10373000295F3F4FDC019A960D911C919B97CF0119
:10374000FB016681F80109950BC2D2011296ED9139
:10375000FC911397A081B181A45BBF4F2D913C9147
:10376000A6C0D2011296ED91FC911397A081B18170
:1037700058962D913C9159979AC0DB0119963C912E
:10378000199720E0442737FD4095542F1A968C91C5
:1037900090E0A0E0B0E0282B392B4A2B5B2B19825C
:1037A0001A821B821C82F201A281B381ED91FC91ED
:1037B0001197028CF38DE02DCD01D30116966C91FB
:1037C0008E010F5F1F4F09957C0189819A81AB8122
:1037D000BC812B2F332744275527F10125839D01D9
:1037E000442755272683892F9A2FAB2FBB27878302
:1037F00089818087DCC0D2011296ED91FC911397EC
:1038000080819181DB0111960C910A5079E0E72EBD
:10381000F12CE60CF71CDC015C96CD90DC905D97FA
:10382000CF01F301668147812085F601099598C192
:10383000D20112964D915C911397FA01208131814A
:10384000DB011996FC911997E0E01A968C9190E0B3
:10385000E82BF92B65E0C62ED12CC20CD31CD90164
:103860005E96AD90BC905F97CA01D30116966C919D
:10387000169717964C9117971B962C911B97189695
:103880000C917F01F50109957C01F3012085C201AE
:10389000B301A10130E0C8C0D2011296ED91FC91B4
:1038A0001397A081B18190962D913C919197CF0172
:1038B000F3016681F901099553C1D2011296ED9188
:1038C000FC911397A081B1811E962D913C911F9779
:1038D000CF01FB016681F90109958FC9D2011296CA
:1038E000ED91FC911397A081B18150962D913C915F
:1038F0005197CF01FB0166814781F90109957DC987
:10390000DB0119963C91199720E0442737FD40953B
:10391000542F1A968C9190E0A0E0B0E0282B392B20
:103920004A2B5B2B19821A821B821C82F201A28114
:10393000B381ED91FC9111970488F589E02DCD01BB
:10394000DB0116966C918E010F5F1F4F09957C016C
:1039500089819A81AB81BC812B2F3327442755273E
:10396000F10125839D01442755272683892F9A2F0E
:10397000AB2FBB27878389818087C201B301A10157
:1039800024E030E000E010E050C0D2011296ED914A
:10399000FC911397A081B18152962D913C91539740
:1039A000CF01FB0166814781F90109957C01C201C4
:1039B000B301A10124E030E037C0D2011296ED91AD
:1039C000FC911397DB0117964C9117970081118199
:1039D00011968C9190E00B97642F70E00E94F32B6E
:1039E000262F7AE0C72ED12CC60CD71C65E0A62E58
:1039F000B12CA20CB31CD80156968D909C90579771
:103A0000CF01F30166810085E184F40109957C0111
:103A1000D30118962C91189717968C91289F900196
:103A20001124C201B301A10187010E94DE12A9C0C5
:103A3000F20182819381DC01ED91FC91E25BFF4F09
:103A400084C0BDB7BF83EEB7E88756E0A52EB12C82
:103A5000A60EB71EDB0116968C9190E09C01220FFA
:103A6000331FEDB7FEB7E21BF30B0FB6F894FEBFA2
:103A70000FBEEDBF2DB73EB72F5F3F4FFC0137960E
:103A8000E60FF71F49016901B90140E050E00DC0A0
:103A9000308120E0818190E0822B932BDB018D939C
:103AA0009D93BD014F5F5F4F3296D5018C9190E0A1
:103AB000481759076CF3EE24FF2415C0D801ED9187
:103AC000FC91E258FF4FD6014D915D916D0160E090
:103AD00070E00190F081E02DC8012AE030E0099506
:103AE0000894E11CF11CF5016081862F90E0D20161
:103AF00012960D911C911397E816F906FCF2D80165
:103B0000ED91FC91E05BFF4FA301495F5F4F019096
:103B1000F081E02DC801940109957C01C201B30137
:103B2000A10197010E9419132F813885C9010FB691
:103B3000F8949EBF0FBE8DBF24C0F2018281938195
:103B4000DC01ED91FC91EE5AFF4FD30111966C917F
:103B50006750A3014A5F5F4F0190F081E02D099506
:103B60007C01C201B301A10197010E94191309C090
:103B7000C201B301A10121E030E00E941913EE243B
:103B8000FF24C701ED81FE810FB6F894FEBF0FBE82
:103B9000EDBF28960FB6F894DEBF0FBECDBFCF9114
:103BA000DF911F910F91FF90EF90DF90CF90BF902A
:103BB000AF909F908F907F906F905F904F903F90CD
:103BC0002F9008951F920F920FB60F9211242F93EA
:103BD0003F938F939F93AF93BF9380919006909163
:103BE0009106A0919206B0919306309194060196A9
:103BF000A11DB11D232F2D5F2D3720F02D570196CC
:103C0000A11DB11D20939406809390069093910678
:103C1000A0939206B093930680918C0690918D06A6
:103C2000A0918E06B0918F060196A11DB11D8093C3
:103C30008C0690938D06A0938E06B0938F06BF914D
:103C4000AF919F918F913F912F910F900FBE0F9049
:103C50001F9018958FB7F894209190063091910697
:103C600040919206509193068FBFB901CA01089501
:103C70009B01AC017FB7F89480918C0690918D06E2
:103C8000A0918E06B0918F0666B5A89B05C06F3FC8
:103C900019F00196A11DB11D7FBFBA2FA92F982F32
:103CA0008827860F911DA11DB11D62E0880F991F05
:103CB000AA1FBB1F6A95D1F7BC012DC0FFB7F894AE
:103CC00080918C0690918D06A0918E06B0918F0602
:103CD000E6B5A89B05C0EF3F19F00196A11DB11DE7
:103CE000FFBFBA2FA92F982F88278E0F911DA11DD6
:103CF000B11DE2E0880F991FAA1FBB1FEA95D1F7FB
:103D0000861B970B885E9340C8F22150304040409C
:103D1000504068517C4F211531054105510571F620
:103D20000895789484B5826084BD84B5816084BD33
:103D300085B5826085BD85B5816085BDEEE6F0E024
:103D4000808181608083E1E8F0E010828081826080
:103D50008083808181608083E0E8F0E08081816001
:103D60008083E1E9F0E080818260808380818160EE
:103D70008083E0E9F0E0808181608083E1ECF0E025
:103D80008081846080838081826080838081816083
:103D90008083E3ECF0E0808181608083E0ECF0E000
:103DA000808182608083E2ECF0E0808181608083AA
:103DB000EAE7F0E080818460808380818260808394
:103DC0008081816080838081806880830895809372
:103DD00099010895823108F08251E82FF0E0E05D0A
:103DE000FE4FE49120917B008E2F869586958695D7
:103DF00090E08170907035E0880F991F3A95E1F757
:103E00002F7D282B20937B00E7708091990182956C
:103E1000880F880F807C8E2B80937C0080917A00A5
:103E2000806480937A0080917A0086FDFCCF209197
:103E3000780040917900942F80E030E0282B392BD6
:103E4000C90108951F93CF93DF93182FEB0161E011
:103E50000E94C71F209709F48FC0CF3FD10509F4F6
:103E60008EC0E12FF0E0EE5EFE4F8491883009F4C1
:103E700040C0893070F4823019F1833020F48130F1
:103E800009F077C018C0833001F1843009F071C0A7
:103E900026C08B3009F44BC08C3030F4893099F156
:103EA0008A3009F066C039C08C3009F44DC08E30BC
:103EB00009F05FC051C084B5806884BDC7BD63C0D0
:103EC00084B5806284BDC8BD5EC08091800080687A
:103ED00080938000D0938900C093880054C0809163
:103EE0008000806280938000D0938B00C0938A0012
:103EF0004AC080919000806880939000D093990090
:103F0000C093980040C080919000806280939000A0
:103F1000D0939B00C0939A0036C080919000886037
:103F200080939000D0939D00C0939C002CC0809102
:103F3000C00080688093C0008091C0008F7B809318
:103F4000C000C093CF001FC08091C00080628093EA
:103F5000C000C093D00017C08091C20088608093D9
:103F6000C2008091C2008B7F8093C200C093D200B8
:103F70000AC0C038D1051CF4812F60E002C0812F37
:103F800061E00E945420DF91CF911F910895CF935B
:103F9000DF93482F50E0CA018C509F4FFC013491B1
:103FA0004A525F4FFA018491882369F190E0880FAB
:103FB000991FFC01E455FF4FA591B491FC01E65413
:103FC000FF4FC591D491662351F42FB7F8948C918B
:103FD000932F909589238C93888189230BC062301D
:103FE00061F42FB7F8948C91932F909589238C933B
:103FF0008881832B88832FBF06C09FB7F8948C914C
:10400000832B8C939FBFDF91CF910895883071F1FE
:10401000893068F4823031F1833020F4813009F046
:1040200042C01DC0833089F08430E9F512C08B3066
:1040300059F18C3028F48930E9F08A30A1F51EC09E
:104040008C3031F18E3079F529C0809180008F77E6
:1040500003C0809180008F7D80938000089584B597
:104060008F7702C084B58F7D84BD089580919000C4
:104070008F7707C0809190008F7D03C08091900062
:10408000877F8093900008958091C0008F7703C050
:104090008091C0008F7D8093C00008958091C20000
:1040A000877F8093C2000895FF920F931F93F62E8F
:1040B000482F50E0CA018E5E9E4FFC012491CA0138
:1040C0008C509F4FFC0114914A525F4FFA010491AA
:1040D0000023C9F0222319F0822F0E940620E02F2E
:1040E000F0E0EE0FFF1FE654FF4FA591B4919FB78C
:1040F000F894FF2021F48C911095812302C08C91BB
:10410000812B8C939FBF1F910F91FF9008950F9368
:104110001F93482F50E0CA018E5E9E4FFC012491F0
:10412000CA018C509F4FFC0104914A525F4FFA0123
:104130001491112319F420E030E015C0222319F066
:10414000822F0E940620812F90E0880F991F8853AC
:104150009F4FFC01A591B4918C9120E030E0802329
:1041600011F021E030E0C9011F910F9108958F9265
:104170009F92AF92BF92CF92DF92EF92FF920F93F6
:104180001F93CF93DF93A82FB0E0CD018C509F4FAA
:10419000FC018490AA52BF4FFD018491662311F463
:1041A000992401C0982C6FEFA62E6FEFB62E6FEFFB
:1041B000C62E6FE0D62EA222B322C422D522682FAB
:1041C00070E0660F771F68537F4FEE24FF2487014E
:1041D000FB01A591B4910BC0EA14FB040C051D056D
:1041E00009F44EC00894E11CF11C011D111D8C91B5
:1041F0008821891589F30CC0EA14FB040C051D0500
:1042000009F43EC00894E11CF11C011D111D03C0FE
:10421000FB01A591B4918C918821891569F720E063
:1042200030E040E050E0FB01C591D4910FC0DA01CD
:10423000C9018E0D9F1DA01FB11F8A159B05AC05DE
:10424000BD05F1F02F5F3F4F4F4F5F4F88818821B1
:10425000891569F3CA01B90125E130E040E050E079
:104260000E94C82B9B01AC01205F3F4F4F4F5F4F17
:1042700084E056954795379527958A95D1F704C0E0
:1042800020E030E040E050E0B901CA01DF91CF9179
:104290001F910F91FF90EF90DF90CF90BF90AF9064
:1042A0009F908F900895089508952091D50630919C
:1042B000D6068091D7069091D806281B390B2F730C
:1042C0003070C90108952091D5063091D6068091AD
:1042D000D7069091D8062817390719F42FEF3FEF2A
:1042E00009C0E091D706F091D806EB56F94F8081CE
:1042F000282F30E0C90108952091D5063091D606C7
:104300008091D7069091D8062817390719F42FEF16
:104310003FEF13C0E091D706F091D806EB56F94F66
:1043200020818091D7069091D80601968F73907066
:104330009093D8068093D70630E0C9010895109273
:10434000DC061092DB0688EE93E0A0E0B0E08093FC
:10435000DD069093DE06A093DF06B093E0068CE3C3
:1043600094E09093DA068093D90608950F931F93F3
:10437000DF93CF930F92CDB7DEB78C016983809125
:10438000A101882369F083E0BE016F5F7F4F41E0A8
:1043900050E00E94DB261816190614F49C0107C091
:1043A00081E090E0F8019383828320E030E0C9014E
:1043B0000F90CF91DF911F910F91089583E00E949C
:1043C000B2260895CF93DF9312C082E00E943D266B
:1043D0002FEF8F3F9207C9F0E091D506F091D606F6
:1043E000EB56F94F8083D093D606C093D506C09183
:1043F000D506D091D6062196CF73D0708091D7067E
:104400009091D806C817D90701F7DF91CF91089589
:10441000FC0180818E5F808380E86CE371E042E480
:1044200050E00E9456260895FC0181819081913AC6
:1044300059F4813209F04CC080E06AE971E047E04C
:1044400050E00E94562642C0913209F041C08032AD
:1044500039F48AE991E067E070E00E949A2636C05C
:10446000823209F035C082818093A10180919A0146
:1044700090919B01A0919C01B0919D01805B944023
:10448000A040B04019F58091A10180FD12C087E7DE
:1044900097E790930108809300082BE088E190E073
:1044A0000FB6F894A895809360000FBE209360002B
:1044B0000DC088E10FB6F894809360001092600000
:1044C0000FBEA895109201081092000881E008958F
:1044D00080E00895CF93DF930E94911E8BE097E0D8
:1044E0000E94BD260E94A601C0E0D0E00E94A1016A
:1044F0002097E1F30E940000F9CF08950E9450290F
:104500000895CF92DF92EF92FF920F931F93CF9374
:10451000DF937C016B018A01C0E0D0E00FC0D601BF
:104520006D916D01D701ED91FC910190F081E02D2D
:10453000C7010995C80FD91F015010400115110579
:1045400071F7CE01DF91CF911F910F91FF90EF9006
:10455000DF90CF900895CF93DF93EC010E942A1E45
:10456000688779878A879B87E881F9810680F78148
:10457000E02DCE0109959C0197FF15C00E942A1ECF
:10458000288539854A855B85621B730B840B950BE7
:104590002C813D814E815F816217730784079507E7
:1045A00018F32FEF3FEFC901DF91CF910895CF921C
:1045B000DF92EF92FF920F931F93CF93DF936C01E3
:1045C0008B017A01C0E0D0E009C0C6010E94AB2295
:1045D00097FD07C0F80181938F012196CE15DF0565
:1045E000A0F3CE01DF91CF911F910F91FF90EF903B
:1045F000DF90CF9008958230B9F0833028F488237B
:1046000051F08130F9F40AC08430B9F0843090F070
:104610008530C1F415C010926E00089580916F002E
:104620008D7F80936F000895809170008D7F8093BF
:10463000700008951092710008951092720008950C
:104640001092730008951F920F920FB60F921124CB
:104650002F933F934F935F936F937F938F939F938A
:10466000AF93BF93EF93FF938091F5069091F60679
:10467000A091F706B091F8060097A105B10551F198
:10468000E091F906F091FA0680819091FB06892766
:1046900080838091F5069091F606A091F706B0917F
:1046A000F806181619061A061B060CF58091F50671
:1046B0009091F606A091F706B091F8060197A1092E
:1046C000B1098093F5069093F606A093F706B09390
:1046D000F8060DC083E00E94FB22E091F906F091FC
:1046E000FA0690818091FB06809589238083FF9153
:1046F000EF91BF91AF919F918F917F916F915F915A
:104700004F913F912F910F900FBE0F901F901895D2
:104710001F93182F8091A201811711F09FEF06C0FF
:10472000EEE7F1E094918FEF8093A201892F0E9430
:10473000FB22812F60E00E9454201F9108952F9248
:104740003F925F926F927F928F929F92AF92BF92B1
:10475000CF92DF92EF92FF920F931F93DF93CF934D
:1047600000D000D0CDB7DEB7A82F1B0129833A8334
:104770004B835C838091A2018A1721F4EEE7F1E07C
:104780005490AFC08F3F09F02EC2A093A201EEE774
:10479000F1E054902FEF521609F425C281E058162B
:1047A00071F185151CF0552051F09BC093E059160E
:1047B00009F44BC0B4E05B1609F093C06CC014BCA4
:1047C00015BC84B5826084BD85B5816085BD2A2F06
:1047D00030E0F901EA52FF4FE491F0E0EE0FFF1FE5
:1047E000E654FF4F859194919093EC068093EB06ED
:1047F0002C503F4FF90184918093ED0674C01092C4
:1048000080001092810080918100886080938100F7
:10481000809181008160809381002A2F30E0F9012E
:10482000EA52FF4FE491F0E0EE0FFF1FE654FF4F16
:10483000859194919093F3068093F2062C503F4F0C
:10484000F90184918093F4064EC01092900010926A
:1048500091008091910088608093910080919100F7
:104860008160809391002A2F30E0F901EA52FF4FD6
:10487000E491F0E0EE0FFF1FE654FF4F8591949115
:104880009093FA068093F9062C503F4FF9018491DA
:104890008093FB0628C01092C0001092C100809146
:1048A000C10088608093C1008091C10081608093C5
:1048B000C1002A2F30E0F901EA52FF4FE491F0E005
:1048C000EE0FFF1FE654FF4F8591949190930107DF
:1048D000809300072C503F4FF90184918093020789
:1048E00002C057FC80C18A2F61E00E94C71F55207B
:1048F00021F0F2E05F1609F0BAC031018824992452
:1049000060E072E18AE790E0A40193010E94282C04
:1049100059016A01860175010894E108F10801094D
:1049200011092FEFE216F1040105110509F008F451
:1049300098C060E472E48FE090E0A40193010E94CB
:10494000282C79018A010894E108F108010911096C
:1049500082E05816C1F49FEFE916F1040105110534
:1049600009F008F4CEC060E970ED83E090E0A401A6
:1049700093010E94282C79018A010894E108F1082A
:104980000109110983E0AFEFEA16F10401051105F1
:1049900009F008F467C068E478EE81E090E0A401D3
:1049A00093010E94282C79018A010894E108F108FA
:1049B00001091109552011F483E01DC0B2E05B1616
:1049C00011F084E018C0EFEFEE16F10401051105B7
:1049D00009F008F496C064E274EF80E090E0A4016E
:1049E00093010E94282C79018A010894E108F108BA
:1049F0000109110985E0FFEFEF16F104010511052A
:104A000089F180F162E17AE780E090E0A40193010E
:104A10000E94282C79018A010894E108F108010913
:104A20001109552011F086E001C084E02FEFE21655
:104A3000F10401051105B1F0A8F0C601B50120E0AF
:104A400034E040E050E00E94282C79018A0108946B
:104A5000E108F10801091109552009F052C085E06B
:104A600004C081E0552009F04CC085BD4AC0510109
:104A7000CC24DD2460E072E18AE790E0A601950194
:104A80000E94282C79018A010894E108F1080109A3
:104A9000110980E0E81680E0F80681E0080780E070
:104AA000180710F491E010C068E478EE81E090E01F
:104AB000A60195010E94282C79018A010894E10839
:104AC000F1080109110993E0A1E05A1639F4809127
:104AD0008100887F982B9093810013C0B3E05B1610
:104AE00039F480919100887F982B9093910009C0B0
:104AF000E4E05E1631F48091C100887F982B90939A
:104B0000C10089819A81AB81BC810097A105B10563
:104B100029F48FEF9FEFAFEFBFEF13C0220C331CD0
:104B2000B10180E090E029813A814B815C810E9453
:104B3000C82B28EE33E040E050E00E94062CC9016B
:104B4000DA01E1E05E16E1F0E5151CF0552049F0D0
:104B50004AC0F3E05F1631F124E0521609F043C079
:104B600033C0E7BC8093E7069093E806A093E9067C
:104B7000B093EA0680916E00826080936E0033C02D
:104B8000F0928900E09288008093EE069093EF0601
:104B9000A093F006B093F10680916F00826080933D
:104BA0006F0021C0F0929900E09298008093F50682
:104BB0009093F606A093F706B093F80680917100E3
:104BC0008260809371000FC0E092CF008093FC065A
:104BD0009093FD06A093FE06B093FF0680917200AD
:104BE0008064809372000F900F900F900F90CF9180
:104BF000DF911F910F91FF90EF90DF90CF90BF90CA
:104C0000AF909F908F907F906F905F903F902F908C
:104C10000895282F809105078823C1F057FF1AC0F7
:104C200015C02898909304078091F1008193E217B2
:104C3000F307B9F74115510539F08091F200882347
:104C400019F48BE68093E800AFBF02C04FEF5FEF2F
:104C5000CA010895AFB7F89427702093E9008091B6
:104C6000F200282F30E0241735070CF4A901FB01CE
:104C70009B01240F311D94E6DACFDF93CF930F927F
:104C8000CDB7DEB7BE016F5F7F4F41E050E00E94BD
:104C90000926019719F02FEF3FEF03C08981282FD4
:104CA00030E0C9010F90CF91DF910895FF920F93EB
:104CB0001F93F82E142F052F4091080750910907D4
:104CC000212F302FC901DC01FB016EEF29C0F7FE57
:104CD00002C0949101C0908120910607309107078E
:104CE00024173507ACF48091E8008570E1F38091DA
:104CF000E80082FF03C02FEF3FEF17C09093F10051
:104D0000C90101968F739070892B11F46093E800AC
:104D10002F5F3F4F30930707209306071197319677
:104D20001097A9F6812F902F9C01C9011F910F9117
:104D3000FF9008959C018091E80082FFFCCFF9016B
:104D4000260F311D03C08091F1008193E217F30714
:104D5000D1F7289884E6809304078BEF8093E800CE
:104D6000CB0108958093E9008091F200882319F027
:104D70008AE38093E800089508951092050781E082
:104D80008093D70080EA8093D80082E189BD09B47E
:104D900000FEFDCF61E070E080E090E00E94381EF0
:104DA00080E98093D8008CE08093E2001092E000CC
:104DB000559A209A08955F926F927F928F929F9258
:104DC000AF92BF92CF92DF92EF92FF920F931F9319
:104DD000CF93DF93E82E842E752E809105078823CC
:104DE00071F18B01242F352FC901EC017AEFF72ED9
:104DF00067E0962E9E2050E4552E8E2D90E040E2E6
:104E0000A42EB12CA822B9223AE3632E20E4C22EAC
:104E1000D12CC822D92258C09FB7F8949092E900AB
:104E20008091E80085FD02C020E004C08091F2007E
:104E3000252D281B9FBF222361F4FA9419F42FEF2C
:104E40003FEF4DC061E070E080E090E00E94381ECE
:104E50003BC0822F90E0C817D9070CF42C2FC21B3F
:104E6000D1094FB7F8949092E900A114B10421F44C
:104E700006C01092F10021502223D9F719C0E7FC97
:104E800003C0F801922F10C0C801322F06C0FC01E8
:104E90000196E491E093F10031503323C1F706C04D
:104EA00081918093F10091509923D1F7020F111D48
:104EB0008091E80085FF05C0209729F4C114D10432
:104EC00011F06092E8004FBF209709F0A5CF5D98E0
:104ED00084E680930307282D372DC9019C01C90161
:104EE000DF91CF911F910F91FF90EF90DF90CF90C6
:104EF000BF90AF909F908F907F906F905F9008953C
:104F00001F920F920FB60F9211242F933F934F933E
:104F10005F936F937F938F939F93AF93BF93EF9321
:104F2000FF938091E1001092E100982F83FF0FC062
:104F30001092E90081E08093EB001092EC0082E394
:104F40008093ED001092050788E08093F00092FFB7
:104F500034C083E08093E9008091F200882319F047
:104F60008AE38093E8008FB7F89492E09093E90089
:104F70009091F2008FBF992321F089ED96E00E9475
:104F8000E22180910307882351F08091030781502B
:104F90008093030780910307882309F45D9A809129
:104FA0000407882351F080910407815080930407FF
:104FB00080910407882309F4289AFF91EF91BF910B
:104FC000AF919F918F917F916F915F914F913F91A1
:104FD0002F910F900FBE0F901F9018950F931F9356
:104FE000DF93CF930F92CDB7DEB719828E010F5F9B
:104FF0001F4FC8010E940822C8010E94BC2B898152
:1050000090E00F90CF91DF911F910F9108951F9223
:105010000F920FB60F921124EF92FF921F932F93CE
:105020003F934F935F936F937F938F939F93AF9330
:10503000BF93EF93FF93DF93CF93CDB7DEB7619725
:10504000DEBFCDBF1092E9008091E80083FF0FC161
:10505000FE0131969E01275F3F4F03C08091F10012
:105060008193E217F307D1F7289884E68093040729
:1050700082EF8093E800998197FF05C08091E80056
:1050800080FFFCCF03C08EEF8093E800292F30E033
:10509000C90180769070892B09F0C2C08A8188236B
:1050A00029F41092F1001092F100D6C0813009F479
:1050B000D3C0833009F4D0C0853049F48091E80032
:1050C00080FFFCCF8B8180688093E300C5C0863071
:1050D00009F07CC01C81EF80F8841230C1F5109279
:1050E000E900109207071092060710920907109224
:1050F00008070E94EE2799E0FE013996DF01292F6B
:105100001D922A95E9F799871A8791E09E8790E882
:10511000988B9AEF998B2091060730910707275FAC
:105120003F4F3C872B878D871092E900109207072D
:1051300010920607F0920907E092080780E0BF018D
:1051400049E050E00E9456260E94EE2785C010924A
:10515000E9001092070710920607F0920907E09203
:105160000807123241F482E290E00E94B42B892BAE
:1051700009F476C071C0113079F488E0E816F104C2
:1051800019F481E080930A0780910A07882309F0C7
:105190006BC0EDEBF1E013C0133009F061C08B81FF
:1051A000882319F4EFE7F1E00AC0823019F4E3E84C
:1051B000F1E005C0813009F053C0E5EAF1E0449127
:1051C00080E8BF0150E00E94562646C0873009F4AF
:1051D00047C0883021F481E08093F1003DC08930E0
:1051E000D9F523703070232BD9F5E2EEF1E091E090
:1051F00031E026E39093E9003093EB0084918093B3
:10520000EC002093ED009F5F3196953099F78EE783
:105210008093EA001092EA008B81809305071CC0FE
:105220008F8198851092E900109207071092060767
:1052300090930907809308078D81882329F4CE0174
:1052400001960E94142206C0823051F4CE010196CC
:105250000E94852A882321F08EEF8093E80007C002
:1052600081E28093EB0003C0EFECF1E0A8CF619600
:10527000DEBFCDBFCF91DF91FF91EF91BF91AF9195
:105280009F918F917F916F915F914F913F912F915E
:105290001F91FF90EF900F900FBE0F901F901895E9
:1052A0000F931F93CF93DF93BC018230910510F4CD
:1052B00062E070E0E0911B07F0911C0740E050E0D5
:1052C000A0E0B0E024C08081918186179707D0F0DC
:1052D0008617970771F482819381109729F01396AE
:1052E0009C938E9312972CC090931C0780931B075E
:1052F00027C04115510519F08417950718F48D0141
:10530000AC01EF01DF01828193819C01F9013097AB
:10531000D1F641155105F9F0CA01861B970B84306F
:10532000910580F48A819B810115110521F0F80116
:105330009383828304C090931C0780931B07FE0114
:10534000329645C0FE01E80FF91F619371930297F1
:10535000998388833CC08091190790911A07892B03
:1053600041F48091A5019091A60190931A07809332
:1053700019074091A7015091A8014115510541F429
:105380004DB75EB78091A3019091A401481B590BC2
:105390002091190730911A0724173507B0F4CA0174
:1053A000821B930B8617970780F0AB014E5F5F4F10
:1053B0008417950750F0420F531F50931A074093DC
:1053C0001907F9016193719302C0E0E0F0E0CF01A9
:1053D000DF91CF911F910F910895CF93DF939C019F
:1053E000009709F48FC0EC0122971B821A8260910A
:1053F0001B0770911C076115710581F488819981E3
:10540000820F931F2091190730911A072817390727
:1054100039F5D0931A07C093190774C0DB0140E037
:1054200050E0AC17BD0708F1BB83AA83FE012191B0
:105430003191E20FF31FAE17BF0779F48D919C9164
:105440001197280F391F2E5F3F4F398328831296FB
:105450008D919C9113979B838A834115510571F41B
:10546000D0931C07C0931B074DC012968D919C9141
:105470001397AD01009711F0DC01D3CFDA01139639
:10548000DC93CE931297FA0121913191E20FF31F31
:10549000CE17DF0769F488819981280F391F2E5FA5
:1054A0003F4FFA01318320838A819B8193838283DA
:1054B000E0E0F0E0DB0112968D919C91139700974C
:1054C00019F0BC01FD01F6CFAB014E5F5F4FDB0170
:1054D0008D919C91840F951F2091190730911A0787
:1054E0002817390779F4309729F410921C07109285
:1054F0001B0702C0138212824250504050931A0779
:1055000040931907DF91CF910895FC01918180812B
:10551000813A31F4913089F080E0933089F40DC004
:10552000813269F49B3021F482818093A90105C006
:105530009A3029F482818093AA0181E0089580E065
:105540000895EF92FF920F931F938C01E62EDC01DA
:10555000ED91FC910480F581E02D0995F82ED8019C
:10556000ED91FC910680F781E02DC8016E2D099523
:105570008F2D90E01F910F91FF90EF900895109262
:105580000C071092100710920F078EE494E090938E
:105590000E0780930D070895EF92FF920F931F93CC
:1055A000DF93CF930F92CDB7DEB789838B017A015A
:1055B00084E0BE016F5F7F4F41E050E00E94DB2638
:1055C00084E4B801A7010E94DB260F90CF91DF9100
:1055D0001F910F91FF90EF90089582E048E050E016
:1055E0000E94CC2A0895FC0116821782108611862B
:1055F0001286138614823496BF010E94ED2A089504
:10560000DC01683810F0685829C0E62FF0E067FF29
:1056100013C0E058F04081E090E002C0880F991F6D
:10562000EA95E2F7809514962C9114972823149606
:105630002C93149760E012C0EC59FD4F64916623DF
:1056400019F420E030E01DC067FF08C014968C916B
:1056500014978D7F14968C9314976F77FD0190E0CB
:10566000662321F08681861709F416829F5F3196A2
:105670009630B1F7CD011496BD010E94ED2A21E0CC
:1056800030E0C9010895CF93DF93DC01683810F052
:10569000685825C0E62FF0E067FF12C0E058F040E0
:1056A00081E090E002C0880F991FEA95E2F7149616
:1056B0002C911497282B14962C93149760E00FC00C
:1056C000EC59FD4F64916623D9F167FF08C0149629
:1056D0008C911497826014968C9314976F7716961A
:1056E0008C9116978617A9F117968C9117978617A4
:1056F00081F118968C911897861759F119968C910B
:105700001997861731F11A968C911A97861709F115
:105710001B968C911B978617E1F0ED01E0E0F0E01D
:105720009E2F8E81882321F4EA0FFB1F668306C01B
:105730009F5F31962196E630F10591F7963049F456
:1057400081E090E013969C938E93129720E030E0D6
:1057500007C0CD011496BD010E94ED2A21E030E082
:10576000C901DF91CF91089580E866EE71E045E6CA
:1057700050E00E9456260895FC0180818F5F80834F
:1057800080E86BE472E049E150E00E9456260895FB
:10579000629FD001739FF001829FE00DF11D649F15
:1057A000E00DF11D929FF00D839FF00D749FF00DA1
:1057B000659FF00D9927729FB00DE11DF91F639F42
:1057C000B00DE11DF91FBD01CF0111240895991BF2
:1057D00079E004C0991F961708F0961B881F7A95E8
:1057E000C9F78095089597FB092E07260AD077FD03
:1057F00004D049D006D000201AF4709561957F4FEF
:105800000895F6F7909581959F4F0895A1E21A2E7D
:10581000AA1BBB1BFD010DC0AA1FBB1FEE1FFF1F54
:10582000A217B307E407F50720F0A21BB30BE40BA4
:10583000F50B661F771F881F991F1A9469F76095EB
:105840007095809590959B01AC01BD01CF010895A5
:1058500097FB092E05260ED057FD04D0D7DF0AD0BE
:10586000001C38F450954095309521953F4F4F4F8F
:105870005F4F0895F6F790958095709561957F4FED
:105880008F4F9F4F0895AA1BBB1B51E107C0AA1F52
:10589000BB1FA617B70710F0A61BB70B881F991FD1
:1058A0005A95A9F780959095BC01CD010895EE0F0A
:0E58B000FF1F0590F491E02D0994F894FFCFAE
:1058BE00446562756767696E6720456E61626C65E7
:1058CE006400536572766F2000203A2000437265A3
:1058DE0061746564204E657720536572766F204F34
:1058EE006E204368616E6E656C200000127A0000B7
:1058FE00093D0080841E0040420F0020A107009049
:10590E00D0030048E8010004000000050001000675
:10591E0000020003002C01000058020000B0040039
:10592E000060090000C01200008025000040380011
:10593E0000004B000080700000127A0000009600FC
:10594E000000E1000000C201000100E100000000C3
:10595E000000FF80001D070000010100000000761E
:10596E00024502FE0107021C022D02417264756996
:10597E006E6F204C656F6E6172646F0000010203E2
:10598E000405E0C810000300000102030405060729
:10599E0008090A0B0C0D030506090A0B0D00000081
:1059AE000000DF0F590FA90D0F0FD80E6C0E3A0E17
:1059BE00350E2F0E290EE40D510D3C0D610A0E0D04
:1059CE00AC0C640A320C670A230C040CF90B690840
:1059DE004D08380871087E088908BA08C708E90812
:1059EE0004091D0936094F09680981099A09F00B46
:1059FE00640BDB0A9C0AA90C9E0C670E970A920A8E
:105A0E000208B709B809B909BA09BB09BC09BD0929
:105A1E00BE09BF09C009C109C209C309C409C50924
:105A2E00C6093708C70900000000DF0F590FA90D7E
:105A3E000F0FD80E6C0E3A0E350E2F0E290EE40DEA
:105A4E00510D3C0D610A0E0DAC0C640A320C670A46
:105A5E00230C040CF90B69084D08380871087E08F0
:105A6E008908BA08C708E90804091D0936094F094B
:105A7E00680981099A09F00B640BDB0A9C0AA90CD0
:105A8E009E0C670E970A920A0208B709B809B9095F
:105A9E00BA09BB09BC09BD09BE09BF09C009C109C4
:105AAE00C209C309C409C509C6093708C7090000D8
:105ABE0000007D227D227D227D227D227D227D227F
:105ACE007D227D227D227D227D227D227D227D22D0
